{
	"contracts/solidity-Practice/mapping-in-solidity.sol": {
		"mappingStructDemo": {
			"abi": [
				{
					"inputs": [
						{
							"internalType": "uint256",
							"name": "",
							"type": "uint256"
						}
					],
					"name": "data",
					"outputs": [
						{
							"internalType": "string",
							"name": "name",
							"type": "string"
						},
						{
							"internalType": "string",
							"name": "class",
							"type": "string"
						},
						{
							"internalType": "uint256",
							"name": "age",
							"type": "uint256"
						}
					],
					"stateMutability": "view",
					"type": "function"
				},
				{
					"inputs": [
						{
							"internalType": "uint256",
							"name": "_roll",
							"type": "uint256"
						},
						{
							"internalType": "string",
							"name": "_name",
							"type": "string"
						},
						{
							"internalType": "string",
							"name": "_class",
							"type": "string"
						},
						{
							"internalType": "uint256",
							"name": "_age",
							"type": "uint256"
						}
					],
					"name": "setter",
					"outputs": [],
					"stateMutability": "nonpayable",
					"type": "function"
				}
			],
			"devdoc": {
				"kind": "dev",
				"methods": {},
				"version": 1
			},
			"evm": {
				"assembly": "    /* \"contracts/solidity-Practice/mapping-in-solidity.sol\":2967:3308  contract mappingStructDemo{... */\n  mstore(0x40, 0x80)\n  callvalue\n  dup1\n  iszero\n  tag_1\n  jumpi\n  0x00\n  dup1\n  revert\ntag_1:\n  pop\n  dataSize(sub_0)\n  dup1\n  dataOffset(sub_0)\n  0x00\n  codecopy\n  0x00\n  return\nstop\n\nsub_0: assembly {\n        /* \"contracts/solidity-Practice/mapping-in-solidity.sol\":2967:3308  contract mappingStructDemo{... */\n      mstore(0x40, 0x80)\n      callvalue\n      dup1\n      iszero\n      tag_1\n      jumpi\n      0x00\n      dup1\n      revert\n    tag_1:\n      pop\n      jumpi(tag_2, lt(calldatasize, 0x04))\n      shr(0xe0, calldataload(0x00))\n      dup1\n      0x4fa1fc67\n      eq\n      tag_3\n      jumpi\n      dup1\n      0xf0ba8440\n      eq\n      tag_4\n      jumpi\n    tag_2:\n      0x00\n      dup1\n      revert\n        /* \"contracts/solidity-Practice/mapping-in-solidity.sol\":3151:3299  function setter(uint _roll, string memory _name, string memory _class,uint _age) public{... */\n    tag_3:\n      tag_5\n      0x04\n      dup1\n      calldatasize\n      sub\n      dup2\n      add\n      swap1\n      tag_6\n      swap2\n      swap1\n      tag_7\n      jump\t// in\n    tag_6:\n      tag_8\n      jump\t// in\n    tag_5:\n      stop\n        /* \"contracts/solidity-Practice/mapping-in-solidity.sol\":3106:3140  mapping(uint=>student) public data */\n    tag_4:\n      tag_9\n      0x04\n      dup1\n      calldatasize\n      sub\n      dup2\n      add\n      swap1\n      tag_10\n      swap2\n      swap1\n      tag_11\n      jump\t// in\n    tag_10:\n      tag_12\n      jump\t// in\n    tag_9:\n      mload(0x40)\n      tag_13\n      swap4\n      swap3\n      swap2\n      swap1\n      tag_14\n      jump\t// in\n    tag_13:\n      mload(0x40)\n      dup1\n      swap2\n      sub\n      swap1\n      return\n        /* \"contracts/solidity-Practice/mapping-in-solidity.sol\":3151:3299  function setter(uint _roll, string memory _name, string memory _class,uint _age) public{... */\n    tag_8:\n        /* \"contracts/solidity-Practice/mapping-in-solidity.sol\":3261:3289  student(_name, _class, _age) */\n      mload(0x40)\n      dup1\n      0x60\n      add\n      0x40\n      mstore\n      dup1\n        /* \"contracts/solidity-Practice/mapping-in-solidity.sol\":3269:3274  _name */\n      dup5\n        /* \"contracts/solidity-Practice/mapping-in-solidity.sol\":3261:3289  student(_name, _class, _age) */\n      dup2\n      mstore\n      0x20\n      add\n        /* \"contracts/solidity-Practice/mapping-in-solidity.sol\":3276:3282  _class */\n      dup4\n        /* \"contracts/solidity-Practice/mapping-in-solidity.sol\":3261:3289  student(_name, _class, _age) */\n      dup2\n      mstore\n      0x20\n      add\n        /* \"contracts/solidity-Practice/mapping-in-solidity.sol\":3284:3288  _age */\n      dup3\n        /* \"contracts/solidity-Practice/mapping-in-solidity.sol\":3261:3289  student(_name, _class, _age) */\n      dup2\n      mstore\n      pop\n        /* \"contracts/solidity-Practice/mapping-in-solidity.sol\":3249:3253  data */\n      0x00\n        /* \"contracts/solidity-Practice/mapping-in-solidity.sol\":3249:3260  data[_roll] */\n      dup1\n        /* \"contracts/solidity-Practice/mapping-in-solidity.sol\":3254:3259  _roll */\n      dup7\n        /* \"contracts/solidity-Practice/mapping-in-solidity.sol\":3249:3260  data[_roll] */\n      dup2\n      mstore\n      0x20\n      add\n      swap1\n      dup2\n      mstore\n      0x20\n      add\n      0x00\n      keccak256\n        /* \"contracts/solidity-Practice/mapping-in-solidity.sol\":3249:3289  data[_roll]=student(_name, _class, _age) */\n      0x00\n      dup3\n      add\n      mload\n      dup2\n      0x00\n      add\n      swap1\n      dup2\n      tag_16\n      swap2\n      swap1\n      tag_17\n      jump\t// in\n    tag_16:\n      pop\n      0x20\n      dup3\n      add\n      mload\n      dup2\n      0x01\n      add\n      swap1\n      dup2\n      tag_18\n      swap2\n      swap1\n      tag_17\n      jump\t// in\n    tag_18:\n      pop\n      0x40\n      dup3\n      add\n      mload\n      dup2\n      0x02\n      add\n      sstore\n      swap1\n      pop\n      pop\n        /* \"contracts/solidity-Practice/mapping-in-solidity.sol\":3151:3299  function setter(uint _roll, string memory _name, string memory _class,uint _age) public{... */\n      pop\n      pop\n      pop\n      pop\n      jump\t// out\n        /* \"contracts/solidity-Practice/mapping-in-solidity.sol\":3106:3140  mapping(uint=>student) public data */\n    tag_12:\n      mstore(0x20, 0x00)\n      dup1\n      0x00\n      mstore\n      keccak256(0x00, 0x40)\n      0x00\n      swap2\n      pop\n      swap1\n      pop\n      dup1\n      0x00\n      add\n      dup1\n      sload\n      tag_19\n      swap1\n      tag_20\n      jump\t// in\n    tag_19:\n      dup1\n      0x1f\n      add\n      0x20\n      dup1\n      swap2\n      div\n      mul\n      0x20\n      add\n      mload(0x40)\n      swap1\n      dup2\n      add\n      0x40\n      mstore\n      dup1\n      swap3\n      swap2\n      swap1\n      dup2\n      dup2\n      mstore\n      0x20\n      add\n      dup3\n      dup1\n      sload\n      tag_21\n      swap1\n      tag_20\n      jump\t// in\n    tag_21:\n      dup1\n      iszero\n      tag_22\n      jumpi\n      dup1\n      0x1f\n      lt\n      tag_23\n      jumpi\n      0x0100\n      dup1\n      dup4\n      sload\n      div\n      mul\n      dup4\n      mstore\n      swap2\n      0x20\n      add\n      swap2\n      jump(tag_22)\n    tag_23:\n      dup3\n      add\n      swap2\n      swap1\n      0x00\n      mstore\n      keccak256(0x00, 0x20)\n      swap1\n    tag_24:\n      dup2\n      sload\n      dup2\n      mstore\n      swap1\n      0x01\n      add\n      swap1\n      0x20\n      add\n      dup1\n      dup4\n      gt\n      tag_24\n      jumpi\n      dup3\n      swap1\n      sub\n      0x1f\n      and\n      dup3\n      add\n      swap2\n    tag_22:\n      pop\n      pop\n      pop\n      pop\n      pop\n      swap1\n      dup1\n      0x01\n      add\n      dup1\n      sload\n      tag_25\n      swap1\n      tag_20\n      jump\t// in\n    tag_25:\n      dup1\n      0x1f\n      add\n      0x20\n      dup1\n      swap2\n      div\n      mul\n      0x20\n      add\n      mload(0x40)\n      swap1\n      dup2\n      add\n      0x40\n      mstore\n      dup1\n      swap3\n      swap2\n      swap1\n      dup2\n      dup2\n      mstore\n      0x20\n      add\n      dup3\n      dup1\n      sload\n      tag_26\n      swap1\n      tag_20\n      jump\t// in\n    tag_26:\n      dup1\n      iszero\n      tag_27\n      jumpi\n      dup1\n      0x1f\n      lt\n      tag_28\n      jumpi\n      0x0100\n      dup1\n      dup4\n      sload\n      div\n      mul\n      dup4\n      mstore\n      swap2\n      0x20\n      add\n      swap2\n      jump(tag_27)\n    tag_28:\n      dup3\n      add\n      swap2\n      swap1\n      0x00\n      mstore\n      keccak256(0x00, 0x20)\n      swap1\n    tag_29:\n      dup2\n      sload\n      dup2\n      mstore\n      swap1\n      0x01\n      add\n      swap1\n      0x20\n      add\n      dup1\n      dup4\n      gt\n      tag_29\n      jumpi\n      dup3\n      swap1\n      sub\n      0x1f\n      and\n      dup3\n      add\n      swap2\n    tag_27:\n      pop\n      pop\n      pop\n      pop\n      pop\n      swap1\n      dup1\n      0x02\n      add\n      sload\n      swap1\n      pop\n      dup4\n      jump\t// out\n        /* \"#utility.yul\":7:82   */\n    tag_30:\n        /* \"#utility.yul\":40:46   */\n      0x00\n        /* \"#utility.yul\":73:75   */\n      0x40\n        /* \"#utility.yul\":67:76   */\n      mload\n        /* \"#utility.yul\":57:76   */\n      swap1\n      pop\n        /* \"#utility.yul\":7:82   */\n      swap1\n      jump\t// out\n        /* \"#utility.yul\":88:205   */\n    tag_31:\n        /* \"#utility.yul\":197:198   */\n      0x00\n        /* \"#utility.yul\":194:195   */\n      dup1\n        /* \"#utility.yul\":187:199   */\n      revert\n        /* \"#utility.yul\":211:328   */\n    tag_32:\n        /* \"#utility.yul\":320:321   */\n      0x00\n        /* \"#utility.yul\":317:318   */\n      dup1\n        /* \"#utility.yul\":310:322   */\n      revert\n        /* \"#utility.yul\":334:411   */\n    tag_33:\n        /* \"#utility.yul\":371:378   */\n      0x00\n        /* \"#utility.yul\":400:405   */\n      dup2\n        /* \"#utility.yul\":389:405   */\n      swap1\n      pop\n        /* \"#utility.yul\":334:411   */\n      swap2\n      swap1\n      pop\n      jump\t// out\n        /* \"#utility.yul\":417:539   */\n    tag_34:\n        /* \"#utility.yul\":490:514   */\n      tag_73\n        /* \"#utility.yul\":508:513   */\n      dup2\n        /* \"#utility.yul\":490:514   */\n      tag_33\n      jump\t// in\n    tag_73:\n        /* \"#utility.yul\":483:488   */\n      dup2\n        /* \"#utility.yul\":480:515   */\n      eq\n        /* \"#utility.yul\":470:533   */\n      tag_74\n      jumpi\n        /* \"#utility.yul\":529:530   */\n      0x00\n        /* \"#utility.yul\":526:527   */\n      dup1\n        /* \"#utility.yul\":519:531   */\n      revert\n        /* \"#utility.yul\":470:533   */\n    tag_74:\n        /* \"#utility.yul\":417:539   */\n      pop\n      jump\t// out\n        /* \"#utility.yul\":545:684   */\n    tag_35:\n        /* \"#utility.yul\":591:596   */\n      0x00\n        /* \"#utility.yul\":629:635   */\n      dup2\n        /* \"#utility.yul\":616:636   */\n      calldataload\n        /* \"#utility.yul\":607:636   */\n      swap1\n      pop\n        /* \"#utility.yul\":645:678   */\n      tag_76\n        /* \"#utility.yul\":672:677   */\n      dup2\n        /* \"#utility.yul\":645:678   */\n      tag_34\n      jump\t// in\n    tag_76:\n        /* \"#utility.yul\":545:684   */\n      swap3\n      swap2\n      pop\n      pop\n      jump\t// out\n        /* \"#utility.yul\":690:807   */\n    tag_36:\n        /* \"#utility.yul\":799:800   */\n      0x00\n        /* \"#utility.yul\":796:797   */\n      dup1\n        /* \"#utility.yul\":789:801   */\n      revert\n        /* \"#utility.yul\":813:930   */\n    tag_37:\n        /* \"#utility.yul\":922:923   */\n      0x00\n        /* \"#utility.yul\":919:920   */\n      dup1\n        /* \"#utility.yul\":912:924   */\n      revert\n        /* \"#utility.yul\":936:1038   */\n    tag_38:\n        /* \"#utility.yul\":977:983   */\n      0x00\n        /* \"#utility.yul\":1028:1030   */\n      0x1f\n        /* \"#utility.yul\":1024:1031   */\n      not\n        /* \"#utility.yul\":1019:1021   */\n      0x1f\n        /* \"#utility.yul\":1012:1017   */\n      dup4\n        /* \"#utility.yul\":1008:1022   */\n      add\n        /* \"#utility.yul\":1004:1032   */\n      and\n        /* \"#utility.yul\":994:1032   */\n      swap1\n      pop\n        /* \"#utility.yul\":936:1038   */\n      swap2\n      swap1\n      pop\n      jump\t// out\n        /* \"#utility.yul\":1044:1224   */\n    tag_39:\n        /* \"#utility.yul\":1092:1169   */\n      0x4e487b7100000000000000000000000000000000000000000000000000000000\n        /* \"#utility.yul\":1089:1090   */\n      0x00\n        /* \"#utility.yul\":1082:1170   */\n      mstore\n        /* \"#utility.yul\":1189:1193   */\n      0x41\n        /* \"#utility.yul\":1186:1187   */\n      0x04\n        /* \"#utility.yul\":1179:1194   */\n      mstore\n        /* \"#utility.yul\":1213:1217   */\n      0x24\n        /* \"#utility.yul\":1210:1211   */\n      0x00\n        /* \"#utility.yul\":1203:1218   */\n      revert\n        /* \"#utility.yul\":1230:1511   */\n    tag_40:\n        /* \"#utility.yul\":1313:1340   */\n      tag_82\n        /* \"#utility.yul\":1335:1339   */\n      dup3\n        /* \"#utility.yul\":1313:1340   */\n      tag_38\n      jump\t// in\n    tag_82:\n        /* \"#utility.yul\":1305:1311   */\n      dup2\n        /* \"#utility.yul\":1301:1341   */\n      add\n        /* \"#utility.yul\":1443:1449   */\n      dup2\n        /* \"#utility.yul\":1431:1441   */\n      dup2\n        /* \"#utility.yul\":1428:1450   */\n      lt\n        /* \"#utility.yul\":1407:1425   */\n      0xffffffffffffffff\n        /* \"#utility.yul\":1395:1405   */\n      dup3\n        /* \"#utility.yul\":1392:1426   */\n      gt\n        /* \"#utility.yul\":1389:1451   */\n      or\n        /* \"#utility.yul\":1386:1474   */\n      iszero\n      tag_83\n      jumpi\n        /* \"#utility.yul\":1454:1472   */\n      tag_84\n      tag_39\n      jump\t// in\n    tag_84:\n        /* \"#utility.yul\":1386:1474   */\n    tag_83:\n        /* \"#utility.yul\":1494:1504   */\n      dup1\n        /* \"#utility.yul\":1490:1492   */\n      0x40\n        /* \"#utility.yul\":1483:1505   */\n      mstore\n        /* \"#utility.yul\":1273:1511   */\n      pop\n        /* \"#utility.yul\":1230:1511   */\n      pop\n      pop\n      jump\t// out\n        /* \"#utility.yul\":1517:1646   */\n    tag_41:\n        /* \"#utility.yul\":1551:1557   */\n      0x00\n        /* \"#utility.yul\":1578:1598   */\n      tag_86\n      tag_30\n      jump\t// in\n    tag_86:\n        /* \"#utility.yul\":1568:1598   */\n      swap1\n      pop\n        /* \"#utility.yul\":1607:1640   */\n      tag_87\n        /* \"#utility.yul\":1635:1639   */\n      dup3\n        /* \"#utility.yul\":1627:1633   */\n      dup3\n        /* \"#utility.yul\":1607:1640   */\n      tag_40\n      jump\t// in\n    tag_87:\n        /* \"#utility.yul\":1517:1646   */\n      swap2\n      swap1\n      pop\n      jump\t// out\n        /* \"#utility.yul\":1652:1960   */\n    tag_42:\n        /* \"#utility.yul\":1714:1718   */\n      0x00\n        /* \"#utility.yul\":1804:1822   */\n      0xffffffffffffffff\n        /* \"#utility.yul\":1796:1802   */\n      dup3\n        /* \"#utility.yul\":1793:1823   */\n      gt\n        /* \"#utility.yul\":1790:1846   */\n      iszero\n      tag_89\n      jumpi\n        /* \"#utility.yul\":1826:1844   */\n      tag_90\n      tag_39\n      jump\t// in\n    tag_90:\n        /* \"#utility.yul\":1790:1846   */\n    tag_89:\n        /* \"#utility.yul\":1864:1893   */\n      tag_91\n        /* \"#utility.yul\":1886:1892   */\n      dup3\n        /* \"#utility.yul\":1864:1893   */\n      tag_38\n      jump\t// in\n    tag_91:\n        /* \"#utility.yul\":1856:1893   */\n      swap1\n      pop\n        /* \"#utility.yul\":1948:1952   */\n      0x20\n        /* \"#utility.yul\":1942:1946   */\n      dup2\n        /* \"#utility.yul\":1938:1953   */\n      add\n        /* \"#utility.yul\":1930:1953   */\n      swap1\n      pop\n        /* \"#utility.yul\":1652:1960   */\n      swap2\n      swap1\n      pop\n      jump\t// out\n        /* \"#utility.yul\":1966:2112   */\n    tag_43:\n        /* \"#utility.yul\":2063:2069   */\n      dup3\n        /* \"#utility.yul\":2058:2061   */\n      dup2\n        /* \"#utility.yul\":2053:2056   */\n      dup4\n        /* \"#utility.yul\":2040:2070   */\n      calldatacopy\n        /* \"#utility.yul\":2104:2105   */\n      0x00\n        /* \"#utility.yul\":2095:2101   */\n      dup4\n        /* \"#utility.yul\":2090:2093   */\n      dup4\n        /* \"#utility.yul\":2086:2102   */\n      add\n        /* \"#utility.yul\":2079:2106   */\n      mstore\n        /* \"#utility.yul\":1966:2112   */\n      pop\n      pop\n      pop\n      jump\t// out\n        /* \"#utility.yul\":2118:2543   */\n    tag_44:\n        /* \"#utility.yul\":2196:2201   */\n      0x00\n        /* \"#utility.yul\":2221:2287   */\n      tag_94\n        /* \"#utility.yul\":2237:2286   */\n      tag_95\n        /* \"#utility.yul\":2279:2285   */\n      dup5\n        /* \"#utility.yul\":2237:2286   */\n      tag_42\n      jump\t// in\n    tag_95:\n        /* \"#utility.yul\":2221:2287   */\n      tag_41\n      jump\t// in\n    tag_94:\n        /* \"#utility.yul\":2212:2287   */\n      swap1\n      pop\n        /* \"#utility.yul\":2310:2316   */\n      dup3\n        /* \"#utility.yul\":2303:2308   */\n      dup2\n        /* \"#utility.yul\":2296:2317   */\n      mstore\n        /* \"#utility.yul\":2348:2352   */\n      0x20\n        /* \"#utility.yul\":2341:2346   */\n      dup2\n        /* \"#utility.yul\":2337:2353   */\n      add\n        /* \"#utility.yul\":2386:2389   */\n      dup5\n        /* \"#utility.yul\":2377:2383   */\n      dup5\n        /* \"#utility.yul\":2372:2375   */\n      dup5\n        /* \"#utility.yul\":2368:2384   */\n      add\n        /* \"#utility.yul\":2365:2390   */\n      gt\n        /* \"#utility.yul\":2362:2474   */\n      iszero\n      tag_96\n      jumpi\n        /* \"#utility.yul\":2393:2472   */\n      tag_97\n      tag_37\n      jump\t// in\n    tag_97:\n        /* \"#utility.yul\":2362:2474   */\n    tag_96:\n        /* \"#utility.yul\":2483:2537   */\n      tag_98\n        /* \"#utility.yul\":2530:2536   */\n      dup5\n        /* \"#utility.yul\":2525:2528   */\n      dup3\n        /* \"#utility.yul\":2520:2523   */\n      dup6\n        /* \"#utility.yul\":2483:2537   */\n      tag_43\n      jump\t// in\n    tag_98:\n        /* \"#utility.yul\":2202:2543   */\n      pop\n        /* \"#utility.yul\":2118:2543   */\n      swap4\n      swap3\n      pop\n      pop\n      pop\n      jump\t// out\n        /* \"#utility.yul\":2563:2903   */\n    tag_45:\n        /* \"#utility.yul\":2619:2624   */\n      0x00\n        /* \"#utility.yul\":2668:2671   */\n      dup3\n        /* \"#utility.yul\":2661:2665   */\n      0x1f\n        /* \"#utility.yul\":2653:2659   */\n      dup4\n        /* \"#utility.yul\":2649:2666   */\n      add\n        /* \"#utility.yul\":2645:2672   */\n      slt\n        /* \"#utility.yul\":2635:2757   */\n      tag_100\n      jumpi\n        /* \"#utility.yul\":2676:2755   */\n      tag_101\n      tag_36\n      jump\t// in\n    tag_101:\n        /* \"#utility.yul\":2635:2757   */\n    tag_100:\n        /* \"#utility.yul\":2793:2799   */\n      dup2\n        /* \"#utility.yul\":2780:2800   */\n      calldataload\n        /* \"#utility.yul\":2818:2897   */\n      tag_102\n        /* \"#utility.yul\":2893:2896   */\n      dup5\n        /* \"#utility.yul\":2885:2891   */\n      dup3\n        /* \"#utility.yul\":2878:2882   */\n      0x20\n        /* \"#utility.yul\":2870:2876   */\n      dup7\n        /* \"#utility.yul\":2866:2883   */\n      add\n        /* \"#utility.yul\":2818:2897   */\n      tag_44\n      jump\t// in\n    tag_102:\n        /* \"#utility.yul\":2809:2897   */\n      swap2\n      pop\n        /* \"#utility.yul\":2625:2903   */\n      pop\n        /* \"#utility.yul\":2563:2903   */\n      swap3\n      swap2\n      pop\n      pop\n      jump\t// out\n        /* \"#utility.yul\":2909:4034   */\n    tag_7:\n        /* \"#utility.yul\":3015:3021   */\n      0x00\n        /* \"#utility.yul\":3023:3029   */\n      dup1\n        /* \"#utility.yul\":3031:3037   */\n      0x00\n        /* \"#utility.yul\":3039:3045   */\n      dup1\n        /* \"#utility.yul\":3088:3091   */\n      0x80\n        /* \"#utility.yul\":3076:3085   */\n      dup6\n        /* \"#utility.yul\":3067:3074   */\n      dup8\n        /* \"#utility.yul\":3063:3086   */\n      sub\n        /* \"#utility.yul\":3059:3092   */\n      slt\n        /* \"#utility.yul\":3056:3176   */\n      iszero\n      tag_104\n      jumpi\n        /* \"#utility.yul\":3095:3174   */\n      tag_105\n      tag_31\n      jump\t// in\n    tag_105:\n        /* \"#utility.yul\":3056:3176   */\n    tag_104:\n        /* \"#utility.yul\":3215:3216   */\n      0x00\n        /* \"#utility.yul\":3240:3293   */\n      tag_106\n        /* \"#utility.yul\":3285:3292   */\n      dup8\n        /* \"#utility.yul\":3276:3282   */\n      dup3\n        /* \"#utility.yul\":3265:3274   */\n      dup9\n        /* \"#utility.yul\":3261:3283   */\n      add\n        /* \"#utility.yul\":3240:3293   */\n      tag_35\n      jump\t// in\n    tag_106:\n        /* \"#utility.yul\":3230:3293   */\n      swap5\n      pop\n        /* \"#utility.yul\":3186:3303   */\n      pop\n        /* \"#utility.yul\":3370:3372   */\n      0x20\n        /* \"#utility.yul\":3359:3368   */\n      dup6\n        /* \"#utility.yul\":3355:3373   */\n      add\n        /* \"#utility.yul\":3342:3374   */\n      calldataload\n        /* \"#utility.yul\":3401:3419   */\n      0xffffffffffffffff\n        /* \"#utility.yul\":3393:3399   */\n      dup2\n        /* \"#utility.yul\":3390:3420   */\n      gt\n        /* \"#utility.yul\":3387:3504   */\n      iszero\n      tag_107\n      jumpi\n        /* \"#utility.yul\":3423:3502   */\n      tag_108\n      tag_32\n      jump\t// in\n    tag_108:\n        /* \"#utility.yul\":3387:3504   */\n    tag_107:\n        /* \"#utility.yul\":3528:3591   */\n      tag_109\n        /* \"#utility.yul\":3583:3590   */\n      dup8\n        /* \"#utility.yul\":3574:3580   */\n      dup3\n        /* \"#utility.yul\":3563:3572   */\n      dup9\n        /* \"#utility.yul\":3559:3581   */\n      add\n        /* \"#utility.yul\":3528:3591   */\n      tag_45\n      jump\t// in\n    tag_109:\n        /* \"#utility.yul\":3518:3591   */\n      swap4\n      pop\n        /* \"#utility.yul\":3313:3601   */\n      pop\n        /* \"#utility.yul\":3668:3670   */\n      0x40\n        /* \"#utility.yul\":3657:3666   */\n      dup6\n        /* \"#utility.yul\":3653:3671   */\n      add\n        /* \"#utility.yul\":3640:3672   */\n      calldataload\n        /* \"#utility.yul\":3699:3717   */\n      0xffffffffffffffff\n        /* \"#utility.yul\":3691:3697   */\n      dup2\n        /* \"#utility.yul\":3688:3718   */\n      gt\n        /* \"#utility.yul\":3685:3802   */\n      iszero\n      tag_110\n      jumpi\n        /* \"#utility.yul\":3721:3800   */\n      tag_111\n      tag_32\n      jump\t// in\n    tag_111:\n        /* \"#utility.yul\":3685:3802   */\n    tag_110:\n        /* \"#utility.yul\":3826:3889   */\n      tag_112\n        /* \"#utility.yul\":3881:3888   */\n      dup8\n        /* \"#utility.yul\":3872:3878   */\n      dup3\n        /* \"#utility.yul\":3861:3870   */\n      dup9\n        /* \"#utility.yul\":3857:3879   */\n      add\n        /* \"#utility.yul\":3826:3889   */\n      tag_45\n      jump\t// in\n    tag_112:\n        /* \"#utility.yul\":3816:3889   */\n      swap3\n      pop\n        /* \"#utility.yul\":3611:3899   */\n      pop\n        /* \"#utility.yul\":3938:3940   */\n      0x60\n        /* \"#utility.yul\":3964:4017   */\n      tag_113\n        /* \"#utility.yul\":4009:4016   */\n      dup8\n        /* \"#utility.yul\":4000:4006   */\n      dup3\n        /* \"#utility.yul\":3989:3998   */\n      dup9\n        /* \"#utility.yul\":3985:4007   */\n      add\n        /* \"#utility.yul\":3964:4017   */\n      tag_35\n      jump\t// in\n    tag_113:\n        /* \"#utility.yul\":3954:4017   */\n      swap2\n      pop\n        /* \"#utility.yul\":3909:4027   */\n      pop\n        /* \"#utility.yul\":2909:4034   */\n      swap3\n      swap6\n      swap2\n      swap5\n      pop\n      swap3\n      pop\n      jump\t// out\n        /* \"#utility.yul\":4040:4369   */\n    tag_11:\n        /* \"#utility.yul\":4099:4105   */\n      0x00\n        /* \"#utility.yul\":4148:4150   */\n      0x20\n        /* \"#utility.yul\":4136:4145   */\n      dup3\n        /* \"#utility.yul\":4127:4134   */\n      dup5\n        /* \"#utility.yul\":4123:4146   */\n      sub\n        /* \"#utility.yul\":4119:4151   */\n      slt\n        /* \"#utility.yul\":4116:4235   */\n      iszero\n      tag_115\n      jumpi\n        /* \"#utility.yul\":4154:4233   */\n      tag_116\n      tag_31\n      jump\t// in\n    tag_116:\n        /* \"#utility.yul\":4116:4235   */\n    tag_115:\n        /* \"#utility.yul\":4274:4275   */\n      0x00\n        /* \"#utility.yul\":4299:4352   */\n      tag_117\n        /* \"#utility.yul\":4344:4351   */\n      dup5\n        /* \"#utility.yul\":4335:4341   */\n      dup3\n        /* \"#utility.yul\":4324:4333   */\n      dup6\n        /* \"#utility.yul\":4320:4342   */\n      add\n        /* \"#utility.yul\":4299:4352   */\n      tag_35\n      jump\t// in\n    tag_117:\n        /* \"#utility.yul\":4289:4352   */\n      swap2\n      pop\n        /* \"#utility.yul\":4245:4362   */\n      pop\n        /* \"#utility.yul\":4040:4369   */\n      swap3\n      swap2\n      pop\n      pop\n      jump\t// out\n        /* \"#utility.yul\":4375:4474   */\n    tag_46:\n        /* \"#utility.yul\":4427:4433   */\n      0x00\n        /* \"#utility.yul\":4461:4466   */\n      dup2\n        /* \"#utility.yul\":4455:4467   */\n      mload\n        /* \"#utility.yul\":4445:4467   */\n      swap1\n      pop\n        /* \"#utility.yul\":4375:4474   */\n      swap2\n      swap1\n      pop\n      jump\t// out\n        /* \"#utility.yul\":4480:4649   */\n    tag_47:\n        /* \"#utility.yul\":4564:4575   */\n      0x00\n        /* \"#utility.yul\":4598:4604   */\n      dup3\n        /* \"#utility.yul\":4593:4596   */\n      dup3\n        /* \"#utility.yul\":4586:4605   */\n      mstore\n        /* \"#utility.yul\":4638:4642   */\n      0x20\n        /* \"#utility.yul\":4633:4636   */\n      dup3\n        /* \"#utility.yul\":4629:4643   */\n      add\n        /* \"#utility.yul\":4614:4643   */\n      swap1\n      pop\n        /* \"#utility.yul\":4480:4649   */\n      swap3\n      swap2\n      pop\n      pop\n      jump\t// out\n        /* \"#utility.yul\":4655:4901   */\n    tag_48:\n        /* \"#utility.yul\":4736:4737   */\n      0x00\n        /* \"#utility.yul\":4746:4859   */\n    tag_121:\n        /* \"#utility.yul\":4760:4766   */\n      dup4\n        /* \"#utility.yul\":4757:4758   */\n      dup2\n        /* \"#utility.yul\":4754:4767   */\n      lt\n        /* \"#utility.yul\":4746:4859   */\n      iszero\n      tag_123\n      jumpi\n        /* \"#utility.yul\":4845:4846   */\n      dup1\n        /* \"#utility.yul\":4840:4843   */\n      dup3\n        /* \"#utility.yul\":4836:4847   */\n      add\n        /* \"#utility.yul\":4830:4848   */\n      mload\n        /* \"#utility.yul\":4826:4827   */\n      dup2\n        /* \"#utility.yul\":4821:4824   */\n      dup5\n        /* \"#utility.yul\":4817:4828   */\n      add\n        /* \"#utility.yul\":4810:4849   */\n      mstore\n        /* \"#utility.yul\":4782:4784   */\n      0x20\n        /* \"#utility.yul\":4779:4780   */\n      dup2\n        /* \"#utility.yul\":4775:4785   */\n      add\n        /* \"#utility.yul\":4770:4785   */\n      swap1\n      pop\n        /* \"#utility.yul\":4746:4859   */\n      jump(tag_121)\n    tag_123:\n        /* \"#utility.yul\":4893:4894   */\n      0x00\n        /* \"#utility.yul\":4884:4890   */\n      dup5\n        /* \"#utility.yul\":4879:4882   */\n      dup5\n        /* \"#utility.yul\":4875:4891   */\n      add\n        /* \"#utility.yul\":4868:4895   */\n      mstore\n        /* \"#utility.yul\":4717:4901   */\n      pop\n        /* \"#utility.yul\":4655:4901   */\n      pop\n      pop\n      pop\n      jump\t// out\n        /* \"#utility.yul\":4907:5284   */\n    tag_49:\n        /* \"#utility.yul\":4995:4998   */\n      0x00\n        /* \"#utility.yul\":5023:5062   */\n      tag_125\n        /* \"#utility.yul\":5056:5061   */\n      dup3\n        /* \"#utility.yul\":5023:5062   */\n      tag_46\n      jump\t// in\n    tag_125:\n        /* \"#utility.yul\":5078:5149   */\n      tag_126\n        /* \"#utility.yul\":5142:5148   */\n      dup2\n        /* \"#utility.yul\":5137:5140   */\n      dup6\n        /* \"#utility.yul\":5078:5149   */\n      tag_47\n      jump\t// in\n    tag_126:\n        /* \"#utility.yul\":5071:5149   */\n      swap4\n      pop\n        /* \"#utility.yul\":5158:5223   */\n      tag_127\n        /* \"#utility.yul\":5216:5222   */\n      dup2\n        /* \"#utility.yul\":5211:5214   */\n      dup6\n        /* \"#utility.yul\":5204:5208   */\n      0x20\n        /* \"#utility.yul\":5197:5202   */\n      dup7\n        /* \"#utility.yul\":5193:5209   */\n      add\n        /* \"#utility.yul\":5158:5223   */\n      tag_48\n      jump\t// in\n    tag_127:\n        /* \"#utility.yul\":5248:5277   */\n      tag_128\n        /* \"#utility.yul\":5270:5276   */\n      dup2\n        /* \"#utility.yul\":5248:5277   */\n      tag_38\n      jump\t// in\n    tag_128:\n        /* \"#utility.yul\":5243:5246   */\n      dup5\n        /* \"#utility.yul\":5239:5278   */\n      add\n        /* \"#utility.yul\":5232:5278   */\n      swap2\n      pop\n        /* \"#utility.yul\":4999:5284   */\n      pop\n        /* \"#utility.yul\":4907:5284   */\n      swap3\n      swap2\n      pop\n      pop\n      jump\t// out\n        /* \"#utility.yul\":5290:5408   */\n    tag_50:\n        /* \"#utility.yul\":5377:5401   */\n      tag_130\n        /* \"#utility.yul\":5395:5400   */\n      dup2\n        /* \"#utility.yul\":5377:5401   */\n      tag_33\n      jump\t// in\n    tag_130:\n        /* \"#utility.yul\":5372:5375   */\n      dup3\n        /* \"#utility.yul\":5365:5402   */\n      mstore\n        /* \"#utility.yul\":5290:5408   */\n      pop\n      pop\n      jump\t// out\n        /* \"#utility.yul\":5414:6038   */\n    tag_14:\n        /* \"#utility.yul\":5603:5607   */\n      0x00\n        /* \"#utility.yul\":5641:5643   */\n      0x60\n        /* \"#utility.yul\":5630:5639   */\n      dup3\n        /* \"#utility.yul\":5626:5644   */\n      add\n        /* \"#utility.yul\":5618:5644   */\n      swap1\n      pop\n        /* \"#utility.yul\":5690:5699   */\n      dup2\n        /* \"#utility.yul\":5684:5688   */\n      dup2\n        /* \"#utility.yul\":5680:5700   */\n      sub\n        /* \"#utility.yul\":5676:5677   */\n      0x00\n        /* \"#utility.yul\":5665:5674   */\n      dup4\n        /* \"#utility.yul\":5661:5678   */\n      add\n        /* \"#utility.yul\":5654:5701   */\n      mstore\n        /* \"#utility.yul\":5718:5796   */\n      tag_132\n        /* \"#utility.yul\":5791:5795   */\n      dup2\n        /* \"#utility.yul\":5782:5788   */\n      dup7\n        /* \"#utility.yul\":5718:5796   */\n      tag_49\n      jump\t// in\n    tag_132:\n        /* \"#utility.yul\":5710:5796   */\n      swap1\n      pop\n        /* \"#utility.yul\":5843:5852   */\n      dup2\n        /* \"#utility.yul\":5837:5841   */\n      dup2\n        /* \"#utility.yul\":5833:5853   */\n      sub\n        /* \"#utility.yul\":5828:5830   */\n      0x20\n        /* \"#utility.yul\":5817:5826   */\n      dup4\n        /* \"#utility.yul\":5813:5831   */\n      add\n        /* \"#utility.yul\":5806:5854   */\n      mstore\n        /* \"#utility.yul\":5871:5949   */\n      tag_133\n        /* \"#utility.yul\":5944:5948   */\n      dup2\n        /* \"#utility.yul\":5935:5941   */\n      dup6\n        /* \"#utility.yul\":5871:5949   */\n      tag_49\n      jump\t// in\n    tag_133:\n        /* \"#utility.yul\":5863:5949   */\n      swap1\n      pop\n        /* \"#utility.yul\":5959:6031   */\n      tag_134\n        /* \"#utility.yul\":6027:6029   */\n      0x40\n        /* \"#utility.yul\":6016:6025   */\n      dup4\n        /* \"#utility.yul\":6012:6030   */\n      add\n        /* \"#utility.yul\":6003:6009   */\n      dup5\n        /* \"#utility.yul\":5959:6031   */\n      tag_50\n      jump\t// in\n    tag_134:\n        /* \"#utility.yul\":5414:6038   */\n      swap5\n      swap4\n      pop\n      pop\n      pop\n      pop\n      jump\t// out\n        /* \"#utility.yul\":6044:6224   */\n    tag_51:\n        /* \"#utility.yul\":6092:6169   */\n      0x4e487b7100000000000000000000000000000000000000000000000000000000\n        /* \"#utility.yul\":6089:6090   */\n      0x00\n        /* \"#utility.yul\":6082:6170   */\n      mstore\n        /* \"#utility.yul\":6189:6193   */\n      0x22\n        /* \"#utility.yul\":6186:6187   */\n      0x04\n        /* \"#utility.yul\":6179:6194   */\n      mstore\n        /* \"#utility.yul\":6213:6217   */\n      0x24\n        /* \"#utility.yul\":6210:6211   */\n      0x00\n        /* \"#utility.yul\":6203:6218   */\n      revert\n        /* \"#utility.yul\":6230:6550   */\n    tag_20:\n        /* \"#utility.yul\":6274:6280   */\n      0x00\n        /* \"#utility.yul\":6311:6312   */\n      0x02\n        /* \"#utility.yul\":6305:6309   */\n      dup3\n        /* \"#utility.yul\":6301:6313   */\n      div\n        /* \"#utility.yul\":6291:6313   */\n      swap1\n      pop\n        /* \"#utility.yul\":6358:6359   */\n      0x01\n        /* \"#utility.yul\":6352:6356   */\n      dup3\n        /* \"#utility.yul\":6348:6360   */\n      and\n        /* \"#utility.yul\":6379:6397   */\n      dup1\n        /* \"#utility.yul\":6369:6450   */\n      tag_137\n      jumpi\n        /* \"#utility.yul\":6435:6439   */\n      0x7f\n        /* \"#utility.yul\":6427:6433   */\n      dup3\n        /* \"#utility.yul\":6423:6440   */\n      and\n        /* \"#utility.yul\":6413:6440   */\n      swap2\n      pop\n        /* \"#utility.yul\":6369:6450   */\n    tag_137:\n        /* \"#utility.yul\":6497:6499   */\n      0x20\n        /* \"#utility.yul\":6489:6495   */\n      dup3\n        /* \"#utility.yul\":6486:6500   */\n      lt\n        /* \"#utility.yul\":6466:6484   */\n      dup2\n        /* \"#utility.yul\":6463:6501   */\n      sub\n        /* \"#utility.yul\":6460:6544   */\n      tag_138\n      jumpi\n        /* \"#utility.yul\":6516:6534   */\n      tag_139\n      tag_51\n      jump\t// in\n    tag_139:\n        /* \"#utility.yul\":6460:6544   */\n    tag_138:\n        /* \"#utility.yul\":6281:6550   */\n      pop\n        /* \"#utility.yul\":6230:6550   */\n      swap2\n      swap1\n      pop\n      jump\t// out\n        /* \"#utility.yul\":6556:6697   */\n    tag_52:\n        /* \"#utility.yul\":6605:6609   */\n      0x00\n        /* \"#utility.yul\":6628:6631   */\n      dup2\n        /* \"#utility.yul\":6620:6631   */\n      swap1\n      pop\n        /* \"#utility.yul\":6651:6654   */\n      dup2\n        /* \"#utility.yul\":6648:6649   */\n      0x00\n        /* \"#utility.yul\":6641:6655   */\n      mstore\n        /* \"#utility.yul\":6685:6689   */\n      0x20\n        /* \"#utility.yul\":6682:6683   */\n      0x00\n        /* \"#utility.yul\":6672:6690   */\n      keccak256\n        /* \"#utility.yul\":6664:6690   */\n      swap1\n      pop\n        /* \"#utility.yul\":6556:6697   */\n      swap2\n      swap1\n      pop\n      jump\t// out\n        /* \"#utility.yul\":6703:6796   */\n    tag_53:\n        /* \"#utility.yul\":6740:6746   */\n      0x00\n        /* \"#utility.yul\":6787:6789   */\n      0x20\n        /* \"#utility.yul\":6782:6784   */\n      0x1f\n        /* \"#utility.yul\":6775:6780   */\n      dup4\n        /* \"#utility.yul\":6771:6785   */\n      add\n        /* \"#utility.yul\":6767:6790   */\n      div\n        /* \"#utility.yul\":6757:6790   */\n      swap1\n      pop\n        /* \"#utility.yul\":6703:6796   */\n      swap2\n      swap1\n      pop\n      jump\t// out\n        /* \"#utility.yul\":6802:6909   */\n    tag_54:\n        /* \"#utility.yul\":6846:6854   */\n      0x00\n        /* \"#utility.yul\":6896:6901   */\n      dup3\n        /* \"#utility.yul\":6890:6894   */\n      dup3\n        /* \"#utility.yul\":6886:6902   */\n      shl\n        /* \"#utility.yul\":6865:6902   */\n      swap1\n      pop\n        /* \"#utility.yul\":6802:6909   */\n      swap3\n      swap2\n      pop\n      pop\n      jump\t// out\n        /* \"#utility.yul\":6915:7308   */\n    tag_55:\n        /* \"#utility.yul\":6984:6990   */\n      0x00\n        /* \"#utility.yul\":7034:7035   */\n      0x08\n        /* \"#utility.yul\":7022:7032   */\n      dup4\n        /* \"#utility.yul\":7018:7036   */\n      mul\n        /* \"#utility.yul\":7057:7154   */\n      tag_144\n        /* \"#utility.yul\":7087:7153   */\n      0xffffffffffffffffffffffffffffffffffffffffffffffffffffffffffffffff\n        /* \"#utility.yul\":7076:7085   */\n      dup3\n        /* \"#utility.yul\":7057:7154   */\n      tag_54\n      jump\t// in\n    tag_144:\n        /* \"#utility.yul\":7175:7214   */\n      tag_145\n        /* \"#utility.yul\":7205:7213   */\n      dup7\n        /* \"#utility.yul\":7194:7203   */\n      dup4\n        /* \"#utility.yul\":7175:7214   */\n      tag_54\n      jump\t// in\n    tag_145:\n        /* \"#utility.yul\":7163:7214   */\n      swap6\n      pop\n        /* \"#utility.yul\":7247:7251   */\n      dup1\n        /* \"#utility.yul\":7243:7252   */\n      not\n        /* \"#utility.yul\":7236:7241   */\n      dup5\n        /* \"#utility.yul\":7232:7253   */\n      and\n        /* \"#utility.yul\":7223:7253   */\n      swap4\n      pop\n        /* \"#utility.yul\":7296:7300   */\n      dup1\n        /* \"#utility.yul\":7286:7294   */\n      dup7\n        /* \"#utility.yul\":7282:7301   */\n      and\n        /* \"#utility.yul\":7275:7280   */\n      dup5\n        /* \"#utility.yul\":7272:7302   */\n      or\n        /* \"#utility.yul\":7262:7302   */\n      swap3\n      pop\n        /* \"#utility.yul\":6991:7308   */\n      pop\n      pop\n        /* \"#utility.yul\":6915:7308   */\n      swap4\n      swap3\n      pop\n      pop\n      pop\n      jump\t// out\n        /* \"#utility.yul\":7314:7374   */\n    tag_56:\n        /* \"#utility.yul\":7342:7345   */\n      0x00\n        /* \"#utility.yul\":7363:7368   */\n      dup2\n        /* \"#utility.yul\":7356:7368   */\n      swap1\n      pop\n        /* \"#utility.yul\":7314:7374   */\n      swap2\n      swap1\n      pop\n      jump\t// out\n        /* \"#utility.yul\":7380:7522   */\n    tag_57:\n        /* \"#utility.yul\":7430:7439   */\n      0x00\n        /* \"#utility.yul\":7463:7516   */\n      tag_148\n        /* \"#utility.yul\":7481:7515   */\n      tag_149\n        /* \"#utility.yul\":7490:7514   */\n      tag_150\n        /* \"#utility.yul\":7508:7513   */\n      dup5\n        /* \"#utility.yul\":7490:7514   */\n      tag_33\n      jump\t// in\n    tag_150:\n        /* \"#utility.yul\":7481:7515   */\n      tag_56\n      jump\t// in\n    tag_149:\n        /* \"#utility.yul\":7463:7516   */\n      tag_33\n      jump\t// in\n    tag_148:\n        /* \"#utility.yul\":7450:7516   */\n      swap1\n      pop\n        /* \"#utility.yul\":7380:7522   */\n      swap2\n      swap1\n      pop\n      jump\t// out\n        /* \"#utility.yul\":7528:7603   */\n    tag_58:\n        /* \"#utility.yul\":7571:7574   */\n      0x00\n        /* \"#utility.yul\":7592:7597   */\n      dup2\n        /* \"#utility.yul\":7585:7597   */\n      swap1\n      pop\n        /* \"#utility.yul\":7528:7603   */\n      swap2\n      swap1\n      pop\n      jump\t// out\n        /* \"#utility.yul\":7609:7878   */\n    tag_59:\n        /* \"#utility.yul\":7719:7758   */\n      tag_153\n        /* \"#utility.yul\":7750:7757   */\n      dup4\n        /* \"#utility.yul\":7719:7758   */\n      tag_57\n      jump\t// in\n    tag_153:\n        /* \"#utility.yul\":7780:7871   */\n      tag_154\n        /* \"#utility.yul\":7829:7870   */\n      tag_155\n        /* \"#utility.yul\":7853:7869   */\n      dup3\n        /* \"#utility.yul\":7829:7870   */\n      tag_58\n      jump\t// in\n    tag_155:\n        /* \"#utility.yul\":7821:7827   */\n      dup5\n        /* \"#utility.yul\":7814:7818   */\n      dup5\n        /* \"#utility.yul\":7808:7819   */\n      sload\n        /* \"#utility.yul\":7780:7871   */\n      tag_55\n      jump\t// in\n    tag_154:\n        /* \"#utility.yul\":7774:7778   */\n      dup3\n        /* \"#utility.yul\":7767:7872   */\n      sstore\n        /* \"#utility.yul\":7685:7878   */\n      pop\n        /* \"#utility.yul\":7609:7878   */\n      pop\n      pop\n      pop\n      jump\t// out\n        /* \"#utility.yul\":7884:7957   */\n    tag_60:\n        /* \"#utility.yul\":7929:7932   */\n      0x00\n        /* \"#utility.yul\":7884:7957   */\n      swap1\n      jump\t// out\n        /* \"#utility.yul\":7963:8152   */\n    tag_61:\n        /* \"#utility.yul\":8040:8072   */\n      tag_158\n      tag_60\n      jump\t// in\n    tag_158:\n        /* \"#utility.yul\":8081:8146   */\n      tag_159\n        /* \"#utility.yul\":8139:8145   */\n      dup2\n        /* \"#utility.yul\":8131:8137   */\n      dup5\n        /* \"#utility.yul\":8125:8129   */\n      dup5\n        /* \"#utility.yul\":8081:8146   */\n      tag_59\n      jump\t// in\n    tag_159:\n        /* \"#utility.yul\":8016:8152   */\n      pop\n        /* \"#utility.yul\":7963:8152   */\n      pop\n      pop\n      jump\t// out\n        /* \"#utility.yul\":8158:8344   */\n    tag_62:\n        /* \"#utility.yul\":8218:8338   */\n    tag_161:\n        /* \"#utility.yul\":8235:8238   */\n      dup2\n        /* \"#utility.yul\":8228:8233   */\n      dup2\n        /* \"#utility.yul\":8225:8239   */\n      lt\n        /* \"#utility.yul\":8218:8338   */\n      iszero\n      tag_163\n      jumpi\n        /* \"#utility.yul\":8289:8328   */\n      tag_164\n        /* \"#utility.yul\":8326:8327   */\n      0x00\n        /* \"#utility.yul\":8319:8324   */\n      dup3\n        /* \"#utility.yul\":8289:8328   */\n      tag_61\n      jump\t// in\n    tag_164:\n        /* \"#utility.yul\":8262:8263   */\n      0x01\n        /* \"#utility.yul\":8255:8260   */\n      dup2\n        /* \"#utility.yul\":8251:8264   */\n      add\n        /* \"#utility.yul\":8242:8264   */\n      swap1\n      pop\n        /* \"#utility.yul\":8218:8338   */\n      jump(tag_161)\n    tag_163:\n        /* \"#utility.yul\":8158:8344   */\n      pop\n      pop\n      jump\t// out\n        /* \"#utility.yul\":8350:8893   */\n    tag_63:\n        /* \"#utility.yul\":8451:8453   */\n      0x1f\n        /* \"#utility.yul\":8446:8449   */\n      dup3\n        /* \"#utility.yul\":8443:8454   */\n      gt\n        /* \"#utility.yul\":8440:8886   */\n      iszero\n      tag_166\n      jumpi\n        /* \"#utility.yul\":8485:8523   */\n      tag_167\n        /* \"#utility.yul\":8517:8522   */\n      dup2\n        /* \"#utility.yul\":8485:8523   */\n      tag_52\n      jump\t// in\n    tag_167:\n        /* \"#utility.yul\":8569:8598   */\n      tag_168\n        /* \"#utility.yul\":8587:8597   */\n      dup5\n        /* \"#utility.yul\":8569:8598   */\n      tag_53\n      jump\t// in\n    tag_168:\n        /* \"#utility.yul\":8559:8567   */\n      dup2\n        /* \"#utility.yul\":8555:8599   */\n      add\n        /* \"#utility.yul\":8752:8754   */\n      0x20\n        /* \"#utility.yul\":8740:8750   */\n      dup6\n        /* \"#utility.yul\":8737:8755   */\n      lt\n        /* \"#utility.yul\":8734:8783   */\n      iszero\n      tag_169\n      jumpi\n        /* \"#utility.yul\":8773:8781   */\n      dup2\n        /* \"#utility.yul\":8758:8781   */\n      swap1\n      pop\n        /* \"#utility.yul\":8734:8783   */\n    tag_169:\n        /* \"#utility.yul\":8796:8876   */\n      tag_170\n        /* \"#utility.yul\":8852:8874   */\n      tag_171\n        /* \"#utility.yul\":8870:8873   */\n      dup6\n        /* \"#utility.yul\":8852:8874   */\n      tag_53\n      jump\t// in\n    tag_171:\n        /* \"#utility.yul\":8842:8850   */\n      dup4\n        /* \"#utility.yul\":8838:8875   */\n      add\n        /* \"#utility.yul\":8825:8836   */\n      dup3\n        /* \"#utility.yul\":8796:8876   */\n      tag_62\n      jump\t// in\n    tag_170:\n        /* \"#utility.yul\":8455:8886   */\n      pop\n      pop\n        /* \"#utility.yul\":8440:8886   */\n    tag_166:\n        /* \"#utility.yul\":8350:8893   */\n      pop\n      pop\n      pop\n      jump\t// out\n        /* \"#utility.yul\":8899:9016   */\n    tag_64:\n        /* \"#utility.yul\":8953:8961   */\n      0x00\n        /* \"#utility.yul\":9003:9008   */\n      dup3\n        /* \"#utility.yul\":8997:9001   */\n      dup3\n        /* \"#utility.yul\":8993:9009   */\n      shr\n        /* \"#utility.yul\":8972:9009   */\n      swap1\n      pop\n        /* \"#utility.yul\":8899:9016   */\n      swap3\n      swap2\n      pop\n      pop\n      jump\t// out\n        /* \"#utility.yul\":9022:9191   */\n    tag_65:\n        /* \"#utility.yul\":9066:9072   */\n      0x00\n        /* \"#utility.yul\":9099:9150   */\n      tag_174\n        /* \"#utility.yul\":9147:9148   */\n      0x00\n        /* \"#utility.yul\":9143:9149   */\n      not\n        /* \"#utility.yul\":9135:9140   */\n      dup5\n        /* \"#utility.yul\":9132:9133   */\n      0x08\n        /* \"#utility.yul\":9128:9141   */\n      mul\n        /* \"#utility.yul\":9099:9150   */\n      tag_64\n      jump\t// in\n    tag_174:\n        /* \"#utility.yul\":9095:9151   */\n      not\n        /* \"#utility.yul\":9180:9184   */\n      dup1\n        /* \"#utility.yul\":9174:9178   */\n      dup4\n        /* \"#utility.yul\":9170:9185   */\n      and\n        /* \"#utility.yul\":9160:9185   */\n      swap2\n      pop\n        /* \"#utility.yul\":9073:9191   */\n      pop\n        /* \"#utility.yul\":9022:9191   */\n      swap3\n      swap2\n      pop\n      pop\n      jump\t// out\n        /* \"#utility.yul\":9196:9491   */\n    tag_66:\n        /* \"#utility.yul\":9272:9276   */\n      0x00\n        /* \"#utility.yul\":9418:9447   */\n      tag_176\n        /* \"#utility.yul\":9443:9446   */\n      dup4\n        /* \"#utility.yul\":9437:9441   */\n      dup4\n        /* \"#utility.yul\":9418:9447   */\n      tag_65\n      jump\t// in\n    tag_176:\n        /* \"#utility.yul\":9410:9447   */\n      swap2\n      pop\n        /* \"#utility.yul\":9480:9483   */\n      dup3\n        /* \"#utility.yul\":9477:9478   */\n      0x02\n        /* \"#utility.yul\":9473:9484   */\n      mul\n        /* \"#utility.yul\":9467:9471   */\n      dup3\n        /* \"#utility.yul\":9464:9485   */\n      or\n        /* \"#utility.yul\":9456:9485   */\n      swap1\n      pop\n        /* \"#utility.yul\":9196:9491   */\n      swap3\n      swap2\n      pop\n      pop\n      jump\t// out\n        /* \"#utility.yul\":9496:10891   */\n    tag_17:\n        /* \"#utility.yul\":9613:9650   */\n      tag_178\n        /* \"#utility.yul\":9646:9649   */\n      dup3\n        /* \"#utility.yul\":9613:9650   */\n      tag_46\n      jump\t// in\n    tag_178:\n        /* \"#utility.yul\":9715:9733   */\n      0xffffffffffffffff\n        /* \"#utility.yul\":9707:9713   */\n      dup2\n        /* \"#utility.yul\":9704:9734   */\n      gt\n        /* \"#utility.yul\":9701:9757   */\n      iszero\n      tag_179\n      jumpi\n        /* \"#utility.yul\":9737:9755   */\n      tag_180\n      tag_39\n      jump\t// in\n    tag_180:\n        /* \"#utility.yul\":9701:9757   */\n    tag_179:\n        /* \"#utility.yul\":9781:9819   */\n      tag_181\n        /* \"#utility.yul\":9813:9817   */\n      dup3\n        /* \"#utility.yul\":9807:9818   */\n      sload\n        /* \"#utility.yul\":9781:9819   */\n      tag_20\n      jump\t// in\n    tag_181:\n        /* \"#utility.yul\":9866:9933   */\n      tag_182\n        /* \"#utility.yul\":9926:9932   */\n      dup3\n        /* \"#utility.yul\":9918:9924   */\n      dup3\n        /* \"#utility.yul\":9912:9916   */\n      dup6\n        /* \"#utility.yul\":9866:9933   */\n      tag_63\n      jump\t// in\n    tag_182:\n        /* \"#utility.yul\":9960:9961   */\n      0x00\n        /* \"#utility.yul\":9984:9988   */\n      0x20\n        /* \"#utility.yul\":9971:9988   */\n      swap1\n      pop\n        /* \"#utility.yul\":10016:10018   */\n      0x1f\n        /* \"#utility.yul\":10008:10014   */\n      dup4\n        /* \"#utility.yul\":10005:10019   */\n      gt\n        /* \"#utility.yul\":10033:10034   */\n      0x01\n        /* \"#utility.yul\":10028:10646   */\n      dup2\n      eq\n      tag_184\n      jumpi\n        /* \"#utility.yul\":10690:10691   */\n      0x00\n        /* \"#utility.yul\":10707:10713   */\n      dup5\n        /* \"#utility.yul\":10704:10781   */\n      iszero\n      tag_185\n      jumpi\n        /* \"#utility.yul\":10756:10765   */\n      dup3\n        /* \"#utility.yul\":10751:10754   */\n      dup8\n        /* \"#utility.yul\":10747:10766   */\n      add\n        /* \"#utility.yul\":10741:10767   */\n      mload\n        /* \"#utility.yul\":10732:10767   */\n      swap1\n      pop\n        /* \"#utility.yul\":10704:10781   */\n    tag_185:\n        /* \"#utility.yul\":10807:10874   */\n      tag_186\n        /* \"#utility.yul\":10867:10873   */\n      dup6\n        /* \"#utility.yul\":10860:10865   */\n      dup3\n        /* \"#utility.yul\":10807:10874   */\n      tag_66\n      jump\t// in\n    tag_186:\n        /* \"#utility.yul\":10801:10805   */\n      dup7\n        /* \"#utility.yul\":10794:10875   */\n      sstore\n        /* \"#utility.yul\":10663:10885   */\n      pop\n        /* \"#utility.yul\":9998:10885   */\n      jump(tag_183)\n        /* \"#utility.yul\":10028:10646   */\n    tag_184:\n        /* \"#utility.yul\":10080:10084   */\n      0x1f\n        /* \"#utility.yul\":10076:10085   */\n      not\n        /* \"#utility.yul\":10068:10074   */\n      dup5\n        /* \"#utility.yul\":10064:10086   */\n      and\n        /* \"#utility.yul\":10114:10151   */\n      tag_187\n        /* \"#utility.yul\":10146:10150   */\n      dup7\n        /* \"#utility.yul\":10114:10151   */\n      tag_52\n      jump\t// in\n    tag_187:\n        /* \"#utility.yul\":10173:10174   */\n      0x00\n        /* \"#utility.yul\":10187:10395   */\n    tag_188:\n        /* \"#utility.yul\":10201:10208   */\n      dup3\n        /* \"#utility.yul\":10198:10199   */\n      dup2\n        /* \"#utility.yul\":10195:10209   */\n      lt\n        /* \"#utility.yul\":10187:10395   */\n      iszero\n      tag_190\n      jumpi\n        /* \"#utility.yul\":10280:10289   */\n      dup5\n        /* \"#utility.yul\":10275:10278   */\n      dup10\n        /* \"#utility.yul\":10271:10290   */\n      add\n        /* \"#utility.yul\":10265:10291   */\n      mload\n        /* \"#utility.yul\":10257:10263   */\n      dup3\n        /* \"#utility.yul\":10250:10292   */\n      sstore\n        /* \"#utility.yul\":10331:10332   */\n      0x01\n        /* \"#utility.yul\":10323:10329   */\n      dup3\n        /* \"#utility.yul\":10319:10333   */\n      add\n        /* \"#utility.yul\":10309:10333   */\n      swap2\n      pop\n        /* \"#utility.yul\":10378:10380   */\n      0x20\n        /* \"#utility.yul\":10367:10376   */\n      dup6\n        /* \"#utility.yul\":10363:10381   */\n      add\n        /* \"#utility.yul\":10350:10381   */\n      swap5\n      pop\n        /* \"#utility.yul\":10224:10228   */\n      0x20\n        /* \"#utility.yul\":10221:10222   */\n      dup2\n        /* \"#utility.yul\":10217:10229   */\n      add\n        /* \"#utility.yul\":10212:10229   */\n      swap1\n      pop\n        /* \"#utility.yul\":10187:10395   */\n      jump(tag_188)\n    tag_190:\n        /* \"#utility.yul\":10423:10429   */\n      dup7\n        /* \"#utility.yul\":10414:10421   */\n      dup4\n        /* \"#utility.yul\":10411:10430   */\n      lt\n        /* \"#utility.yul\":10408:10587   */\n      iszero\n      tag_191\n      jumpi\n        /* \"#utility.yul\":10481:10490   */\n      dup5\n        /* \"#utility.yul\":10476:10479   */\n      dup10\n        /* \"#utility.yul\":10472:10491   */\n      add\n        /* \"#utility.yul\":10466:10492   */\n      mload\n        /* \"#utility.yul\":10524:10572   */\n      tag_192\n        /* \"#utility.yul\":10566:10570   */\n      0x1f\n        /* \"#utility.yul\":10558:10564   */\n      dup10\n        /* \"#utility.yul\":10554:10571   */\n      and\n        /* \"#utility.yul\":10543:10552   */\n      dup3\n        /* \"#utility.yul\":10524:10572   */\n      tag_65\n      jump\t// in\n    tag_192:\n        /* \"#utility.yul\":10516:10522   */\n      dup4\n        /* \"#utility.yul\":10509:10573   */\n      sstore\n        /* \"#utility.yul\":10431:10587   */\n      pop\n        /* \"#utility.yul\":10408:10587   */\n    tag_191:\n        /* \"#utility.yul\":10633:10634   */\n      0x01\n        /* \"#utility.yul\":10629:10630   */\n      0x02\n        /* \"#utility.yul\":10621:10627   */\n      dup9\n        /* \"#utility.yul\":10617:10631   */\n      mul\n        /* \"#utility.yul\":10613:10635   */\n      add\n        /* \"#utility.yul\":10607:10611   */\n      dup9\n        /* \"#utility.yul\":10600:10636   */\n      sstore\n        /* \"#utility.yul\":10035:10646   */\n      pop\n      pop\n      pop\n        /* \"#utility.yul\":9998:10885   */\n    tag_183:\n      pop\n        /* \"#utility.yul\":9588:10891   */\n      pop\n      pop\n      pop\n        /* \"#utility.yul\":9496:10891   */\n      pop\n      pop\n      jump\t// out\n\n    auxdata: 0xa2646970667358221220f41608d3e241bfedd0ad078cee31ec0683905d33b9b423b56d1a91f001edbb7264736f6c63430008120033\n}\n",
				"bytecode": {
					"linkReferences": {},
					"object": "608060405234801561001057600080fd5b50610872806100206000396000f3fe608060405234801561001057600080fd5b50600436106100365760003560e01c80634fa1fc671461003b578063f0ba844014610057575b600080fd5b610055600480360381019061005091906103bf565b610089565b005b610071600480360381019061006c919061045e565b6100f5565b60405161008093929190610519565b60405180910390f35b60405180606001604052808481526020018381526020018281525060008086815260200190815260200160002060008201518160000190816100cb919061076a565b5060208201518160010190816100e1919061076a565b506040820151816002015590505050505050565b60006020528060005260406000206000915090508060000180546101189061058d565b80601f01602080910402602001604051908101604052809291908181526020018280546101449061058d565b80156101915780601f1061016657610100808354040283529160200191610191565b820191906000526020600020905b81548152906001019060200180831161017457829003601f168201915b5050505050908060010180546101a69061058d565b80601f01602080910402602001604051908101604052809291908181526020018280546101d29061058d565b801561021f5780601f106101f45761010080835404028352916020019161021f565b820191906000526020600020905b81548152906001019060200180831161020257829003601f168201915b5050505050908060020154905083565b6000604051905090565b600080fd5b600080fd5b6000819050919050565b61025681610243565b811461026157600080fd5b50565b6000813590506102738161024d565b92915050565b600080fd5b600080fd5b6000601f19601f8301169050919050565b7f4e487b7100000000000000000000000000000000000000000000000000000000600052604160045260246000fd5b6102cc82610283565b810181811067ffffffffffffffff821117156102eb576102ea610294565b5b80604052505050565b60006102fe61022f565b905061030a82826102c3565b919050565b600067ffffffffffffffff82111561032a57610329610294565b5b61033382610283565b9050602081019050919050565b82818337600083830152505050565b600061036261035d8461030f565b6102f4565b90508281526020810184848401111561037e5761037d61027e565b5b610389848285610340565b509392505050565b600082601f8301126103a6576103a5610279565b5b81356103b684826020860161034f565b91505092915050565b600080600080608085870312156103d9576103d8610239565b5b60006103e787828801610264565b945050602085013567ffffffffffffffff8111156104085761040761023e565b5b61041487828801610391565b935050604085013567ffffffffffffffff8111156104355761043461023e565b5b61044187828801610391565b925050606061045287828801610264565b91505092959194509250565b60006020828403121561047457610473610239565b5b600061048284828501610264565b91505092915050565b600081519050919050565b600082825260208201905092915050565b60005b838110156104c55780820151818401526020810190506104aa565b60008484015250505050565b60006104dc8261048b565b6104e68185610496565b93506104f68185602086016104a7565b6104ff81610283565b840191505092915050565b61051381610243565b82525050565b6000606082019050818103600083015261053381866104d1565b9050818103602083015261054781856104d1565b9050610556604083018461050a565b949350505050565b7f4e487b7100000000000000000000000000000000000000000000000000000000600052602260045260246000fd5b600060028204905060018216806105a557607f821691505b6020821081036105b8576105b761055e565b5b50919050565b60008190508160005260206000209050919050565b60006020601f8301049050919050565b600082821b905092915050565b6000600883026106207fffffffffffffffffffffffffffffffffffffffffffffffffffffffffffffffff826105e3565b61062a86836105e3565b95508019841693508086168417925050509392505050565b6000819050919050565b600061066761066261065d84610243565b610642565b610243565b9050919050565b6000819050919050565b6106818361064c565b61069561068d8261066e565b8484546105f0565b825550505050565b600090565b6106aa61069d565b6106b5818484610678565b505050565b5b818110156106d9576106ce6000826106a2565b6001810190506106bb565b5050565b601f82111561071e576106ef816105be565b6106f8846105d3565b81016020851015610707578190505b61071b610713856105d3565b8301826106ba565b50505b505050565b600082821c905092915050565b600061074160001984600802610723565b1980831691505092915050565b600061075a8383610730565b9150826002028217905092915050565b6107738261048b565b67ffffffffffffffff81111561078c5761078b610294565b5b610796825461058d565b6107a18282856106dd565b600060209050601f8311600181146107d457600084156107c2578287015190505b6107cc858261074e565b865550610834565b601f1984166107e2866105be565b60005b8281101561080a578489015182556001820191506020850194506020810190506107e5565b868310156108275784890151610823601f891682610730565b8355505b6001600288020188555050505b50505050505056fea2646970667358221220f41608d3e241bfedd0ad078cee31ec0683905d33b9b423b56d1a91f001edbb7264736f6c63430008120033",
					"opcodes": "PUSH1 0x80 PUSH1 0x40 MSTORE CALLVALUE DUP1 ISZERO PUSH2 0x10 JUMPI PUSH1 0x0 DUP1 REVERT JUMPDEST POP PUSH2 0x872 DUP1 PUSH2 0x20 PUSH1 0x0 CODECOPY PUSH1 0x0 RETURN INVALID PUSH1 0x80 PUSH1 0x40 MSTORE CALLVALUE DUP1 ISZERO PUSH2 0x10 JUMPI PUSH1 0x0 DUP1 REVERT JUMPDEST POP PUSH1 0x4 CALLDATASIZE LT PUSH2 0x36 JUMPI PUSH1 0x0 CALLDATALOAD PUSH1 0xE0 SHR DUP1 PUSH4 0x4FA1FC67 EQ PUSH2 0x3B JUMPI DUP1 PUSH4 0xF0BA8440 EQ PUSH2 0x57 JUMPI JUMPDEST PUSH1 0x0 DUP1 REVERT JUMPDEST PUSH2 0x55 PUSH1 0x4 DUP1 CALLDATASIZE SUB DUP2 ADD SWAP1 PUSH2 0x50 SWAP2 SWAP1 PUSH2 0x3BF JUMP JUMPDEST PUSH2 0x89 JUMP JUMPDEST STOP JUMPDEST PUSH2 0x71 PUSH1 0x4 DUP1 CALLDATASIZE SUB DUP2 ADD SWAP1 PUSH2 0x6C SWAP2 SWAP1 PUSH2 0x45E JUMP JUMPDEST PUSH2 0xF5 JUMP JUMPDEST PUSH1 0x40 MLOAD PUSH2 0x80 SWAP4 SWAP3 SWAP2 SWAP1 PUSH2 0x519 JUMP JUMPDEST PUSH1 0x40 MLOAD DUP1 SWAP2 SUB SWAP1 RETURN JUMPDEST PUSH1 0x40 MLOAD DUP1 PUSH1 0x60 ADD PUSH1 0x40 MSTORE DUP1 DUP5 DUP2 MSTORE PUSH1 0x20 ADD DUP4 DUP2 MSTORE PUSH1 0x20 ADD DUP3 DUP2 MSTORE POP PUSH1 0x0 DUP1 DUP7 DUP2 MSTORE PUSH1 0x20 ADD SWAP1 DUP2 MSTORE PUSH1 0x20 ADD PUSH1 0x0 KECCAK256 PUSH1 0x0 DUP3 ADD MLOAD DUP2 PUSH1 0x0 ADD SWAP1 DUP2 PUSH2 0xCB SWAP2 SWAP1 PUSH2 0x76A JUMP JUMPDEST POP PUSH1 0x20 DUP3 ADD MLOAD DUP2 PUSH1 0x1 ADD SWAP1 DUP2 PUSH2 0xE1 SWAP2 SWAP1 PUSH2 0x76A JUMP JUMPDEST POP PUSH1 0x40 DUP3 ADD MLOAD DUP2 PUSH1 0x2 ADD SSTORE SWAP1 POP POP POP POP POP POP JUMP JUMPDEST PUSH1 0x0 PUSH1 0x20 MSTORE DUP1 PUSH1 0x0 MSTORE PUSH1 0x40 PUSH1 0x0 KECCAK256 PUSH1 0x0 SWAP2 POP SWAP1 POP DUP1 PUSH1 0x0 ADD DUP1 SLOAD PUSH2 0x118 SWAP1 PUSH2 0x58D JUMP JUMPDEST DUP1 PUSH1 0x1F ADD PUSH1 0x20 DUP1 SWAP2 DIV MUL PUSH1 0x20 ADD PUSH1 0x40 MLOAD SWAP1 DUP2 ADD PUSH1 0x40 MSTORE DUP1 SWAP3 SWAP2 SWAP1 DUP2 DUP2 MSTORE PUSH1 0x20 ADD DUP3 DUP1 SLOAD PUSH2 0x144 SWAP1 PUSH2 0x58D JUMP JUMPDEST DUP1 ISZERO PUSH2 0x191 JUMPI DUP1 PUSH1 0x1F LT PUSH2 0x166 JUMPI PUSH2 0x100 DUP1 DUP4 SLOAD DIV MUL DUP4 MSTORE SWAP2 PUSH1 0x20 ADD SWAP2 PUSH2 0x191 JUMP JUMPDEST DUP3 ADD SWAP2 SWAP1 PUSH1 0x0 MSTORE PUSH1 0x20 PUSH1 0x0 KECCAK256 SWAP1 JUMPDEST DUP2 SLOAD DUP2 MSTORE SWAP1 PUSH1 0x1 ADD SWAP1 PUSH1 0x20 ADD DUP1 DUP4 GT PUSH2 0x174 JUMPI DUP3 SWAP1 SUB PUSH1 0x1F AND DUP3 ADD SWAP2 JUMPDEST POP POP POP POP POP SWAP1 DUP1 PUSH1 0x1 ADD DUP1 SLOAD PUSH2 0x1A6 SWAP1 PUSH2 0x58D JUMP JUMPDEST DUP1 PUSH1 0x1F ADD PUSH1 0x20 DUP1 SWAP2 DIV MUL PUSH1 0x20 ADD PUSH1 0x40 MLOAD SWAP1 DUP2 ADD PUSH1 0x40 MSTORE DUP1 SWAP3 SWAP2 SWAP1 DUP2 DUP2 MSTORE PUSH1 0x20 ADD DUP3 DUP1 SLOAD PUSH2 0x1D2 SWAP1 PUSH2 0x58D JUMP JUMPDEST DUP1 ISZERO PUSH2 0x21F JUMPI DUP1 PUSH1 0x1F LT PUSH2 0x1F4 JUMPI PUSH2 0x100 DUP1 DUP4 SLOAD DIV MUL DUP4 MSTORE SWAP2 PUSH1 0x20 ADD SWAP2 PUSH2 0x21F JUMP JUMPDEST DUP3 ADD SWAP2 SWAP1 PUSH1 0x0 MSTORE PUSH1 0x20 PUSH1 0x0 KECCAK256 SWAP1 JUMPDEST DUP2 SLOAD DUP2 MSTORE SWAP1 PUSH1 0x1 ADD SWAP1 PUSH1 0x20 ADD DUP1 DUP4 GT PUSH2 0x202 JUMPI DUP3 SWAP1 SUB PUSH1 0x1F AND DUP3 ADD SWAP2 JUMPDEST POP POP POP POP POP SWAP1 DUP1 PUSH1 0x2 ADD SLOAD SWAP1 POP DUP4 JUMP JUMPDEST PUSH1 0x0 PUSH1 0x40 MLOAD SWAP1 POP SWAP1 JUMP JUMPDEST PUSH1 0x0 DUP1 REVERT JUMPDEST PUSH1 0x0 DUP1 REVERT JUMPDEST PUSH1 0x0 DUP2 SWAP1 POP SWAP2 SWAP1 POP JUMP JUMPDEST PUSH2 0x256 DUP2 PUSH2 0x243 JUMP JUMPDEST DUP2 EQ PUSH2 0x261 JUMPI PUSH1 0x0 DUP1 REVERT JUMPDEST POP JUMP JUMPDEST PUSH1 0x0 DUP2 CALLDATALOAD SWAP1 POP PUSH2 0x273 DUP2 PUSH2 0x24D JUMP JUMPDEST SWAP3 SWAP2 POP POP JUMP JUMPDEST PUSH1 0x0 DUP1 REVERT JUMPDEST PUSH1 0x0 DUP1 REVERT JUMPDEST PUSH1 0x0 PUSH1 0x1F NOT PUSH1 0x1F DUP4 ADD AND SWAP1 POP SWAP2 SWAP1 POP JUMP JUMPDEST PUSH32 0x4E487B7100000000000000000000000000000000000000000000000000000000 PUSH1 0x0 MSTORE PUSH1 0x41 PUSH1 0x4 MSTORE PUSH1 0x24 PUSH1 0x0 REVERT JUMPDEST PUSH2 0x2CC DUP3 PUSH2 0x283 JUMP JUMPDEST DUP2 ADD DUP2 DUP2 LT PUSH8 0xFFFFFFFFFFFFFFFF DUP3 GT OR ISZERO PUSH2 0x2EB JUMPI PUSH2 0x2EA PUSH2 0x294 JUMP JUMPDEST JUMPDEST DUP1 PUSH1 0x40 MSTORE POP POP POP JUMP JUMPDEST PUSH1 0x0 PUSH2 0x2FE PUSH2 0x22F JUMP JUMPDEST SWAP1 POP PUSH2 0x30A DUP3 DUP3 PUSH2 0x2C3 JUMP JUMPDEST SWAP2 SWAP1 POP JUMP JUMPDEST PUSH1 0x0 PUSH8 0xFFFFFFFFFFFFFFFF DUP3 GT ISZERO PUSH2 0x32A JUMPI PUSH2 0x329 PUSH2 0x294 JUMP JUMPDEST JUMPDEST PUSH2 0x333 DUP3 PUSH2 0x283 JUMP JUMPDEST SWAP1 POP PUSH1 0x20 DUP2 ADD SWAP1 POP SWAP2 SWAP1 POP JUMP JUMPDEST DUP3 DUP2 DUP4 CALLDATACOPY PUSH1 0x0 DUP4 DUP4 ADD MSTORE POP POP POP JUMP JUMPDEST PUSH1 0x0 PUSH2 0x362 PUSH2 0x35D DUP5 PUSH2 0x30F JUMP JUMPDEST PUSH2 0x2F4 JUMP JUMPDEST SWAP1 POP DUP3 DUP2 MSTORE PUSH1 0x20 DUP2 ADD DUP5 DUP5 DUP5 ADD GT ISZERO PUSH2 0x37E JUMPI PUSH2 0x37D PUSH2 0x27E JUMP JUMPDEST JUMPDEST PUSH2 0x389 DUP5 DUP3 DUP6 PUSH2 0x340 JUMP JUMPDEST POP SWAP4 SWAP3 POP POP POP JUMP JUMPDEST PUSH1 0x0 DUP3 PUSH1 0x1F DUP4 ADD SLT PUSH2 0x3A6 JUMPI PUSH2 0x3A5 PUSH2 0x279 JUMP JUMPDEST JUMPDEST DUP2 CALLDATALOAD PUSH2 0x3B6 DUP5 DUP3 PUSH1 0x20 DUP7 ADD PUSH2 0x34F JUMP JUMPDEST SWAP2 POP POP SWAP3 SWAP2 POP POP JUMP JUMPDEST PUSH1 0x0 DUP1 PUSH1 0x0 DUP1 PUSH1 0x80 DUP6 DUP8 SUB SLT ISZERO PUSH2 0x3D9 JUMPI PUSH2 0x3D8 PUSH2 0x239 JUMP JUMPDEST JUMPDEST PUSH1 0x0 PUSH2 0x3E7 DUP8 DUP3 DUP9 ADD PUSH2 0x264 JUMP JUMPDEST SWAP5 POP POP PUSH1 0x20 DUP6 ADD CALLDATALOAD PUSH8 0xFFFFFFFFFFFFFFFF DUP2 GT ISZERO PUSH2 0x408 JUMPI PUSH2 0x407 PUSH2 0x23E JUMP JUMPDEST JUMPDEST PUSH2 0x414 DUP8 DUP3 DUP9 ADD PUSH2 0x391 JUMP JUMPDEST SWAP4 POP POP PUSH1 0x40 DUP6 ADD CALLDATALOAD PUSH8 0xFFFFFFFFFFFFFFFF DUP2 GT ISZERO PUSH2 0x435 JUMPI PUSH2 0x434 PUSH2 0x23E JUMP JUMPDEST JUMPDEST PUSH2 0x441 DUP8 DUP3 DUP9 ADD PUSH2 0x391 JUMP JUMPDEST SWAP3 POP POP PUSH1 0x60 PUSH2 0x452 DUP8 DUP3 DUP9 ADD PUSH2 0x264 JUMP JUMPDEST SWAP2 POP POP SWAP3 SWAP6 SWAP2 SWAP5 POP SWAP3 POP JUMP JUMPDEST PUSH1 0x0 PUSH1 0x20 DUP3 DUP5 SUB SLT ISZERO PUSH2 0x474 JUMPI PUSH2 0x473 PUSH2 0x239 JUMP JUMPDEST JUMPDEST PUSH1 0x0 PUSH2 0x482 DUP5 DUP3 DUP6 ADD PUSH2 0x264 JUMP JUMPDEST SWAP2 POP POP SWAP3 SWAP2 POP POP JUMP JUMPDEST PUSH1 0x0 DUP2 MLOAD SWAP1 POP SWAP2 SWAP1 POP JUMP JUMPDEST PUSH1 0x0 DUP3 DUP3 MSTORE PUSH1 0x20 DUP3 ADD SWAP1 POP SWAP3 SWAP2 POP POP JUMP JUMPDEST PUSH1 0x0 JUMPDEST DUP4 DUP2 LT ISZERO PUSH2 0x4C5 JUMPI DUP1 DUP3 ADD MLOAD DUP2 DUP5 ADD MSTORE PUSH1 0x20 DUP2 ADD SWAP1 POP PUSH2 0x4AA JUMP JUMPDEST PUSH1 0x0 DUP5 DUP5 ADD MSTORE POP POP POP POP JUMP JUMPDEST PUSH1 0x0 PUSH2 0x4DC DUP3 PUSH2 0x48B JUMP JUMPDEST PUSH2 0x4E6 DUP2 DUP6 PUSH2 0x496 JUMP JUMPDEST SWAP4 POP PUSH2 0x4F6 DUP2 DUP6 PUSH1 0x20 DUP7 ADD PUSH2 0x4A7 JUMP JUMPDEST PUSH2 0x4FF DUP2 PUSH2 0x283 JUMP JUMPDEST DUP5 ADD SWAP2 POP POP SWAP3 SWAP2 POP POP JUMP JUMPDEST PUSH2 0x513 DUP2 PUSH2 0x243 JUMP JUMPDEST DUP3 MSTORE POP POP JUMP JUMPDEST PUSH1 0x0 PUSH1 0x60 DUP3 ADD SWAP1 POP DUP2 DUP2 SUB PUSH1 0x0 DUP4 ADD MSTORE PUSH2 0x533 DUP2 DUP7 PUSH2 0x4D1 JUMP JUMPDEST SWAP1 POP DUP2 DUP2 SUB PUSH1 0x20 DUP4 ADD MSTORE PUSH2 0x547 DUP2 DUP6 PUSH2 0x4D1 JUMP JUMPDEST SWAP1 POP PUSH2 0x556 PUSH1 0x40 DUP4 ADD DUP5 PUSH2 0x50A JUMP JUMPDEST SWAP5 SWAP4 POP POP POP POP JUMP JUMPDEST PUSH32 0x4E487B7100000000000000000000000000000000000000000000000000000000 PUSH1 0x0 MSTORE PUSH1 0x22 PUSH1 0x4 MSTORE PUSH1 0x24 PUSH1 0x0 REVERT JUMPDEST PUSH1 0x0 PUSH1 0x2 DUP3 DIV SWAP1 POP PUSH1 0x1 DUP3 AND DUP1 PUSH2 0x5A5 JUMPI PUSH1 0x7F DUP3 AND SWAP2 POP JUMPDEST PUSH1 0x20 DUP3 LT DUP2 SUB PUSH2 0x5B8 JUMPI PUSH2 0x5B7 PUSH2 0x55E JUMP JUMPDEST JUMPDEST POP SWAP2 SWAP1 POP JUMP JUMPDEST PUSH1 0x0 DUP2 SWAP1 POP DUP2 PUSH1 0x0 MSTORE PUSH1 0x20 PUSH1 0x0 KECCAK256 SWAP1 POP SWAP2 SWAP1 POP JUMP JUMPDEST PUSH1 0x0 PUSH1 0x20 PUSH1 0x1F DUP4 ADD DIV SWAP1 POP SWAP2 SWAP1 POP JUMP JUMPDEST PUSH1 0x0 DUP3 DUP3 SHL SWAP1 POP SWAP3 SWAP2 POP POP JUMP JUMPDEST PUSH1 0x0 PUSH1 0x8 DUP4 MUL PUSH2 0x620 PUSH32 0xFFFFFFFFFFFFFFFFFFFFFFFFFFFFFFFFFFFFFFFFFFFFFFFFFFFFFFFFFFFFFFFF DUP3 PUSH2 0x5E3 JUMP JUMPDEST PUSH2 0x62A DUP7 DUP4 PUSH2 0x5E3 JUMP JUMPDEST SWAP6 POP DUP1 NOT DUP5 AND SWAP4 POP DUP1 DUP7 AND DUP5 OR SWAP3 POP POP POP SWAP4 SWAP3 POP POP POP JUMP JUMPDEST PUSH1 0x0 DUP2 SWAP1 POP SWAP2 SWAP1 POP JUMP JUMPDEST PUSH1 0x0 PUSH2 0x667 PUSH2 0x662 PUSH2 0x65D DUP5 PUSH2 0x243 JUMP JUMPDEST PUSH2 0x642 JUMP JUMPDEST PUSH2 0x243 JUMP JUMPDEST SWAP1 POP SWAP2 SWAP1 POP JUMP JUMPDEST PUSH1 0x0 DUP2 SWAP1 POP SWAP2 SWAP1 POP JUMP JUMPDEST PUSH2 0x681 DUP4 PUSH2 0x64C JUMP JUMPDEST PUSH2 0x695 PUSH2 0x68D DUP3 PUSH2 0x66E JUMP JUMPDEST DUP5 DUP5 SLOAD PUSH2 0x5F0 JUMP JUMPDEST DUP3 SSTORE POP POP POP POP JUMP JUMPDEST PUSH1 0x0 SWAP1 JUMP JUMPDEST PUSH2 0x6AA PUSH2 0x69D JUMP JUMPDEST PUSH2 0x6B5 DUP2 DUP5 DUP5 PUSH2 0x678 JUMP JUMPDEST POP POP POP JUMP JUMPDEST JUMPDEST DUP2 DUP2 LT ISZERO PUSH2 0x6D9 JUMPI PUSH2 0x6CE PUSH1 0x0 DUP3 PUSH2 0x6A2 JUMP JUMPDEST PUSH1 0x1 DUP2 ADD SWAP1 POP PUSH2 0x6BB JUMP JUMPDEST POP POP JUMP JUMPDEST PUSH1 0x1F DUP3 GT ISZERO PUSH2 0x71E JUMPI PUSH2 0x6EF DUP2 PUSH2 0x5BE JUMP JUMPDEST PUSH2 0x6F8 DUP5 PUSH2 0x5D3 JUMP JUMPDEST DUP2 ADD PUSH1 0x20 DUP6 LT ISZERO PUSH2 0x707 JUMPI DUP2 SWAP1 POP JUMPDEST PUSH2 0x71B PUSH2 0x713 DUP6 PUSH2 0x5D3 JUMP JUMPDEST DUP4 ADD DUP3 PUSH2 0x6BA JUMP JUMPDEST POP POP JUMPDEST POP POP POP JUMP JUMPDEST PUSH1 0x0 DUP3 DUP3 SHR SWAP1 POP SWAP3 SWAP2 POP POP JUMP JUMPDEST PUSH1 0x0 PUSH2 0x741 PUSH1 0x0 NOT DUP5 PUSH1 0x8 MUL PUSH2 0x723 JUMP JUMPDEST NOT DUP1 DUP4 AND SWAP2 POP POP SWAP3 SWAP2 POP POP JUMP JUMPDEST PUSH1 0x0 PUSH2 0x75A DUP4 DUP4 PUSH2 0x730 JUMP JUMPDEST SWAP2 POP DUP3 PUSH1 0x2 MUL DUP3 OR SWAP1 POP SWAP3 SWAP2 POP POP JUMP JUMPDEST PUSH2 0x773 DUP3 PUSH2 0x48B JUMP JUMPDEST PUSH8 0xFFFFFFFFFFFFFFFF DUP2 GT ISZERO PUSH2 0x78C JUMPI PUSH2 0x78B PUSH2 0x294 JUMP JUMPDEST JUMPDEST PUSH2 0x796 DUP3 SLOAD PUSH2 0x58D JUMP JUMPDEST PUSH2 0x7A1 DUP3 DUP3 DUP6 PUSH2 0x6DD JUMP JUMPDEST PUSH1 0x0 PUSH1 0x20 SWAP1 POP PUSH1 0x1F DUP4 GT PUSH1 0x1 DUP2 EQ PUSH2 0x7D4 JUMPI PUSH1 0x0 DUP5 ISZERO PUSH2 0x7C2 JUMPI DUP3 DUP8 ADD MLOAD SWAP1 POP JUMPDEST PUSH2 0x7CC DUP6 DUP3 PUSH2 0x74E JUMP JUMPDEST DUP7 SSTORE POP PUSH2 0x834 JUMP JUMPDEST PUSH1 0x1F NOT DUP5 AND PUSH2 0x7E2 DUP7 PUSH2 0x5BE JUMP JUMPDEST PUSH1 0x0 JUMPDEST DUP3 DUP2 LT ISZERO PUSH2 0x80A JUMPI DUP5 DUP10 ADD MLOAD DUP3 SSTORE PUSH1 0x1 DUP3 ADD SWAP2 POP PUSH1 0x20 DUP6 ADD SWAP5 POP PUSH1 0x20 DUP2 ADD SWAP1 POP PUSH2 0x7E5 JUMP JUMPDEST DUP7 DUP4 LT ISZERO PUSH2 0x827 JUMPI DUP5 DUP10 ADD MLOAD PUSH2 0x823 PUSH1 0x1F DUP10 AND DUP3 PUSH2 0x730 JUMP JUMPDEST DUP4 SSTORE POP JUMPDEST PUSH1 0x1 PUSH1 0x2 DUP9 MUL ADD DUP9 SSTORE POP POP POP JUMPDEST POP POP POP POP POP POP JUMP INVALID LOG2 PUSH5 0x6970667358 0x22 SLT KECCAK256 DELEGATECALL AND ADDMOD 0xD3 0xE2 COINBASE 0xBF 0xED 0xD0 0xAD SMOD DUP13 0xEE BALANCE 0xEC MOD DUP4 SWAP1 0x5D CALLER 0xB9 0xB4 0x23 0xB5 PUSH14 0x1A91F001EDBB7264736F6C634300 ADDMOD SLT STOP CALLER "
				},
				"gasEstimates": {
					"creation": {
						"codeDepositCost": "432400",
						"executionCost": "468",
						"totalCost": "432868"
					},
					"external": {
						"data(uint256)": "infinite",
						"setter(uint256,string,string,uint256)": "infinite"
					}
				},
				"methodIdentifiers": {
					"data(uint256)": "f0ba8440",
					"setter(uint256,string,string,uint256)": "4fa1fc67"
				}
			},
			"storageLayout": {
				"storage": [
					{
						"astId": 72,
						"contract": "contracts/solidity-Practice/mapping-in-solidity.sol:mappingStructDemo",
						"label": "data",
						"offset": 0,
						"slot": "0",
						"type": "t_mapping(t_uint256,t_struct(student)67_storage)"
					}
				],
				"types": {
					"t_mapping(t_uint256,t_struct(student)67_storage)": {
						"encoding": "mapping",
						"key": "t_uint256",
						"label": "mapping(uint256 => struct mappingStructDemo.student)",
						"numberOfBytes": "32",
						"value": "t_struct(student)67_storage"
					},
					"t_string_storage": {
						"encoding": "bytes",
						"label": "string",
						"numberOfBytes": "32"
					},
					"t_struct(student)67_storage": {
						"encoding": "inplace",
						"label": "struct mappingStructDemo.student",
						"members": [
							{
								"astId": 62,
								"contract": "contracts/solidity-Practice/mapping-in-solidity.sol:mappingStructDemo",
								"label": "name",
								"offset": 0,
								"slot": "0",
								"type": "t_string_storage"
							},
							{
								"astId": 64,
								"contract": "contracts/solidity-Practice/mapping-in-solidity.sol:mappingStructDemo",
								"label": "class",
								"offset": 0,
								"slot": "1",
								"type": "t_string_storage"
							},
							{
								"astId": 66,
								"contract": "contracts/solidity-Practice/mapping-in-solidity.sol:mappingStructDemo",
								"label": "age",
								"offset": 0,
								"slot": "2",
								"type": "t_uint256"
							}
						],
						"numberOfBytes": "96"
					},
					"t_uint256": {
						"encoding": "inplace",
						"label": "uint256",
						"numberOfBytes": "32"
					}
				}
			},
			"userdoc": {
				"kind": "user",
				"methods": {},
				"version": 1
			}
		}
	}
}