{
	"contracts/mapping-in-solidity.sol": {
		"learnMapping": {
			"abi": [
				{
					"inputs": [
						{
							"internalType": "uint256",
							"name": "id",
							"type": "uint256"
						},
						{
							"internalType": "string",
							"name": "title",
							"type": "string"
						},
						{
							"internalType": "string",
							"name": "director",
							"type": "string"
						}
					],
					"name": "addMovie",
					"outputs": [],
					"stateMutability": "nonpayable",
					"type": "function"
				},
				{
					"inputs": [
						{
							"internalType": "uint256",
							"name": "id",
							"type": "uint256"
						},
						{
							"internalType": "string",
							"name": "title",
							"type": "string"
						},
						{
							"internalType": "string",
							"name": "director",
							"type": "string"
						}
					],
					"name": "addMyMovie",
					"outputs": [],
					"stateMutability": "nonpayable",
					"type": "function"
				},
				{
					"inputs": [
						{
							"internalType": "address",
							"name": "",
							"type": "address"
						},
						{
							"internalType": "uint256",
							"name": "",
							"type": "uint256"
						}
					],
					"name": "myMovie",
					"outputs": [
						{
							"internalType": "string",
							"name": "title",
							"type": "string"
						},
						{
							"internalType": "string",
							"name": "director",
							"type": "string"
						}
					],
					"stateMutability": "view",
					"type": "function"
				}
			],
			"devdoc": {
				"kind": "dev",
				"methods": {},
				"version": 1
			},
			"evm": {
				"assembly": "    /* \"contracts/mapping-in-solidity.sol\":508:2965  contract learnMapping {... */\n  mstore(0x40, 0x80)\n  callvalue\n  dup1\n  iszero\n  tag_1\n  jumpi\n  0x00\n  dup1\n  revert\ntag_1:\n  pop\n  dataSize(sub_0)\n  dup1\n  dataOffset(sub_0)\n  0x00\n  codecopy\n  0x00\n  return\nstop\n\nsub_0: assembly {\n        /* \"contracts/mapping-in-solidity.sol\":508:2965  contract learnMapping {... */\n      mstore(0x40, 0x80)\n      callvalue\n      dup1\n      iszero\n      tag_1\n      jumpi\n      0x00\n      dup1\n      revert\n    tag_1:\n      pop\n      jumpi(tag_2, lt(calldatasize, 0x04))\n      shr(0xe0, calldataload(0x00))\n      dup1\n      0x11f72990\n      eq\n      tag_3\n      jumpi\n      dup1\n      0x87eb54fe\n      eq\n      tag_4\n      jumpi\n      dup1\n      0xf40f48c9\n      eq\n      tag_5\n      jumpi\n    tag_2:\n      0x00\n      dup1\n      revert\n        /* \"contracts/mapping-in-solidity.sol\":1900:1957  mapping(address => mapping(uint => Movie)) public myMovie */\n    tag_3:\n      tag_6\n      0x04\n      dup1\n      calldatasize\n      sub\n      dup2\n      add\n      swap1\n      tag_7\n      swap2\n      swap1\n      tag_8\n      jump\t// in\n    tag_7:\n      tag_9\n      jump\t// in\n    tag_6:\n      mload(0x40)\n      tag_10\n      swap3\n      swap2\n      swap1\n      tag_11\n      jump\t// in\n    tag_10:\n      mload(0x40)\n      dup1\n      swap2\n      sub\n      swap1\n      return\n        /* \"contracts/mapping-in-solidity.sol\":2201:2518  function addMyMovie(uint id, string memory title, string memory director) public {... */\n    tag_4:\n      tag_12\n      0x04\n      dup1\n      calldatasize\n      sub\n      dup2\n      add\n      swap1\n      tag_13\n      swap2\n      swap1\n      tag_14\n      jump\t// in\n    tag_13:\n      tag_15\n      jump\t// in\n    tag_12:\n      stop\n        /* \"contracts/mapping-in-solidity.sol\":2048:2185  function addMovie(uint id, string memory title, string memory director) public {... */\n    tag_5:\n      tag_16\n      0x04\n      dup1\n      calldatasize\n      sub\n      dup2\n      add\n      swap1\n      tag_17\n      swap2\n      swap1\n      tag_14\n      jump\t// in\n    tag_17:\n      tag_18\n      jump\t// in\n    tag_16:\n      stop\n        /* \"contracts/mapping-in-solidity.sol\":1900:1957  mapping(address => mapping(uint => Movie)) public myMovie */\n    tag_9:\n      mstore(0x20, 0x01)\n      dup2\n      0x00\n      mstore\n      mstore(0x20, keccak256(0x00, 0x40))\n      dup1\n      0x00\n      mstore\n      keccak256(0x00, 0x40)\n      0x00\n      swap2\n      pop\n      swap2\n      pop\n      pop\n      dup1\n      0x00\n      add\n      dup1\n      sload\n      tag_19\n      swap1\n      tag_20\n      jump\t// in\n    tag_19:\n      dup1\n      0x1f\n      add\n      0x20\n      dup1\n      swap2\n      div\n      mul\n      0x20\n      add\n      mload(0x40)\n      swap1\n      dup2\n      add\n      0x40\n      mstore\n      dup1\n      swap3\n      swap2\n      swap1\n      dup2\n      dup2\n      mstore\n      0x20\n      add\n      dup3\n      dup1\n      sload\n      tag_21\n      swap1\n      tag_20\n      jump\t// in\n    tag_21:\n      dup1\n      iszero\n      tag_22\n      jumpi\n      dup1\n      0x1f\n      lt\n      tag_23\n      jumpi\n      0x0100\n      dup1\n      dup4\n      sload\n      div\n      mul\n      dup4\n      mstore\n      swap2\n      0x20\n      add\n      swap2\n      jump(tag_22)\n    tag_23:\n      dup3\n      add\n      swap2\n      swap1\n      0x00\n      mstore\n      keccak256(0x00, 0x20)\n      swap1\n    tag_24:\n      dup2\n      sload\n      dup2\n      mstore\n      swap1\n      0x01\n      add\n      swap1\n      0x20\n      add\n      dup1\n      dup4\n      gt\n      tag_24\n      jumpi\n      dup3\n      swap1\n      sub\n      0x1f\n      and\n      dup3\n      add\n      swap2\n    tag_22:\n      pop\n      pop\n      pop\n      pop\n      pop\n      swap1\n      dup1\n      0x01\n      add\n      dup1\n      sload\n      tag_25\n      swap1\n      tag_20\n      jump\t// in\n    tag_25:\n      dup1\n      0x1f\n      add\n      0x20\n      dup1\n      swap2\n      div\n      mul\n      0x20\n      add\n      mload(0x40)\n      swap1\n      dup2\n      add\n      0x40\n      mstore\n      dup1\n      swap3\n      swap2\n      swap1\n      dup2\n      dup2\n      mstore\n      0x20\n      add\n      dup3\n      dup1\n      sload\n      tag_26\n      swap1\n      tag_20\n      jump\t// in\n    tag_26:\n      dup1\n      iszero\n      tag_27\n      jumpi\n      dup1\n      0x1f\n      lt\n      tag_28\n      jumpi\n      0x0100\n      dup1\n      dup4\n      sload\n      div\n      mul\n      dup4\n      mstore\n      swap2\n      0x20\n      add\n      swap2\n      jump(tag_27)\n    tag_28:\n      dup3\n      add\n      swap2\n      swap1\n      0x00\n      mstore\n      keccak256(0x00, 0x20)\n      swap1\n    tag_29:\n      dup2\n      sload\n      dup2\n      mstore\n      swap1\n      0x01\n      add\n      swap1\n      0x20\n      add\n      dup1\n      dup4\n      gt\n      tag_29\n      jumpi\n      dup3\n      swap1\n      sub\n      0x1f\n      and\n      dup3\n      add\n      swap2\n    tag_27:\n      pop\n      pop\n      pop\n      pop\n      pop\n      swap1\n      pop\n      dup3\n      jump\t// out\n        /* \"contracts/mapping-in-solidity.sol\":2201:2518  function addMyMovie(uint id, string memory title, string memory director) public {... */\n    tag_15:\n        /* \"contracts/mapping-in-solidity.sol\":2323:2345  Movie(title, director) */\n      mload(0x40)\n      dup1\n      0x40\n      add\n      0x40\n      mstore\n      dup1\n        /* \"contracts/mapping-in-solidity.sol\":2329:2334  title */\n      dup4\n        /* \"contracts/mapping-in-solidity.sol\":2323:2345  Movie(title, director) */\n      dup2\n      mstore\n      0x20\n      add\n        /* \"contracts/mapping-in-solidity.sol\":2336:2344  director */\n      dup3\n        /* \"contracts/mapping-in-solidity.sol\":2323:2345  Movie(title, director) */\n      dup2\n      mstore\n      pop\n        /* \"contracts/mapping-in-solidity.sol\":2297:2304  myMovie */\n      0x01\n        /* \"contracts/mapping-in-solidity.sol\":2297:2316  myMovie[msg.sender] */\n      0x00\n        /* \"contracts/mapping-in-solidity.sol\":2305:2315  msg.sender */\n      caller\n        /* \"contracts/mapping-in-solidity.sol\":2297:2316  myMovie[msg.sender] */\n      0xffffffffffffffffffffffffffffffffffffffff\n      and\n      0xffffffffffffffffffffffffffffffffffffffff\n      and\n      dup2\n      mstore\n      0x20\n      add\n      swap1\n      dup2\n      mstore\n      0x20\n      add\n      0x00\n      keccak256\n        /* \"contracts/mapping-in-solidity.sol\":2297:2320  myMovie[msg.sender][id] */\n      0x00\n        /* \"contracts/mapping-in-solidity.sol\":2317:2319  id */\n      dup6\n        /* \"contracts/mapping-in-solidity.sol\":2297:2320  myMovie[msg.sender][id] */\n      dup2\n      mstore\n      0x20\n      add\n      swap1\n      dup2\n      mstore\n      0x20\n      add\n      0x00\n      keccak256\n        /* \"contracts/mapping-in-solidity.sol\":2297:2345  myMovie[msg.sender][id] = Movie(title, director) */\n      0x00\n      dup3\n      add\n      mload\n      dup2\n      0x00\n      add\n      swap1\n      dup2\n      tag_31\n      swap2\n      swap1\n      tag_32\n      jump\t// in\n    tag_31:\n      pop\n      0x20\n      dup3\n      add\n      mload\n      dup2\n      0x01\n      add\n      swap1\n      dup2\n      tag_33\n      swap2\n      swap1\n      tag_32\n      jump\t// in\n    tag_33:\n      pop\n      swap1\n      pop\n      pop\n        /* \"contracts/mapping-in-solidity.sol\":2201:2518  function addMyMovie(uint id, string memory title, string memory director) public {... */\n      pop\n      pop\n      pop\n      jump\t// out\n        /* \"contracts/mapping-in-solidity.sol\":2048:2185  function addMovie(uint id, string memory title, string memory director) public {... */\n    tag_18:\n        /* \"contracts/mapping-in-solidity.sol\":2154:2176  Movie(title, director) */\n      mload(0x40)\n      dup1\n      0x40\n      add\n      0x40\n      mstore\n      dup1\n        /* \"contracts/mapping-in-solidity.sol\":2160:2165  title */\n      dup4\n        /* \"contracts/mapping-in-solidity.sol\":2154:2176  Movie(title, director) */\n      dup2\n      mstore\n      0x20\n      add\n        /* \"contracts/mapping-in-solidity.sol\":2167:2175  director */\n      dup3\n        /* \"contracts/mapping-in-solidity.sol\":2154:2176  Movie(title, director) */\n      dup2\n      mstore\n      pop\n        /* \"contracts/mapping-in-solidity.sol\":2142:2147  movie */\n      0x00\n        /* \"contracts/mapping-in-solidity.sol\":2142:2151  movie[id] */\n      dup1\n        /* \"contracts/mapping-in-solidity.sol\":2148:2150  id */\n      dup6\n        /* \"contracts/mapping-in-solidity.sol\":2142:2151  movie[id] */\n      dup2\n      mstore\n      0x20\n      add\n      swap1\n      dup2\n      mstore\n      0x20\n      add\n      0x00\n      keccak256\n        /* \"contracts/mapping-in-solidity.sol\":2142:2176  movie[id] = Movie(title, director) */\n      0x00\n      dup3\n      add\n      mload\n      dup2\n      0x00\n      add\n      swap1\n      dup2\n      tag_35\n      swap2\n      swap1\n      tag_32\n      jump\t// in\n    tag_35:\n      pop\n      0x20\n      dup3\n      add\n      mload\n      dup2\n      0x01\n      add\n      swap1\n      dup2\n      tag_36\n      swap2\n      swap1\n      tag_32\n      jump\t// in\n    tag_36:\n      pop\n      swap1\n      pop\n      pop\n        /* \"contracts/mapping-in-solidity.sol\":2048:2185  function addMovie(uint id, string memory title, string memory director) public {... */\n      pop\n      pop\n      pop\n      jump\t// out\n        /* \"#utility.yul\":7:82   */\n    tag_37:\n        /* \"#utility.yul\":40:46   */\n      0x00\n        /* \"#utility.yul\":73:75   */\n      0x40\n        /* \"#utility.yul\":67:76   */\n      mload\n        /* \"#utility.yul\":57:76   */\n      swap1\n      pop\n        /* \"#utility.yul\":7:82   */\n      swap1\n      jump\t// out\n        /* \"#utility.yul\":88:205   */\n    tag_38:\n        /* \"#utility.yul\":197:198   */\n      0x00\n        /* \"#utility.yul\":194:195   */\n      dup1\n        /* \"#utility.yul\":187:199   */\n      revert\n        /* \"#utility.yul\":211:328   */\n    tag_39:\n        /* \"#utility.yul\":320:321   */\n      0x00\n        /* \"#utility.yul\":317:318   */\n      dup1\n        /* \"#utility.yul\":310:322   */\n      revert\n        /* \"#utility.yul\":334:460   */\n    tag_40:\n        /* \"#utility.yul\":371:378   */\n      0x00\n        /* \"#utility.yul\":411:453   */\n      0xffffffffffffffffffffffffffffffffffffffff\n        /* \"#utility.yul\":404:409   */\n      dup3\n        /* \"#utility.yul\":400:454   */\n      and\n        /* \"#utility.yul\":389:454   */\n      swap1\n      pop\n        /* \"#utility.yul\":334:460   */\n      swap2\n      swap1\n      pop\n      jump\t// out\n        /* \"#utility.yul\":466:562   */\n    tag_41:\n        /* \"#utility.yul\":503:510   */\n      0x00\n        /* \"#utility.yul\":532:556   */\n      tag_83\n        /* \"#utility.yul\":550:555   */\n      dup3\n        /* \"#utility.yul\":532:556   */\n      tag_40\n      jump\t// in\n    tag_83:\n        /* \"#utility.yul\":521:556   */\n      swap1\n      pop\n        /* \"#utility.yul\":466:562   */\n      swap2\n      swap1\n      pop\n      jump\t// out\n        /* \"#utility.yul\":568:690   */\n    tag_42:\n        /* \"#utility.yul\":641:665   */\n      tag_85\n        /* \"#utility.yul\":659:664   */\n      dup2\n        /* \"#utility.yul\":641:665   */\n      tag_41\n      jump\t// in\n    tag_85:\n        /* \"#utility.yul\":634:639   */\n      dup2\n        /* \"#utility.yul\":631:666   */\n      eq\n        /* \"#utility.yul\":621:684   */\n      tag_86\n      jumpi\n        /* \"#utility.yul\":680:681   */\n      0x00\n        /* \"#utility.yul\":677:678   */\n      dup1\n        /* \"#utility.yul\":670:682   */\n      revert\n        /* \"#utility.yul\":621:684   */\n    tag_86:\n        /* \"#utility.yul\":568:690   */\n      pop\n      jump\t// out\n        /* \"#utility.yul\":696:835   */\n    tag_43:\n        /* \"#utility.yul\":742:747   */\n      0x00\n        /* \"#utility.yul\":780:786   */\n      dup2\n        /* \"#utility.yul\":767:787   */\n      calldataload\n        /* \"#utility.yul\":758:787   */\n      swap1\n      pop\n        /* \"#utility.yul\":796:829   */\n      tag_88\n        /* \"#utility.yul\":823:828   */\n      dup2\n        /* \"#utility.yul\":796:829   */\n      tag_42\n      jump\t// in\n    tag_88:\n        /* \"#utility.yul\":696:835   */\n      swap3\n      swap2\n      pop\n      pop\n      jump\t// out\n        /* \"#utility.yul\":841:918   */\n    tag_44:\n        /* \"#utility.yul\":878:885   */\n      0x00\n        /* \"#utility.yul\":907:912   */\n      dup2\n        /* \"#utility.yul\":896:912   */\n      swap1\n      pop\n        /* \"#utility.yul\":841:918   */\n      swap2\n      swap1\n      pop\n      jump\t// out\n        /* \"#utility.yul\":924:1046   */\n    tag_45:\n        /* \"#utility.yul\":997:1021   */\n      tag_91\n        /* \"#utility.yul\":1015:1020   */\n      dup2\n        /* \"#utility.yul\":997:1021   */\n      tag_44\n      jump\t// in\n    tag_91:\n        /* \"#utility.yul\":990:995   */\n      dup2\n        /* \"#utility.yul\":987:1022   */\n      eq\n        /* \"#utility.yul\":977:1040   */\n      tag_92\n      jumpi\n        /* \"#utility.yul\":1036:1037   */\n      0x00\n        /* \"#utility.yul\":1033:1034   */\n      dup1\n        /* \"#utility.yul\":1026:1038   */\n      revert\n        /* \"#utility.yul\":977:1040   */\n    tag_92:\n        /* \"#utility.yul\":924:1046   */\n      pop\n      jump\t// out\n        /* \"#utility.yul\":1052:1191   */\n    tag_46:\n        /* \"#utility.yul\":1098:1103   */\n      0x00\n        /* \"#utility.yul\":1136:1142   */\n      dup2\n        /* \"#utility.yul\":1123:1143   */\n      calldataload\n        /* \"#utility.yul\":1114:1143   */\n      swap1\n      pop\n        /* \"#utility.yul\":1152:1185   */\n      tag_94\n        /* \"#utility.yul\":1179:1184   */\n      dup2\n        /* \"#utility.yul\":1152:1185   */\n      tag_45\n      jump\t// in\n    tag_94:\n        /* \"#utility.yul\":1052:1191   */\n      swap3\n      swap2\n      pop\n      pop\n      jump\t// out\n        /* \"#utility.yul\":1197:1671   */\n    tag_8:\n        /* \"#utility.yul\":1265:1271   */\n      0x00\n        /* \"#utility.yul\":1273:1279   */\n      dup1\n        /* \"#utility.yul\":1322:1324   */\n      0x40\n        /* \"#utility.yul\":1310:1319   */\n      dup4\n        /* \"#utility.yul\":1301:1308   */\n      dup6\n        /* \"#utility.yul\":1297:1320   */\n      sub\n        /* \"#utility.yul\":1293:1325   */\n      slt\n        /* \"#utility.yul\":1290:1409   */\n      iszero\n      tag_96\n      jumpi\n        /* \"#utility.yul\":1328:1407   */\n      tag_97\n      tag_38\n      jump\t// in\n    tag_97:\n        /* \"#utility.yul\":1290:1409   */\n    tag_96:\n        /* \"#utility.yul\":1448:1449   */\n      0x00\n        /* \"#utility.yul\":1473:1526   */\n      tag_98\n        /* \"#utility.yul\":1518:1525   */\n      dup6\n        /* \"#utility.yul\":1509:1515   */\n      dup3\n        /* \"#utility.yul\":1498:1507   */\n      dup7\n        /* \"#utility.yul\":1494:1516   */\n      add\n        /* \"#utility.yul\":1473:1526   */\n      tag_43\n      jump\t// in\n    tag_98:\n        /* \"#utility.yul\":1463:1526   */\n      swap3\n      pop\n        /* \"#utility.yul\":1419:1536   */\n      pop\n        /* \"#utility.yul\":1575:1577   */\n      0x20\n        /* \"#utility.yul\":1601:1654   */\n      tag_99\n        /* \"#utility.yul\":1646:1653   */\n      dup6\n        /* \"#utility.yul\":1637:1643   */\n      dup3\n        /* \"#utility.yul\":1626:1635   */\n      dup7\n        /* \"#utility.yul\":1622:1644   */\n      add\n        /* \"#utility.yul\":1601:1654   */\n      tag_46\n      jump\t// in\n    tag_99:\n        /* \"#utility.yul\":1591:1654   */\n      swap2\n      pop\n        /* \"#utility.yul\":1546:1664   */\n      pop\n        /* \"#utility.yul\":1197:1671   */\n      swap3\n      pop\n      swap3\n      swap1\n      pop\n      jump\t// out\n        /* \"#utility.yul\":1677:1776   */\n    tag_47:\n        /* \"#utility.yul\":1729:1735   */\n      0x00\n        /* \"#utility.yul\":1763:1768   */\n      dup2\n        /* \"#utility.yul\":1757:1769   */\n      mload\n        /* \"#utility.yul\":1747:1769   */\n      swap1\n      pop\n        /* \"#utility.yul\":1677:1776   */\n      swap2\n      swap1\n      pop\n      jump\t// out\n        /* \"#utility.yul\":1782:1951   */\n    tag_48:\n        /* \"#utility.yul\":1866:1877   */\n      0x00\n        /* \"#utility.yul\":1900:1906   */\n      dup3\n        /* \"#utility.yul\":1895:1898   */\n      dup3\n        /* \"#utility.yul\":1888:1907   */\n      mstore\n        /* \"#utility.yul\":1940:1944   */\n      0x20\n        /* \"#utility.yul\":1935:1938   */\n      dup3\n        /* \"#utility.yul\":1931:1945   */\n      add\n        /* \"#utility.yul\":1916:1945   */\n      swap1\n      pop\n        /* \"#utility.yul\":1782:1951   */\n      swap3\n      swap2\n      pop\n      pop\n      jump\t// out\n        /* \"#utility.yul\":1957:2203   */\n    tag_49:\n        /* \"#utility.yul\":2038:2039   */\n      0x00\n        /* \"#utility.yul\":2048:2161   */\n    tag_103:\n        /* \"#utility.yul\":2062:2068   */\n      dup4\n        /* \"#utility.yul\":2059:2060   */\n      dup2\n        /* \"#utility.yul\":2056:2069   */\n      lt\n        /* \"#utility.yul\":2048:2161   */\n      iszero\n      tag_105\n      jumpi\n        /* \"#utility.yul\":2147:2148   */\n      dup1\n        /* \"#utility.yul\":2142:2145   */\n      dup3\n        /* \"#utility.yul\":2138:2149   */\n      add\n        /* \"#utility.yul\":2132:2150   */\n      mload\n        /* \"#utility.yul\":2128:2129   */\n      dup2\n        /* \"#utility.yul\":2123:2126   */\n      dup5\n        /* \"#utility.yul\":2119:2130   */\n      add\n        /* \"#utility.yul\":2112:2151   */\n      mstore\n        /* \"#utility.yul\":2084:2086   */\n      0x20\n        /* \"#utility.yul\":2081:2082   */\n      dup2\n        /* \"#utility.yul\":2077:2087   */\n      add\n        /* \"#utility.yul\":2072:2087   */\n      swap1\n      pop\n        /* \"#utility.yul\":2048:2161   */\n      jump(tag_103)\n    tag_105:\n        /* \"#utility.yul\":2195:2196   */\n      0x00\n        /* \"#utility.yul\":2186:2192   */\n      dup5\n        /* \"#utility.yul\":2181:2184   */\n      dup5\n        /* \"#utility.yul\":2177:2193   */\n      add\n        /* \"#utility.yul\":2170:2197   */\n      mstore\n        /* \"#utility.yul\":2019:2203   */\n      pop\n        /* \"#utility.yul\":1957:2203   */\n      pop\n      pop\n      pop\n      jump\t// out\n        /* \"#utility.yul\":2209:2311   */\n    tag_50:\n        /* \"#utility.yul\":2250:2256   */\n      0x00\n        /* \"#utility.yul\":2301:2303   */\n      0x1f\n        /* \"#utility.yul\":2297:2304   */\n      not\n        /* \"#utility.yul\":2292:2294   */\n      0x1f\n        /* \"#utility.yul\":2285:2290   */\n      dup4\n        /* \"#utility.yul\":2281:2295   */\n      add\n        /* \"#utility.yul\":2277:2305   */\n      and\n        /* \"#utility.yul\":2267:2305   */\n      swap1\n      pop\n        /* \"#utility.yul\":2209:2311   */\n      swap2\n      swap1\n      pop\n      jump\t// out\n        /* \"#utility.yul\":2317:2694   */\n    tag_51:\n        /* \"#utility.yul\":2405:2408   */\n      0x00\n        /* \"#utility.yul\":2433:2472   */\n      tag_108\n        /* \"#utility.yul\":2466:2471   */\n      dup3\n        /* \"#utility.yul\":2433:2472   */\n      tag_47\n      jump\t// in\n    tag_108:\n        /* \"#utility.yul\":2488:2559   */\n      tag_109\n        /* \"#utility.yul\":2552:2558   */\n      dup2\n        /* \"#utility.yul\":2547:2550   */\n      dup6\n        /* \"#utility.yul\":2488:2559   */\n      tag_48\n      jump\t// in\n    tag_109:\n        /* \"#utility.yul\":2481:2559   */\n      swap4\n      pop\n        /* \"#utility.yul\":2568:2633   */\n      tag_110\n        /* \"#utility.yul\":2626:2632   */\n      dup2\n        /* \"#utility.yul\":2621:2624   */\n      dup6\n        /* \"#utility.yul\":2614:2618   */\n      0x20\n        /* \"#utility.yul\":2607:2612   */\n      dup7\n        /* \"#utility.yul\":2603:2619   */\n      add\n        /* \"#utility.yul\":2568:2633   */\n      tag_49\n      jump\t// in\n    tag_110:\n        /* \"#utility.yul\":2658:2687   */\n      tag_111\n        /* \"#utility.yul\":2680:2686   */\n      dup2\n        /* \"#utility.yul\":2658:2687   */\n      tag_50\n      jump\t// in\n    tag_111:\n        /* \"#utility.yul\":2653:2656   */\n      dup5\n        /* \"#utility.yul\":2649:2688   */\n      add\n        /* \"#utility.yul\":2642:2688   */\n      swap2\n      pop\n        /* \"#utility.yul\":2409:2694   */\n      pop\n        /* \"#utility.yul\":2317:2694   */\n      swap3\n      swap2\n      pop\n      pop\n      jump\t// out\n        /* \"#utility.yul\":2700:3214   */\n    tag_11:\n        /* \"#utility.yul\":2861:2865   */\n      0x00\n        /* \"#utility.yul\":2899:2901   */\n      0x40\n        /* \"#utility.yul\":2888:2897   */\n      dup3\n        /* \"#utility.yul\":2884:2902   */\n      add\n        /* \"#utility.yul\":2876:2902   */\n      swap1\n      pop\n        /* \"#utility.yul\":2948:2957   */\n      dup2\n        /* \"#utility.yul\":2942:2946   */\n      dup2\n        /* \"#utility.yul\":2938:2958   */\n      sub\n        /* \"#utility.yul\":2934:2935   */\n      0x00\n        /* \"#utility.yul\":2923:2932   */\n      dup4\n        /* \"#utility.yul\":2919:2936   */\n      add\n        /* \"#utility.yul\":2912:2959   */\n      mstore\n        /* \"#utility.yul\":2976:3054   */\n      tag_113\n        /* \"#utility.yul\":3049:3053   */\n      dup2\n        /* \"#utility.yul\":3040:3046   */\n      dup6\n        /* \"#utility.yul\":2976:3054   */\n      tag_51\n      jump\t// in\n    tag_113:\n        /* \"#utility.yul\":2968:3054   */\n      swap1\n      pop\n        /* \"#utility.yul\":3101:3110   */\n      dup2\n        /* \"#utility.yul\":3095:3099   */\n      dup2\n        /* \"#utility.yul\":3091:3111   */\n      sub\n        /* \"#utility.yul\":3086:3088   */\n      0x20\n        /* \"#utility.yul\":3075:3084   */\n      dup4\n        /* \"#utility.yul\":3071:3089   */\n      add\n        /* \"#utility.yul\":3064:3112   */\n      mstore\n        /* \"#utility.yul\":3129:3207   */\n      tag_114\n        /* \"#utility.yul\":3202:3206   */\n      dup2\n        /* \"#utility.yul\":3193:3199   */\n      dup5\n        /* \"#utility.yul\":3129:3207   */\n      tag_51\n      jump\t// in\n    tag_114:\n        /* \"#utility.yul\":3121:3207   */\n      swap1\n      pop\n        /* \"#utility.yul\":2700:3214   */\n      swap4\n      swap3\n      pop\n      pop\n      pop\n      jump\t// out\n        /* \"#utility.yul\":3220:3337   */\n    tag_52:\n        /* \"#utility.yul\":3329:3330   */\n      0x00\n        /* \"#utility.yul\":3326:3327   */\n      dup1\n        /* \"#utility.yul\":3319:3331   */\n      revert\n        /* \"#utility.yul\":3343:3460   */\n    tag_53:\n        /* \"#utility.yul\":3452:3453   */\n      0x00\n        /* \"#utility.yul\":3449:3450   */\n      dup1\n        /* \"#utility.yul\":3442:3454   */\n      revert\n        /* \"#utility.yul\":3466:3646   */\n    tag_54:\n        /* \"#utility.yul\":3514:3591   */\n      0x4e487b7100000000000000000000000000000000000000000000000000000000\n        /* \"#utility.yul\":3511:3512   */\n      0x00\n        /* \"#utility.yul\":3504:3592   */\n      mstore\n        /* \"#utility.yul\":3611:3615   */\n      0x41\n        /* \"#utility.yul\":3608:3609   */\n      0x04\n        /* \"#utility.yul\":3601:3616   */\n      mstore\n        /* \"#utility.yul\":3635:3639   */\n      0x24\n        /* \"#utility.yul\":3632:3633   */\n      0x00\n        /* \"#utility.yul\":3625:3640   */\n      revert\n        /* \"#utility.yul\":3652:3933   */\n    tag_55:\n        /* \"#utility.yul\":3735:3762   */\n      tag_119\n        /* \"#utility.yul\":3757:3761   */\n      dup3\n        /* \"#utility.yul\":3735:3762   */\n      tag_50\n      jump\t// in\n    tag_119:\n        /* \"#utility.yul\":3727:3733   */\n      dup2\n        /* \"#utility.yul\":3723:3763   */\n      add\n        /* \"#utility.yul\":3865:3871   */\n      dup2\n        /* \"#utility.yul\":3853:3863   */\n      dup2\n        /* \"#utility.yul\":3850:3872   */\n      lt\n        /* \"#utility.yul\":3829:3847   */\n      0xffffffffffffffff\n        /* \"#utility.yul\":3817:3827   */\n      dup3\n        /* \"#utility.yul\":3814:3848   */\n      gt\n        /* \"#utility.yul\":3811:3873   */\n      or\n        /* \"#utility.yul\":3808:3896   */\n      iszero\n      tag_120\n      jumpi\n        /* \"#utility.yul\":3876:3894   */\n      tag_121\n      tag_54\n      jump\t// in\n    tag_121:\n        /* \"#utility.yul\":3808:3896   */\n    tag_120:\n        /* \"#utility.yul\":3916:3926   */\n      dup1\n        /* \"#utility.yul\":3912:3914   */\n      0x40\n        /* \"#utility.yul\":3905:3927   */\n      mstore\n        /* \"#utility.yul\":3695:3933   */\n      pop\n        /* \"#utility.yul\":3652:3933   */\n      pop\n      pop\n      jump\t// out\n        /* \"#utility.yul\":3939:4068   */\n    tag_56:\n        /* \"#utility.yul\":3973:3979   */\n      0x00\n        /* \"#utility.yul\":4000:4020   */\n      tag_123\n      tag_37\n      jump\t// in\n    tag_123:\n        /* \"#utility.yul\":3990:4020   */\n      swap1\n      pop\n        /* \"#utility.yul\":4029:4062   */\n      tag_124\n        /* \"#utility.yul\":4057:4061   */\n      dup3\n        /* \"#utility.yul\":4049:4055   */\n      dup3\n        /* \"#utility.yul\":4029:4062   */\n      tag_55\n      jump\t// in\n    tag_124:\n        /* \"#utility.yul\":3939:4068   */\n      swap2\n      swap1\n      pop\n      jump\t// out\n        /* \"#utility.yul\":4074:4382   */\n    tag_57:\n        /* \"#utility.yul\":4136:4140   */\n      0x00\n        /* \"#utility.yul\":4226:4244   */\n      0xffffffffffffffff\n        /* \"#utility.yul\":4218:4224   */\n      dup3\n        /* \"#utility.yul\":4215:4245   */\n      gt\n        /* \"#utility.yul\":4212:4268   */\n      iszero\n      tag_126\n      jumpi\n        /* \"#utility.yul\":4248:4266   */\n      tag_127\n      tag_54\n      jump\t// in\n    tag_127:\n        /* \"#utility.yul\":4212:4268   */\n    tag_126:\n        /* \"#utility.yul\":4286:4315   */\n      tag_128\n        /* \"#utility.yul\":4308:4314   */\n      dup3\n        /* \"#utility.yul\":4286:4315   */\n      tag_50\n      jump\t// in\n    tag_128:\n        /* \"#utility.yul\":4278:4315   */\n      swap1\n      pop\n        /* \"#utility.yul\":4370:4374   */\n      0x20\n        /* \"#utility.yul\":4364:4368   */\n      dup2\n        /* \"#utility.yul\":4360:4375   */\n      add\n        /* \"#utility.yul\":4352:4375   */\n      swap1\n      pop\n        /* \"#utility.yul\":4074:4382   */\n      swap2\n      swap1\n      pop\n      jump\t// out\n        /* \"#utility.yul\":4388:4534   */\n    tag_58:\n        /* \"#utility.yul\":4485:4491   */\n      dup3\n        /* \"#utility.yul\":4480:4483   */\n      dup2\n        /* \"#utility.yul\":4475:4478   */\n      dup4\n        /* \"#utility.yul\":4462:4492   */\n      calldatacopy\n        /* \"#utility.yul\":4526:4527   */\n      0x00\n        /* \"#utility.yul\":4517:4523   */\n      dup4\n        /* \"#utility.yul\":4512:4515   */\n      dup4\n        /* \"#utility.yul\":4508:4524   */\n      add\n        /* \"#utility.yul\":4501:4528   */\n      mstore\n        /* \"#utility.yul\":4388:4534   */\n      pop\n      pop\n      pop\n      jump\t// out\n        /* \"#utility.yul\":4540:4965   */\n    tag_59:\n        /* \"#utility.yul\":4618:4623   */\n      0x00\n        /* \"#utility.yul\":4643:4709   */\n      tag_131\n        /* \"#utility.yul\":4659:4708   */\n      tag_132\n        /* \"#utility.yul\":4701:4707   */\n      dup5\n        /* \"#utility.yul\":4659:4708   */\n      tag_57\n      jump\t// in\n    tag_132:\n        /* \"#utility.yul\":4643:4709   */\n      tag_56\n      jump\t// in\n    tag_131:\n        /* \"#utility.yul\":4634:4709   */\n      swap1\n      pop\n        /* \"#utility.yul\":4732:4738   */\n      dup3\n        /* \"#utility.yul\":4725:4730   */\n      dup2\n        /* \"#utility.yul\":4718:4739   */\n      mstore\n        /* \"#utility.yul\":4770:4774   */\n      0x20\n        /* \"#utility.yul\":4763:4768   */\n      dup2\n        /* \"#utility.yul\":4759:4775   */\n      add\n        /* \"#utility.yul\":4808:4811   */\n      dup5\n        /* \"#utility.yul\":4799:4805   */\n      dup5\n        /* \"#utility.yul\":4794:4797   */\n      dup5\n        /* \"#utility.yul\":4790:4806   */\n      add\n        /* \"#utility.yul\":4787:4812   */\n      gt\n        /* \"#utility.yul\":4784:4896   */\n      iszero\n      tag_133\n      jumpi\n        /* \"#utility.yul\":4815:4894   */\n      tag_134\n      tag_53\n      jump\t// in\n    tag_134:\n        /* \"#utility.yul\":4784:4896   */\n    tag_133:\n        /* \"#utility.yul\":4905:4959   */\n      tag_135\n        /* \"#utility.yul\":4952:4958   */\n      dup5\n        /* \"#utility.yul\":4947:4950   */\n      dup3\n        /* \"#utility.yul\":4942:4945   */\n      dup6\n        /* \"#utility.yul\":4905:4959   */\n      tag_58\n      jump\t// in\n    tag_135:\n        /* \"#utility.yul\":4624:4965   */\n      pop\n        /* \"#utility.yul\":4540:4965   */\n      swap4\n      swap3\n      pop\n      pop\n      pop\n      jump\t// out\n        /* \"#utility.yul\":4985:5325   */\n    tag_60:\n        /* \"#utility.yul\":5041:5046   */\n      0x00\n        /* \"#utility.yul\":5090:5093   */\n      dup3\n        /* \"#utility.yul\":5083:5087   */\n      0x1f\n        /* \"#utility.yul\":5075:5081   */\n      dup4\n        /* \"#utility.yul\":5071:5088   */\n      add\n        /* \"#utility.yul\":5067:5094   */\n      slt\n        /* \"#utility.yul\":5057:5179   */\n      tag_137\n      jumpi\n        /* \"#utility.yul\":5098:5177   */\n      tag_138\n      tag_52\n      jump\t// in\n    tag_138:\n        /* \"#utility.yul\":5057:5179   */\n    tag_137:\n        /* \"#utility.yul\":5215:5221   */\n      dup2\n        /* \"#utility.yul\":5202:5222   */\n      calldataload\n        /* \"#utility.yul\":5240:5319   */\n      tag_139\n        /* \"#utility.yul\":5315:5318   */\n      dup5\n        /* \"#utility.yul\":5307:5313   */\n      dup3\n        /* \"#utility.yul\":5300:5304   */\n      0x20\n        /* \"#utility.yul\":5292:5298   */\n      dup7\n        /* \"#utility.yul\":5288:5305   */\n      add\n        /* \"#utility.yul\":5240:5319   */\n      tag_59\n      jump\t// in\n    tag_139:\n        /* \"#utility.yul\":5231:5319   */\n      swap2\n      pop\n        /* \"#utility.yul\":5047:5325   */\n      pop\n        /* \"#utility.yul\":4985:5325   */\n      swap3\n      swap2\n      pop\n      pop\n      jump\t// out\n        /* \"#utility.yul\":5331:6310   */\n    tag_14:\n        /* \"#utility.yul\":5428:5434   */\n      0x00\n        /* \"#utility.yul\":5436:5442   */\n      dup1\n        /* \"#utility.yul\":5444:5450   */\n      0x00\n        /* \"#utility.yul\":5493:5495   */\n      0x60\n        /* \"#utility.yul\":5481:5490   */\n      dup5\n        /* \"#utility.yul\":5472:5479   */\n      dup7\n        /* \"#utility.yul\":5468:5491   */\n      sub\n        /* \"#utility.yul\":5464:5496   */\n      slt\n        /* \"#utility.yul\":5461:5580   */\n      iszero\n      tag_141\n      jumpi\n        /* \"#utility.yul\":5499:5578   */\n      tag_142\n      tag_38\n      jump\t// in\n    tag_142:\n        /* \"#utility.yul\":5461:5580   */\n    tag_141:\n        /* \"#utility.yul\":5619:5620   */\n      0x00\n        /* \"#utility.yul\":5644:5697   */\n      tag_143\n        /* \"#utility.yul\":5689:5696   */\n      dup7\n        /* \"#utility.yul\":5680:5686   */\n      dup3\n        /* \"#utility.yul\":5669:5678   */\n      dup8\n        /* \"#utility.yul\":5665:5687   */\n      add\n        /* \"#utility.yul\":5644:5697   */\n      tag_46\n      jump\t// in\n    tag_143:\n        /* \"#utility.yul\":5634:5697   */\n      swap4\n      pop\n        /* \"#utility.yul\":5590:5707   */\n      pop\n        /* \"#utility.yul\":5774:5776   */\n      0x20\n        /* \"#utility.yul\":5763:5772   */\n      dup5\n        /* \"#utility.yul\":5759:5777   */\n      add\n        /* \"#utility.yul\":5746:5778   */\n      calldataload\n        /* \"#utility.yul\":5805:5823   */\n      0xffffffffffffffff\n        /* \"#utility.yul\":5797:5803   */\n      dup2\n        /* \"#utility.yul\":5794:5824   */\n      gt\n        /* \"#utility.yul\":5791:5908   */\n      iszero\n      tag_144\n      jumpi\n        /* \"#utility.yul\":5827:5906   */\n      tag_145\n      tag_39\n      jump\t// in\n    tag_145:\n        /* \"#utility.yul\":5791:5908   */\n    tag_144:\n        /* \"#utility.yul\":5932:5995   */\n      tag_146\n        /* \"#utility.yul\":5987:5994   */\n      dup7\n        /* \"#utility.yul\":5978:5984   */\n      dup3\n        /* \"#utility.yul\":5967:5976   */\n      dup8\n        /* \"#utility.yul\":5963:5985   */\n      add\n        /* \"#utility.yul\":5932:5995   */\n      tag_60\n      jump\t// in\n    tag_146:\n        /* \"#utility.yul\":5922:5995   */\n      swap3\n      pop\n        /* \"#utility.yul\":5717:6005   */\n      pop\n        /* \"#utility.yul\":6072:6074   */\n      0x40\n        /* \"#utility.yul\":6061:6070   */\n      dup5\n        /* \"#utility.yul\":6057:6075   */\n      add\n        /* \"#utility.yul\":6044:6076   */\n      calldataload\n        /* \"#utility.yul\":6103:6121   */\n      0xffffffffffffffff\n        /* \"#utility.yul\":6095:6101   */\n      dup2\n        /* \"#utility.yul\":6092:6122   */\n      gt\n        /* \"#utility.yul\":6089:6206   */\n      iszero\n      tag_147\n      jumpi\n        /* \"#utility.yul\":6125:6204   */\n      tag_148\n      tag_39\n      jump\t// in\n    tag_148:\n        /* \"#utility.yul\":6089:6206   */\n    tag_147:\n        /* \"#utility.yul\":6230:6293   */\n      tag_149\n        /* \"#utility.yul\":6285:6292   */\n      dup7\n        /* \"#utility.yul\":6276:6282   */\n      dup3\n        /* \"#utility.yul\":6265:6274   */\n      dup8\n        /* \"#utility.yul\":6261:6283   */\n      add\n        /* \"#utility.yul\":6230:6293   */\n      tag_60\n      jump\t// in\n    tag_149:\n        /* \"#utility.yul\":6220:6293   */\n      swap2\n      pop\n        /* \"#utility.yul\":6015:6303   */\n      pop\n        /* \"#utility.yul\":5331:6310   */\n      swap3\n      pop\n      swap3\n      pop\n      swap3\n      jump\t// out\n        /* \"#utility.yul\":6316:6496   */\n    tag_61:\n        /* \"#utility.yul\":6364:6441   */\n      0x4e487b7100000000000000000000000000000000000000000000000000000000\n        /* \"#utility.yul\":6361:6362   */\n      0x00\n        /* \"#utility.yul\":6354:6442   */\n      mstore\n        /* \"#utility.yul\":6461:6465   */\n      0x22\n        /* \"#utility.yul\":6458:6459   */\n      0x04\n        /* \"#utility.yul\":6451:6466   */\n      mstore\n        /* \"#utility.yul\":6485:6489   */\n      0x24\n        /* \"#utility.yul\":6482:6483   */\n      0x00\n        /* \"#utility.yul\":6475:6490   */\n      revert\n        /* \"#utility.yul\":6502:6822   */\n    tag_20:\n        /* \"#utility.yul\":6546:6552   */\n      0x00\n        /* \"#utility.yul\":6583:6584   */\n      0x02\n        /* \"#utility.yul\":6577:6581   */\n      dup3\n        /* \"#utility.yul\":6573:6585   */\n      div\n        /* \"#utility.yul\":6563:6585   */\n      swap1\n      pop\n        /* \"#utility.yul\":6630:6631   */\n      0x01\n        /* \"#utility.yul\":6624:6628   */\n      dup3\n        /* \"#utility.yul\":6620:6632   */\n      and\n        /* \"#utility.yul\":6651:6669   */\n      dup1\n        /* \"#utility.yul\":6641:6722   */\n      tag_152\n      jumpi\n        /* \"#utility.yul\":6707:6711   */\n      0x7f\n        /* \"#utility.yul\":6699:6705   */\n      dup3\n        /* \"#utility.yul\":6695:6712   */\n      and\n        /* \"#utility.yul\":6685:6712   */\n      swap2\n      pop\n        /* \"#utility.yul\":6641:6722   */\n    tag_152:\n        /* \"#utility.yul\":6769:6771   */\n      0x20\n        /* \"#utility.yul\":6761:6767   */\n      dup3\n        /* \"#utility.yul\":6758:6772   */\n      lt\n        /* \"#utility.yul\":6738:6756   */\n      dup2\n        /* \"#utility.yul\":6735:6773   */\n      sub\n        /* \"#utility.yul\":6732:6816   */\n      tag_153\n      jumpi\n        /* \"#utility.yul\":6788:6806   */\n      tag_154\n      tag_61\n      jump\t// in\n    tag_154:\n        /* \"#utility.yul\":6732:6816   */\n    tag_153:\n        /* \"#utility.yul\":6553:6822   */\n      pop\n        /* \"#utility.yul\":6502:6822   */\n      swap2\n      swap1\n      pop\n      jump\t// out\n        /* \"#utility.yul\":6828:6969   */\n    tag_62:\n        /* \"#utility.yul\":6877:6881   */\n      0x00\n        /* \"#utility.yul\":6900:6903   */\n      dup2\n        /* \"#utility.yul\":6892:6903   */\n      swap1\n      pop\n        /* \"#utility.yul\":6923:6926   */\n      dup2\n        /* \"#utility.yul\":6920:6921   */\n      0x00\n        /* \"#utility.yul\":6913:6927   */\n      mstore\n        /* \"#utility.yul\":6957:6961   */\n      0x20\n        /* \"#utility.yul\":6954:6955   */\n      0x00\n        /* \"#utility.yul\":6944:6962   */\n      keccak256\n        /* \"#utility.yul\":6936:6962   */\n      swap1\n      pop\n        /* \"#utility.yul\":6828:6969   */\n      swap2\n      swap1\n      pop\n      jump\t// out\n        /* \"#utility.yul\":6975:7068   */\n    tag_63:\n        /* \"#utility.yul\":7012:7018   */\n      0x00\n        /* \"#utility.yul\":7059:7061   */\n      0x20\n        /* \"#utility.yul\":7054:7056   */\n      0x1f\n        /* \"#utility.yul\":7047:7052   */\n      dup4\n        /* \"#utility.yul\":7043:7057   */\n      add\n        /* \"#utility.yul\":7039:7062   */\n      div\n        /* \"#utility.yul\":7029:7062   */\n      swap1\n      pop\n        /* \"#utility.yul\":6975:7068   */\n      swap2\n      swap1\n      pop\n      jump\t// out\n        /* \"#utility.yul\":7074:7181   */\n    tag_64:\n        /* \"#utility.yul\":7118:7126   */\n      0x00\n        /* \"#utility.yul\":7168:7173   */\n      dup3\n        /* \"#utility.yul\":7162:7166   */\n      dup3\n        /* \"#utility.yul\":7158:7174   */\n      shl\n        /* \"#utility.yul\":7137:7174   */\n      swap1\n      pop\n        /* \"#utility.yul\":7074:7181   */\n      swap3\n      swap2\n      pop\n      pop\n      jump\t// out\n        /* \"#utility.yul\":7187:7580   */\n    tag_65:\n        /* \"#utility.yul\":7256:7262   */\n      0x00\n        /* \"#utility.yul\":7306:7307   */\n      0x08\n        /* \"#utility.yul\":7294:7304   */\n      dup4\n        /* \"#utility.yul\":7290:7308   */\n      mul\n        /* \"#utility.yul\":7329:7426   */\n      tag_159\n        /* \"#utility.yul\":7359:7425   */\n      0xffffffffffffffffffffffffffffffffffffffffffffffffffffffffffffffff\n        /* \"#utility.yul\":7348:7357   */\n      dup3\n        /* \"#utility.yul\":7329:7426   */\n      tag_64\n      jump\t// in\n    tag_159:\n        /* \"#utility.yul\":7447:7486   */\n      tag_160\n        /* \"#utility.yul\":7477:7485   */\n      dup7\n        /* \"#utility.yul\":7466:7475   */\n      dup4\n        /* \"#utility.yul\":7447:7486   */\n      tag_64\n      jump\t// in\n    tag_160:\n        /* \"#utility.yul\":7435:7486   */\n      swap6\n      pop\n        /* \"#utility.yul\":7519:7523   */\n      dup1\n        /* \"#utility.yul\":7515:7524   */\n      not\n        /* \"#utility.yul\":7508:7513   */\n      dup5\n        /* \"#utility.yul\":7504:7525   */\n      and\n        /* \"#utility.yul\":7495:7525   */\n      swap4\n      pop\n        /* \"#utility.yul\":7568:7572   */\n      dup1\n        /* \"#utility.yul\":7558:7566   */\n      dup7\n        /* \"#utility.yul\":7554:7573   */\n      and\n        /* \"#utility.yul\":7547:7552   */\n      dup5\n        /* \"#utility.yul\":7544:7574   */\n      or\n        /* \"#utility.yul\":7534:7574   */\n      swap3\n      pop\n        /* \"#utility.yul\":7263:7580   */\n      pop\n      pop\n        /* \"#utility.yul\":7187:7580   */\n      swap4\n      swap3\n      pop\n      pop\n      pop\n      jump\t// out\n        /* \"#utility.yul\":7586:7646   */\n    tag_66:\n        /* \"#utility.yul\":7614:7617   */\n      0x00\n        /* \"#utility.yul\":7635:7640   */\n      dup2\n        /* \"#utility.yul\":7628:7640   */\n      swap1\n      pop\n        /* \"#utility.yul\":7586:7646   */\n      swap2\n      swap1\n      pop\n      jump\t// out\n        /* \"#utility.yul\":7652:7794   */\n    tag_67:\n        /* \"#utility.yul\":7702:7711   */\n      0x00\n        /* \"#utility.yul\":7735:7788   */\n      tag_163\n        /* \"#utility.yul\":7753:7787   */\n      tag_164\n        /* \"#utility.yul\":7762:7786   */\n      tag_165\n        /* \"#utility.yul\":7780:7785   */\n      dup5\n        /* \"#utility.yul\":7762:7786   */\n      tag_44\n      jump\t// in\n    tag_165:\n        /* \"#utility.yul\":7753:7787   */\n      tag_66\n      jump\t// in\n    tag_164:\n        /* \"#utility.yul\":7735:7788   */\n      tag_44\n      jump\t// in\n    tag_163:\n        /* \"#utility.yul\":7722:7788   */\n      swap1\n      pop\n        /* \"#utility.yul\":7652:7794   */\n      swap2\n      swap1\n      pop\n      jump\t// out\n        /* \"#utility.yul\":7800:7875   */\n    tag_68:\n        /* \"#utility.yul\":7843:7846   */\n      0x00\n        /* \"#utility.yul\":7864:7869   */\n      dup2\n        /* \"#utility.yul\":7857:7869   */\n      swap1\n      pop\n        /* \"#utility.yul\":7800:7875   */\n      swap2\n      swap1\n      pop\n      jump\t// out\n        /* \"#utility.yul\":7881:8150   */\n    tag_69:\n        /* \"#utility.yul\":7991:8030   */\n      tag_168\n        /* \"#utility.yul\":8022:8029   */\n      dup4\n        /* \"#utility.yul\":7991:8030   */\n      tag_67\n      jump\t// in\n    tag_168:\n        /* \"#utility.yul\":8052:8143   */\n      tag_169\n        /* \"#utility.yul\":8101:8142   */\n      tag_170\n        /* \"#utility.yul\":8125:8141   */\n      dup3\n        /* \"#utility.yul\":8101:8142   */\n      tag_68\n      jump\t// in\n    tag_170:\n        /* \"#utility.yul\":8093:8099   */\n      dup5\n        /* \"#utility.yul\":8086:8090   */\n      dup5\n        /* \"#utility.yul\":8080:8091   */\n      sload\n        /* \"#utility.yul\":8052:8143   */\n      tag_65\n      jump\t// in\n    tag_169:\n        /* \"#utility.yul\":8046:8050   */\n      dup3\n        /* \"#utility.yul\":8039:8144   */\n      sstore\n        /* \"#utility.yul\":7957:8150   */\n      pop\n        /* \"#utility.yul\":7881:8150   */\n      pop\n      pop\n      pop\n      jump\t// out\n        /* \"#utility.yul\":8156:8229   */\n    tag_70:\n        /* \"#utility.yul\":8201:8204   */\n      0x00\n        /* \"#utility.yul\":8156:8229   */\n      swap1\n      jump\t// out\n        /* \"#utility.yul\":8235:8424   */\n    tag_71:\n        /* \"#utility.yul\":8312:8344   */\n      tag_173\n      tag_70\n      jump\t// in\n    tag_173:\n        /* \"#utility.yul\":8353:8418   */\n      tag_174\n        /* \"#utility.yul\":8411:8417   */\n      dup2\n        /* \"#utility.yul\":8403:8409   */\n      dup5\n        /* \"#utility.yul\":8397:8401   */\n      dup5\n        /* \"#utility.yul\":8353:8418   */\n      tag_69\n      jump\t// in\n    tag_174:\n        /* \"#utility.yul\":8288:8424   */\n      pop\n        /* \"#utility.yul\":8235:8424   */\n      pop\n      pop\n      jump\t// out\n        /* \"#utility.yul\":8430:8616   */\n    tag_72:\n        /* \"#utility.yul\":8490:8610   */\n    tag_176:\n        /* \"#utility.yul\":8507:8510   */\n      dup2\n        /* \"#utility.yul\":8500:8505   */\n      dup2\n        /* \"#utility.yul\":8497:8511   */\n      lt\n        /* \"#utility.yul\":8490:8610   */\n      iszero\n      tag_178\n      jumpi\n        /* \"#utility.yul\":8561:8600   */\n      tag_179\n        /* \"#utility.yul\":8598:8599   */\n      0x00\n        /* \"#utility.yul\":8591:8596   */\n      dup3\n        /* \"#utility.yul\":8561:8600   */\n      tag_71\n      jump\t// in\n    tag_179:\n        /* \"#utility.yul\":8534:8535   */\n      0x01\n        /* \"#utility.yul\":8527:8532   */\n      dup2\n        /* \"#utility.yul\":8523:8536   */\n      add\n        /* \"#utility.yul\":8514:8536   */\n      swap1\n      pop\n        /* \"#utility.yul\":8490:8610   */\n      jump(tag_176)\n    tag_178:\n        /* \"#utility.yul\":8430:8616   */\n      pop\n      pop\n      jump\t// out\n        /* \"#utility.yul\":8622:9165   */\n    tag_73:\n        /* \"#utility.yul\":8723:8725   */\n      0x1f\n        /* \"#utility.yul\":8718:8721   */\n      dup3\n        /* \"#utility.yul\":8715:8726   */\n      gt\n        /* \"#utility.yul\":8712:9158   */\n      iszero\n      tag_181\n      jumpi\n        /* \"#utility.yul\":8757:8795   */\n      tag_182\n        /* \"#utility.yul\":8789:8794   */\n      dup2\n        /* \"#utility.yul\":8757:8795   */\n      tag_62\n      jump\t// in\n    tag_182:\n        /* \"#utility.yul\":8841:8870   */\n      tag_183\n        /* \"#utility.yul\":8859:8869   */\n      dup5\n        /* \"#utility.yul\":8841:8870   */\n      tag_63\n      jump\t// in\n    tag_183:\n        /* \"#utility.yul\":8831:8839   */\n      dup2\n        /* \"#utility.yul\":8827:8871   */\n      add\n        /* \"#utility.yul\":9024:9026   */\n      0x20\n        /* \"#utility.yul\":9012:9022   */\n      dup6\n        /* \"#utility.yul\":9009:9027   */\n      lt\n        /* \"#utility.yul\":9006:9055   */\n      iszero\n      tag_184\n      jumpi\n        /* \"#utility.yul\":9045:9053   */\n      dup2\n        /* \"#utility.yul\":9030:9053   */\n      swap1\n      pop\n        /* \"#utility.yul\":9006:9055   */\n    tag_184:\n        /* \"#utility.yul\":9068:9148   */\n      tag_185\n        /* \"#utility.yul\":9124:9146   */\n      tag_186\n        /* \"#utility.yul\":9142:9145   */\n      dup6\n        /* \"#utility.yul\":9124:9146   */\n      tag_63\n      jump\t// in\n    tag_186:\n        /* \"#utility.yul\":9114:9122   */\n      dup4\n        /* \"#utility.yul\":9110:9147   */\n      add\n        /* \"#utility.yul\":9097:9108   */\n      dup3\n        /* \"#utility.yul\":9068:9148   */\n      tag_72\n      jump\t// in\n    tag_185:\n        /* \"#utility.yul\":8727:9158   */\n      pop\n      pop\n        /* \"#utility.yul\":8712:9158   */\n    tag_181:\n        /* \"#utility.yul\":8622:9165   */\n      pop\n      pop\n      pop\n      jump\t// out\n        /* \"#utility.yul\":9171:9288   */\n    tag_74:\n        /* \"#utility.yul\":9225:9233   */\n      0x00\n        /* \"#utility.yul\":9275:9280   */\n      dup3\n        /* \"#utility.yul\":9269:9273   */\n      dup3\n        /* \"#utility.yul\":9265:9281   */\n      shr\n        /* \"#utility.yul\":9244:9281   */\n      swap1\n      pop\n        /* \"#utility.yul\":9171:9288   */\n      swap3\n      swap2\n      pop\n      pop\n      jump\t// out\n        /* \"#utility.yul\":9294:9463   */\n    tag_75:\n        /* \"#utility.yul\":9338:9344   */\n      0x00\n        /* \"#utility.yul\":9371:9422   */\n      tag_189\n        /* \"#utility.yul\":9419:9420   */\n      0x00\n        /* \"#utility.yul\":9415:9421   */\n      not\n        /* \"#utility.yul\":9407:9412   */\n      dup5\n        /* \"#utility.yul\":9404:9405   */\n      0x08\n        /* \"#utility.yul\":9400:9413   */\n      mul\n        /* \"#utility.yul\":9371:9422   */\n      tag_74\n      jump\t// in\n    tag_189:\n        /* \"#utility.yul\":9367:9423   */\n      not\n        /* \"#utility.yul\":9452:9456   */\n      dup1\n        /* \"#utility.yul\":9446:9450   */\n      dup4\n        /* \"#utility.yul\":9442:9457   */\n      and\n        /* \"#utility.yul\":9432:9457   */\n      swap2\n      pop\n        /* \"#utility.yul\":9345:9463   */\n      pop\n        /* \"#utility.yul\":9294:9463   */\n      swap3\n      swap2\n      pop\n      pop\n      jump\t// out\n        /* \"#utility.yul\":9468:9763   */\n    tag_76:\n        /* \"#utility.yul\":9544:9548   */\n      0x00\n        /* \"#utility.yul\":9690:9719   */\n      tag_191\n        /* \"#utility.yul\":9715:9718   */\n      dup4\n        /* \"#utility.yul\":9709:9713   */\n      dup4\n        /* \"#utility.yul\":9690:9719   */\n      tag_75\n      jump\t// in\n    tag_191:\n        /* \"#utility.yul\":9682:9719   */\n      swap2\n      pop\n        /* \"#utility.yul\":9752:9755   */\n      dup3\n        /* \"#utility.yul\":9749:9750   */\n      0x02\n        /* \"#utility.yul\":9745:9756   */\n      mul\n        /* \"#utility.yul\":9739:9743   */\n      dup3\n        /* \"#utility.yul\":9736:9757   */\n      or\n        /* \"#utility.yul\":9728:9757   */\n      swap1\n      pop\n        /* \"#utility.yul\":9468:9763   */\n      swap3\n      swap2\n      pop\n      pop\n      jump\t// out\n        /* \"#utility.yul\":9768:11163   */\n    tag_32:\n        /* \"#utility.yul\":9885:9922   */\n      tag_193\n        /* \"#utility.yul\":9918:9921   */\n      dup3\n        /* \"#utility.yul\":9885:9922   */\n      tag_47\n      jump\t// in\n    tag_193:\n        /* \"#utility.yul\":9987:10005   */\n      0xffffffffffffffff\n        /* \"#utility.yul\":9979:9985   */\n      dup2\n        /* \"#utility.yul\":9976:10006   */\n      gt\n        /* \"#utility.yul\":9973:10029   */\n      iszero\n      tag_194\n      jumpi\n        /* \"#utility.yul\":10009:10027   */\n      tag_195\n      tag_54\n      jump\t// in\n    tag_195:\n        /* \"#utility.yul\":9973:10029   */\n    tag_194:\n        /* \"#utility.yul\":10053:10091   */\n      tag_196\n        /* \"#utility.yul\":10085:10089   */\n      dup3\n        /* \"#utility.yul\":10079:10090   */\n      sload\n        /* \"#utility.yul\":10053:10091   */\n      tag_20\n      jump\t// in\n    tag_196:\n        /* \"#utility.yul\":10138:10205   */\n      tag_197\n        /* \"#utility.yul\":10198:10204   */\n      dup3\n        /* \"#utility.yul\":10190:10196   */\n      dup3\n        /* \"#utility.yul\":10184:10188   */\n      dup6\n        /* \"#utility.yul\":10138:10205   */\n      tag_73\n      jump\t// in\n    tag_197:\n        /* \"#utility.yul\":10232:10233   */\n      0x00\n        /* \"#utility.yul\":10256:10260   */\n      0x20\n        /* \"#utility.yul\":10243:10260   */\n      swap1\n      pop\n        /* \"#utility.yul\":10288:10290   */\n      0x1f\n        /* \"#utility.yul\":10280:10286   */\n      dup4\n        /* \"#utility.yul\":10277:10291   */\n      gt\n        /* \"#utility.yul\":10305:10306   */\n      0x01\n        /* \"#utility.yul\":10300:10918   */\n      dup2\n      eq\n      tag_199\n      jumpi\n        /* \"#utility.yul\":10962:10963   */\n      0x00\n        /* \"#utility.yul\":10979:10985   */\n      dup5\n        /* \"#utility.yul\":10976:11053   */\n      iszero\n      tag_200\n      jumpi\n        /* \"#utility.yul\":11028:11037   */\n      dup3\n        /* \"#utility.yul\":11023:11026   */\n      dup8\n        /* \"#utility.yul\":11019:11038   */\n      add\n        /* \"#utility.yul\":11013:11039   */\n      mload\n        /* \"#utility.yul\":11004:11039   */\n      swap1\n      pop\n        /* \"#utility.yul\":10976:11053   */\n    tag_200:\n        /* \"#utility.yul\":11079:11146   */\n      tag_201\n        /* \"#utility.yul\":11139:11145   */\n      dup6\n        /* \"#utility.yul\":11132:11137   */\n      dup3\n        /* \"#utility.yul\":11079:11146   */\n      tag_76\n      jump\t// in\n    tag_201:\n        /* \"#utility.yul\":11073:11077   */\n      dup7\n        /* \"#utility.yul\":11066:11147   */\n      sstore\n        /* \"#utility.yul\":10935:11157   */\n      pop\n        /* \"#utility.yul\":10270:11157   */\n      jump(tag_198)\n        /* \"#utility.yul\":10300:10918   */\n    tag_199:\n        /* \"#utility.yul\":10352:10356   */\n      0x1f\n        /* \"#utility.yul\":10348:10357   */\n      not\n        /* \"#utility.yul\":10340:10346   */\n      dup5\n        /* \"#utility.yul\":10336:10358   */\n      and\n        /* \"#utility.yul\":10386:10423   */\n      tag_202\n        /* \"#utility.yul\":10418:10422   */\n      dup7\n        /* \"#utility.yul\":10386:10423   */\n      tag_62\n      jump\t// in\n    tag_202:\n        /* \"#utility.yul\":10445:10446   */\n      0x00\n        /* \"#utility.yul\":10459:10667   */\n    tag_203:\n        /* \"#utility.yul\":10473:10480   */\n      dup3\n        /* \"#utility.yul\":10470:10471   */\n      dup2\n        /* \"#utility.yul\":10467:10481   */\n      lt\n        /* \"#utility.yul\":10459:10667   */\n      iszero\n      tag_205\n      jumpi\n        /* \"#utility.yul\":10552:10561   */\n      dup5\n        /* \"#utility.yul\":10547:10550   */\n      dup10\n        /* \"#utility.yul\":10543:10562   */\n      add\n        /* \"#utility.yul\":10537:10563   */\n      mload\n        /* \"#utility.yul\":10529:10535   */\n      dup3\n        /* \"#utility.yul\":10522:10564   */\n      sstore\n        /* \"#utility.yul\":10603:10604   */\n      0x01\n        /* \"#utility.yul\":10595:10601   */\n      dup3\n        /* \"#utility.yul\":10591:10605   */\n      add\n        /* \"#utility.yul\":10581:10605   */\n      swap2\n      pop\n        /* \"#utility.yul\":10650:10652   */\n      0x20\n        /* \"#utility.yul\":10639:10648   */\n      dup6\n        /* \"#utility.yul\":10635:10653   */\n      add\n        /* \"#utility.yul\":10622:10653   */\n      swap5\n      pop\n        /* \"#utility.yul\":10496:10500   */\n      0x20\n        /* \"#utility.yul\":10493:10494   */\n      dup2\n        /* \"#utility.yul\":10489:10501   */\n      add\n        /* \"#utility.yul\":10484:10501   */\n      swap1\n      pop\n        /* \"#utility.yul\":10459:10667   */\n      jump(tag_203)\n    tag_205:\n        /* \"#utility.yul\":10695:10701   */\n      dup7\n        /* \"#utility.yul\":10686:10693   */\n      dup4\n        /* \"#utility.yul\":10683:10702   */\n      lt\n        /* \"#utility.yul\":10680:10859   */\n      iszero\n      tag_206\n      jumpi\n        /* \"#utility.yul\":10753:10762   */\n      dup5\n        /* \"#utility.yul\":10748:10751   */\n      dup10\n        /* \"#utility.yul\":10744:10763   */\n      add\n        /* \"#utility.yul\":10738:10764   */\n      mload\n        /* \"#utility.yul\":10796:10844   */\n      tag_207\n        /* \"#utility.yul\":10838:10842   */\n      0x1f\n        /* \"#utility.yul\":10830:10836   */\n      dup10\n        /* \"#utility.yul\":10826:10843   */\n      and\n        /* \"#utility.yul\":10815:10824   */\n      dup3\n        /* \"#utility.yul\":10796:10844   */\n      tag_75\n      jump\t// in\n    tag_207:\n        /* \"#utility.yul\":10788:10794   */\n      dup4\n        /* \"#utility.yul\":10781:10845   */\n      sstore\n        /* \"#utility.yul\":10703:10859   */\n      pop\n        /* \"#utility.yul\":10680:10859   */\n    tag_206:\n        /* \"#utility.yul\":10905:10906   */\n      0x01\n        /* \"#utility.yul\":10901:10902   */\n      0x02\n        /* \"#utility.yul\":10893:10899   */\n      dup9\n        /* \"#utility.yul\":10889:10903   */\n      mul\n        /* \"#utility.yul\":10885:10907   */\n      add\n        /* \"#utility.yul\":10879:10883   */\n      dup9\n        /* \"#utility.yul\":10872:10908   */\n      sstore\n        /* \"#utility.yul\":10307:10918   */\n      pop\n      pop\n      pop\n        /* \"#utility.yul\":10270:11157   */\n    tag_198:\n      pop\n        /* \"#utility.yul\":9860:11163   */\n      pop\n      pop\n      pop\n        /* \"#utility.yul\":9768:11163   */\n      pop\n      pop\n      jump\t// out\n\n    auxdata: 0xa2646970667358221220fa7cf92b14a003a8384a3726921d1639bf2d08d8b9da2b99ec1648180cdc614564736f6c63430008120033\n}\n",
				"bytecode": {
					"linkReferences": {},
					"object": "608060405234801561001057600080fd5b50610967806100206000396000f3fe608060405234801561001057600080fd5b50600436106100415760003560e01c806311f729901461004657806387eb54fe14610077578063f40f48c914610093575b600080fd5b610060600480360381019061005b919061038c565b6100af565b60405161006e92919061045c565b60405180910390f35b610091600480360381019061008c91906105c8565b6101f0565b005b6100ad60048036038101906100a891906105c8565b610289565b005b6001602052816000526040600020602052806000526040600020600091509150508060000180546100df90610682565b80601f016020809104026020016040519081016040528092919081815260200182805461010b90610682565b80156101585780601f1061012d57610100808354040283529160200191610158565b820191906000526020600020905b81548152906001019060200180831161013b57829003601f168201915b50505050509080600101805461016d90610682565b80601f016020809104026020016040519081016040528092919081815260200182805461019990610682565b80156101e65780601f106101bb576101008083540402835291602001916101e6565b820191906000526020600020905b8154815290600101906020018083116101c957829003601f168201915b5050505050905082565b604051806040016040528083815260200182815250600160003373ffffffffffffffffffffffffffffffffffffffff1673ffffffffffffffffffffffffffffffffffffffff1681526020019081526020016000206000858152602001908152602001600020600082015181600001908161026a919061085f565b506020820151816001019081610280919061085f565b50905050505050565b60405180604001604052808381526020018281525060008085815260200190815260200160002060008201518160000190816102c5919061085f565b5060208201518160010190816102db919061085f565b50905050505050565b6000604051905090565b600080fd5b600080fd5b600073ffffffffffffffffffffffffffffffffffffffff82169050919050565b6000610323826102f8565b9050919050565b61033381610318565b811461033e57600080fd5b50565b6000813590506103508161032a565b92915050565b6000819050919050565b61036981610356565b811461037457600080fd5b50565b60008135905061038681610360565b92915050565b600080604083850312156103a3576103a26102ee565b5b60006103b185828601610341565b92505060206103c285828601610377565b9150509250929050565b600081519050919050565b600082825260208201905092915050565b60005b838110156104065780820151818401526020810190506103eb565b60008484015250505050565b6000601f19601f8301169050919050565b600061042e826103cc565b61043881856103d7565b93506104488185602086016103e8565b61045181610412565b840191505092915050565b600060408201905081810360008301526104768185610423565b9050818103602083015261048a8184610423565b90509392505050565b600080fd5b600080fd5b7f4e487b7100000000000000000000000000000000000000000000000000000000600052604160045260246000fd5b6104d582610412565b810181811067ffffffffffffffff821117156104f4576104f361049d565b5b80604052505050565b60006105076102e4565b905061051382826104cc565b919050565b600067ffffffffffffffff8211156105335761053261049d565b5b61053c82610412565b9050602081019050919050565b82818337600083830152505050565b600061056b61056684610518565b6104fd565b90508281526020810184848401111561058757610586610498565b5b610592848285610549565b509392505050565b600082601f8301126105af576105ae610493565b5b81356105bf848260208601610558565b91505092915050565b6000806000606084860312156105e1576105e06102ee565b5b60006105ef86828701610377565b935050602084013567ffffffffffffffff8111156106105761060f6102f3565b5b61061c8682870161059a565b925050604084013567ffffffffffffffff81111561063d5761063c6102f3565b5b6106498682870161059a565b9150509250925092565b7f4e487b7100000000000000000000000000000000000000000000000000000000600052602260045260246000fd5b6000600282049050600182168061069a57607f821691505b6020821081036106ad576106ac610653565b5b50919050565b60008190508160005260206000209050919050565b60006020601f8301049050919050565b600082821b905092915050565b6000600883026107157fffffffffffffffffffffffffffffffffffffffffffffffffffffffffffffffff826106d8565b61071f86836106d8565b95508019841693508086168417925050509392505050565b6000819050919050565b600061075c61075761075284610356565b610737565b610356565b9050919050565b6000819050919050565b61077683610741565b61078a61078282610763565b8484546106e5565b825550505050565b600090565b61079f610792565b6107aa81848461076d565b505050565b5b818110156107ce576107c3600082610797565b6001810190506107b0565b5050565b601f821115610813576107e4816106b3565b6107ed846106c8565b810160208510156107fc578190505b610810610808856106c8565b8301826107af565b50505b505050565b600082821c905092915050565b600061083660001984600802610818565b1980831691505092915050565b600061084f8383610825565b9150826002028217905092915050565b610868826103cc565b67ffffffffffffffff8111156108815761088061049d565b5b61088b8254610682565b6108968282856107d2565b600060209050601f8311600181146108c957600084156108b7578287015190505b6108c18582610843565b865550610929565b601f1984166108d7866106b3565b60005b828110156108ff578489015182556001820191506020850194506020810190506108da565b8683101561091c5784890151610918601f891682610825565b8355505b6001600288020188555050505b50505050505056fea2646970667358221220fa7cf92b14a003a8384a3726921d1639bf2d08d8b9da2b99ec1648180cdc614564736f6c63430008120033",
					"opcodes": "PUSH1 0x80 PUSH1 0x40 MSTORE CALLVALUE DUP1 ISZERO PUSH2 0x10 JUMPI PUSH1 0x0 DUP1 REVERT JUMPDEST POP PUSH2 0x967 DUP1 PUSH2 0x20 PUSH1 0x0 CODECOPY PUSH1 0x0 RETURN INVALID PUSH1 0x80 PUSH1 0x40 MSTORE CALLVALUE DUP1 ISZERO PUSH2 0x10 JUMPI PUSH1 0x0 DUP1 REVERT JUMPDEST POP PUSH1 0x4 CALLDATASIZE LT PUSH2 0x41 JUMPI PUSH1 0x0 CALLDATALOAD PUSH1 0xE0 SHR DUP1 PUSH4 0x11F72990 EQ PUSH2 0x46 JUMPI DUP1 PUSH4 0x87EB54FE EQ PUSH2 0x77 JUMPI DUP1 PUSH4 0xF40F48C9 EQ PUSH2 0x93 JUMPI JUMPDEST PUSH1 0x0 DUP1 REVERT JUMPDEST PUSH2 0x60 PUSH1 0x4 DUP1 CALLDATASIZE SUB DUP2 ADD SWAP1 PUSH2 0x5B SWAP2 SWAP1 PUSH2 0x38C JUMP JUMPDEST PUSH2 0xAF JUMP JUMPDEST PUSH1 0x40 MLOAD PUSH2 0x6E SWAP3 SWAP2 SWAP1 PUSH2 0x45C JUMP JUMPDEST PUSH1 0x40 MLOAD DUP1 SWAP2 SUB SWAP1 RETURN JUMPDEST PUSH2 0x91 PUSH1 0x4 DUP1 CALLDATASIZE SUB DUP2 ADD SWAP1 PUSH2 0x8C SWAP2 SWAP1 PUSH2 0x5C8 JUMP JUMPDEST PUSH2 0x1F0 JUMP JUMPDEST STOP JUMPDEST PUSH2 0xAD PUSH1 0x4 DUP1 CALLDATASIZE SUB DUP2 ADD SWAP1 PUSH2 0xA8 SWAP2 SWAP1 PUSH2 0x5C8 JUMP JUMPDEST PUSH2 0x289 JUMP JUMPDEST STOP JUMPDEST PUSH1 0x1 PUSH1 0x20 MSTORE DUP2 PUSH1 0x0 MSTORE PUSH1 0x40 PUSH1 0x0 KECCAK256 PUSH1 0x20 MSTORE DUP1 PUSH1 0x0 MSTORE PUSH1 0x40 PUSH1 0x0 KECCAK256 PUSH1 0x0 SWAP2 POP SWAP2 POP POP DUP1 PUSH1 0x0 ADD DUP1 SLOAD PUSH2 0xDF SWAP1 PUSH2 0x682 JUMP JUMPDEST DUP1 PUSH1 0x1F ADD PUSH1 0x20 DUP1 SWAP2 DIV MUL PUSH1 0x20 ADD PUSH1 0x40 MLOAD SWAP1 DUP2 ADD PUSH1 0x40 MSTORE DUP1 SWAP3 SWAP2 SWAP1 DUP2 DUP2 MSTORE PUSH1 0x20 ADD DUP3 DUP1 SLOAD PUSH2 0x10B SWAP1 PUSH2 0x682 JUMP JUMPDEST DUP1 ISZERO PUSH2 0x158 JUMPI DUP1 PUSH1 0x1F LT PUSH2 0x12D JUMPI PUSH2 0x100 DUP1 DUP4 SLOAD DIV MUL DUP4 MSTORE SWAP2 PUSH1 0x20 ADD SWAP2 PUSH2 0x158 JUMP JUMPDEST DUP3 ADD SWAP2 SWAP1 PUSH1 0x0 MSTORE PUSH1 0x20 PUSH1 0x0 KECCAK256 SWAP1 JUMPDEST DUP2 SLOAD DUP2 MSTORE SWAP1 PUSH1 0x1 ADD SWAP1 PUSH1 0x20 ADD DUP1 DUP4 GT PUSH2 0x13B JUMPI DUP3 SWAP1 SUB PUSH1 0x1F AND DUP3 ADD SWAP2 JUMPDEST POP POP POP POP POP SWAP1 DUP1 PUSH1 0x1 ADD DUP1 SLOAD PUSH2 0x16D SWAP1 PUSH2 0x682 JUMP JUMPDEST DUP1 PUSH1 0x1F ADD PUSH1 0x20 DUP1 SWAP2 DIV MUL PUSH1 0x20 ADD PUSH1 0x40 MLOAD SWAP1 DUP2 ADD PUSH1 0x40 MSTORE DUP1 SWAP3 SWAP2 SWAP1 DUP2 DUP2 MSTORE PUSH1 0x20 ADD DUP3 DUP1 SLOAD PUSH2 0x199 SWAP1 PUSH2 0x682 JUMP JUMPDEST DUP1 ISZERO PUSH2 0x1E6 JUMPI DUP1 PUSH1 0x1F LT PUSH2 0x1BB JUMPI PUSH2 0x100 DUP1 DUP4 SLOAD DIV MUL DUP4 MSTORE SWAP2 PUSH1 0x20 ADD SWAP2 PUSH2 0x1E6 JUMP JUMPDEST DUP3 ADD SWAP2 SWAP1 PUSH1 0x0 MSTORE PUSH1 0x20 PUSH1 0x0 KECCAK256 SWAP1 JUMPDEST DUP2 SLOAD DUP2 MSTORE SWAP1 PUSH1 0x1 ADD SWAP1 PUSH1 0x20 ADD DUP1 DUP4 GT PUSH2 0x1C9 JUMPI DUP3 SWAP1 SUB PUSH1 0x1F AND DUP3 ADD SWAP2 JUMPDEST POP POP POP POP POP SWAP1 POP DUP3 JUMP JUMPDEST PUSH1 0x40 MLOAD DUP1 PUSH1 0x40 ADD PUSH1 0x40 MSTORE DUP1 DUP4 DUP2 MSTORE PUSH1 0x20 ADD DUP3 DUP2 MSTORE POP PUSH1 0x1 PUSH1 0x0 CALLER PUSH20 0xFFFFFFFFFFFFFFFFFFFFFFFFFFFFFFFFFFFFFFFF AND PUSH20 0xFFFFFFFFFFFFFFFFFFFFFFFFFFFFFFFFFFFFFFFF AND DUP2 MSTORE PUSH1 0x20 ADD SWAP1 DUP2 MSTORE PUSH1 0x20 ADD PUSH1 0x0 KECCAK256 PUSH1 0x0 DUP6 DUP2 MSTORE PUSH1 0x20 ADD SWAP1 DUP2 MSTORE PUSH1 0x20 ADD PUSH1 0x0 KECCAK256 PUSH1 0x0 DUP3 ADD MLOAD DUP2 PUSH1 0x0 ADD SWAP1 DUP2 PUSH2 0x26A SWAP2 SWAP1 PUSH2 0x85F JUMP JUMPDEST POP PUSH1 0x20 DUP3 ADD MLOAD DUP2 PUSH1 0x1 ADD SWAP1 DUP2 PUSH2 0x280 SWAP2 SWAP1 PUSH2 0x85F JUMP JUMPDEST POP SWAP1 POP POP POP POP POP JUMP JUMPDEST PUSH1 0x40 MLOAD DUP1 PUSH1 0x40 ADD PUSH1 0x40 MSTORE DUP1 DUP4 DUP2 MSTORE PUSH1 0x20 ADD DUP3 DUP2 MSTORE POP PUSH1 0x0 DUP1 DUP6 DUP2 MSTORE PUSH1 0x20 ADD SWAP1 DUP2 MSTORE PUSH1 0x20 ADD PUSH1 0x0 KECCAK256 PUSH1 0x0 DUP3 ADD MLOAD DUP2 PUSH1 0x0 ADD SWAP1 DUP2 PUSH2 0x2C5 SWAP2 SWAP1 PUSH2 0x85F JUMP JUMPDEST POP PUSH1 0x20 DUP3 ADD MLOAD DUP2 PUSH1 0x1 ADD SWAP1 DUP2 PUSH2 0x2DB SWAP2 SWAP1 PUSH2 0x85F JUMP JUMPDEST POP SWAP1 POP POP POP POP POP JUMP JUMPDEST PUSH1 0x0 PUSH1 0x40 MLOAD SWAP1 POP SWAP1 JUMP JUMPDEST PUSH1 0x0 DUP1 REVERT JUMPDEST PUSH1 0x0 DUP1 REVERT JUMPDEST PUSH1 0x0 PUSH20 0xFFFFFFFFFFFFFFFFFFFFFFFFFFFFFFFFFFFFFFFF DUP3 AND SWAP1 POP SWAP2 SWAP1 POP JUMP JUMPDEST PUSH1 0x0 PUSH2 0x323 DUP3 PUSH2 0x2F8 JUMP JUMPDEST SWAP1 POP SWAP2 SWAP1 POP JUMP JUMPDEST PUSH2 0x333 DUP2 PUSH2 0x318 JUMP JUMPDEST DUP2 EQ PUSH2 0x33E JUMPI PUSH1 0x0 DUP1 REVERT JUMPDEST POP JUMP JUMPDEST PUSH1 0x0 DUP2 CALLDATALOAD SWAP1 POP PUSH2 0x350 DUP2 PUSH2 0x32A JUMP JUMPDEST SWAP3 SWAP2 POP POP JUMP JUMPDEST PUSH1 0x0 DUP2 SWAP1 POP SWAP2 SWAP1 POP JUMP JUMPDEST PUSH2 0x369 DUP2 PUSH2 0x356 JUMP JUMPDEST DUP2 EQ PUSH2 0x374 JUMPI PUSH1 0x0 DUP1 REVERT JUMPDEST POP JUMP JUMPDEST PUSH1 0x0 DUP2 CALLDATALOAD SWAP1 POP PUSH2 0x386 DUP2 PUSH2 0x360 JUMP JUMPDEST SWAP3 SWAP2 POP POP JUMP JUMPDEST PUSH1 0x0 DUP1 PUSH1 0x40 DUP4 DUP6 SUB SLT ISZERO PUSH2 0x3A3 JUMPI PUSH2 0x3A2 PUSH2 0x2EE JUMP JUMPDEST JUMPDEST PUSH1 0x0 PUSH2 0x3B1 DUP6 DUP3 DUP7 ADD PUSH2 0x341 JUMP JUMPDEST SWAP3 POP POP PUSH1 0x20 PUSH2 0x3C2 DUP6 DUP3 DUP7 ADD PUSH2 0x377 JUMP JUMPDEST SWAP2 POP POP SWAP3 POP SWAP3 SWAP1 POP JUMP JUMPDEST PUSH1 0x0 DUP2 MLOAD SWAP1 POP SWAP2 SWAP1 POP JUMP JUMPDEST PUSH1 0x0 DUP3 DUP3 MSTORE PUSH1 0x20 DUP3 ADD SWAP1 POP SWAP3 SWAP2 POP POP JUMP JUMPDEST PUSH1 0x0 JUMPDEST DUP4 DUP2 LT ISZERO PUSH2 0x406 JUMPI DUP1 DUP3 ADD MLOAD DUP2 DUP5 ADD MSTORE PUSH1 0x20 DUP2 ADD SWAP1 POP PUSH2 0x3EB JUMP JUMPDEST PUSH1 0x0 DUP5 DUP5 ADD MSTORE POP POP POP POP JUMP JUMPDEST PUSH1 0x0 PUSH1 0x1F NOT PUSH1 0x1F DUP4 ADD AND SWAP1 POP SWAP2 SWAP1 POP JUMP JUMPDEST PUSH1 0x0 PUSH2 0x42E DUP3 PUSH2 0x3CC JUMP JUMPDEST PUSH2 0x438 DUP2 DUP6 PUSH2 0x3D7 JUMP JUMPDEST SWAP4 POP PUSH2 0x448 DUP2 DUP6 PUSH1 0x20 DUP7 ADD PUSH2 0x3E8 JUMP JUMPDEST PUSH2 0x451 DUP2 PUSH2 0x412 JUMP JUMPDEST DUP5 ADD SWAP2 POP POP SWAP3 SWAP2 POP POP JUMP JUMPDEST PUSH1 0x0 PUSH1 0x40 DUP3 ADD SWAP1 POP DUP2 DUP2 SUB PUSH1 0x0 DUP4 ADD MSTORE PUSH2 0x476 DUP2 DUP6 PUSH2 0x423 JUMP JUMPDEST SWAP1 POP DUP2 DUP2 SUB PUSH1 0x20 DUP4 ADD MSTORE PUSH2 0x48A DUP2 DUP5 PUSH2 0x423 JUMP JUMPDEST SWAP1 POP SWAP4 SWAP3 POP POP POP JUMP JUMPDEST PUSH1 0x0 DUP1 REVERT JUMPDEST PUSH1 0x0 DUP1 REVERT JUMPDEST PUSH32 0x4E487B7100000000000000000000000000000000000000000000000000000000 PUSH1 0x0 MSTORE PUSH1 0x41 PUSH1 0x4 MSTORE PUSH1 0x24 PUSH1 0x0 REVERT JUMPDEST PUSH2 0x4D5 DUP3 PUSH2 0x412 JUMP JUMPDEST DUP2 ADD DUP2 DUP2 LT PUSH8 0xFFFFFFFFFFFFFFFF DUP3 GT OR ISZERO PUSH2 0x4F4 JUMPI PUSH2 0x4F3 PUSH2 0x49D JUMP JUMPDEST JUMPDEST DUP1 PUSH1 0x40 MSTORE POP POP POP JUMP JUMPDEST PUSH1 0x0 PUSH2 0x507 PUSH2 0x2E4 JUMP JUMPDEST SWAP1 POP PUSH2 0x513 DUP3 DUP3 PUSH2 0x4CC JUMP JUMPDEST SWAP2 SWAP1 POP JUMP JUMPDEST PUSH1 0x0 PUSH8 0xFFFFFFFFFFFFFFFF DUP3 GT ISZERO PUSH2 0x533 JUMPI PUSH2 0x532 PUSH2 0x49D JUMP JUMPDEST JUMPDEST PUSH2 0x53C DUP3 PUSH2 0x412 JUMP JUMPDEST SWAP1 POP PUSH1 0x20 DUP2 ADD SWAP1 POP SWAP2 SWAP1 POP JUMP JUMPDEST DUP3 DUP2 DUP4 CALLDATACOPY PUSH1 0x0 DUP4 DUP4 ADD MSTORE POP POP POP JUMP JUMPDEST PUSH1 0x0 PUSH2 0x56B PUSH2 0x566 DUP5 PUSH2 0x518 JUMP JUMPDEST PUSH2 0x4FD JUMP JUMPDEST SWAP1 POP DUP3 DUP2 MSTORE PUSH1 0x20 DUP2 ADD DUP5 DUP5 DUP5 ADD GT ISZERO PUSH2 0x587 JUMPI PUSH2 0x586 PUSH2 0x498 JUMP JUMPDEST JUMPDEST PUSH2 0x592 DUP5 DUP3 DUP6 PUSH2 0x549 JUMP JUMPDEST POP SWAP4 SWAP3 POP POP POP JUMP JUMPDEST PUSH1 0x0 DUP3 PUSH1 0x1F DUP4 ADD SLT PUSH2 0x5AF JUMPI PUSH2 0x5AE PUSH2 0x493 JUMP JUMPDEST JUMPDEST DUP2 CALLDATALOAD PUSH2 0x5BF DUP5 DUP3 PUSH1 0x20 DUP7 ADD PUSH2 0x558 JUMP JUMPDEST SWAP2 POP POP SWAP3 SWAP2 POP POP JUMP JUMPDEST PUSH1 0x0 DUP1 PUSH1 0x0 PUSH1 0x60 DUP5 DUP7 SUB SLT ISZERO PUSH2 0x5E1 JUMPI PUSH2 0x5E0 PUSH2 0x2EE JUMP JUMPDEST JUMPDEST PUSH1 0x0 PUSH2 0x5EF DUP7 DUP3 DUP8 ADD PUSH2 0x377 JUMP JUMPDEST SWAP4 POP POP PUSH1 0x20 DUP5 ADD CALLDATALOAD PUSH8 0xFFFFFFFFFFFFFFFF DUP2 GT ISZERO PUSH2 0x610 JUMPI PUSH2 0x60F PUSH2 0x2F3 JUMP JUMPDEST JUMPDEST PUSH2 0x61C DUP7 DUP3 DUP8 ADD PUSH2 0x59A JUMP JUMPDEST SWAP3 POP POP PUSH1 0x40 DUP5 ADD CALLDATALOAD PUSH8 0xFFFFFFFFFFFFFFFF DUP2 GT ISZERO PUSH2 0x63D JUMPI PUSH2 0x63C PUSH2 0x2F3 JUMP JUMPDEST JUMPDEST PUSH2 0x649 DUP7 DUP3 DUP8 ADD PUSH2 0x59A JUMP JUMPDEST SWAP2 POP POP SWAP3 POP SWAP3 POP SWAP3 JUMP JUMPDEST PUSH32 0x4E487B7100000000000000000000000000000000000000000000000000000000 PUSH1 0x0 MSTORE PUSH1 0x22 PUSH1 0x4 MSTORE PUSH1 0x24 PUSH1 0x0 REVERT JUMPDEST PUSH1 0x0 PUSH1 0x2 DUP3 DIV SWAP1 POP PUSH1 0x1 DUP3 AND DUP1 PUSH2 0x69A JUMPI PUSH1 0x7F DUP3 AND SWAP2 POP JUMPDEST PUSH1 0x20 DUP3 LT DUP2 SUB PUSH2 0x6AD JUMPI PUSH2 0x6AC PUSH2 0x653 JUMP JUMPDEST JUMPDEST POP SWAP2 SWAP1 POP JUMP JUMPDEST PUSH1 0x0 DUP2 SWAP1 POP DUP2 PUSH1 0x0 MSTORE PUSH1 0x20 PUSH1 0x0 KECCAK256 SWAP1 POP SWAP2 SWAP1 POP JUMP JUMPDEST PUSH1 0x0 PUSH1 0x20 PUSH1 0x1F DUP4 ADD DIV SWAP1 POP SWAP2 SWAP1 POP JUMP JUMPDEST PUSH1 0x0 DUP3 DUP3 SHL SWAP1 POP SWAP3 SWAP2 POP POP JUMP JUMPDEST PUSH1 0x0 PUSH1 0x8 DUP4 MUL PUSH2 0x715 PUSH32 0xFFFFFFFFFFFFFFFFFFFFFFFFFFFFFFFFFFFFFFFFFFFFFFFFFFFFFFFFFFFFFFFF DUP3 PUSH2 0x6D8 JUMP JUMPDEST PUSH2 0x71F DUP7 DUP4 PUSH2 0x6D8 JUMP JUMPDEST SWAP6 POP DUP1 NOT DUP5 AND SWAP4 POP DUP1 DUP7 AND DUP5 OR SWAP3 POP POP POP SWAP4 SWAP3 POP POP POP JUMP JUMPDEST PUSH1 0x0 DUP2 SWAP1 POP SWAP2 SWAP1 POP JUMP JUMPDEST PUSH1 0x0 PUSH2 0x75C PUSH2 0x757 PUSH2 0x752 DUP5 PUSH2 0x356 JUMP JUMPDEST PUSH2 0x737 JUMP JUMPDEST PUSH2 0x356 JUMP JUMPDEST SWAP1 POP SWAP2 SWAP1 POP JUMP JUMPDEST PUSH1 0x0 DUP2 SWAP1 POP SWAP2 SWAP1 POP JUMP JUMPDEST PUSH2 0x776 DUP4 PUSH2 0x741 JUMP JUMPDEST PUSH2 0x78A PUSH2 0x782 DUP3 PUSH2 0x763 JUMP JUMPDEST DUP5 DUP5 SLOAD PUSH2 0x6E5 JUMP JUMPDEST DUP3 SSTORE POP POP POP POP JUMP JUMPDEST PUSH1 0x0 SWAP1 JUMP JUMPDEST PUSH2 0x79F PUSH2 0x792 JUMP JUMPDEST PUSH2 0x7AA DUP2 DUP5 DUP5 PUSH2 0x76D JUMP JUMPDEST POP POP POP JUMP JUMPDEST JUMPDEST DUP2 DUP2 LT ISZERO PUSH2 0x7CE JUMPI PUSH2 0x7C3 PUSH1 0x0 DUP3 PUSH2 0x797 JUMP JUMPDEST PUSH1 0x1 DUP2 ADD SWAP1 POP PUSH2 0x7B0 JUMP JUMPDEST POP POP JUMP JUMPDEST PUSH1 0x1F DUP3 GT ISZERO PUSH2 0x813 JUMPI PUSH2 0x7E4 DUP2 PUSH2 0x6B3 JUMP JUMPDEST PUSH2 0x7ED DUP5 PUSH2 0x6C8 JUMP JUMPDEST DUP2 ADD PUSH1 0x20 DUP6 LT ISZERO PUSH2 0x7FC JUMPI DUP2 SWAP1 POP JUMPDEST PUSH2 0x810 PUSH2 0x808 DUP6 PUSH2 0x6C8 JUMP JUMPDEST DUP4 ADD DUP3 PUSH2 0x7AF JUMP JUMPDEST POP POP JUMPDEST POP POP POP JUMP JUMPDEST PUSH1 0x0 DUP3 DUP3 SHR SWAP1 POP SWAP3 SWAP2 POP POP JUMP JUMPDEST PUSH1 0x0 PUSH2 0x836 PUSH1 0x0 NOT DUP5 PUSH1 0x8 MUL PUSH2 0x818 JUMP JUMPDEST NOT DUP1 DUP4 AND SWAP2 POP POP SWAP3 SWAP2 POP POP JUMP JUMPDEST PUSH1 0x0 PUSH2 0x84F DUP4 DUP4 PUSH2 0x825 JUMP JUMPDEST SWAP2 POP DUP3 PUSH1 0x2 MUL DUP3 OR SWAP1 POP SWAP3 SWAP2 POP POP JUMP JUMPDEST PUSH2 0x868 DUP3 PUSH2 0x3CC JUMP JUMPDEST PUSH8 0xFFFFFFFFFFFFFFFF DUP2 GT ISZERO PUSH2 0x881 JUMPI PUSH2 0x880 PUSH2 0x49D JUMP JUMPDEST JUMPDEST PUSH2 0x88B DUP3 SLOAD PUSH2 0x682 JUMP JUMPDEST PUSH2 0x896 DUP3 DUP3 DUP6 PUSH2 0x7D2 JUMP JUMPDEST PUSH1 0x0 PUSH1 0x20 SWAP1 POP PUSH1 0x1F DUP4 GT PUSH1 0x1 DUP2 EQ PUSH2 0x8C9 JUMPI PUSH1 0x0 DUP5 ISZERO PUSH2 0x8B7 JUMPI DUP3 DUP8 ADD MLOAD SWAP1 POP JUMPDEST PUSH2 0x8C1 DUP6 DUP3 PUSH2 0x843 JUMP JUMPDEST DUP7 SSTORE POP PUSH2 0x929 JUMP JUMPDEST PUSH1 0x1F NOT DUP5 AND PUSH2 0x8D7 DUP7 PUSH2 0x6B3 JUMP JUMPDEST PUSH1 0x0 JUMPDEST DUP3 DUP2 LT ISZERO PUSH2 0x8FF JUMPI DUP5 DUP10 ADD MLOAD DUP3 SSTORE PUSH1 0x1 DUP3 ADD SWAP2 POP PUSH1 0x20 DUP6 ADD SWAP5 POP PUSH1 0x20 DUP2 ADD SWAP1 POP PUSH2 0x8DA JUMP JUMPDEST DUP7 DUP4 LT ISZERO PUSH2 0x91C JUMPI DUP5 DUP10 ADD MLOAD PUSH2 0x918 PUSH1 0x1F DUP10 AND DUP3 PUSH2 0x825 JUMP JUMPDEST DUP4 SSTORE POP JUMPDEST PUSH1 0x1 PUSH1 0x2 DUP9 MUL ADD DUP9 SSTORE POP POP POP JUMPDEST POP POP POP POP POP POP JUMP INVALID LOG2 PUSH5 0x6970667358 0x22 SLT KECCAK256 STATICCALL PUSH29 0xF92B14A003A8384A3726921D1639BF2D08D8B9DA2B99EC1648180CDC61 GASLIMIT PUSH5 0x736F6C6343 STOP ADDMOD SLT STOP CALLER "
				},
				"gasEstimates": {
					"creation": {
						"codeDepositCost": "481400",
						"executionCost": "518",
						"totalCost": "481918"
					},
					"external": {
						"addMovie(uint256,string,string)": "infinite",
						"addMyMovie(uint256,string,string)": "infinite",
						"myMovie(address,uint256)": "infinite"
					}
				},
				"methodIdentifiers": {
					"addMovie(uint256,string,string)": "f40f48c9",
					"addMyMovie(uint256,string,string)": "87eb54fe",
					"myMovie(address,uint256)": "11f72990"
				}
			},
			"storageLayout": {
				"storage": [
					{
						"astId": 6,
						"contract": "contracts/mapping-in-solidity.sol:learnMapping",
						"label": "movie",
						"offset": 0,
						"slot": "0",
						"type": "t_mapping(t_uint256,t_struct(Movie)18_storage)"
					},
					{
						"astId": 13,
						"contract": "contracts/mapping-in-solidity.sol:learnMapping",
						"label": "myMovie",
						"offset": 0,
						"slot": "1",
						"type": "t_mapping(t_address,t_mapping(t_uint256,t_struct(Movie)18_storage))"
					}
				],
				"types": {
					"t_address": {
						"encoding": "inplace",
						"label": "address",
						"numberOfBytes": "20"
					},
					"t_mapping(t_address,t_mapping(t_uint256,t_struct(Movie)18_storage))": {
						"encoding": "mapping",
						"key": "t_address",
						"label": "mapping(address => mapping(uint256 => struct learnMapping.Movie))",
						"numberOfBytes": "32",
						"value": "t_mapping(t_uint256,t_struct(Movie)18_storage)"
					},
					"t_mapping(t_uint256,t_struct(Movie)18_storage)": {
						"encoding": "mapping",
						"key": "t_uint256",
						"label": "mapping(uint256 => struct learnMapping.Movie)",
						"numberOfBytes": "32",
						"value": "t_struct(Movie)18_storage"
					},
					"t_string_storage": {
						"encoding": "bytes",
						"label": "string",
						"numberOfBytes": "32"
					},
					"t_struct(Movie)18_storage": {
						"encoding": "inplace",
						"label": "struct learnMapping.Movie",
						"members": [
							{
								"astId": 15,
								"contract": "contracts/mapping-in-solidity.sol:learnMapping",
								"label": "title",
								"offset": 0,
								"slot": "0",
								"type": "t_string_storage"
							},
							{
								"astId": 17,
								"contract": "contracts/mapping-in-solidity.sol:learnMapping",
								"label": "director",
								"offset": 0,
								"slot": "1",
								"type": "t_string_storage"
							}
						],
						"numberOfBytes": "64"
					},
					"t_uint256": {
						"encoding": "inplace",
						"label": "uint256",
						"numberOfBytes": "32"
					}
				}
			},
			"userdoc": {
				"kind": "user",
				"methods": {},
				"version": 1
			}
		}
	}
}