{
	"contracts/assert-test-method.sol": {
		"learnEtherUnits": {
			"abi": [
				{
					"inputs": [],
					"name": "exercise",
					"outputs": [],
					"stateMutability": "nonpayable",
					"type": "function"
				},
				{
					"inputs": [],
					"name": "test",
					"outputs": [],
					"stateMutability": "nonpayable",
					"type": "function"
				}
			],
			"devdoc": {
				"kind": "dev",
				"methods": {},
				"version": 1
			},
			"evm": {
				"assembly": "    /* \"contracts/assert-test-method.sol\":165:843  contract learnEtherUnits {... */\n  mstore(0x40, 0x80)\n  callvalue\n  dup1\n  iszero\n  tag_1\n  jumpi\n  0x00\n  dup1\n  revert\ntag_1:\n  pop\n  dataSize(sub_0)\n  dup1\n  dataOffset(sub_0)\n  0x00\n  codecopy\n  0x00\n  return\nstop\n\nsub_0: assembly {\n        /* \"contracts/assert-test-method.sol\":165:843  contract learnEtherUnits {... */\n      mstore(0x40, 0x80)\n      callvalue\n      dup1\n      iszero\n      tag_1\n      jumpi\n      0x00\n      dup1\n      revert\n    tag_1:\n      pop\n      jumpi(tag_2, lt(calldatasize, 0x04))\n      shr(0xe0, calldataload(0x00))\n      dup1\n      0xd32cb0fe\n      eq\n      tag_3\n      jumpi\n      dup1\n      0xf8a8fd6d\n      eq\n      tag_4\n      jumpi\n    tag_2:\n      0x00\n      dup1\n      revert\n        /* \"contracts/assert-test-method.sol\":595:838  function exercise() public {... */\n    tag_3:\n      tag_5\n      tag_6\n      jump\t// in\n    tag_5:\n      stop\n        /* \"contracts/assert-test-method.sol\":203:577  function test() public {... */\n    tag_4:\n      tag_7\n      tag_8\n      jump\t// in\n    tag_7:\n      stop\n        /* \"contracts/assert-test-method.sol\":595:838  function exercise() public {... */\n    tag_6:\n        /* \"contracts/assert-test-method.sol\":663:673  60 seconds */\n      0x3c\n        /* \"contracts/assert-test-method.sol\":650:659  1 minutes */\n      dup1\n        /* \"contracts/assert-test-method.sol\":650:673  1 minutes == 60 seconds */\n      eq\n        /* \"contracts/assert-test-method.sol\":643:674  assert(1 minutes == 60 seconds) */\n      tag_10\n      jumpi\n      tag_11\n      tag_12\n      jump\t// in\n    tag_11:\n    tag_10:\n        /* \"contracts/assert-test-method.sol\":704:716  1440 minutes */\n      0x015180\n        /* \"contracts/assert-test-method.sol\":692:700  24 hours */\n      dup1\n        /* \"contracts/assert-test-method.sol\":692:716  24 hours == 1440 minutes */\n      eq\n        /* \"contracts/assert-test-method.sol\":685:717  assert(24 hours == 1440 minutes) */\n      tag_13\n      jumpi\n      tag_14\n      tag_12\n      jump\t// in\n    tag_14:\n    tag_13:\n        /* \"contracts/assert-test-method.sol\":745:753  24 hours */\n      0x015180\n        /* \"contracts/assert-test-method.sol\":735:741  1 days */\n      dup1\n        /* \"contracts/assert-test-method.sol\":735:753  1 days == 24 hours */\n      eq\n        /* \"contracts/assert-test-method.sol\":728:754  assert(1 days == 24 hours) */\n      tag_15\n      jumpi\n      tag_16\n      tag_12\n      jump\t// in\n    tag_16:\n    tag_15:\n        /* \"contracts/assert-test-method.sol\":783:789  7 days */\n      0x093a80\n        /* \"contracts/assert-test-method.sol\":772:779  1 weeks */\n      dup1\n        /* \"contracts/assert-test-method.sol\":772:789  1 weeks == 7 days */\n      eq\n        /* \"contracts/assert-test-method.sol\":765:790  assert(1 weeks == 7 days) */\n      tag_17\n      jumpi\n      tag_18\n      tag_12\n      jump\t// in\n    tag_18:\n    tag_17:\n        /* \"contracts/assert-test-method.sol\":824:829  9 + 1 */\n      0x0a\n        /* \"contracts/assert-test-method.sol\":818:820  10 */\n      dup1\n        /* \"contracts/assert-test-method.sol\":818:829  10 == 9 + 1 */\n      eq\n        /* \"contracts/assert-test-method.sol\":811:830  assert(10 == 9 + 1) */\n      tag_19\n      jumpi\n      tag_20\n      tag_12\n      jump\t// in\n    tag_20:\n    tag_19:\n        /* \"contracts/assert-test-method.sol\":595:838  function exercise() public {... */\n      jump\t// out\n        /* \"contracts/assert-test-method.sol\":203:577  function test() public {... */\n    tag_8:\n        /* \"contracts/assert-test-method.sol\":327:334  1 ether */\n      0x0de0b6b3a7640000\n        /* \"contracts/assert-test-method.sol\":300:323  1000000000000000000 wei */\n      dup1\n        /* \"contracts/assert-test-method.sol\":300:334  1000000000000000000 wei == 1 ether */\n      eq\n        /* \"contracts/assert-test-method.sol\":293:335  assert(1000000000000000000 wei == 1 ether) */\n      tag_22\n      jumpi\n      tag_23\n      tag_12\n      jump\t// in\n    tag_23:\n    tag_22:\n        /* \"contracts/assert-test-method.sol\":379:380  1 */\n      0x01\n        /* \"contracts/assert-test-method.sol\":370:375  1 wei */\n      dup1\n        /* \"contracts/assert-test-method.sol\":370:380  1 wei == 1 */\n      eq\n        /* \"contracts/assert-test-method.sol\":363:381  assert(1 wei == 1) */\n      tag_24\n      jumpi\n      tag_25\n      tag_12\n      jump\t// in\n    tag_25:\n    tag_24:\n        /* \"contracts/assert-test-method.sol\":426:430  1e18 */\n      0x0de0b6b3a7640000\n        /* \"contracts/assert-test-method.sol\":415:422  1 ether */\n      dup1\n        /* \"contracts/assert-test-method.sol\":415:430  1 ether == 1e18 */\n      eq\n        /* \"contracts/assert-test-method.sol\":408:431  assert(1 ether == 1e18) */\n      tag_26\n      jumpi\n      tag_27\n      tag_12\n      jump\t// in\n    tag_27:\n    tag_26:\n        /* \"contracts/assert-test-method.sol\":544:567  2000000000000000000 wei */\n      0x1bc16d674ec80000\n        /* \"contracts/assert-test-method.sol\":533:540  2 ether */\n      dup1\n        /* \"contracts/assert-test-method.sol\":533:567  2 ether == 2000000000000000000 wei */\n      eq\n        /* \"contracts/assert-test-method.sol\":526:568  assert(2 ether == 2000000000000000000 wei) */\n      tag_28\n      jumpi\n      tag_29\n      tag_12\n      jump\t// in\n    tag_29:\n    tag_28:\n        /* \"contracts/assert-test-method.sol\":203:577  function test() public {... */\n      jump\t// out\n        /* \"#utility.yul\":7:187   */\n    tag_12:\n        /* \"#utility.yul\":55:132   */\n      0x4e487b7100000000000000000000000000000000000000000000000000000000\n        /* \"#utility.yul\":52:53   */\n      0x00\n        /* \"#utility.yul\":45:133   */\n      mstore\n        /* \"#utility.yul\":152:156   */\n      0x01\n        /* \"#utility.yul\":149:150   */\n      0x04\n        /* \"#utility.yul\":142:157   */\n      mstore\n        /* \"#utility.yul\":176:180   */\n      0x24\n        /* \"#utility.yul\":173:174   */\n      0x00\n        /* \"#utility.yul\":166:181   */\n      revert\n\n    auxdata: 0xa264697066735822122046ca68af8163e72a64a10eaf514fd23e10241322873798cf9789076e28e9090464736f6c63430008120033\n}\n",
				"bytecode": {
					"linkReferences": {},
					"object": "608060405234801561001057600080fd5b5061016c806100206000396000f3fe608060405234801561001057600080fd5b50600436106100365760003560e01c8063d32cb0fe1461003b578063f8a8fd6d14610045575b600080fd5b61004361004f565b005b61004d6100ac565b005b603c80146100605761005f610107565b5b62015180801461007357610072610107565b5b62015180801461008657610085610107565b5b62093a80801461009957610098610107565b5b600a80146100aa576100a9610107565b5b565b670de0b6b3a764000080146100c4576100c3610107565b5b600180146100d5576100d4610107565b5b670de0b6b3a764000080146100ed576100ec610107565b5b671bc16d674ec80000801461010557610104610107565b5b565b7f4e487b7100000000000000000000000000000000000000000000000000000000600052600160045260246000fdfea264697066735822122046ca68af8163e72a64a10eaf514fd23e10241322873798cf9789076e28e9090464736f6c63430008120033",
					"opcodes": "PUSH1 0x80 PUSH1 0x40 MSTORE CALLVALUE DUP1 ISZERO PUSH2 0x10 JUMPI PUSH1 0x0 DUP1 REVERT JUMPDEST POP PUSH2 0x16C DUP1 PUSH2 0x20 PUSH1 0x0 CODECOPY PUSH1 0x0 RETURN INVALID PUSH1 0x80 PUSH1 0x40 MSTORE CALLVALUE DUP1 ISZERO PUSH2 0x10 JUMPI PUSH1 0x0 DUP1 REVERT JUMPDEST POP PUSH1 0x4 CALLDATASIZE LT PUSH2 0x36 JUMPI PUSH1 0x0 CALLDATALOAD PUSH1 0xE0 SHR DUP1 PUSH4 0xD32CB0FE EQ PUSH2 0x3B JUMPI DUP1 PUSH4 0xF8A8FD6D EQ PUSH2 0x45 JUMPI JUMPDEST PUSH1 0x0 DUP1 REVERT JUMPDEST PUSH2 0x43 PUSH2 0x4F JUMP JUMPDEST STOP JUMPDEST PUSH2 0x4D PUSH2 0xAC JUMP JUMPDEST STOP JUMPDEST PUSH1 0x3C DUP1 EQ PUSH2 0x60 JUMPI PUSH2 0x5F PUSH2 0x107 JUMP JUMPDEST JUMPDEST PUSH3 0x15180 DUP1 EQ PUSH2 0x73 JUMPI PUSH2 0x72 PUSH2 0x107 JUMP JUMPDEST JUMPDEST PUSH3 0x15180 DUP1 EQ PUSH2 0x86 JUMPI PUSH2 0x85 PUSH2 0x107 JUMP JUMPDEST JUMPDEST PUSH3 0x93A80 DUP1 EQ PUSH2 0x99 JUMPI PUSH2 0x98 PUSH2 0x107 JUMP JUMPDEST JUMPDEST PUSH1 0xA DUP1 EQ PUSH2 0xAA JUMPI PUSH2 0xA9 PUSH2 0x107 JUMP JUMPDEST JUMPDEST JUMP JUMPDEST PUSH8 0xDE0B6B3A7640000 DUP1 EQ PUSH2 0xC4 JUMPI PUSH2 0xC3 PUSH2 0x107 JUMP JUMPDEST JUMPDEST PUSH1 0x1 DUP1 EQ PUSH2 0xD5 JUMPI PUSH2 0xD4 PUSH2 0x107 JUMP JUMPDEST JUMPDEST PUSH8 0xDE0B6B3A7640000 DUP1 EQ PUSH2 0xED JUMPI PUSH2 0xEC PUSH2 0x107 JUMP JUMPDEST JUMPDEST PUSH8 0x1BC16D674EC80000 DUP1 EQ PUSH2 0x105 JUMPI PUSH2 0x104 PUSH2 0x107 JUMP JUMPDEST JUMPDEST JUMP JUMPDEST PUSH32 0x4E487B7100000000000000000000000000000000000000000000000000000000 PUSH1 0x0 MSTORE PUSH1 0x1 PUSH1 0x4 MSTORE PUSH1 0x24 PUSH1 0x0 REVERT INVALID LOG2 PUSH5 0x6970667358 0x22 SLT KECCAK256 CHAINID 0xCA PUSH9 0xAF8163E72A64A10EAF MLOAD 0x4F 0xD2 RETURNDATACOPY LT 0x24 SGT 0x22 DUP8 CALLDATACOPY SWAP9 0xCF SWAP8 DUP10 SMOD PUSH15 0x28E9090464736F6C63430008120033 "
				},
				"gasEstimates": {
					"creation": {
						"codeDepositCost": "72800",
						"executionCost": "123",
						"totalCost": "72923"
					},
					"external": {
						"exercise()": "237",
						"test()": "236"
					}
				},
				"methodIdentifiers": {
					"exercise()": "d32cb0fe",
					"test()": "f8a8fd6d"
				}
			},
			"storageLayout": {
				"storage": [],
				"types": null
			},
			"userdoc": {
				"kind": "user",
				"methods": {},
				"version": 1
			}
		}
	}
}