{
	"contracts/artifacts/artifacts/build-info/loops-practices.sol": {
		"loopContract": {
			"abi": [
				{
					"inputs": [
						{
							"internalType": "uint256",
							"name": "_num",
							"type": "uint256"
						},
						{
							"internalType": "uint256",
							"name": "_nums",
							"type": "uint256"
						}
					],
					"name": "checkMultipleValidity",
					"outputs": [
						{
							"internalType": "bool",
							"name": "",
							"type": "bool"
						}
					],
					"stateMutability": "pure",
					"type": "function"
				},
				{
					"inputs": [
						{
							"internalType": "uint256",
							"name": "_number",
							"type": "uint256"
						}
					],
					"name": "checkMultiples",
					"outputs": [
						{
							"internalType": "uint256",
							"name": "",
							"type": "uint256"
						}
					],
					"stateMutability": "view",
					"type": "function"
				},
				{
					"inputs": [
						{
							"internalType": "uint256",
							"name": "",
							"type": "uint256"
						}
					],
					"name": "numbersList",
					"outputs": [
						{
							"internalType": "uint256",
							"name": "",
							"type": "uint256"
						}
					],
					"stateMutability": "view",
					"type": "function"
				}
			],
			"devdoc": {
				"kind": "dev",
				"methods": {},
				"version": 1
			},
			"evm": {
				"assembly": "    /* \"contracts/artifacts/artifacts/build-info/loops-practices.sol\":370:1821  contract loopContract {... */\n  mstore(0x40, 0x80)\n    /* \"contracts/artifacts/artifacts/build-info/loops-practices.sol\":453:504  uint [] public numbersList = [1,2,3,4,5,6,7,8,9,10] */\n  mload(0x40)\n  dup1\n  0x0140\n  add\n  0x40\n  mstore\n  dup1\n    /* \"contracts/artifacts/artifacts/build-info/loops-practices.sol\":483:484  1 */\n  0x01\n    /* \"contracts/artifacts/artifacts/build-info/loops-practices.sol\":453:504  uint [] public numbersList = [1,2,3,4,5,6,7,8,9,10] */\n  0xff\n  and\n  dup2\n  mstore\n  0x20\n  add\n    /* \"contracts/artifacts/artifacts/build-info/loops-practices.sol\":485:486  2 */\n  0x02\n    /* \"contracts/artifacts/artifacts/build-info/loops-practices.sol\":453:504  uint [] public numbersList = [1,2,3,4,5,6,7,8,9,10] */\n  0xff\n  and\n  dup2\n  mstore\n  0x20\n  add\n    /* \"contracts/artifacts/artifacts/build-info/loops-practices.sol\":487:488  3 */\n  0x03\n    /* \"contracts/artifacts/artifacts/build-info/loops-practices.sol\":453:504  uint [] public numbersList = [1,2,3,4,5,6,7,8,9,10] */\n  0xff\n  and\n  dup2\n  mstore\n  0x20\n  add\n    /* \"contracts/artifacts/artifacts/build-info/loops-practices.sol\":489:490  4 */\n  0x04\n    /* \"contracts/artifacts/artifacts/build-info/loops-practices.sol\":453:504  uint [] public numbersList = [1,2,3,4,5,6,7,8,9,10] */\n  0xff\n  and\n  dup2\n  mstore\n  0x20\n  add\n    /* \"contracts/artifacts/artifacts/build-info/loops-practices.sol\":491:492  5 */\n  0x05\n    /* \"contracts/artifacts/artifacts/build-info/loops-practices.sol\":453:504  uint [] public numbersList = [1,2,3,4,5,6,7,8,9,10] */\n  0xff\n  and\n  dup2\n  mstore\n  0x20\n  add\n    /* \"contracts/artifacts/artifacts/build-info/loops-practices.sol\":493:494  6 */\n  0x06\n    /* \"contracts/artifacts/artifacts/build-info/loops-practices.sol\":453:504  uint [] public numbersList = [1,2,3,4,5,6,7,8,9,10] */\n  0xff\n  and\n  dup2\n  mstore\n  0x20\n  add\n    /* \"contracts/artifacts/artifacts/build-info/loops-practices.sol\":495:496  7 */\n  0x07\n    /* \"contracts/artifacts/artifacts/build-info/loops-practices.sol\":453:504  uint [] public numbersList = [1,2,3,4,5,6,7,8,9,10] */\n  0xff\n  and\n  dup2\n  mstore\n  0x20\n  add\n    /* \"contracts/artifacts/artifacts/build-info/loops-practices.sol\":497:498  8 */\n  0x08\n    /* \"contracts/artifacts/artifacts/build-info/loops-practices.sol\":453:504  uint [] public numbersList = [1,2,3,4,5,6,7,8,9,10] */\n  0xff\n  and\n  dup2\n  mstore\n  0x20\n  add\n    /* \"contracts/artifacts/artifacts/build-info/loops-practices.sol\":499:500  9 */\n  0x09\n    /* \"contracts/artifacts/artifacts/build-info/loops-practices.sol\":453:504  uint [] public numbersList = [1,2,3,4,5,6,7,8,9,10] */\n  0xff\n  and\n  dup2\n  mstore\n  0x20\n  add\n    /* \"contracts/artifacts/artifacts/build-info/loops-practices.sol\":501:503  10 */\n  0x0a\n    /* \"contracts/artifacts/artifacts/build-info/loops-practices.sol\":453:504  uint [] public numbersList = [1,2,3,4,5,6,7,8,9,10] */\n  0xff\n  and\n  dup2\n  mstore\n  pop\n  0x00\n  swap1\n  0x0a\n  tag_1\n  swap3\n  swap2\n  swap1\n  tag_2\n  jump\t// in\ntag_1:\n  pop\n    /* \"contracts/artifacts/artifacts/build-info/loops-practices.sol\":370:1821  contract loopContract {... */\n  callvalue\n  dup1\n  iszero\n  tag_3\n  jumpi\n  0x00\n  dup1\n  revert\ntag_3:\n  pop\n  jump(tag_4)\ntag_2:\n  dup3\n  dup1\n  sload\n  dup3\n  dup3\n  sstore\n  swap1\n  0x00\n  mstore\n  keccak256(0x00, 0x20)\n  swap1\n  dup2\n  add\n  swap3\n  dup3\n  iszero\n  tag_5\n  jumpi\n  swap2\n  0x20\n  mul\n  dup3\n  add\ntag_6:\n  dup3\n  dup2\n  gt\n  iszero\n  tag_7\n  jumpi\n  dup3\n  mload\n  dup3\n  swap1\n  0xff\n  and\n  swap1\n  sstore\n  swap2\n  0x20\n  add\n  swap2\n  swap1\n  0x01\n  add\n  swap1\n  jump(tag_6)\ntag_7:\ntag_5:\n  pop\n  swap1\n  pop\n  tag_8\n  swap2\n  swap1\n  tag_9\n  jump\t// in\ntag_8:\n  pop\n  swap1\n  jump\t// out\ntag_9:\ntag_10:\n  dup1\n  dup3\n  gt\n  iszero\n  tag_11\n  jumpi\n  0x00\n  dup2\n  0x00\n  swap1\n  sstore\n  pop\n  0x01\n  add\n  jump(tag_10)\ntag_11:\n  pop\n  swap1\n  jump\t// out\ntag_4:\n  dataSize(sub_0)\n  dup1\n  dataOffset(sub_0)\n  0x00\n  codecopy\n  0x00\n  return\nstop\n\nsub_0: assembly {\n        /* \"contracts/artifacts/artifacts/build-info/loops-practices.sol\":370:1821  contract loopContract {... */\n      mstore(0x40, 0x80)\n      callvalue\n      dup1\n      iszero\n      tag_1\n      jumpi\n      0x00\n      dup1\n      revert\n    tag_1:\n      pop\n      jumpi(tag_2, lt(calldatasize, 0x04))\n      shr(0xe0, calldataload(0x00))\n      dup1\n      0x16985d15\n      eq\n      tag_3\n      jumpi\n      dup1\n      0x46c0d4d2\n      eq\n      tag_4\n      jumpi\n      dup1\n      0x82343a1e\n      eq\n      tag_5\n      jumpi\n    tag_2:\n      0x00\n      dup1\n      revert\n        /* \"contracts/artifacts/artifacts/build-info/loops-practices.sol\":1414:1812  function checkMultipleValidity(uint _num, uint _nums) public pure returns (bool) {... */\n    tag_3:\n      tag_6\n      0x04\n      dup1\n      calldatasize\n      sub\n      dup2\n      add\n      swap1\n      tag_7\n      swap2\n      swap1\n      tag_8\n      jump\t// in\n    tag_7:\n      tag_9\n      jump\t// in\n    tag_6:\n      mload(0x40)\n      tag_10\n      swap2\n      swap1\n      tag_11\n      jump\t// in\n    tag_10:\n      mload(0x40)\n      dup1\n      swap2\n      sub\n      swap1\n      return\n        /* \"contracts/artifacts/artifacts/build-info/loops-practices.sol\":682:1193  function checkMultiples(uint _number) public view returns (uint) {... */\n    tag_4:\n      tag_12\n      0x04\n      dup1\n      calldatasize\n      sub\n      dup2\n      add\n      swap1\n      tag_13\n      swap2\n      swap1\n      tag_14\n      jump\t// in\n    tag_13:\n      tag_15\n      jump\t// in\n    tag_12:\n      mload(0x40)\n      tag_16\n      swap2\n      swap1\n      tag_17\n      jump\t// in\n    tag_16:\n      mload(0x40)\n      dup1\n      swap2\n      sub\n      swap1\n      return\n        /* \"contracts/artifacts/artifacts/build-info/loops-practices.sol\":453:504  uint [] public numbersList = [1,2,3,4,5,6,7,8,9,10] */\n    tag_5:\n      tag_18\n      0x04\n      dup1\n      calldatasize\n      sub\n      dup2\n      add\n      swap1\n      tag_19\n      swap2\n      swap1\n      tag_14\n      jump\t// in\n    tag_19:\n      tag_20\n      jump\t// in\n    tag_18:\n      mload(0x40)\n      tag_21\n      swap2\n      swap1\n      tag_17\n      jump\t// in\n    tag_21:\n      mload(0x40)\n      dup1\n      swap2\n      sub\n      swap1\n      return\n        /* \"contracts/artifacts/artifacts/build-info/loops-practices.sol\":1414:1812  function checkMultipleValidity(uint _num, uint _nums) public pure returns (bool) {... */\n    tag_9:\n        /* \"contracts/artifacts/artifacts/build-info/loops-practices.sol\":1489:1493  bool */\n      0x00\n        /* \"contracts/artifacts/artifacts/build-info/loops-practices.sol\":1719:1720  0 */\n      dup1\n        /* \"contracts/artifacts/artifacts/build-info/loops-practices.sol\":1710:1715  _nums */\n      dup3\n        /* \"contracts/artifacts/artifacts/build-info/loops-practices.sol\":1703:1707  _num */\n      dup5\n        /* \"contracts/artifacts/artifacts/build-info/loops-practices.sol\":1703:1715  _num % _nums */\n      tag_23\n      swap2\n      swap1\n      tag_24\n      jump\t// in\n    tag_23:\n        /* \"contracts/artifacts/artifacts/build-info/loops-practices.sol\":1703:1720  _num % _nums == 0 */\n      sub\n        /* \"contracts/artifacts/artifacts/build-info/loops-practices.sol\":1700:1805  if(_num % _nums == 0) {... */\n      tag_25\n      jumpi\n        /* \"contracts/artifacts/artifacts/build-info/loops-practices.sol\":1744:1748  true */\n      0x01\n        /* \"contracts/artifacts/artifacts/build-info/loops-practices.sol\":1737:1748  return true */\n      swap1\n      pop\n      jump(tag_22)\n        /* \"contracts/artifacts/artifacts/build-info/loops-practices.sol\":1700:1805  if(_num % _nums == 0) {... */\n    tag_25:\n        /* \"contracts/artifacts/artifacts/build-info/loops-practices.sol\":1788:1793  false */\n      0x00\n        /* \"contracts/artifacts/artifacts/build-info/loops-practices.sol\":1781:1793  return false */\n      swap1\n      pop\n        /* \"contracts/artifacts/artifacts/build-info/loops-practices.sol\":1414:1812  function checkMultipleValidity(uint _num, uint _nums) public pure returns (bool) {... */\n    tag_22:\n      swap3\n      swap2\n      pop\n      pop\n      jump\t// out\n        /* \"contracts/artifacts/artifacts/build-info/loops-practices.sol\":682:1193  function checkMultiples(uint _number) public view returns (uint) {... */\n    tag_15:\n        /* \"contracts/artifacts/artifacts/build-info/loops-practices.sol\":741:745  uint */\n      0x00\n        /* \"contracts/artifacts/artifacts/build-info/loops-practices.sol\":758:768  uint count */\n      dup1\n        /* \"contracts/artifacts/artifacts/build-info/loops-practices.sol\":771:772  0 */\n      0x00\n        /* \"contracts/artifacts/artifacts/build-info/loops-practices.sol\":758:772  uint count = 0 */\n      swap1\n      pop\n        /* \"contracts/artifacts/artifacts/build-info/loops-practices.sol\":962:968  uint i */\n      0x00\n        /* \"contracts/artifacts/artifacts/build-info/loops-practices.sol\":969:970  1 */\n      0x01\n        /* \"contracts/artifacts/artifacts/build-info/loops-practices.sol\":962:970  uint i=1 */\n      swap1\n      pop\n        /* \"contracts/artifacts/artifacts/build-info/loops-practices.sol\":958:1163  for(uint i=1; i < numbersList.length; i++) {... */\n    tag_28:\n        /* \"contracts/artifacts/artifacts/build-info/loops-practices.sol\":976:987  numbersList */\n      0x00\n        /* \"contracts/artifacts/artifacts/build-info/loops-practices.sol\":976:994  numbersList.length */\n      dup1\n      sload\n      swap1\n      pop\n        /* \"contracts/artifacts/artifacts/build-info/loops-practices.sol\":972:973  i */\n      dup2\n        /* \"contracts/artifacts/artifacts/build-info/loops-practices.sol\":972:994  i < numbersList.length */\n      lt\n        /* \"contracts/artifacts/artifacts/build-info/loops-practices.sol\":958:1163  for(uint i=1; i < numbersList.length; i++) {... */\n      iszero\n      tag_29\n      jumpi\n        /* \"contracts/artifacts/artifacts/build-info/loops-practices.sol\":1062:1108  checkMultipleValidity(numbersList[i], _number) */\n      tag_31\n        /* \"contracts/artifacts/artifacts/build-info/loops-practices.sol\":1084:1095  numbersList */\n      0x00\n        /* \"contracts/artifacts/artifacts/build-info/loops-practices.sol\":1096:1097  i */\n      dup3\n        /* \"contracts/artifacts/artifacts/build-info/loops-practices.sol\":1084:1098  numbersList[i] */\n      dup2\n      sload\n      dup2\n      lt\n      tag_32\n      jumpi\n      tag_33\n      tag_34\n      jump\t// in\n    tag_33:\n    tag_32:\n      swap1\n      0x00\n      mstore\n      keccak256(0x00, 0x20)\n      add\n      sload\n        /* \"contracts/artifacts/artifacts/build-info/loops-practices.sol\":1100:1107  _number */\n      dup6\n        /* \"contracts/artifacts/artifacts/build-info/loops-practices.sol\":1062:1083  checkMultipleValidity */\n      tag_9\n        /* \"contracts/artifacts/artifacts/build-info/loops-practices.sol\":1062:1108  checkMultipleValidity(numbersList[i], _number) */\n      jump\t// in\n    tag_31:\n        /* \"contracts/artifacts/artifacts/build-info/loops-practices.sol\":1059:1152  if(checkMultipleValidity(numbersList[i], _number)) {... */\n      iszero\n      tag_36\n      jumpi\n        /* \"contracts/artifacts/artifacts/build-info/loops-practices.sol\":1129:1136  count++ */\n      dup2\n      dup1\n      tag_37\n      swap1\n      tag_38\n      jump\t// in\n    tag_37:\n      swap3\n      pop\n      pop\n        /* \"contracts/artifacts/artifacts/build-info/loops-practices.sol\":1059:1152  if(checkMultipleValidity(numbersList[i], _number)) {... */\n    tag_36:\n        /* \"contracts/artifacts/artifacts/build-info/loops-practices.sol\":996:999  i++ */\n      dup1\n      dup1\n      tag_39\n      swap1\n      tag_38\n      jump\t// in\n    tag_39:\n      swap2\n      pop\n      pop\n        /* \"contracts/artifacts/artifacts/build-info/loops-practices.sol\":958:1163  for(uint i=1; i < numbersList.length; i++) {... */\n      jump(tag_28)\n    tag_29:\n      pop\n        /* \"contracts/artifacts/artifacts/build-info/loops-practices.sol\":1180:1185  count */\n      dup1\n        /* \"contracts/artifacts/artifacts/build-info/loops-practices.sol\":1173:1185  return count */\n      swap2\n      pop\n      pop\n        /* \"contracts/artifacts/artifacts/build-info/loops-practices.sol\":682:1193  function checkMultiples(uint _number) public view returns (uint) {... */\n      swap2\n      swap1\n      pop\n      jump\t// out\n        /* \"contracts/artifacts/artifacts/build-info/loops-practices.sol\":453:504  uint [] public numbersList = [1,2,3,4,5,6,7,8,9,10] */\n    tag_20:\n      0x00\n      dup2\n      dup2\n      sload\n      dup2\n      lt\n      tag_40\n      jumpi\n      0x00\n      dup1\n      revert\n    tag_40:\n      swap1\n      0x00\n      mstore\n      keccak256(0x00, 0x20)\n      add\n      0x00\n      swap2\n      pop\n      swap1\n      pop\n      sload\n      dup2\n      jump\t// out\n        /* \"#utility.yul\":88:205   */\n    tag_43:\n        /* \"#utility.yul\":197:198   */\n      0x00\n        /* \"#utility.yul\":194:195   */\n      dup1\n        /* \"#utility.yul\":187:199   */\n      revert\n        /* \"#utility.yul\":334:411   */\n    tag_45:\n        /* \"#utility.yul\":371:378   */\n      0x00\n        /* \"#utility.yul\":400:405   */\n      dup2\n        /* \"#utility.yul\":389:405   */\n      swap1\n      pop\n        /* \"#utility.yul\":334:411   */\n      swap2\n      swap1\n      pop\n      jump\t// out\n        /* \"#utility.yul\":417:539   */\n    tag_46:\n        /* \"#utility.yul\":490:514   */\n      tag_59\n        /* \"#utility.yul\":508:513   */\n      dup2\n        /* \"#utility.yul\":490:514   */\n      tag_45\n      jump\t// in\n    tag_59:\n        /* \"#utility.yul\":483:488   */\n      dup2\n        /* \"#utility.yul\":480:515   */\n      eq\n        /* \"#utility.yul\":470:533   */\n      tag_60\n      jumpi\n        /* \"#utility.yul\":529:530   */\n      0x00\n        /* \"#utility.yul\":526:527   */\n      dup1\n        /* \"#utility.yul\":519:531   */\n      revert\n        /* \"#utility.yul\":470:533   */\n    tag_60:\n        /* \"#utility.yul\":417:539   */\n      pop\n      jump\t// out\n        /* \"#utility.yul\":545:684   */\n    tag_47:\n        /* \"#utility.yul\":591:596   */\n      0x00\n        /* \"#utility.yul\":629:635   */\n      dup2\n        /* \"#utility.yul\":616:636   */\n      calldataload\n        /* \"#utility.yul\":607:636   */\n      swap1\n      pop\n        /* \"#utility.yul\":645:678   */\n      tag_62\n        /* \"#utility.yul\":672:677   */\n      dup2\n        /* \"#utility.yul\":645:678   */\n      tag_46\n      jump\t// in\n    tag_62:\n        /* \"#utility.yul\":545:684   */\n      swap3\n      swap2\n      pop\n      pop\n      jump\t// out\n        /* \"#utility.yul\":690:1164   */\n    tag_8:\n        /* \"#utility.yul\":758:764   */\n      0x00\n        /* \"#utility.yul\":766:772   */\n      dup1\n        /* \"#utility.yul\":815:817   */\n      0x40\n        /* \"#utility.yul\":803:812   */\n      dup4\n        /* \"#utility.yul\":794:801   */\n      dup6\n        /* \"#utility.yul\":790:813   */\n      sub\n        /* \"#utility.yul\":786:818   */\n      slt\n        /* \"#utility.yul\":783:902   */\n      iszero\n      tag_64\n      jumpi\n        /* \"#utility.yul\":821:900   */\n      tag_65\n      tag_43\n      jump\t// in\n    tag_65:\n        /* \"#utility.yul\":783:902   */\n    tag_64:\n        /* \"#utility.yul\":941:942   */\n      0x00\n        /* \"#utility.yul\":966:1019   */\n      tag_66\n        /* \"#utility.yul\":1011:1018   */\n      dup6\n        /* \"#utility.yul\":1002:1008   */\n      dup3\n        /* \"#utility.yul\":991:1000   */\n      dup7\n        /* \"#utility.yul\":987:1009   */\n      add\n        /* \"#utility.yul\":966:1019   */\n      tag_47\n      jump\t// in\n    tag_66:\n        /* \"#utility.yul\":956:1019   */\n      swap3\n      pop\n        /* \"#utility.yul\":912:1029   */\n      pop\n        /* \"#utility.yul\":1068:1070   */\n      0x20\n        /* \"#utility.yul\":1094:1147   */\n      tag_67\n        /* \"#utility.yul\":1139:1146   */\n      dup6\n        /* \"#utility.yul\":1130:1136   */\n      dup3\n        /* \"#utility.yul\":1119:1128   */\n      dup7\n        /* \"#utility.yul\":1115:1137   */\n      add\n        /* \"#utility.yul\":1094:1147   */\n      tag_47\n      jump\t// in\n    tag_67:\n        /* \"#utility.yul\":1084:1147   */\n      swap2\n      pop\n        /* \"#utility.yul\":1039:1157   */\n      pop\n        /* \"#utility.yul\":690:1164   */\n      swap3\n      pop\n      swap3\n      swap1\n      pop\n      jump\t// out\n        /* \"#utility.yul\":1170:1260   */\n    tag_48:\n        /* \"#utility.yul\":1204:1211   */\n      0x00\n        /* \"#utility.yul\":1247:1252   */\n      dup2\n        /* \"#utility.yul\":1240:1253   */\n      iszero\n        /* \"#utility.yul\":1233:1254   */\n      iszero\n        /* \"#utility.yul\":1222:1254   */\n      swap1\n      pop\n        /* \"#utility.yul\":1170:1260   */\n      swap2\n      swap1\n      pop\n      jump\t// out\n        /* \"#utility.yul\":1266:1375   */\n    tag_49:\n        /* \"#utility.yul\":1347:1368   */\n      tag_70\n        /* \"#utility.yul\":1362:1367   */\n      dup2\n        /* \"#utility.yul\":1347:1368   */\n      tag_48\n      jump\t// in\n    tag_70:\n        /* \"#utility.yul\":1342:1345   */\n      dup3\n        /* \"#utility.yul\":1335:1369   */\n      mstore\n        /* \"#utility.yul\":1266:1375   */\n      pop\n      pop\n      jump\t// out\n        /* \"#utility.yul\":1381:1591   */\n    tag_11:\n        /* \"#utility.yul\":1468:1472   */\n      0x00\n        /* \"#utility.yul\":1506:1508   */\n      0x20\n        /* \"#utility.yul\":1495:1504   */\n      dup3\n        /* \"#utility.yul\":1491:1509   */\n      add\n        /* \"#utility.yul\":1483:1509   */\n      swap1\n      pop\n        /* \"#utility.yul\":1519:1584   */\n      tag_72\n        /* \"#utility.yul\":1581:1582   */\n      0x00\n        /* \"#utility.yul\":1570:1579   */\n      dup4\n        /* \"#utility.yul\":1566:1583   */\n      add\n        /* \"#utility.yul\":1557:1563   */\n      dup5\n        /* \"#utility.yul\":1519:1584   */\n      tag_49\n      jump\t// in\n    tag_72:\n        /* \"#utility.yul\":1381:1591   */\n      swap3\n      swap2\n      pop\n      pop\n      jump\t// out\n        /* \"#utility.yul\":1597:1926   */\n    tag_14:\n        /* \"#utility.yul\":1656:1662   */\n      0x00\n        /* \"#utility.yul\":1705:1707   */\n      0x20\n        /* \"#utility.yul\":1693:1702   */\n      dup3\n        /* \"#utility.yul\":1684:1691   */\n      dup5\n        /* \"#utility.yul\":1680:1703   */\n      sub\n        /* \"#utility.yul\":1676:1708   */\n      slt\n        /* \"#utility.yul\":1673:1792   */\n      iszero\n      tag_74\n      jumpi\n        /* \"#utility.yul\":1711:1790   */\n      tag_75\n      tag_43\n      jump\t// in\n    tag_75:\n        /* \"#utility.yul\":1673:1792   */\n    tag_74:\n        /* \"#utility.yul\":1831:1832   */\n      0x00\n        /* \"#utility.yul\":1856:1909   */\n      tag_76\n        /* \"#utility.yul\":1901:1908   */\n      dup5\n        /* \"#utility.yul\":1892:1898   */\n      dup3\n        /* \"#utility.yul\":1881:1890   */\n      dup6\n        /* \"#utility.yul\":1877:1899   */\n      add\n        /* \"#utility.yul\":1856:1909   */\n      tag_47\n      jump\t// in\n    tag_76:\n        /* \"#utility.yul\":1846:1909   */\n      swap2\n      pop\n        /* \"#utility.yul\":1802:1919   */\n      pop\n        /* \"#utility.yul\":1597:1926   */\n      swap3\n      swap2\n      pop\n      pop\n      jump\t// out\n        /* \"#utility.yul\":1932:2050   */\n    tag_50:\n        /* \"#utility.yul\":2019:2043   */\n      tag_78\n        /* \"#utility.yul\":2037:2042   */\n      dup2\n        /* \"#utility.yul\":2019:2043   */\n      tag_45\n      jump\t// in\n    tag_78:\n        /* \"#utility.yul\":2014:2017   */\n      dup3\n        /* \"#utility.yul\":2007:2044   */\n      mstore\n        /* \"#utility.yul\":1932:2050   */\n      pop\n      pop\n      jump\t// out\n        /* \"#utility.yul\":2056:2278   */\n    tag_17:\n        /* \"#utility.yul\":2149:2153   */\n      0x00\n        /* \"#utility.yul\":2187:2189   */\n      0x20\n        /* \"#utility.yul\":2176:2185   */\n      dup3\n        /* \"#utility.yul\":2172:2190   */\n      add\n        /* \"#utility.yul\":2164:2190   */\n      swap1\n      pop\n        /* \"#utility.yul\":2200:2271   */\n      tag_80\n        /* \"#utility.yul\":2268:2269   */\n      0x00\n        /* \"#utility.yul\":2257:2266   */\n      dup4\n        /* \"#utility.yul\":2253:2270   */\n      add\n        /* \"#utility.yul\":2244:2250   */\n      dup5\n        /* \"#utility.yul\":2200:2271   */\n      tag_50\n      jump\t// in\n    tag_80:\n        /* \"#utility.yul\":2056:2278   */\n      swap3\n      swap2\n      pop\n      pop\n      jump\t// out\n        /* \"#utility.yul\":2284:2464   */\n    tag_51:\n        /* \"#utility.yul\":2332:2409   */\n      0x4e487b7100000000000000000000000000000000000000000000000000000000\n        /* \"#utility.yul\":2329:2330   */\n      0x00\n        /* \"#utility.yul\":2322:2410   */\n      mstore\n        /* \"#utility.yul\":2429:2433   */\n      0x12\n        /* \"#utility.yul\":2426:2427   */\n      0x04\n        /* \"#utility.yul\":2419:2434   */\n      mstore\n        /* \"#utility.yul\":2453:2457   */\n      0x24\n        /* \"#utility.yul\":2450:2451   */\n      0x00\n        /* \"#utility.yul\":2443:2458   */\n      revert\n        /* \"#utility.yul\":2470:2646   */\n    tag_24:\n        /* \"#utility.yul\":2502:2503   */\n      0x00\n        /* \"#utility.yul\":2519:2539   */\n      tag_83\n        /* \"#utility.yul\":2537:2538   */\n      dup3\n        /* \"#utility.yul\":2519:2539   */\n      tag_45\n      jump\t// in\n    tag_83:\n        /* \"#utility.yul\":2514:2539   */\n      swap2\n      pop\n        /* \"#utility.yul\":2553:2573   */\n      tag_84\n        /* \"#utility.yul\":2571:2572   */\n      dup4\n        /* \"#utility.yul\":2553:2573   */\n      tag_45\n      jump\t// in\n    tag_84:\n        /* \"#utility.yul\":2548:2573   */\n      swap3\n      pop\n        /* \"#utility.yul\":2592:2593   */\n      dup3\n        /* \"#utility.yul\":2582:2617   */\n      tag_85\n      jumpi\n        /* \"#utility.yul\":2597:2615   */\n      tag_86\n      tag_51\n      jump\t// in\n    tag_86:\n        /* \"#utility.yul\":2582:2617   */\n    tag_85:\n        /* \"#utility.yul\":2638:2639   */\n      dup3\n        /* \"#utility.yul\":2635:2636   */\n      dup3\n        /* \"#utility.yul\":2631:2640   */\n      mod\n        /* \"#utility.yul\":2626:2640   */\n      swap1\n      pop\n        /* \"#utility.yul\":2470:2646   */\n      swap3\n      swap2\n      pop\n      pop\n      jump\t// out\n        /* \"#utility.yul\":2652:2832   */\n    tag_34:\n        /* \"#utility.yul\":2700:2777   */\n      0x4e487b7100000000000000000000000000000000000000000000000000000000\n        /* \"#utility.yul\":2697:2698   */\n      0x00\n        /* \"#utility.yul\":2690:2778   */\n      mstore\n        /* \"#utility.yul\":2797:2801   */\n      0x32\n        /* \"#utility.yul\":2794:2795   */\n      0x04\n        /* \"#utility.yul\":2787:2802   */\n      mstore\n        /* \"#utility.yul\":2821:2825   */\n      0x24\n        /* \"#utility.yul\":2818:2819   */\n      0x00\n        /* \"#utility.yul\":2811:2826   */\n      revert\n        /* \"#utility.yul\":2838:3018   */\n    tag_52:\n        /* \"#utility.yul\":2886:2963   */\n      0x4e487b7100000000000000000000000000000000000000000000000000000000\n        /* \"#utility.yul\":2883:2884   */\n      0x00\n        /* \"#utility.yul\":2876:2964   */\n      mstore\n        /* \"#utility.yul\":2983:2987   */\n      0x11\n        /* \"#utility.yul\":2980:2981   */\n      0x04\n        /* \"#utility.yul\":2973:2988   */\n      mstore\n        /* \"#utility.yul\":3007:3011   */\n      0x24\n        /* \"#utility.yul\":3004:3005   */\n      0x00\n        /* \"#utility.yul\":2997:3012   */\n      revert\n        /* \"#utility.yul\":3024:3257   */\n    tag_38:\n        /* \"#utility.yul\":3063:3066   */\n      0x00\n        /* \"#utility.yul\":3086:3110   */\n      tag_90\n        /* \"#utility.yul\":3104:3109   */\n      dup3\n        /* \"#utility.yul\":3086:3110   */\n      tag_45\n      jump\t// in\n    tag_90:\n        /* \"#utility.yul\":3077:3110   */\n      swap2\n      pop\n        /* \"#utility.yul\":3132:3198   */\n      0xffffffffffffffffffffffffffffffffffffffffffffffffffffffffffffffff\n        /* \"#utility.yul\":3125:3130   */\n      dup3\n        /* \"#utility.yul\":3122:3199   */\n      sub\n        /* \"#utility.yul\":3119:3222   */\n      tag_91\n      jumpi\n        /* \"#utility.yul\":3202:3220   */\n      tag_92\n      tag_52\n      jump\t// in\n    tag_92:\n        /* \"#utility.yul\":3119:3222   */\n    tag_91:\n        /* \"#utility.yul\":3249:3250   */\n      0x01\n        /* \"#utility.yul\":3242:3247   */\n      dup3\n        /* \"#utility.yul\":3238:3251   */\n      add\n        /* \"#utility.yul\":3231:3251   */\n      swap1\n      pop\n        /* \"#utility.yul\":3024:3257   */\n      swap2\n      swap1\n      pop\n      jump\t// out\n\n    auxdata: 0xa2646970667358221220b2236ccc11f16f70707346a69e1abe42bee70b70f256de0cbf83ca943497bfd364736f6c63430008120033\n}\n",
				"bytecode": {
					"linkReferences": {},
					"object": "6080604052604051806101400160405280600160ff168152602001600260ff168152602001600360ff168152602001600460ff168152602001600560ff168152602001600660ff168152602001600760ff168152602001600860ff168152602001600960ff168152602001600a60ff16815250600090600a610082929190610095565b5034801561008f57600080fd5b50610104565b8280548282559060005260206000209081019282156100d6579160200282015b828111156100d5578251829060ff169055916020019190600101906100b5565b5b5090506100e391906100e7565b5090565b5b808211156101005760008160009055506001016100e8565b5090565b6103da806101136000396000f3fe608060405234801561001057600080fd5b50600436106100415760003560e01c806316985d151461004657806346c0d4d21461007657806382343a1e146100a6575b600080fd5b610060600480360381019061005b91906101d1565b6100d6565b60405161006d919061022c565b60405180910390f35b610090600480360381019061008b9190610247565b6100fe565b60405161009d9190610283565b60405180910390f35b6100c060048036038101906100bb9190610247565b610172565b6040516100cd9190610283565b60405180910390f35b60008082846100e591906102cd565b036100f357600190506100f8565b600090505b92915050565b600080600090506000600190505b60008054905081101561016857610141600082815481106101305761012f6102fe565b5b9060005260206000200154856100d6565b156101555781806101519061035c565b9250505b80806101609061035c565b91505061010c565b5080915050919050565b6000818154811061018257600080fd5b906000526020600020016000915090505481565b600080fd5b6000819050919050565b6101ae8161019b565b81146101b957600080fd5b50565b6000813590506101cb816101a5565b92915050565b600080604083850312156101e8576101e7610196565b5b60006101f6858286016101bc565b9250506020610207858286016101bc565b9150509250929050565b60008115159050919050565b61022681610211565b82525050565b6000602082019050610241600083018461021d565b92915050565b60006020828403121561025d5761025c610196565b5b600061026b848285016101bc565b91505092915050565b61027d8161019b565b82525050565b60006020820190506102986000830184610274565b92915050565b7f4e487b7100000000000000000000000000000000000000000000000000000000600052601260045260246000fd5b60006102d88261019b565b91506102e38361019b565b9250826102f3576102f261029e565b5b828206905092915050565b7f4e487b7100000000000000000000000000000000000000000000000000000000600052603260045260246000fd5b7f4e487b7100000000000000000000000000000000000000000000000000000000600052601160045260246000fd5b60006103678261019b565b91507fffffffffffffffffffffffffffffffffffffffffffffffffffffffffffffffff82036103995761039861032d565b5b60018201905091905056fea2646970667358221220b2236ccc11f16f70707346a69e1abe42bee70b70f256de0cbf83ca943497bfd364736f6c63430008120033",
					"opcodes": "PUSH1 0x80 PUSH1 0x40 MSTORE PUSH1 0x40 MLOAD DUP1 PUSH2 0x140 ADD PUSH1 0x40 MSTORE DUP1 PUSH1 0x1 PUSH1 0xFF AND DUP2 MSTORE PUSH1 0x20 ADD PUSH1 0x2 PUSH1 0xFF AND DUP2 MSTORE PUSH1 0x20 ADD PUSH1 0x3 PUSH1 0xFF AND DUP2 MSTORE PUSH1 0x20 ADD PUSH1 0x4 PUSH1 0xFF AND DUP2 MSTORE PUSH1 0x20 ADD PUSH1 0x5 PUSH1 0xFF AND DUP2 MSTORE PUSH1 0x20 ADD PUSH1 0x6 PUSH1 0xFF AND DUP2 MSTORE PUSH1 0x20 ADD PUSH1 0x7 PUSH1 0xFF AND DUP2 MSTORE PUSH1 0x20 ADD PUSH1 0x8 PUSH1 0xFF AND DUP2 MSTORE PUSH1 0x20 ADD PUSH1 0x9 PUSH1 0xFF AND DUP2 MSTORE PUSH1 0x20 ADD PUSH1 0xA PUSH1 0xFF AND DUP2 MSTORE POP PUSH1 0x0 SWAP1 PUSH1 0xA PUSH2 0x82 SWAP3 SWAP2 SWAP1 PUSH2 0x95 JUMP JUMPDEST POP CALLVALUE DUP1 ISZERO PUSH2 0x8F JUMPI PUSH1 0x0 DUP1 REVERT JUMPDEST POP PUSH2 0x104 JUMP JUMPDEST DUP3 DUP1 SLOAD DUP3 DUP3 SSTORE SWAP1 PUSH1 0x0 MSTORE PUSH1 0x20 PUSH1 0x0 KECCAK256 SWAP1 DUP2 ADD SWAP3 DUP3 ISZERO PUSH2 0xD6 JUMPI SWAP2 PUSH1 0x20 MUL DUP3 ADD JUMPDEST DUP3 DUP2 GT ISZERO PUSH2 0xD5 JUMPI DUP3 MLOAD DUP3 SWAP1 PUSH1 0xFF AND SWAP1 SSTORE SWAP2 PUSH1 0x20 ADD SWAP2 SWAP1 PUSH1 0x1 ADD SWAP1 PUSH2 0xB5 JUMP JUMPDEST JUMPDEST POP SWAP1 POP PUSH2 0xE3 SWAP2 SWAP1 PUSH2 0xE7 JUMP JUMPDEST POP SWAP1 JUMP JUMPDEST JUMPDEST DUP1 DUP3 GT ISZERO PUSH2 0x100 JUMPI PUSH1 0x0 DUP2 PUSH1 0x0 SWAP1 SSTORE POP PUSH1 0x1 ADD PUSH2 0xE8 JUMP JUMPDEST POP SWAP1 JUMP JUMPDEST PUSH2 0x3DA DUP1 PUSH2 0x113 PUSH1 0x0 CODECOPY PUSH1 0x0 RETURN INVALID PUSH1 0x80 PUSH1 0x40 MSTORE CALLVALUE DUP1 ISZERO PUSH2 0x10 JUMPI PUSH1 0x0 DUP1 REVERT JUMPDEST POP PUSH1 0x4 CALLDATASIZE LT PUSH2 0x41 JUMPI PUSH1 0x0 CALLDATALOAD PUSH1 0xE0 SHR DUP1 PUSH4 0x16985D15 EQ PUSH2 0x46 JUMPI DUP1 PUSH4 0x46C0D4D2 EQ PUSH2 0x76 JUMPI DUP1 PUSH4 0x82343A1E EQ PUSH2 0xA6 JUMPI JUMPDEST PUSH1 0x0 DUP1 REVERT JUMPDEST PUSH2 0x60 PUSH1 0x4 DUP1 CALLDATASIZE SUB DUP2 ADD SWAP1 PUSH2 0x5B SWAP2 SWAP1 PUSH2 0x1D1 JUMP JUMPDEST PUSH2 0xD6 JUMP JUMPDEST PUSH1 0x40 MLOAD PUSH2 0x6D SWAP2 SWAP1 PUSH2 0x22C JUMP JUMPDEST PUSH1 0x40 MLOAD DUP1 SWAP2 SUB SWAP1 RETURN JUMPDEST PUSH2 0x90 PUSH1 0x4 DUP1 CALLDATASIZE SUB DUP2 ADD SWAP1 PUSH2 0x8B SWAP2 SWAP1 PUSH2 0x247 JUMP JUMPDEST PUSH2 0xFE JUMP JUMPDEST PUSH1 0x40 MLOAD PUSH2 0x9D SWAP2 SWAP1 PUSH2 0x283 JUMP JUMPDEST PUSH1 0x40 MLOAD DUP1 SWAP2 SUB SWAP1 RETURN JUMPDEST PUSH2 0xC0 PUSH1 0x4 DUP1 CALLDATASIZE SUB DUP2 ADD SWAP1 PUSH2 0xBB SWAP2 SWAP1 PUSH2 0x247 JUMP JUMPDEST PUSH2 0x172 JUMP JUMPDEST PUSH1 0x40 MLOAD PUSH2 0xCD SWAP2 SWAP1 PUSH2 0x283 JUMP JUMPDEST PUSH1 0x40 MLOAD DUP1 SWAP2 SUB SWAP1 RETURN JUMPDEST PUSH1 0x0 DUP1 DUP3 DUP5 PUSH2 0xE5 SWAP2 SWAP1 PUSH2 0x2CD JUMP JUMPDEST SUB PUSH2 0xF3 JUMPI PUSH1 0x1 SWAP1 POP PUSH2 0xF8 JUMP JUMPDEST PUSH1 0x0 SWAP1 POP JUMPDEST SWAP3 SWAP2 POP POP JUMP JUMPDEST PUSH1 0x0 DUP1 PUSH1 0x0 SWAP1 POP PUSH1 0x0 PUSH1 0x1 SWAP1 POP JUMPDEST PUSH1 0x0 DUP1 SLOAD SWAP1 POP DUP2 LT ISZERO PUSH2 0x168 JUMPI PUSH2 0x141 PUSH1 0x0 DUP3 DUP2 SLOAD DUP2 LT PUSH2 0x130 JUMPI PUSH2 0x12F PUSH2 0x2FE JUMP JUMPDEST JUMPDEST SWAP1 PUSH1 0x0 MSTORE PUSH1 0x20 PUSH1 0x0 KECCAK256 ADD SLOAD DUP6 PUSH2 0xD6 JUMP JUMPDEST ISZERO PUSH2 0x155 JUMPI DUP2 DUP1 PUSH2 0x151 SWAP1 PUSH2 0x35C JUMP JUMPDEST SWAP3 POP POP JUMPDEST DUP1 DUP1 PUSH2 0x160 SWAP1 PUSH2 0x35C JUMP JUMPDEST SWAP2 POP POP PUSH2 0x10C JUMP JUMPDEST POP DUP1 SWAP2 POP POP SWAP2 SWAP1 POP JUMP JUMPDEST PUSH1 0x0 DUP2 DUP2 SLOAD DUP2 LT PUSH2 0x182 JUMPI PUSH1 0x0 DUP1 REVERT JUMPDEST SWAP1 PUSH1 0x0 MSTORE PUSH1 0x20 PUSH1 0x0 KECCAK256 ADD PUSH1 0x0 SWAP2 POP SWAP1 POP SLOAD DUP2 JUMP JUMPDEST PUSH1 0x0 DUP1 REVERT JUMPDEST PUSH1 0x0 DUP2 SWAP1 POP SWAP2 SWAP1 POP JUMP JUMPDEST PUSH2 0x1AE DUP2 PUSH2 0x19B JUMP JUMPDEST DUP2 EQ PUSH2 0x1B9 JUMPI PUSH1 0x0 DUP1 REVERT JUMPDEST POP JUMP JUMPDEST PUSH1 0x0 DUP2 CALLDATALOAD SWAP1 POP PUSH2 0x1CB DUP2 PUSH2 0x1A5 JUMP JUMPDEST SWAP3 SWAP2 POP POP JUMP JUMPDEST PUSH1 0x0 DUP1 PUSH1 0x40 DUP4 DUP6 SUB SLT ISZERO PUSH2 0x1E8 JUMPI PUSH2 0x1E7 PUSH2 0x196 JUMP JUMPDEST JUMPDEST PUSH1 0x0 PUSH2 0x1F6 DUP6 DUP3 DUP7 ADD PUSH2 0x1BC JUMP JUMPDEST SWAP3 POP POP PUSH1 0x20 PUSH2 0x207 DUP6 DUP3 DUP7 ADD PUSH2 0x1BC JUMP JUMPDEST SWAP2 POP POP SWAP3 POP SWAP3 SWAP1 POP JUMP JUMPDEST PUSH1 0x0 DUP2 ISZERO ISZERO SWAP1 POP SWAP2 SWAP1 POP JUMP JUMPDEST PUSH2 0x226 DUP2 PUSH2 0x211 JUMP JUMPDEST DUP3 MSTORE POP POP JUMP JUMPDEST PUSH1 0x0 PUSH1 0x20 DUP3 ADD SWAP1 POP PUSH2 0x241 PUSH1 0x0 DUP4 ADD DUP5 PUSH2 0x21D JUMP JUMPDEST SWAP3 SWAP2 POP POP JUMP JUMPDEST PUSH1 0x0 PUSH1 0x20 DUP3 DUP5 SUB SLT ISZERO PUSH2 0x25D JUMPI PUSH2 0x25C PUSH2 0x196 JUMP JUMPDEST JUMPDEST PUSH1 0x0 PUSH2 0x26B DUP5 DUP3 DUP6 ADD PUSH2 0x1BC JUMP JUMPDEST SWAP2 POP POP SWAP3 SWAP2 POP POP JUMP JUMPDEST PUSH2 0x27D DUP2 PUSH2 0x19B JUMP JUMPDEST DUP3 MSTORE POP POP JUMP JUMPDEST PUSH1 0x0 PUSH1 0x20 DUP3 ADD SWAP1 POP PUSH2 0x298 PUSH1 0x0 DUP4 ADD DUP5 PUSH2 0x274 JUMP JUMPDEST SWAP3 SWAP2 POP POP JUMP JUMPDEST PUSH32 0x4E487B7100000000000000000000000000000000000000000000000000000000 PUSH1 0x0 MSTORE PUSH1 0x12 PUSH1 0x4 MSTORE PUSH1 0x24 PUSH1 0x0 REVERT JUMPDEST PUSH1 0x0 PUSH2 0x2D8 DUP3 PUSH2 0x19B JUMP JUMPDEST SWAP2 POP PUSH2 0x2E3 DUP4 PUSH2 0x19B JUMP JUMPDEST SWAP3 POP DUP3 PUSH2 0x2F3 JUMPI PUSH2 0x2F2 PUSH2 0x29E JUMP JUMPDEST JUMPDEST DUP3 DUP3 MOD SWAP1 POP SWAP3 SWAP2 POP POP JUMP JUMPDEST PUSH32 0x4E487B7100000000000000000000000000000000000000000000000000000000 PUSH1 0x0 MSTORE PUSH1 0x32 PUSH1 0x4 MSTORE PUSH1 0x24 PUSH1 0x0 REVERT JUMPDEST PUSH32 0x4E487B7100000000000000000000000000000000000000000000000000000000 PUSH1 0x0 MSTORE PUSH1 0x11 PUSH1 0x4 MSTORE PUSH1 0x24 PUSH1 0x0 REVERT JUMPDEST PUSH1 0x0 PUSH2 0x367 DUP3 PUSH2 0x19B JUMP JUMPDEST SWAP2 POP PUSH32 0xFFFFFFFFFFFFFFFFFFFFFFFFFFFFFFFFFFFFFFFFFFFFFFFFFFFFFFFFFFFFFFFF DUP3 SUB PUSH2 0x399 JUMPI PUSH2 0x398 PUSH2 0x32D JUMP JUMPDEST JUMPDEST PUSH1 0x1 DUP3 ADD SWAP1 POP SWAP2 SWAP1 POP JUMP INVALID LOG2 PUSH5 0x6970667358 0x22 SLT KECCAK256 0xB2 0x23 PUSH13 0xCC11F16F70707346A69E1ABE42 0xBE 0xE7 SIGNEXTEND PUSH17 0xF256DE0CBF83CA943497BFD364736F6C63 NUMBER STOP ADDMOD SLT STOP CALLER "
				},
				"gasEstimates": {
					"creation": {
						"codeDepositCost": "197200",
						"executionCost": "infinite",
						"totalCost": "infinite"
					},
					"external": {
						"checkMultipleValidity(uint256,uint256)": "infinite",
						"checkMultiples(uint256)": "infinite",
						"numbersList(uint256)": "infinite"
					}
				},
				"methodIdentifiers": {
					"checkMultipleValidity(uint256,uint256)": "16985d15",
					"checkMultiples(uint256)": "46c0d4d2",
					"numbersList(uint256)": "82343a1e"
				}
			},
			"storageLayout": {
				"storage": [
					{
						"astId": 15,
						"contract": "contracts/artifacts/artifacts/build-info/loops-practices.sol:loopContract",
						"label": "numbersList",
						"offset": 0,
						"slot": "0",
						"type": "t_array(t_uint256)dyn_storage"
					}
				],
				"types": {
					"t_array(t_uint256)dyn_storage": {
						"base": "t_uint256",
						"encoding": "dynamic_array",
						"label": "uint256[]",
						"numberOfBytes": "32"
					},
					"t_uint256": {
						"encoding": "inplace",
						"label": "uint256",
						"numberOfBytes": "32"
					}
				}
			},
			"userdoc": {
				"kind": "user",
				"methods": {},
				"version": 1
			}
		}
	}
}