{
	"data": {
		"bytecode": {
			"linkReferences": {},
			"object": "608060405234801561001057600080fd5b50610125806100206000396000f3fe6080604052348015600f57600080fd5b506004361060285760003560e01c8063ce3e39c014602d575b600080fd5b60336047565b604051603e91906083565b60405180910390f35b6000806005905060006007905060008280605f9060cb565b9350905080935050505090565b6000819050919050565b607d81606c565b82525050565b6000602082019050609660008301846076565b92915050565b7f4e487b7100000000000000000000000000000000000000000000000000000000600052601160045260246000fd5b600060d482606c565b91506000820360e45760e3609c565b5b60018203905091905056fea2646970667358221220dc63e0ce7eba6f0223300ba216eb4041ee91176613357e9dc61985fae7c4920164736f6c63430008120033",
			"opcodes": "PUSH1 0x80 PUSH1 0x40 MSTORE CALLVALUE DUP1 ISZERO PUSH2 0x10 JUMPI PUSH1 0x0 DUP1 REVERT JUMPDEST POP PUSH2 0x125 DUP1 PUSH2 0x20 PUSH1 0x0 CODECOPY PUSH1 0x0 RETURN INVALID PUSH1 0x80 PUSH1 0x40 MSTORE CALLVALUE DUP1 ISZERO PUSH1 0xF JUMPI PUSH1 0x0 DUP1 REVERT JUMPDEST POP PUSH1 0x4 CALLDATASIZE LT PUSH1 0x28 JUMPI PUSH1 0x0 CALLDATALOAD PUSH1 0xE0 SHR DUP1 PUSH4 0xCE3E39C0 EQ PUSH1 0x2D JUMPI JUMPDEST PUSH1 0x0 DUP1 REVERT JUMPDEST PUSH1 0x33 PUSH1 0x47 JUMP JUMPDEST PUSH1 0x40 MLOAD PUSH1 0x3E SWAP2 SWAP1 PUSH1 0x83 JUMP JUMPDEST PUSH1 0x40 MLOAD DUP1 SWAP2 SUB SWAP1 RETURN JUMPDEST PUSH1 0x0 DUP1 PUSH1 0x5 SWAP1 POP PUSH1 0x0 PUSH1 0x7 SWAP1 POP PUSH1 0x0 DUP3 DUP1 PUSH1 0x5F SWAP1 PUSH1 0xCB JUMP JUMPDEST SWAP4 POP SWAP1 POP DUP1 SWAP4 POP POP POP POP SWAP1 JUMP JUMPDEST PUSH1 0x0 DUP2 SWAP1 POP SWAP2 SWAP1 POP JUMP JUMPDEST PUSH1 0x7D DUP2 PUSH1 0x6C JUMP JUMPDEST DUP3 MSTORE POP POP JUMP JUMPDEST PUSH1 0x0 PUSH1 0x20 DUP3 ADD SWAP1 POP PUSH1 0x96 PUSH1 0x0 DUP4 ADD DUP5 PUSH1 0x76 JUMP JUMPDEST SWAP3 SWAP2 POP POP JUMP JUMPDEST PUSH32 0x4E487B7100000000000000000000000000000000000000000000000000000000 PUSH1 0x0 MSTORE PUSH1 0x11 PUSH1 0x4 MSTORE PUSH1 0x24 PUSH1 0x0 REVERT JUMPDEST PUSH1 0x0 PUSH1 0xD4 DUP3 PUSH1 0x6C JUMP JUMPDEST SWAP2 POP PUSH1 0x0 DUP3 SUB PUSH1 0xE4 JUMPI PUSH1 0xE3 PUSH1 0x9C JUMP JUMPDEST JUMPDEST PUSH1 0x1 DUP3 SUB SWAP1 POP SWAP2 SWAP1 POP JUMP INVALID LOG2 PUSH5 0x6970667358 0x22 SLT KECCAK256 0xDC PUSH4 0xE0CE7EBA PUSH16 0x223300BA216EB4041EE91176613357E SWAP14 0xC6 NOT DUP6 STATICCALL 0xE7 0xC4 SWAP3 ADD PUSH5 0x736F6C6343 STOP ADDMOD SLT STOP CALLER "
		},
		"gasEstimates": {
			"creation": {
				"codeDepositCost": "58600",
				"executionCost": "111",
				"totalCost": "58711"
			},
			"external": {
				"calculator()": "infinite"
			}
		},
		"methodIdentifiers": {
			"calculator()": "ce3e39c0"
		}
	},
	"abi": [
		{
			"inputs": [],
			"name": "calculator",
			"outputs": [
				{
					"internalType": "uint256",
					"name": "",
					"type": "uint256"
				}
			],
			"stateMutability": "pure",
			"type": "function"
		}
	]
}