{
	"data": {
		"bytecode": {
			"linkReferences": {},
			"object": "6080604052610143600055603660015534801561001b57600080fd5b506101288061002b6000396000f3fe6080604052348015600f57600080fd5b506004361060285760003560e01c80633da0ac7914602d575b600080fd5b60336035565b005b60015460005411156079576040517f08c379a000000000000000000000000000000000000000000000000000000000815260040160709060d4565b60405180910390fd5b565b600082825260208201905092915050565b7f5468697320636f6d70617269736f6e2069732066616c73652100000000000000600082015250565b600060c0601983607b565b915060c982608c565b602082019050919050565b6000602082019050818103600083015260eb8160b5565b905091905056fea26469706673582212207bb54357f6f54903637f75dd87d90da26c458bed2d74b3cc2f34998bfe56017364736f6c63430008120033",
			"opcodes": "PUSH1 0x80 PUSH1 0x40 MSTORE PUSH2 0x143 PUSH1 0x0 SSTORE PUSH1 0x36 PUSH1 0x1 SSTORE CALLVALUE DUP1 ISZERO PUSH2 0x1B JUMPI PUSH1 0x0 DUP1 REVERT JUMPDEST POP PUSH2 0x128 DUP1 PUSH2 0x2B PUSH1 0x0 CODECOPY PUSH1 0x0 RETURN INVALID PUSH1 0x80 PUSH1 0x40 MSTORE CALLVALUE DUP1 ISZERO PUSH1 0xF JUMPI PUSH1 0x0 DUP1 REVERT JUMPDEST POP PUSH1 0x4 CALLDATASIZE LT PUSH1 0x28 JUMPI PUSH1 0x0 CALLDATALOAD PUSH1 0xE0 SHR DUP1 PUSH4 0x3DA0AC79 EQ PUSH1 0x2D JUMPI JUMPDEST PUSH1 0x0 DUP1 REVERT JUMPDEST PUSH1 0x33 PUSH1 0x35 JUMP JUMPDEST STOP JUMPDEST PUSH1 0x1 SLOAD PUSH1 0x0 SLOAD GT ISZERO PUSH1 0x79 JUMPI PUSH1 0x40 MLOAD PUSH32 0x8C379A000000000000000000000000000000000000000000000000000000000 DUP2 MSTORE PUSH1 0x4 ADD PUSH1 0x70 SWAP1 PUSH1 0xD4 JUMP JUMPDEST PUSH1 0x40 MLOAD DUP1 SWAP2 SUB SWAP1 REVERT JUMPDEST JUMP JUMPDEST PUSH1 0x0 DUP3 DUP3 MSTORE PUSH1 0x20 DUP3 ADD SWAP1 POP SWAP3 SWAP2 POP POP JUMP JUMPDEST PUSH32 0x5468697320636F6D70617269736F6E2069732066616C73652100000000000000 PUSH1 0x0 DUP3 ADD MSTORE POP JUMP JUMPDEST PUSH1 0x0 PUSH1 0xC0 PUSH1 0x19 DUP4 PUSH1 0x7B JUMP JUMPDEST SWAP2 POP PUSH1 0xC9 DUP3 PUSH1 0x8C JUMP JUMPDEST PUSH1 0x20 DUP3 ADD SWAP1 POP SWAP2 SWAP1 POP JUMP JUMPDEST PUSH1 0x0 PUSH1 0x20 DUP3 ADD SWAP1 POP DUP2 DUP2 SUB PUSH1 0x0 DUP4 ADD MSTORE PUSH1 0xEB DUP2 PUSH1 0xB5 JUMP JUMPDEST SWAP1 POP SWAP2 SWAP1 POP JUMP INVALID LOG2 PUSH5 0x6970667358 0x22 SLT KECCAK256 PUSH28 0xB54357F6F54903637F75DD87D90DA26C458BED2D74B3CC2F34998BFE JUMP ADD PUSH20 0x64736F6C63430008120033000000000000000000 "
		},
		"gasEstimates": {
			"creation": {
				"codeDepositCost": "59200",
				"executionCost": "44323",
				"totalCost": "103523"
			},
			"external": {
				"compare()": "4637"
			}
		},
		"methodIdentifiers": {
			"compare()": "3da0ac79"
		}
	},
	"abi": [
		{
			"inputs": [],
			"name": "compare",
			"outputs": [],
			"stateMutability": "view",
			"type": "function"
		}
	]
}