{
	"data": {
		"bytecode": {
			"linkReferences": {},
			"object": "60806040526011600055602060015534801561001a57600080fd5b506101668061002a6000396000f3fe608060405234801561001057600080fd5b506004361061002b5760003560e01c8063d7dfa0dd14610030575b600080fd5b61003861004e565b60405161004591906100a4565b60405180910390f35b6000806000905060005460015411801561006c575060015460005414155b156100845760015460005461008191906100ee565b90505b8091505090565b6000819050919050565b61009e8161008b565b82525050565b60006020820190506100b96000830184610095565b92915050565b7f4e487b7100000000000000000000000000000000000000000000000000000000600052601160045260246000fd5b60006100f98261008b565b91506101048361008b565b92508282026101128161008b565b91508282048414831517610129576101286100bf565b5b509291505056fea2646970667358221220b99bd87f9dbb6eff187d368f7e87b0c35f0ad1410cb8b5caa0d179052d9a237964736f6c63430008120033",
			"opcodes": "PUSH1 0x80 PUSH1 0x40 MSTORE PUSH1 0x11 PUSH1 0x0 SSTORE PUSH1 0x20 PUSH1 0x1 SSTORE CALLVALUE DUP1 ISZERO PUSH2 0x1A JUMPI PUSH1 0x0 DUP1 REVERT JUMPDEST POP PUSH2 0x166 DUP1 PUSH2 0x2A PUSH1 0x0 CODECOPY PUSH1 0x0 RETURN INVALID PUSH1 0x80 PUSH1 0x40 MSTORE CALLVALUE DUP1 ISZERO PUSH2 0x10 JUMPI PUSH1 0x0 DUP1 REVERT JUMPDEST POP PUSH1 0x4 CALLDATASIZE LT PUSH2 0x2B JUMPI PUSH1 0x0 CALLDATALOAD PUSH1 0xE0 SHR DUP1 PUSH4 0xD7DFA0DD EQ PUSH2 0x30 JUMPI JUMPDEST PUSH1 0x0 DUP1 REVERT JUMPDEST PUSH2 0x38 PUSH2 0x4E JUMP JUMPDEST PUSH1 0x40 MLOAD PUSH2 0x45 SWAP2 SWAP1 PUSH2 0xA4 JUMP JUMPDEST PUSH1 0x40 MLOAD DUP1 SWAP2 SUB SWAP1 RETURN JUMPDEST PUSH1 0x0 DUP1 PUSH1 0x0 SWAP1 POP PUSH1 0x0 SLOAD PUSH1 0x1 SLOAD GT DUP1 ISZERO PUSH2 0x6C JUMPI POP PUSH1 0x1 SLOAD PUSH1 0x0 SLOAD EQ ISZERO JUMPDEST ISZERO PUSH2 0x84 JUMPI PUSH1 0x1 SLOAD PUSH1 0x0 SLOAD PUSH2 0x81 SWAP2 SWAP1 PUSH2 0xEE JUMP JUMPDEST SWAP1 POP JUMPDEST DUP1 SWAP2 POP POP SWAP1 JUMP JUMPDEST PUSH1 0x0 DUP2 SWAP1 POP SWAP2 SWAP1 POP JUMP JUMPDEST PUSH2 0x9E DUP2 PUSH2 0x8B JUMP JUMPDEST DUP3 MSTORE POP POP JUMP JUMPDEST PUSH1 0x0 PUSH1 0x20 DUP3 ADD SWAP1 POP PUSH2 0xB9 PUSH1 0x0 DUP4 ADD DUP5 PUSH2 0x95 JUMP JUMPDEST SWAP3 SWAP2 POP POP JUMP JUMPDEST PUSH32 0x4E487B7100000000000000000000000000000000000000000000000000000000 PUSH1 0x0 MSTORE PUSH1 0x11 PUSH1 0x4 MSTORE PUSH1 0x24 PUSH1 0x0 REVERT JUMPDEST PUSH1 0x0 PUSH2 0xF9 DUP3 PUSH2 0x8B JUMP JUMPDEST SWAP2 POP PUSH2 0x104 DUP4 PUSH2 0x8B JUMP JUMPDEST SWAP3 POP DUP3 DUP3 MUL PUSH2 0x112 DUP2 PUSH2 0x8B JUMP JUMPDEST SWAP2 POP DUP3 DUP3 DIV DUP5 EQ DUP4 ISZERO OR PUSH2 0x129 JUMPI PUSH2 0x128 PUSH2 0xBF JUMP JUMPDEST JUMPDEST POP SWAP3 SWAP2 POP POP JUMP INVALID LOG2 PUSH5 0x6970667358 0x22 SLT KECCAK256 0xB9 SWAP12 0xD8 PUSH32 0x9DBB6EFF187D368F7E87B0C35F0AD1410CB8B5CAA0D179052D9A237964736F6C PUSH4 0x43000812 STOP CALLER "
		},
		"gasEstimates": {
			"creation": {
				"codeDepositCost": "71600",
				"executionCost": "44335",
				"totalCost": "115935"
			},
			"external": {
				"logic()": "infinite"
			}
		},
		"methodIdentifiers": {
			"logic()": "d7dfa0dd"
		}
	},
	"abi": [
		{
			"inputs": [],
			"name": "logic",
			"outputs": [
				{
					"internalType": "uint256",
					"name": "",
					"type": "uint256"
				}
			],
			"stateMutability": "view",
			"type": "function"
		}
	]
}