{
	"tests/myContraact.sol": {
		"bank": {
			"abi": [
				{
					"inputs": [
						{
							"internalType": "int256",
							"name": "amt",
							"type": "int256"
						}
					],
					"name": "deposite_money",
					"outputs": [],
					"stateMutability": "nonpayable",
					"type": "function"
				},
				{
					"inputs": [],
					"name": "getBalance",
					"outputs": [
						{
							"internalType": "int256",
							"name": "",
							"type": "int256"
						}
					],
					"stateMutability": "view",
					"type": "function"
				},
				{
					"inputs": [
						{
							"internalType": "int256",
							"name": "amt",
							"type": "int256"
						}
					],
					"name": "withdraw",
					"outputs": [],
					"stateMutability": "nonpayable",
					"type": "function"
				}
			],
			"devdoc": {
				"kind": "dev",
				"methods": {},
				"version": 1
			},
			"evm": {
				"assembly": "    /* \"tests/myContraact.sol\":74:339  contract bank {... */\n  mstore(0x40, 0x80)\n    /* \"tests/myContraact.sol\":105:106  0 */\n  0x00\n    /* \"tests/myContraact.sol\":95:106  int bal = 0 */\n  dup1\n  sstore\n    /* \"tests/myContraact.sol\":74:339  contract bank {... */\n  callvalue\n  dup1\n  iszero\n  tag_1\n  jumpi\n  0x00\n  dup1\n  revert\ntag_1:\n  pop\n  dataSize(sub_0)\n  dup1\n  dataOffset(sub_0)\n  0x00\n  codecopy\n  0x00\n  return\nstop\n\nsub_0: assembly {\n        /* \"tests/myContraact.sol\":74:339  contract bank {... */\n      mstore(0x40, 0x80)\n      callvalue\n      dup1\n      iszero\n      tag_1\n      jumpi\n      0x00\n      dup1\n      revert\n    tag_1:\n      pop\n      jumpi(tag_2, lt(calldatasize, 0x04))\n      shr(0xe0, calldataload(0x00))\n      dup1\n      0x12065fe0\n      eq\n      tag_3\n      jumpi\n      dup1\n      0x5d5f704f\n      eq\n      tag_4\n      jumpi\n      dup1\n      0x7e62eab8\n      eq\n      tag_5\n      jumpi\n    tag_2:\n      0x00\n      dup1\n      revert\n        /* \"tests/myContraact.sol\":261:336  function getBalance() public view returns(int){... */\n    tag_3:\n      tag_6\n      tag_7\n      jump\t// in\n    tag_6:\n      mload(0x40)\n      tag_8\n      swap2\n      swap1\n      tag_9\n      jump\t// in\n    tag_8:\n      mload(0x40)\n      dup1\n      swap2\n      sub\n      swap1\n      return\n        /* \"tests/myContraact.sol\":113:181  function deposite_money(int amt) public{... */\n    tag_4:\n      tag_10\n      0x04\n      dup1\n      calldatasize\n      sub\n      dup2\n      add\n      swap1\n      tag_11\n      swap2\n      swap1\n      tag_12\n      jump\t// in\n    tag_11:\n      tag_13\n      jump\t// in\n    tag_10:\n      stop\n        /* \"tests/myContraact.sol\":190:252  function withdraw(int amt) public{... */\n    tag_5:\n      tag_14\n      0x04\n      dup1\n      calldatasize\n      sub\n      dup2\n      add\n      swap1\n      tag_15\n      swap2\n      swap1\n      tag_12\n      jump\t// in\n    tag_15:\n      tag_16\n      jump\t// in\n    tag_14:\n      stop\n        /* \"tests/myContraact.sol\":261:336  function getBalance() public view returns(int){... */\n    tag_7:\n        /* \"tests/myContraact.sol\":303:306  int */\n      0x00\n        /* \"tests/myContraact.sol\":325:328  bal */\n      dup1\n      sload\n        /* \"tests/myContraact.sol\":318:328  return bal */\n      swap1\n      pop\n        /* \"tests/myContraact.sol\":261:336  function getBalance() public view returns(int){... */\n      swap1\n      jump\t// out\n        /* \"tests/myContraact.sol\":113:181  function deposite_money(int amt) public{... */\n    tag_13:\n        /* \"tests/myContraact.sol\":170:173  amt */\n      dup1\n        /* \"tests/myContraact.sol\":163:166  bal */\n      0x00\n      dup1\n        /* \"tests/myContraact.sol\":163:173  bal += amt */\n      dup3\n      dup3\n      sload\n      tag_19\n      swap2\n      swap1\n      tag_20\n      jump\t// in\n    tag_19:\n      swap3\n      pop\n      pop\n      dup2\n      swap1\n      sstore\n      pop\n        /* \"tests/myContraact.sol\":113:181  function deposite_money(int amt) public{... */\n      pop\n      jump\t// out\n        /* \"tests/myContraact.sol\":190:252  function withdraw(int amt) public{... */\n    tag_16:\n        /* \"tests/myContraact.sol\":241:244  amt */\n      dup1\n        /* \"tests/myContraact.sol\":234:237  bal */\n      0x00\n      dup1\n        /* \"tests/myContraact.sol\":234:244  bal -= amt */\n      dup3\n      dup3\n      sload\n      tag_22\n      swap2\n      swap1\n      tag_23\n      jump\t// in\n    tag_22:\n      swap3\n      pop\n      pop\n      dup2\n      swap1\n      sstore\n      pop\n        /* \"tests/myContraact.sol\":190:252  function withdraw(int amt) public{... */\n      pop\n      jump\t// out\n        /* \"#utility.yul\":7:83   */\n    tag_24:\n        /* \"#utility.yul\":43:50   */\n      0x00\n        /* \"#utility.yul\":72:77   */\n      dup2\n        /* \"#utility.yul\":61:77   */\n      swap1\n      pop\n        /* \"#utility.yul\":7:83   */\n      swap2\n      swap1\n      pop\n      jump\t// out\n        /* \"#utility.yul\":89:204   */\n    tag_25:\n        /* \"#utility.yul\":174:197   */\n      tag_35\n        /* \"#utility.yul\":191:196   */\n      dup2\n        /* \"#utility.yul\":174:197   */\n      tag_24\n      jump\t// in\n    tag_35:\n        /* \"#utility.yul\":169:172   */\n      dup3\n        /* \"#utility.yul\":162:198   */\n      mstore\n        /* \"#utility.yul\":89:204   */\n      pop\n      pop\n      jump\t// out\n        /* \"#utility.yul\":210:428   */\n    tag_9:\n        /* \"#utility.yul\":301:305   */\n      0x00\n        /* \"#utility.yul\":339:341   */\n      0x20\n        /* \"#utility.yul\":328:337   */\n      dup3\n        /* \"#utility.yul\":324:342   */\n      add\n        /* \"#utility.yul\":316:342   */\n      swap1\n      pop\n        /* \"#utility.yul\":352:421   */\n      tag_37\n        /* \"#utility.yul\":418:419   */\n      0x00\n        /* \"#utility.yul\":407:416   */\n      dup4\n        /* \"#utility.yul\":403:420   */\n      add\n        /* \"#utility.yul\":394:400   */\n      dup5\n        /* \"#utility.yul\":352:421   */\n      tag_25\n      jump\t// in\n    tag_37:\n        /* \"#utility.yul\":210:428   */\n      swap3\n      swap2\n      pop\n      pop\n      jump\t// out\n        /* \"#utility.yul\":515:632   */\n    tag_27:\n        /* \"#utility.yul\":624:625   */\n      0x00\n        /* \"#utility.yul\":621:622   */\n      dup1\n        /* \"#utility.yul\":614:626   */\n      revert\n        /* \"#utility.yul\":761:881   */\n    tag_29:\n        /* \"#utility.yul\":833:856   */\n      tag_42\n        /* \"#utility.yul\":850:855   */\n      dup2\n        /* \"#utility.yul\":833:856   */\n      tag_24\n      jump\t// in\n    tag_42:\n        /* \"#utility.yul\":826:831   */\n      dup2\n        /* \"#utility.yul\":823:857   */\n      eq\n        /* \"#utility.yul\":813:875   */\n      tag_43\n      jumpi\n        /* \"#utility.yul\":871:872   */\n      0x00\n        /* \"#utility.yul\":868:869   */\n      dup1\n        /* \"#utility.yul\":861:873   */\n      revert\n        /* \"#utility.yul\":813:875   */\n    tag_43:\n        /* \"#utility.yul\":761:881   */\n      pop\n      jump\t// out\n        /* \"#utility.yul\":887:1024   */\n    tag_30:\n        /* \"#utility.yul\":932:937   */\n      0x00\n        /* \"#utility.yul\":970:976   */\n      dup2\n        /* \"#utility.yul\":957:977   */\n      calldataload\n        /* \"#utility.yul\":948:977   */\n      swap1\n      pop\n        /* \"#utility.yul\":986:1018   */\n      tag_45\n        /* \"#utility.yul\":1012:1017   */\n      dup2\n        /* \"#utility.yul\":986:1018   */\n      tag_29\n      jump\t// in\n    tag_45:\n        /* \"#utility.yul\":887:1024   */\n      swap3\n      swap2\n      pop\n      pop\n      jump\t// out\n        /* \"#utility.yul\":1030:1357   */\n    tag_12:\n        /* \"#utility.yul\":1088:1094   */\n      0x00\n        /* \"#utility.yul\":1137:1139   */\n      0x20\n        /* \"#utility.yul\":1125:1134   */\n      dup3\n        /* \"#utility.yul\":1116:1123   */\n      dup5\n        /* \"#utility.yul\":1112:1135   */\n      sub\n        /* \"#utility.yul\":1108:1140   */\n      slt\n        /* \"#utility.yul\":1105:1224   */\n      iszero\n      tag_47\n      jumpi\n        /* \"#utility.yul\":1143:1222   */\n      tag_48\n      tag_27\n      jump\t// in\n    tag_48:\n        /* \"#utility.yul\":1105:1224   */\n    tag_47:\n        /* \"#utility.yul\":1263:1264   */\n      0x00\n        /* \"#utility.yul\":1288:1340   */\n      tag_49\n        /* \"#utility.yul\":1332:1339   */\n      dup5\n        /* \"#utility.yul\":1323:1329   */\n      dup3\n        /* \"#utility.yul\":1312:1321   */\n      dup6\n        /* \"#utility.yul\":1308:1330   */\n      add\n        /* \"#utility.yul\":1288:1340   */\n      tag_30\n      jump\t// in\n    tag_49:\n        /* \"#utility.yul\":1278:1340   */\n      swap2\n      pop\n        /* \"#utility.yul\":1234:1350   */\n      pop\n        /* \"#utility.yul\":1030:1357   */\n      swap3\n      swap2\n      pop\n      pop\n      jump\t// out\n        /* \"#utility.yul\":1363:1543   */\n    tag_31:\n        /* \"#utility.yul\":1411:1488   */\n      0x4e487b7100000000000000000000000000000000000000000000000000000000\n        /* \"#utility.yul\":1408:1409   */\n      0x00\n        /* \"#utility.yul\":1401:1489   */\n      mstore\n        /* \"#utility.yul\":1508:1512   */\n      0x11\n        /* \"#utility.yul\":1505:1506   */\n      0x04\n        /* \"#utility.yul\":1498:1513   */\n      mstore\n        /* \"#utility.yul\":1532:1536   */\n      0x24\n        /* \"#utility.yul\":1529:1530   */\n      0x00\n        /* \"#utility.yul\":1522:1537   */\n      revert\n        /* \"#utility.yul\":1549:1924   */\n    tag_20:\n        /* \"#utility.yul\":1588:1591   */\n      0x00\n        /* \"#utility.yul\":1607:1626   */\n      tag_52\n        /* \"#utility.yul\":1624:1625   */\n      dup3\n        /* \"#utility.yul\":1607:1626   */\n      tag_24\n      jump\t// in\n    tag_52:\n        /* \"#utility.yul\":1602:1626   */\n      swap2\n      pop\n        /* \"#utility.yul\":1640:1659   */\n      tag_53\n        /* \"#utility.yul\":1657:1658   */\n      dup4\n        /* \"#utility.yul\":1640:1659   */\n      tag_24\n      jump\t// in\n    tag_53:\n        /* \"#utility.yul\":1635:1659   */\n      swap3\n      pop\n        /* \"#utility.yul\":1682:1683   */\n      dup3\n        /* \"#utility.yul\":1679:1680   */\n      dup3\n        /* \"#utility.yul\":1675:1684   */\n      add\n        /* \"#utility.yul\":1668:1684   */\n      swap1\n      pop\n        /* \"#utility.yul\":1880:1881   */\n      dup3\n        /* \"#utility.yul\":1875:1878   */\n      dup2\n        /* \"#utility.yul\":1871:1882   */\n      slt\n        /* \"#utility.yul\":1864:1883   */\n      iszero\n        /* \"#utility.yul\":1860:1861   */\n      0x00\n        /* \"#utility.yul\":1857:1858   */\n      dup4\n        /* \"#utility.yul\":1853:1862   */\n      slt\n        /* \"#utility.yul\":1849:1884   */\n      and\n        /* \"#utility.yul\":1832:1833   */\n      dup4\n        /* \"#utility.yul\":1827:1830   */\n      dup3\n        /* \"#utility.yul\":1823:1834   */\n      slt\n        /* \"#utility.yul\":1818:1819   */\n      0x00\n        /* \"#utility.yul\":1815:1816   */\n      dup5\n        /* \"#utility.yul\":1811:1820   */\n      slt\n        /* \"#utility.yul\":1804:1821   */\n      iszero\n        /* \"#utility.yul\":1800:1835   */\n      and\n        /* \"#utility.yul\":1784:1894   */\n      or\n        /* \"#utility.yul\":1781:1917   */\n      iszero\n      tag_54\n      jumpi\n        /* \"#utility.yul\":1897:1915   */\n      tag_55\n      tag_31\n      jump\t// in\n    tag_55:\n        /* \"#utility.yul\":1781:1917   */\n    tag_54:\n        /* \"#utility.yul\":1549:1924   */\n      swap3\n      swap2\n      pop\n      pop\n      jump\t// out\n        /* \"#utility.yul\":1930:2302   */\n    tag_23:\n        /* \"#utility.yul\":1969:1973   */\n      0x00\n        /* \"#utility.yul\":1989:2008   */\n      tag_57\n        /* \"#utility.yul\":2006:2007   */\n      dup3\n        /* \"#utility.yul\":1989:2008   */\n      tag_24\n      jump\t// in\n    tag_57:\n        /* \"#utility.yul\":1984:2008   */\n      swap2\n      pop\n        /* \"#utility.yul\":2022:2041   */\n      tag_58\n        /* \"#utility.yul\":2039:2040   */\n      dup4\n        /* \"#utility.yul\":2022:2041   */\n      tag_24\n      jump\t// in\n    tag_58:\n        /* \"#utility.yul\":2017:2041   */\n      swap3\n      pop\n        /* \"#utility.yul\":2065:2066   */\n      dup3\n        /* \"#utility.yul\":2062:2063   */\n      dup3\n        /* \"#utility.yul\":2058:2067   */\n      sub\n        /* \"#utility.yul\":2050:2067   */\n      swap1\n      pop\n        /* \"#utility.yul\":2259:2260   */\n      dup2\n        /* \"#utility.yul\":2253:2257   */\n      dup2\n        /* \"#utility.yul\":2249:2261   */\n      slt\n        /* \"#utility.yul\":2245:2246   */\n      0x00\n        /* \"#utility.yul\":2242:2243   */\n      dup5\n        /* \"#utility.yul\":2238:2247   */\n      slt\n        /* \"#utility.yul\":2234:2262   */\n      and\n        /* \"#utility.yul\":2217:2218   */\n      dup3\n        /* \"#utility.yul\":2211:2215   */\n      dup3\n        /* \"#utility.yul\":2207:2219   */\n      sgt\n        /* \"#utility.yul\":2202:2203   */\n      0x00\n        /* \"#utility.yul\":2199:2200   */\n      dup6\n        /* \"#utility.yul\":2195:2204   */\n      slt\n        /* \"#utility.yul\":2188:2205   */\n      iszero\n        /* \"#utility.yul\":2184:2220   */\n      and\n        /* \"#utility.yul\":2168:2272   */\n      or\n        /* \"#utility.yul\":2165:2295   */\n      iszero\n      tag_59\n      jumpi\n        /* \"#utility.yul\":2275:2293   */\n      tag_60\n      tag_31\n      jump\t// in\n    tag_60:\n        /* \"#utility.yul\":2165:2295   */\n    tag_59:\n        /* \"#utility.yul\":1930:2302   */\n      swap3\n      swap2\n      pop\n      pop\n      jump\t// out\n\n    auxdata: 0xa26469706673582212204578f8fd7da0f5befebac33452cdf3ef29d5746e3e3b56b3aa358b65ce80b61864736f6c63430008120033\n}\n",
				"bytecode": {
					"linkReferences": {},
					"object": "60806040526000805534801561001457600080fd5b50610259806100246000396000f3fe608060405234801561001057600080fd5b50600436106100415760003560e01c806312065fe0146100465780635d5f704f146100645780637e62eab814610080575b600080fd5b61004e61009c565b60405161005b91906100f4565b60405180910390f35b61007e60048036038101906100799190610140565b6100a5565b005b61009a60048036038101906100959190610140565b6100c0565b005b60008054905090565b806000808282546100b6919061019c565b9250508190555050565b806000808282546100d191906101e0565b9250508190555050565b6000819050919050565b6100ee816100db565b82525050565b600060208201905061010960008301846100e5565b92915050565b600080fd5b61011d816100db565b811461012857600080fd5b50565b60008135905061013a81610114565b92915050565b6000602082840312156101565761015561010f565b5b60006101648482850161012b565b91505092915050565b7f4e487b7100000000000000000000000000000000000000000000000000000000600052601160045260246000fd5b60006101a7826100db565b91506101b2836100db565b9250828201905082811215600083121683821260008412151617156101da576101d961016d565b5b92915050565b60006101eb826100db565b91506101f6836100db565b925082820390508181126000841216828213600085121516171561021d5761021c61016d565b5b9291505056fea26469706673582212204578f8fd7da0f5befebac33452cdf3ef29d5746e3e3b56b3aa358b65ce80b61864736f6c63430008120033",
					"opcodes": "PUSH1 0x80 PUSH1 0x40 MSTORE PUSH1 0x0 DUP1 SSTORE CALLVALUE DUP1 ISZERO PUSH2 0x14 JUMPI PUSH1 0x0 DUP1 REVERT JUMPDEST POP PUSH2 0x259 DUP1 PUSH2 0x24 PUSH1 0x0 CODECOPY PUSH1 0x0 RETURN INVALID PUSH1 0x80 PUSH1 0x40 MSTORE CALLVALUE DUP1 ISZERO PUSH2 0x10 JUMPI PUSH1 0x0 DUP1 REVERT JUMPDEST POP PUSH1 0x4 CALLDATASIZE LT PUSH2 0x41 JUMPI PUSH1 0x0 CALLDATALOAD PUSH1 0xE0 SHR DUP1 PUSH4 0x12065FE0 EQ PUSH2 0x46 JUMPI DUP1 PUSH4 0x5D5F704F EQ PUSH2 0x64 JUMPI DUP1 PUSH4 0x7E62EAB8 EQ PUSH2 0x80 JUMPI JUMPDEST PUSH1 0x0 DUP1 REVERT JUMPDEST PUSH2 0x4E PUSH2 0x9C JUMP JUMPDEST PUSH1 0x40 MLOAD PUSH2 0x5B SWAP2 SWAP1 PUSH2 0xF4 JUMP JUMPDEST PUSH1 0x40 MLOAD DUP1 SWAP2 SUB SWAP1 RETURN JUMPDEST PUSH2 0x7E PUSH1 0x4 DUP1 CALLDATASIZE SUB DUP2 ADD SWAP1 PUSH2 0x79 SWAP2 SWAP1 PUSH2 0x140 JUMP JUMPDEST PUSH2 0xA5 JUMP JUMPDEST STOP JUMPDEST PUSH2 0x9A PUSH1 0x4 DUP1 CALLDATASIZE SUB DUP2 ADD SWAP1 PUSH2 0x95 SWAP2 SWAP1 PUSH2 0x140 JUMP JUMPDEST PUSH2 0xC0 JUMP JUMPDEST STOP JUMPDEST PUSH1 0x0 DUP1 SLOAD SWAP1 POP SWAP1 JUMP JUMPDEST DUP1 PUSH1 0x0 DUP1 DUP3 DUP3 SLOAD PUSH2 0xB6 SWAP2 SWAP1 PUSH2 0x19C JUMP JUMPDEST SWAP3 POP POP DUP2 SWAP1 SSTORE POP POP JUMP JUMPDEST DUP1 PUSH1 0x0 DUP1 DUP3 DUP3 SLOAD PUSH2 0xD1 SWAP2 SWAP1 PUSH2 0x1E0 JUMP JUMPDEST SWAP3 POP POP DUP2 SWAP1 SSTORE POP POP JUMP JUMPDEST PUSH1 0x0 DUP2 SWAP1 POP SWAP2 SWAP1 POP JUMP JUMPDEST PUSH2 0xEE DUP2 PUSH2 0xDB JUMP JUMPDEST DUP3 MSTORE POP POP JUMP JUMPDEST PUSH1 0x0 PUSH1 0x20 DUP3 ADD SWAP1 POP PUSH2 0x109 PUSH1 0x0 DUP4 ADD DUP5 PUSH2 0xE5 JUMP JUMPDEST SWAP3 SWAP2 POP POP JUMP JUMPDEST PUSH1 0x0 DUP1 REVERT JUMPDEST PUSH2 0x11D DUP2 PUSH2 0xDB JUMP JUMPDEST DUP2 EQ PUSH2 0x128 JUMPI PUSH1 0x0 DUP1 REVERT JUMPDEST POP JUMP JUMPDEST PUSH1 0x0 DUP2 CALLDATALOAD SWAP1 POP PUSH2 0x13A DUP2 PUSH2 0x114 JUMP JUMPDEST SWAP3 SWAP2 POP POP JUMP JUMPDEST PUSH1 0x0 PUSH1 0x20 DUP3 DUP5 SUB SLT ISZERO PUSH2 0x156 JUMPI PUSH2 0x155 PUSH2 0x10F JUMP JUMPDEST JUMPDEST PUSH1 0x0 PUSH2 0x164 DUP5 DUP3 DUP6 ADD PUSH2 0x12B JUMP JUMPDEST SWAP2 POP POP SWAP3 SWAP2 POP POP JUMP JUMPDEST PUSH32 0x4E487B7100000000000000000000000000000000000000000000000000000000 PUSH1 0x0 MSTORE PUSH1 0x11 PUSH1 0x4 MSTORE PUSH1 0x24 PUSH1 0x0 REVERT JUMPDEST PUSH1 0x0 PUSH2 0x1A7 DUP3 PUSH2 0xDB JUMP JUMPDEST SWAP2 POP PUSH2 0x1B2 DUP4 PUSH2 0xDB JUMP JUMPDEST SWAP3 POP DUP3 DUP3 ADD SWAP1 POP DUP3 DUP2 SLT ISZERO PUSH1 0x0 DUP4 SLT AND DUP4 DUP3 SLT PUSH1 0x0 DUP5 SLT ISZERO AND OR ISZERO PUSH2 0x1DA JUMPI PUSH2 0x1D9 PUSH2 0x16D JUMP JUMPDEST JUMPDEST SWAP3 SWAP2 POP POP JUMP JUMPDEST PUSH1 0x0 PUSH2 0x1EB DUP3 PUSH2 0xDB JUMP JUMPDEST SWAP2 POP PUSH2 0x1F6 DUP4 PUSH2 0xDB JUMP JUMPDEST SWAP3 POP DUP3 DUP3 SUB SWAP1 POP DUP2 DUP2 SLT PUSH1 0x0 DUP5 SLT AND DUP3 DUP3 SGT PUSH1 0x0 DUP6 SLT ISZERO AND OR ISZERO PUSH2 0x21D JUMPI PUSH2 0x21C PUSH2 0x16D JUMP JUMPDEST JUMPDEST SWAP3 SWAP2 POP POP JUMP INVALID LOG2 PUSH5 0x6970667358 0x22 SLT KECCAK256 GASLIMIT PUSH25 0xF8FD7DA0F5BEFEBAC33452CDF3EF29D5746E3E3B56B3AA358B PUSH6 0xCE80B6186473 PUSH16 0x6C634300081200330000000000000000 "
				},
				"gasEstimates": {
					"creation": {
						"codeDepositCost": "120200",
						"executionCost": "5171",
						"totalCost": "125371"
					},
					"external": {
						"deposite_money(int256)": "infinite",
						"getBalance()": "2415",
						"withdraw(int256)": "infinite"
					}
				},
				"methodIdentifiers": {
					"deposite_money(int256)": "5d5f704f",
					"getBalance()": "12065fe0",
					"withdraw(int256)": "7e62eab8"
				}
			},
			"storageLayout": {
				"storage": [
					{
						"astId": 4,
						"contract": "tests/myContraact.sol:bank",
						"label": "bal",
						"offset": 0,
						"slot": "0",
						"type": "t_int256"
					}
				],
				"types": {
					"t_int256": {
						"encoding": "inplace",
						"label": "int256",
						"numberOfBytes": "32"
					}
				}
			},
			"userdoc": {
				"kind": "user",
				"methods": {},
				"version": 1
			}
		}
	}
}