{
	"contracts/scripts/multiply-calculator.sol": {
		"myCalculator": {
			"abi": [
				{
					"inputs": [
						{
							"internalType": "uint256",
							"name": "a",
							"type": "uint256"
						},
						{
							"internalType": "uint256",
							"name": "b",
							"type": "uint256"
						}
					],
					"name": "divideCalculator",
					"outputs": [
						{
							"internalType": "uint256",
							"name": "",
							"type": "uint256"
						}
					],
					"stateMutability": "pure",
					"type": "function"
				},
				{
					"inputs": [
						{
							"internalType": "uint256",
							"name": "a",
							"type": "uint256"
						},
						{
							"internalType": "uint256",
							"name": "b",
							"type": "uint256"
						}
					],
					"name": "multiplyCalculator",
					"outputs": [
						{
							"internalType": "uint256",
							"name": "",
							"type": "uint256"
						}
					],
					"stateMutability": "pure",
					"type": "function"
				}
			],
			"devdoc": {
				"details": "Set & change owner",
				"kind": "dev",
				"methods": {},
				"title": "Owner",
				"version": 1
			},
			"evm": {
				"assembly": "    /* \"contracts/scripts/multiply-calculator.sol\":131:407  contract myCalculator{... */\n  mstore(0x40, 0x80)\n  callvalue\n  dup1\n  iszero\n  tag_1\n  jumpi\n  0x00\n  dup1\n  revert\ntag_1:\n  pop\n  dataSize(sub_0)\n  dup1\n  dataOffset(sub_0)\n  0x00\n  codecopy\n  0x00\n  return\nstop\n\nsub_0: assembly {\n        /* \"contracts/scripts/multiply-calculator.sol\":131:407  contract myCalculator{... */\n      mstore(0x40, 0x80)\n      callvalue\n      dup1\n      iszero\n      tag_1\n      jumpi\n      0x00\n      dup1\n      revert\n    tag_1:\n      pop\n      jumpi(tag_2, lt(calldatasize, 0x04))\n      shr(0xe0, calldataload(0x00))\n      dup1\n      0xbd2ec67d\n      eq\n      tag_3\n      jumpi\n      dup1\n      0xde1126f6\n      eq\n      tag_4\n      jumpi\n    tag_2:\n      0x00\n      dup1\n      revert\n        /* \"contracts/scripts/multiply-calculator.sol\":281:402  function divideCalculator(uint a, uint b) public pure returns(uint) ... */\n    tag_3:\n      tag_5\n      0x04\n      dup1\n      calldatasize\n      sub\n      dup2\n      add\n      swap1\n      tag_6\n      swap2\n      swap1\n      tag_7\n      jump\t// in\n    tag_6:\n      tag_8\n      jump\t// in\n    tag_5:\n      mload(0x40)\n      tag_9\n      swap2\n      swap1\n      tag_10\n      jump\t// in\n    tag_9:\n      mload(0x40)\n      dup1\n      swap2\n      sub\n      swap1\n      return\n        /* \"contracts/scripts/multiply-calculator.sol\":157:279  function multiplyCalculator(uint a, uint b) public pure returns(uint) ... */\n    tag_4:\n      tag_11\n      0x04\n      dup1\n      calldatasize\n      sub\n      dup2\n      add\n      swap1\n      tag_12\n      swap2\n      swap1\n      tag_7\n      jump\t// in\n    tag_12:\n      tag_13\n      jump\t// in\n    tag_11:\n      mload(0x40)\n      tag_14\n      swap2\n      swap1\n      tag_10\n      jump\t// in\n    tag_14:\n      mload(0x40)\n      dup1\n      swap2\n      sub\n      swap1\n      return\n        /* \"contracts/scripts/multiply-calculator.sol\":281:402  function divideCalculator(uint a, uint b) public pure returns(uint) ... */\n    tag_8:\n        /* \"contracts/scripts/multiply-calculator.sol\":343:347  uint */\n      0x00\n        /* \"contracts/scripts/multiply-calculator.sol\":358:369  uint result */\n      dup1\n        /* \"contracts/scripts/multiply-calculator.sol\":377:378  b */\n      dup3\n        /* \"contracts/scripts/multiply-calculator.sol\":372:373  a */\n      dup5\n        /* \"contracts/scripts/multiply-calculator.sol\":372:378  a /  b */\n      tag_16\n      swap2\n      swap1\n      tag_17\n      jump\t// in\n    tag_16:\n        /* \"contracts/scripts/multiply-calculator.sol\":358:378  uint result = a /  b */\n      swap1\n      pop\n        /* \"contracts/scripts/multiply-calculator.sol\":392:398  result */\n      dup1\n        /* \"contracts/scripts/multiply-calculator.sol\":385:398  return result */\n      swap2\n      pop\n      pop\n        /* \"contracts/scripts/multiply-calculator.sol\":281:402  function divideCalculator(uint a, uint b) public pure returns(uint) ... */\n      swap3\n      swap2\n      pop\n      pop\n      jump\t// out\n        /* \"contracts/scripts/multiply-calculator.sol\":157:279  function multiplyCalculator(uint a, uint b) public pure returns(uint) ... */\n    tag_13:\n        /* \"contracts/scripts/multiply-calculator.sol\":221:225  uint */\n      0x00\n        /* \"contracts/scripts/multiply-calculator.sol\":236:247  uint result */\n      dup1\n        /* \"contracts/scripts/multiply-calculator.sol\":254:255  b */\n      dup3\n        /* \"contracts/scripts/multiply-calculator.sol\":250:251  a */\n      dup5\n        /* \"contracts/scripts/multiply-calculator.sol\":250:255  a * b */\n      tag_19\n      swap2\n      swap1\n      tag_20\n      jump\t// in\n    tag_19:\n        /* \"contracts/scripts/multiply-calculator.sol\":236:255  uint result = a * b */\n      swap1\n      pop\n        /* \"contracts/scripts/multiply-calculator.sol\":269:275  result */\n      dup1\n        /* \"contracts/scripts/multiply-calculator.sol\":262:275  return result */\n      swap2\n      pop\n      pop\n        /* \"contracts/scripts/multiply-calculator.sol\":157:279  function multiplyCalculator(uint a, uint b) public pure returns(uint) ... */\n      swap3\n      swap2\n      pop\n      pop\n      jump\t// out\n        /* \"#utility.yul\":88:205   */\n    tag_22:\n        /* \"#utility.yul\":197:198   */\n      0x00\n        /* \"#utility.yul\":194:195   */\n      dup1\n        /* \"#utility.yul\":187:199   */\n      revert\n        /* \"#utility.yul\":334:411   */\n    tag_24:\n        /* \"#utility.yul\":371:378   */\n      0x00\n        /* \"#utility.yul\":400:405   */\n      dup2\n        /* \"#utility.yul\":389:405   */\n      swap1\n      pop\n        /* \"#utility.yul\":334:411   */\n      swap2\n      swap1\n      pop\n      jump\t// out\n        /* \"#utility.yul\":417:539   */\n    tag_25:\n        /* \"#utility.yul\":490:514   */\n      tag_36\n        /* \"#utility.yul\":508:513   */\n      dup2\n        /* \"#utility.yul\":490:514   */\n      tag_24\n      jump\t// in\n    tag_36:\n        /* \"#utility.yul\":483:488   */\n      dup2\n        /* \"#utility.yul\":480:515   */\n      eq\n        /* \"#utility.yul\":470:533   */\n      tag_37\n      jumpi\n        /* \"#utility.yul\":529:530   */\n      0x00\n        /* \"#utility.yul\":526:527   */\n      dup1\n        /* \"#utility.yul\":519:531   */\n      revert\n        /* \"#utility.yul\":470:533   */\n    tag_37:\n        /* \"#utility.yul\":417:539   */\n      pop\n      jump\t// out\n        /* \"#utility.yul\":545:684   */\n    tag_26:\n        /* \"#utility.yul\":591:596   */\n      0x00\n        /* \"#utility.yul\":629:635   */\n      dup2\n        /* \"#utility.yul\":616:636   */\n      calldataload\n        /* \"#utility.yul\":607:636   */\n      swap1\n      pop\n        /* \"#utility.yul\":645:678   */\n      tag_39\n        /* \"#utility.yul\":672:677   */\n      dup2\n        /* \"#utility.yul\":645:678   */\n      tag_25\n      jump\t// in\n    tag_39:\n        /* \"#utility.yul\":545:684   */\n      swap3\n      swap2\n      pop\n      pop\n      jump\t// out\n        /* \"#utility.yul\":690:1164   */\n    tag_7:\n        /* \"#utility.yul\":758:764   */\n      0x00\n        /* \"#utility.yul\":766:772   */\n      dup1\n        /* \"#utility.yul\":815:817   */\n      0x40\n        /* \"#utility.yul\":803:812   */\n      dup4\n        /* \"#utility.yul\":794:801   */\n      dup6\n        /* \"#utility.yul\":790:813   */\n      sub\n        /* \"#utility.yul\":786:818   */\n      slt\n        /* \"#utility.yul\":783:902   */\n      iszero\n      tag_41\n      jumpi\n        /* \"#utility.yul\":821:900   */\n      tag_42\n      tag_22\n      jump\t// in\n    tag_42:\n        /* \"#utility.yul\":783:902   */\n    tag_41:\n        /* \"#utility.yul\":941:942   */\n      0x00\n        /* \"#utility.yul\":966:1019   */\n      tag_43\n        /* \"#utility.yul\":1011:1018   */\n      dup6\n        /* \"#utility.yul\":1002:1008   */\n      dup3\n        /* \"#utility.yul\":991:1000   */\n      dup7\n        /* \"#utility.yul\":987:1009   */\n      add\n        /* \"#utility.yul\":966:1019   */\n      tag_26\n      jump\t// in\n    tag_43:\n        /* \"#utility.yul\":956:1019   */\n      swap3\n      pop\n        /* \"#utility.yul\":912:1029   */\n      pop\n        /* \"#utility.yul\":1068:1070   */\n      0x20\n        /* \"#utility.yul\":1094:1147   */\n      tag_44\n        /* \"#utility.yul\":1139:1146   */\n      dup6\n        /* \"#utility.yul\":1130:1136   */\n      dup3\n        /* \"#utility.yul\":1119:1128   */\n      dup7\n        /* \"#utility.yul\":1115:1137   */\n      add\n        /* \"#utility.yul\":1094:1147   */\n      tag_26\n      jump\t// in\n    tag_44:\n        /* \"#utility.yul\":1084:1147   */\n      swap2\n      pop\n        /* \"#utility.yul\":1039:1157   */\n      pop\n        /* \"#utility.yul\":690:1164   */\n      swap3\n      pop\n      swap3\n      swap1\n      pop\n      jump\t// out\n        /* \"#utility.yul\":1170:1288   */\n    tag_27:\n        /* \"#utility.yul\":1257:1281   */\n      tag_46\n        /* \"#utility.yul\":1275:1280   */\n      dup2\n        /* \"#utility.yul\":1257:1281   */\n      tag_24\n      jump\t// in\n    tag_46:\n        /* \"#utility.yul\":1252:1255   */\n      dup3\n        /* \"#utility.yul\":1245:1282   */\n      mstore\n        /* \"#utility.yul\":1170:1288   */\n      pop\n      pop\n      jump\t// out\n        /* \"#utility.yul\":1294:1516   */\n    tag_10:\n        /* \"#utility.yul\":1387:1391   */\n      0x00\n        /* \"#utility.yul\":1425:1427   */\n      0x20\n        /* \"#utility.yul\":1414:1423   */\n      dup3\n        /* \"#utility.yul\":1410:1428   */\n      add\n        /* \"#utility.yul\":1402:1428   */\n      swap1\n      pop\n        /* \"#utility.yul\":1438:1509   */\n      tag_48\n        /* \"#utility.yul\":1506:1507   */\n      0x00\n        /* \"#utility.yul\":1495:1504   */\n      dup4\n        /* \"#utility.yul\":1491:1508   */\n      add\n        /* \"#utility.yul\":1482:1488   */\n      dup5\n        /* \"#utility.yul\":1438:1509   */\n      tag_27\n      jump\t// in\n    tag_48:\n        /* \"#utility.yul\":1294:1516   */\n      swap3\n      swap2\n      pop\n      pop\n      jump\t// out\n        /* \"#utility.yul\":1522:1702   */\n    tag_28:\n        /* \"#utility.yul\":1570:1647   */\n      0x4e487b7100000000000000000000000000000000000000000000000000000000\n        /* \"#utility.yul\":1567:1568   */\n      0x00\n        /* \"#utility.yul\":1560:1648   */\n      mstore\n        /* \"#utility.yul\":1667:1671   */\n      0x12\n        /* \"#utility.yul\":1664:1665   */\n      0x04\n        /* \"#utility.yul\":1657:1672   */\n      mstore\n        /* \"#utility.yul\":1691:1695   */\n      0x24\n        /* \"#utility.yul\":1688:1689   */\n      0x00\n        /* \"#utility.yul\":1681:1696   */\n      revert\n        /* \"#utility.yul\":1708:1888   */\n    tag_29:\n        /* \"#utility.yul\":1756:1833   */\n      0x4e487b7100000000000000000000000000000000000000000000000000000000\n        /* \"#utility.yul\":1753:1754   */\n      0x00\n        /* \"#utility.yul\":1746:1834   */\n      mstore\n        /* \"#utility.yul\":1853:1857   */\n      0x11\n        /* \"#utility.yul\":1850:1851   */\n      0x04\n        /* \"#utility.yul\":1843:1858   */\n      mstore\n        /* \"#utility.yul\":1877:1881   */\n      0x24\n        /* \"#utility.yul\":1874:1875   */\n      0x00\n        /* \"#utility.yul\":1867:1882   */\n      revert\n        /* \"#utility.yul\":1894:2079   */\n    tag_17:\n        /* \"#utility.yul\":1934:1935   */\n      0x00\n        /* \"#utility.yul\":1951:1971   */\n      tag_52\n        /* \"#utility.yul\":1969:1970   */\n      dup3\n        /* \"#utility.yul\":1951:1971   */\n      tag_24\n      jump\t// in\n    tag_52:\n        /* \"#utility.yul\":1946:1971   */\n      swap2\n      pop\n        /* \"#utility.yul\":1985:2005   */\n      tag_53\n        /* \"#utility.yul\":2003:2004   */\n      dup4\n        /* \"#utility.yul\":1985:2005   */\n      tag_24\n      jump\t// in\n    tag_53:\n        /* \"#utility.yul\":1980:2005   */\n      swap3\n      pop\n        /* \"#utility.yul\":2024:2025   */\n      dup3\n        /* \"#utility.yul\":2014:2049   */\n      tag_54\n      jumpi\n        /* \"#utility.yul\":2029:2047   */\n      tag_55\n      tag_28\n      jump\t// in\n    tag_55:\n        /* \"#utility.yul\":2014:2049   */\n    tag_54:\n        /* \"#utility.yul\":2071:2072   */\n      dup3\n        /* \"#utility.yul\":2068:2069   */\n      dup3\n        /* \"#utility.yul\":2064:2073   */\n      div\n        /* \"#utility.yul\":2059:2073   */\n      swap1\n      pop\n        /* \"#utility.yul\":1894:2079   */\n      swap3\n      swap2\n      pop\n      pop\n      jump\t// out\n        /* \"#utility.yul\":2085:2495   */\n    tag_20:\n        /* \"#utility.yul\":2125:2132   */\n      0x00\n        /* \"#utility.yul\":2148:2168   */\n      tag_57\n        /* \"#utility.yul\":2166:2167   */\n      dup3\n        /* \"#utility.yul\":2148:2168   */\n      tag_24\n      jump\t// in\n    tag_57:\n        /* \"#utility.yul\":2143:2168   */\n      swap2\n      pop\n        /* \"#utility.yul\":2182:2202   */\n      tag_58\n        /* \"#utility.yul\":2200:2201   */\n      dup4\n        /* \"#utility.yul\":2182:2202   */\n      tag_24\n      jump\t// in\n    tag_58:\n        /* \"#utility.yul\":2177:2202   */\n      swap3\n      pop\n        /* \"#utility.yul\":2237:2238   */\n      dup3\n        /* \"#utility.yul\":2234:2235   */\n      dup3\n        /* \"#utility.yul\":2230:2239   */\n      mul\n        /* \"#utility.yul\":2259:2289   */\n      tag_59\n        /* \"#utility.yul\":2277:2288   */\n      dup2\n        /* \"#utility.yul\":2259:2289   */\n      tag_24\n      jump\t// in\n    tag_59:\n        /* \"#utility.yul\":2248:2289   */\n      swap2\n      pop\n        /* \"#utility.yul\":2438:2439   */\n      dup3\n        /* \"#utility.yul\":2429:2436   */\n      dup3\n        /* \"#utility.yul\":2425:2440   */\n      div\n        /* \"#utility.yul\":2422:2423   */\n      dup5\n        /* \"#utility.yul\":2419:2441   */\n      eq\n        /* \"#utility.yul\":2399:2400   */\n      dup4\n        /* \"#utility.yul\":2392:2401   */\n      iszero\n        /* \"#utility.yul\":2372:2455   */\n      or\n        /* \"#utility.yul\":2349:2488   */\n      tag_60\n      jumpi\n        /* \"#utility.yul\":2468:2486   */\n      tag_61\n      tag_29\n      jump\t// in\n    tag_61:\n        /* \"#utility.yul\":2349:2488   */\n    tag_60:\n        /* \"#utility.yul\":2133:2495   */\n      pop\n        /* \"#utility.yul\":2085:2495   */\n      swap3\n      swap2\n      pop\n      pop\n      jump\t// out\n\n    auxdata: 0xa2646970667358221220bfce832d1e37c9ac081dba15539299929ea1a2db636c56c607db7a93a65327db64736f6c63430008120033\n}\n",
				"bytecode": {
					"linkReferences": {},
					"object": "608060405234801561001057600080fd5b5061027d806100206000396000f3fe608060405234801561001057600080fd5b50600436106100365760003560e01c8063bd2ec67d1461003b578063de1126f61461006b575b600080fd5b6100556004803603810190610050919061010c565b61009b565b604051610062919061015b565b60405180910390f35b6100856004803603810190610080919061010c565b6100b6565b604051610092919061015b565b60405180910390f35b60008082846100aa91906101d4565b90508091505092915050565b60008082846100c59190610205565b90508091505092915050565b600080fd5b6000819050919050565b6100e9816100d6565b81146100f457600080fd5b50565b600081359050610106816100e0565b92915050565b60008060408385031215610123576101226100d1565b5b6000610131858286016100f7565b9250506020610142858286016100f7565b9150509250929050565b610155816100d6565b82525050565b6000602082019050610170600083018461014c565b92915050565b7f4e487b7100000000000000000000000000000000000000000000000000000000600052601260045260246000fd5b7f4e487b7100000000000000000000000000000000000000000000000000000000600052601160045260246000fd5b60006101df826100d6565b91506101ea836100d6565b9250826101fa576101f9610176565b5b828204905092915050565b6000610210826100d6565b915061021b836100d6565b9250828202610229816100d6565b915082820484148315176102405761023f6101a5565b5b509291505056fea2646970667358221220bfce832d1e37c9ac081dba15539299929ea1a2db636c56c607db7a93a65327db64736f6c63430008120033",
					"opcodes": "PUSH1 0x80 PUSH1 0x40 MSTORE CALLVALUE DUP1 ISZERO PUSH2 0x10 JUMPI PUSH1 0x0 DUP1 REVERT JUMPDEST POP PUSH2 0x27D DUP1 PUSH2 0x20 PUSH1 0x0 CODECOPY PUSH1 0x0 RETURN INVALID PUSH1 0x80 PUSH1 0x40 MSTORE CALLVALUE DUP1 ISZERO PUSH2 0x10 JUMPI PUSH1 0x0 DUP1 REVERT JUMPDEST POP PUSH1 0x4 CALLDATASIZE LT PUSH2 0x36 JUMPI PUSH1 0x0 CALLDATALOAD PUSH1 0xE0 SHR DUP1 PUSH4 0xBD2EC67D EQ PUSH2 0x3B JUMPI DUP1 PUSH4 0xDE1126F6 EQ PUSH2 0x6B JUMPI JUMPDEST PUSH1 0x0 DUP1 REVERT JUMPDEST PUSH2 0x55 PUSH1 0x4 DUP1 CALLDATASIZE SUB DUP2 ADD SWAP1 PUSH2 0x50 SWAP2 SWAP1 PUSH2 0x10C JUMP JUMPDEST PUSH2 0x9B JUMP JUMPDEST PUSH1 0x40 MLOAD PUSH2 0x62 SWAP2 SWAP1 PUSH2 0x15B JUMP JUMPDEST PUSH1 0x40 MLOAD DUP1 SWAP2 SUB SWAP1 RETURN JUMPDEST PUSH2 0x85 PUSH1 0x4 DUP1 CALLDATASIZE SUB DUP2 ADD SWAP1 PUSH2 0x80 SWAP2 SWAP1 PUSH2 0x10C JUMP JUMPDEST PUSH2 0xB6 JUMP JUMPDEST PUSH1 0x40 MLOAD PUSH2 0x92 SWAP2 SWAP1 PUSH2 0x15B JUMP JUMPDEST PUSH1 0x40 MLOAD DUP1 SWAP2 SUB SWAP1 RETURN JUMPDEST PUSH1 0x0 DUP1 DUP3 DUP5 PUSH2 0xAA SWAP2 SWAP1 PUSH2 0x1D4 JUMP JUMPDEST SWAP1 POP DUP1 SWAP2 POP POP SWAP3 SWAP2 POP POP JUMP JUMPDEST PUSH1 0x0 DUP1 DUP3 DUP5 PUSH2 0xC5 SWAP2 SWAP1 PUSH2 0x205 JUMP JUMPDEST SWAP1 POP DUP1 SWAP2 POP POP SWAP3 SWAP2 POP POP JUMP JUMPDEST PUSH1 0x0 DUP1 REVERT JUMPDEST PUSH1 0x0 DUP2 SWAP1 POP SWAP2 SWAP1 POP JUMP JUMPDEST PUSH2 0xE9 DUP2 PUSH2 0xD6 JUMP JUMPDEST DUP2 EQ PUSH2 0xF4 JUMPI PUSH1 0x0 DUP1 REVERT JUMPDEST POP JUMP JUMPDEST PUSH1 0x0 DUP2 CALLDATALOAD SWAP1 POP PUSH2 0x106 DUP2 PUSH2 0xE0 JUMP JUMPDEST SWAP3 SWAP2 POP POP JUMP JUMPDEST PUSH1 0x0 DUP1 PUSH1 0x40 DUP4 DUP6 SUB SLT ISZERO PUSH2 0x123 JUMPI PUSH2 0x122 PUSH2 0xD1 JUMP JUMPDEST JUMPDEST PUSH1 0x0 PUSH2 0x131 DUP6 DUP3 DUP7 ADD PUSH2 0xF7 JUMP JUMPDEST SWAP3 POP POP PUSH1 0x20 PUSH2 0x142 DUP6 DUP3 DUP7 ADD PUSH2 0xF7 JUMP JUMPDEST SWAP2 POP POP SWAP3 POP SWAP3 SWAP1 POP JUMP JUMPDEST PUSH2 0x155 DUP2 PUSH2 0xD6 JUMP JUMPDEST DUP3 MSTORE POP POP JUMP JUMPDEST PUSH1 0x0 PUSH1 0x20 DUP3 ADD SWAP1 POP PUSH2 0x170 PUSH1 0x0 DUP4 ADD DUP5 PUSH2 0x14C JUMP JUMPDEST SWAP3 SWAP2 POP POP JUMP JUMPDEST PUSH32 0x4E487B7100000000000000000000000000000000000000000000000000000000 PUSH1 0x0 MSTORE PUSH1 0x12 PUSH1 0x4 MSTORE PUSH1 0x24 PUSH1 0x0 REVERT JUMPDEST PUSH32 0x4E487B7100000000000000000000000000000000000000000000000000000000 PUSH1 0x0 MSTORE PUSH1 0x11 PUSH1 0x4 MSTORE PUSH1 0x24 PUSH1 0x0 REVERT JUMPDEST PUSH1 0x0 PUSH2 0x1DF DUP3 PUSH2 0xD6 JUMP JUMPDEST SWAP2 POP PUSH2 0x1EA DUP4 PUSH2 0xD6 JUMP JUMPDEST SWAP3 POP DUP3 PUSH2 0x1FA JUMPI PUSH2 0x1F9 PUSH2 0x176 JUMP JUMPDEST JUMPDEST DUP3 DUP3 DIV SWAP1 POP SWAP3 SWAP2 POP POP JUMP JUMPDEST PUSH1 0x0 PUSH2 0x210 DUP3 PUSH2 0xD6 JUMP JUMPDEST SWAP2 POP PUSH2 0x21B DUP4 PUSH2 0xD6 JUMP JUMPDEST SWAP3 POP DUP3 DUP3 MUL PUSH2 0x229 DUP2 PUSH2 0xD6 JUMP JUMPDEST SWAP2 POP DUP3 DUP3 DIV DUP5 EQ DUP4 ISZERO OR PUSH2 0x240 JUMPI PUSH2 0x23F PUSH2 0x1A5 JUMP JUMPDEST JUMPDEST POP SWAP3 SWAP2 POP POP JUMP INVALID LOG2 PUSH5 0x6970667358 0x22 SLT KECCAK256 0xBF 0xCE DUP4 0x2D 0x1E CALLDATACOPY 0xC9 0xAC ADDMOD SAR 0xBA ISZERO MSTORE8 SWAP3 SWAP10 SWAP3 SWAP15 LOG1 LOG2 0xDB PUSH4 0x6C56C607 0xDB PUSH27 0x93A65327DB64736F6C634300081200330000000000000000000000 "
				},
				"gasEstimates": {
					"creation": {
						"codeDepositCost": "127400",
						"executionCost": "171",
						"totalCost": "127571"
					},
					"external": {
						"divideCalculator(uint256,uint256)": "infinite",
						"multiplyCalculator(uint256,uint256)": "infinite"
					}
				},
				"methodIdentifiers": {
					"divideCalculator(uint256,uint256)": "bd2ec67d",
					"multiplyCalculator(uint256,uint256)": "de1126f6"
				}
			},
			"storageLayout": {
				"storage": [],
				"types": null
			},
			"userdoc": {
				"kind": "user",
				"methods": {},
				"version": 1
			}
		}
	}
}