{
	"Royelty_ERC-2981_Contract.sol": {
		"MyToken": {
			"abi": [
				{
					"inputs": [
						{
							"internalType": "uint96",
							"name": "_royaltyFeesInBips",
							"type": "uint96"
						},
						{
							"internalType": "string",
							"name": "_contractURI",
							"type": "string"
						}
					],
					"stateMutability": "nonpayable",
					"type": "constructor"
				},
				{
					"anonymous": false,
					"inputs": [
						{
							"indexed": true,
							"internalType": "address",
							"name": "owner",
							"type": "address"
						},
						{
							"indexed": true,
							"internalType": "address",
							"name": "approved",
							"type": "address"
						},
						{
							"indexed": true,
							"internalType": "uint256",
							"name": "tokenId",
							"type": "uint256"
						}
					],
					"name": "Approval",
					"type": "event"
				},
				{
					"anonymous": false,
					"inputs": [
						{
							"indexed": true,
							"internalType": "address",
							"name": "owner",
							"type": "address"
						},
						{
							"indexed": true,
							"internalType": "address",
							"name": "operator",
							"type": "address"
						},
						{
							"indexed": false,
							"internalType": "bool",
							"name": "approved",
							"type": "bool"
						}
					],
					"name": "ApprovalForAll",
					"type": "event"
				},
				{
					"anonymous": false,
					"inputs": [
						{
							"indexed": true,
							"internalType": "address",
							"name": "previousOwner",
							"type": "address"
						},
						{
							"indexed": true,
							"internalType": "address",
							"name": "newOwner",
							"type": "address"
						}
					],
					"name": "OwnershipTransferred",
					"type": "event"
				},
				{
					"anonymous": false,
					"inputs": [
						{
							"indexed": true,
							"internalType": "address",
							"name": "from",
							"type": "address"
						},
						{
							"indexed": true,
							"internalType": "address",
							"name": "to",
							"type": "address"
						},
						{
							"indexed": true,
							"internalType": "uint256",
							"name": "tokenId",
							"type": "uint256"
						}
					],
					"name": "Transfer",
					"type": "event"
				},
				{
					"inputs": [
						{
							"internalType": "address",
							"name": "to",
							"type": "address"
						},
						{
							"internalType": "uint256",
							"name": "tokenId",
							"type": "uint256"
						}
					],
					"name": "approve",
					"outputs": [],
					"stateMutability": "nonpayable",
					"type": "function"
				},
				{
					"inputs": [
						{
							"internalType": "address",
							"name": "owner",
							"type": "address"
						}
					],
					"name": "balanceOf",
					"outputs": [
						{
							"internalType": "uint256",
							"name": "",
							"type": "uint256"
						}
					],
					"stateMutability": "view",
					"type": "function"
				},
				{
					"inputs": [
						{
							"internalType": "uint256",
							"name": "_salePrice",
							"type": "uint256"
						}
					],
					"name": "calculateRoyalty",
					"outputs": [
						{
							"internalType": "uint256",
							"name": "",
							"type": "uint256"
						}
					],
					"stateMutability": "view",
					"type": "function"
				},
				{
					"inputs": [],
					"name": "contractURI",
					"outputs": [
						{
							"internalType": "string",
							"name": "",
							"type": "string"
						}
					],
					"stateMutability": "view",
					"type": "function"
				},
				{
					"inputs": [
						{
							"internalType": "uint256",
							"name": "tokenId",
							"type": "uint256"
						}
					],
					"name": "getApproved",
					"outputs": [
						{
							"internalType": "address",
							"name": "",
							"type": "address"
						}
					],
					"stateMutability": "view",
					"type": "function"
				},
				{
					"inputs": [
						{
							"internalType": "address",
							"name": "owner",
							"type": "address"
						},
						{
							"internalType": "address",
							"name": "operator",
							"type": "address"
						}
					],
					"name": "isApprovedForAll",
					"outputs": [
						{
							"internalType": "bool",
							"name": "",
							"type": "bool"
						}
					],
					"stateMutability": "view",
					"type": "function"
				},
				{
					"inputs": [],
					"name": "name",
					"outputs": [
						{
							"internalType": "string",
							"name": "",
							"type": "string"
						}
					],
					"stateMutability": "view",
					"type": "function"
				},
				{
					"inputs": [],
					"name": "owner",
					"outputs": [
						{
							"internalType": "address",
							"name": "",
							"type": "address"
						}
					],
					"stateMutability": "view",
					"type": "function"
				},
				{
					"inputs": [
						{
							"internalType": "uint256",
							"name": "tokenId",
							"type": "uint256"
						}
					],
					"name": "ownerOf",
					"outputs": [
						{
							"internalType": "address",
							"name": "",
							"type": "address"
						}
					],
					"stateMutability": "view",
					"type": "function"
				},
				{
					"inputs": [],
					"name": "renounceOwnership",
					"outputs": [],
					"stateMutability": "nonpayable",
					"type": "function"
				},
				{
					"inputs": [
						{
							"internalType": "uint256",
							"name": "tokenId",
							"type": "uint256"
						},
						{
							"internalType": "uint256",
							"name": "_salePrice",
							"type": "uint256"
						}
					],
					"name": "royaltyInfo",
					"outputs": [
						{
							"internalType": "address",
							"name": "receiver",
							"type": "address"
						},
						{
							"internalType": "uint256",
							"name": "royaltyAmount",
							"type": "uint256"
						}
					],
					"stateMutability": "view",
					"type": "function"
				},
				{
					"inputs": [
						{
							"internalType": "address",
							"name": "to",
							"type": "address"
						},
						{
							"internalType": "uint256",
							"name": "tokenId",
							"type": "uint256"
						}
					],
					"name": "safeMint",
					"outputs": [],
					"stateMutability": "nonpayable",
					"type": "function"
				},
				{
					"inputs": [
						{
							"internalType": "address",
							"name": "from",
							"type": "address"
						},
						{
							"internalType": "address",
							"name": "to",
							"type": "address"
						},
						{
							"internalType": "uint256",
							"name": "tokenId",
							"type": "uint256"
						}
					],
					"name": "safeTransferFrom",
					"outputs": [],
					"stateMutability": "nonpayable",
					"type": "function"
				},
				{
					"inputs": [
						{
							"internalType": "address",
							"name": "from",
							"type": "address"
						},
						{
							"internalType": "address",
							"name": "to",
							"type": "address"
						},
						{
							"internalType": "uint256",
							"name": "tokenId",
							"type": "uint256"
						},
						{
							"internalType": "bytes",
							"name": "_data",
							"type": "bytes"
						}
					],
					"name": "safeTransferFrom",
					"outputs": [],
					"stateMutability": "nonpayable",
					"type": "function"
				},
				{
					"inputs": [
						{
							"internalType": "address",
							"name": "operator",
							"type": "address"
						},
						{
							"internalType": "bool",
							"name": "approved",
							"type": "bool"
						}
					],
					"name": "setApprovalForAll",
					"outputs": [],
					"stateMutability": "nonpayable",
					"type": "function"
				},
				{
					"inputs": [
						{
							"internalType": "string",
							"name": "_contractURI",
							"type": "string"
						}
					],
					"name": "setContractURI",
					"outputs": [],
					"stateMutability": "nonpayable",
					"type": "function"
				},
				{
					"inputs": [
						{
							"internalType": "address",
							"name": "_receiver",
							"type": "address"
						},
						{
							"internalType": "uint96",
							"name": "_royaltyFeesInBips",
							"type": "uint96"
						}
					],
					"name": "setRoyaltyInfo",
					"outputs": [],
					"stateMutability": "nonpayable",
					"type": "function"
				},
				{
					"inputs": [
						{
							"internalType": "bytes4",
							"name": "interfaceId",
							"type": "bytes4"
						}
					],
					"name": "supportsInterface",
					"outputs": [
						{
							"internalType": "bool",
							"name": "",
							"type": "bool"
						}
					],
					"stateMutability": "view",
					"type": "function"
				},
				{
					"inputs": [],
					"name": "symbol",
					"outputs": [
						{
							"internalType": "string",
							"name": "",
							"type": "string"
						}
					],
					"stateMutability": "view",
					"type": "function"
				},
				{
					"inputs": [
						{
							"internalType": "uint256",
							"name": "index",
							"type": "uint256"
						}
					],
					"name": "tokenByIndex",
					"outputs": [
						{
							"internalType": "uint256",
							"name": "",
							"type": "uint256"
						}
					],
					"stateMutability": "view",
					"type": "function"
				},
				{
					"inputs": [
						{
							"internalType": "address",
							"name": "owner",
							"type": "address"
						},
						{
							"internalType": "uint256",
							"name": "index",
							"type": "uint256"
						}
					],
					"name": "tokenOfOwnerByIndex",
					"outputs": [
						{
							"internalType": "uint256",
							"name": "",
							"type": "uint256"
						}
					],
					"stateMutability": "view",
					"type": "function"
				},
				{
					"inputs": [
						{
							"internalType": "uint256",
							"name": "tokenId",
							"type": "uint256"
						}
					],
					"name": "tokenURI",
					"outputs": [
						{
							"internalType": "string",
							"name": "",
							"type": "string"
						}
					],
					"stateMutability": "view",
					"type": "function"
				},
				{
					"inputs": [],
					"name": "totalSupply",
					"outputs": [
						{
							"internalType": "uint256",
							"name": "",
							"type": "uint256"
						}
					],
					"stateMutability": "view",
					"type": "function"
				},
				{
					"inputs": [
						{
							"internalType": "address",
							"name": "from",
							"type": "address"
						},
						{
							"internalType": "address",
							"name": "to",
							"type": "address"
						},
						{
							"internalType": "uint256",
							"name": "tokenId",
							"type": "uint256"
						}
					],
					"name": "transferFrom",
					"outputs": [],
					"stateMutability": "nonpayable",
					"type": "function"
				},
				{
					"inputs": [
						{
							"internalType": "address",
							"name": "newOwner",
							"type": "address"
						}
					],
					"name": "transferOwnership",
					"outputs": [],
					"stateMutability": "nonpayable",
					"type": "function"
				}
			],
			"devdoc": {
				"events": {
					"Approval(address,address,uint256)": {
						"details": "Emitted when `owner` enables `approved` to manage the `tokenId` token."
					},
					"ApprovalForAll(address,address,bool)": {
						"details": "Emitted when `owner` enables or disables (`approved`) `operator` to manage all of its assets."
					},
					"Transfer(address,address,uint256)": {
						"details": "Emitted when `tokenId` token is transferred from `from` to `to`."
					}
				},
				"kind": "dev",
				"methods": {
					"approve(address,uint256)": {
						"details": "See {IERC721-approve}."
					},
					"balanceOf(address)": {
						"details": "See {IERC721-balanceOf}."
					},
					"getApproved(uint256)": {
						"details": "See {IERC721-getApproved}."
					},
					"isApprovedForAll(address,address)": {
						"details": "See {IERC721-isApprovedForAll}."
					},
					"name()": {
						"details": "See {IERC721Metadata-name}."
					},
					"owner()": {
						"details": "Returns the address of the current owner."
					},
					"ownerOf(uint256)": {
						"details": "See {IERC721-ownerOf}."
					},
					"renounceOwnership()": {
						"details": "Leaves the contract without owner. It will not be possible to call `onlyOwner` functions anymore. Can only be called by the current owner. NOTE: Renouncing ownership will leave the contract without an owner, thereby removing any functionality that is only available to the owner."
					},
					"safeTransferFrom(address,address,uint256)": {
						"details": "See {IERC721-safeTransferFrom}."
					},
					"safeTransferFrom(address,address,uint256,bytes)": {
						"details": "See {IERC721-safeTransferFrom}."
					},
					"setApprovalForAll(address,bool)": {
						"details": "See {IERC721-setApprovalForAll}."
					},
					"symbol()": {
						"details": "See {IERC721Metadata-symbol}."
					},
					"tokenByIndex(uint256)": {
						"details": "See {IERC721Enumerable-tokenByIndex}."
					},
					"tokenOfOwnerByIndex(address,uint256)": {
						"details": "See {IERC721Enumerable-tokenOfOwnerByIndex}."
					},
					"tokenURI(uint256)": {
						"details": "See {IERC721Metadata-tokenURI}."
					},
					"totalSupply()": {
						"details": "See {IERC721Enumerable-totalSupply}."
					},
					"transferFrom(address,address,uint256)": {
						"details": "See {IERC721-transferFrom}."
					},
					"transferOwnership(address)": {
						"details": "Transfers ownership of the contract to a new account (`newOwner`). Can only be called by the current owner."
					}
				},
				"version": 1
			},
			"evm": {
				"assembly": "    /* \"Royelty_ERC-2981_Contract.sol\":267:2108  contract MyToken is ERC721, ERC721Enumerable, Ownable {... */\n  mstore(0x40, 0x80)\n    /* \"Royelty_ERC-2981_Contract.sol\":418:695  constructor(uint96 _royaltyFeesInBips, string memory _contractURI) ERC721(\"MyToken\", \"MTK\") {... */\n  callvalue\n  dup1\n  iszero\n  tag_1\n  jumpi\n  0x00\n  dup1\n  revert\ntag_1:\n  pop\n  mload(0x40)\n  sub(codesize, bytecodeSize)\n  dup1\n  bytecodeSize\n  dup4\n  codecopy\n  dup2\n  add\n  0x40\n  dup2\n  swap1\n  mstore\n  tag_2\n  swap2\n  tag_3\n  jump\t// in\ntag_2:\n    /* \"@openzeppelin/contracts@4.4.2/token/ERC721/ERC721.sol\":1375:1488  constructor(string memory name_, string memory symbol_) {... */\n  mload(0x40)\n  dup1\n  0x40\n  add\n  0x40\n  mstore\n  dup1\n  0x07\n  dup2\n  mstore\n  0x20\n  add\n  shl(0xc9, 0x26bcaa37b5b2b7)\n  dup2\n  mstore\n  pop\n  mload(0x40)\n  dup1\n  0x40\n  add\n  0x40\n  mstore\n  dup1\n  0x03\n  dup2\n  mstore\n  0x20\n  add\n  shl(0xe8, 0x4d544b)\n  dup2\n  mstore\n  pop\n    /* \"@openzeppelin/contracts@4.4.2/token/ERC721/ERC721.sol\":1449:1454  name_ */\n  dup2\n    /* \"@openzeppelin/contracts@4.4.2/token/ERC721/ERC721.sol\":1441:1446  _name */\n  0x00\n    /* \"@openzeppelin/contracts@4.4.2/token/ERC721/ERC721.sol\":1441:1454  _name = name_ */\n  swap1\n  dup2\n  tag_8\n  swap2\n  swap1\n  tag_9\n  jump\t// in\ntag_8:\n  pop\n    /* \"@openzeppelin/contracts@4.4.2/token/ERC721/ERC721.sol\":1464:1471  _symbol */\n  0x01\n    /* \"@openzeppelin/contracts@4.4.2/token/ERC721/ERC721.sol\":1464:1481  _symbol = symbol_ */\n  tag_10\n    /* \"@openzeppelin/contracts@4.4.2/token/ERC721/ERC721.sol\":1474:1481  symbol_ */\n  dup3\n    /* \"@openzeppelin/contracts@4.4.2/token/ERC721/ERC721.sol\":1464:1471  _symbol */\n  dup3\n    /* \"@openzeppelin/contracts@4.4.2/token/ERC721/ERC721.sol\":1464:1481  _symbol = symbol_ */\n  tag_9\n  jump\t// in\ntag_10:\n  pop\n    /* \"@openzeppelin/contracts@4.4.2/token/ERC721/ERC721.sol\":1375:1488  constructor(string memory name_, string memory symbol_) {... */\n  pop\n  pop\n    /* \"@openzeppelin/contracts@4.4.2/access/Ownable.sol\":921:953  _transferOwnership(_msgSender()) */\n  tag_12\n    /* \"@openzeppelin/contracts@4.4.2/access/Ownable.sol\":940:952  _msgSender() */\n  tag_13\n    /* \"@openzeppelin/contracts@4.4.2/access/Ownable.sol\":940:950  _msgSender */\n  shl(0x20, tag_14)\n    /* \"@openzeppelin/contracts@4.4.2/access/Ownable.sol\":940:952  _msgSender() */\n  0x20\n  shr\n  jump\t// in\ntag_13:\n    /* \"@openzeppelin/contracts@4.4.2/access/Ownable.sol\":921:939  _transferOwnership */\n  tag_15\n    /* \"@openzeppelin/contracts@4.4.2/access/Ownable.sol\":921:953  _transferOwnership(_msgSender()) */\n  jump\t// in\ntag_12:\n    /* \"Royelty_ERC-2981_Contract.sol\":520:537  royaltyFeesInBips */\n  0x0c\n    /* \"Royelty_ERC-2981_Contract.sol\":520:558  royaltyFeesInBips = _royaltyFeesInBips */\n  dup1\n  sload\n  not(sub(shl(0x60, 0x01), 0x01))\n  and\n  sub(shl(0x60, 0x01), 0x01)\n  dup5\n  and\n  or\n  swap1\n  sstore\n    /* \"Royelty_ERC-2981_Contract.sol\":586:593  owner() */\n  tag_17\n    /* \"@openzeppelin/contracts@4.4.2/access/Ownable.sol\":1108:1114  _owner */\n  and(sub(shl(0xa0, 0x01), 0x01), sload(0x0a))\n  swap1\n    /* \"@openzeppelin/contracts@4.4.2/access/Ownable.sol\":1036:1121  function owner() public view virtual returns (address) {... */\n  jump\n    /* \"Royelty_ERC-2981_Contract.sol\":586:593  owner() */\ntag_17:\n    /* \"Royelty_ERC-2981_Contract.sol\":568:583  royaltyReceiver */\n  0x0c\n    /* \"Royelty_ERC-2981_Contract.sol\":568:593  royaltyReceiver = owner() */\n  dup1\n  sload\n  sub(shl(0xa0, 0x01), 0x01)\n  swap3\n  swap1\n  swap3\n  and\n  0x01000000000000000000000000\n  mul\n  sub(shl(0x60, 0x01), 0x01)\n  swap1\n  swap3\n  and\n  swap2\n  swap1\n  swap2\n  or\n  swap1\n  sstore\n    /* \"Royelty_ERC-2981_Contract.sol\":603:614  contractURI */\n  0x0b\n    /* \"Royelty_ERC-2981_Contract.sol\":603:629  contractURI = _contractURI */\n  tag_19\n    /* \"Royelty_ERC-2981_Contract.sol\":617:629  _contractURI */\n  dup3\n    /* \"Royelty_ERC-2981_Contract.sol\":603:614  contractURI */\n  dup3\n    /* \"Royelty_ERC-2981_Contract.sol\":603:629  contractURI = _contractURI */\n  tag_9\n  jump\t// in\ntag_19:\n  pop\n    /* \"Royelty_ERC-2981_Contract.sol\":418:695  constructor(uint96 _royaltyFeesInBips, string memory _contractURI) ERC721(\"MyToken\", \"MTK\") {... */\n  pop\n  pop\n    /* \"Royelty_ERC-2981_Contract.sol\":267:2108  contract MyToken is ERC721, ERC721Enumerable, Ownable {... */\n  jump(tag_29)\n    /* \"@openzeppelin/contracts@4.4.2/utils/Context.sol\":640:736  function _msgSender() internal view virtual returns (address) {... */\ntag_14:\n    /* \"@openzeppelin/contracts@4.4.2/utils/Context.sol\":719:729  msg.sender */\n  caller\n  swap1\n    /* \"@openzeppelin/contracts@4.4.2/utils/Context.sol\":640:736  function _msgSender() internal view virtual returns (address) {... */\n  jump\t// out\n    /* \"@openzeppelin/contracts@4.4.2/access/Ownable.sol\":2270:2457  function _transferOwnership(address newOwner) internal virtual {... */\ntag_15:\n    /* \"@openzeppelin/contracts@4.4.2/access/Ownable.sol\":2362:2368  _owner */\n  0x0a\n  dup1\n  sload\n  sub(shl(0xa0, 0x01), 0x01)\n    /* \"@openzeppelin/contracts@4.4.2/access/Ownable.sol\":2378:2395  _owner = newOwner */\n  dup4\n  dup2\n  and\n  not(sub(shl(0xa0, 0x01), 0x01))\n  dup4\n  and\n  dup2\n  or\n  swap1\n  swap4\n  sstore\n    /* \"@openzeppelin/contracts@4.4.2/access/Ownable.sol\":2410:2450  OwnershipTransferred(oldOwner, newOwner) */\n  mload(0x40)\n    /* \"@openzeppelin/contracts@4.4.2/access/Ownable.sol\":2362:2368  _owner */\n  swap2\n  and\n  swap2\n    /* \"@openzeppelin/contracts@4.4.2/access/Ownable.sol\":2378:2395  _owner = newOwner */\n  swap1\n    /* \"@openzeppelin/contracts@4.4.2/access/Ownable.sol\":2362:2368  _owner */\n  dup3\n  swap1\n    /* \"@openzeppelin/contracts@4.4.2/access/Ownable.sol\":2410:2450  OwnershipTransferred(oldOwner, newOwner) */\n  0x8be0079c531659141344cd1fd0a4f28419497f9722a3daafe3b4186f6b6457e0\n  swap1\n    /* \"@openzeppelin/contracts@4.4.2/access/Ownable.sol\":2343:2359  address oldOwner */\n  0x00\n  swap1\n    /* \"@openzeppelin/contracts@4.4.2/access/Ownable.sol\":2410:2450  OwnershipTransferred(oldOwner, newOwner) */\n  log3\n    /* \"@openzeppelin/contracts@4.4.2/access/Ownable.sol\":2333:2457  {... */\n  pop\n    /* \"@openzeppelin/contracts@4.4.2/access/Ownable.sol\":2270:2457  function _transferOwnership(address newOwner) internal virtual {... */\n  pop\n  jump\t// out\n    /* \"#utility.yul\":14:141   */\ntag_24:\n    /* \"#utility.yul\":75:85   */\n  0x4e487b71\n    /* \"#utility.yul\":70:73   */\n  0xe0\n    /* \"#utility.yul\":66:86   */\n  shl\n    /* \"#utility.yul\":63:64   */\n  0x00\n    /* \"#utility.yul\":56:87   */\n  mstore\n    /* \"#utility.yul\":106:110   */\n  0x41\n    /* \"#utility.yul\":103:104   */\n  0x04\n    /* \"#utility.yul\":96:111   */\n  mstore\n    /* \"#utility.yul\":130:134   */\n  0x24\n    /* \"#utility.yul\":127:128   */\n  0x00\n    /* \"#utility.yul\":120:135   */\n  revert\n    /* \"#utility.yul\":146:1353   */\ntag_3:\n    /* \"#utility.yul\":234:240   */\n  0x00\n    /* \"#utility.yul\":242:248   */\n  dup1\n    /* \"#utility.yul\":295:297   */\n  0x40\n    /* \"#utility.yul\":283:292   */\n  dup4\n    /* \"#utility.yul\":274:281   */\n  dup6\n    /* \"#utility.yul\":270:293   */\n  sub\n    /* \"#utility.yul\":266:298   */\n  slt\n    /* \"#utility.yul\":263:315   */\n  iszero\n  tag_32\n  jumpi\n    /* \"#utility.yul\":311:312   */\n  0x00\n    /* \"#utility.yul\":308:309   */\n  dup1\n    /* \"#utility.yul\":301:313   */\n  revert\n    /* \"#utility.yul\":263:315   */\ntag_32:\n    /* \"#utility.yul\":337:353   */\n  dup3\n  mload\n  sub(shl(0x60, 0x01), 0x01)\n    /* \"#utility.yul\":382:412   */\n  dup2\n  and\n    /* \"#utility.yul\":372:413   */\n  dup2\n  eq\n    /* \"#utility.yul\":362:431   */\n  tag_33\n  jumpi\n    /* \"#utility.yul\":427:428   */\n  0x00\n    /* \"#utility.yul\":424:425   */\n  dup1\n    /* \"#utility.yul\":417:429   */\n  revert\n    /* \"#utility.yul\":362:431   */\ntag_33:\n    /* \"#utility.yul\":474:476   */\n  0x20\n    /* \"#utility.yul\":505:523   */\n  dup5\n  dup2\n  add\n    /* \"#utility.yul\":499:524   */\n  mload\n    /* \"#utility.yul\":450:455   */\n  swap2\n  swap4\n  pop\n    /* \"#utility.yul\":474:476   */\n  swap1\n  sub(shl(0x40, 0x01), 0x01)\n    /* \"#utility.yul\":573:587   */\n  dup1\n  dup3\n  gt\n    /* \"#utility.yul\":570:604   */\n  iszero\n  tag_34\n  jumpi\n    /* \"#utility.yul\":600:601   */\n  0x00\n    /* \"#utility.yul\":597:598   */\n  dup1\n    /* \"#utility.yul\":590:602   */\n  revert\n    /* \"#utility.yul\":570:604   */\ntag_34:\n    /* \"#utility.yul\":638:644   */\n  dup2\n    /* \"#utility.yul\":627:636   */\n  dup7\n    /* \"#utility.yul\":623:645   */\n  add\n    /* \"#utility.yul\":613:645   */\n  swap2\n  pop\n    /* \"#utility.yul\":683:690   */\n  dup7\n    /* \"#utility.yul\":676:680   */\n  0x1f\n    /* \"#utility.yul\":672:674   */\n  dup4\n    /* \"#utility.yul\":668:681   */\n  add\n    /* \"#utility.yul\":664:691   */\n  slt\n    /* \"#utility.yul\":654:709   */\n  tag_35\n  jumpi\n    /* \"#utility.yul\":705:706   */\n  0x00\n    /* \"#utility.yul\":702:703   */\n  dup1\n    /* \"#utility.yul\":695:707   */\n  revert\n    /* \"#utility.yul\":654:709   */\ntag_35:\n    /* \"#utility.yul\":734:736   */\n  dup2\n    /* \"#utility.yul\":728:737   */\n  mload\n    /* \"#utility.yul\":756:758   */\n  dup2\n    /* \"#utility.yul\":752:754   */\n  dup2\n    /* \"#utility.yul\":749:759   */\n  gt\n    /* \"#utility.yul\":746:782   */\n  iszero\n  tag_37\n  jumpi\n    /* \"#utility.yul\":762:780   */\n  tag_37\n  tag_24\n  jump\t// in\ntag_37:\n    /* \"#utility.yul\":837:839   */\n  0x40\n    /* \"#utility.yul\":831:840   */\n  mload\n    /* \"#utility.yul\":805:807   */\n  0x1f\n    /* \"#utility.yul\":891:904   */\n  dup3\n  add\n  not(0x1f)\n    /* \"#utility.yul\":887:909   */\n  swap1\n  dup2\n  and\n    /* \"#utility.yul\":911:913   */\n  0x3f\n    /* \"#utility.yul\":883:914   */\n  add\n    /* \"#utility.yul\":879:919   */\n  and\n    /* \"#utility.yul\":867:920   */\n  dup2\n  add\n  swap1\n    /* \"#utility.yul\":935:953   */\n  dup4\n  dup3\n  gt\n    /* \"#utility.yul\":955:977   */\n  dup2\n  dup4\n  lt\n    /* \"#utility.yul\":932:978   */\n  or\n    /* \"#utility.yul\":929:1001   */\n  iszero\n  tag_39\n  jumpi\n    /* \"#utility.yul\":981:999   */\n  tag_39\n  tag_24\n  jump\t// in\ntag_39:\n    /* \"#utility.yul\":1021:1031   */\n  dup2\n    /* \"#utility.yul\":1017:1019   */\n  0x40\n    /* \"#utility.yul\":1010:1032   */\n  mstore\n    /* \"#utility.yul\":1056:1058   */\n  dup3\n    /* \"#utility.yul\":1048:1054   */\n  dup2\n    /* \"#utility.yul\":1041:1059   */\n  mstore\n    /* \"#utility.yul\":1096:1103   */\n  dup10\n    /* \"#utility.yul\":1091:1093   */\n  dup7\n    /* \"#utility.yul\":1086:1088   */\n  dup5\n    /* \"#utility.yul\":1082:1084   */\n  dup8\n    /* \"#utility.yul\":1078:1089   */\n  add\n    /* \"#utility.yul\":1074:1094   */\n  add\n    /* \"#utility.yul\":1071:1104   */\n  gt\n    /* \"#utility.yul\":1068:1121   */\n  iszero\n  tag_40\n  jumpi\n    /* \"#utility.yul\":1117:1118   */\n  0x00\n    /* \"#utility.yul\":1114:1115   */\n  dup1\n    /* \"#utility.yul\":1107:1119   */\n  revert\n    /* \"#utility.yul\":1068:1121   */\ntag_40:\n    /* \"#utility.yul\":1139:1140   */\n  0x00\n    /* \"#utility.yul\":1130:1140   */\n  swap4\n  pop\n    /* \"#utility.yul\":1149:1278   */\ntag_41:\n    /* \"#utility.yul\":1163:1165   */\n  dup3\n    /* \"#utility.yul\":1160:1161   */\n  dup5\n    /* \"#utility.yul\":1157:1166   */\n  lt\n    /* \"#utility.yul\":1149:1278   */\n  iszero\n  tag_43\n  jumpi\n    /* \"#utility.yul\":1251:1261   */\n  dup5\n  dup5\n  add\n    /* \"#utility.yul\":1247:1266   */\n  dup7\n  add\n    /* \"#utility.yul\":1241:1267   */\n  mload\n    /* \"#utility.yul\":1220:1234   */\n  dup2\n  dup6\n  add\n    /* \"#utility.yul\":1216:1239   */\n  dup8\n  add\n    /* \"#utility.yul\":1209:1268   */\n  mstore\n    /* \"#utility.yul\":1174:1184   */\n  swap3\n  dup6\n  add\n  swap3\n    /* \"#utility.yul\":1149:1278   */\n  jump(tag_41)\ntag_43:\n    /* \"#utility.yul\":1320:1321   */\n  0x00\n    /* \"#utility.yul\":1315:1317   */\n  dup7\n    /* \"#utility.yul\":1310:1312   */\n  dup5\n    /* \"#utility.yul\":1302:1308   */\n  dup4\n    /* \"#utility.yul\":1298:1313   */\n  add\n    /* \"#utility.yul\":1294:1318   */\n  add\n    /* \"#utility.yul\":1287:1322   */\n  mstore\n    /* \"#utility.yul\":1341:1347   */\n  dup1\n    /* \"#utility.yul\":1331:1347   */\n  swap7\n  pop\n  pop\n  pop\n  pop\n  pop\n  pop\n  pop\n    /* \"#utility.yul\":146:1353   */\n  swap3\n  pop\n  swap3\n  swap1\n  pop\n  jump\t// out\n    /* \"#utility.yul\":1358:1738   */\ntag_25:\n    /* \"#utility.yul\":1437:1438   */\n  0x01\n    /* \"#utility.yul\":1433:1445   */\n  dup2\n  dup2\n  shr\n  swap1\n    /* \"#utility.yul\":1480:1492   */\n  dup3\n  and\n  dup1\n    /* \"#utility.yul\":1501:1562   */\n  tag_45\n  jumpi\n    /* \"#utility.yul\":1555:1559   */\n  0x7f\n    /* \"#utility.yul\":1547:1553   */\n  dup3\n    /* \"#utility.yul\":1543:1560   */\n  and\n    /* \"#utility.yul\":1533:1560   */\n  swap2\n  pop\n    /* \"#utility.yul\":1501:1562   */\ntag_45:\n    /* \"#utility.yul\":1608:1610   */\n  0x20\n    /* \"#utility.yul\":1600:1606   */\n  dup3\n    /* \"#utility.yul\":1597:1611   */\n  lt\n    /* \"#utility.yul\":1577:1595   */\n  dup2\n    /* \"#utility.yul\":1574:1612   */\n  sub\n    /* \"#utility.yul\":1571:1732   */\n  tag_46\n  jumpi\n    /* \"#utility.yul\":1654:1664   */\n  0x4e487b71\n    /* \"#utility.yul\":1649:1652   */\n  0xe0\n    /* \"#utility.yul\":1645:1665   */\n  shl\n    /* \"#utility.yul\":1642:1643   */\n  0x00\n    /* \"#utility.yul\":1635:1666   */\n  mstore\n    /* \"#utility.yul\":1689:1693   */\n  0x22\n    /* \"#utility.yul\":1686:1687   */\n  0x04\n    /* \"#utility.yul\":1679:1694   */\n  mstore\n    /* \"#utility.yul\":1717:1721   */\n  0x24\n    /* \"#utility.yul\":1714:1715   */\n  0x00\n    /* \"#utility.yul\":1707:1722   */\n  revert\n    /* \"#utility.yul\":1571:1732   */\ntag_46:\n  pop\n    /* \"#utility.yul\":1358:1738   */\n  swap2\n  swap1\n  pop\n  jump\t// out\n    /* \"#utility.yul\":1869:2414   */\ntag_27:\n    /* \"#utility.yul\":1971:1973   */\n  0x1f\n    /* \"#utility.yul\":1966:1969   */\n  dup3\n    /* \"#utility.yul\":1963:1974   */\n  gt\n    /* \"#utility.yul\":1960:2408   */\n  iszero\n  tag_49\n  jumpi\n    /* \"#utility.yul\":2007:2008   */\n  0x00\n    /* \"#utility.yul\":2032:2037   */\n  dup2\n    /* \"#utility.yul\":2028:2030   */\n  dup2\n    /* \"#utility.yul\":2021:2038   */\n  mstore\n    /* \"#utility.yul\":2077:2081   */\n  0x20\n    /* \"#utility.yul\":2073:2075   */\n  dup2\n    /* \"#utility.yul\":2063:2082   */\n  keccak256\n    /* \"#utility.yul\":2147:2149   */\n  0x1f\n    /* \"#utility.yul\":2135:2145   */\n  dup6\n    /* \"#utility.yul\":2131:2150   */\n  add\n    /* \"#utility.yul\":2128:2129   */\n  0x05\n    /* \"#utility.yul\":2124:2151   */\n  shr\n    /* \"#utility.yul\":2118:2122   */\n  dup2\n    /* \"#utility.yul\":2114:2152   */\n  add\n    /* \"#utility.yul\":2183:2187   */\n  0x20\n    /* \"#utility.yul\":2171:2181   */\n  dup7\n    /* \"#utility.yul\":2168:2188   */\n  lt\n    /* \"#utility.yul\":2165:2212   */\n  iszero\n  tag_50\n  jumpi\n  pop\n    /* \"#utility.yul\":2206:2210   */\n  dup1\n    /* \"#utility.yul\":2165:2212   */\ntag_50:\n    /* \"#utility.yul\":2261:2263   */\n  0x1f\n    /* \"#utility.yul\":2256:2259   */\n  dup6\n    /* \"#utility.yul\":2252:2264   */\n  add\n    /* \"#utility.yul\":2249:2250   */\n  0x05\n    /* \"#utility.yul\":2245:2265   */\n  shr\n    /* \"#utility.yul\":2239:2243   */\n  dup3\n    /* \"#utility.yul\":2235:2266   */\n  add\n    /* \"#utility.yul\":2225:2266   */\n  swap2\n  pop\n    /* \"#utility.yul\":2316:2398   */\ntag_51:\n    /* \"#utility.yul\":2334:2336   */\n  dup2\n    /* \"#utility.yul\":2327:2332   */\n  dup2\n    /* \"#utility.yul\":2324:2337   */\n  lt\n    /* \"#utility.yul\":2316:2398   */\n  iszero\n  tag_53\n  jumpi\n    /* \"#utility.yul\":2379:2396   */\n  dup3\n  dup2\n  sstore\n    /* \"#utility.yul\":2360:2361   */\n  0x01\n    /* \"#utility.yul\":2349:2362   */\n  add\n    /* \"#utility.yul\":2316:2398   */\n  jump(tag_51)\ntag_53:\n    /* \"#utility.yul\":2320:2323   */\n  pop\n  pop\n  pop\n    /* \"#utility.yul\":1960:2408   */\ntag_49:\n    /* \"#utility.yul\":1869:2414   */\n  pop\n  pop\n  pop\n  jump\t// out\n    /* \"#utility.yul\":2590:3942   */\ntag_9:\n    /* \"#utility.yul\":2710:2720   */\n  dup2\n  mload\n  sub(shl(0x40, 0x01), 0x01)\n    /* \"#utility.yul\":2732:2762   */\n  dup2\n  gt\n    /* \"#utility.yul\":2729:2785   */\n  iszero\n  tag_57\n  jumpi\n    /* \"#utility.yul\":2765:2783   */\n  tag_57\n  tag_24\n  jump\t// in\ntag_57:\n    /* \"#utility.yul\":2794:2891   */\n  tag_58\n    /* \"#utility.yul\":2884:2890   */\n  dup2\n    /* \"#utility.yul\":2844:2882   */\n  tag_59\n    /* \"#utility.yul\":2876:2880   */\n  dup5\n    /* \"#utility.yul\":2870:2881   */\n  sload\n    /* \"#utility.yul\":2844:2882   */\n  tag_25\n  jump\t// in\ntag_59:\n    /* \"#utility.yul\":2838:2842   */\n  dup5\n    /* \"#utility.yul\":2794:2891   */\n  tag_27\n  jump\t// in\ntag_58:\n    /* \"#utility.yul\":2946:2950   */\n  0x20\n  dup1\n    /* \"#utility.yul\":3010:3012   */\n  0x1f\n    /* \"#utility.yul\":2999:3013   */\n  dup4\n  gt\n    /* \"#utility.yul\":3027:3028   */\n  0x01\n    /* \"#utility.yul\":3022:3685   */\n  dup2\n  eq\n  tag_61\n  jumpi\n    /* \"#utility.yul\":3729:3730   */\n  0x00\n    /* \"#utility.yul\":3746:3752   */\n  dup5\n    /* \"#utility.yul\":3743:3832   */\n  iszero\n  tag_62\n  jumpi\n  pop\n    /* \"#utility.yul\":3798:3817   */\n  dup6\n  dup4\n  add\n    /* \"#utility.yul\":3792:3818   */\n  mload\n    /* \"#utility.yul\":3743:3832   */\ntag_62:\n  not(0x00)\n    /* \"#utility.yul\":2547:2548   */\n  0x03\n    /* \"#utility.yul\":2543:2554   */\n  dup7\n  swap1\n  shl\n    /* \"#utility.yul\":2539:2563   */\n  shr\n    /* \"#utility.yul\":2535:2564   */\n  not\n    /* \"#utility.yul\":2525:2565   */\n  and\n    /* \"#utility.yul\":2571:2572   */\n  0x01\n    /* \"#utility.yul\":2567:2578   */\n  dup6\n  swap1\n  shl\n    /* \"#utility.yul\":2522:2579   */\n  or\n    /* \"#utility.yul\":3845:3926   */\n  dup6\n  sstore\n    /* \"#utility.yul\":2992:3936   */\n  jump(tag_53)\n    /* \"#utility.yul\":3022:3685   */\ntag_61:\n    /* \"#utility.yul\":1816:1817   */\n  0x00\n    /* \"#utility.yul\":1809:1823   */\n  dup6\n  dup2\n  mstore\n    /* \"#utility.yul\":1853:1857   */\n  0x20\n    /* \"#utility.yul\":1840:1858   */\n  dup2\n  keccak256\n  not(0x1f)\n    /* \"#utility.yul\":3058:3078   */\n  dup7\n  and\n  swap2\n    /* \"#utility.yul\":3176:3412   */\ntag_65:\n    /* \"#utility.yul\":3190:3197   */\n  dup3\n    /* \"#utility.yul\":3187:3188   */\n  dup2\n    /* \"#utility.yul\":3184:3198   */\n  lt\n    /* \"#utility.yul\":3176:3412   */\n  iszero\n  tag_67\n  jumpi\n    /* \"#utility.yul\":3279:3298   */\n  dup9\n  dup7\n  add\n    /* \"#utility.yul\":3273:3299   */\n  mload\n    /* \"#utility.yul\":3258:3300   */\n  dup3\n  sstore\n    /* \"#utility.yul\":3371:3398   */\n  swap5\n  dup5\n  add\n  swap5\n    /* \"#utility.yul\":3339:3340   */\n  0x01\n    /* \"#utility.yul\":3327:3341   */\n  swap1\n  swap2\n  add\n  swap1\n    /* \"#utility.yul\":3206:3225   */\n  dup5\n  add\n    /* \"#utility.yul\":3176:3412   */\n  jump(tag_65)\ntag_67:\n    /* \"#utility.yul\":3180:3183   */\n  pop\n    /* \"#utility.yul\":3440:3446   */\n  dup6\n    /* \"#utility.yul\":3431:3438   */\n  dup3\n    /* \"#utility.yul\":3428:3447   */\n  lt\n    /* \"#utility.yul\":3425:3626   */\n  iszero\n  tag_68\n  jumpi\n    /* \"#utility.yul\":3501:3520   */\n  dup8\n  dup6\n  add\n    /* \"#utility.yul\":3495:3521   */\n  mload\n  not(0x00)\n    /* \"#utility.yul\":3584:3585   */\n  0x03\n    /* \"#utility.yul\":3580:3594   */\n  dup9\n  swap1\n  shl\n    /* \"#utility.yul\":3596:3599   */\n  0xf8\n    /* \"#utility.yul\":3576:3600   */\n  and\n    /* \"#utility.yul\":3572:3609   */\n  shr\n    /* \"#utility.yul\":3568:3610   */\n  not\n    /* \"#utility.yul\":3553:3611   */\n  and\n    /* \"#utility.yul\":3538:3612   */\n  dup2\n  sstore\n    /* \"#utility.yul\":3425:3626   */\ntag_68:\n  pop\n  pop\n  pop\n  pop\n  pop\n    /* \"#utility.yul\":3672:3673   */\n  0x01\n    /* \"#utility.yul\":3656:3670   */\n  swap1\n  dup2\n  shl\n    /* \"#utility.yul\":3652:3674   */\n  add\n    /* \"#utility.yul\":3639:3675   */\n  swap1\n  sstore\n  pop\n    /* \"#utility.yul\":2590:3942   */\n  jump\t// out\ntag_29:\n    /* \"Royelty_ERC-2981_Contract.sol\":267:2108  contract MyToken is ERC721, ERC721Enumerable, Ownable {... */\n  dataSize(sub_0)\n  dup1\n  dataOffset(sub_0)\n  0x00\n  codecopy\n  0x00\n  return\nstop\n\nsub_0: assembly {\n        /* \"Royelty_ERC-2981_Contract.sol\":267:2108  contract MyToken is ERC721, ERC721Enumerable, Ownable {... */\n      mstore(0x40, 0x80)\n      callvalue\n      dup1\n      iszero\n      tag_1\n      jumpi\n      0x00\n      dup1\n      revert\n    tag_1:\n      pop\n      jumpi(tag_2, lt(calldatasize, 0x04))\n      shr(0xe0, calldataload(0x00))\n      dup1\n      0x70a08231\n      gt\n      tag_28\n      jumpi\n      dup1\n      0xa22cb465\n      gt\n      tag_29\n      jumpi\n      dup1\n      0xc87b56dd\n      gt\n      tag_30\n      jumpi\n      dup1\n      0xc87b56dd\n      eq\n      tag_24\n      jumpi\n      dup1\n      0xe8a3d485\n      eq\n      tag_25\n      jumpi\n      dup1\n      0xe985e9c5\n      eq\n      tag_26\n      jumpi\n      dup1\n      0xf2fde38b\n      eq\n      tag_27\n      jumpi\n      0x00\n      dup1\n      revert\n    tag_30:\n      dup1\n      0xa22cb465\n      eq\n      tag_21\n      jumpi\n      dup1\n      0xa2e69613\n      eq\n      tag_22\n      jumpi\n      dup1\n      0xb88d4fde\n      eq\n      tag_23\n      jumpi\n      0x00\n      dup1\n      revert\n    tag_29:\n      dup1\n      0x70a08231\n      eq\n      tag_15\n      jumpi\n      dup1\n      0x715018a6\n      eq\n      tag_16\n      jumpi\n      dup1\n      0x8da5cb5b\n      eq\n      tag_17\n      jumpi\n      dup1\n      0x938e3d7b\n      eq\n      tag_18\n      jumpi\n      dup1\n      0x95d89b41\n      eq\n      tag_19\n      jumpi\n      dup1\n      0xa1448194\n      eq\n      tag_20\n      jumpi\n      0x00\n      dup1\n      revert\n    tag_28:\n      dup1\n      0x23b872dd\n      gt\n      tag_31\n      jumpi\n      dup1\n      0x23b872dd\n      eq\n      tag_9\n      jumpi\n      dup1\n      0x2a55205a\n      eq\n      tag_10\n      jumpi\n      dup1\n      0x2f745c59\n      eq\n      tag_11\n      jumpi\n      dup1\n      0x42842e0e\n      eq\n      tag_12\n      jumpi\n      dup1\n      0x4f6ccce7\n      eq\n      tag_13\n      jumpi\n      dup1\n      0x6352211e\n      eq\n      tag_14\n      jumpi\n      0x00\n      dup1\n      revert\n    tag_31:\n      dup1\n      0x01ffc9a7\n      eq\n      tag_3\n      jumpi\n      dup1\n      0x02fa7c47\n      eq\n      tag_4\n      jumpi\n      dup1\n      0x06fdde03\n      eq\n      tag_5\n      jumpi\n      dup1\n      0x081812fc\n      eq\n      tag_6\n      jumpi\n      dup1\n      0x095ea7b3\n      eq\n      tag_7\n      jumpi\n      dup1\n      0x18160ddd\n      eq\n      tag_8\n      jumpi\n    tag_2:\n      0x00\n      dup1\n      revert\n        /* \"Royelty_ERC-2981_Contract.sol\":1736:1986  function supportsInterface(bytes4 interfaceId)... */\n    tag_3:\n      tag_32\n      tag_33\n      calldatasize\n      0x04\n      tag_34\n      jump\t// in\n    tag_33:\n      tag_35\n      jump\t// in\n    tag_32:\n      mload(0x40)\n        /* \"#utility.yul\":565:579   */\n      swap1\n      iszero\n        /* \"#utility.yul\":558:580   */\n      iszero\n        /* \"#utility.yul\":540:581   */\n      dup2\n      mstore\n        /* \"#utility.yul\":528:530   */\n      0x20\n        /* \"#utility.yul\":513:531   */\n      add\n        /* \"Royelty_ERC-2981_Contract.sol\":1736:1986  function supportsInterface(bytes4 interfaceId)... */\n    tag_36:\n      mload(0x40)\n      dup1\n      swap2\n      sub\n      swap1\n      return\n        /* \"Royelty_ERC-2981_Contract.sol\":810:989  function setRoyaltyInfo(address _receiver, uint96 _royaltyFeesInBips) public onlyOwner {... */\n    tag_4:\n      tag_38\n      tag_39\n      calldatasize\n      0x04\n      tag_40\n      jump\t// in\n    tag_39:\n      tag_41\n      jump\t// in\n    tag_38:\n      stop\n        /* \"@openzeppelin/contracts@4.4.2/token/ERC721/ERC721.sol\":2473:2571  function name() public view virtual override returns (string memory) {... */\n    tag_5:\n      tag_42\n      tag_43\n      jump\t// in\n    tag_42:\n      mload(0x40)\n      tag_36\n      swap2\n      swap1\n      tag_45\n      jump\t// in\n        /* \"@openzeppelin/contracts@4.4.2/token/ERC721/ERC721.sol\":3984:4201  function getApproved(uint256 tokenId) public view virtual override returns (address) {... */\n    tag_6:\n      tag_46\n      tag_47\n      calldatasize\n      0x04\n      tag_48\n      jump\t// in\n    tag_47:\n      tag_49\n      jump\t// in\n    tag_46:\n      mload(0x40)\n      sub(shl(0xa0, 0x01), 0x01)\n        /* \"#utility.yul\":2246:2278   */\n      swap1\n      swap2\n      and\n        /* \"#utility.yul\":2228:2279   */\n      dup2\n      mstore\n        /* \"#utility.yul\":2216:2218   */\n      0x20\n        /* \"#utility.yul\":2201:2219   */\n      add\n        /* \"@openzeppelin/contracts@4.4.2/token/ERC721/ERC721.sol\":3984:4201  function getApproved(uint256 tokenId) public view virtual override returns (address) {... */\n      tag_36\n        /* \"#utility.yul\":2082:2285   */\n      jump\n        /* \"@openzeppelin/contracts@4.4.2/token/ERC721/ERC721.sol\":3522:3923  function approve(address to, uint256 tokenId) public virtual override {... */\n    tag_7:\n      tag_38\n      tag_53\n      calldatasize\n      0x04\n      tag_54\n      jump\t// in\n    tag_53:\n      tag_55\n      jump\t// in\n        /* \"@openzeppelin/contracts@4.4.2/token/ERC721/extensions/ERC721Enumerable.sol\":1615:1726  function totalSupply() public view virtual override returns (uint256) {... */\n    tag_8:\n        /* \"@openzeppelin/contracts@4.4.2/token/ERC721/extensions/ERC721Enumerable.sol\":1702:1712  _allTokens */\n      0x08\n        /* \"@openzeppelin/contracts@4.4.2/token/ERC721/extensions/ERC721Enumerable.sol\":1702:1719  _allTokens.length */\n      sload\n        /* \"@openzeppelin/contracts@4.4.2/token/ERC721/extensions/ERC721Enumerable.sol\":1615:1726  function totalSupply() public view virtual override returns (uint256) {... */\n    tag_56:\n      mload(0x40)\n        /* \"#utility.yul\":2695:2720   */\n      swap1\n      dup2\n      mstore\n        /* \"#utility.yul\":2683:2685   */\n      0x20\n        /* \"#utility.yul\":2668:2686   */\n      add\n        /* \"@openzeppelin/contracts@4.4.2/token/ERC721/extensions/ERC721Enumerable.sol\":1615:1726  function totalSupply() public view virtual override returns (uint256) {... */\n      tag_36\n        /* \"#utility.yul\":2549:2726   */\n      jump\n        /* \"@openzeppelin/contracts@4.4.2/token/ERC721/ERC721.sol\":4711:5041  function transferFrom(... */\n    tag_9:\n      tag_38\n      tag_61\n      calldatasize\n      0x04\n      tag_62\n      jump\t// in\n    tag_61:\n      tag_63\n      jump\t// in\n        /* \"Royelty_ERC-2981_Contract.sol\":1387:1584  function royaltyInfo(uint256 tokenId, uint256 _salePrice) external view returns (address receiver, uint256 royaltyAmount)... */\n    tag_10:\n      tag_64\n      tag_65\n      calldatasize\n      0x04\n      tag_66\n      jump\t// in\n    tag_65:\n      tag_67\n      jump\t// in\n    tag_64:\n      0x40\n      dup1\n      mload\n      sub(shl(0xa0, 0x01), 0x01)\n        /* \"#utility.yul\":3509:3541   */\n      swap1\n      swap4\n      and\n        /* \"#utility.yul\":3491:3542   */\n      dup4\n      mstore\n        /* \"#utility.yul\":3573:3575   */\n      0x20\n        /* \"#utility.yul\":3558:3576   */\n      dup4\n      add\n        /* \"#utility.yul\":3551:3585   */\n      swap2\n      swap1\n      swap2\n      mstore\n        /* \"#utility.yul\":3464:3482   */\n      add\n        /* \"Royelty_ERC-2981_Contract.sol\":1387:1584  function royaltyInfo(uint256 tokenId, uint256 _salePrice) external view returns (address receiver, uint256 royaltyAmount)... */\n      tag_36\n        /* \"#utility.yul\":3317:3591   */\n      jump\n        /* \"@openzeppelin/contracts@4.4.2/token/ERC721/extensions/ERC721Enumerable.sol\":1291:1544  function tokenOfOwnerByIndex(address owner, uint256 index) public view virtual override returns (uint256) {... */\n    tag_11:\n      tag_56\n      tag_71\n      calldatasize\n      0x04\n      tag_54\n      jump\t// in\n    tag_71:\n      tag_72\n      jump\t// in\n        /* \"@openzeppelin/contracts@4.4.2/token/ERC721/ERC721.sol\":5107:5286  function safeTransferFrom(... */\n    tag_12:\n      tag_38\n      tag_75\n      calldatasize\n      0x04\n      tag_62\n      jump\t// in\n    tag_75:\n      tag_76\n      jump\t// in\n        /* \"@openzeppelin/contracts@4.4.2/token/ERC721/extensions/ERC721Enumerable.sol\":1798:2028  function tokenByIndex(uint256 index) public view virtual override returns (uint256) {... */\n    tag_13:\n      tag_56\n      tag_78\n      calldatasize\n      0x04\n      tag_48\n      jump\t// in\n    tag_78:\n      tag_79\n      jump\t// in\n        /* \"@openzeppelin/contracts@4.4.2/token/ERC721/ERC721.sol\":2176:2411  function ownerOf(uint256 tokenId) public view virtual override returns (address) {... */\n    tag_14:\n      tag_46\n      tag_82\n      calldatasize\n      0x04\n      tag_48\n      jump\t// in\n    tag_82:\n      tag_83\n      jump\t// in\n        /* \"@openzeppelin/contracts@4.4.2/token/ERC721/ERC721.sol\":1914:2119  function balanceOf(address owner) public view virtual override returns (uint256) {... */\n    tag_15:\n      tag_56\n      tag_86\n      calldatasize\n      0x04\n      tag_87\n      jump\t// in\n    tag_86:\n      tag_88\n      jump\t// in\n        /* \"@openzeppelin/contracts@4.4.2/access/Ownable.sol\":1668:1769  function renounceOwnership() public virtual onlyOwner {... */\n    tag_16:\n      tag_38\n      tag_91\n      jump\t// in\n        /* \"@openzeppelin/contracts@4.4.2/access/Ownable.sol\":1036:1121  function owner() public view virtual returns (address) {... */\n    tag_17:\n        /* \"@openzeppelin/contracts@4.4.2/access/Ownable.sol\":1108:1114  _owner */\n      and(sub(shl(0xa0, 0x01), 0x01), sload(0x0a))\n        /* \"@openzeppelin/contracts@4.4.2/access/Ownable.sol\":1036:1121  function owner() public view virtual returns (address) {... */\n      jump(tag_46)\n        /* \"Royelty_ERC-2981_Contract.sol\":995:1109  function setContractURI(string calldata _contractURI) public onlyOwner {... */\n    tag_18:\n      tag_38\n      tag_96\n      calldatasize\n      0x04\n      tag_97\n      jump\t// in\n    tag_96:\n      tag_98\n      jump\t// in\n        /* \"@openzeppelin/contracts@4.4.2/token/ERC721/ERC721.sol\":2635:2737  function symbol() public view virtual override returns (string memory) {... */\n    tag_19:\n      tag_42\n      tag_100\n      jump\t// in\n        /* \"Royelty_ERC-2981_Contract.sol\":701:804  function safeMint(address to, uint256 tokenId) public onlyOwner {... */\n    tag_20:\n      tag_38\n      tag_103\n      calldatasize\n      0x04\n      tag_54\n      jump\t// in\n    tag_103:\n      tag_104\n      jump\t// in\n        /* \"@openzeppelin/contracts@4.4.2/token/ERC721/ERC721.sol\":4268:4421  function setApprovalForAll(address operator, bool approved) public virtual override {... */\n    tag_21:\n      tag_38\n      tag_106\n      calldatasize\n      0x04\n      tag_107\n      jump\t// in\n    tag_106:\n      tag_108\n      jump\t// in\n        /* \"Royelty_ERC-2981_Contract.sol\":1590:1730  function calculateRoyalty(uint256 _salePrice) view public returns (uint256) {... */\n    tag_22:\n      tag_56\n      tag_110\n      calldatasize\n      0x04\n      tag_48\n      jump\t// in\n    tag_110:\n      tag_111\n      jump\t// in\n        /* \"@openzeppelin/contracts@4.4.2/token/ERC721/ERC721.sol\":5352:5672  function safeTransferFrom(... */\n    tag_23:\n      tag_38\n      tag_114\n      calldatasize\n      0x04\n      tag_115\n      jump\t// in\n    tag_114:\n      tag_116\n      jump\t// in\n        /* \"@openzeppelin/contracts@4.4.2/token/ERC721/ERC721.sol\":2803:3132  function tokenURI(uint256 tokenId) public view virtual override returns (string memory) {... */\n    tag_24:\n      tag_42\n      tag_118\n      calldatasize\n      0x04\n      tag_48\n      jump\t// in\n    tag_118:\n      tag_119\n      jump\t// in\n        /* \"Royelty_ERC-2981_Contract.sol\":327:352  string public contractURI */\n    tag_25:\n      tag_42\n      tag_122\n      jump\t// in\n        /* \"@openzeppelin/contracts@4.4.2/token/ERC721/ERC721.sol\":4487:4649  function isApprovedForAll(address owner, address operator) public view virtual override returns (bool) {... */\n    tag_26:\n      tag_32\n      tag_125\n      calldatasize\n      0x04\n      tag_126\n      jump\t// in\n    tag_125:\n      sub(shl(0xa0, 0x01), 0x01)\n        /* \"@openzeppelin/contracts@4.4.2/token/ERC721/ERC721.sol\":4607:4632  _operatorApprovals[owner] */\n      swap2\n      dup3\n      and\n        /* \"@openzeppelin/contracts@4.4.2/token/ERC721/ERC721.sol\":4584:4588  bool */\n      0x00\n        /* \"@openzeppelin/contracts@4.4.2/token/ERC721/ERC721.sol\":4607:4632  _operatorApprovals[owner] */\n      swap1\n      dup2\n      mstore\n        /* \"@openzeppelin/contracts@4.4.2/token/ERC721/ERC721.sol\":4607:4625  _operatorApprovals */\n      0x05\n        /* \"@openzeppelin/contracts@4.4.2/token/ERC721/ERC721.sol\":4607:4632  _operatorApprovals[owner] */\n      0x20\n      swap1\n      dup2\n      mstore\n      0x40\n      dup1\n      dup4\n      keccak256\n        /* \"@openzeppelin/contracts@4.4.2/token/ERC721/ERC721.sol\":4607:4642  _operatorApprovals[owner][operator] */\n      swap4\n      swap1\n      swap5\n      and\n      dup3\n      mstore\n      swap2\n      swap1\n      swap2\n      mstore\n      keccak256\n      sload\n      0xff\n      and\n      swap1\n        /* \"@openzeppelin/contracts@4.4.2/token/ERC721/ERC721.sol\":4487:4649  function isApprovedForAll(address owner, address operator) public view virtual override returns (bool) {... */\n      jump\n        /* \"@openzeppelin/contracts@4.4.2/access/Ownable.sol\":1918:2116  function transferOwnership(address newOwner) public virtual onlyOwner {... */\n    tag_27:\n      tag_38\n      tag_130\n      calldatasize\n      0x04\n      tag_87\n      jump\t// in\n    tag_130:\n      tag_131\n      jump\t// in\n        /* \"Royelty_ERC-2981_Contract.sol\":1736:1986  function supportsInterface(bytes4 interfaceId)... */\n    tag_35:\n        /* \"Royelty_ERC-2981_Contract.sol\":1887:1891  bool */\n      0x00\n      shl(0xe1, 0x152a902d)\n      not(sub(shl(0xe0, 0x01), 0x01))\n        /* \"Royelty_ERC-2981_Contract.sol\":1914:1939  interfaceId == 0x2a55205a */\n      dup4\n      and\n      eq\n      dup1\n        /* \"Royelty_ERC-2981_Contract.sol\":1914:1979  interfaceId == 0x2a55205a || super.supportsInterface(interfaceId) */\n      tag_134\n      jumpi\n      pop\n        /* \"Royelty_ERC-2981_Contract.sol\":1943:1979  super.supportsInterface(interfaceId) */\n      tag_134\n        /* \"Royelty_ERC-2981_Contract.sol\":1967:1978  interfaceId */\n      dup3\n        /* \"Royelty_ERC-2981_Contract.sol\":1943:1966  super.supportsInterface */\n      tag_135\n        /* \"Royelty_ERC-2981_Contract.sol\":1943:1979  super.supportsInterface(interfaceId) */\n      jump\t// in\n    tag_134:\n        /* \"Royelty_ERC-2981_Contract.sol\":1907:1979  return interfaceId == 0x2a55205a || super.supportsInterface(interfaceId) */\n      swap3\n        /* \"Royelty_ERC-2981_Contract.sol\":1736:1986  function supportsInterface(bytes4 interfaceId)... */\n      swap2\n      pop\n      pop\n      jump\t// out\n        /* \"Royelty_ERC-2981_Contract.sol\":810:989  function setRoyaltyInfo(address _receiver, uint96 _royaltyFeesInBips) public onlyOwner {... */\n    tag_41:\n        /* \"@openzeppelin/contracts@4.4.2/access/Ownable.sol\":1108:1114  _owner */\n      and(sub(shl(0xa0, 0x01), 0x01), sload(0x0a))\n        /* \"@openzeppelin/contracts@4.4.2/utils/Context.sol\":719:729  msg.sender */\n      caller\n        /* \"@openzeppelin/contracts@4.4.2/access/Ownable.sol\":1248:1271  owner() == _msgSender() */\n      eq\n        /* \"@openzeppelin/contracts@4.4.2/access/Ownable.sol\":1240:1308  require(owner() == _msgSender(), \"Ownable: caller is not the owner\") */\n      tag_140\n      jumpi\n      mload(0x40)\n      shl(0xe5, 0x461bcd)\n      dup2\n      mstore\n      0x04\n      add\n      tag_141\n      swap1\n      tag_142\n      jump\t// in\n    tag_141:\n      mload(0x40)\n      dup1\n      swap2\n      sub\n      swap1\n      revert\n    tag_140:\n      sub(shl(0x60, 0x01), 0x01)\n        /* \"Royelty_ERC-2981_Contract.sol\":944:982  royaltyFeesInBips = _royaltyFeesInBips */\n      and\n      sub(shl(0xa0, 0x01), 0x01)\n        /* \"Royelty_ERC-2981_Contract.sol\":907:934  royaltyReceiver = _receiver */\n      swap1\n      swap2\n      and\n      shl(0x60, 0x01)\n      mul\n      not(0xffffffffffffffffffffffff)\n        /* \"Royelty_ERC-2981_Contract.sol\":944:982  royaltyFeesInBips = _royaltyFeesInBips */\n      and\n      or\n        /* \"Royelty_ERC-2981_Contract.sol\":907:922  royaltyReceiver */\n      0x0c\n        /* \"Royelty_ERC-2981_Contract.sol\":944:982  royaltyFeesInBips = _royaltyFeesInBips */\n      sstore\n        /* \"Royelty_ERC-2981_Contract.sol\":810:989  function setRoyaltyInfo(address _receiver, uint96 _royaltyFeesInBips) public onlyOwner {... */\n      jump\t// out\n        /* \"@openzeppelin/contracts@4.4.2/token/ERC721/ERC721.sol\":2473:2571  function name() public view virtual override returns (string memory) {... */\n    tag_43:\n        /* \"@openzeppelin/contracts@4.4.2/token/ERC721/ERC721.sol\":2527:2540  string memory */\n      0x60\n        /* \"@openzeppelin/contracts@4.4.2/token/ERC721/ERC721.sol\":2559:2564  _name */\n      0x00\n        /* \"@openzeppelin/contracts@4.4.2/token/ERC721/ERC721.sol\":2552:2564  return _name */\n      dup1\n      sload\n      tag_145\n      swap1\n      tag_146\n      jump\t// in\n    tag_145:\n      dup1\n      0x1f\n      add\n      0x20\n      dup1\n      swap2\n      div\n      mul\n      0x20\n      add\n      mload(0x40)\n      swap1\n      dup2\n      add\n      0x40\n      mstore\n      dup1\n      swap3\n      swap2\n      swap1\n      dup2\n      dup2\n      mstore\n      0x20\n      add\n      dup3\n      dup1\n      sload\n      tag_147\n      swap1\n      tag_146\n      jump\t// in\n    tag_147:\n      dup1\n      iszero\n      tag_148\n      jumpi\n      dup1\n      0x1f\n      lt\n      tag_149\n      jumpi\n      0x0100\n      dup1\n      dup4\n      sload\n      div\n      mul\n      dup4\n      mstore\n      swap2\n      0x20\n      add\n      swap2\n      jump(tag_148)\n    tag_149:\n      dup3\n      add\n      swap2\n      swap1\n      0x00\n      mstore\n      keccak256(0x00, 0x20)\n      swap1\n    tag_150:\n      dup2\n      sload\n      dup2\n      mstore\n      swap1\n      0x01\n      add\n      swap1\n      0x20\n      add\n      dup1\n      dup4\n      gt\n      tag_150\n      jumpi\n      dup3\n      swap1\n      sub\n      0x1f\n      and\n      dup3\n      add\n      swap2\n    tag_148:\n      pop\n      pop\n      pop\n      pop\n      pop\n      swap1\n      pop\n        /* \"@openzeppelin/contracts@4.4.2/token/ERC721/ERC721.sol\":2473:2571  function name() public view virtual override returns (string memory) {... */\n      swap1\n      jump\t// out\n        /* \"@openzeppelin/contracts@4.4.2/token/ERC721/ERC721.sol\":3984:4201  function getApproved(uint256 tokenId) public view virtual override returns (address) {... */\n    tag_49:\n        /* \"@openzeppelin/contracts@4.4.2/token/ERC721/ERC721.sol\":4060:4067  address */\n      0x00\n        /* \"@openzeppelin/contracts@4.4.2/token/ERC721/ERC721.sol\":7232:7248  _owners[tokenId] */\n      dup2\n      dup2\n      mstore\n        /* \"@openzeppelin/contracts@4.4.2/token/ERC721/ERC721.sol\":7232:7239  _owners */\n      0x02\n        /* \"@openzeppelin/contracts@4.4.2/token/ERC721/ERC721.sol\":7232:7248  _owners[tokenId] */\n      0x20\n      mstore\n      0x40\n      dup2\n      keccak256\n      sload\n      sub(shl(0xa0, 0x01), 0x01)\n      and\n        /* \"@openzeppelin/contracts@4.4.2/token/ERC721/ERC721.sol\":4079:4152  require(_exists(tokenId), \"ERC721: approved query for nonexistent token\") */\n      tag_154\n      jumpi\n      mload(0x40)\n      shl(0xe5, 0x461bcd)\n      dup2\n      mstore\n        /* \"#utility.yul\":7224:7226   */\n      0x20\n        /* \"@openzeppelin/contracts@4.4.2/token/ERC721/ERC721.sol\":4079:4152  require(_exists(tokenId), \"ERC721: approved query for nonexistent token\") */\n      0x04\n      dup3\n      add\n        /* \"#utility.yul\":7206:7227   */\n      mstore\n        /* \"#utility.yul\":7263:7265   */\n      0x2c\n        /* \"#utility.yul\":7243:7261   */\n      0x24\n      dup3\n      add\n        /* \"#utility.yul\":7236:7266   */\n      mstore\n        /* \"#utility.yul\":7302:7336   */\n      0x4552433732313a20617070726f76656420717565727920666f72206e6f6e6578\n        /* \"#utility.yul\":7282:7300   */\n      0x44\n      dup3\n      add\n        /* \"#utility.yul\":7275:7337   */\n      mstore\n      shl(0xa1, 0x34b9ba32b73a103a37b5b2b7)\n        /* \"#utility.yul\":7353:7371   */\n      0x64\n      dup3\n      add\n        /* \"#utility.yul\":7346:7388   */\n      mstore\n        /* \"#utility.yul\":7405:7424   */\n      0x84\n      add\n        /* \"@openzeppelin/contracts@4.4.2/token/ERC721/ERC721.sol\":4079:4152  require(_exists(tokenId), \"ERC721: approved query for nonexistent token\") */\n      tag_141\n        /* \"#utility.yul\":7022:7430   */\n      jump\n        /* \"@openzeppelin/contracts@4.4.2/token/ERC721/ERC721.sol\":4079:4152  require(_exists(tokenId), \"ERC721: approved query for nonexistent token\") */\n    tag_154:\n      pop\n        /* \"@openzeppelin/contracts@4.4.2/token/ERC721/ERC721.sol\":4170:4194  _tokenApprovals[tokenId] */\n      0x00\n      swap1\n      dup2\n      mstore\n        /* \"@openzeppelin/contracts@4.4.2/token/ERC721/ERC721.sol\":4170:4185  _tokenApprovals */\n      0x04\n        /* \"@openzeppelin/contracts@4.4.2/token/ERC721/ERC721.sol\":4170:4194  _tokenApprovals[tokenId] */\n      0x20\n      mstore\n      0x40\n      swap1\n      keccak256\n      sload\n      sub(shl(0xa0, 0x01), 0x01)\n      and\n      swap1\n        /* \"@openzeppelin/contracts@4.4.2/token/ERC721/ERC721.sol\":3984:4201  function getApproved(uint256 tokenId) public view virtual override returns (address) {... */\n      jump\t// out\n        /* \"@openzeppelin/contracts@4.4.2/token/ERC721/ERC721.sol\":3522:3923  function approve(address to, uint256 tokenId) public virtual override {... */\n    tag_55:\n        /* \"@openzeppelin/contracts@4.4.2/token/ERC721/ERC721.sol\":3602:3615  address owner */\n      0x00\n        /* \"@openzeppelin/contracts@4.4.2/token/ERC721/ERC721.sol\":3618:3641  ERC721.ownerOf(tokenId) */\n      tag_158\n        /* \"@openzeppelin/contracts@4.4.2/token/ERC721/ERC721.sol\":3633:3640  tokenId */\n      dup3\n        /* \"@openzeppelin/contracts@4.4.2/token/ERC721/ERC721.sol\":3618:3632  ERC721.ownerOf */\n      tag_83\n        /* \"@openzeppelin/contracts@4.4.2/token/ERC721/ERC721.sol\":3618:3641  ERC721.ownerOf(tokenId) */\n      jump\t// in\n    tag_158:\n        /* \"@openzeppelin/contracts@4.4.2/token/ERC721/ERC721.sol\":3602:3641  address owner = ERC721.ownerOf(tokenId) */\n      swap1\n      pop\n        /* \"@openzeppelin/contracts@4.4.2/token/ERC721/ERC721.sol\":3665:3670  owner */\n      dup1\n      sub(shl(0xa0, 0x01), 0x01)\n        /* \"@openzeppelin/contracts@4.4.2/token/ERC721/ERC721.sol\":3659:3670  to != owner */\n      and\n        /* \"@openzeppelin/contracts@4.4.2/token/ERC721/ERC721.sol\":3659:3661  to */\n      dup4\n      sub(shl(0xa0, 0x01), 0x01)\n        /* \"@openzeppelin/contracts@4.4.2/token/ERC721/ERC721.sol\":3659:3670  to != owner */\n      and\n      sub\n        /* \"@openzeppelin/contracts@4.4.2/token/ERC721/ERC721.sol\":3651:3708  require(to != owner, \"ERC721: approval to current owner\") */\n      tag_159\n      jumpi\n      mload(0x40)\n      shl(0xe5, 0x461bcd)\n      dup2\n      mstore\n        /* \"#utility.yul\":7637:7639   */\n      0x20\n        /* \"@openzeppelin/contracts@4.4.2/token/ERC721/ERC721.sol\":3651:3708  require(to != owner, \"ERC721: approval to current owner\") */\n      0x04\n      dup3\n      add\n        /* \"#utility.yul\":7619:7640   */\n      mstore\n        /* \"#utility.yul\":7676:7678   */\n      0x21\n        /* \"#utility.yul\":7656:7674   */\n      0x24\n      dup3\n      add\n        /* \"#utility.yul\":7649:7679   */\n      mstore\n        /* \"#utility.yul\":7715:7749   */\n      0x4552433732313a20617070726f76616c20746f2063757272656e74206f776e65\n        /* \"#utility.yul\":7695:7713   */\n      0x44\n      dup3\n      add\n        /* \"#utility.yul\":7688:7750   */\n      mstore\n      shl(0xf9, 0x39)\n        /* \"#utility.yul\":7766:7784   */\n      0x64\n      dup3\n      add\n        /* \"#utility.yul\":7759:7790   */\n      mstore\n        /* \"#utility.yul\":7807:7826   */\n      0x84\n      add\n        /* \"@openzeppelin/contracts@4.4.2/token/ERC721/ERC721.sol\":3651:3708  require(to != owner, \"ERC721: approval to current owner\") */\n      tag_141\n        /* \"#utility.yul\":7435:7832   */\n      jump\n        /* \"@openzeppelin/contracts@4.4.2/token/ERC721/ERC721.sol\":3651:3708  require(to != owner, \"ERC721: approval to current owner\") */\n    tag_159:\n        /* \"@openzeppelin/contracts@4.4.2/utils/Context.sol\":719:729  msg.sender */\n      caller\n      sub(shl(0xa0, 0x01), 0x01)\n        /* \"@openzeppelin/contracts@4.4.2/token/ERC721/ERC721.sol\":3740:3761  _msgSender() == owner */\n      dup3\n      and\n      eq\n      dup1\n        /* \"@openzeppelin/contracts@4.4.2/token/ERC721/ERC721.sol\":3740:3802  _msgSender() == owner || isApprovedForAll(owner, _msgSender()) */\n      tag_164\n      jumpi\n      pop\n        /* \"@openzeppelin/contracts@4.4.2/token/ERC721/ERC721.sol\":3765:3802  isApprovedForAll(owner, _msgSender()) */\n      tag_164\n        /* \"@openzeppelin/contracts@4.4.2/token/ERC721/ERC721.sol\":3782:3787  owner */\n      dup2\n        /* \"@openzeppelin/contracts@4.4.2/utils/Context.sol\":719:729  msg.sender */\n      caller\n        /* \"@openzeppelin/contracts@4.4.2/token/ERC721/ERC721.sol\":4487:4649  function isApprovedForAll(address owner, address operator) public view virtual override returns (bool) {... */\n      tag_125\n      jump\t// in\n        /* \"@openzeppelin/contracts@4.4.2/token/ERC721/ERC721.sol\":3765:3802  isApprovedForAll(owner, _msgSender()) */\n    tag_164:\n        /* \"@openzeppelin/contracts@4.4.2/token/ERC721/ERC721.sol\":3719:3884  require(... */\n      tag_166\n      jumpi\n      mload(0x40)\n      shl(0xe5, 0x461bcd)\n      dup2\n      mstore\n        /* \"#utility.yul\":8039:8041   */\n      0x20\n        /* \"@openzeppelin/contracts@4.4.2/token/ERC721/ERC721.sol\":3719:3884  require(... */\n      0x04\n      dup3\n      add\n        /* \"#utility.yul\":8021:8042   */\n      mstore\n        /* \"#utility.yul\":8078:8080   */\n      0x38\n        /* \"#utility.yul\":8058:8076   */\n      0x24\n      dup3\n      add\n        /* \"#utility.yul\":8051:8081   */\n      mstore\n        /* \"#utility.yul\":8117:8151   */\n      0x4552433732313a20617070726f76652063616c6c6572206973206e6f74206f77\n        /* \"#utility.yul\":8097:8115   */\n      0x44\n      dup3\n      add\n        /* \"#utility.yul\":8090:8152   */\n      mstore\n        /* \"#utility.yul\":8188:8214   */\n      0x6e6572206e6f7220617070726f76656420666f7220616c6c0000000000000000\n        /* \"#utility.yul\":8168:8186   */\n      0x64\n      dup3\n      add\n        /* \"#utility.yul\":8161:8215   */\n      mstore\n        /* \"#utility.yul\":8232:8251   */\n      0x84\n      add\n        /* \"@openzeppelin/contracts@4.4.2/token/ERC721/ERC721.sol\":3719:3884  require(... */\n      tag_141\n        /* \"#utility.yul\":7837:8257   */\n      jump\n        /* \"@openzeppelin/contracts@4.4.2/token/ERC721/ERC721.sol\":3719:3884  require(... */\n    tag_166:\n        /* \"@openzeppelin/contracts@4.4.2/token/ERC721/ERC721.sol\":3895:3916  _approve(to, tokenId) */\n      tag_169\n        /* \"@openzeppelin/contracts@4.4.2/token/ERC721/ERC721.sol\":3904:3906  to */\n      dup4\n        /* \"@openzeppelin/contracts@4.4.2/token/ERC721/ERC721.sol\":3908:3915  tokenId */\n      dup4\n        /* \"@openzeppelin/contracts@4.4.2/token/ERC721/ERC721.sol\":3895:3903  _approve */\n      tag_170\n        /* \"@openzeppelin/contracts@4.4.2/token/ERC721/ERC721.sol\":3895:3916  _approve(to, tokenId) */\n      jump\t// in\n    tag_169:\n        /* \"@openzeppelin/contracts@4.4.2/token/ERC721/ERC721.sol\":3592:3923  {... */\n      pop\n        /* \"@openzeppelin/contracts@4.4.2/token/ERC721/ERC721.sol\":3522:3923  function approve(address to, uint256 tokenId) public virtual override {... */\n      pop\n      pop\n      jump\t// out\n        /* \"@openzeppelin/contracts@4.4.2/token/ERC721/ERC721.sol\":4711:5041  function transferFrom(... */\n    tag_63:\n        /* \"@openzeppelin/contracts@4.4.2/token/ERC721/ERC721.sol\":4900:4941  _isApprovedOrOwner(_msgSender(), tokenId) */\n      tag_173\n        /* \"@openzeppelin/contracts@4.4.2/utils/Context.sol\":719:729  msg.sender */\n      caller\n        /* \"@openzeppelin/contracts@4.4.2/token/ERC721/ERC721.sol\":4933:4940  tokenId */\n      dup3\n        /* \"@openzeppelin/contracts@4.4.2/token/ERC721/ERC721.sol\":4900:4918  _isApprovedOrOwner */\n      tag_175\n        /* \"@openzeppelin/contracts@4.4.2/token/ERC721/ERC721.sol\":4900:4941  _isApprovedOrOwner(_msgSender(), tokenId) */\n      jump\t// in\n    tag_173:\n        /* \"@openzeppelin/contracts@4.4.2/token/ERC721/ERC721.sol\":4892:4995  require(_isApprovedOrOwner(_msgSender(), tokenId), \"ERC721: transfer caller is not owner nor approved\") */\n      tag_176\n      jumpi\n      mload(0x40)\n      shl(0xe5, 0x461bcd)\n      dup2\n      mstore\n      0x04\n      add\n      tag_141\n      swap1\n      tag_178\n      jump\t// in\n    tag_176:\n        /* \"@openzeppelin/contracts@4.4.2/token/ERC721/ERC721.sol\":5006:5034  _transfer(from, to, tokenId) */\n      tag_169\n        /* \"@openzeppelin/contracts@4.4.2/token/ERC721/ERC721.sol\":5016:5020  from */\n      dup4\n        /* \"@openzeppelin/contracts@4.4.2/token/ERC721/ERC721.sol\":5022:5024  to */\n      dup4\n        /* \"@openzeppelin/contracts@4.4.2/token/ERC721/ERC721.sol\":5026:5033  tokenId */\n      dup4\n        /* \"@openzeppelin/contracts@4.4.2/token/ERC721/ERC721.sol\":5006:5015  _transfer */\n      tag_180\n        /* \"@openzeppelin/contracts@4.4.2/token/ERC721/ERC721.sol\":5006:5034  _transfer(from, to, tokenId) */\n      jump\t// in\n        /* \"Royelty_ERC-2981_Contract.sol\":1387:1584  function royaltyInfo(uint256 tokenId, uint256 _salePrice) external view returns (address receiver, uint256 royaltyAmount)... */\n    tag_67:\n        /* \"Royelty_ERC-2981_Contract.sol\":1468:1484  address receiver */\n      0x00\n        /* \"Royelty_ERC-2981_Contract.sol\":1486:1507  uint256 royaltyAmount */\n      dup1\n        /* \"Royelty_ERC-2981_Contract.sol\":1531:1546  royaltyReceiver */\n      0x0c\n      dup1\n      sload\n      swap1\n      0x0100\n      exp\n      swap1\n      div\n      sub(shl(0xa0, 0x01), 0x01)\n      and\n        /* \"Royelty_ERC-2981_Contract.sol\":1548:1576  calculateRoyalty(_salePrice) */\n      tag_182\n        /* \"Royelty_ERC-2981_Contract.sol\":1565:1575  _salePrice */\n      dup5\n        /* \"Royelty_ERC-2981_Contract.sol\":1548:1564  calculateRoyalty */\n      tag_111\n        /* \"Royelty_ERC-2981_Contract.sol\":1548:1576  calculateRoyalty(_salePrice) */\n      jump\t// in\n    tag_182:\n        /* \"Royelty_ERC-2981_Contract.sol\":1523:1577  return (royaltyReceiver, calculateRoyalty(_salePrice)) */\n      swap2\n      pop\n      swap2\n      pop\n        /* \"Royelty_ERC-2981_Contract.sol\":1387:1584  function royaltyInfo(uint256 tokenId, uint256 _salePrice) external view returns (address receiver, uint256 royaltyAmount)... */\n      swap3\n      pop\n      swap3\n      swap1\n      pop\n      jump\t// out\n        /* \"@openzeppelin/contracts@4.4.2/token/ERC721/extensions/ERC721Enumerable.sol\":1291:1544  function tokenOfOwnerByIndex(address owner, uint256 index) public view virtual override returns (uint256) {... */\n    tag_72:\n        /* \"@openzeppelin/contracts@4.4.2/token/ERC721/extensions/ERC721Enumerable.sol\":1388:1395  uint256 */\n      0x00\n        /* \"@openzeppelin/contracts@4.4.2/token/ERC721/extensions/ERC721Enumerable.sol\":1423:1446  ERC721.balanceOf(owner) */\n      tag_184\n        /* \"@openzeppelin/contracts@4.4.2/token/ERC721/extensions/ERC721Enumerable.sol\":1440:1445  owner */\n      dup4\n        /* \"@openzeppelin/contracts@4.4.2/token/ERC721/extensions/ERC721Enumerable.sol\":1423:1439  ERC721.balanceOf */\n      tag_88\n        /* \"@openzeppelin/contracts@4.4.2/token/ERC721/extensions/ERC721Enumerable.sol\":1423:1446  ERC721.balanceOf(owner) */\n      jump\t// in\n    tag_184:\n        /* \"@openzeppelin/contracts@4.4.2/token/ERC721/extensions/ERC721Enumerable.sol\":1415:1420  index */\n      dup3\n        /* \"@openzeppelin/contracts@4.4.2/token/ERC721/extensions/ERC721Enumerable.sol\":1415:1446  index < ERC721.balanceOf(owner) */\n      lt\n        /* \"@openzeppelin/contracts@4.4.2/token/ERC721/extensions/ERC721Enumerable.sol\":1407:1494  require(index < ERC721.balanceOf(owner), \"ERC721Enumerable: owner index out of bounds\") */\n      tag_185\n      jumpi\n      mload(0x40)\n      shl(0xe5, 0x461bcd)\n      dup2\n      mstore\n        /* \"#utility.yul\":8882:8884   */\n      0x20\n        /* \"@openzeppelin/contracts@4.4.2/token/ERC721/extensions/ERC721Enumerable.sol\":1407:1494  require(index < ERC721.balanceOf(owner), \"ERC721Enumerable: owner index out of bounds\") */\n      0x04\n      dup3\n      add\n        /* \"#utility.yul\":8864:8885   */\n      mstore\n        /* \"#utility.yul\":8921:8923   */\n      0x2b\n        /* \"#utility.yul\":8901:8919   */\n      0x24\n      dup3\n      add\n        /* \"#utility.yul\":8894:8924   */\n      mstore\n        /* \"#utility.yul\":8960:8994   */\n      0x455243373231456e756d657261626c653a206f776e657220696e646578206f75\n        /* \"#utility.yul\":8940:8958   */\n      0x44\n      dup3\n      add\n        /* \"#utility.yul\":8933:8995   */\n      mstore\n      shl(0xa8, 0x74206f6620626f756e6473)\n        /* \"#utility.yul\":9011:9029   */\n      0x64\n      dup3\n      add\n        /* \"#utility.yul\":9004:9045   */\n      mstore\n        /* \"#utility.yul\":9062:9081   */\n      0x84\n      add\n        /* \"@openzeppelin/contracts@4.4.2/token/ERC721/extensions/ERC721Enumerable.sol\":1407:1494  require(index < ERC721.balanceOf(owner), \"ERC721Enumerable: owner index out of bounds\") */\n      tag_141\n        /* \"#utility.yul\":8680:9087   */\n      jump\n        /* \"@openzeppelin/contracts@4.4.2/token/ERC721/extensions/ERC721Enumerable.sol\":1407:1494  require(index < ERC721.balanceOf(owner), \"ERC721Enumerable: owner index out of bounds\") */\n    tag_185:\n      pop\n      sub(shl(0xa0, 0x01), 0x01)\n        /* \"@openzeppelin/contracts@4.4.2/token/ERC721/extensions/ERC721Enumerable.sol\":1511:1530  _ownedTokens[owner] */\n      swap2\n      swap1\n      swap2\n      and\n      0x00\n      swap1\n      dup2\n      mstore\n        /* \"@openzeppelin/contracts@4.4.2/token/ERC721/extensions/ERC721Enumerable.sol\":1511:1523  _ownedTokens */\n      0x06\n        /* \"@openzeppelin/contracts@4.4.2/token/ERC721/extensions/ERC721Enumerable.sol\":1511:1530  _ownedTokens[owner] */\n      0x20\n      swap1\n      dup2\n      mstore\n      0x40\n      dup1\n      dup4\n      keccak256\n        /* \"@openzeppelin/contracts@4.4.2/token/ERC721/extensions/ERC721Enumerable.sol\":1511:1537  _ownedTokens[owner][index] */\n      swap4\n      dup4\n      mstore\n      swap3\n      swap1\n      mstore\n      keccak256\n      sload\n      swap1\n        /* \"@openzeppelin/contracts@4.4.2/token/ERC721/extensions/ERC721Enumerable.sol\":1291:1544  function tokenOfOwnerByIndex(address owner, uint256 index) public view virtual override returns (uint256) {... */\n      jump\t// out\n        /* \"@openzeppelin/contracts@4.4.2/token/ERC721/ERC721.sol\":5107:5286  function safeTransferFrom(... */\n    tag_76:\n        /* \"@openzeppelin/contracts@4.4.2/token/ERC721/ERC721.sol\":5240:5279  safeTransferFrom(from, to, tokenId, \"\") */\n      tag_169\n        /* \"@openzeppelin/contracts@4.4.2/token/ERC721/ERC721.sol\":5257:5261  from */\n      dup4\n        /* \"@openzeppelin/contracts@4.4.2/token/ERC721/ERC721.sol\":5263:5265  to */\n      dup4\n        /* \"@openzeppelin/contracts@4.4.2/token/ERC721/ERC721.sol\":5267:5274  tokenId */\n      dup4\n        /* \"@openzeppelin/contracts@4.4.2/token/ERC721/ERC721.sol\":5240:5279  safeTransferFrom(from, to, tokenId, \"\") */\n      mload(0x40)\n      dup1\n      0x20\n      add\n      0x40\n      mstore\n      dup1\n      0x00\n      dup2\n      mstore\n      pop\n        /* \"@openzeppelin/contracts@4.4.2/token/ERC721/ERC721.sol\":5240:5256  safeTransferFrom */\n      tag_116\n        /* \"@openzeppelin/contracts@4.4.2/token/ERC721/ERC721.sol\":5240:5279  safeTransferFrom(from, to, tokenId, \"\") */\n      jump\t// in\n        /* \"@openzeppelin/contracts@4.4.2/token/ERC721/extensions/ERC721Enumerable.sol\":1798:2028  function tokenByIndex(uint256 index) public view virtual override returns (uint256) {... */\n    tag_79:\n        /* \"@openzeppelin/contracts@4.4.2/token/ERC721/extensions/ERC721Enumerable.sol\":1873:1880  uint256 */\n      0x00\n        /* \"@openzeppelin/contracts@4.4.2/token/ERC721/extensions/ERC721Enumerable.sol\":1908:1938  ERC721Enumerable.totalSupply() */\n      tag_191\n        /* \"@openzeppelin/contracts@4.4.2/token/ERC721/extensions/ERC721Enumerable.sol\":1702:1712  _allTokens */\n      0x08\n        /* \"@openzeppelin/contracts@4.4.2/token/ERC721/extensions/ERC721Enumerable.sol\":1702:1719  _allTokens.length */\n      sload\n      swap1\n        /* \"@openzeppelin/contracts@4.4.2/token/ERC721/extensions/ERC721Enumerable.sol\":1615:1726  function totalSupply() public view virtual override returns (uint256) {... */\n      jump\n        /* \"@openzeppelin/contracts@4.4.2/token/ERC721/extensions/ERC721Enumerable.sol\":1908:1938  ERC721Enumerable.totalSupply() */\n    tag_191:\n        /* \"@openzeppelin/contracts@4.4.2/token/ERC721/extensions/ERC721Enumerable.sol\":1900:1905  index */\n      dup3\n        /* \"@openzeppelin/contracts@4.4.2/token/ERC721/extensions/ERC721Enumerable.sol\":1900:1938  index < ERC721Enumerable.totalSupply() */\n      lt\n        /* \"@openzeppelin/contracts@4.4.2/token/ERC721/extensions/ERC721Enumerable.sol\":1892:1987  require(index < ERC721Enumerable.totalSupply(), \"ERC721Enumerable: global index out of bounds\") */\n      tag_192\n      jumpi\n      mload(0x40)\n      shl(0xe5, 0x461bcd)\n      dup2\n      mstore\n        /* \"#utility.yul\":9294:9296   */\n      0x20\n        /* \"@openzeppelin/contracts@4.4.2/token/ERC721/extensions/ERC721Enumerable.sol\":1892:1987  require(index < ERC721Enumerable.totalSupply(), \"ERC721Enumerable: global index out of bounds\") */\n      0x04\n      dup3\n      add\n        /* \"#utility.yul\":9276:9297   */\n      mstore\n        /* \"#utility.yul\":9333:9335   */\n      0x2c\n        /* \"#utility.yul\":9313:9331   */\n      0x24\n      dup3\n      add\n        /* \"#utility.yul\":9306:9336   */\n      mstore\n        /* \"#utility.yul\":9372:9406   */\n      0x455243373231456e756d657261626c653a20676c6f62616c20696e646578206f\n        /* \"#utility.yul\":9352:9370   */\n      0x44\n      dup3\n      add\n        /* \"#utility.yul\":9345:9407   */\n      mstore\n      shl(0xa0, 0x7574206f6620626f756e6473)\n        /* \"#utility.yul\":9423:9441   */\n      0x64\n      dup3\n      add\n        /* \"#utility.yul\":9416:9458   */\n      mstore\n        /* \"#utility.yul\":9475:9494   */\n      0x84\n      add\n        /* \"@openzeppelin/contracts@4.4.2/token/ERC721/extensions/ERC721Enumerable.sol\":1892:1987  require(index < ERC721Enumerable.totalSupply(), \"ERC721Enumerable: global index out of bounds\") */\n      tag_141\n        /* \"#utility.yul\":9092:9500   */\n      jump\n        /* \"@openzeppelin/contracts@4.4.2/token/ERC721/extensions/ERC721Enumerable.sol\":1892:1987  require(index < ERC721Enumerable.totalSupply(), \"ERC721Enumerable: global index out of bounds\") */\n    tag_192:\n        /* \"@openzeppelin/contracts@4.4.2/token/ERC721/extensions/ERC721Enumerable.sol\":2004:2014  _allTokens */\n      0x08\n        /* \"@openzeppelin/contracts@4.4.2/token/ERC721/extensions/ERC721Enumerable.sol\":2015:2020  index */\n      dup3\n        /* \"@openzeppelin/contracts@4.4.2/token/ERC721/extensions/ERC721Enumerable.sol\":2004:2021  _allTokens[index] */\n      dup2\n      sload\n      dup2\n      lt\n      tag_196\n      jumpi\n      tag_196\n      tag_197\n      jump\t// in\n    tag_196:\n      swap1\n      0x00\n      mstore\n      keccak256(0x00, 0x20)\n      add\n      sload\n        /* \"@openzeppelin/contracts@4.4.2/token/ERC721/extensions/ERC721Enumerable.sol\":1997:2021  return _allTokens[index] */\n      swap1\n      pop\n        /* \"@openzeppelin/contracts@4.4.2/token/ERC721/extensions/ERC721Enumerable.sol\":1798:2028  function tokenByIndex(uint256 index) public view virtual override returns (uint256) {... */\n      swap2\n      swap1\n      pop\n      jump\t// out\n        /* \"@openzeppelin/contracts@4.4.2/token/ERC721/ERC721.sol\":2176:2411  function ownerOf(uint256 tokenId) public view virtual override returns (address) {... */\n    tag_83:\n        /* \"@openzeppelin/contracts@4.4.2/token/ERC721/ERC721.sol\":2248:2255  address */\n      0x00\n        /* \"@openzeppelin/contracts@4.4.2/token/ERC721/ERC721.sol\":2283:2299  _owners[tokenId] */\n      dup2\n      dup2\n      mstore\n        /* \"@openzeppelin/contracts@4.4.2/token/ERC721/ERC721.sol\":2283:2290  _owners */\n      0x02\n        /* \"@openzeppelin/contracts@4.4.2/token/ERC721/ERC721.sol\":2283:2299  _owners[tokenId] */\n      0x20\n      mstore\n      0x40\n      dup2\n      keccak256\n      sload\n      sub(shl(0xa0, 0x01), 0x01)\n      and\n      dup1\n        /* \"@openzeppelin/contracts@4.4.2/token/ERC721/ERC721.sol\":2309:2382  require(owner != address(0), \"ERC721: owner query for nonexistent token\") */\n      tag_134\n      jumpi\n      mload(0x40)\n      shl(0xe5, 0x461bcd)\n      dup2\n      mstore\n        /* \"#utility.yul\":9839:9841   */\n      0x20\n        /* \"@openzeppelin/contracts@4.4.2/token/ERC721/ERC721.sol\":2309:2382  require(owner != address(0), \"ERC721: owner query for nonexistent token\") */\n      0x04\n      dup3\n      add\n        /* \"#utility.yul\":9821:9842   */\n      mstore\n        /* \"#utility.yul\":9878:9880   */\n      0x29\n        /* \"#utility.yul\":9858:9876   */\n      0x24\n      dup3\n      add\n        /* \"#utility.yul\":9851:9881   */\n      mstore\n        /* \"#utility.yul\":9917:9951   */\n      0x4552433732313a206f776e657220717565727920666f72206e6f6e6578697374\n        /* \"#utility.yul\":9897:9915   */\n      0x44\n      dup3\n      add\n        /* \"#utility.yul\":9890:9952   */\n      mstore\n      shl(0xb9, 0x32b73a103a37b5b2b7)\n        /* \"#utility.yul\":9968:9986   */\n      0x64\n      dup3\n      add\n        /* \"#utility.yul\":9961:10000   */\n      mstore\n        /* \"#utility.yul\":10017:10036   */\n      0x84\n      add\n        /* \"@openzeppelin/contracts@4.4.2/token/ERC721/ERC721.sol\":2309:2382  require(owner != address(0), \"ERC721: owner query for nonexistent token\") */\n      tag_141\n        /* \"#utility.yul\":9637:10042   */\n      jump\n        /* \"@openzeppelin/contracts@4.4.2/token/ERC721/ERC721.sol\":1914:2119  function balanceOf(address owner) public view virtual override returns (uint256) {... */\n    tag_88:\n        /* \"@openzeppelin/contracts@4.4.2/token/ERC721/ERC721.sol\":1986:1993  uint256 */\n      0x00\n      sub(shl(0xa0, 0x01), 0x01)\n        /* \"@openzeppelin/contracts@4.4.2/token/ERC721/ERC721.sol\":2013:2032  owner != address(0) */\n      dup3\n      and\n        /* \"@openzeppelin/contracts@4.4.2/token/ERC721/ERC721.sol\":2005:2079  require(owner != address(0), \"ERC721: balance query for the zero address\") */\n      tag_204\n      jumpi\n      mload(0x40)\n      shl(0xe5, 0x461bcd)\n      dup2\n      mstore\n        /* \"#utility.yul\":10249:10251   */\n      0x20\n        /* \"@openzeppelin/contracts@4.4.2/token/ERC721/ERC721.sol\":2005:2079  require(owner != address(0), \"ERC721: balance query for the zero address\") */\n      0x04\n      dup3\n      add\n        /* \"#utility.yul\":10231:10252   */\n      mstore\n        /* \"#utility.yul\":10288:10290   */\n      0x2a\n        /* \"#utility.yul\":10268:10286   */\n      0x24\n      dup3\n      add\n        /* \"#utility.yul\":10261:10291   */\n      mstore\n        /* \"#utility.yul\":10327:10361   */\n      0x4552433732313a2062616c616e636520717565727920666f7220746865207a65\n        /* \"#utility.yul\":10307:10325   */\n      0x44\n      dup3\n      add\n        /* \"#utility.yul\":10300:10362   */\n      mstore\n      shl(0xb0, 0x726f2061646472657373)\n        /* \"#utility.yul\":10378:10396   */\n      0x64\n      dup3\n      add\n        /* \"#utility.yul\":10371:10411   */\n      mstore\n        /* \"#utility.yul\":10428:10447   */\n      0x84\n      add\n        /* \"@openzeppelin/contracts@4.4.2/token/ERC721/ERC721.sol\":2005:2079  require(owner != address(0), \"ERC721: balance query for the zero address\") */\n      tag_141\n        /* \"#utility.yul\":10047:10453   */\n      jump\n        /* \"@openzeppelin/contracts@4.4.2/token/ERC721/ERC721.sol\":2005:2079  require(owner != address(0), \"ERC721: balance query for the zero address\") */\n    tag_204:\n      pop\n      sub(shl(0xa0, 0x01), 0x01)\n        /* \"@openzeppelin/contracts@4.4.2/token/ERC721/ERC721.sol\":2096:2112  _balances[owner] */\n      and\n      0x00\n      swap1\n      dup2\n      mstore\n        /* \"@openzeppelin/contracts@4.4.2/token/ERC721/ERC721.sol\":2096:2105  _balances */\n      0x03\n        /* \"@openzeppelin/contracts@4.4.2/token/ERC721/ERC721.sol\":2096:2112  _balances[owner] */\n      0x20\n      mstore\n      0x40\n      swap1\n      keccak256\n      sload\n      swap1\n        /* \"@openzeppelin/contracts@4.4.2/token/ERC721/ERC721.sol\":1914:2119  function balanceOf(address owner) public view virtual override returns (uint256) {... */\n      jump\t// out\n        /* \"@openzeppelin/contracts@4.4.2/access/Ownable.sol\":1668:1769  function renounceOwnership() public virtual onlyOwner {... */\n    tag_91:\n        /* \"@openzeppelin/contracts@4.4.2/access/Ownable.sol\":1108:1114  _owner */\n      and(sub(shl(0xa0, 0x01), 0x01), sload(0x0a))\n        /* \"@openzeppelin/contracts@4.4.2/utils/Context.sol\":719:729  msg.sender */\n      caller\n        /* \"@openzeppelin/contracts@4.4.2/access/Ownable.sol\":1248:1271  owner() == _msgSender() */\n      eq\n        /* \"@openzeppelin/contracts@4.4.2/access/Ownable.sol\":1240:1308  require(owner() == _msgSender(), \"Ownable: caller is not the owner\") */\n      tag_210\n      jumpi\n      mload(0x40)\n      shl(0xe5, 0x461bcd)\n      dup2\n      mstore\n      0x04\n      add\n      tag_141\n      swap1\n      tag_142\n      jump\t// in\n    tag_210:\n        /* \"@openzeppelin/contracts@4.4.2/access/Ownable.sol\":1732:1762  _transferOwnership(address(0)) */\n      tag_213\n        /* \"@openzeppelin/contracts@4.4.2/access/Ownable.sol\":1759:1760  0 */\n      0x00\n        /* \"@openzeppelin/contracts@4.4.2/access/Ownable.sol\":1732:1750  _transferOwnership */\n      tag_214\n        /* \"@openzeppelin/contracts@4.4.2/access/Ownable.sol\":1732:1762  _transferOwnership(address(0)) */\n      jump\t// in\n    tag_213:\n        /* \"@openzeppelin/contracts@4.4.2/access/Ownable.sol\":1668:1769  function renounceOwnership() public virtual onlyOwner {... */\n      jump\t// out\n        /* \"Royelty_ERC-2981_Contract.sol\":995:1109  function setContractURI(string calldata _contractURI) public onlyOwner {... */\n    tag_98:\n        /* \"@openzeppelin/contracts@4.4.2/access/Ownable.sol\":1108:1114  _owner */\n      and(sub(shl(0xa0, 0x01), 0x01), sload(0x0a))\n        /* \"@openzeppelin/contracts@4.4.2/utils/Context.sol\":719:729  msg.sender */\n      caller\n        /* \"@openzeppelin/contracts@4.4.2/access/Ownable.sol\":1248:1271  owner() == _msgSender() */\n      eq\n        /* \"@openzeppelin/contracts@4.4.2/access/Ownable.sol\":1240:1308  require(owner() == _msgSender(), \"Ownable: caller is not the owner\") */\n      tag_219\n      jumpi\n      mload(0x40)\n      shl(0xe5, 0x461bcd)\n      dup2\n      mstore\n      0x04\n      add\n      tag_141\n      swap1\n      tag_142\n      jump\t// in\n    tag_219:\n        /* \"Royelty_ERC-2981_Contract.sol\":1076:1087  contractURI */\n      0x0b\n        /* \"Royelty_ERC-2981_Contract.sol\":1076:1102  contractURI = _contractURI */\n      tag_169\n        /* \"Royelty_ERC-2981_Contract.sol\":1090:1102  _contractURI */\n      dup3\n      dup5\n        /* \"Royelty_ERC-2981_Contract.sol\":1076:1087  contractURI */\n      dup4\n        /* \"Royelty_ERC-2981_Contract.sol\":1076:1102  contractURI = _contractURI */\n      tag_223\n      jump\t// in\n        /* \"@openzeppelin/contracts@4.4.2/token/ERC721/ERC721.sol\":2635:2737  function symbol() public view virtual override returns (string memory) {... */\n    tag_100:\n        /* \"@openzeppelin/contracts@4.4.2/token/ERC721/ERC721.sol\":2691:2704  string memory */\n      0x60\n        /* \"@openzeppelin/contracts@4.4.2/token/ERC721/ERC721.sol\":2723:2730  _symbol */\n      0x01\n        /* \"@openzeppelin/contracts@4.4.2/token/ERC721/ERC721.sol\":2716:2730  return _symbol */\n      dup1\n      sload\n      tag_145\n      swap1\n      tag_146\n      jump\t// in\n        /* \"Royelty_ERC-2981_Contract.sol\":701:804  function safeMint(address to, uint256 tokenId) public onlyOwner {... */\n    tag_104:\n        /* \"@openzeppelin/contracts@4.4.2/access/Ownable.sol\":1108:1114  _owner */\n      and(sub(shl(0xa0, 0x01), 0x01), sload(0x0a))\n        /* \"@openzeppelin/contracts@4.4.2/utils/Context.sol\":719:729  msg.sender */\n      caller\n        /* \"@openzeppelin/contracts@4.4.2/access/Ownable.sol\":1248:1271  owner() == _msgSender() */\n      eq\n        /* \"@openzeppelin/contracts@4.4.2/access/Ownable.sol\":1240:1308  require(owner() == _msgSender(), \"Ownable: caller is not the owner\") */\n      tag_233\n      jumpi\n      mload(0x40)\n      shl(0xe5, 0x461bcd)\n      dup2\n      mstore\n      0x04\n      add\n      tag_141\n      swap1\n      tag_142\n      jump\t// in\n    tag_233:\n        /* \"Royelty_ERC-2981_Contract.sol\":775:797  _safeMint(to, tokenId) */\n      tag_236\n        /* \"Royelty_ERC-2981_Contract.sol\":785:787  to */\n      dup3\n        /* \"Royelty_ERC-2981_Contract.sol\":789:796  tokenId */\n      dup3\n        /* \"Royelty_ERC-2981_Contract.sol\":775:784  _safeMint */\n      tag_237\n        /* \"Royelty_ERC-2981_Contract.sol\":775:797  _safeMint(to, tokenId) */\n      jump\t// in\n    tag_236:\n        /* \"Royelty_ERC-2981_Contract.sol\":701:804  function safeMint(address to, uint256 tokenId) public onlyOwner {... */\n      pop\n      pop\n      jump\t// out\n        /* \"@openzeppelin/contracts@4.4.2/token/ERC721/ERC721.sol\":4268:4421  function setApprovalForAll(address operator, bool approved) public virtual override {... */\n    tag_108:\n        /* \"@openzeppelin/contracts@4.4.2/token/ERC721/ERC721.sol\":4362:4414  _setApprovalForAll(_msgSender(), operator, approved) */\n      tag_236\n        /* \"@openzeppelin/contracts@4.4.2/utils/Context.sol\":719:729  msg.sender */\n      caller\n        /* \"@openzeppelin/contracts@4.4.2/token/ERC721/ERC721.sol\":4395:4403  operator */\n      dup4\n        /* \"@openzeppelin/contracts@4.4.2/token/ERC721/ERC721.sol\":4405:4413  approved */\n      dup4\n        /* \"@openzeppelin/contracts@4.4.2/token/ERC721/ERC721.sol\":4362:4380  _setApprovalForAll */\n      tag_241\n        /* \"@openzeppelin/contracts@4.4.2/token/ERC721/ERC721.sol\":4362:4414  _setApprovalForAll(_msgSender(), operator, approved) */\n      jump\t// in\n        /* \"Royelty_ERC-2981_Contract.sol\":1590:1730  function calculateRoyalty(uint256 _salePrice) view public returns (uint256) {... */\n    tag_111:\n        /* \"Royelty_ERC-2981_Contract.sol\":1706:1723  royaltyFeesInBips */\n      sload(0x0c)\n        /* \"Royelty_ERC-2981_Contract.sol\":1657:1664  uint256 */\n      0x00\n      swap1\n      sub(shl(0x60, 0x01), 0x01)\n        /* \"Royelty_ERC-2981_Contract.sol\":1706:1723  royaltyFeesInBips */\n      and\n        /* \"Royelty_ERC-2981_Contract.sol\":1684:1702  _salePrice / 10000 */\n      tag_243\n        /* \"Royelty_ERC-2981_Contract.sol\":1697:1702  10000 */\n      0x2710\n        /* \"Royelty_ERC-2981_Contract.sol\":1684:1694  _salePrice */\n      dup5\n        /* \"Royelty_ERC-2981_Contract.sol\":1684:1702  _salePrice / 10000 */\n      tag_244\n      jump\t// in\n    tag_243:\n        /* \"Royelty_ERC-2981_Contract.sol\":1683:1723  (_salePrice / 10000) * royaltyFeesInBips */\n      tag_134\n      swap2\n      swap1\n      tag_246\n      jump\t// in\n        /* \"@openzeppelin/contracts@4.4.2/token/ERC721/ERC721.sol\":5352:5672  function safeTransferFrom(... */\n    tag_116:\n        /* \"@openzeppelin/contracts@4.4.2/token/ERC721/ERC721.sol\":5521:5562  _isApprovedOrOwner(_msgSender(), tokenId) */\n      tag_248\n        /* \"@openzeppelin/contracts@4.4.2/utils/Context.sol\":719:729  msg.sender */\n      caller\n        /* \"@openzeppelin/contracts@4.4.2/token/ERC721/ERC721.sol\":5554:5561  tokenId */\n      dup4\n        /* \"@openzeppelin/contracts@4.4.2/token/ERC721/ERC721.sol\":5521:5539  _isApprovedOrOwner */\n      tag_175\n        /* \"@openzeppelin/contracts@4.4.2/token/ERC721/ERC721.sol\":5521:5562  _isApprovedOrOwner(_msgSender(), tokenId) */\n      jump\t// in\n    tag_248:\n        /* \"@openzeppelin/contracts@4.4.2/token/ERC721/ERC721.sol\":5513:5616  require(_isApprovedOrOwner(_msgSender(), tokenId), \"ERC721: transfer caller is not owner nor approved\") */\n      tag_250\n      jumpi\n      mload(0x40)\n      shl(0xe5, 0x461bcd)\n      dup2\n      mstore\n      0x04\n      add\n      tag_141\n      swap1\n      tag_178\n      jump\t// in\n    tag_250:\n        /* \"@openzeppelin/contracts@4.4.2/token/ERC721/ERC721.sol\":5626:5665  _safeTransfer(from, to, tokenId, _data) */\n      tag_252\n        /* \"@openzeppelin/contracts@4.4.2/token/ERC721/ERC721.sol\":5640:5644  from */\n      dup5\n        /* \"@openzeppelin/contracts@4.4.2/token/ERC721/ERC721.sol\":5646:5648  to */\n      dup5\n        /* \"@openzeppelin/contracts@4.4.2/token/ERC721/ERC721.sol\":5650:5657  tokenId */\n      dup5\n        /* \"@openzeppelin/contracts@4.4.2/token/ERC721/ERC721.sol\":5659:5664  _data */\n      dup5\n        /* \"@openzeppelin/contracts@4.4.2/token/ERC721/ERC721.sol\":5626:5639  _safeTransfer */\n      tag_253\n        /* \"@openzeppelin/contracts@4.4.2/token/ERC721/ERC721.sol\":5626:5665  _safeTransfer(from, to, tokenId, _data) */\n      jump\t// in\n    tag_252:\n        /* \"@openzeppelin/contracts@4.4.2/token/ERC721/ERC721.sol\":5352:5672  function safeTransferFrom(... */\n      pop\n      pop\n      pop\n      pop\n      jump\t// out\n        /* \"@openzeppelin/contracts@4.4.2/token/ERC721/ERC721.sol\":2803:3132  function tokenURI(uint256 tokenId) public view virtual override returns (string memory) {... */\n    tag_119:\n        /* \"@openzeppelin/contracts@4.4.2/token/ERC721/ERC721.sol\":7209:7213  bool */\n      0x00\n        /* \"@openzeppelin/contracts@4.4.2/token/ERC721/ERC721.sol\":7232:7248  _owners[tokenId] */\n      dup2\n      dup2\n      mstore\n        /* \"@openzeppelin/contracts@4.4.2/token/ERC721/ERC721.sol\":7232:7239  _owners */\n      0x02\n        /* \"@openzeppelin/contracts@4.4.2/token/ERC721/ERC721.sol\":7232:7248  _owners[tokenId] */\n      0x20\n      mstore\n      0x40\n      swap1\n      keccak256\n      sload\n        /* \"@openzeppelin/contracts@4.4.2/token/ERC721/ERC721.sol\":2876:2889  string memory */\n      0x60\n      swap1\n      sub(shl(0xa0, 0x01), 0x01)\n        /* \"@openzeppelin/contracts@4.4.2/token/ERC721/ERC721.sol\":7232:7248  _owners[tokenId] */\n      and\n        /* \"@openzeppelin/contracts@4.4.2/token/ERC721/ERC721.sol\":2901:2977  require(_exists(tokenId), \"ERC721Metadata: URI query for nonexistent token\") */\n      tag_256\n      jumpi\n      mload(0x40)\n      shl(0xe5, 0x461bcd)\n      dup2\n      mstore\n        /* \"#utility.yul\":13280:13282   */\n      0x20\n        /* \"@openzeppelin/contracts@4.4.2/token/ERC721/ERC721.sol\":2901:2977  require(_exists(tokenId), \"ERC721Metadata: URI query for nonexistent token\") */\n      0x04\n      dup3\n      add\n        /* \"#utility.yul\":13262:13283   */\n      mstore\n        /* \"#utility.yul\":13319:13321   */\n      0x2f\n        /* \"#utility.yul\":13299:13317   */\n      0x24\n      dup3\n      add\n        /* \"#utility.yul\":13292:13322   */\n      mstore\n        /* \"#utility.yul\":13358:13392   */\n      0x4552433732314d657461646174613a2055524920717565727920666f72206e6f\n        /* \"#utility.yul\":13338:13356   */\n      0x44\n      dup3\n      add\n        /* \"#utility.yul\":13331:13393   */\n      mstore\n      shl(0x89, 0x3732bc34b9ba32b73a103a37b5b2b7)\n        /* \"#utility.yul\":13409:13427   */\n      0x64\n      dup3\n      add\n        /* \"#utility.yul\":13402:13447   */\n      mstore\n        /* \"#utility.yul\":13464:13483   */\n      0x84\n      add\n        /* \"@openzeppelin/contracts@4.4.2/token/ERC721/ERC721.sol\":2901:2977  require(_exists(tokenId), \"ERC721Metadata: URI query for nonexistent token\") */\n      tag_141\n        /* \"#utility.yul\":13078:13489   */\n      jump\n        /* \"@openzeppelin/contracts@4.4.2/token/ERC721/ERC721.sol\":2901:2977  require(_exists(tokenId), \"ERC721Metadata: URI query for nonexistent token\") */\n    tag_256:\n        /* \"@openzeppelin/contracts@4.4.2/token/ERC721/ERC721.sol\":2988:3009  string memory baseURI */\n      0x00\n        /* \"@openzeppelin/contracts@4.4.2/token/ERC721/ERC721.sol\":3012:3022  _baseURI() */\n      tag_259\n        /* \"@openzeppelin/contracts@4.4.2/token/ERC721/ERC721.sol\":3449:3458  return \"\" */\n      0x40\n      dup1\n      mload\n      0x20\n      dup2\n      add\n      swap1\n      swap2\n      mstore\n      0x00\n      dup2\n      mstore\n      swap1\n        /* \"@openzeppelin/contracts@4.4.2/token/ERC721/ERC721.sol\":3373:3465  function _baseURI() internal view virtual returns (string memory) {... */\n      jump\n        /* \"@openzeppelin/contracts@4.4.2/token/ERC721/ERC721.sol\":3012:3022  _baseURI() */\n    tag_259:\n        /* \"@openzeppelin/contracts@4.4.2/token/ERC721/ERC721.sol\":2988:3022  string memory baseURI = _baseURI() */\n      swap1\n      pop\n        /* \"@openzeppelin/contracts@4.4.2/token/ERC721/ERC721.sol\":3063:3064  0 */\n      0x00\n        /* \"@openzeppelin/contracts@4.4.2/token/ERC721/ERC721.sol\":3045:3052  baseURI */\n      dup2\n        /* \"@openzeppelin/contracts@4.4.2/token/ERC721/ERC721.sol\":3039:3060  bytes(baseURI).length */\n      mload\n        /* \"@openzeppelin/contracts@4.4.2/token/ERC721/ERC721.sol\":3039:3064  bytes(baseURI).length > 0 */\n      gt\n        /* \"@openzeppelin/contracts@4.4.2/token/ERC721/ERC721.sol\":3039:3125  bytes(baseURI).length > 0 ? string(abi.encodePacked(baseURI, tokenId.toString())) : \"\" */\n      tag_261\n      jumpi\n      mload(0x40)\n      dup1\n      0x20\n      add\n      0x40\n      mstore\n      dup1\n      0x00\n      dup2\n      mstore\n      pop\n      jump(tag_262)\n    tag_261:\n        /* \"@openzeppelin/contracts@4.4.2/token/ERC721/ERC721.sol\":3091:3098  baseURI */\n      dup1\n        /* \"@openzeppelin/contracts@4.4.2/token/ERC721/ERC721.sol\":3100:3118  tokenId.toString() */\n      tag_263\n        /* \"@openzeppelin/contracts@4.4.2/token/ERC721/ERC721.sol\":3100:3107  tokenId */\n      dup5\n        /* \"@openzeppelin/contracts@4.4.2/token/ERC721/ERC721.sol\":3100:3116  tokenId.toString */\n      tag_264\n        /* \"@openzeppelin/contracts@4.4.2/token/ERC721/ERC721.sol\":3100:3118  tokenId.toString() */\n      jump\t// in\n    tag_263:\n        /* \"@openzeppelin/contracts@4.4.2/token/ERC721/ERC721.sol\":3074:3119  abi.encodePacked(baseURI, tokenId.toString()) */\n      add(0x20, mload(0x40))\n      tag_265\n      swap3\n      swap2\n      swap1\n      tag_266\n      jump\t// in\n    tag_265:\n      mload(0x40)\n      0x20\n      dup2\n      dup4\n      sub\n      sub\n      dup2\n      mstore\n      swap1\n      0x40\n      mstore\n        /* \"@openzeppelin/contracts@4.4.2/token/ERC721/ERC721.sol\":3039:3125  bytes(baseURI).length > 0 ? string(abi.encodePacked(baseURI, tokenId.toString())) : \"\" */\n    tag_262:\n        /* \"@openzeppelin/contracts@4.4.2/token/ERC721/ERC721.sol\":3032:3125  return bytes(baseURI).length > 0 ? string(abi.encodePacked(baseURI, tokenId.toString())) : \"\" */\n      swap4\n        /* \"@openzeppelin/contracts@4.4.2/token/ERC721/ERC721.sol\":2803:3132  function tokenURI(uint256 tokenId) public view virtual override returns (string memory) {... */\n      swap3\n      pop\n      pop\n      pop\n      jump\t// out\n        /* \"Royelty_ERC-2981_Contract.sol\":327:352  string public contractURI */\n    tag_122:\n      0x0b\n      dup1\n      sload\n      tag_267\n      swap1\n      tag_146\n      jump\t// in\n    tag_267:\n      dup1\n      0x1f\n      add\n      0x20\n      dup1\n      swap2\n      div\n      mul\n      0x20\n      add\n      mload(0x40)\n      swap1\n      dup2\n      add\n      0x40\n      mstore\n      dup1\n      swap3\n      swap2\n      swap1\n      dup2\n      dup2\n      mstore\n      0x20\n      add\n      dup3\n      dup1\n      sload\n      tag_268\n      swap1\n      tag_146\n      jump\t// in\n    tag_268:\n      dup1\n      iszero\n      tag_269\n      jumpi\n      dup1\n      0x1f\n      lt\n      tag_270\n      jumpi\n      0x0100\n      dup1\n      dup4\n      sload\n      div\n      mul\n      dup4\n      mstore\n      swap2\n      0x20\n      add\n      swap2\n      jump(tag_269)\n    tag_270:\n      dup3\n      add\n      swap2\n      swap1\n      0x00\n      mstore\n      keccak256(0x00, 0x20)\n      swap1\n    tag_271:\n      dup2\n      sload\n      dup2\n      mstore\n      swap1\n      0x01\n      add\n      swap1\n      0x20\n      add\n      dup1\n      dup4\n      gt\n      tag_271\n      jumpi\n      dup3\n      swap1\n      sub\n      0x1f\n      and\n      dup3\n      add\n      swap2\n    tag_269:\n      pop\n      pop\n      pop\n      pop\n      pop\n      dup2\n      jump\t// out\n        /* \"@openzeppelin/contracts@4.4.2/access/Ownable.sol\":1918:2116  function transferOwnership(address newOwner) public virtual onlyOwner {... */\n    tag_131:\n        /* \"@openzeppelin/contracts@4.4.2/access/Ownable.sol\":1108:1114  _owner */\n      and(sub(shl(0xa0, 0x01), 0x01), sload(0x0a))\n        /* \"@openzeppelin/contracts@4.4.2/utils/Context.sol\":719:729  msg.sender */\n      caller\n        /* \"@openzeppelin/contracts@4.4.2/access/Ownable.sol\":1248:1271  owner() == _msgSender() */\n      eq\n        /* \"@openzeppelin/contracts@4.4.2/access/Ownable.sol\":1240:1308  require(owner() == _msgSender(), \"Ownable: caller is not the owner\") */\n      tag_276\n      jumpi\n      mload(0x40)\n      shl(0xe5, 0x461bcd)\n      dup2\n      mstore\n      0x04\n      add\n      tag_141\n      swap1\n      tag_142\n      jump\t// in\n    tag_276:\n      sub(shl(0xa0, 0x01), 0x01)\n        /* \"@openzeppelin/contracts@4.4.2/access/Ownable.sol\":2006:2028  newOwner != address(0) */\n      dup2\n      and\n        /* \"@openzeppelin/contracts@4.4.2/access/Ownable.sol\":1998:2071  require(newOwner != address(0), \"Ownable: new owner is the zero address\") */\n      tag_279\n      jumpi\n      mload(0x40)\n      shl(0xe5, 0x461bcd)\n      dup2\n      mstore\n        /* \"#utility.yul\":14197:14199   */\n      0x20\n        /* \"@openzeppelin/contracts@4.4.2/access/Ownable.sol\":1998:2071  require(newOwner != address(0), \"Ownable: new owner is the zero address\") */\n      0x04\n      dup3\n      add\n        /* \"#utility.yul\":14179:14200   */\n      mstore\n        /* \"#utility.yul\":14236:14238   */\n      0x26\n        /* \"#utility.yul\":14216:14234   */\n      0x24\n      dup3\n      add\n        /* \"#utility.yul\":14209:14239   */\n      mstore\n        /* \"#utility.yul\":14275:14309   */\n      0x4f776e61626c653a206e6577206f776e657220697320746865207a65726f2061\n        /* \"#utility.yul\":14255:14273   */\n      0x44\n      dup3\n      add\n        /* \"#utility.yul\":14248:14310   */\n      mstore\n      shl(0xd0, 0x646472657373)\n        /* \"#utility.yul\":14326:14344   */\n      0x64\n      dup3\n      add\n        /* \"#utility.yul\":14319:14355   */\n      mstore\n        /* \"#utility.yul\":14372:14391   */\n      0x84\n      add\n        /* \"@openzeppelin/contracts@4.4.2/access/Ownable.sol\":1998:2071  require(newOwner != address(0), \"Ownable: new owner is the zero address\") */\n      tag_141\n        /* \"#utility.yul\":13995:14397   */\n      jump\n        /* \"@openzeppelin/contracts@4.4.2/access/Ownable.sol\":1998:2071  require(newOwner != address(0), \"Ownable: new owner is the zero address\") */\n    tag_279:\n        /* \"@openzeppelin/contracts@4.4.2/access/Ownable.sol\":2081:2109  _transferOwnership(newOwner) */\n      tag_282\n        /* \"@openzeppelin/contracts@4.4.2/access/Ownable.sol\":2100:2108  newOwner */\n      dup2\n        /* \"@openzeppelin/contracts@4.4.2/access/Ownable.sol\":2081:2099  _transferOwnership */\n      tag_214\n        /* \"@openzeppelin/contracts@4.4.2/access/Ownable.sol\":2081:2109  _transferOwnership(newOwner) */\n      jump\t// in\n    tag_282:\n        /* \"@openzeppelin/contracts@4.4.2/access/Ownable.sol\":1918:2116  function transferOwnership(address newOwner) public virtual onlyOwner {... */\n      pop\n      jump\t// out\n        /* \"@openzeppelin/contracts@4.4.2/token/ERC721/extensions/ERC721Enumerable.sol\":990:1212  function supportsInterface(bytes4 interfaceId) public view virtual override(IERC165, ERC721) returns (bool) {... */\n    tag_135:\n        /* \"@openzeppelin/contracts@4.4.2/token/ERC721/extensions/ERC721Enumerable.sol\":1092:1096  bool */\n      0x00\n      not(sub(shl(0xe0, 0x01), 0x01))\n        /* \"@openzeppelin/contracts@4.4.2/token/ERC721/extensions/ERC721Enumerable.sol\":1115:1165  interfaceId == type(IERC721Enumerable).interfaceId */\n      dup3\n      and\n      shl(0xe0, 0x780e9d63)\n      eq\n      dup1\n        /* \"@openzeppelin/contracts@4.4.2/token/ERC721/extensions/ERC721Enumerable.sol\":1115:1205  interfaceId == type(IERC721Enumerable).interfaceId || super.supportsInterface(interfaceId) */\n      tag_134\n      jumpi\n      pop\n        /* \"@openzeppelin/contracts@4.4.2/token/ERC721/extensions/ERC721Enumerable.sol\":1169:1205  super.supportsInterface(interfaceId) */\n      tag_134\n        /* \"@openzeppelin/contracts@4.4.2/token/ERC721/extensions/ERC721Enumerable.sol\":1193:1204  interfaceId */\n      dup3\n        /* \"@openzeppelin/contracts@4.4.2/token/ERC721/extensions/ERC721Enumerable.sol\":1169:1192  super.supportsInterface */\n      tag_286\n        /* \"@openzeppelin/contracts@4.4.2/token/ERC721/extensions/ERC721Enumerable.sol\":1169:1205  super.supportsInterface(interfaceId) */\n      jump\t// in\n        /* \"@openzeppelin/contracts@4.4.2/token/ERC721/ERC721.sol\":10995:11166  function _approve(address to, uint256 tokenId) internal virtual {... */\n    tag_170:\n        /* \"@openzeppelin/contracts@4.4.2/token/ERC721/ERC721.sol\":11069:11093  _tokenApprovals[tokenId] */\n      0x00\n      dup2\n      dup2\n      mstore\n        /* \"@openzeppelin/contracts@4.4.2/token/ERC721/ERC721.sol\":11069:11084  _tokenApprovals */\n      0x04\n        /* \"@openzeppelin/contracts@4.4.2/token/ERC721/ERC721.sol\":11069:11093  _tokenApprovals[tokenId] */\n      0x20\n      mstore\n      0x40\n      swap1\n      keccak256\n        /* \"@openzeppelin/contracts@4.4.2/token/ERC721/ERC721.sol\":11069:11098  _tokenApprovals[tokenId] = to */\n      dup1\n      sload\n      not(sub(shl(0xa0, 0x01), 0x01))\n      and\n      sub(shl(0xa0, 0x01), 0x01)\n      dup5\n      and\n      swap1\n      dup2\n      or\n      swap1\n      swap2\n      sstore\n        /* \"@openzeppelin/contracts@4.4.2/token/ERC721/ERC721.sol\":11069:11093  _tokenApprovals[tokenId] */\n      dup2\n      swap1\n        /* \"@openzeppelin/contracts@4.4.2/token/ERC721/ERC721.sol\":11122:11145  ERC721.ownerOf(tokenId) */\n      tag_290\n        /* \"@openzeppelin/contracts@4.4.2/token/ERC721/ERC721.sol\":11069:11093  _tokenApprovals[tokenId] */\n      dup3\n        /* \"@openzeppelin/contracts@4.4.2/token/ERC721/ERC721.sol\":11122:11136  ERC721.ownerOf */\n      tag_83\n        /* \"@openzeppelin/contracts@4.4.2/token/ERC721/ERC721.sol\":11122:11145  ERC721.ownerOf(tokenId) */\n      jump\t// in\n    tag_290:\n      sub(shl(0xa0, 0x01), 0x01)\n        /* \"@openzeppelin/contracts@4.4.2/token/ERC721/ERC721.sol\":11113:11159  Approval(ERC721.ownerOf(tokenId), to, tokenId) */\n      and\n      0x8c5be1e5ebec7d5bd14f71427d1e84f3dd0314c0f7b2291e5b200ac8c7c3b925\n      mload(0x40)\n      mload(0x40)\n      dup1\n      swap2\n      sub\n      swap1\n      log4\n        /* \"@openzeppelin/contracts@4.4.2/token/ERC721/ERC721.sol\":10995:11166  function _approve(address to, uint256 tokenId) internal virtual {... */\n      pop\n      pop\n      jump\t// out\n        /* \"@openzeppelin/contracts@4.4.2/token/ERC721/ERC721.sol\":7427:7771  function _isApprovedOrOwner(address spender, uint256 tokenId) internal view virtual returns (bool) {... */\n    tag_175:\n        /* \"@openzeppelin/contracts@4.4.2/token/ERC721/ERC721.sol\":7520:7524  bool */\n      0x00\n        /* \"@openzeppelin/contracts@4.4.2/token/ERC721/ERC721.sol\":7232:7248  _owners[tokenId] */\n      dup2\n      dup2\n      mstore\n        /* \"@openzeppelin/contracts@4.4.2/token/ERC721/ERC721.sol\":7232:7239  _owners */\n      0x02\n        /* \"@openzeppelin/contracts@4.4.2/token/ERC721/ERC721.sol\":7232:7248  _owners[tokenId] */\n      0x20\n      mstore\n      0x40\n      dup2\n      keccak256\n      sload\n      sub(shl(0xa0, 0x01), 0x01)\n      and\n        /* \"@openzeppelin/contracts@4.4.2/token/ERC721/ERC721.sol\":7536:7609  require(_exists(tokenId), \"ERC721: operator query for nonexistent token\") */\n      tag_293\n      jumpi\n      mload(0x40)\n      shl(0xe5, 0x461bcd)\n      dup2\n      mstore\n        /* \"#utility.yul\":14604:14606   */\n      0x20\n        /* \"@openzeppelin/contracts@4.4.2/token/ERC721/ERC721.sol\":7536:7609  require(_exists(tokenId), \"ERC721: operator query for nonexistent token\") */\n      0x04\n      dup3\n      add\n        /* \"#utility.yul\":14586:14607   */\n      mstore\n        /* \"#utility.yul\":14643:14645   */\n      0x2c\n        /* \"#utility.yul\":14623:14641   */\n      0x24\n      dup3\n      add\n        /* \"#utility.yul\":14616:14646   */\n      mstore\n        /* \"#utility.yul\":14682:14716   */\n      0x4552433732313a206f70657261746f7220717565727920666f72206e6f6e6578\n        /* \"#utility.yul\":14662:14680   */\n      0x44\n      dup3\n      add\n        /* \"#utility.yul\":14655:14717   */\n      mstore\n      shl(0xa1, 0x34b9ba32b73a103a37b5b2b7)\n        /* \"#utility.yul\":14733:14751   */\n      0x64\n      dup3\n      add\n        /* \"#utility.yul\":14726:14768   */\n      mstore\n        /* \"#utility.yul\":14785:14804   */\n      0x84\n      add\n        /* \"@openzeppelin/contracts@4.4.2/token/ERC721/ERC721.sol\":7536:7609  require(_exists(tokenId), \"ERC721: operator query for nonexistent token\") */\n      tag_141\n        /* \"#utility.yul\":14402:14810   */\n      jump\n        /* \"@openzeppelin/contracts@4.4.2/token/ERC721/ERC721.sol\":7536:7609  require(_exists(tokenId), \"ERC721: operator query for nonexistent token\") */\n    tag_293:\n        /* \"@openzeppelin/contracts@4.4.2/token/ERC721/ERC721.sol\":7619:7632  address owner */\n      0x00\n        /* \"@openzeppelin/contracts@4.4.2/token/ERC721/ERC721.sol\":7635:7658  ERC721.ownerOf(tokenId) */\n      tag_296\n        /* \"@openzeppelin/contracts@4.4.2/token/ERC721/ERC721.sol\":7650:7657  tokenId */\n      dup4\n        /* \"@openzeppelin/contracts@4.4.2/token/ERC721/ERC721.sol\":7635:7649  ERC721.ownerOf */\n      tag_83\n        /* \"@openzeppelin/contracts@4.4.2/token/ERC721/ERC721.sol\":7635:7658  ERC721.ownerOf(tokenId) */\n      jump\t// in\n    tag_296:\n        /* \"@openzeppelin/contracts@4.4.2/token/ERC721/ERC721.sol\":7619:7658  address owner = ERC721.ownerOf(tokenId) */\n      swap1\n      pop\n        /* \"@openzeppelin/contracts@4.4.2/token/ERC721/ERC721.sol\":7687:7692  owner */\n      dup1\n      sub(shl(0xa0, 0x01), 0x01)\n        /* \"@openzeppelin/contracts@4.4.2/token/ERC721/ERC721.sol\":7676:7692  spender == owner */\n      and\n        /* \"@openzeppelin/contracts@4.4.2/token/ERC721/ERC721.sol\":7676:7683  spender */\n      dup5\n      sub(shl(0xa0, 0x01), 0x01)\n        /* \"@openzeppelin/contracts@4.4.2/token/ERC721/ERC721.sol\":7676:7692  spender == owner */\n      and\n      eq\n        /* \"@openzeppelin/contracts@4.4.2/token/ERC721/ERC721.sol\":7676:7727  spender == owner || getApproved(tokenId) == spender */\n      dup1\n      tag_297\n      jumpi\n      pop\n        /* \"@openzeppelin/contracts@4.4.2/token/ERC721/ERC721.sol\":7720:7727  spender */\n      dup4\n      sub(shl(0xa0, 0x01), 0x01)\n        /* \"@openzeppelin/contracts@4.4.2/token/ERC721/ERC721.sol\":7696:7727  getApproved(tokenId) == spender */\n      and\n        /* \"@openzeppelin/contracts@4.4.2/token/ERC721/ERC721.sol\":7696:7716  getApproved(tokenId) */\n      tag_298\n        /* \"@openzeppelin/contracts@4.4.2/token/ERC721/ERC721.sol\":7708:7715  tokenId */\n      dup5\n        /* \"@openzeppelin/contracts@4.4.2/token/ERC721/ERC721.sol\":7696:7707  getApproved */\n      tag_49\n        /* \"@openzeppelin/contracts@4.4.2/token/ERC721/ERC721.sol\":7696:7716  getApproved(tokenId) */\n      jump\t// in\n    tag_298:\n      sub(shl(0xa0, 0x01), 0x01)\n        /* \"@openzeppelin/contracts@4.4.2/token/ERC721/ERC721.sol\":7696:7727  getApproved(tokenId) == spender */\n      and\n      eq\n        /* \"@openzeppelin/contracts@4.4.2/token/ERC721/ERC721.sol\":7676:7727  spender == owner || getApproved(tokenId) == spender */\n    tag_297:\n        /* \"@openzeppelin/contracts@4.4.2/token/ERC721/ERC721.sol\":7676:7763  spender == owner || getApproved(tokenId) == spender || isApprovedForAll(owner, spender) */\n      dup1\n      tag_300\n      jumpi\n      pop\n      sub(shl(0xa0, 0x01), 0x01)\n        /* \"@openzeppelin/contracts@4.4.2/token/ERC721/ERC721.sol\":4607:4632  _operatorApprovals[owner] */\n      dup1\n      dup3\n      and\n        /* \"@openzeppelin/contracts@4.4.2/token/ERC721/ERC721.sol\":4584:4588  bool */\n      0x00\n        /* \"@openzeppelin/contracts@4.4.2/token/ERC721/ERC721.sol\":4607:4632  _operatorApprovals[owner] */\n      swap1\n      dup2\n      mstore\n        /* \"@openzeppelin/contracts@4.4.2/token/ERC721/ERC721.sol\":4607:4625  _operatorApprovals */\n      0x05\n        /* \"@openzeppelin/contracts@4.4.2/token/ERC721/ERC721.sol\":4607:4632  _operatorApprovals[owner] */\n      0x20\n      swap1\n      dup2\n      mstore\n      0x40\n      dup1\n      dup4\n      keccak256\n        /* \"@openzeppelin/contracts@4.4.2/token/ERC721/ERC721.sol\":4607:4642  _operatorApprovals[owner][operator] */\n      swap4\n      dup9\n      and\n      dup4\n      mstore\n      swap3\n      swap1\n      mstore\n      keccak256\n      sload\n      0xff\n      and\n        /* \"@openzeppelin/contracts@4.4.2/token/ERC721/ERC721.sol\":7731:7763  isApprovedForAll(owner, spender) */\n    tag_300:\n        /* \"@openzeppelin/contracts@4.4.2/token/ERC721/ERC721.sol\":7668:7764  return (spender == owner || getApproved(tokenId) == spender || isApprovedForAll(owner, spender)) */\n      swap5\n        /* \"@openzeppelin/contracts@4.4.2/token/ERC721/ERC721.sol\":7427:7771  function _isApprovedOrOwner(address spender, uint256 tokenId) internal view virtual returns (bool) {... */\n      swap4\n      pop\n      pop\n      pop\n      pop\n      jump\t// out\n        /* \"@openzeppelin/contracts@4.4.2/token/ERC721/ERC721.sol\":10324:10884  function _transfer(... */\n    tag_180:\n        /* \"@openzeppelin/contracts@4.4.2/token/ERC721/ERC721.sol\":10478:10482  from */\n      dup3\n      sub(shl(0xa0, 0x01), 0x01)\n        /* \"@openzeppelin/contracts@4.4.2/token/ERC721/ERC721.sol\":10451:10482  ERC721.ownerOf(tokenId) == from */\n      and\n        /* \"@openzeppelin/contracts@4.4.2/token/ERC721/ERC721.sol\":10451:10474  ERC721.ownerOf(tokenId) */\n      tag_302\n        /* \"@openzeppelin/contracts@4.4.2/token/ERC721/ERC721.sol\":10466:10473  tokenId */\n      dup3\n        /* \"@openzeppelin/contracts@4.4.2/token/ERC721/ERC721.sol\":10451:10465  ERC721.ownerOf */\n      tag_83\n        /* \"@openzeppelin/contracts@4.4.2/token/ERC721/ERC721.sol\":10451:10474  ERC721.ownerOf(tokenId) */\n      jump\t// in\n    tag_302:\n      sub(shl(0xa0, 0x01), 0x01)\n        /* \"@openzeppelin/contracts@4.4.2/token/ERC721/ERC721.sol\":10451:10482  ERC721.ownerOf(tokenId) == from */\n      and\n      eq\n        /* \"@openzeppelin/contracts@4.4.2/token/ERC721/ERC721.sol\":10443:10528  require(ERC721.ownerOf(tokenId) == from, \"ERC721: transfer of token that is not own\") */\n      tag_303\n      jumpi\n      mload(0x40)\n      shl(0xe5, 0x461bcd)\n      dup2\n      mstore\n        /* \"#utility.yul\":15017:15019   */\n      0x20\n        /* \"@openzeppelin/contracts@4.4.2/token/ERC721/ERC721.sol\":10443:10528  require(ERC721.ownerOf(tokenId) == from, \"ERC721: transfer of token that is not own\") */\n      0x04\n      dup3\n      add\n        /* \"#utility.yul\":14999:15020   */\n      mstore\n        /* \"#utility.yul\":15056:15058   */\n      0x29\n        /* \"#utility.yul\":15036:15054   */\n      0x24\n      dup3\n      add\n        /* \"#utility.yul\":15029:15059   */\n      mstore\n        /* \"#utility.yul\":15095:15129   */\n      0x4552433732313a207472616e73666572206f6620746f6b656e20746861742069\n        /* \"#utility.yul\":15075:15093   */\n      0x44\n      dup3\n      add\n        /* \"#utility.yul\":15068:15130   */\n      mstore\n      shl(0xb9, 0x39903737ba1037bbb7)\n        /* \"#utility.yul\":15146:15164   */\n      0x64\n      dup3\n      add\n        /* \"#utility.yul\":15139:15178   */\n      mstore\n        /* \"#utility.yul\":15195:15214   */\n      0x84\n      add\n        /* \"@openzeppelin/contracts@4.4.2/token/ERC721/ERC721.sol\":10443:10528  require(ERC721.ownerOf(tokenId) == from, \"ERC721: transfer of token that is not own\") */\n      tag_141\n        /* \"#utility.yul\":14815:15220   */\n      jump\n        /* \"@openzeppelin/contracts@4.4.2/token/ERC721/ERC721.sol\":10443:10528  require(ERC721.ownerOf(tokenId) == from, \"ERC721: transfer of token that is not own\") */\n    tag_303:\n      sub(shl(0xa0, 0x01), 0x01)\n        /* \"@openzeppelin/contracts@4.4.2/token/ERC721/ERC721.sol\":10546:10562  to != address(0) */\n      dup3\n      and\n        /* \"@openzeppelin/contracts@4.4.2/token/ERC721/ERC721.sol\":10538:10603  require(to != address(0), \"ERC721: transfer to the zero address\") */\n      tag_306\n      jumpi\n      mload(0x40)\n      shl(0xe5, 0x461bcd)\n      dup2\n      mstore\n        /* \"#utility.yul\":15427:15429   */\n      0x20\n        /* \"@openzeppelin/contracts@4.4.2/token/ERC721/ERC721.sol\":10538:10603  require(to != address(0), \"ERC721: transfer to the zero address\") */\n      0x04\n      dup3\n      add\n        /* \"#utility.yul\":15409:15430   */\n      mstore\n        /* \"#utility.yul\":15466:15468   */\n      0x24\n        /* \"#utility.yul\":15446:15464   */\n      dup1\n      dup3\n      add\n        /* \"#utility.yul\":15439:15469   */\n      mstore\n        /* \"#utility.yul\":15505:15539   */\n      0x4552433732313a207472616e7366657220746f20746865207a65726f20616464\n        /* \"#utility.yul\":15485:15503   */\n      0x44\n      dup3\n      add\n        /* \"#utility.yul\":15478:15540   */\n      mstore\n      shl(0xe0, 0x72657373)\n        /* \"#utility.yul\":15556:15574   */\n      0x64\n      dup3\n      add\n        /* \"#utility.yul\":15549:15583   */\n      mstore\n        /* \"#utility.yul\":15600:15619   */\n      0x84\n      add\n        /* \"@openzeppelin/contracts@4.4.2/token/ERC721/ERC721.sol\":10538:10603  require(to != address(0), \"ERC721: transfer to the zero address\") */\n      tag_141\n        /* \"#utility.yul\":15225:15625   */\n      jump\n        /* \"@openzeppelin/contracts@4.4.2/token/ERC721/ERC721.sol\":10538:10603  require(to != address(0), \"ERC721: transfer to the zero address\") */\n    tag_306:\n        /* \"@openzeppelin/contracts@4.4.2/token/ERC721/ERC721.sol\":10614:10653  _beforeTokenTransfer(from, to, tokenId) */\n      tag_309\n        /* \"@openzeppelin/contracts@4.4.2/token/ERC721/ERC721.sol\":10635:10639  from */\n      dup4\n        /* \"@openzeppelin/contracts@4.4.2/token/ERC721/ERC721.sol\":10641:10643  to */\n      dup4\n        /* \"@openzeppelin/contracts@4.4.2/token/ERC721/ERC721.sol\":10645:10652  tokenId */\n      dup4\n        /* \"@openzeppelin/contracts@4.4.2/token/ERC721/ERC721.sol\":10614:10634  _beforeTokenTransfer */\n      tag_310\n        /* \"@openzeppelin/contracts@4.4.2/token/ERC721/ERC721.sol\":10614:10653  _beforeTokenTransfer(from, to, tokenId) */\n      jump\t// in\n    tag_309:\n        /* \"@openzeppelin/contracts@4.4.2/token/ERC721/ERC721.sol\":10715:10744  _approve(address(0), tokenId) */\n      tag_311\n        /* \"@openzeppelin/contracts@4.4.2/token/ERC721/ERC721.sol\":10732:10733  0 */\n      0x00\n        /* \"@openzeppelin/contracts@4.4.2/token/ERC721/ERC721.sol\":10736:10743  tokenId */\n      dup3\n        /* \"@openzeppelin/contracts@4.4.2/token/ERC721/ERC721.sol\":10715:10723  _approve */\n      tag_170\n        /* \"@openzeppelin/contracts@4.4.2/token/ERC721/ERC721.sol\":10715:10744  _approve(address(0), tokenId) */\n      jump\t// in\n    tag_311:\n      sub(shl(0xa0, 0x01), 0x01)\n        /* \"@openzeppelin/contracts@4.4.2/token/ERC721/ERC721.sol\":10755:10770  _balances[from] */\n      dup4\n      and\n      0x00\n      swap1\n      dup2\n      mstore\n        /* \"@openzeppelin/contracts@4.4.2/token/ERC721/ERC721.sol\":10755:10764  _balances */\n      0x03\n        /* \"@openzeppelin/contracts@4.4.2/token/ERC721/ERC721.sol\":10755:10770  _balances[from] */\n      0x20\n      mstore\n      0x40\n      dup2\n      keccak256\n        /* \"@openzeppelin/contracts@4.4.2/token/ERC721/ERC721.sol\":10755:10775  _balances[from] -= 1 */\n      dup1\n      sload\n        /* \"@openzeppelin/contracts@4.4.2/token/ERC721/ERC721.sol\":10774:10775  1 */\n      0x01\n      swap3\n        /* \"@openzeppelin/contracts@4.4.2/token/ERC721/ERC721.sol\":10755:10770  _balances[from] */\n      swap1\n        /* \"@openzeppelin/contracts@4.4.2/token/ERC721/ERC721.sol\":10755:10775  _balances[from] -= 1 */\n      tag_312\n      swap1\n        /* \"@openzeppelin/contracts@4.4.2/token/ERC721/ERC721.sol\":10774:10775  1 */\n      dup5\n      swap1\n        /* \"@openzeppelin/contracts@4.4.2/token/ERC721/ERC721.sol\":10755:10775  _balances[from] -= 1 */\n      tag_313\n      jump\t// in\n    tag_312:\n      swap1\n      swap2\n      sstore\n      pop\n      pop\n      sub(shl(0xa0, 0x01), 0x01)\n        /* \"@openzeppelin/contracts@4.4.2/token/ERC721/ERC721.sol\":10785:10798  _balances[to] */\n      dup3\n      and\n      0x00\n      swap1\n      dup2\n      mstore\n        /* \"@openzeppelin/contracts@4.4.2/token/ERC721/ERC721.sol\":10785:10794  _balances */\n      0x03\n        /* \"@openzeppelin/contracts@4.4.2/token/ERC721/ERC721.sol\":10785:10798  _balances[to] */\n      0x20\n      mstore\n      0x40\n      dup2\n      keccak256\n        /* \"@openzeppelin/contracts@4.4.2/token/ERC721/ERC721.sol\":10785:10803  _balances[to] += 1 */\n      dup1\n      sload\n        /* \"@openzeppelin/contracts@4.4.2/token/ERC721/ERC721.sol\":10802:10803  1 */\n      0x01\n      swap3\n        /* \"@openzeppelin/contracts@4.4.2/token/ERC721/ERC721.sol\":10785:10798  _balances[to] */\n      swap1\n        /* \"@openzeppelin/contracts@4.4.2/token/ERC721/ERC721.sol\":10785:10803  _balances[to] += 1 */\n      tag_314\n      swap1\n        /* \"@openzeppelin/contracts@4.4.2/token/ERC721/ERC721.sol\":10802:10803  1 */\n      dup5\n      swap1\n        /* \"@openzeppelin/contracts@4.4.2/token/ERC721/ERC721.sol\":10785:10803  _balances[to] += 1 */\n      tag_315\n      jump\t// in\n    tag_314:\n      swap1\n      swap2\n      sstore\n      pop\n      pop\n        /* \"@openzeppelin/contracts@4.4.2/token/ERC721/ERC721.sol\":10813:10829  _owners[tokenId] */\n      0x00\n      dup2\n      dup2\n      mstore\n        /* \"@openzeppelin/contracts@4.4.2/token/ERC721/ERC721.sol\":10813:10820  _owners */\n      0x02\n        /* \"@openzeppelin/contracts@4.4.2/token/ERC721/ERC721.sol\":10813:10829  _owners[tokenId] */\n      0x20\n      mstore\n      0x40\n      dup1\n      dup3\n      keccak256\n        /* \"@openzeppelin/contracts@4.4.2/token/ERC721/ERC721.sol\":10813:10834  _owners[tokenId] = to */\n      dup1\n      sload\n      not(sub(shl(0xa0, 0x01), 0x01))\n      and\n      sub(shl(0xa0, 0x01), 0x01)\n      dup7\n      dup2\n      and\n      swap2\n      dup3\n      or\n      swap1\n      swap3\n      sstore\n        /* \"@openzeppelin/contracts@4.4.2/token/ERC721/ERC721.sol\":10850:10877  Transfer(from, to, tokenId) */\n      swap2\n      mload\n        /* \"@openzeppelin/contracts@4.4.2/token/ERC721/ERC721.sol\":10813:10829  _owners[tokenId] */\n      dup5\n      swap4\n        /* \"@openzeppelin/contracts@4.4.2/token/ERC721/ERC721.sol\":10850:10877  Transfer(from, to, tokenId) */\n      swap2\n      dup8\n      and\n      swap2\n      0xddf252ad1be2c89b69c2b068fc378daa952ba7f163c4a11628f55a4df523b3ef\n      swap2\n      log4\n        /* \"@openzeppelin/contracts@4.4.2/token/ERC721/ERC721.sol\":10324:10884  function _transfer(... */\n      pop\n      pop\n      pop\n      jump\t// out\n        /* \"@openzeppelin/contracts@4.4.2/access/Ownable.sol\":2270:2457  function _transferOwnership(address newOwner) internal virtual {... */\n    tag_214:\n        /* \"@openzeppelin/contracts@4.4.2/access/Ownable.sol\":2362:2368  _owner */\n      0x0a\n      dup1\n      sload\n      sub(shl(0xa0, 0x01), 0x01)\n        /* \"@openzeppelin/contracts@4.4.2/access/Ownable.sol\":2378:2395  _owner = newOwner */\n      dup4\n      dup2\n      and\n      not(sub(shl(0xa0, 0x01), 0x01))\n      dup4\n      and\n      dup2\n      or\n      swap1\n      swap4\n      sstore\n        /* \"@openzeppelin/contracts@4.4.2/access/Ownable.sol\":2410:2450  OwnershipTransferred(oldOwner, newOwner) */\n      mload(0x40)\n        /* \"@openzeppelin/contracts@4.4.2/access/Ownable.sol\":2362:2368  _owner */\n      swap2\n      and\n      swap2\n        /* \"@openzeppelin/contracts@4.4.2/access/Ownable.sol\":2378:2395  _owner = newOwner */\n      swap1\n        /* \"@openzeppelin/contracts@4.4.2/access/Ownable.sol\":2362:2368  _owner */\n      dup3\n      swap1\n        /* \"@openzeppelin/contracts@4.4.2/access/Ownable.sol\":2410:2450  OwnershipTransferred(oldOwner, newOwner) */\n      0x8be0079c531659141344cd1fd0a4f28419497f9722a3daafe3b4186f6b6457e0\n      swap1\n        /* \"@openzeppelin/contracts@4.4.2/access/Ownable.sol\":2343:2359  address oldOwner */\n      0x00\n      swap1\n        /* \"@openzeppelin/contracts@4.4.2/access/Ownable.sol\":2410:2450  OwnershipTransferred(oldOwner, newOwner) */\n      log3\n        /* \"@openzeppelin/contracts@4.4.2/access/Ownable.sol\":2333:2457  {... */\n      pop\n        /* \"@openzeppelin/contracts@4.4.2/access/Ownable.sol\":2270:2457  function _transferOwnership(address newOwner) internal virtual {... */\n      pop\n      jump\t// out\n        /* \"@openzeppelin/contracts@4.4.2/token/ERC721/ERC721.sol\":8101:8209  function _safeMint(address to, uint256 tokenId) internal virtual {... */\n    tag_237:\n        /* \"@openzeppelin/contracts@4.4.2/token/ERC721/ERC721.sol\":8176:8202  _safeMint(to, tokenId, \"\") */\n      tag_236\n        /* \"@openzeppelin/contracts@4.4.2/token/ERC721/ERC721.sol\":8186:8188  to */\n      dup3\n        /* \"@openzeppelin/contracts@4.4.2/token/ERC721/ERC721.sol\":8190:8197  tokenId */\n      dup3\n        /* \"@openzeppelin/contracts@4.4.2/token/ERC721/ERC721.sol\":8176:8202  _safeMint(to, tokenId, \"\") */\n      mload(0x40)\n      dup1\n      0x20\n      add\n      0x40\n      mstore\n      dup1\n      0x00\n      dup2\n      mstore\n      pop\n        /* \"@openzeppelin/contracts@4.4.2/token/ERC721/ERC721.sol\":8176:8185  _safeMint */\n      tag_319\n        /* \"@openzeppelin/contracts@4.4.2/token/ERC721/ERC721.sol\":8176:8202  _safeMint(to, tokenId, \"\") */\n      jump\t// in\n        /* \"@openzeppelin/contracts@4.4.2/token/ERC721/ERC721.sol\":11301:11608  function _setApprovalForAll(... */\n    tag_241:\n        /* \"@openzeppelin/contracts@4.4.2/token/ERC721/ERC721.sol\":11451:11459  operator */\n      dup2\n      sub(shl(0xa0, 0x01), 0x01)\n        /* \"@openzeppelin/contracts@4.4.2/token/ERC721/ERC721.sol\":11442:11459  owner != operator */\n      and\n        /* \"@openzeppelin/contracts@4.4.2/token/ERC721/ERC721.sol\":11442:11447  owner */\n      dup4\n      sub(shl(0xa0, 0x01), 0x01)\n        /* \"@openzeppelin/contracts@4.4.2/token/ERC721/ERC721.sol\":11442:11459  owner != operator */\n      and\n      sub\n        /* \"@openzeppelin/contracts@4.4.2/token/ERC721/ERC721.sol\":11434:11489  require(owner != operator, \"ERC721: approve to caller\") */\n      tag_321\n      jumpi\n      mload(0x40)\n      shl(0xe5, 0x461bcd)\n      dup2\n      mstore\n        /* \"#utility.yul\":16095:16097   */\n      0x20\n        /* \"@openzeppelin/contracts@4.4.2/token/ERC721/ERC721.sol\":11434:11489  require(owner != operator, \"ERC721: approve to caller\") */\n      0x04\n      dup3\n      add\n        /* \"#utility.yul\":16077:16098   */\n      mstore\n        /* \"#utility.yul\":16134:16136   */\n      0x19\n        /* \"#utility.yul\":16114:16132   */\n      0x24\n      dup3\n      add\n        /* \"#utility.yul\":16107:16137   */\n      mstore\n        /* \"#utility.yul\":16173:16200   */\n      0x4552433732313a20617070726f766520746f2063616c6c657200000000000000\n        /* \"#utility.yul\":16153:16171   */\n      0x44\n      dup3\n      add\n        /* \"#utility.yul\":16146:16201   */\n      mstore\n        /* \"#utility.yul\":16218:16236   */\n      0x64\n      add\n        /* \"@openzeppelin/contracts@4.4.2/token/ERC721/ERC721.sol\":11434:11489  require(owner != operator, \"ERC721: approve to caller\") */\n      tag_141\n        /* \"#utility.yul\":15893:16242   */\n      jump\n        /* \"@openzeppelin/contracts@4.4.2/token/ERC721/ERC721.sol\":11434:11489  require(owner != operator, \"ERC721: approve to caller\") */\n    tag_321:\n      sub(shl(0xa0, 0x01), 0x01)\n        /* \"@openzeppelin/contracts@4.4.2/token/ERC721/ERC721.sol\":11499:11524  _operatorApprovals[owner] */\n      dup4\n      dup2\n      and\n      0x00\n      dup2\n      dup2\n      mstore\n        /* \"@openzeppelin/contracts@4.4.2/token/ERC721/ERC721.sol\":11499:11517  _operatorApprovals */\n      0x05\n        /* \"@openzeppelin/contracts@4.4.2/token/ERC721/ERC721.sol\":11499:11524  _operatorApprovals[owner] */\n      0x20\n      swap1\n      dup2\n      mstore\n      0x40\n      dup1\n      dup4\n      keccak256\n        /* \"@openzeppelin/contracts@4.4.2/token/ERC721/ERC721.sol\":11499:11534  _operatorApprovals[owner][operator] */\n      swap5\n      dup8\n      and\n      dup1\n      dup5\n      mstore\n      swap5\n      dup3\n      mstore\n      swap2\n      dup3\n      swap1\n      keccak256\n        /* \"@openzeppelin/contracts@4.4.2/token/ERC721/ERC721.sol\":11499:11545  _operatorApprovals[owner][operator] = approved */\n      dup1\n      sload\n      not(0xff)\n      and\n      dup7\n      iszero\n      iszero\n      swap1\n      dup2\n      or\n      swap1\n      swap2\n      sstore\n        /* \"@openzeppelin/contracts@4.4.2/token/ERC721/ERC721.sol\":11560:11601  ApprovalForAll(owner, operator, approved) */\n      swap2\n      mload\n        /* \"#utility.yul\":540:581   */\n      swap2\n      dup3\n      mstore\n        /* \"@openzeppelin/contracts@4.4.2/token/ERC721/ERC721.sol\":11560:11601  ApprovalForAll(owner, operator, approved) */\n      0x17307eab39ab6107e8899845ad3d59bd9653f200f220920489ca2b5937696c31\n      swap2\n        /* \"#utility.yul\":513:531   */\n      add\n        /* \"@openzeppelin/contracts@4.4.2/token/ERC721/ERC721.sol\":11560:11601  ApprovalForAll(owner, operator, approved) */\n      mload(0x40)\n      dup1\n      swap2\n      sub\n      swap1\n      log3\n        /* \"@openzeppelin/contracts@4.4.2/token/ERC721/ERC721.sol\":11301:11608  function _setApprovalForAll(... */\n      pop\n      pop\n      pop\n      jump\t// out\n        /* \"@openzeppelin/contracts@4.4.2/token/ERC721/ERC721.sol\":6534:6841  function _safeTransfer(... */\n    tag_253:\n        /* \"@openzeppelin/contracts@4.4.2/token/ERC721/ERC721.sol\":6685:6713  _transfer(from, to, tokenId) */\n      tag_326\n        /* \"@openzeppelin/contracts@4.4.2/token/ERC721/ERC721.sol\":6695:6699  from */\n      dup5\n        /* \"@openzeppelin/contracts@4.4.2/token/ERC721/ERC721.sol\":6701:6703  to */\n      dup5\n        /* \"@openzeppelin/contracts@4.4.2/token/ERC721/ERC721.sol\":6705:6712  tokenId */\n      dup5\n        /* \"@openzeppelin/contracts@4.4.2/token/ERC721/ERC721.sol\":6685:6694  _transfer */\n      tag_180\n        /* \"@openzeppelin/contracts@4.4.2/token/ERC721/ERC721.sol\":6685:6713  _transfer(from, to, tokenId) */\n      jump\t// in\n    tag_326:\n        /* \"@openzeppelin/contracts@4.4.2/token/ERC721/ERC721.sol\":6731:6779  _checkOnERC721Received(from, to, tokenId, _data) */\n      tag_327\n        /* \"@openzeppelin/contracts@4.4.2/token/ERC721/ERC721.sol\":6754:6758  from */\n      dup5\n        /* \"@openzeppelin/contracts@4.4.2/token/ERC721/ERC721.sol\":6760:6762  to */\n      dup5\n        /* \"@openzeppelin/contracts@4.4.2/token/ERC721/ERC721.sol\":6764:6771  tokenId */\n      dup5\n        /* \"@openzeppelin/contracts@4.4.2/token/ERC721/ERC721.sol\":6773:6778  _data */\n      dup5\n        /* \"@openzeppelin/contracts@4.4.2/token/ERC721/ERC721.sol\":6731:6753  _checkOnERC721Received */\n      tag_328\n        /* \"@openzeppelin/contracts@4.4.2/token/ERC721/ERC721.sol\":6731:6779  _checkOnERC721Received(from, to, tokenId, _data) */\n      jump\t// in\n    tag_327:\n        /* \"@openzeppelin/contracts@4.4.2/token/ERC721/ERC721.sol\":6723:6834  require(_checkOnERC721Received(from, to, tokenId, _data), \"ERC721: transfer to non ERC721Receiver implementer\") */\n      tag_252\n      jumpi\n      mload(0x40)\n      shl(0xe5, 0x461bcd)\n      dup2\n      mstore\n      0x04\n      add\n      tag_141\n      swap1\n      tag_331\n      jump\t// in\n        /* \"@openzeppelin/contracts@4.4.2/utils/Strings.sol\":328:1031  function toString(uint256 value) internal pure returns (string memory) {... */\n    tag_264:\n        /* \"@openzeppelin/contracts@4.4.2/utils/Strings.sol\":384:397  string memory */\n      0x60\n        /* \"@openzeppelin/contracts@4.4.2/utils/Strings.sol\":601:606  value */\n      dup2\n        /* \"@openzeppelin/contracts@4.4.2/utils/Strings.sol\":610:611  0 */\n      0x00\n        /* \"@openzeppelin/contracts@4.4.2/utils/Strings.sol\":601:611  value == 0 */\n      sub\n        /* \"@openzeppelin/contracts@4.4.2/utils/Strings.sol\":597:648  if (value == 0) {... */\n      tag_334\n      jumpi\n      pop\n      pop\n        /* \"@openzeppelin/contracts@4.4.2/utils/Strings.sol\":627:637  return \"0\" */\n      0x40\n      dup1\n      mload\n      dup1\n      dup3\n      add\n      swap1\n      swap2\n      mstore\n      0x01\n      dup2\n      mstore\n      shl(0xfc, 0x03)\n      0x20\n      dup3\n      add\n      mstore\n      swap1\n        /* \"@openzeppelin/contracts@4.4.2/utils/Strings.sol\":328:1031  function toString(uint256 value) internal pure returns (string memory) {... */\n      jump\t// out\n        /* \"@openzeppelin/contracts@4.4.2/utils/Strings.sol\":597:648  if (value == 0) {... */\n    tag_334:\n        /* \"@openzeppelin/contracts@4.4.2/utils/Strings.sol\":672:677  value */\n      dup2\n        /* \"@openzeppelin/contracts@4.4.2/utils/Strings.sol\":657:669  uint256 temp */\n      0x00\n        /* \"@openzeppelin/contracts@4.4.2/utils/Strings.sol\":711:786  while (temp != 0) {... */\n    tag_335:\n        /* \"@openzeppelin/contracts@4.4.2/utils/Strings.sol\":718:727  temp != 0 */\n      dup2\n      iszero\n        /* \"@openzeppelin/contracts@4.4.2/utils/Strings.sol\":711:786  while (temp != 0) {... */\n      tag_336\n      jumpi\n        /* \"@openzeppelin/contracts@4.4.2/utils/Strings.sol\":743:751  digits++ */\n      dup1\n      tag_337\n      dup2\n      tag_338\n      jump\t// in\n    tag_337:\n      swap2\n      pop\n        /* \"@openzeppelin/contracts@4.4.2/utils/Strings.sol\":765:775  temp /= 10 */\n      tag_339\n      swap1\n      pop\n        /* \"@openzeppelin/contracts@4.4.2/utils/Strings.sol\":773:775  10 */\n      0x0a\n        /* \"@openzeppelin/contracts@4.4.2/utils/Strings.sol\":765:775  temp /= 10 */\n      dup4\n      tag_244\n      jump\t// in\n    tag_339:\n      swap2\n      pop\n        /* \"@openzeppelin/contracts@4.4.2/utils/Strings.sol\":711:786  while (temp != 0) {... */\n      jump(tag_335)\n    tag_336:\n        /* \"@openzeppelin/contracts@4.4.2/utils/Strings.sol\":795:814  bytes memory buffer */\n      0x00\n        /* \"@openzeppelin/contracts@4.4.2/utils/Strings.sol\":827:833  digits */\n      dup2\n        /* \"@openzeppelin/contracts@4.4.2/utils/Strings.sol\":817:834  new bytes(digits) */\n      0xffffffffffffffff\n      dup2\n      gt\n      iszero\n      tag_341\n      jumpi\n      tag_341\n      tag_342\n      jump\t// in\n    tag_341:\n      mload(0x40)\n      swap1\n      dup1\n      dup3\n      mstore\n      dup1\n      0x1f\n      add\n      not(0x1f)\n      and\n      0x20\n      add\n      dup3\n      add\n      0x40\n      mstore\n      dup1\n      iszero\n      tag_343\n      jumpi\n      0x20\n      dup3\n      add\n      dup2\n      dup1\n      calldatasize\n      dup4\n      calldatacopy\n      add\n      swap1\n      pop\n    tag_343:\n      pop\n        /* \"@openzeppelin/contracts@4.4.2/utils/Strings.sol\":795:834  bytes memory buffer = new bytes(digits) */\n      swap1\n      pop\n        /* \"@openzeppelin/contracts@4.4.2/utils/Strings.sol\":844:994  while (value != 0) {... */\n    tag_344:\n        /* \"@openzeppelin/contracts@4.4.2/utils/Strings.sol\":851:861  value != 0 */\n      dup5\n      iszero\n        /* \"@openzeppelin/contracts@4.4.2/utils/Strings.sol\":844:994  while (value != 0) {... */\n      tag_300\n      jumpi\n        /* \"@openzeppelin/contracts@4.4.2/utils/Strings.sol\":877:888  digits -= 1 */\n      tag_346\n        /* \"@openzeppelin/contracts@4.4.2/utils/Strings.sol\":887:888  1 */\n      0x01\n        /* \"@openzeppelin/contracts@4.4.2/utils/Strings.sol\":877:888  digits -= 1 */\n      dup4\n      tag_313\n      jump\t// in\n    tag_346:\n      swap2\n      pop\n        /* \"@openzeppelin/contracts@4.4.2/utils/Strings.sol\":945:955  value % 10 */\n      tag_347\n        /* \"@openzeppelin/contracts@4.4.2/utils/Strings.sol\":953:955  10 */\n      0x0a\n        /* \"@openzeppelin/contracts@4.4.2/utils/Strings.sol\":945:950  value */\n      dup7\n        /* \"@openzeppelin/contracts@4.4.2/utils/Strings.sol\":945:955  value % 10 */\n      tag_348\n      jump\t// in\n    tag_347:\n        /* \"@openzeppelin/contracts@4.4.2/utils/Strings.sol\":932:956  48 + uint256(value % 10) */\n      tag_349\n      swap1\n        /* \"@openzeppelin/contracts@4.4.2/utils/Strings.sol\":932:934  48 */\n      0x30\n        /* \"@openzeppelin/contracts@4.4.2/utils/Strings.sol\":932:956  48 + uint256(value % 10) */\n      tag_315\n      jump\t// in\n    tag_349:\n        /* \"@openzeppelin/contracts@4.4.2/utils/Strings.sol\":919:958  bytes1(uint8(48 + uint256(value % 10))) */\n      0xf8\n      shl\n        /* \"@openzeppelin/contracts@4.4.2/utils/Strings.sol\":902:908  buffer */\n      dup2\n        /* \"@openzeppelin/contracts@4.4.2/utils/Strings.sol\":909:915  digits */\n      dup4\n        /* \"@openzeppelin/contracts@4.4.2/utils/Strings.sol\":902:916  buffer[digits] */\n      dup2\n      mload\n      dup2\n      lt\n      tag_351\n      jumpi\n      tag_351\n      tag_197\n      jump\t// in\n    tag_351:\n      0x20\n      add\n      add\n        /* \"@openzeppelin/contracts@4.4.2/utils/Strings.sol\":902:958  buffer[digits] = bytes1(uint8(48 + uint256(value % 10))) */\n      swap1\n      not(sub(shl(0xf8, 0x01), 0x01))\n      and\n      swap1\n      dup2\n      0x00\n      byte\n      swap1\n      mstore8\n      pop\n        /* \"@openzeppelin/contracts@4.4.2/utils/Strings.sol\":972:983  value /= 10 */\n      tag_352\n        /* \"@openzeppelin/contracts@4.4.2/utils/Strings.sol\":981:983  10 */\n      0x0a\n        /* \"@openzeppelin/contracts@4.4.2/utils/Strings.sol\":972:983  value /= 10 */\n      dup7\n      tag_244\n      jump\t// in\n    tag_352:\n      swap5\n      pop\n        /* \"@openzeppelin/contracts@4.4.2/utils/Strings.sol\":844:994  while (value != 0) {... */\n      jump(tag_344)\n        /* \"@openzeppelin/contracts@4.4.2/token/ERC721/ERC721.sol\":1555:1855  function supportsInterface(bytes4 interfaceId) public view virtual override(ERC165, IERC165) returns (bool) {... */\n    tag_286:\n        /* \"@openzeppelin/contracts@4.4.2/token/ERC721/ERC721.sol\":1657:1661  bool */\n      0x00\n      not(sub(shl(0xe0, 0x01), 0x01))\n        /* \"@openzeppelin/contracts@4.4.2/token/ERC721/ERC721.sol\":1692:1732  interfaceId == type(IERC721).interfaceId */\n      dup3\n      and\n      shl(0xe0, 0x80ac58cd)\n      eq\n      dup1\n        /* \"@openzeppelin/contracts@4.4.2/token/ERC721/ERC721.sol\":1692:1796  interfaceId == type(IERC721).interfaceId ||... */\n      tag_354\n      jumpi\n      pop\n      not(sub(shl(0xe0, 0x01), 0x01))\n        /* \"@openzeppelin/contracts@4.4.2/token/ERC721/ERC721.sol\":1748:1796  interfaceId == type(IERC721Metadata).interfaceId */\n      dup3\n      and\n      shl(0xe0, 0x5b5e139f)\n      eq\n        /* \"@openzeppelin/contracts@4.4.2/token/ERC721/ERC721.sol\":1692:1796  interfaceId == type(IERC721).interfaceId ||... */\n    tag_354:\n        /* \"@openzeppelin/contracts@4.4.2/token/ERC721/ERC721.sol\":1692:1848  interfaceId == type(IERC721).interfaceId ||... */\n      dup1\n      tag_134\n      jumpi\n      pop\n      shl(0xe0, 0x01ffc9a7)\n      not(sub(shl(0xe0, 0x01), 0x01))\n        /* \"@openzeppelin/contracts@4.4.2/utils/introspection/ERC165.sol\":937:977  interfaceId == type(IERC165).interfaceId */\n      dup4\n      and\n      eq\n        /* \"@openzeppelin/contracts@4.4.2/token/ERC721/ERC721.sol\":1812:1848  super.supportsInterface(interfaceId) */\n      tag_134\n        /* \"@openzeppelin/contracts@4.4.2/utils/introspection/ERC165.sol\":829:984  function supportsInterface(bytes4 interfaceId) public view virtual override returns (bool) {... */\n      jump\n        /* \"Royelty_ERC-2981_Contract.sol\":1182:1381  function _beforeTokenTransfer(address from, address to, uint256 tokenId)... */\n    tag_310:\n        /* \"Royelty_ERC-2981_Contract.sol\":1329:1374  super._beforeTokenTransfer(from, to, tokenId) */\n      tag_169\n        /* \"Royelty_ERC-2981_Contract.sol\":1356:1360  from */\n      dup4\n        /* \"Royelty_ERC-2981_Contract.sol\":1362:1364  to */\n      dup4\n        /* \"Royelty_ERC-2981_Contract.sol\":1366:1373  tokenId */\n      dup4\n        /* \"Royelty_ERC-2981_Contract.sol\":1329:1355  super._beforeTokenTransfer */\n      tag_360\n        /* \"Royelty_ERC-2981_Contract.sol\":1329:1374  super._beforeTokenTransfer(from, to, tokenId) */\n      jump\t// in\n        /* \"@openzeppelin/contracts@4.4.2/token/ERC721/ERC721.sol\":8430:8741  function _safeMint(... */\n    tag_319:\n        /* \"@openzeppelin/contracts@4.4.2/token/ERC721/ERC721.sol\":8555:8573  _mint(to, tokenId) */\n      tag_362\n        /* \"@openzeppelin/contracts@4.4.2/token/ERC721/ERC721.sol\":8561:8563  to */\n      dup4\n        /* \"@openzeppelin/contracts@4.4.2/token/ERC721/ERC721.sol\":8565:8572  tokenId */\n      dup4\n        /* \"@openzeppelin/contracts@4.4.2/token/ERC721/ERC721.sol\":8555:8560  _mint */\n      tag_363\n        /* \"@openzeppelin/contracts@4.4.2/token/ERC721/ERC721.sol\":8555:8573  _mint(to, tokenId) */\n      jump\t// in\n    tag_362:\n        /* \"@openzeppelin/contracts@4.4.2/token/ERC721/ERC721.sol\":8604:8658  _checkOnERC721Received(address(0), to, tokenId, _data) */\n      tag_364\n        /* \"@openzeppelin/contracts@4.4.2/token/ERC721/ERC721.sol\":8635:8636  0 */\n      0x00\n        /* \"@openzeppelin/contracts@4.4.2/token/ERC721/ERC721.sol\":8639:8641  to */\n      dup5\n        /* \"@openzeppelin/contracts@4.4.2/token/ERC721/ERC721.sol\":8643:8650  tokenId */\n      dup5\n        /* \"@openzeppelin/contracts@4.4.2/token/ERC721/ERC721.sol\":8652:8657  _data */\n      dup5\n        /* \"@openzeppelin/contracts@4.4.2/token/ERC721/ERC721.sol\":8604:8626  _checkOnERC721Received */\n      tag_328\n        /* \"@openzeppelin/contracts@4.4.2/token/ERC721/ERC721.sol\":8604:8658  _checkOnERC721Received(address(0), to, tokenId, _data) */\n      jump\t// in\n    tag_364:\n        /* \"@openzeppelin/contracts@4.4.2/token/ERC721/ERC721.sol\":8583:8734  require(... */\n      tag_169\n      jumpi\n      mload(0x40)\n      shl(0xe5, 0x461bcd)\n      dup2\n      mstore\n      0x04\n      add\n      tag_141\n      swap1\n      tag_331\n      jump\t// in\n        /* \"@openzeppelin/contracts@4.4.2/token/ERC721/ERC721.sol\":12161:12939  function _checkOnERC721Received(... */\n    tag_328:\n        /* \"@openzeppelin/contracts@4.4.2/token/ERC721/ERC721.sol\":12311:12315  bool */\n      0x00\n      sub(shl(0xa0, 0x01), 0x01)\n        /* \"@openzeppelin/contracts@4.4.2/token/ERC721/ERC721.sol\":12331:12344  to.isContract */\n      dup5\n      and\n        /* \"@openzeppelin/contracts@4.4.2/utils/Address.sol\":1087:1107  extcodesize(account) */\n      extcodesize\n        /* \"@openzeppelin/contracts@4.4.2/utils/Address.sol\":1133:1141  size > 0 */\n      iszero\n        /* \"@openzeppelin/contracts@4.4.2/token/ERC721/ERC721.sol\":12327:12933  if (to.isContract()) {... */\n      tag_370\n      jumpi\n        /* \"@openzeppelin/contracts@4.4.2/token/ERC721/ERC721.sol\":12366:12438  IERC721Receiver(to).onERC721Received(_msgSender(), from, tokenId, _data) */\n      mload(0x40)\n      shl(0xe1, 0x0a85bd01)\n      dup2\n      mstore\n      sub(shl(0xa0, 0x01), 0x01)\n        /* \"@openzeppelin/contracts@4.4.2/token/ERC721/ERC721.sol\":12366:12402  IERC721Receiver(to).onERC721Received */\n      dup6\n      and\n      swap1\n      0x150b7a02\n      swap1\n        /* \"@openzeppelin/contracts@4.4.2/token/ERC721/ERC721.sol\":12366:12438  IERC721Receiver(to).onERC721Received(_msgSender(), from, tokenId, _data) */\n      tag_372\n      swap1\n        /* \"@openzeppelin/contracts@4.4.2/utils/Context.sol\":719:729  msg.sender */\n      caller\n      swap1\n        /* \"@openzeppelin/contracts@4.4.2/token/ERC721/ERC721.sol\":12417:12421  from */\n      dup10\n      swap1\n        /* \"@openzeppelin/contracts@4.4.2/token/ERC721/ERC721.sol\":12423:12430  tokenId */\n      dup9\n      swap1\n        /* \"@openzeppelin/contracts@4.4.2/token/ERC721/ERC721.sol\":12432:12437  _data */\n      dup9\n      swap1\n        /* \"@openzeppelin/contracts@4.4.2/token/ERC721/ERC721.sol\":12366:12438  IERC721Receiver(to).onERC721Received(_msgSender(), from, tokenId, _data) */\n      0x04\n      add\n      tag_373\n      jump\t// in\n    tag_372:\n      0x20\n      mload(0x40)\n      dup1\n      dup4\n      sub\n      dup2\n      0x00\n      dup8\n      gas\n      call\n      swap3\n      pop\n      pop\n      pop\n      dup1\n      iszero\n      tag_374\n      jumpi\n      pop\n      0x40\n      dup1\n      mload\n      0x1f\n      returndatasize\n      swap1\n      dup2\n      add\n      not(0x1f)\n      and\n      dup3\n      add\n      swap1\n      swap3\n      mstore\n      tag_375\n      swap2\n      dup2\n      add\n      swap1\n      tag_376\n      jump\t// in\n    tag_375:\n      0x01\n    tag_374:\n        /* \"@openzeppelin/contracts@4.4.2/token/ERC721/ERC721.sol\":12362:12881  try IERC721Receiver(to).onERC721Received(_msgSender(), from, tokenId, _data) returns (bytes4 retval) {... */\n      tag_377\n      jumpi\n      returndatasize\n      dup1\n      dup1\n      iszero\n      tag_382\n      jumpi\n      mload(0x40)\n      swap2\n      pop\n      and(add(returndatasize, 0x3f), not(0x1f))\n      dup3\n      add\n      0x40\n      mstore\n      returndatasize\n      dup3\n      mstore\n      returndatasize\n      0x00\n      0x20\n      dup5\n      add\n      returndatacopy\n      jump(tag_381)\n    tag_382:\n      0x60\n      swap2\n      pop\n    tag_381:\n      pop\n        /* \"@openzeppelin/contracts@4.4.2/token/ERC721/ERC721.sol\":12605:12611  reason */\n      dup1\n        /* \"@openzeppelin/contracts@4.4.2/token/ERC721/ERC721.sol\":12605:12618  reason.length */\n      mload\n        /* \"@openzeppelin/contracts@4.4.2/token/ERC721/ERC721.sol\":12622:12623  0 */\n      0x00\n        /* \"@openzeppelin/contracts@4.4.2/token/ERC721/ERC721.sol\":12605:12623  reason.length == 0 */\n      sub\n        /* \"@openzeppelin/contracts@4.4.2/token/ERC721/ERC721.sol\":12601:12867  if (reason.length == 0) {... */\n      tag_383\n      jumpi\n        /* \"@openzeppelin/contracts@4.4.2/token/ERC721/ERC721.sol\":12647:12707  revert(\"ERC721: transfer to non ERC721Receiver implementer\") */\n      mload(0x40)\n      shl(0xe5, 0x461bcd)\n      dup2\n      mstore\n      0x04\n      add\n      tag_141\n      swap1\n      tag_331\n      jump\t// in\n        /* \"@openzeppelin/contracts@4.4.2/token/ERC721/ERC721.sol\":12601:12867  if (reason.length == 0) {... */\n    tag_383:\n        /* \"@openzeppelin/contracts@4.4.2/token/ERC721/ERC721.sol\":12819:12825  reason */\n      dup1\n        /* \"@openzeppelin/contracts@4.4.2/token/ERC721/ERC721.sol\":12813:12826  mload(reason) */\n      mload\n        /* \"@openzeppelin/contracts@4.4.2/token/ERC721/ERC721.sol\":12804:12810  reason */\n      dup2\n        /* \"@openzeppelin/contracts@4.4.2/token/ERC721/ERC721.sol\":12800:12802  32 */\n      0x20\n        /* \"@openzeppelin/contracts@4.4.2/token/ERC721/ERC721.sol\":12796:12811  add(32, reason) */\n      add\n        /* \"@openzeppelin/contracts@4.4.2/token/ERC721/ERC721.sol\":12789:12827  revert(add(32, reason), mload(reason)) */\n      revert\n        /* \"@openzeppelin/contracts@4.4.2/token/ERC721/ERC721.sol\":12362:12881  try IERC721Receiver(to).onERC721Received(_msgSender(), from, tokenId, _data) returns (bytes4 retval) {... */\n    tag_377:\n      not(sub(shl(0xe0, 0x01), 0x01))\n        /* \"@openzeppelin/contracts@4.4.2/token/ERC721/ERC721.sol\":12488:12539  retval == IERC721Receiver.onERC721Received.selector */\n      and\n      shl(0xe1, 0x0a85bd01)\n      eq\n      swap1\n      pop\n        /* \"@openzeppelin/contracts@4.4.2/token/ERC721/ERC721.sol\":12481:12539  return retval == IERC721Receiver.onERC721Received.selector */\n      jump(tag_300)\n        /* \"@openzeppelin/contracts@4.4.2/token/ERC721/ERC721.sol\":12327:12933  if (to.isContract()) {... */\n    tag_370:\n      pop\n        /* \"@openzeppelin/contracts@4.4.2/token/ERC721/ERC721.sol\":12918:12922  true */\n      0x01\n        /* \"@openzeppelin/contracts@4.4.2/token/ERC721/ERC721.sol\":12161:12939  function _checkOnERC721Received(... */\n      swap5\n      swap4\n      pop\n      pop\n      pop\n      pop\n      jump\t// out\n        /* \"@openzeppelin/contracts@4.4.2/token/ERC721/extensions/ERC721Enumerable.sol\":2624:3196  function _beforeTokenTransfer(... */\n    tag_360:\n      sub(shl(0xa0, 0x01), 0x01)\n        /* \"@openzeppelin/contracts@4.4.2/token/ERC721/extensions/ERC721Enumerable.sol\":2823:2841  from == address(0) */\n      dup4\n      and\n        /* \"@openzeppelin/contracts@4.4.2/token/ERC721/extensions/ERC721Enumerable.sol\":2819:3002  if (from == address(0)) {... */\n      tag_392\n      jumpi\n        /* \"@openzeppelin/contracts@4.4.2/token/ERC721/extensions/ERC721Enumerable.sol\":2857:2897  _addTokenToAllTokensEnumeration(tokenId) */\n      tag_393\n        /* \"@openzeppelin/contracts@4.4.2/token/ERC721/extensions/ERC721Enumerable.sol\":2889:2896  tokenId */\n      dup2\n        /* \"@openzeppelin/contracts@4.4.2/token/ERC721/extensions/ERC721Enumerable.sol\":4005:4015  _allTokens */\n      0x08\n        /* \"@openzeppelin/contracts@4.4.2/token/ERC721/extensions/ERC721Enumerable.sol\":4005:4022  _allTokens.length */\n      dup1\n      sload\n        /* \"@openzeppelin/contracts@4.4.2/token/ERC721/extensions/ERC721Enumerable.sol\":3978:4002  _allTokensIndex[tokenId] */\n      0x00\n      dup4\n      dup2\n      mstore\n        /* \"@openzeppelin/contracts@4.4.2/token/ERC721/extensions/ERC721Enumerable.sol\":3978:3993  _allTokensIndex */\n      0x09\n        /* \"@openzeppelin/contracts@4.4.2/token/ERC721/extensions/ERC721Enumerable.sol\":3978:4002  _allTokensIndex[tokenId] */\n      0x20\n      mstore\n      0x40\n      dup2\n      keccak256\n        /* \"@openzeppelin/contracts@4.4.2/token/ERC721/extensions/ERC721Enumerable.sol\":3978:4022  _allTokensIndex[tokenId] = _allTokens.length */\n      dup3\n      swap1\n      sstore\n        /* \"@openzeppelin/contracts@4.4.2/token/ERC721/extensions/ERC721Enumerable.sol\":4032:4056  _allTokens.push(tokenId) */\n      0x01\n      dup3\n      add\n      dup4\n      sstore\n      swap2\n      swap1\n      swap2\n      mstore\n      0xf3f7a9fe364faab93b216da50a3214154f22a0a2b415b23a84c8169e8b636ee3\n      add\n      sstore\n        /* \"@openzeppelin/contracts@4.4.2/token/ERC721/extensions/ERC721Enumerable.sol\":3902:4063  function _addTokenToAllTokensEnumeration(uint256 tokenId) private {... */\n      jump\n        /* \"@openzeppelin/contracts@4.4.2/token/ERC721/extensions/ERC721Enumerable.sol\":2857:2897  _addTokenToAllTokensEnumeration(tokenId) */\n    tag_393:\n        /* \"@openzeppelin/contracts@4.4.2/token/ERC721/extensions/ERC721Enumerable.sol\":2819:3002  if (from == address(0)) {... */\n      jump(tag_397)\n    tag_392:\n        /* \"@openzeppelin/contracts@4.4.2/token/ERC721/extensions/ERC721Enumerable.sol\":2926:2928  to */\n      dup2\n      sub(shl(0xa0, 0x01), 0x01)\n        /* \"@openzeppelin/contracts@4.4.2/token/ERC721/extensions/ERC721Enumerable.sol\":2918:2928  from != to */\n      and\n        /* \"@openzeppelin/contracts@4.4.2/token/ERC721/extensions/ERC721Enumerable.sol\":2918:2922  from */\n      dup4\n      sub(shl(0xa0, 0x01), 0x01)\n        /* \"@openzeppelin/contracts@4.4.2/token/ERC721/extensions/ERC721Enumerable.sol\":2918:2928  from != to */\n      and\n      eq\n        /* \"@openzeppelin/contracts@4.4.2/token/ERC721/extensions/ERC721Enumerable.sol\":2914:3002  if (from != to) {... */\n      tag_397\n      jumpi\n        /* \"@openzeppelin/contracts@4.4.2/token/ERC721/extensions/ERC721Enumerable.sol\":2944:2991  _removeTokenFromOwnerEnumeration(from, tokenId) */\n      tag_397\n        /* \"@openzeppelin/contracts@4.4.2/token/ERC721/extensions/ERC721Enumerable.sol\":2977:2981  from */\n      dup4\n        /* \"@openzeppelin/contracts@4.4.2/token/ERC721/extensions/ERC721Enumerable.sol\":2983:2990  tokenId */\n      dup3\n        /* \"@openzeppelin/contracts@4.4.2/token/ERC721/extensions/ERC721Enumerable.sol\":2944:2976  _removeTokenFromOwnerEnumeration */\n      tag_398\n        /* \"@openzeppelin/contracts@4.4.2/token/ERC721/extensions/ERC721Enumerable.sol\":2944:2991  _removeTokenFromOwnerEnumeration(from, tokenId) */\n      jump\t// in\n    tag_397:\n      sub(shl(0xa0, 0x01), 0x01)\n        /* \"@openzeppelin/contracts@4.4.2/token/ERC721/extensions/ERC721Enumerable.sol\":3015:3031  to == address(0) */\n      dup3\n      and\n        /* \"@openzeppelin/contracts@4.4.2/token/ERC721/extensions/ERC721Enumerable.sol\":3011:3190  if (to == address(0)) {... */\n      tag_399\n      jumpi\n        /* \"@openzeppelin/contracts@4.4.2/token/ERC721/extensions/ERC721Enumerable.sol\":3047:3092  _removeTokenFromAllTokensEnumeration(tokenId) */\n      tag_169\n        /* \"@openzeppelin/contracts@4.4.2/token/ERC721/extensions/ERC721Enumerable.sol\":3084:3091  tokenId */\n      dup2\n        /* \"@openzeppelin/contracts@4.4.2/token/ERC721/extensions/ERC721Enumerable.sol\":3047:3083  _removeTokenFromAllTokensEnumeration */\n      tag_401\n        /* \"@openzeppelin/contracts@4.4.2/token/ERC721/extensions/ERC721Enumerable.sol\":3047:3092  _removeTokenFromAllTokensEnumeration(tokenId) */\n      jump\t// in\n        /* \"@openzeppelin/contracts@4.4.2/token/ERC721/extensions/ERC721Enumerable.sol\":3011:3190  if (to == address(0)) {... */\n    tag_399:\n        /* \"@openzeppelin/contracts@4.4.2/token/ERC721/extensions/ERC721Enumerable.sol\":3119:3123  from */\n      dup3\n      sub(shl(0xa0, 0x01), 0x01)\n        /* \"@openzeppelin/contracts@4.4.2/token/ERC721/extensions/ERC721Enumerable.sol\":3113:3123  to != from */\n      and\n        /* \"@openzeppelin/contracts@4.4.2/token/ERC721/extensions/ERC721Enumerable.sol\":3113:3115  to */\n      dup3\n      sub(shl(0xa0, 0x01), 0x01)\n        /* \"@openzeppelin/contracts@4.4.2/token/ERC721/extensions/ERC721Enumerable.sol\":3113:3123  to != from */\n      and\n      eq\n        /* \"@openzeppelin/contracts@4.4.2/token/ERC721/extensions/ERC721Enumerable.sol\":3109:3190  if (to != from) {... */\n      tag_169\n      jumpi\n        /* \"@openzeppelin/contracts@4.4.2/token/ERC721/extensions/ERC721Enumerable.sol\":3139:3179  _addTokenToOwnerEnumeration(to, tokenId) */\n      tag_169\n        /* \"@openzeppelin/contracts@4.4.2/token/ERC721/extensions/ERC721Enumerable.sol\":3167:3169  to */\n      dup3\n        /* \"@openzeppelin/contracts@4.4.2/token/ERC721/extensions/ERC721Enumerable.sol\":3171:3178  tokenId */\n      dup3\n        /* \"@openzeppelin/contracts@4.4.2/token/ERC721/extensions/ERC721Enumerable.sol\":3139:3166  _addTokenToOwnerEnumeration */\n      tag_405\n        /* \"@openzeppelin/contracts@4.4.2/token/ERC721/extensions/ERC721Enumerable.sol\":3139:3179  _addTokenToOwnerEnumeration(to, tokenId) */\n      jump\t// in\n        /* \"@openzeppelin/contracts@4.4.2/token/ERC721/ERC721.sol\":9063:9435  function _mint(address to, uint256 tokenId) internal virtual {... */\n    tag_363:\n      sub(shl(0xa0, 0x01), 0x01)\n        /* \"@openzeppelin/contracts@4.4.2/token/ERC721/ERC721.sol\":9142:9158  to != address(0) */\n      dup3\n      and\n        /* \"@openzeppelin/contracts@4.4.2/token/ERC721/ERC721.sol\":9134:9195  require(to != address(0), \"ERC721: mint to the zero address\") */\n      tag_407\n      jumpi\n      mload(0x40)\n      shl(0xe5, 0x461bcd)\n      dup2\n      mstore\n        /* \"#utility.yul\":17873:17875   */\n      0x20\n        /* \"@openzeppelin/contracts@4.4.2/token/ERC721/ERC721.sol\":9134:9195  require(to != address(0), \"ERC721: mint to the zero address\") */\n      0x04\n      dup3\n      add\n        /* \"#utility.yul\":17855:17876   */\n      dup2\n      swap1\n      mstore\n        /* \"#utility.yul\":17892:17910   */\n      0x24\n      dup3\n      add\n        /* \"#utility.yul\":17885:17915   */\n      mstore\n        /* \"#utility.yul\":17951:17985   */\n      0x4552433732313a206d696e7420746f20746865207a65726f2061646472657373\n        /* \"#utility.yul\":17931:17949   */\n      0x44\n      dup3\n      add\n        /* \"#utility.yul\":17924:17986   */\n      mstore\n        /* \"#utility.yul\":18003:18021   */\n      0x64\n      add\n        /* \"@openzeppelin/contracts@4.4.2/token/ERC721/ERC721.sol\":9134:9195  require(to != address(0), \"ERC721: mint to the zero address\") */\n      tag_141\n        /* \"#utility.yul\":17671:18027   */\n      jump\n        /* \"@openzeppelin/contracts@4.4.2/token/ERC721/ERC721.sol\":9134:9195  require(to != address(0), \"ERC721: mint to the zero address\") */\n    tag_407:\n        /* \"@openzeppelin/contracts@4.4.2/token/ERC721/ERC721.sol\":7209:7213  bool */\n      0x00\n        /* \"@openzeppelin/contracts@4.4.2/token/ERC721/ERC721.sol\":7232:7248  _owners[tokenId] */\n      dup2\n      dup2\n      mstore\n        /* \"@openzeppelin/contracts@4.4.2/token/ERC721/ERC721.sol\":7232:7239  _owners */\n      0x02\n        /* \"@openzeppelin/contracts@4.4.2/token/ERC721/ERC721.sol\":7232:7248  _owners[tokenId] */\n      0x20\n      mstore\n      0x40\n      swap1\n      keccak256\n      sload\n      sub(shl(0xa0, 0x01), 0x01)\n      and\n        /* \"@openzeppelin/contracts@4.4.2/token/ERC721/ERC721.sol\":7232:7262  _owners[tokenId] != address(0) */\n      iszero\n        /* \"@openzeppelin/contracts@4.4.2/token/ERC721/ERC721.sol\":9205:9263  require(!_exists(tokenId), \"ERC721: token already minted\") */\n      tag_411\n      jumpi\n      mload(0x40)\n      shl(0xe5, 0x461bcd)\n      dup2\n      mstore\n        /* \"#utility.yul\":18234:18236   */\n      0x20\n        /* \"@openzeppelin/contracts@4.4.2/token/ERC721/ERC721.sol\":9205:9263  require(!_exists(tokenId), \"ERC721: token already minted\") */\n      0x04\n      dup3\n      add\n        /* \"#utility.yul\":18216:18237   */\n      mstore\n        /* \"#utility.yul\":18273:18275   */\n      0x1c\n        /* \"#utility.yul\":18253:18271   */\n      0x24\n      dup3\n      add\n        /* \"#utility.yul\":18246:18276   */\n      mstore\n        /* \"#utility.yul\":18312:18342   */\n      0x4552433732313a20746f6b656e20616c7265616479206d696e74656400000000\n        /* \"#utility.yul\":18292:18310   */\n      0x44\n      dup3\n      add\n        /* \"#utility.yul\":18285:18343   */\n      mstore\n        /* \"#utility.yul\":18360:18378   */\n      0x64\n      add\n        /* \"@openzeppelin/contracts@4.4.2/token/ERC721/ERC721.sol\":9205:9263  require(!_exists(tokenId), \"ERC721: token already minted\") */\n      tag_141\n        /* \"#utility.yul\":18032:18384   */\n      jump\n        /* \"@openzeppelin/contracts@4.4.2/token/ERC721/ERC721.sol\":9205:9263  require(!_exists(tokenId), \"ERC721: token already minted\") */\n    tag_411:\n        /* \"@openzeppelin/contracts@4.4.2/token/ERC721/ERC721.sol\":9274:9319  _beforeTokenTransfer(address(0), to, tokenId) */\n      tag_414\n        /* \"@openzeppelin/contracts@4.4.2/token/ERC721/ERC721.sol\":9303:9304  0 */\n      0x00\n        /* \"@openzeppelin/contracts@4.4.2/token/ERC721/ERC721.sol\":9307:9309  to */\n      dup4\n        /* \"@openzeppelin/contracts@4.4.2/token/ERC721/ERC721.sol\":9311:9318  tokenId */\n      dup4\n        /* \"@openzeppelin/contracts@4.4.2/token/ERC721/ERC721.sol\":9274:9294  _beforeTokenTransfer */\n      tag_310\n        /* \"@openzeppelin/contracts@4.4.2/token/ERC721/ERC721.sol\":9274:9319  _beforeTokenTransfer(address(0), to, tokenId) */\n      jump\t// in\n    tag_414:\n      sub(shl(0xa0, 0x01), 0x01)\n        /* \"@openzeppelin/contracts@4.4.2/token/ERC721/ERC721.sol\":9330:9343  _balances[to] */\n      dup3\n      and\n      0x00\n      swap1\n      dup2\n      mstore\n        /* \"@openzeppelin/contracts@4.4.2/token/ERC721/ERC721.sol\":9330:9339  _balances */\n      0x03\n        /* \"@openzeppelin/contracts@4.4.2/token/ERC721/ERC721.sol\":9330:9343  _balances[to] */\n      0x20\n      mstore\n      0x40\n      dup2\n      keccak256\n        /* \"@openzeppelin/contracts@4.4.2/token/ERC721/ERC721.sol\":9330:9348  _balances[to] += 1 */\n      dup1\n      sload\n        /* \"@openzeppelin/contracts@4.4.2/token/ERC721/ERC721.sol\":9347:9348  1 */\n      0x01\n      swap3\n        /* \"@openzeppelin/contracts@4.4.2/token/ERC721/ERC721.sol\":9330:9343  _balances[to] */\n      swap1\n        /* \"@openzeppelin/contracts@4.4.2/token/ERC721/ERC721.sol\":9330:9348  _balances[to] += 1 */\n      tag_415\n      swap1\n        /* \"@openzeppelin/contracts@4.4.2/token/ERC721/ERC721.sol\":9347:9348  1 */\n      dup5\n      swap1\n        /* \"@openzeppelin/contracts@4.4.2/token/ERC721/ERC721.sol\":9330:9348  _balances[to] += 1 */\n      tag_315\n      jump\t// in\n    tag_415:\n      swap1\n      swap2\n      sstore\n      pop\n      pop\n        /* \"@openzeppelin/contracts@4.4.2/token/ERC721/ERC721.sol\":9358:9374  _owners[tokenId] */\n      0x00\n      dup2\n      dup2\n      mstore\n        /* \"@openzeppelin/contracts@4.4.2/token/ERC721/ERC721.sol\":9358:9365  _owners */\n      0x02\n        /* \"@openzeppelin/contracts@4.4.2/token/ERC721/ERC721.sol\":9358:9374  _owners[tokenId] */\n      0x20\n      mstore\n      0x40\n      dup1\n      dup3\n      keccak256\n        /* \"@openzeppelin/contracts@4.4.2/token/ERC721/ERC721.sol\":9358:9379  _owners[tokenId] = to */\n      dup1\n      sload\n      not(sub(shl(0xa0, 0x01), 0x01))\n      and\n      sub(shl(0xa0, 0x01), 0x01)\n      dup7\n      and\n      swap1\n      dup2\n      or\n      swap1\n      swap2\n      sstore\n        /* \"@openzeppelin/contracts@4.4.2/token/ERC721/ERC721.sol\":9395:9428  Transfer(address(0), to, tokenId) */\n      swap1\n      mload\n        /* \"@openzeppelin/contracts@4.4.2/token/ERC721/ERC721.sol\":9358:9374  _owners[tokenId] */\n      dup4\n      swap3\n      swap1\n        /* \"@openzeppelin/contracts@4.4.2/token/ERC721/ERC721.sol\":9395:9428  Transfer(address(0), to, tokenId) */\n      0xddf252ad1be2c89b69c2b068fc378daa952ba7f163c4a11628f55a4df523b3ef\n      swap1\n        /* \"@openzeppelin/contracts@4.4.2/token/ERC721/ERC721.sol\":9358:9374  _owners[tokenId] */\n      dup3\n      swap1\n        /* \"@openzeppelin/contracts@4.4.2/token/ERC721/ERC721.sol\":9395:9428  Transfer(address(0), to, tokenId) */\n      log4\n        /* \"@openzeppelin/contracts@4.4.2/token/ERC721/ERC721.sol\":9063:9435  function _mint(address to, uint256 tokenId) internal virtual {... */\n      pop\n      pop\n      jump\t// out\n        /* \"@openzeppelin/contracts@4.4.2/token/ERC721/extensions/ERC721Enumerable.sol\":4680:5650  function _removeTokenFromOwnerEnumeration(address from, uint256 tokenId) private {... */\n    tag_398:\n        /* \"@openzeppelin/contracts@4.4.2/token/ERC721/extensions/ERC721Enumerable.sol\":4942:4964  uint256 lastTokenIndex */\n      0x00\n        /* \"@openzeppelin/contracts@4.4.2/token/ERC721/extensions/ERC721Enumerable.sol\":4992:4993  1 */\n      0x01\n        /* \"@openzeppelin/contracts@4.4.2/token/ERC721/extensions/ERC721Enumerable.sol\":4967:4989  ERC721.balanceOf(from) */\n      tag_421\n        /* \"@openzeppelin/contracts@4.4.2/token/ERC721/extensions/ERC721Enumerable.sol\":4984:4988  from */\n      dup5\n        /* \"@openzeppelin/contracts@4.4.2/token/ERC721/extensions/ERC721Enumerable.sol\":4967:4983  ERC721.balanceOf */\n      tag_88\n        /* \"@openzeppelin/contracts@4.4.2/token/ERC721/extensions/ERC721Enumerable.sol\":4967:4989  ERC721.balanceOf(from) */\n      jump\t// in\n    tag_421:\n        /* \"@openzeppelin/contracts@4.4.2/token/ERC721/extensions/ERC721Enumerable.sol\":4967:4993  ERC721.balanceOf(from) - 1 */\n      tag_422\n      swap2\n      swap1\n      tag_313\n      jump\t// in\n    tag_422:\n        /* \"@openzeppelin/contracts@4.4.2/token/ERC721/extensions/ERC721Enumerable.sol\":5003:5021  uint256 tokenIndex */\n      0x00\n        /* \"@openzeppelin/contracts@4.4.2/token/ERC721/extensions/ERC721Enumerable.sol\":5024:5050  _ownedTokensIndex[tokenId] */\n      dup4\n      dup2\n      mstore\n        /* \"@openzeppelin/contracts@4.4.2/token/ERC721/extensions/ERC721Enumerable.sol\":5024:5041  _ownedTokensIndex */\n      0x07\n        /* \"@openzeppelin/contracts@4.4.2/token/ERC721/extensions/ERC721Enumerable.sol\":5024:5050  _ownedTokensIndex[tokenId] */\n      0x20\n      mstore\n      0x40\n      swap1\n      keccak256\n      sload\n        /* \"@openzeppelin/contracts@4.4.2/token/ERC721/extensions/ERC721Enumerable.sol\":4942:4993  uint256 lastTokenIndex = ERC721.balanceOf(from) - 1 */\n      swap1\n      swap2\n      pop\n        /* \"@openzeppelin/contracts@4.4.2/token/ERC721/extensions/ERC721Enumerable.sol\":5154:5182  tokenIndex != lastTokenIndex */\n      dup1\n      dup3\n      eq\n        /* \"@openzeppelin/contracts@4.4.2/token/ERC721/extensions/ERC721Enumerable.sol\":5150:5473  if (tokenIndex != lastTokenIndex) {... */\n      tag_423\n      jumpi\n      sub(shl(0xa0, 0x01), 0x01)\n        /* \"@openzeppelin/contracts@4.4.2/token/ERC721/extensions/ERC721Enumerable.sol\":5220:5238  _ownedTokens[from] */\n      dup5\n      and\n        /* \"@openzeppelin/contracts@4.4.2/token/ERC721/extensions/ERC721Enumerable.sol\":5198:5217  uint256 lastTokenId */\n      0x00\n        /* \"@openzeppelin/contracts@4.4.2/token/ERC721/extensions/ERC721Enumerable.sol\":5220:5238  _ownedTokens[from] */\n      swap1\n      dup2\n      mstore\n        /* \"@openzeppelin/contracts@4.4.2/token/ERC721/extensions/ERC721Enumerable.sol\":5220:5232  _ownedTokens */\n      0x06\n        /* \"@openzeppelin/contracts@4.4.2/token/ERC721/extensions/ERC721Enumerable.sol\":5220:5238  _ownedTokens[from] */\n      0x20\n      swap1\n      dup2\n      mstore\n      0x40\n      dup1\n      dup4\n      keccak256\n        /* \"@openzeppelin/contracts@4.4.2/token/ERC721/extensions/ERC721Enumerable.sol\":5220:5254  _ownedTokens[from][lastTokenIndex] */\n      dup6\n      dup5\n      mstore\n      dup3\n      mstore\n      dup1\n      dup4\n      keccak256\n      sload\n        /* \"@openzeppelin/contracts@4.4.2/token/ERC721/extensions/ERC721Enumerable.sol\":5269:5299  _ownedTokens[from][tokenIndex] */\n      dup5\n      dup5\n      mstore\n      dup2\n      dup5\n      keccak256\n        /* \"@openzeppelin/contracts@4.4.2/token/ERC721/extensions/ERC721Enumerable.sol\":5269:5313  _ownedTokens[from][tokenIndex] = lastTokenId */\n      dup2\n      swap1\n      sstore\n        /* \"@openzeppelin/contracts@4.4.2/token/ERC721/extensions/ERC721Enumerable.sol\":5385:5415  _ownedTokensIndex[lastTokenId] */\n      dup4\n      mstore\n        /* \"@openzeppelin/contracts@4.4.2/token/ERC721/extensions/ERC721Enumerable.sol\":5385:5402  _ownedTokensIndex */\n      0x07\n        /* \"@openzeppelin/contracts@4.4.2/token/ERC721/extensions/ERC721Enumerable.sol\":5385:5415  _ownedTokensIndex[lastTokenId] */\n      swap1\n      swap2\n      mstore\n      swap1\n      keccak256\n        /* \"@openzeppelin/contracts@4.4.2/token/ERC721/extensions/ERC721Enumerable.sol\":5385:5428  _ownedTokensIndex[lastTokenId] = tokenIndex */\n      dup2\n      swap1\n      sstore\n        /* \"@openzeppelin/contracts@4.4.2/token/ERC721/extensions/ERC721Enumerable.sol\":5150:5473  if (tokenIndex != lastTokenIndex) {... */\n    tag_423:\n      pop\n        /* \"@openzeppelin/contracts@4.4.2/token/ERC721/extensions/ERC721Enumerable.sol\":5566:5592  _ownedTokensIndex[tokenId] */\n      0x00\n      swap2\n      dup3\n      mstore\n        /* \"@openzeppelin/contracts@4.4.2/token/ERC721/extensions/ERC721Enumerable.sol\":5566:5583  _ownedTokensIndex */\n      0x07\n        /* \"@openzeppelin/contracts@4.4.2/token/ERC721/extensions/ERC721Enumerable.sol\":5566:5592  _ownedTokensIndex[tokenId] */\n      0x20\n      swap1\n      dup2\n      mstore\n      0x40\n      dup1\n      dup5\n      keccak256\n        /* \"@openzeppelin/contracts@4.4.2/token/ERC721/extensions/ERC721Enumerable.sol\":5559:5592  delete _ownedTokensIndex[tokenId] */\n      dup5\n      swap1\n      sstore\n      sub(shl(0xa0, 0x01), 0x01)\n        /* \"@openzeppelin/contracts@4.4.2/token/ERC721/extensions/ERC721Enumerable.sol\":5609:5627  _ownedTokens[from] */\n      swap1\n      swap5\n      and\n      dup4\n      mstore\n        /* \"@openzeppelin/contracts@4.4.2/token/ERC721/extensions/ERC721Enumerable.sol\":5609:5621  _ownedTokens */\n      0x06\n        /* \"@openzeppelin/contracts@4.4.2/token/ERC721/extensions/ERC721Enumerable.sol\":5609:5627  _ownedTokens[from] */\n      dup2\n      mstore\n      dup4\n      dup4\n      keccak256\n        /* \"@openzeppelin/contracts@4.4.2/token/ERC721/extensions/ERC721Enumerable.sol\":5609:5643  _ownedTokens[from][lastTokenIndex] */\n      swap2\n      dup4\n      mstore\n      mstore\n      swap1\n      dup2\n      keccak256\n        /* \"@openzeppelin/contracts@4.4.2/token/ERC721/extensions/ERC721Enumerable.sol\":5602:5643  delete _ownedTokens[from][lastTokenIndex] */\n      sstore\n        /* \"@openzeppelin/contracts@4.4.2/token/ERC721/extensions/ERC721Enumerable.sol\":4680:5650  function _removeTokenFromOwnerEnumeration(address from, uint256 tokenId) private {... */\n      jump\t// out\n        /* \"@openzeppelin/contracts@4.4.2/token/ERC721/extensions/ERC721Enumerable.sol\":5938:6999  function _removeTokenFromAllTokensEnumeration(uint256 tokenId) private {... */\n    tag_401:\n        /* \"@openzeppelin/contracts@4.4.2/token/ERC721/extensions/ERC721Enumerable.sol\":6212:6222  _allTokens */\n      0x08\n        /* \"@openzeppelin/contracts@4.4.2/token/ERC721/extensions/ERC721Enumerable.sol\":6212:6229  _allTokens.length */\n      sload\n        /* \"@openzeppelin/contracts@4.4.2/token/ERC721/extensions/ERC721Enumerable.sol\":6187:6209  uint256 lastTokenIndex */\n      0x00\n      swap1\n        /* \"@openzeppelin/contracts@4.4.2/token/ERC721/extensions/ERC721Enumerable.sol\":6212:6233  _allTokens.length - 1 */\n      tag_425\n      swap1\n        /* \"@openzeppelin/contracts@4.4.2/token/ERC721/extensions/ERC721Enumerable.sol\":6232:6233  1 */\n      0x01\n      swap1\n        /* \"@openzeppelin/contracts@4.4.2/token/ERC721/extensions/ERC721Enumerable.sol\":6212:6233  _allTokens.length - 1 */\n      tag_313\n      jump\t// in\n    tag_425:\n        /* \"@openzeppelin/contracts@4.4.2/token/ERC721/extensions/ERC721Enumerable.sol\":6243:6261  uint256 tokenIndex */\n      0x00\n        /* \"@openzeppelin/contracts@4.4.2/token/ERC721/extensions/ERC721Enumerable.sol\":6264:6288  _allTokensIndex[tokenId] */\n      dup4\n      dup2\n      mstore\n        /* \"@openzeppelin/contracts@4.4.2/token/ERC721/extensions/ERC721Enumerable.sol\":6264:6279  _allTokensIndex */\n      0x09\n        /* \"@openzeppelin/contracts@4.4.2/token/ERC721/extensions/ERC721Enumerable.sol\":6264:6288  _allTokensIndex[tokenId] */\n      0x20\n      mstore\n      0x40\n      dup2\n      keccak256\n      sload\n        /* \"@openzeppelin/contracts@4.4.2/token/ERC721/extensions/ERC721Enumerable.sol\":6632:6642  _allTokens */\n      0x08\n        /* \"@openzeppelin/contracts@4.4.2/token/ERC721/extensions/ERC721Enumerable.sol\":6632:6658  _allTokens[lastTokenIndex] */\n      dup1\n      sload\n        /* \"@openzeppelin/contracts@4.4.2/token/ERC721/extensions/ERC721Enumerable.sol\":6187:6233  uint256 lastTokenIndex = _allTokens.length - 1 */\n      swap4\n      swap5\n      pop\n        /* \"@openzeppelin/contracts@4.4.2/token/ERC721/extensions/ERC721Enumerable.sol\":6264:6288  _allTokensIndex[tokenId] */\n      swap1\n      swap3\n        /* \"@openzeppelin/contracts@4.4.2/token/ERC721/extensions/ERC721Enumerable.sol\":6187:6233  uint256 lastTokenIndex = _allTokens.length - 1 */\n      dup5\n      swap1\n        /* \"@openzeppelin/contracts@4.4.2/token/ERC721/extensions/ERC721Enumerable.sol\":6632:6658  _allTokens[lastTokenIndex] */\n      dup2\n      lt\n      tag_427\n      jumpi\n      tag_427\n      tag_197\n      jump\t// in\n    tag_427:\n      swap1\n      0x00\n      mstore\n      keccak256(0x00, 0x20)\n      add\n      sload\n        /* \"@openzeppelin/contracts@4.4.2/token/ERC721/extensions/ERC721Enumerable.sol\":6610:6658  uint256 lastTokenId = _allTokens[lastTokenIndex] */\n      swap1\n      pop\n        /* \"@openzeppelin/contracts@4.4.2/token/ERC721/extensions/ERC721Enumerable.sol\":6694:6705  lastTokenId */\n      dup1\n        /* \"@openzeppelin/contracts@4.4.2/token/ERC721/extensions/ERC721Enumerable.sol\":6669:6679  _allTokens */\n      0x08\n        /* \"@openzeppelin/contracts@4.4.2/token/ERC721/extensions/ERC721Enumerable.sol\":6680:6690  tokenIndex */\n      dup4\n        /* \"@openzeppelin/contracts@4.4.2/token/ERC721/extensions/ERC721Enumerable.sol\":6669:6691  _allTokens[tokenIndex] */\n      dup2\n      sload\n      dup2\n      lt\n      tag_430\n      jumpi\n      tag_430\n      tag_197\n      jump\t// in\n    tag_430:\n      0x00\n      swap2\n      dup3\n      mstore\n      0x20\n      dup1\n      dup4\n      keccak256\n      swap1\n      swap2\n      add\n        /* \"@openzeppelin/contracts@4.4.2/token/ERC721/extensions/ERC721Enumerable.sol\":6669:6705  _allTokens[tokenIndex] = lastTokenId */\n      swap3\n      swap1\n      swap3\n      sstore\n        /* \"@openzeppelin/contracts@4.4.2/token/ERC721/extensions/ERC721Enumerable.sol\":6773:6801  _allTokensIndex[lastTokenId] */\n      dup3\n      dup2\n      mstore\n        /* \"@openzeppelin/contracts@4.4.2/token/ERC721/extensions/ERC721Enumerable.sol\":6773:6788  _allTokensIndex */\n      0x09\n        /* \"@openzeppelin/contracts@4.4.2/token/ERC721/extensions/ERC721Enumerable.sol\":6773:6801  _allTokensIndex[lastTokenId] */\n      swap1\n      swap2\n      mstore\n      0x40\n      dup1\n      dup3\n      keccak256\n        /* \"@openzeppelin/contracts@4.4.2/token/ERC721/extensions/ERC721Enumerable.sol\":6773:6814  _allTokensIndex[lastTokenId] = tokenIndex */\n      dup5\n      swap1\n      sstore\n        /* \"@openzeppelin/contracts@4.4.2/token/ERC721/extensions/ERC721Enumerable.sol\":6942:6966  _allTokensIndex[tokenId] */\n      dup6\n      dup3\n      mstore\n      dup2\n      keccak256\n        /* \"@openzeppelin/contracts@4.4.2/token/ERC721/extensions/ERC721Enumerable.sol\":6935:6966  delete _allTokensIndex[tokenId] */\n      sstore\n        /* \"@openzeppelin/contracts@4.4.2/token/ERC721/extensions/ERC721Enumerable.sol\":6976:6986  _allTokens */\n      0x08\n        /* \"@openzeppelin/contracts@4.4.2/token/ERC721/extensions/ERC721Enumerable.sol\":6976:6992  _allTokens.pop() */\n      dup1\n      sload\n      dup1\n      tag_433\n      jumpi\n      tag_433\n      tag_434\n      jump\t// in\n    tag_433:\n      0x01\n      swap1\n      sub\n      dup2\n      dup2\n      swap1\n      0x00\n      mstore\n      keccak256(0x00, 0x20)\n      add\n      0x00\n      swap1\n      sstore\n      swap1\n      sstore\n        /* \"@openzeppelin/contracts@4.4.2/token/ERC721/extensions/ERC721Enumerable.sol\":6009:6999  {... */\n      pop\n      pop\n      pop\n        /* \"@openzeppelin/contracts@4.4.2/token/ERC721/extensions/ERC721Enumerable.sol\":5938:6999  function _removeTokenFromAllTokensEnumeration(uint256 tokenId) private {... */\n      pop\n      jump\t// out\n        /* \"@openzeppelin/contracts@4.4.2/token/ERC721/extensions/ERC721Enumerable.sol\":3490:3707  function _addTokenToOwnerEnumeration(address to, uint256 tokenId) private {... */\n    tag_405:\n        /* \"@openzeppelin/contracts@4.4.2/token/ERC721/extensions/ERC721Enumerable.sol\":3574:3588  uint256 length */\n      0x00\n        /* \"@openzeppelin/contracts@4.4.2/token/ERC721/extensions/ERC721Enumerable.sol\":3591:3611  ERC721.balanceOf(to) */\n      tag_437\n        /* \"@openzeppelin/contracts@4.4.2/token/ERC721/extensions/ERC721Enumerable.sol\":3608:3610  to */\n      dup4\n        /* \"@openzeppelin/contracts@4.4.2/token/ERC721/extensions/ERC721Enumerable.sol\":3591:3607  ERC721.balanceOf */\n      tag_88\n        /* \"@openzeppelin/contracts@4.4.2/token/ERC721/extensions/ERC721Enumerable.sol\":3591:3611  ERC721.balanceOf(to) */\n      jump\t// in\n    tag_437:\n      sub(shl(0xa0, 0x01), 0x01)\n        /* \"@openzeppelin/contracts@4.4.2/token/ERC721/extensions/ERC721Enumerable.sol\":3621:3637  _ownedTokens[to] */\n      swap1\n      swap4\n      and\n      0x00\n      swap1\n      dup2\n      mstore\n        /* \"@openzeppelin/contracts@4.4.2/token/ERC721/extensions/ERC721Enumerable.sol\":3621:3633  _ownedTokens */\n      0x06\n        /* \"@openzeppelin/contracts@4.4.2/token/ERC721/extensions/ERC721Enumerable.sol\":3621:3637  _ownedTokens[to] */\n      0x20\n      swap1\n      dup2\n      mstore\n      0x40\n      dup1\n      dup4\n      keccak256\n        /* \"@openzeppelin/contracts@4.4.2/token/ERC721/extensions/ERC721Enumerable.sol\":3621:3645  _ownedTokens[to][length] */\n      dup7\n      dup5\n      mstore\n      dup3\n      mstore\n      dup1\n      dup4\n      keccak256\n        /* \"@openzeppelin/contracts@4.4.2/token/ERC721/extensions/ERC721Enumerable.sol\":3621:3655  _ownedTokens[to][length] = tokenId */\n      dup6\n      swap1\n      sstore\n        /* \"@openzeppelin/contracts@4.4.2/token/ERC721/extensions/ERC721Enumerable.sol\":3665:3691  _ownedTokensIndex[tokenId] */\n      swap4\n      dup3\n      mstore\n        /* \"@openzeppelin/contracts@4.4.2/token/ERC721/extensions/ERC721Enumerable.sol\":3665:3682  _ownedTokensIndex */\n      0x07\n        /* \"@openzeppelin/contracts@4.4.2/token/ERC721/extensions/ERC721Enumerable.sol\":3665:3691  _ownedTokensIndex[tokenId] */\n      swap1\n      mstore\n      swap2\n      swap1\n      swap2\n      keccak256\n        /* \"@openzeppelin/contracts@4.4.2/token/ERC721/extensions/ERC721Enumerable.sol\":3665:3700  _ownedTokensIndex[tokenId] = length */\n      swap2\n      swap1\n      swap2\n      sstore\n      pop\n        /* \"@openzeppelin/contracts@4.4.2/token/ERC721/extensions/ERC721Enumerable.sol\":3490:3707  function _addTokenToOwnerEnumeration(address to, uint256 tokenId) private {... */\n      jump\t// out\n        /* \"#utility.yul\":14:145   */\n    tag_438:\n      not(sub(shl(0xe0, 0x01), 0x01))\n        /* \"#utility.yul\":88:120   */\n      dup2\n      and\n        /* \"#utility.yul\":78:121   */\n      dup2\n      eq\n        /* \"#utility.yul\":68:139   */\n      tag_282\n      jumpi\n        /* \"#utility.yul\":135:136   */\n      0x00\n        /* \"#utility.yul\":132:133   */\n      dup1\n        /* \"#utility.yul\":125:137   */\n      revert\n        /* \"#utility.yul\":150:395   */\n    tag_34:\n        /* \"#utility.yul\":208:214   */\n      0x00\n        /* \"#utility.yul\":261:263   */\n      0x20\n        /* \"#utility.yul\":249:258   */\n      dup3\n        /* \"#utility.yul\":240:247   */\n      dup5\n        /* \"#utility.yul\":236:259   */\n      sub\n        /* \"#utility.yul\":232:264   */\n      slt\n        /* \"#utility.yul\":229:281   */\n      iszero\n      tag_451\n      jumpi\n        /* \"#utility.yul\":277:278   */\n      0x00\n        /* \"#utility.yul\":274:275   */\n      dup1\n        /* \"#utility.yul\":267:279   */\n      revert\n        /* \"#utility.yul\":229:281   */\n    tag_451:\n        /* \"#utility.yul\":316:325   */\n      dup2\n        /* \"#utility.yul\":303:326   */\n      calldataload\n        /* \"#utility.yul\":335:365   */\n      tag_262\n        /* \"#utility.yul\":359:364   */\n      dup2\n        /* \"#utility.yul\":335:365   */\n      tag_438\n      jump\t// in\n        /* \"#utility.yul\":592:765   */\n    tag_439:\n        /* \"#utility.yul\":660:680   */\n      dup1\n      calldataload\n      sub(shl(0xa0, 0x01), 0x01)\n        /* \"#utility.yul\":709:740   */\n      dup2\n      and\n        /* \"#utility.yul\":699:741   */\n      dup2\n      eq\n        /* \"#utility.yul\":689:759   */\n      tag_455\n      jumpi\n        /* \"#utility.yul\":755:756   */\n      0x00\n        /* \"#utility.yul\":752:753   */\n      dup1\n        /* \"#utility.yul\":745:757   */\n      revert\n        /* \"#utility.yul\":689:759   */\n    tag_455:\n        /* \"#utility.yul\":592:765   */\n      swap2\n      swap1\n      pop\n      jump\t// out\n        /* \"#utility.yul\":770:1136   */\n    tag_40:\n        /* \"#utility.yul\":837:843   */\n      0x00\n        /* \"#utility.yul\":845:851   */\n      dup1\n        /* \"#utility.yul\":898:900   */\n      0x40\n        /* \"#utility.yul\":886:895   */\n      dup4\n        /* \"#utility.yul\":877:884   */\n      dup6\n        /* \"#utility.yul\":873:896   */\n      sub\n        /* \"#utility.yul\":869:901   */\n      slt\n        /* \"#utility.yul\":866:918   */\n      iszero\n      tag_457\n      jumpi\n        /* \"#utility.yul\":914:915   */\n      0x00\n        /* \"#utility.yul\":911:912   */\n      dup1\n        /* \"#utility.yul\":904:916   */\n      revert\n        /* \"#utility.yul\":866:918   */\n    tag_457:\n        /* \"#utility.yul\":937:966   */\n      tag_458\n        /* \"#utility.yul\":956:965   */\n      dup4\n        /* \"#utility.yul\":937:966   */\n      tag_439\n      jump\t// in\n    tag_458:\n        /* \"#utility.yul\":927:966   */\n      swap2\n      pop\n        /* \"#utility.yul\":1016:1018   */\n      0x20\n        /* \"#utility.yul\":1005:1014   */\n      dup4\n        /* \"#utility.yul\":1001:1019   */\n      add\n        /* \"#utility.yul\":988:1020   */\n      calldataload\n      sub(shl(0x60, 0x01), 0x01)\n        /* \"#utility.yul\":1053:1058   */\n      dup2\n        /* \"#utility.yul\":1049:1087   */\n      and\n        /* \"#utility.yul\":1042:1047   */\n      dup2\n        /* \"#utility.yul\":1039:1088   */\n      eq\n        /* \"#utility.yul\":1029:1106   */\n      tag_459\n      jumpi\n        /* \"#utility.yul\":1102:1103   */\n      0x00\n        /* \"#utility.yul\":1099:1100   */\n      dup1\n        /* \"#utility.yul\":1092:1104   */\n      revert\n        /* \"#utility.yul\":1029:1106   */\n    tag_459:\n        /* \"#utility.yul\":1125:1130   */\n      dup1\n        /* \"#utility.yul\":1115:1130   */\n      swap2\n      pop\n      pop\n        /* \"#utility.yul\":770:1136   */\n      swap3\n      pop\n      swap3\n      swap1\n      pop\n      jump\t// out\n        /* \"#utility.yul\":1141:1391   */\n    tag_440:\n        /* \"#utility.yul\":1226:1227   */\n      0x00\n        /* \"#utility.yul\":1236:1349   */\n    tag_461:\n        /* \"#utility.yul\":1250:1256   */\n      dup4\n        /* \"#utility.yul\":1247:1248   */\n      dup2\n        /* \"#utility.yul\":1244:1257   */\n      lt\n        /* \"#utility.yul\":1236:1349   */\n      iszero\n      tag_463\n      jumpi\n        /* \"#utility.yul\":1326:1337   */\n      dup2\n      dup2\n      add\n        /* \"#utility.yul\":1320:1338   */\n      mload\n        /* \"#utility.yul\":1307:1318   */\n      dup4\n      dup3\n      add\n        /* \"#utility.yul\":1300:1339   */\n      mstore\n        /* \"#utility.yul\":1272:1274   */\n      0x20\n        /* \"#utility.yul\":1265:1275   */\n      add\n        /* \"#utility.yul\":1236:1349   */\n      jump(tag_461)\n    tag_463:\n      pop\n      pop\n        /* \"#utility.yul\":1383:1384   */\n      0x00\n        /* \"#utility.yul\":1365:1381   */\n      swap2\n      add\n        /* \"#utility.yul\":1358:1385   */\n      mstore\n        /* \"#utility.yul\":1141:1391   */\n      jump\t// out\n        /* \"#utility.yul\":1396:1667   */\n    tag_441:\n        /* \"#utility.yul\":1438:1441   */\n      0x00\n        /* \"#utility.yul\":1476:1481   */\n      dup2\n        /* \"#utility.yul\":1470:1482   */\n      mload\n        /* \"#utility.yul\":1503:1509   */\n      dup1\n        /* \"#utility.yul\":1498:1501   */\n      dup5\n        /* \"#utility.yul\":1491:1510   */\n      mstore\n        /* \"#utility.yul\":1519:1595   */\n      tag_465\n        /* \"#utility.yul\":1588:1594   */\n      dup2\n        /* \"#utility.yul\":1581:1585   */\n      0x20\n        /* \"#utility.yul\":1576:1579   */\n      dup7\n        /* \"#utility.yul\":1572:1586   */\n      add\n        /* \"#utility.yul\":1565:1569   */\n      0x20\n        /* \"#utility.yul\":1558:1563   */\n      dup7\n        /* \"#utility.yul\":1554:1570   */\n      add\n        /* \"#utility.yul\":1519:1595   */\n      tag_440\n      jump\t// in\n    tag_465:\n        /* \"#utility.yul\":1649:1651   */\n      0x1f\n        /* \"#utility.yul\":1628:1643   */\n      add\n      not(0x1f)\n        /* \"#utility.yul\":1624:1653   */\n      and\n        /* \"#utility.yul\":1615:1654   */\n      swap3\n      swap1\n      swap3\n      add\n        /* \"#utility.yul\":1656:1660   */\n      0x20\n        /* \"#utility.yul\":1611:1661   */\n      add\n      swap3\n        /* \"#utility.yul\":1396:1667   */\n      swap2\n      pop\n      pop\n      jump\t// out\n        /* \"#utility.yul\":1672:1892   */\n    tag_45:\n        /* \"#utility.yul\":1821:1823   */\n      0x20\n        /* \"#utility.yul\":1810:1819   */\n      dup2\n        /* \"#utility.yul\":1803:1824   */\n      mstore\n        /* \"#utility.yul\":1784:1788   */\n      0x00\n        /* \"#utility.yul\":1841:1886   */\n      tag_262\n        /* \"#utility.yul\":1882:1884   */\n      0x20\n        /* \"#utility.yul\":1871:1880   */\n      dup4\n        /* \"#utility.yul\":1867:1885   */\n      add\n        /* \"#utility.yul\":1859:1865   */\n      dup5\n        /* \"#utility.yul\":1841:1886   */\n      tag_441\n      jump\t// in\n        /* \"#utility.yul\":1897:2077   */\n    tag_48:\n        /* \"#utility.yul\":1956:1962   */\n      0x00\n        /* \"#utility.yul\":2009:2011   */\n      0x20\n        /* \"#utility.yul\":1997:2006   */\n      dup3\n        /* \"#utility.yul\":1988:1995   */\n      dup5\n        /* \"#utility.yul\":1984:2007   */\n      sub\n        /* \"#utility.yul\":1980:2012   */\n      slt\n        /* \"#utility.yul\":1977:2029   */\n      iszero\n      tag_469\n      jumpi\n        /* \"#utility.yul\":2025:2026   */\n      0x00\n        /* \"#utility.yul\":2022:2023   */\n      dup1\n        /* \"#utility.yul\":2015:2027   */\n      revert\n        /* \"#utility.yul\":1977:2029   */\n    tag_469:\n      pop\n        /* \"#utility.yul\":2048:2071   */\n      calldataload\n      swap2\n        /* \"#utility.yul\":1897:2077   */\n      swap1\n      pop\n      jump\t// out\n        /* \"#utility.yul\":2290:2544   */\n    tag_54:\n        /* \"#utility.yul\":2358:2364   */\n      0x00\n        /* \"#utility.yul\":2366:2372   */\n      dup1\n        /* \"#utility.yul\":2419:2421   */\n      0x40\n        /* \"#utility.yul\":2407:2416   */\n      dup4\n        /* \"#utility.yul\":2398:2405   */\n      dup6\n        /* \"#utility.yul\":2394:2417   */\n      sub\n        /* \"#utility.yul\":2390:2422   */\n      slt\n        /* \"#utility.yul\":2387:2439   */\n      iszero\n      tag_472\n      jumpi\n        /* \"#utility.yul\":2435:2436   */\n      0x00\n        /* \"#utility.yul\":2432:2433   */\n      dup1\n        /* \"#utility.yul\":2425:2437   */\n      revert\n        /* \"#utility.yul\":2387:2439   */\n    tag_472:\n        /* \"#utility.yul\":2458:2487   */\n      tag_473\n        /* \"#utility.yul\":2477:2486   */\n      dup4\n        /* \"#utility.yul\":2458:2487   */\n      tag_439\n      jump\t// in\n    tag_473:\n        /* \"#utility.yul\":2448:2487   */\n      swap5\n        /* \"#utility.yul\":2534:2536   */\n      0x20\n        /* \"#utility.yul\":2519:2537   */\n      swap4\n      swap1\n      swap4\n      add\n        /* \"#utility.yul\":2506:2538   */\n      calldataload\n      swap4\n      pop\n      pop\n      pop\n        /* \"#utility.yul\":2290:2544   */\n      jump\t// out\n        /* \"#utility.yul\":2731:3059   */\n    tag_62:\n        /* \"#utility.yul\":2808:2814   */\n      0x00\n        /* \"#utility.yul\":2816:2822   */\n      dup1\n        /* \"#utility.yul\":2824:2830   */\n      0x00\n        /* \"#utility.yul\":2877:2879   */\n      0x60\n        /* \"#utility.yul\":2865:2874   */\n      dup5\n        /* \"#utility.yul\":2856:2863   */\n      dup7\n        /* \"#utility.yul\":2852:2875   */\n      sub\n        /* \"#utility.yul\":2848:2880   */\n      slt\n        /* \"#utility.yul\":2845:2897   */\n      iszero\n      tag_476\n      jumpi\n        /* \"#utility.yul\":2893:2894   */\n      0x00\n        /* \"#utility.yul\":2890:2891   */\n      dup1\n        /* \"#utility.yul\":2883:2895   */\n      revert\n        /* \"#utility.yul\":2845:2897   */\n    tag_476:\n        /* \"#utility.yul\":2916:2945   */\n      tag_477\n        /* \"#utility.yul\":2935:2944   */\n      dup5\n        /* \"#utility.yul\":2916:2945   */\n      tag_439\n      jump\t// in\n    tag_477:\n        /* \"#utility.yul\":2906:2945   */\n      swap3\n      pop\n        /* \"#utility.yul\":2964:3002   */\n      tag_478\n        /* \"#utility.yul\":2998:3000   */\n      0x20\n        /* \"#utility.yul\":2987:2996   */\n      dup6\n        /* \"#utility.yul\":2983:3001   */\n      add\n        /* \"#utility.yul\":2964:3002   */\n      tag_439\n      jump\t// in\n    tag_478:\n        /* \"#utility.yul\":2954:3002   */\n      swap2\n      pop\n        /* \"#utility.yul\":3049:3051   */\n      0x40\n        /* \"#utility.yul\":3038:3047   */\n      dup5\n        /* \"#utility.yul\":3034:3052   */\n      add\n        /* \"#utility.yul\":3021:3053   */\n      calldataload\n        /* \"#utility.yul\":3011:3053   */\n      swap1\n      pop\n        /* \"#utility.yul\":2731:3059   */\n      swap3\n      pop\n      swap3\n      pop\n      swap3\n      jump\t// out\n        /* \"#utility.yul\":3064:3312   */\n    tag_66:\n        /* \"#utility.yul\":3132:3138   */\n      0x00\n        /* \"#utility.yul\":3140:3146   */\n      dup1\n        /* \"#utility.yul\":3193:3195   */\n      0x40\n        /* \"#utility.yul\":3181:3190   */\n      dup4\n        /* \"#utility.yul\":3172:3179   */\n      dup6\n        /* \"#utility.yul\":3168:3191   */\n      sub\n        /* \"#utility.yul\":3164:3196   */\n      slt\n        /* \"#utility.yul\":3161:3213   */\n      iszero\n      tag_480\n      jumpi\n        /* \"#utility.yul\":3209:3210   */\n      0x00\n        /* \"#utility.yul\":3206:3207   */\n      dup1\n        /* \"#utility.yul\":3199:3211   */\n      revert\n        /* \"#utility.yul\":3161:3213   */\n    tag_480:\n      pop\n      pop\n        /* \"#utility.yul\":3232:3255   */\n      dup1\n      calldataload\n      swap3\n        /* \"#utility.yul\":3302:3304   */\n      0x20\n        /* \"#utility.yul\":3287:3305   */\n      swap1\n      swap2\n      add\n        /* \"#utility.yul\":3274:3306   */\n      calldataload\n      swap2\n      pop\n        /* \"#utility.yul\":3064:3312   */\n      jump\t// out\n        /* \"#utility.yul\":3596:3782   */\n    tag_87:\n        /* \"#utility.yul\":3655:3661   */\n      0x00\n        /* \"#utility.yul\":3708:3710   */\n      0x20\n        /* \"#utility.yul\":3696:3705   */\n      dup3\n        /* \"#utility.yul\":3687:3694   */\n      dup5\n        /* \"#utility.yul\":3683:3706   */\n      sub\n        /* \"#utility.yul\":3679:3711   */\n      slt\n        /* \"#utility.yul\":3676:3728   */\n      iszero\n      tag_483\n      jumpi\n        /* \"#utility.yul\":3724:3725   */\n      0x00\n        /* \"#utility.yul\":3721:3722   */\n      dup1\n        /* \"#utility.yul\":3714:3726   */\n      revert\n        /* \"#utility.yul\":3676:3728   */\n    tag_483:\n        /* \"#utility.yul\":3747:3776   */\n      tag_262\n        /* \"#utility.yul\":3766:3775   */\n      dup3\n        /* \"#utility.yul\":3747:3776   */\n      tag_439\n      jump\t// in\n        /* \"#utility.yul\":3787:4379   */\n    tag_97:\n        /* \"#utility.yul\":3858:3864   */\n      0x00\n        /* \"#utility.yul\":3866:3872   */\n      dup1\n        /* \"#utility.yul\":3919:3921   */\n      0x20\n        /* \"#utility.yul\":3907:3916   */\n      dup4\n        /* \"#utility.yul\":3898:3905   */\n      dup6\n        /* \"#utility.yul\":3894:3917   */\n      sub\n        /* \"#utility.yul\":3890:3922   */\n      slt\n        /* \"#utility.yul\":3887:3939   */\n      iszero\n      tag_486\n      jumpi\n        /* \"#utility.yul\":3935:3936   */\n      0x00\n        /* \"#utility.yul\":3932:3933   */\n      dup1\n        /* \"#utility.yul\":3925:3937   */\n      revert\n        /* \"#utility.yul\":3887:3939   */\n    tag_486:\n        /* \"#utility.yul\":3975:3984   */\n      dup3\n        /* \"#utility.yul\":3962:3985   */\n      calldataload\n        /* \"#utility.yul\":4004:4022   */\n      0xffffffffffffffff\n        /* \"#utility.yul\":4045:4047   */\n      dup1\n        /* \"#utility.yul\":4037:4043   */\n      dup3\n        /* \"#utility.yul\":4034:4048   */\n      gt\n        /* \"#utility.yul\":4031:4065   */\n      iszero\n      tag_487\n      jumpi\n        /* \"#utility.yul\":4061:4062   */\n      0x00\n        /* \"#utility.yul\":4058:4059   */\n      dup1\n        /* \"#utility.yul\":4051:4063   */\n      revert\n        /* \"#utility.yul\":4031:4065   */\n    tag_487:\n        /* \"#utility.yul\":4099:4105   */\n      dup2\n        /* \"#utility.yul\":4088:4097   */\n      dup6\n        /* \"#utility.yul\":4084:4106   */\n      add\n        /* \"#utility.yul\":4074:4106   */\n      swap2\n      pop\n        /* \"#utility.yul\":4144:4151   */\n      dup6\n        /* \"#utility.yul\":4137:4141   */\n      0x1f\n        /* \"#utility.yul\":4133:4135   */\n      dup4\n        /* \"#utility.yul\":4129:4142   */\n      add\n        /* \"#utility.yul\":4125:4152   */\n      slt\n        /* \"#utility.yul\":4115:4170   */\n      tag_488\n      jumpi\n        /* \"#utility.yul\":4166:4167   */\n      0x00\n        /* \"#utility.yul\":4163:4164   */\n      dup1\n        /* \"#utility.yul\":4156:4168   */\n      revert\n        /* \"#utility.yul\":4115:4170   */\n    tag_488:\n        /* \"#utility.yul\":4206:4208   */\n      dup2\n        /* \"#utility.yul\":4193:4209   */\n      calldataload\n        /* \"#utility.yul\":4232:4234   */\n      dup2\n        /* \"#utility.yul\":4224:4230   */\n      dup2\n        /* \"#utility.yul\":4221:4235   */\n      gt\n        /* \"#utility.yul\":4218:4252   */\n      iszero\n      tag_489\n      jumpi\n        /* \"#utility.yul\":4248:4249   */\n      0x00\n        /* \"#utility.yul\":4245:4246   */\n      dup1\n        /* \"#utility.yul\":4238:4250   */\n      revert\n        /* \"#utility.yul\":4218:4252   */\n    tag_489:\n        /* \"#utility.yul\":4293:4300   */\n      dup7\n        /* \"#utility.yul\":4288:4290   */\n      0x20\n        /* \"#utility.yul\":4279:4285   */\n      dup3\n        /* \"#utility.yul\":4275:4277   */\n      dup6\n        /* \"#utility.yul\":4271:4286   */\n      add\n        /* \"#utility.yul\":4267:4291   */\n      add\n        /* \"#utility.yul\":4264:4301   */\n      gt\n        /* \"#utility.yul\":4261:4318   */\n      iszero\n      tag_490\n      jumpi\n        /* \"#utility.yul\":4314:4315   */\n      0x00\n        /* \"#utility.yul\":4311:4312   */\n      dup1\n        /* \"#utility.yul\":4304:4316   */\n      revert\n        /* \"#utility.yul\":4261:4318   */\n    tag_490:\n        /* \"#utility.yul\":4345:4347   */\n      0x20\n        /* \"#utility.yul\":4337:4348   */\n      swap3\n      swap1\n      swap3\n      add\n      swap7\n        /* \"#utility.yul\":4367:4373   */\n      swap2\n      swap6\n      pop\n        /* \"#utility.yul\":3787:4379   */\n      swap1\n      swap4\n      pop\n      pop\n      pop\n      pop\n      jump\t// out\n        /* \"#utility.yul\":4384:4731   */\n    tag_107:\n        /* \"#utility.yul\":4449:4455   */\n      0x00\n        /* \"#utility.yul\":4457:4463   */\n      dup1\n        /* \"#utility.yul\":4510:4512   */\n      0x40\n        /* \"#utility.yul\":4498:4507   */\n      dup4\n        /* \"#utility.yul\":4489:4496   */\n      dup6\n        /* \"#utility.yul\":4485:4508   */\n      sub\n        /* \"#utility.yul\":4481:4513   */\n      slt\n        /* \"#utility.yul\":4478:4530   */\n      iszero\n      tag_492\n      jumpi\n        /* \"#utility.yul\":4526:4527   */\n      0x00\n        /* \"#utility.yul\":4523:4524   */\n      dup1\n        /* \"#utility.yul\":4516:4528   */\n      revert\n        /* \"#utility.yul\":4478:4530   */\n    tag_492:\n        /* \"#utility.yul\":4549:4578   */\n      tag_493\n        /* \"#utility.yul\":4568:4577   */\n      dup4\n        /* \"#utility.yul\":4549:4578   */\n      tag_439\n      jump\t// in\n    tag_493:\n        /* \"#utility.yul\":4539:4578   */\n      swap2\n      pop\n        /* \"#utility.yul\":4628:4630   */\n      0x20\n        /* \"#utility.yul\":4617:4626   */\n      dup4\n        /* \"#utility.yul\":4613:4631   */\n      add\n        /* \"#utility.yul\":4600:4632   */\n      calldataload\n        /* \"#utility.yul\":4675:4680   */\n      dup1\n        /* \"#utility.yul\":4668:4681   */\n      iszero\n        /* \"#utility.yul\":4661:4682   */\n      iszero\n        /* \"#utility.yul\":4654:4659   */\n      dup2\n        /* \"#utility.yul\":4651:4683   */\n      eq\n        /* \"#utility.yul\":4641:4701   */\n      tag_459\n      jumpi\n        /* \"#utility.yul\":4697:4698   */\n      0x00\n        /* \"#utility.yul\":4694:4695   */\n      dup1\n        /* \"#utility.yul\":4687:4699   */\n      revert\n        /* \"#utility.yul\":4736:4863   */\n    tag_342:\n        /* \"#utility.yul\":4797:4807   */\n      0x4e487b71\n        /* \"#utility.yul\":4792:4795   */\n      0xe0\n        /* \"#utility.yul\":4788:4808   */\n      shl\n        /* \"#utility.yul\":4785:4786   */\n      0x00\n        /* \"#utility.yul\":4778:4809   */\n      mstore\n        /* \"#utility.yul\":4828:4832   */\n      0x41\n        /* \"#utility.yul\":4825:4826   */\n      0x04\n        /* \"#utility.yul\":4818:4833   */\n      mstore\n        /* \"#utility.yul\":4852:4856   */\n      0x24\n        /* \"#utility.yul\":4849:4850   */\n      0x00\n        /* \"#utility.yul\":4842:4857   */\n      revert\n        /* \"#utility.yul\":4868:6006   */\n    tag_115:\n        /* \"#utility.yul\":4963:4969   */\n      0x00\n        /* \"#utility.yul\":4971:4977   */\n      dup1\n        /* \"#utility.yul\":4979:4985   */\n      0x00\n        /* \"#utility.yul\":4987:4993   */\n      dup1\n        /* \"#utility.yul\":5040:5043   */\n      0x80\n        /* \"#utility.yul\":5028:5037   */\n      dup6\n        /* \"#utility.yul\":5019:5026   */\n      dup8\n        /* \"#utility.yul\":5015:5038   */\n      sub\n        /* \"#utility.yul\":5011:5044   */\n      slt\n        /* \"#utility.yul\":5008:5061   */\n      iszero\n      tag_497\n      jumpi\n        /* \"#utility.yul\":5057:5058   */\n      0x00\n        /* \"#utility.yul\":5054:5055   */\n      dup1\n        /* \"#utility.yul\":5047:5059   */\n      revert\n        /* \"#utility.yul\":5008:5061   */\n    tag_497:\n        /* \"#utility.yul\":5080:5109   */\n      tag_498\n        /* \"#utility.yul\":5099:5108   */\n      dup6\n        /* \"#utility.yul\":5080:5109   */\n      tag_439\n      jump\t// in\n    tag_498:\n        /* \"#utility.yul\":5070:5109   */\n      swap4\n      pop\n        /* \"#utility.yul\":5128:5166   */\n      tag_499\n        /* \"#utility.yul\":5162:5164   */\n      0x20\n        /* \"#utility.yul\":5151:5160   */\n      dup7\n        /* \"#utility.yul\":5147:5165   */\n      add\n        /* \"#utility.yul\":5128:5166   */\n      tag_439\n      jump\t// in\n    tag_499:\n        /* \"#utility.yul\":5118:5166   */\n      swap3\n      pop\n        /* \"#utility.yul\":5213:5215   */\n      0x40\n        /* \"#utility.yul\":5202:5211   */\n      dup6\n        /* \"#utility.yul\":5198:5216   */\n      add\n        /* \"#utility.yul\":5185:5217   */\n      calldataload\n        /* \"#utility.yul\":5175:5217   */\n      swap2\n      pop\n        /* \"#utility.yul\":5268:5270   */\n      0x60\n        /* \"#utility.yul\":5257:5266   */\n      dup6\n        /* \"#utility.yul\":5253:5271   */\n      add\n        /* \"#utility.yul\":5240:5272   */\n      calldataload\n        /* \"#utility.yul\":5291:5309   */\n      0xffffffffffffffff\n        /* \"#utility.yul\":5332:5334   */\n      dup1\n        /* \"#utility.yul\":5324:5330   */\n      dup3\n        /* \"#utility.yul\":5321:5335   */\n      gt\n        /* \"#utility.yul\":5318:5352   */\n      iszero\n      tag_500\n      jumpi\n        /* \"#utility.yul\":5348:5349   */\n      0x00\n        /* \"#utility.yul\":5345:5346   */\n      dup1\n        /* \"#utility.yul\":5338:5350   */\n      revert\n        /* \"#utility.yul\":5318:5352   */\n    tag_500:\n        /* \"#utility.yul\":5386:5392   */\n      dup2\n        /* \"#utility.yul\":5375:5384   */\n      dup8\n        /* \"#utility.yul\":5371:5393   */\n      add\n        /* \"#utility.yul\":5361:5393   */\n      swap2\n      pop\n        /* \"#utility.yul\":5431:5438   */\n      dup8\n        /* \"#utility.yul\":5424:5428   */\n      0x1f\n        /* \"#utility.yul\":5420:5422   */\n      dup4\n        /* \"#utility.yul\":5416:5429   */\n      add\n        /* \"#utility.yul\":5412:5439   */\n      slt\n        /* \"#utility.yul\":5402:5457   */\n      tag_501\n      jumpi\n        /* \"#utility.yul\":5453:5454   */\n      0x00\n        /* \"#utility.yul\":5450:5451   */\n      dup1\n        /* \"#utility.yul\":5443:5455   */\n      revert\n        /* \"#utility.yul\":5402:5457   */\n    tag_501:\n        /* \"#utility.yul\":5489:5491   */\n      dup2\n        /* \"#utility.yul\":5476:5492   */\n      calldataload\n        /* \"#utility.yul\":5511:5513   */\n      dup2\n        /* \"#utility.yul\":5507:5509   */\n      dup2\n        /* \"#utility.yul\":5504:5514   */\n      gt\n        /* \"#utility.yul\":5501:5537   */\n      iszero\n      tag_503\n      jumpi\n        /* \"#utility.yul\":5517:5535   */\n      tag_503\n      tag_342\n      jump\t// in\n    tag_503:\n        /* \"#utility.yul\":5592:5594   */\n      0x40\n        /* \"#utility.yul\":5586:5595   */\n      mload\n        /* \"#utility.yul\":5560:5562   */\n      0x1f\n        /* \"#utility.yul\":5646:5659   */\n      dup3\n      add\n      not(0x1f)\n        /* \"#utility.yul\":5642:5664   */\n      swap1\n      dup2\n      and\n        /* \"#utility.yul\":5666:5668   */\n      0x3f\n        /* \"#utility.yul\":5638:5669   */\n      add\n        /* \"#utility.yul\":5634:5674   */\n      and\n        /* \"#utility.yul\":5622:5675   */\n      dup2\n      add\n      swap1\n        /* \"#utility.yul\":5690:5708   */\n      dup4\n      dup3\n      gt\n        /* \"#utility.yul\":5710:5732   */\n      dup2\n      dup4\n      lt\n        /* \"#utility.yul\":5687:5733   */\n      or\n        /* \"#utility.yul\":5684:5756   */\n      iszero\n      tag_505\n      jumpi\n        /* \"#utility.yul\":5736:5754   */\n      tag_505\n      tag_342\n      jump\t// in\n    tag_505:\n        /* \"#utility.yul\":5776:5786   */\n      dup2\n        /* \"#utility.yul\":5772:5774   */\n      0x40\n        /* \"#utility.yul\":5765:5787   */\n      mstore\n        /* \"#utility.yul\":5811:5813   */\n      dup3\n        /* \"#utility.yul\":5803:5809   */\n      dup2\n        /* \"#utility.yul\":5796:5814   */\n      mstore\n        /* \"#utility.yul\":5851:5858   */\n      dup11\n        /* \"#utility.yul\":5846:5848   */\n      0x20\n        /* \"#utility.yul\":5841:5843   */\n      dup5\n        /* \"#utility.yul\":5837:5839   */\n      dup8\n        /* \"#utility.yul\":5833:5844   */\n      add\n        /* \"#utility.yul\":5829:5849   */\n      add\n        /* \"#utility.yul\":5826:5859   */\n      gt\n        /* \"#utility.yul\":5823:5876   */\n      iszero\n      tag_506\n      jumpi\n        /* \"#utility.yul\":5872:5873   */\n      0x00\n        /* \"#utility.yul\":5869:5870   */\n      dup1\n        /* \"#utility.yul\":5862:5874   */\n      revert\n        /* \"#utility.yul\":5823:5876   */\n    tag_506:\n        /* \"#utility.yul\":5928:5930   */\n      dup3\n        /* \"#utility.yul\":5923:5925   */\n      0x20\n        /* \"#utility.yul\":5919:5921   */\n      dup7\n        /* \"#utility.yul\":5915:5926   */\n      add\n        /* \"#utility.yul\":5910:5912   */\n      0x20\n        /* \"#utility.yul\":5902:5908   */\n      dup4\n        /* \"#utility.yul\":5898:5913   */\n      add\n        /* \"#utility.yul\":5885:5931   */\n      calldatacopy\n        /* \"#utility.yul\":5973:5974   */\n      0x00\n        /* \"#utility.yul\":5968:5970   */\n      0x20\n        /* \"#utility.yul\":5963:5965   */\n      dup5\n        /* \"#utility.yul\":5955:5961   */\n      dup4\n        /* \"#utility.yul\":5951:5966   */\n      add\n        /* \"#utility.yul\":5947:5971   */\n      add\n        /* \"#utility.yul\":5940:5975   */\n      mstore\n        /* \"#utility.yul\":5994:6000   */\n      dup1\n        /* \"#utility.yul\":5984:6000   */\n      swap6\n      pop\n      pop\n      pop\n      pop\n      pop\n      pop\n        /* \"#utility.yul\":4868:6006   */\n      swap3\n      swap6\n      swap2\n      swap5\n      pop\n      swap3\n      pop\n      jump\t// out\n        /* \"#utility.yul\":6011:6271   */\n    tag_126:\n        /* \"#utility.yul\":6079:6085   */\n      0x00\n        /* \"#utility.yul\":6087:6093   */\n      dup1\n        /* \"#utility.yul\":6140:6142   */\n      0x40\n        /* \"#utility.yul\":6128:6137   */\n      dup4\n        /* \"#utility.yul\":6119:6126   */\n      dup6\n        /* \"#utility.yul\":6115:6138   */\n      sub\n        /* \"#utility.yul\":6111:6143   */\n      slt\n        /* \"#utility.yul\":6108:6160   */\n      iszero\n      tag_508\n      jumpi\n        /* \"#utility.yul\":6156:6157   */\n      0x00\n        /* \"#utility.yul\":6153:6154   */\n      dup1\n        /* \"#utility.yul\":6146:6158   */\n      revert\n        /* \"#utility.yul\":6108:6160   */\n    tag_508:\n        /* \"#utility.yul\":6179:6208   */\n      tag_509\n        /* \"#utility.yul\":6198:6207   */\n      dup4\n        /* \"#utility.yul\":6179:6208   */\n      tag_439\n      jump\t// in\n    tag_509:\n        /* \"#utility.yul\":6169:6208   */\n      swap2\n      pop\n        /* \"#utility.yul\":6227:6265   */\n      tag_510\n        /* \"#utility.yul\":6261:6263   */\n      0x20\n        /* \"#utility.yul\":6250:6259   */\n      dup5\n        /* \"#utility.yul\":6246:6264   */\n      add\n        /* \"#utility.yul\":6227:6265   */\n      tag_439\n      jump\t// in\n    tag_510:\n        /* \"#utility.yul\":6217:6265   */\n      swap1\n      pop\n        /* \"#utility.yul\":6011:6271   */\n      swap3\n      pop\n      swap3\n      swap1\n      pop\n      jump\t// out\n        /* \"#utility.yul\":6276:6632   */\n    tag_142:\n        /* \"#utility.yul\":6478:6480   */\n      0x20\n        /* \"#utility.yul\":6460:6481   */\n      dup1\n      dup3\n      mstore\n        /* \"#utility.yul\":6497:6515   */\n      dup2\n      dup2\n      add\n        /* \"#utility.yul\":6490:6520   */\n      mstore\n        /* \"#utility.yul\":6556:6590   */\n      0x4f776e61626c653a2063616c6c6572206973206e6f7420746865206f776e6572\n        /* \"#utility.yul\":6551:6553   */\n      0x40\n        /* \"#utility.yul\":6536:6554   */\n      dup3\n      add\n        /* \"#utility.yul\":6529:6591   */\n      mstore\n        /* \"#utility.yul\":6623:6625   */\n      0x60\n        /* \"#utility.yul\":6608:6626   */\n      add\n      swap1\n        /* \"#utility.yul\":6276:6632   */\n      jump\t// out\n        /* \"#utility.yul\":6637:7017   */\n    tag_146:\n        /* \"#utility.yul\":6716:6717   */\n      0x01\n        /* \"#utility.yul\":6712:6724   */\n      dup2\n      dup2\n      shr\n      swap1\n        /* \"#utility.yul\":6759:6771   */\n      dup3\n      and\n      dup1\n        /* \"#utility.yul\":6780:6841   */\n      tag_513\n      jumpi\n        /* \"#utility.yul\":6834:6838   */\n      0x7f\n        /* \"#utility.yul\":6826:6832   */\n      dup3\n        /* \"#utility.yul\":6822:6839   */\n      and\n        /* \"#utility.yul\":6812:6839   */\n      swap2\n      pop\n        /* \"#utility.yul\":6780:6841   */\n    tag_513:\n        /* \"#utility.yul\":6887:6889   */\n      0x20\n        /* \"#utility.yul\":6879:6885   */\n      dup3\n        /* \"#utility.yul\":6876:6890   */\n      lt\n        /* \"#utility.yul\":6856:6874   */\n      dup2\n        /* \"#utility.yul\":6853:6891   */\n      sub\n        /* \"#utility.yul\":6850:7011   */\n      tag_514\n      jumpi\n        /* \"#utility.yul\":6933:6943   */\n      0x4e487b71\n        /* \"#utility.yul\":6928:6931   */\n      0xe0\n        /* \"#utility.yul\":6924:6944   */\n      shl\n        /* \"#utility.yul\":6921:6922   */\n      0x00\n        /* \"#utility.yul\":6914:6945   */\n      mstore\n        /* \"#utility.yul\":6968:6972   */\n      0x22\n        /* \"#utility.yul\":6965:6966   */\n      0x04\n        /* \"#utility.yul\":6958:6973   */\n      mstore\n        /* \"#utility.yul\":6996:7000   */\n      0x24\n        /* \"#utility.yul\":6993:6994   */\n      0x00\n        /* \"#utility.yul\":6986:7001   */\n      revert\n        /* \"#utility.yul\":6850:7011   */\n    tag_514:\n      pop\n        /* \"#utility.yul\":6637:7017   */\n      swap2\n      swap1\n      pop\n      jump\t// out\n        /* \"#utility.yul\":8262:8675   */\n    tag_178:\n        /* \"#utility.yul\":8464:8466   */\n      0x20\n        /* \"#utility.yul\":8446:8467   */\n      dup1\n      dup3\n      mstore\n        /* \"#utility.yul\":8503:8505   */\n      0x31\n        /* \"#utility.yul\":8483:8501   */\n      swap1\n      dup3\n      add\n        /* \"#utility.yul\":8476:8506   */\n      mstore\n        /* \"#utility.yul\":8542:8576   */\n      0x4552433732313a207472616e736665722063616c6c6572206973206e6f74206f\n        /* \"#utility.yul\":8537:8539   */\n      0x40\n        /* \"#utility.yul\":8522:8540   */\n      dup3\n      add\n        /* \"#utility.yul\":8515:8577   */\n      mstore\n      shl(0x7a, 0x1ddb995c881b9bdc88185c1c1c9bdd9959)\n        /* \"#utility.yul\":8608:8610   */\n      0x60\n        /* \"#utility.yul\":8593:8611   */\n      dup3\n      add\n        /* \"#utility.yul\":8586:8633   */\n      mstore\n        /* \"#utility.yul\":8665:8668   */\n      0x80\n        /* \"#utility.yul\":8650:8669   */\n      add\n      swap1\n        /* \"#utility.yul\":8262:8675   */\n      jump\t// out\n        /* \"#utility.yul\":9505:9632   */\n    tag_197:\n        /* \"#utility.yul\":9566:9576   */\n      0x4e487b71\n        /* \"#utility.yul\":9561:9564   */\n      0xe0\n        /* \"#utility.yul\":9557:9577   */\n      shl\n        /* \"#utility.yul\":9554:9555   */\n      0x00\n        /* \"#utility.yul\":9547:9578   */\n      mstore\n        /* \"#utility.yul\":9597:9601   */\n      0x32\n        /* \"#utility.yul\":9594:9595   */\n      0x04\n        /* \"#utility.yul\":9587:9602   */\n      mstore\n        /* \"#utility.yul\":9621:9625   */\n      0x24\n        /* \"#utility.yul\":9618:9619   */\n      0x00\n        /* \"#utility.yul\":9611:9626   */\n      revert\n        /* \"#utility.yul\":10584:11129   */\n    tag_443:\n        /* \"#utility.yul\":10686:10688   */\n      0x1f\n        /* \"#utility.yul\":10681:10684   */\n      dup3\n        /* \"#utility.yul\":10678:10689   */\n      gt\n        /* \"#utility.yul\":10675:11123   */\n      iszero\n      tag_169\n      jumpi\n        /* \"#utility.yul\":10722:10723   */\n      0x00\n        /* \"#utility.yul\":10747:10752   */\n      dup2\n        /* \"#utility.yul\":10743:10745   */\n      dup2\n        /* \"#utility.yul\":10736:10753   */\n      mstore\n        /* \"#utility.yul\":10792:10796   */\n      0x20\n        /* \"#utility.yul\":10788:10790   */\n      dup2\n        /* \"#utility.yul\":10778:10797   */\n      keccak256\n        /* \"#utility.yul\":10862:10864   */\n      0x1f\n        /* \"#utility.yul\":10850:10860   */\n      dup6\n        /* \"#utility.yul\":10846:10865   */\n      add\n        /* \"#utility.yul\":10843:10844   */\n      0x05\n        /* \"#utility.yul\":10839:10866   */\n      shr\n        /* \"#utility.yul\":10833:10837   */\n      dup2\n        /* \"#utility.yul\":10829:10867   */\n      add\n        /* \"#utility.yul\":10898:10902   */\n      0x20\n        /* \"#utility.yul\":10886:10896   */\n      dup7\n        /* \"#utility.yul\":10883:10903   */\n      lt\n        /* \"#utility.yul\":10880:10927   */\n      iszero\n      tag_527\n      jumpi\n      pop\n        /* \"#utility.yul\":10921:10925   */\n      dup1\n        /* \"#utility.yul\":10880:10927   */\n    tag_527:\n        /* \"#utility.yul\":10976:10978   */\n      0x1f\n        /* \"#utility.yul\":10971:10974   */\n      dup6\n        /* \"#utility.yul\":10967:10979   */\n      add\n        /* \"#utility.yul\":10964:10965   */\n      0x05\n        /* \"#utility.yul\":10960:10980   */\n      shr\n        /* \"#utility.yul\":10954:10958   */\n      dup3\n        /* \"#utility.yul\":10950:10981   */\n      add\n        /* \"#utility.yul\":10940:10981   */\n      swap2\n      pop\n        /* \"#utility.yul\":11031:11113   */\n    tag_528:\n        /* \"#utility.yul\":11049:11051   */\n      dup2\n        /* \"#utility.yul\":11042:11047   */\n      dup2\n        /* \"#utility.yul\":11039:11052   */\n      lt\n        /* \"#utility.yul\":11031:11113   */\n      iszero\n      tag_530\n      jumpi\n        /* \"#utility.yul\":11094:11111   */\n      dup3\n      dup2\n      sstore\n        /* \"#utility.yul\":11075:11076   */\n      0x01\n        /* \"#utility.yul\":11064:11077   */\n      add\n        /* \"#utility.yul\":11031:11113   */\n      jump(tag_528)\n    tag_530:\n        /* \"#utility.yul\":11035:11038   */\n      pop\n      pop\n      pop\n        /* \"#utility.yul\":10584:11129   */\n      pop\n      pop\n      pop\n      jump\t// out\n        /* \"#utility.yul\":11305:12511   */\n    tag_223:\n        /* \"#utility.yul\":11429:11447   */\n      0xffffffffffffffff\n        /* \"#utility.yul\":11424:11427   */\n      dup4\n        /* \"#utility.yul\":11421:11448   */\n      gt\n        /* \"#utility.yul\":11418:11471   */\n      iszero\n      tag_534\n      jumpi\n        /* \"#utility.yul\":11451:11469   */\n      tag_534\n      tag_342\n      jump\t// in\n    tag_534:\n        /* \"#utility.yul\":11480:11574   */\n      tag_535\n        /* \"#utility.yul\":11570:11573   */\n      dup4\n        /* \"#utility.yul\":11530:11568   */\n      tag_536\n        /* \"#utility.yul\":11562:11566   */\n      dup4\n        /* \"#utility.yul\":11556:11567   */\n      sload\n        /* \"#utility.yul\":11530:11568   */\n      tag_146\n      jump\t// in\n    tag_536:\n        /* \"#utility.yul\":11524:11528   */\n      dup4\n        /* \"#utility.yul\":11480:11574   */\n      tag_443\n      jump\t// in\n    tag_535:\n        /* \"#utility.yul\":11600:11601   */\n      0x00\n        /* \"#utility.yul\":11625:11627   */\n      0x1f\n        /* \"#utility.yul\":11620:11623   */\n      dup5\n        /* \"#utility.yul\":11617:11628   */\n      gt\n        /* \"#utility.yul\":11642:11643   */\n      0x01\n        /* \"#utility.yul\":11637:12253   */\n      dup2\n      eq\n      tag_538\n      jumpi\n        /* \"#utility.yul\":12297:12298   */\n      0x00\n        /* \"#utility.yul\":12314:12317   */\n      dup6\n        /* \"#utility.yul\":12311:12404   */\n      iszero\n      tag_539\n      jumpi\n      pop\n        /* \"#utility.yul\":12370:12389   */\n      dup4\n      dup3\n      add\n        /* \"#utility.yul\":12357:12390   */\n      calldataload\n        /* \"#utility.yul\":12311:12404   */\n    tag_539:\n      not(0x00)\n        /* \"#utility.yul\":11262:11263   */\n      0x03\n        /* \"#utility.yul\":11258:11269   */\n      dup8\n      swap1\n      shl\n        /* \"#utility.yul\":11254:11278   */\n      shr\n        /* \"#utility.yul\":11250:11279   */\n      not\n        /* \"#utility.yul\":11240:11280   */\n      and\n        /* \"#utility.yul\":11286:11287   */\n      0x01\n        /* \"#utility.yul\":11282:11293   */\n      dup7\n      swap1\n      shl\n        /* \"#utility.yul\":11237:11294   */\n      or\n        /* \"#utility.yul\":12417:12495   */\n      dup4\n      sstore\n        /* \"#utility.yul\":11610:12505   */\n      jump(tag_537)\n        /* \"#utility.yul\":11637:12253   */\n    tag_538:\n        /* \"#utility.yul\":10531:10532   */\n      0x00\n        /* \"#utility.yul\":10524:10538   */\n      dup4\n      dup2\n      mstore\n        /* \"#utility.yul\":10568:10572   */\n      0x20\n        /* \"#utility.yul\":10555:10573   */\n      swap1\n      keccak256\n      not(0x1f)\n        /* \"#utility.yul\":11673:11690   */\n      dup7\n      and\n      swap1\n        /* \"#utility.yul\":11774:11783   */\n      dup4\n        /* \"#utility.yul\":11796:12025   */\n    tag_542:\n        /* \"#utility.yul\":11810:11817   */\n      dup3\n        /* \"#utility.yul\":11807:11808   */\n      dup2\n        /* \"#utility.yul\":11804:11818   */\n      lt\n        /* \"#utility.yul\":11796:12025   */\n      iszero\n      tag_544\n      jumpi\n        /* \"#utility.yul\":11899:11918   */\n      dup7\n      dup6\n      add\n        /* \"#utility.yul\":11886:11919   */\n      calldataload\n        /* \"#utility.yul\":11871:11920   */\n      dup3\n      sstore\n        /* \"#utility.yul\":12006:12010   */\n      0x20\n        /* \"#utility.yul\":11991:12011   */\n      swap5\n      dup6\n      add\n      swap5\n        /* \"#utility.yul\":11959:11960   */\n      0x01\n        /* \"#utility.yul\":11947:11961   */\n      swap1\n      swap3\n      add\n      swap2\n        /* \"#utility.yul\":11826:11838   */\n      add\n        /* \"#utility.yul\":11796:12025   */\n      jump(tag_542)\n    tag_544:\n        /* \"#utility.yul\":11800:11803   */\n      pop\n        /* \"#utility.yul\":12053:12056   */\n      dup7\n        /* \"#utility.yul\":12044:12051   */\n      dup3\n        /* \"#utility.yul\":12041:12057   */\n      lt\n        /* \"#utility.yul\":12038:12197   */\n      iszero\n      tag_545\n      jumpi\n        /* \"#utility.yul\":12177:12178   */\n      0x00\n        /* \"#utility.yul\":12173:12179   */\n      not\n        /* \"#utility.yul\":12167:12170   */\n      0xf8\n        /* \"#utility.yul\":12161:12164   */\n      dup9\n        /* \"#utility.yul\":12158:12159   */\n      0x03\n        /* \"#utility.yul\":12154:12165   */\n      shl\n        /* \"#utility.yul\":12150:12171   */\n      and\n        /* \"#utility.yul\":12146:12180   */\n      shr\n        /* \"#utility.yul\":12142:12181   */\n      not\n        /* \"#utility.yul\":12129:12138   */\n      dup5\n        /* \"#utility.yul\":12124:12127   */\n      dup8\n        /* \"#utility.yul\":12120:12139   */\n      add\n        /* \"#utility.yul\":12107:12140   */\n      calldataload\n        /* \"#utility.yul\":12103:12182   */\n      and\n        /* \"#utility.yul\":12095:12101   */\n      dup2\n        /* \"#utility.yul\":12088:12183   */\n      sstore\n        /* \"#utility.yul\":12038:12197   */\n    tag_545:\n      pop\n      pop\n        /* \"#utility.yul\":12240:12241   */\n      0x01\n        /* \"#utility.yul\":12234:12237   */\n      dup6\n        /* \"#utility.yul\":12231:12232   */\n      0x01\n        /* \"#utility.yul\":12227:12238   */\n      shl\n        /* \"#utility.yul\":12223:12242   */\n      add\n        /* \"#utility.yul\":12217:12221   */\n      dup4\n        /* \"#utility.yul\":12210:12243   */\n      sstore\n        /* \"#utility.yul\":11610:12505   */\n    tag_537:\n      pop\n      pop\n        /* \"#utility.yul\":11305:12511   */\n      pop\n      pop\n      pop\n      jump\t// out\n        /* \"#utility.yul\":12516:12643   */\n    tag_445:\n        /* \"#utility.yul\":12577:12587   */\n      0x4e487b71\n        /* \"#utility.yul\":12572:12575   */\n      0xe0\n        /* \"#utility.yul\":12568:12588   */\n      shl\n        /* \"#utility.yul\":12565:12566   */\n      0x00\n        /* \"#utility.yul\":12558:12589   */\n      mstore\n        /* \"#utility.yul\":12608:12612   */\n      0x12\n        /* \"#utility.yul\":12605:12606   */\n      0x04\n        /* \"#utility.yul\":12598:12613   */\n      mstore\n        /* \"#utility.yul\":12632:12636   */\n      0x24\n        /* \"#utility.yul\":12629:12630   */\n      0x00\n        /* \"#utility.yul\":12622:12637   */\n      revert\n        /* \"#utility.yul\":12648:12775   */\n    tag_446:\n        /* \"#utility.yul\":12709:12719   */\n      0x4e487b71\n        /* \"#utility.yul\":12704:12707   */\n      0xe0\n        /* \"#utility.yul\":12700:12720   */\n      shl\n        /* \"#utility.yul\":12697:12698   */\n      0x00\n        /* \"#utility.yul\":12690:12721   */\n      mstore\n        /* \"#utility.yul\":12740:12744   */\n      0x11\n        /* \"#utility.yul\":12737:12738   */\n      0x04\n        /* \"#utility.yul\":12730:12745   */\n      mstore\n        /* \"#utility.yul\":12764:12768   */\n      0x24\n        /* \"#utility.yul\":12761:12762   */\n      0x00\n        /* \"#utility.yul\":12754:12769   */\n      revert\n        /* \"#utility.yul\":12780:12900   */\n    tag_244:\n        /* \"#utility.yul\":12820:12821   */\n      0x00\n        /* \"#utility.yul\":12846:12847   */\n      dup3\n        /* \"#utility.yul\":12836:12871   */\n      tag_550\n      jumpi\n        /* \"#utility.yul\":12851:12869   */\n      tag_550\n      tag_445\n      jump\t// in\n    tag_550:\n      pop\n        /* \"#utility.yul\":12885:12894   */\n      div\n      swap1\n        /* \"#utility.yul\":12780:12900   */\n      jump\t// out\n        /* \"#utility.yul\":12905:13073   */\n    tag_246:\n        /* \"#utility.yul\":12978:12987   */\n      dup1\n      dup3\n      mul\n        /* \"#utility.yul\":13009:13018   */\n      dup2\n      iszero\n        /* \"#utility.yul\":13026:13041   */\n      dup3\n      dup3\n      div\n        /* \"#utility.yul\":13020:13042   */\n      dup5\n      eq\n        /* \"#utility.yul\":13006:13043   */\n      or\n        /* \"#utility.yul\":12996:13067   */\n      tag_134\n      jumpi\n        /* \"#utility.yul\":13047:13065   */\n      tag_134\n      tag_446\n      jump\t// in\n        /* \"#utility.yul\":13494:13990   */\n    tag_266:\n        /* \"#utility.yul\":13673:13676   */\n      0x00\n        /* \"#utility.yul\":13711:13717   */\n      dup4\n        /* \"#utility.yul\":13705:13718   */\n      mload\n        /* \"#utility.yul\":13727:13793   */\n      tag_556\n        /* \"#utility.yul\":13786:13792   */\n      dup2\n        /* \"#utility.yul\":13781:13784   */\n      dup5\n        /* \"#utility.yul\":13774:13778   */\n      0x20\n        /* \"#utility.yul\":13766:13772   */\n      dup9\n        /* \"#utility.yul\":13762:13779   */\n      add\n        /* \"#utility.yul\":13727:13793   */\n      tag_440\n      jump\t// in\n    tag_556:\n        /* \"#utility.yul\":13856:13869   */\n      dup4\n      mload\n        /* \"#utility.yul\":13815:13831   */\n      swap1\n      dup4\n      add\n      swap1\n        /* \"#utility.yul\":13878:13948   */\n      tag_557\n        /* \"#utility.yul\":13856:13869   */\n      dup2\n        /* \"#utility.yul\":13815:13831   */\n      dup4\n        /* \"#utility.yul\":13925:13929   */\n      0x20\n        /* \"#utility.yul\":13913:13930   */\n      dup9\n      add\n        /* \"#utility.yul\":13878:13948   */\n      tag_440\n      jump\t// in\n    tag_557:\n        /* \"#utility.yul\":13964:13984   */\n      add\n      swap5\n        /* \"#utility.yul\":13494:13990   */\n      swap4\n      pop\n      pop\n      pop\n      pop\n      jump\t// out\n        /* \"#utility.yul\":15630:15758   */\n    tag_313:\n        /* \"#utility.yul\":15697:15706   */\n      dup2\n      dup2\n      sub\n        /* \"#utility.yul\":15718:15729   */\n      dup2\n      dup2\n      gt\n        /* \"#utility.yul\":15715:15752   */\n      iszero\n      tag_134\n      jumpi\n        /* \"#utility.yul\":15732:15750   */\n      tag_134\n      tag_446\n      jump\t// in\n        /* \"#utility.yul\":15763:15888   */\n    tag_315:\n        /* \"#utility.yul\":15828:15837   */\n      dup1\n      dup3\n      add\n        /* \"#utility.yul\":15849:15859   */\n      dup1\n      dup3\n      gt\n        /* \"#utility.yul\":15846:15882   */\n      iszero\n      tag_134\n      jumpi\n        /* \"#utility.yul\":15862:15880   */\n      tag_134\n      tag_446\n      jump\t// in\n        /* \"#utility.yul\":16247:16661   */\n    tag_331:\n        /* \"#utility.yul\":16449:16451   */\n      0x20\n        /* \"#utility.yul\":16431:16452   */\n      dup1\n      dup3\n      mstore\n        /* \"#utility.yul\":16488:16490   */\n      0x32\n        /* \"#utility.yul\":16468:16486   */\n      swap1\n      dup3\n      add\n        /* \"#utility.yul\":16461:16491   */\n      mstore\n        /* \"#utility.yul\":16527:16561   */\n      0x4552433732313a207472616e7366657220746f206e6f6e204552433732315265\n        /* \"#utility.yul\":16522:16524   */\n      0x40\n        /* \"#utility.yul\":16507:16525   */\n      dup3\n      add\n        /* \"#utility.yul\":16500:16562   */\n      mstore\n      shl(0x71, 0x31b2b4bb32b91034b6b83632b6b2b73a32b9)\n        /* \"#utility.yul\":16593:16595   */\n      0x60\n        /* \"#utility.yul\":16578:16596   */\n      dup3\n      add\n        /* \"#utility.yul\":16571:16619   */\n      mstore\n        /* \"#utility.yul\":16651:16654   */\n      0x80\n        /* \"#utility.yul\":16636:16655   */\n      add\n      swap1\n        /* \"#utility.yul\":16247:16661   */\n      jump\t// out\n        /* \"#utility.yul\":16666:16801   */\n    tag_338:\n        /* \"#utility.yul\":16705:16708   */\n      0x00\n        /* \"#utility.yul\":16726:16743   */\n      0x01\n      dup3\n      add\n        /* \"#utility.yul\":16723:16766   */\n      tag_572\n      jumpi\n        /* \"#utility.yul\":16746:16764   */\n      tag_572\n      tag_446\n      jump\t// in\n    tag_572:\n      pop\n        /* \"#utility.yul\":16793:16794   */\n      0x01\n        /* \"#utility.yul\":16782:16795   */\n      add\n      swap1\n        /* \"#utility.yul\":16666:16801   */\n      jump\t// out\n        /* \"#utility.yul\":16806:16918   */\n    tag_348:\n        /* \"#utility.yul\":16838:16839   */\n      0x00\n        /* \"#utility.yul\":16864:16865   */\n      dup3\n        /* \"#utility.yul\":16854:16889   */\n      tag_575\n      jumpi\n        /* \"#utility.yul\":16869:16887   */\n      tag_575\n      tag_445\n      jump\t// in\n    tag_575:\n      pop\n        /* \"#utility.yul\":16903:16912   */\n      mod\n      swap1\n        /* \"#utility.yul\":16806:16918   */\n      jump\t// out\n        /* \"#utility.yul\":16923:17412   */\n    tag_373:\n      sub(shl(0xa0, 0x01), 0x01)\n        /* \"#utility.yul\":17192:17207   */\n      dup6\n      dup2\n      and\n        /* \"#utility.yul\":17174:17208   */\n      dup3\n      mstore\n        /* \"#utility.yul\":17244:17259   */\n      dup5\n      and\n        /* \"#utility.yul\":17239:17241   */\n      0x20\n        /* \"#utility.yul\":17224:17242   */\n      dup3\n      add\n        /* \"#utility.yul\":17217:17260   */\n      mstore\n        /* \"#utility.yul\":17291:17293   */\n      0x40\n        /* \"#utility.yul\":17276:17294   */\n      dup2\n      add\n        /* \"#utility.yul\":17269:17303   */\n      dup4\n      swap1\n      mstore\n        /* \"#utility.yul\":17339:17342   */\n      0x80\n        /* \"#utility.yul\":17334:17336   */\n      0x60\n        /* \"#utility.yul\":17319:17337   */\n      dup3\n      add\n        /* \"#utility.yul\":17312:17343   */\n      dup2\n      swap1\n      mstore\n        /* \"#utility.yul\":17117:17121   */\n      0x00\n      swap1\n        /* \"#utility.yul\":17360:17406   */\n      tag_577\n      swap1\n        /* \"#utility.yul\":17386:17405   */\n      dup4\n      add\n        /* \"#utility.yul\":17378:17384   */\n      dup5\n        /* \"#utility.yul\":17360:17406   */\n      tag_441\n      jump\t// in\n    tag_577:\n        /* \"#utility.yul\":17352:17406   */\n      swap7\n        /* \"#utility.yul\":16923:17412   */\n      swap6\n      pop\n      pop\n      pop\n      pop\n      pop\n      pop\n      jump\t// out\n        /* \"#utility.yul\":17417:17666   */\n    tag_376:\n        /* \"#utility.yul\":17486:17492   */\n      0x00\n        /* \"#utility.yul\":17539:17541   */\n      0x20\n        /* \"#utility.yul\":17527:17536   */\n      dup3\n        /* \"#utility.yul\":17518:17525   */\n      dup5\n        /* \"#utility.yul\":17514:17537   */\n      sub\n        /* \"#utility.yul\":17510:17542   */\n      slt\n        /* \"#utility.yul\":17507:17559   */\n      iszero\n      tag_579\n      jumpi\n        /* \"#utility.yul\":17555:17556   */\n      0x00\n        /* \"#utility.yul\":17552:17553   */\n      dup1\n        /* \"#utility.yul\":17545:17557   */\n      revert\n        /* \"#utility.yul\":17507:17559   */\n    tag_579:\n        /* \"#utility.yul\":17587:17596   */\n      dup2\n        /* \"#utility.yul\":17581:17597   */\n      mload\n        /* \"#utility.yul\":17606:17636   */\n      tag_262\n        /* \"#utility.yul\":17630:17635   */\n      dup2\n        /* \"#utility.yul\":17606:17636   */\n      tag_438\n      jump\t// in\n        /* \"#utility.yul\":18389:18516   */\n    tag_434:\n        /* \"#utility.yul\":18450:18460   */\n      0x4e487b71\n        /* \"#utility.yul\":18445:18448   */\n      0xe0\n        /* \"#utility.yul\":18441:18461   */\n      shl\n        /* \"#utility.yul\":18438:18439   */\n      0x00\n        /* \"#utility.yul\":18431:18462   */\n      mstore\n        /* \"#utility.yul\":18481:18485   */\n      0x31\n        /* \"#utility.yul\":18478:18479   */\n      0x04\n        /* \"#utility.yul\":18471:18486   */\n      mstore\n        /* \"#utility.yul\":18505:18509   */\n      0x24\n        /* \"#utility.yul\":18502:18503   */\n      0x00\n        /* \"#utility.yul\":18495:18510   */\n      revert\n\n    auxdata: 0xa2646970667358221220b27d2c3330a3d62e8f22e799132243b20fb4b3bba8d67757f124022e5b4d171764736f6c63430008120033\n}\n",
				"bytecode": {
					"linkReferences": {},
					"object": "60806040523480156200001157600080fd5b50604051620022223803806200222283398101604081905262000034916200018e565b6040518060400160405280600781526020016626bcaa37b5b2b760c91b815250604051806040016040528060038152602001624d544b60e81b815250816000908162000081919062000313565b50600162000090828262000313565b505050620000ad620000a76200012260201b60201c565b62000126565b600c80546001600160601b0319166001600160601b038416179055620000db600a546001600160a01b031690565b600c80546001600160a01b03929092166c01000000000000000000000000026001600160601b03909216919091179055600b62000119828262000313565b505050620003df565b3390565b600a80546001600160a01b038381166001600160a01b0319831681179093556040519116919082907f8be0079c531659141344cd1fd0a4f28419497f9722a3daafe3b4186f6b6457e090600090a35050565b634e487b7160e01b600052604160045260246000fd5b60008060408385031215620001a257600080fd5b82516001600160601b0381168114620001ba57600080fd5b602084810151919350906001600160401b0380821115620001da57600080fd5b818601915086601f830112620001ef57600080fd5b81518181111562000204576200020462000178565b604051601f8201601f19908116603f011681019083821181831017156200022f576200022f62000178565b8160405282815289868487010111156200024857600080fd5b600093505b828410156200026c57848401860151818501870152928501926200024d565b60008684830101528096505050505050509250929050565b600181811c908216806200029957607f821691505b602082108103620002ba57634e487b7160e01b600052602260045260246000fd5b50919050565b601f8211156200030e57600081815260208120601f850160051c81016020861015620002e95750805b601f850160051c820191505b818110156200030a57828155600101620002f5565b5050505b505050565b81516001600160401b038111156200032f576200032f62000178565b620003478162000340845462000284565b84620002c0565b602080601f8311600181146200037f5760008415620003665750858301515b600019600386901b1c1916600185901b1785556200030a565b600085815260208120601f198616915b82811015620003b0578886015182559484019460019091019084016200038f565b5085821015620003cf5787850151600019600388901b60f8161c191681555b5050505050600190811b01905550565b611e3380620003ef6000396000f3fe608060405234801561001057600080fd5b50600436106101735760003560e01c806370a08231116100de578063a22cb46511610097578063c87b56dd11610071578063c87b56dd1461033e578063e8a3d48514610351578063e985e9c514610359578063f2fde38b1461039557600080fd5b8063a22cb46514610305578063a2e6961314610318578063b88d4fde1461032b57600080fd5b806370a08231146102ab578063715018a6146102be5780638da5cb5b146102c6578063938e3d7b146102d757806395d89b41146102ea578063a1448194146102f257600080fd5b806323b872dd1161013057806323b872dd1461021a5780632a55205a1461022d5780632f745c591461025f57806342842e0e146102725780634f6ccce7146102855780636352211e1461029857600080fd5b806301ffc9a71461017857806302fa7c47146101a057806306fdde03146101b5578063081812fc146101ca578063095ea7b3146101f557806318160ddd14610208575b600080fd5b61018b61018636600461171a565b6103a8565b60405190151581526020015b60405180910390f35b6101b36101ae366004611753565b6103d3565b005b6101bd610435565b60405161019791906117e6565b6101dd6101d83660046117f9565b6104c7565b6040516001600160a01b039091168152602001610197565b6101b3610203366004611812565b61055c565b6008545b604051908152602001610197565b6101b361022836600461183c565b610671565b61024061023b366004611878565b6106a2565b604080516001600160a01b039093168352602083019190915201610197565b61020c61026d366004611812565b6106cd565b6101b361028036600461183c565b610763565b61020c6102933660046117f9565b61077e565b6101dd6102a63660046117f9565b610811565b61020c6102b936600461189a565b610888565b6101b361090f565b600a546001600160a01b03166101dd565b6101b36102e53660046118b5565b610945565b6101bd61097c565b6101b3610300366004611812565b61098b565b6101b3610313366004611927565b6109c3565b61020c6103263660046117f9565b6109ce565b6101b361033936600461196e565b6109f3565b6101bd61034c3660046117f9565b610a2b565b6101bd610b13565b61018b610367366004611a4a565b6001600160a01b03918216600090815260056020908152604080832093909416825291909152205460ff1690565b6101b36103a336600461189a565b610ba1565b600063152a902d60e11b6001600160e01b0319831614806103cd57506103cd82610c3c565b92915050565b600a546001600160a01b031633146104065760405162461bcd60e51b81526004016103fd90611a7d565b60405180910390fd5b6001600160601b03166001600160a01b03909116600160601b026bffffffffffffffffffffffff191617600c55565b60606000805461044490611ab2565b80601f016020809104026020016040519081016040528092919081815260200182805461047090611ab2565b80156104bd5780601f10610492576101008083540402835291602001916104bd565b820191906000526020600020905b8154815290600101906020018083116104a057829003601f168201915b5050505050905090565b6000818152600260205260408120546001600160a01b03166105405760405162461bcd60e51b815260206004820152602c60248201527f4552433732313a20617070726f76656420717565727920666f72206e6f6e657860448201526b34b9ba32b73a103a37b5b2b760a11b60648201526084016103fd565b506000908152600460205260409020546001600160a01b031690565b600061056782610811565b9050806001600160a01b0316836001600160a01b0316036105d45760405162461bcd60e51b815260206004820152602160248201527f4552433732313a20617070726f76616c20746f2063757272656e74206f776e656044820152603960f91b60648201526084016103fd565b336001600160a01b03821614806105f057506105f08133610367565b6106625760405162461bcd60e51b815260206004820152603860248201527f4552433732313a20617070726f76652063616c6c6572206973206e6f74206f7760448201527f6e6572206e6f7220617070726f76656420666f7220616c6c000000000000000060648201526084016103fd565b61066c8383610c61565b505050565b61067b3382610ccf565b6106975760405162461bcd60e51b81526004016103fd90611aec565b61066c838383610dc6565b600080600c8054906101000a90046001600160a01b03166106c2846109ce565b915091509250929050565b60006106d883610888565b821061073a5760405162461bcd60e51b815260206004820152602b60248201527f455243373231456e756d657261626c653a206f776e657220696e646578206f7560448201526a74206f6620626f756e647360a81b60648201526084016103fd565b506001600160a01b03919091166000908152600660209081526040808320938352929052205490565b61066c838383604051806020016040528060008152506109f3565b600061078960085490565b82106107ec5760405162461bcd60e51b815260206004820152602c60248201527f455243373231456e756d657261626c653a20676c6f62616c20696e646578206f60448201526b7574206f6620626f756e647360a01b60648201526084016103fd565b600882815481106107ff576107ff611b3d565b90600052602060002001549050919050565b6000818152600260205260408120546001600160a01b0316806103cd5760405162461bcd60e51b815260206004820152602960248201527f4552433732313a206f776e657220717565727920666f72206e6f6e657869737460448201526832b73a103a37b5b2b760b91b60648201526084016103fd565b60006001600160a01b0382166108f35760405162461bcd60e51b815260206004820152602a60248201527f4552433732313a2062616c616e636520717565727920666f7220746865207a65604482015269726f206164647265737360b01b60648201526084016103fd565b506001600160a01b031660009081526003602052604090205490565b600a546001600160a01b031633146109395760405162461bcd60e51b81526004016103fd90611a7d565b6109436000610f71565b565b600a546001600160a01b0316331461096f5760405162461bcd60e51b81526004016103fd90611a7d565b600b61066c828483611ba1565b60606001805461044490611ab2565b600a546001600160a01b031633146109b55760405162461bcd60e51b81526004016103fd90611a7d565b6109bf8282610fc3565b5050565b6109bf338383610fdd565b600c546000906001600160601b03166109e961271084611c8e565b6103cd9190611ca2565b6109fd3383610ccf565b610a195760405162461bcd60e51b81526004016103fd90611aec565b610a25848484846110ab565b50505050565b6000818152600260205260409020546060906001600160a01b0316610aaa5760405162461bcd60e51b815260206004820152602f60248201527f4552433732314d657461646174613a2055524920717565727920666f72206e6f60448201526e3732bc34b9ba32b73a103a37b5b2b760891b60648201526084016103fd565b6000610ac160408051602081019091526000815290565b90506000815111610ae15760405180602001604052806000815250610b0c565b80610aeb846110de565b604051602001610afc929190611cb9565b6040516020818303038152906040525b9392505050565b600b8054610b2090611ab2565b80601f0160208091040260200160405190810160405280929190818152602001828054610b4c90611ab2565b8015610b995780601f10610b6e57610100808354040283529160200191610b99565b820191906000526020600020905b815481529060010190602001808311610b7c57829003601f168201915b505050505081565b600a546001600160a01b03163314610bcb5760405162461bcd60e51b81526004016103fd90611a7d565b6001600160a01b038116610c305760405162461bcd60e51b815260206004820152602660248201527f4f776e61626c653a206e6577206f776e657220697320746865207a65726f206160448201526564647265737360d01b60648201526084016103fd565b610c3981610f71565b50565b60006001600160e01b0319821663780e9d6360e01b14806103cd57506103cd826111df565b600081815260046020526040902080546001600160a01b0319166001600160a01b0384169081179091558190610c9682610811565b6001600160a01b03167f8c5be1e5ebec7d5bd14f71427d1e84f3dd0314c0f7b2291e5b200ac8c7c3b92560405160405180910390a45050565b6000818152600260205260408120546001600160a01b0316610d485760405162461bcd60e51b815260206004820152602c60248201527f4552433732313a206f70657261746f7220717565727920666f72206e6f6e657860448201526b34b9ba32b73a103a37b5b2b760a11b60648201526084016103fd565b6000610d5383610811565b9050806001600160a01b0316846001600160a01b03161480610d8e5750836001600160a01b0316610d83846104c7565b6001600160a01b0316145b80610dbe57506001600160a01b0380821660009081526005602090815260408083209388168352929052205460ff165b949350505050565b826001600160a01b0316610dd982610811565b6001600160a01b031614610e415760405162461bcd60e51b815260206004820152602960248201527f4552433732313a207472616e73666572206f6620746f6b656e2074686174206960448201526839903737ba1037bbb760b91b60648201526084016103fd565b6001600160a01b038216610ea35760405162461bcd60e51b8152602060048201526024808201527f4552433732313a207472616e7366657220746f20746865207a65726f206164646044820152637265737360e01b60648201526084016103fd565b610eae83838361122f565b610eb9600082610c61565b6001600160a01b0383166000908152600360205260408120805460019290610ee2908490611ce8565b90915550506001600160a01b0382166000908152600360205260408120805460019290610f10908490611cfb565b909155505060008181526002602052604080822080546001600160a01b0319166001600160a01b0386811691821790925591518493918716917fddf252ad1be2c89b69c2b068fc378daa952ba7f163c4a11628f55a4df523b3ef91a4505050565b600a80546001600160a01b038381166001600160a01b0319831681179093556040519116919082907f8be0079c531659141344cd1fd0a4f28419497f9722a3daafe3b4186f6b6457e090600090a35050565b6109bf82826040518060200160405280600081525061123a565b816001600160a01b0316836001600160a01b03160361103e5760405162461bcd60e51b815260206004820152601960248201527f4552433732313a20617070726f766520746f2063616c6c65720000000000000060448201526064016103fd565b6001600160a01b03838116600081815260056020908152604080832094871680845294825291829020805460ff191686151590811790915591519182527f17307eab39ab6107e8899845ad3d59bd9653f200f220920489ca2b5937696c31910160405180910390a3505050565b6110b6848484610dc6565b6110c28484848461126d565b610a255760405162461bcd60e51b81526004016103fd90611d0e565b6060816000036111055750506040805180820190915260018152600360fc1b602082015290565b8160005b811561112f578061111981611d60565b91506111289050600a83611c8e565b9150611109565b60008167ffffffffffffffff81111561114a5761114a611958565b6040519080825280601f01601f191660200182016040528015611174576020820181803683370190505b5090505b8415610dbe57611189600183611ce8565b9150611196600a86611d79565b6111a1906030611cfb565b60f81b8183815181106111b6576111b6611b3d565b60200101906001600160f81b031916908160001a9053506111d8600a86611c8e565b9450611178565b60006001600160e01b031982166380ac58cd60e01b148061121057506001600160e01b03198216635b5e139f60e01b145b806103cd57506301ffc9a760e01b6001600160e01b03198316146103cd565b61066c83838361136e565b6112448383611426565b611251600084848461126d565b61066c5760405162461bcd60e51b81526004016103fd90611d0e565b60006001600160a01b0384163b1561136357604051630a85bd0160e11b81526001600160a01b0385169063150b7a02906112b1903390899088908890600401611d8d565b6020604051808303816000875af19250505080156112ec575060408051601f3d908101601f191682019092526112e991810190611dca565b60015b611349573d80801561131a576040519150601f19603f3d011682016040523d82523d6000602084013e61131f565b606091505b5080516000036113415760405162461bcd60e51b81526004016103fd90611d0e565b805181602001fd5b6001600160e01b031916630a85bd0160e11b149050610dbe565b506001949350505050565b6001600160a01b0383166113c9576113c481600880546000838152600960205260408120829055600182018355919091527ff3f7a9fe364faab93b216da50a3214154f22a0a2b415b23a84c8169e8b636ee30155565b6113ec565b816001600160a01b0316836001600160a01b0316146113ec576113ec8382611574565b6001600160a01b0382166114035761066c81611611565b826001600160a01b0316826001600160a01b03161461066c5761066c82826116c0565b6001600160a01b03821661147c5760405162461bcd60e51b815260206004820181905260248201527f4552433732313a206d696e7420746f20746865207a65726f206164647265737360448201526064016103fd565b6000818152600260205260409020546001600160a01b0316156114e15760405162461bcd60e51b815260206004820152601c60248201527f4552433732313a20746f6b656e20616c7265616479206d696e7465640000000060448201526064016103fd565b6114ed6000838361122f565b6001600160a01b0382166000908152600360205260408120805460019290611516908490611cfb565b909155505060008181526002602052604080822080546001600160a01b0319166001600160a01b03861690811790915590518392907fddf252ad1be2c89b69c2b068fc378daa952ba7f163c4a11628f55a4df523b3ef908290a45050565b6000600161158184610888565b61158b9190611ce8565b6000838152600760205260409020549091508082146115de576001600160a01b03841660009081526006602090815260408083208584528252808320548484528184208190558352600790915290208190555b5060009182526007602090815260408084208490556001600160a01b039094168352600681528383209183525290812055565b60085460009061162390600190611ce8565b6000838152600960205260408120546008805493945090928490811061164b5761164b611b3d565b90600052602060002001549050806008838154811061166c5761166c611b3d565b60009182526020808320909101929092558281526009909152604080822084905585825281205560088054806116a4576116a4611de7565b6001900381819060005260206000200160009055905550505050565b60006116cb83610888565b6001600160a01b039093166000908152600660209081526040808320868452825280832085905593825260079052919091209190915550565b6001600160e01b031981168114610c3957600080fd5b60006020828403121561172c57600080fd5b8135610b0c81611704565b80356001600160a01b038116811461174e57600080fd5b919050565b6000806040838503121561176657600080fd5b61176f83611737565b915060208301356001600160601b038116811461178b57600080fd5b809150509250929050565b60005b838110156117b1578181015183820152602001611799565b50506000910152565b600081518084526117d2816020860160208601611796565b601f01601f19169290920160200192915050565b602081526000610b0c60208301846117ba565b60006020828403121561180b57600080fd5b5035919050565b6000806040838503121561182557600080fd5b61182e83611737565b946020939093013593505050565b60008060006060848603121561185157600080fd5b61185a84611737565b925061186860208501611737565b9150604084013590509250925092565b6000806040838503121561188b57600080fd5b50508035926020909101359150565b6000602082840312156118ac57600080fd5b610b0c82611737565b600080602083850312156118c857600080fd5b823567ffffffffffffffff808211156118e057600080fd5b818501915085601f8301126118f457600080fd5b81358181111561190357600080fd5b86602082850101111561191557600080fd5b60209290920196919550909350505050565b6000806040838503121561193a57600080fd5b61194383611737565b91506020830135801515811461178b57600080fd5b634e487b7160e01b600052604160045260246000fd5b6000806000806080858703121561198457600080fd5b61198d85611737565b935061199b60208601611737565b925060408501359150606085013567ffffffffffffffff808211156119bf57600080fd5b818701915087601f8301126119d357600080fd5b8135818111156119e5576119e5611958565b604051601f8201601f19908116603f01168101908382118183101715611a0d57611a0d611958565b816040528281528a6020848701011115611a2657600080fd5b82602086016020830137600060208483010152809550505050505092959194509250565b60008060408385031215611a5d57600080fd5b611a6683611737565b9150611a7460208401611737565b90509250929050565b6020808252818101527f4f776e61626c653a2063616c6c6572206973206e6f7420746865206f776e6572604082015260600190565b600181811c90821680611ac657607f821691505b602082108103611ae657634e487b7160e01b600052602260045260246000fd5b50919050565b60208082526031908201527f4552433732313a207472616e736665722063616c6c6572206973206e6f74206f6040820152701ddb995c881b9bdc88185c1c1c9bdd9959607a1b606082015260800190565b634e487b7160e01b600052603260045260246000fd5b601f82111561066c57600081815260208120601f850160051c81016020861015611b7a5750805b601f850160051c820191505b81811015611b9957828155600101611b86565b505050505050565b67ffffffffffffffff831115611bb957611bb9611958565b611bcd83611bc78354611ab2565b83611b53565b6000601f841160018114611c015760008515611be95750838201355b600019600387901b1c1916600186901b178355611c5b565b600083815260209020601f19861690835b82811015611c325786850135825560209485019460019092019101611c12565b5086821015611c4f5760001960f88860031b161c19848701351681555b505060018560011b0183555b5050505050565b634e487b7160e01b600052601260045260246000fd5b634e487b7160e01b600052601160045260246000fd5b600082611c9d57611c9d611c62565b500490565b80820281158282048414176103cd576103cd611c78565b60008351611ccb818460208801611796565b835190830190611cdf818360208801611796565b01949350505050565b818103818111156103cd576103cd611c78565b808201808211156103cd576103cd611c78565b60208082526032908201527f4552433732313a207472616e7366657220746f206e6f6e20455243373231526560408201527131b2b4bb32b91034b6b83632b6b2b73a32b960711b606082015260800190565b600060018201611d7257611d72611c78565b5060010190565b600082611d8857611d88611c62565b500690565b6001600160a01b0385811682528416602082015260408101839052608060608201819052600090611dc0908301846117ba565b9695505050505050565b600060208284031215611ddc57600080fd5b8151610b0c81611704565b634e487b7160e01b600052603160045260246000fdfea2646970667358221220b27d2c3330a3d62e8f22e799132243b20fb4b3bba8d67757f124022e5b4d171764736f6c63430008120033",
					"opcodes": "PUSH1 0x80 PUSH1 0x40 MSTORE CALLVALUE DUP1 ISZERO PUSH3 0x11 JUMPI PUSH1 0x0 DUP1 REVERT JUMPDEST POP PUSH1 0x40 MLOAD PUSH3 0x2222 CODESIZE SUB DUP1 PUSH3 0x2222 DUP4 CODECOPY DUP2 ADD PUSH1 0x40 DUP2 SWAP1 MSTORE PUSH3 0x34 SWAP2 PUSH3 0x18E JUMP JUMPDEST PUSH1 0x40 MLOAD DUP1 PUSH1 0x40 ADD PUSH1 0x40 MSTORE DUP1 PUSH1 0x7 DUP2 MSTORE PUSH1 0x20 ADD PUSH7 0x26BCAA37B5B2B7 PUSH1 0xC9 SHL DUP2 MSTORE POP PUSH1 0x40 MLOAD DUP1 PUSH1 0x40 ADD PUSH1 0x40 MSTORE DUP1 PUSH1 0x3 DUP2 MSTORE PUSH1 0x20 ADD PUSH3 0x4D544B PUSH1 0xE8 SHL DUP2 MSTORE POP DUP2 PUSH1 0x0 SWAP1 DUP2 PUSH3 0x81 SWAP2 SWAP1 PUSH3 0x313 JUMP JUMPDEST POP PUSH1 0x1 PUSH3 0x90 DUP3 DUP3 PUSH3 0x313 JUMP JUMPDEST POP POP POP PUSH3 0xAD PUSH3 0xA7 PUSH3 0x122 PUSH1 0x20 SHL PUSH1 0x20 SHR JUMP JUMPDEST PUSH3 0x126 JUMP JUMPDEST PUSH1 0xC DUP1 SLOAD PUSH1 0x1 PUSH1 0x1 PUSH1 0x60 SHL SUB NOT AND PUSH1 0x1 PUSH1 0x1 PUSH1 0x60 SHL SUB DUP5 AND OR SWAP1 SSTORE PUSH3 0xDB PUSH1 0xA SLOAD PUSH1 0x1 PUSH1 0x1 PUSH1 0xA0 SHL SUB AND SWAP1 JUMP JUMPDEST PUSH1 0xC DUP1 SLOAD PUSH1 0x1 PUSH1 0x1 PUSH1 0xA0 SHL SUB SWAP3 SWAP1 SWAP3 AND PUSH13 0x1000000000000000000000000 MUL PUSH1 0x1 PUSH1 0x1 PUSH1 0x60 SHL SUB SWAP1 SWAP3 AND SWAP2 SWAP1 SWAP2 OR SWAP1 SSTORE PUSH1 0xB PUSH3 0x119 DUP3 DUP3 PUSH3 0x313 JUMP JUMPDEST POP POP POP PUSH3 0x3DF JUMP JUMPDEST CALLER SWAP1 JUMP JUMPDEST PUSH1 0xA DUP1 SLOAD PUSH1 0x1 PUSH1 0x1 PUSH1 0xA0 SHL SUB DUP4 DUP2 AND PUSH1 0x1 PUSH1 0x1 PUSH1 0xA0 SHL SUB NOT DUP4 AND DUP2 OR SWAP1 SWAP4 SSTORE PUSH1 0x40 MLOAD SWAP2 AND SWAP2 SWAP1 DUP3 SWAP1 PUSH32 0x8BE0079C531659141344CD1FD0A4F28419497F9722A3DAAFE3B4186F6B6457E0 SWAP1 PUSH1 0x0 SWAP1 LOG3 POP POP JUMP JUMPDEST PUSH4 0x4E487B71 PUSH1 0xE0 SHL PUSH1 0x0 MSTORE PUSH1 0x41 PUSH1 0x4 MSTORE PUSH1 0x24 PUSH1 0x0 REVERT JUMPDEST PUSH1 0x0 DUP1 PUSH1 0x40 DUP4 DUP6 SUB SLT ISZERO PUSH3 0x1A2 JUMPI PUSH1 0x0 DUP1 REVERT JUMPDEST DUP3 MLOAD PUSH1 0x1 PUSH1 0x1 PUSH1 0x60 SHL SUB DUP2 AND DUP2 EQ PUSH3 0x1BA JUMPI PUSH1 0x0 DUP1 REVERT JUMPDEST PUSH1 0x20 DUP5 DUP2 ADD MLOAD SWAP2 SWAP4 POP SWAP1 PUSH1 0x1 PUSH1 0x1 PUSH1 0x40 SHL SUB DUP1 DUP3 GT ISZERO PUSH3 0x1DA JUMPI PUSH1 0x0 DUP1 REVERT JUMPDEST DUP2 DUP7 ADD SWAP2 POP DUP7 PUSH1 0x1F DUP4 ADD SLT PUSH3 0x1EF JUMPI PUSH1 0x0 DUP1 REVERT JUMPDEST DUP2 MLOAD DUP2 DUP2 GT ISZERO PUSH3 0x204 JUMPI PUSH3 0x204 PUSH3 0x178 JUMP JUMPDEST PUSH1 0x40 MLOAD PUSH1 0x1F DUP3 ADD PUSH1 0x1F NOT SWAP1 DUP2 AND PUSH1 0x3F ADD AND DUP2 ADD SWAP1 DUP4 DUP3 GT DUP2 DUP4 LT OR ISZERO PUSH3 0x22F JUMPI PUSH3 0x22F PUSH3 0x178 JUMP JUMPDEST DUP2 PUSH1 0x40 MSTORE DUP3 DUP2 MSTORE DUP10 DUP7 DUP5 DUP8 ADD ADD GT ISZERO PUSH3 0x248 JUMPI PUSH1 0x0 DUP1 REVERT JUMPDEST PUSH1 0x0 SWAP4 POP JUMPDEST DUP3 DUP5 LT ISZERO PUSH3 0x26C JUMPI DUP5 DUP5 ADD DUP7 ADD MLOAD DUP2 DUP6 ADD DUP8 ADD MSTORE SWAP3 DUP6 ADD SWAP3 PUSH3 0x24D JUMP JUMPDEST PUSH1 0x0 DUP7 DUP5 DUP4 ADD ADD MSTORE DUP1 SWAP7 POP POP POP POP POP POP POP SWAP3 POP SWAP3 SWAP1 POP JUMP JUMPDEST PUSH1 0x1 DUP2 DUP2 SHR SWAP1 DUP3 AND DUP1 PUSH3 0x299 JUMPI PUSH1 0x7F DUP3 AND SWAP2 POP JUMPDEST PUSH1 0x20 DUP3 LT DUP2 SUB PUSH3 0x2BA JUMPI PUSH4 0x4E487B71 PUSH1 0xE0 SHL PUSH1 0x0 MSTORE PUSH1 0x22 PUSH1 0x4 MSTORE PUSH1 0x24 PUSH1 0x0 REVERT JUMPDEST POP SWAP2 SWAP1 POP JUMP JUMPDEST PUSH1 0x1F DUP3 GT ISZERO PUSH3 0x30E JUMPI PUSH1 0x0 DUP2 DUP2 MSTORE PUSH1 0x20 DUP2 KECCAK256 PUSH1 0x1F DUP6 ADD PUSH1 0x5 SHR DUP2 ADD PUSH1 0x20 DUP7 LT ISZERO PUSH3 0x2E9 JUMPI POP DUP1 JUMPDEST PUSH1 0x1F DUP6 ADD PUSH1 0x5 SHR DUP3 ADD SWAP2 POP JUMPDEST DUP2 DUP2 LT ISZERO PUSH3 0x30A JUMPI DUP3 DUP2 SSTORE PUSH1 0x1 ADD PUSH3 0x2F5 JUMP JUMPDEST POP POP POP JUMPDEST POP POP POP JUMP JUMPDEST DUP2 MLOAD PUSH1 0x1 PUSH1 0x1 PUSH1 0x40 SHL SUB DUP2 GT ISZERO PUSH3 0x32F JUMPI PUSH3 0x32F PUSH3 0x178 JUMP JUMPDEST PUSH3 0x347 DUP2 PUSH3 0x340 DUP5 SLOAD PUSH3 0x284 JUMP JUMPDEST DUP5 PUSH3 0x2C0 JUMP JUMPDEST PUSH1 0x20 DUP1 PUSH1 0x1F DUP4 GT PUSH1 0x1 DUP2 EQ PUSH3 0x37F JUMPI PUSH1 0x0 DUP5 ISZERO PUSH3 0x366 JUMPI POP DUP6 DUP4 ADD MLOAD JUMPDEST PUSH1 0x0 NOT PUSH1 0x3 DUP7 SWAP1 SHL SHR NOT AND PUSH1 0x1 DUP6 SWAP1 SHL OR DUP6 SSTORE PUSH3 0x30A JUMP JUMPDEST PUSH1 0x0 DUP6 DUP2 MSTORE PUSH1 0x20 DUP2 KECCAK256 PUSH1 0x1F NOT DUP7 AND SWAP2 JUMPDEST DUP3 DUP2 LT ISZERO PUSH3 0x3B0 JUMPI DUP9 DUP7 ADD MLOAD DUP3 SSTORE SWAP5 DUP5 ADD SWAP5 PUSH1 0x1 SWAP1 SWAP2 ADD SWAP1 DUP5 ADD PUSH3 0x38F JUMP JUMPDEST POP DUP6 DUP3 LT ISZERO PUSH3 0x3CF JUMPI DUP8 DUP6 ADD MLOAD PUSH1 0x0 NOT PUSH1 0x3 DUP9 SWAP1 SHL PUSH1 0xF8 AND SHR NOT AND DUP2 SSTORE JUMPDEST POP POP POP POP POP PUSH1 0x1 SWAP1 DUP2 SHL ADD SWAP1 SSTORE POP JUMP JUMPDEST PUSH2 0x1E33 DUP1 PUSH3 0x3EF PUSH1 0x0 CODECOPY PUSH1 0x0 RETURN INVALID PUSH1 0x80 PUSH1 0x40 MSTORE CALLVALUE DUP1 ISZERO PUSH2 0x10 JUMPI PUSH1 0x0 DUP1 REVERT JUMPDEST POP PUSH1 0x4 CALLDATASIZE LT PUSH2 0x173 JUMPI PUSH1 0x0 CALLDATALOAD PUSH1 0xE0 SHR DUP1 PUSH4 0x70A08231 GT PUSH2 0xDE JUMPI DUP1 PUSH4 0xA22CB465 GT PUSH2 0x97 JUMPI DUP1 PUSH4 0xC87B56DD GT PUSH2 0x71 JUMPI DUP1 PUSH4 0xC87B56DD EQ PUSH2 0x33E JUMPI DUP1 PUSH4 0xE8A3D485 EQ PUSH2 0x351 JUMPI DUP1 PUSH4 0xE985E9C5 EQ PUSH2 0x359 JUMPI DUP1 PUSH4 0xF2FDE38B EQ PUSH2 0x395 JUMPI PUSH1 0x0 DUP1 REVERT JUMPDEST DUP1 PUSH4 0xA22CB465 EQ PUSH2 0x305 JUMPI DUP1 PUSH4 0xA2E69613 EQ PUSH2 0x318 JUMPI DUP1 PUSH4 0xB88D4FDE EQ PUSH2 0x32B JUMPI PUSH1 0x0 DUP1 REVERT JUMPDEST DUP1 PUSH4 0x70A08231 EQ PUSH2 0x2AB JUMPI DUP1 PUSH4 0x715018A6 EQ PUSH2 0x2BE JUMPI DUP1 PUSH4 0x8DA5CB5B EQ PUSH2 0x2C6 JUMPI DUP1 PUSH4 0x938E3D7B EQ PUSH2 0x2D7 JUMPI DUP1 PUSH4 0x95D89B41 EQ PUSH2 0x2EA JUMPI DUP1 PUSH4 0xA1448194 EQ PUSH2 0x2F2 JUMPI PUSH1 0x0 DUP1 REVERT JUMPDEST DUP1 PUSH4 0x23B872DD GT PUSH2 0x130 JUMPI DUP1 PUSH4 0x23B872DD EQ PUSH2 0x21A JUMPI DUP1 PUSH4 0x2A55205A EQ PUSH2 0x22D JUMPI DUP1 PUSH4 0x2F745C59 EQ PUSH2 0x25F JUMPI DUP1 PUSH4 0x42842E0E EQ PUSH2 0x272 JUMPI DUP1 PUSH4 0x4F6CCCE7 EQ PUSH2 0x285 JUMPI DUP1 PUSH4 0x6352211E EQ PUSH2 0x298 JUMPI PUSH1 0x0 DUP1 REVERT JUMPDEST DUP1 PUSH4 0x1FFC9A7 EQ PUSH2 0x178 JUMPI DUP1 PUSH4 0x2FA7C47 EQ PUSH2 0x1A0 JUMPI DUP1 PUSH4 0x6FDDE03 EQ PUSH2 0x1B5 JUMPI DUP1 PUSH4 0x81812FC EQ PUSH2 0x1CA JUMPI DUP1 PUSH4 0x95EA7B3 EQ PUSH2 0x1F5 JUMPI DUP1 PUSH4 0x18160DDD EQ PUSH2 0x208 JUMPI JUMPDEST PUSH1 0x0 DUP1 REVERT JUMPDEST PUSH2 0x18B PUSH2 0x186 CALLDATASIZE PUSH1 0x4 PUSH2 0x171A JUMP JUMPDEST PUSH2 0x3A8 JUMP JUMPDEST PUSH1 0x40 MLOAD SWAP1 ISZERO ISZERO DUP2 MSTORE PUSH1 0x20 ADD JUMPDEST PUSH1 0x40 MLOAD DUP1 SWAP2 SUB SWAP1 RETURN JUMPDEST PUSH2 0x1B3 PUSH2 0x1AE CALLDATASIZE PUSH1 0x4 PUSH2 0x1753 JUMP JUMPDEST PUSH2 0x3D3 JUMP JUMPDEST STOP JUMPDEST PUSH2 0x1BD PUSH2 0x435 JUMP JUMPDEST PUSH1 0x40 MLOAD PUSH2 0x197 SWAP2 SWAP1 PUSH2 0x17E6 JUMP JUMPDEST PUSH2 0x1DD PUSH2 0x1D8 CALLDATASIZE PUSH1 0x4 PUSH2 0x17F9 JUMP JUMPDEST PUSH2 0x4C7 JUMP JUMPDEST PUSH1 0x40 MLOAD PUSH1 0x1 PUSH1 0x1 PUSH1 0xA0 SHL SUB SWAP1 SWAP2 AND DUP2 MSTORE PUSH1 0x20 ADD PUSH2 0x197 JUMP JUMPDEST PUSH2 0x1B3 PUSH2 0x203 CALLDATASIZE PUSH1 0x4 PUSH2 0x1812 JUMP JUMPDEST PUSH2 0x55C JUMP JUMPDEST PUSH1 0x8 SLOAD JUMPDEST PUSH1 0x40 MLOAD SWAP1 DUP2 MSTORE PUSH1 0x20 ADD PUSH2 0x197 JUMP JUMPDEST PUSH2 0x1B3 PUSH2 0x228 CALLDATASIZE PUSH1 0x4 PUSH2 0x183C JUMP JUMPDEST PUSH2 0x671 JUMP JUMPDEST PUSH2 0x240 PUSH2 0x23B CALLDATASIZE PUSH1 0x4 PUSH2 0x1878 JUMP JUMPDEST PUSH2 0x6A2 JUMP JUMPDEST PUSH1 0x40 DUP1 MLOAD PUSH1 0x1 PUSH1 0x1 PUSH1 0xA0 SHL SUB SWAP1 SWAP4 AND DUP4 MSTORE PUSH1 0x20 DUP4 ADD SWAP2 SWAP1 SWAP2 MSTORE ADD PUSH2 0x197 JUMP JUMPDEST PUSH2 0x20C PUSH2 0x26D CALLDATASIZE PUSH1 0x4 PUSH2 0x1812 JUMP JUMPDEST PUSH2 0x6CD JUMP JUMPDEST PUSH2 0x1B3 PUSH2 0x280 CALLDATASIZE PUSH1 0x4 PUSH2 0x183C JUMP JUMPDEST PUSH2 0x763 JUMP JUMPDEST PUSH2 0x20C PUSH2 0x293 CALLDATASIZE PUSH1 0x4 PUSH2 0x17F9 JUMP JUMPDEST PUSH2 0x77E JUMP JUMPDEST PUSH2 0x1DD PUSH2 0x2A6 CALLDATASIZE PUSH1 0x4 PUSH2 0x17F9 JUMP JUMPDEST PUSH2 0x811 JUMP JUMPDEST PUSH2 0x20C PUSH2 0x2B9 CALLDATASIZE PUSH1 0x4 PUSH2 0x189A JUMP JUMPDEST PUSH2 0x888 JUMP JUMPDEST PUSH2 0x1B3 PUSH2 0x90F JUMP JUMPDEST PUSH1 0xA SLOAD PUSH1 0x1 PUSH1 0x1 PUSH1 0xA0 SHL SUB AND PUSH2 0x1DD JUMP JUMPDEST PUSH2 0x1B3 PUSH2 0x2E5 CALLDATASIZE PUSH1 0x4 PUSH2 0x18B5 JUMP JUMPDEST PUSH2 0x945 JUMP JUMPDEST PUSH2 0x1BD PUSH2 0x97C JUMP JUMPDEST PUSH2 0x1B3 PUSH2 0x300 CALLDATASIZE PUSH1 0x4 PUSH2 0x1812 JUMP JUMPDEST PUSH2 0x98B JUMP JUMPDEST PUSH2 0x1B3 PUSH2 0x313 CALLDATASIZE PUSH1 0x4 PUSH2 0x1927 JUMP JUMPDEST PUSH2 0x9C3 JUMP JUMPDEST PUSH2 0x20C PUSH2 0x326 CALLDATASIZE PUSH1 0x4 PUSH2 0x17F9 JUMP JUMPDEST PUSH2 0x9CE JUMP JUMPDEST PUSH2 0x1B3 PUSH2 0x339 CALLDATASIZE PUSH1 0x4 PUSH2 0x196E JUMP JUMPDEST PUSH2 0x9F3 JUMP JUMPDEST PUSH2 0x1BD PUSH2 0x34C CALLDATASIZE PUSH1 0x4 PUSH2 0x17F9 JUMP JUMPDEST PUSH2 0xA2B JUMP JUMPDEST PUSH2 0x1BD PUSH2 0xB13 JUMP JUMPDEST PUSH2 0x18B PUSH2 0x367 CALLDATASIZE PUSH1 0x4 PUSH2 0x1A4A JUMP JUMPDEST PUSH1 0x1 PUSH1 0x1 PUSH1 0xA0 SHL SUB SWAP2 DUP3 AND PUSH1 0x0 SWAP1 DUP2 MSTORE PUSH1 0x5 PUSH1 0x20 SWAP1 DUP2 MSTORE PUSH1 0x40 DUP1 DUP4 KECCAK256 SWAP4 SWAP1 SWAP5 AND DUP3 MSTORE SWAP2 SWAP1 SWAP2 MSTORE KECCAK256 SLOAD PUSH1 0xFF AND SWAP1 JUMP JUMPDEST PUSH2 0x1B3 PUSH2 0x3A3 CALLDATASIZE PUSH1 0x4 PUSH2 0x189A JUMP JUMPDEST PUSH2 0xBA1 JUMP JUMPDEST PUSH1 0x0 PUSH4 0x152A902D PUSH1 0xE1 SHL PUSH1 0x1 PUSH1 0x1 PUSH1 0xE0 SHL SUB NOT DUP4 AND EQ DUP1 PUSH2 0x3CD JUMPI POP PUSH2 0x3CD DUP3 PUSH2 0xC3C JUMP JUMPDEST SWAP3 SWAP2 POP POP JUMP JUMPDEST PUSH1 0xA SLOAD PUSH1 0x1 PUSH1 0x1 PUSH1 0xA0 SHL SUB AND CALLER EQ PUSH2 0x406 JUMPI PUSH1 0x40 MLOAD PUSH3 0x461BCD PUSH1 0xE5 SHL DUP2 MSTORE PUSH1 0x4 ADD PUSH2 0x3FD SWAP1 PUSH2 0x1A7D JUMP JUMPDEST PUSH1 0x40 MLOAD DUP1 SWAP2 SUB SWAP1 REVERT JUMPDEST PUSH1 0x1 PUSH1 0x1 PUSH1 0x60 SHL SUB AND PUSH1 0x1 PUSH1 0x1 PUSH1 0xA0 SHL SUB SWAP1 SWAP2 AND PUSH1 0x1 PUSH1 0x60 SHL MUL PUSH12 0xFFFFFFFFFFFFFFFFFFFFFFFF NOT AND OR PUSH1 0xC SSTORE JUMP JUMPDEST PUSH1 0x60 PUSH1 0x0 DUP1 SLOAD PUSH2 0x444 SWAP1 PUSH2 0x1AB2 JUMP JUMPDEST DUP1 PUSH1 0x1F ADD PUSH1 0x20 DUP1 SWAP2 DIV MUL PUSH1 0x20 ADD PUSH1 0x40 MLOAD SWAP1 DUP2 ADD PUSH1 0x40 MSTORE DUP1 SWAP3 SWAP2 SWAP1 DUP2 DUP2 MSTORE PUSH1 0x20 ADD DUP3 DUP1 SLOAD PUSH2 0x470 SWAP1 PUSH2 0x1AB2 JUMP JUMPDEST DUP1 ISZERO PUSH2 0x4BD JUMPI DUP1 PUSH1 0x1F LT PUSH2 0x492 JUMPI PUSH2 0x100 DUP1 DUP4 SLOAD DIV MUL DUP4 MSTORE SWAP2 PUSH1 0x20 ADD SWAP2 PUSH2 0x4BD JUMP JUMPDEST DUP3 ADD SWAP2 SWAP1 PUSH1 0x0 MSTORE PUSH1 0x20 PUSH1 0x0 KECCAK256 SWAP1 JUMPDEST DUP2 SLOAD DUP2 MSTORE SWAP1 PUSH1 0x1 ADD SWAP1 PUSH1 0x20 ADD DUP1 DUP4 GT PUSH2 0x4A0 JUMPI DUP3 SWAP1 SUB PUSH1 0x1F AND DUP3 ADD SWAP2 JUMPDEST POP POP POP POP POP SWAP1 POP SWAP1 JUMP JUMPDEST PUSH1 0x0 DUP2 DUP2 MSTORE PUSH1 0x2 PUSH1 0x20 MSTORE PUSH1 0x40 DUP2 KECCAK256 SLOAD PUSH1 0x1 PUSH1 0x1 PUSH1 0xA0 SHL SUB AND PUSH2 0x540 JUMPI PUSH1 0x40 MLOAD PUSH3 0x461BCD PUSH1 0xE5 SHL DUP2 MSTORE PUSH1 0x20 PUSH1 0x4 DUP3 ADD MSTORE PUSH1 0x2C PUSH1 0x24 DUP3 ADD MSTORE PUSH32 0x4552433732313A20617070726F76656420717565727920666F72206E6F6E6578 PUSH1 0x44 DUP3 ADD MSTORE PUSH12 0x34B9BA32B73A103A37B5B2B7 PUSH1 0xA1 SHL PUSH1 0x64 DUP3 ADD MSTORE PUSH1 0x84 ADD PUSH2 0x3FD JUMP JUMPDEST POP PUSH1 0x0 SWAP1 DUP2 MSTORE PUSH1 0x4 PUSH1 0x20 MSTORE PUSH1 0x40 SWAP1 KECCAK256 SLOAD PUSH1 0x1 PUSH1 0x1 PUSH1 0xA0 SHL SUB AND SWAP1 JUMP JUMPDEST PUSH1 0x0 PUSH2 0x567 DUP3 PUSH2 0x811 JUMP JUMPDEST SWAP1 POP DUP1 PUSH1 0x1 PUSH1 0x1 PUSH1 0xA0 SHL SUB AND DUP4 PUSH1 0x1 PUSH1 0x1 PUSH1 0xA0 SHL SUB AND SUB PUSH2 0x5D4 JUMPI PUSH1 0x40 MLOAD PUSH3 0x461BCD PUSH1 0xE5 SHL DUP2 MSTORE PUSH1 0x20 PUSH1 0x4 DUP3 ADD MSTORE PUSH1 0x21 PUSH1 0x24 DUP3 ADD MSTORE PUSH32 0x4552433732313A20617070726F76616C20746F2063757272656E74206F776E65 PUSH1 0x44 DUP3 ADD MSTORE PUSH1 0x39 PUSH1 0xF9 SHL PUSH1 0x64 DUP3 ADD MSTORE PUSH1 0x84 ADD PUSH2 0x3FD JUMP JUMPDEST CALLER PUSH1 0x1 PUSH1 0x1 PUSH1 0xA0 SHL SUB DUP3 AND EQ DUP1 PUSH2 0x5F0 JUMPI POP PUSH2 0x5F0 DUP2 CALLER PUSH2 0x367 JUMP JUMPDEST PUSH2 0x662 JUMPI PUSH1 0x40 MLOAD PUSH3 0x461BCD PUSH1 0xE5 SHL DUP2 MSTORE PUSH1 0x20 PUSH1 0x4 DUP3 ADD MSTORE PUSH1 0x38 PUSH1 0x24 DUP3 ADD MSTORE PUSH32 0x4552433732313A20617070726F76652063616C6C6572206973206E6F74206F77 PUSH1 0x44 DUP3 ADD MSTORE PUSH32 0x6E6572206E6F7220617070726F76656420666F7220616C6C0000000000000000 PUSH1 0x64 DUP3 ADD MSTORE PUSH1 0x84 ADD PUSH2 0x3FD JUMP JUMPDEST PUSH2 0x66C DUP4 DUP4 PUSH2 0xC61 JUMP JUMPDEST POP POP POP JUMP JUMPDEST PUSH2 0x67B CALLER DUP3 PUSH2 0xCCF JUMP JUMPDEST PUSH2 0x697 JUMPI PUSH1 0x40 MLOAD PUSH3 0x461BCD PUSH1 0xE5 SHL DUP2 MSTORE PUSH1 0x4 ADD PUSH2 0x3FD SWAP1 PUSH2 0x1AEC JUMP JUMPDEST PUSH2 0x66C DUP4 DUP4 DUP4 PUSH2 0xDC6 JUMP JUMPDEST PUSH1 0x0 DUP1 PUSH1 0xC DUP1 SLOAD SWAP1 PUSH2 0x100 EXP SWAP1 DIV PUSH1 0x1 PUSH1 0x1 PUSH1 0xA0 SHL SUB AND PUSH2 0x6C2 DUP5 PUSH2 0x9CE JUMP JUMPDEST SWAP2 POP SWAP2 POP SWAP3 POP SWAP3 SWAP1 POP JUMP JUMPDEST PUSH1 0x0 PUSH2 0x6D8 DUP4 PUSH2 0x888 JUMP JUMPDEST DUP3 LT PUSH2 0x73A JUMPI PUSH1 0x40 MLOAD PUSH3 0x461BCD PUSH1 0xE5 SHL DUP2 MSTORE PUSH1 0x20 PUSH1 0x4 DUP3 ADD MSTORE PUSH1 0x2B PUSH1 0x24 DUP3 ADD MSTORE PUSH32 0x455243373231456E756D657261626C653A206F776E657220696E646578206F75 PUSH1 0x44 DUP3 ADD MSTORE PUSH11 0x74206F6620626F756E6473 PUSH1 0xA8 SHL PUSH1 0x64 DUP3 ADD MSTORE PUSH1 0x84 ADD PUSH2 0x3FD JUMP JUMPDEST POP PUSH1 0x1 PUSH1 0x1 PUSH1 0xA0 SHL SUB SWAP2 SWAP1 SWAP2 AND PUSH1 0x0 SWAP1 DUP2 MSTORE PUSH1 0x6 PUSH1 0x20 SWAP1 DUP2 MSTORE PUSH1 0x40 DUP1 DUP4 KECCAK256 SWAP4 DUP4 MSTORE SWAP3 SWAP1 MSTORE KECCAK256 SLOAD SWAP1 JUMP JUMPDEST PUSH2 0x66C DUP4 DUP4 DUP4 PUSH1 0x40 MLOAD DUP1 PUSH1 0x20 ADD PUSH1 0x40 MSTORE DUP1 PUSH1 0x0 DUP2 MSTORE POP PUSH2 0x9F3 JUMP JUMPDEST PUSH1 0x0 PUSH2 0x789 PUSH1 0x8 SLOAD SWAP1 JUMP JUMPDEST DUP3 LT PUSH2 0x7EC JUMPI PUSH1 0x40 MLOAD PUSH3 0x461BCD PUSH1 0xE5 SHL DUP2 MSTORE PUSH1 0x20 PUSH1 0x4 DUP3 ADD MSTORE PUSH1 0x2C PUSH1 0x24 DUP3 ADD MSTORE PUSH32 0x455243373231456E756D657261626C653A20676C6F62616C20696E646578206F PUSH1 0x44 DUP3 ADD MSTORE PUSH12 0x7574206F6620626F756E6473 PUSH1 0xA0 SHL PUSH1 0x64 DUP3 ADD MSTORE PUSH1 0x84 ADD PUSH2 0x3FD JUMP JUMPDEST PUSH1 0x8 DUP3 DUP2 SLOAD DUP2 LT PUSH2 0x7FF JUMPI PUSH2 0x7FF PUSH2 0x1B3D JUMP JUMPDEST SWAP1 PUSH1 0x0 MSTORE PUSH1 0x20 PUSH1 0x0 KECCAK256 ADD SLOAD SWAP1 POP SWAP2 SWAP1 POP JUMP JUMPDEST PUSH1 0x0 DUP2 DUP2 MSTORE PUSH1 0x2 PUSH1 0x20 MSTORE PUSH1 0x40 DUP2 KECCAK256 SLOAD PUSH1 0x1 PUSH1 0x1 PUSH1 0xA0 SHL SUB AND DUP1 PUSH2 0x3CD JUMPI PUSH1 0x40 MLOAD PUSH3 0x461BCD PUSH1 0xE5 SHL DUP2 MSTORE PUSH1 0x20 PUSH1 0x4 DUP3 ADD MSTORE PUSH1 0x29 PUSH1 0x24 DUP3 ADD MSTORE PUSH32 0x4552433732313A206F776E657220717565727920666F72206E6F6E6578697374 PUSH1 0x44 DUP3 ADD MSTORE PUSH9 0x32B73A103A37B5B2B7 PUSH1 0xB9 SHL PUSH1 0x64 DUP3 ADD MSTORE PUSH1 0x84 ADD PUSH2 0x3FD JUMP JUMPDEST PUSH1 0x0 PUSH1 0x1 PUSH1 0x1 PUSH1 0xA0 SHL SUB DUP3 AND PUSH2 0x8F3 JUMPI PUSH1 0x40 MLOAD PUSH3 0x461BCD PUSH1 0xE5 SHL DUP2 MSTORE PUSH1 0x20 PUSH1 0x4 DUP3 ADD MSTORE PUSH1 0x2A PUSH1 0x24 DUP3 ADD MSTORE PUSH32 0x4552433732313A2062616C616E636520717565727920666F7220746865207A65 PUSH1 0x44 DUP3 ADD MSTORE PUSH10 0x726F2061646472657373 PUSH1 0xB0 SHL PUSH1 0x64 DUP3 ADD MSTORE PUSH1 0x84 ADD PUSH2 0x3FD JUMP JUMPDEST POP PUSH1 0x1 PUSH1 0x1 PUSH1 0xA0 SHL SUB AND PUSH1 0x0 SWAP1 DUP2 MSTORE PUSH1 0x3 PUSH1 0x20 MSTORE PUSH1 0x40 SWAP1 KECCAK256 SLOAD SWAP1 JUMP JUMPDEST PUSH1 0xA SLOAD PUSH1 0x1 PUSH1 0x1 PUSH1 0xA0 SHL SUB AND CALLER EQ PUSH2 0x939 JUMPI PUSH1 0x40 MLOAD PUSH3 0x461BCD PUSH1 0xE5 SHL DUP2 MSTORE PUSH1 0x4 ADD PUSH2 0x3FD SWAP1 PUSH2 0x1A7D JUMP JUMPDEST PUSH2 0x943 PUSH1 0x0 PUSH2 0xF71 JUMP JUMPDEST JUMP JUMPDEST PUSH1 0xA SLOAD PUSH1 0x1 PUSH1 0x1 PUSH1 0xA0 SHL SUB AND CALLER EQ PUSH2 0x96F JUMPI PUSH1 0x40 MLOAD PUSH3 0x461BCD PUSH1 0xE5 SHL DUP2 MSTORE PUSH1 0x4 ADD PUSH2 0x3FD SWAP1 PUSH2 0x1A7D JUMP JUMPDEST PUSH1 0xB PUSH2 0x66C DUP3 DUP5 DUP4 PUSH2 0x1BA1 JUMP JUMPDEST PUSH1 0x60 PUSH1 0x1 DUP1 SLOAD PUSH2 0x444 SWAP1 PUSH2 0x1AB2 JUMP JUMPDEST PUSH1 0xA SLOAD PUSH1 0x1 PUSH1 0x1 PUSH1 0xA0 SHL SUB AND CALLER EQ PUSH2 0x9B5 JUMPI PUSH1 0x40 MLOAD PUSH3 0x461BCD PUSH1 0xE5 SHL DUP2 MSTORE PUSH1 0x4 ADD PUSH2 0x3FD SWAP1 PUSH2 0x1A7D JUMP JUMPDEST PUSH2 0x9BF DUP3 DUP3 PUSH2 0xFC3 JUMP JUMPDEST POP POP JUMP JUMPDEST PUSH2 0x9BF CALLER DUP4 DUP4 PUSH2 0xFDD JUMP JUMPDEST PUSH1 0xC SLOAD PUSH1 0x0 SWAP1 PUSH1 0x1 PUSH1 0x1 PUSH1 0x60 SHL SUB AND PUSH2 0x9E9 PUSH2 0x2710 DUP5 PUSH2 0x1C8E JUMP JUMPDEST PUSH2 0x3CD SWAP2 SWAP1 PUSH2 0x1CA2 JUMP JUMPDEST PUSH2 0x9FD CALLER DUP4 PUSH2 0xCCF JUMP JUMPDEST PUSH2 0xA19 JUMPI PUSH1 0x40 MLOAD PUSH3 0x461BCD PUSH1 0xE5 SHL DUP2 MSTORE PUSH1 0x4 ADD PUSH2 0x3FD SWAP1 PUSH2 0x1AEC JUMP JUMPDEST PUSH2 0xA25 DUP5 DUP5 DUP5 DUP5 PUSH2 0x10AB JUMP JUMPDEST POP POP POP POP JUMP JUMPDEST PUSH1 0x0 DUP2 DUP2 MSTORE PUSH1 0x2 PUSH1 0x20 MSTORE PUSH1 0x40 SWAP1 KECCAK256 SLOAD PUSH1 0x60 SWAP1 PUSH1 0x1 PUSH1 0x1 PUSH1 0xA0 SHL SUB AND PUSH2 0xAAA JUMPI PUSH1 0x40 MLOAD PUSH3 0x461BCD PUSH1 0xE5 SHL DUP2 MSTORE PUSH1 0x20 PUSH1 0x4 DUP3 ADD MSTORE PUSH1 0x2F PUSH1 0x24 DUP3 ADD MSTORE PUSH32 0x4552433732314D657461646174613A2055524920717565727920666F72206E6F PUSH1 0x44 DUP3 ADD MSTORE PUSH15 0x3732BC34B9BA32B73A103A37B5B2B7 PUSH1 0x89 SHL PUSH1 0x64 DUP3 ADD MSTORE PUSH1 0x84 ADD PUSH2 0x3FD JUMP JUMPDEST PUSH1 0x0 PUSH2 0xAC1 PUSH1 0x40 DUP1 MLOAD PUSH1 0x20 DUP2 ADD SWAP1 SWAP2 MSTORE PUSH1 0x0 DUP2 MSTORE SWAP1 JUMP JUMPDEST SWAP1 POP PUSH1 0x0 DUP2 MLOAD GT PUSH2 0xAE1 JUMPI PUSH1 0x40 MLOAD DUP1 PUSH1 0x20 ADD PUSH1 0x40 MSTORE DUP1 PUSH1 0x0 DUP2 MSTORE POP PUSH2 0xB0C JUMP JUMPDEST DUP1 PUSH2 0xAEB DUP5 PUSH2 0x10DE JUMP JUMPDEST PUSH1 0x40 MLOAD PUSH1 0x20 ADD PUSH2 0xAFC SWAP3 SWAP2 SWAP1 PUSH2 0x1CB9 JUMP JUMPDEST PUSH1 0x40 MLOAD PUSH1 0x20 DUP2 DUP4 SUB SUB DUP2 MSTORE SWAP1 PUSH1 0x40 MSTORE JUMPDEST SWAP4 SWAP3 POP POP POP JUMP JUMPDEST PUSH1 0xB DUP1 SLOAD PUSH2 0xB20 SWAP1 PUSH2 0x1AB2 JUMP JUMPDEST DUP1 PUSH1 0x1F ADD PUSH1 0x20 DUP1 SWAP2 DIV MUL PUSH1 0x20 ADD PUSH1 0x40 MLOAD SWAP1 DUP2 ADD PUSH1 0x40 MSTORE DUP1 SWAP3 SWAP2 SWAP1 DUP2 DUP2 MSTORE PUSH1 0x20 ADD DUP3 DUP1 SLOAD PUSH2 0xB4C SWAP1 PUSH2 0x1AB2 JUMP JUMPDEST DUP1 ISZERO PUSH2 0xB99 JUMPI DUP1 PUSH1 0x1F LT PUSH2 0xB6E JUMPI PUSH2 0x100 DUP1 DUP4 SLOAD DIV MUL DUP4 MSTORE SWAP2 PUSH1 0x20 ADD SWAP2 PUSH2 0xB99 JUMP JUMPDEST DUP3 ADD SWAP2 SWAP1 PUSH1 0x0 MSTORE PUSH1 0x20 PUSH1 0x0 KECCAK256 SWAP1 JUMPDEST DUP2 SLOAD DUP2 MSTORE SWAP1 PUSH1 0x1 ADD SWAP1 PUSH1 0x20 ADD DUP1 DUP4 GT PUSH2 0xB7C JUMPI DUP3 SWAP1 SUB PUSH1 0x1F AND DUP3 ADD SWAP2 JUMPDEST POP POP POP POP POP DUP2 JUMP JUMPDEST PUSH1 0xA SLOAD PUSH1 0x1 PUSH1 0x1 PUSH1 0xA0 SHL SUB AND CALLER EQ PUSH2 0xBCB JUMPI PUSH1 0x40 MLOAD PUSH3 0x461BCD PUSH1 0xE5 SHL DUP2 MSTORE PUSH1 0x4 ADD PUSH2 0x3FD SWAP1 PUSH2 0x1A7D JUMP JUMPDEST PUSH1 0x1 PUSH1 0x1 PUSH1 0xA0 SHL SUB DUP2 AND PUSH2 0xC30 JUMPI PUSH1 0x40 MLOAD PUSH3 0x461BCD PUSH1 0xE5 SHL DUP2 MSTORE PUSH1 0x20 PUSH1 0x4 DUP3 ADD MSTORE PUSH1 0x26 PUSH1 0x24 DUP3 ADD MSTORE PUSH32 0x4F776E61626C653A206E6577206F776E657220697320746865207A65726F2061 PUSH1 0x44 DUP3 ADD MSTORE PUSH6 0x646472657373 PUSH1 0xD0 SHL PUSH1 0x64 DUP3 ADD MSTORE PUSH1 0x84 ADD PUSH2 0x3FD JUMP JUMPDEST PUSH2 0xC39 DUP2 PUSH2 0xF71 JUMP JUMPDEST POP JUMP JUMPDEST PUSH1 0x0 PUSH1 0x1 PUSH1 0x1 PUSH1 0xE0 SHL SUB NOT DUP3 AND PUSH4 0x780E9D63 PUSH1 0xE0 SHL EQ DUP1 PUSH2 0x3CD JUMPI POP PUSH2 0x3CD DUP3 PUSH2 0x11DF JUMP JUMPDEST PUSH1 0x0 DUP2 DUP2 MSTORE PUSH1 0x4 PUSH1 0x20 MSTORE PUSH1 0x40 SWAP1 KECCAK256 DUP1 SLOAD PUSH1 0x1 PUSH1 0x1 PUSH1 0xA0 SHL SUB NOT AND PUSH1 0x1 PUSH1 0x1 PUSH1 0xA0 SHL SUB DUP5 AND SWAP1 DUP2 OR SWAP1 SWAP2 SSTORE DUP2 SWAP1 PUSH2 0xC96 DUP3 PUSH2 0x811 JUMP JUMPDEST PUSH1 0x1 PUSH1 0x1 PUSH1 0xA0 SHL SUB AND PUSH32 0x8C5BE1E5EBEC7D5BD14F71427D1E84F3DD0314C0F7B2291E5B200AC8C7C3B925 PUSH1 0x40 MLOAD PUSH1 0x40 MLOAD DUP1 SWAP2 SUB SWAP1 LOG4 POP POP JUMP JUMPDEST PUSH1 0x0 DUP2 DUP2 MSTORE PUSH1 0x2 PUSH1 0x20 MSTORE PUSH1 0x40 DUP2 KECCAK256 SLOAD PUSH1 0x1 PUSH1 0x1 PUSH1 0xA0 SHL SUB AND PUSH2 0xD48 JUMPI PUSH1 0x40 MLOAD PUSH3 0x461BCD PUSH1 0xE5 SHL DUP2 MSTORE PUSH1 0x20 PUSH1 0x4 DUP3 ADD MSTORE PUSH1 0x2C PUSH1 0x24 DUP3 ADD MSTORE PUSH32 0x4552433732313A206F70657261746F7220717565727920666F72206E6F6E6578 PUSH1 0x44 DUP3 ADD MSTORE PUSH12 0x34B9BA32B73A103A37B5B2B7 PUSH1 0xA1 SHL PUSH1 0x64 DUP3 ADD MSTORE PUSH1 0x84 ADD PUSH2 0x3FD JUMP JUMPDEST PUSH1 0x0 PUSH2 0xD53 DUP4 PUSH2 0x811 JUMP JUMPDEST SWAP1 POP DUP1 PUSH1 0x1 PUSH1 0x1 PUSH1 0xA0 SHL SUB AND DUP5 PUSH1 0x1 PUSH1 0x1 PUSH1 0xA0 SHL SUB AND EQ DUP1 PUSH2 0xD8E JUMPI POP DUP4 PUSH1 0x1 PUSH1 0x1 PUSH1 0xA0 SHL SUB AND PUSH2 0xD83 DUP5 PUSH2 0x4C7 JUMP JUMPDEST PUSH1 0x1 PUSH1 0x1 PUSH1 0xA0 SHL SUB AND EQ JUMPDEST DUP1 PUSH2 0xDBE JUMPI POP PUSH1 0x1 PUSH1 0x1 PUSH1 0xA0 SHL SUB DUP1 DUP3 AND PUSH1 0x0 SWAP1 DUP2 MSTORE PUSH1 0x5 PUSH1 0x20 SWAP1 DUP2 MSTORE PUSH1 0x40 DUP1 DUP4 KECCAK256 SWAP4 DUP9 AND DUP4 MSTORE SWAP3 SWAP1 MSTORE KECCAK256 SLOAD PUSH1 0xFF AND JUMPDEST SWAP5 SWAP4 POP POP POP POP JUMP JUMPDEST DUP3 PUSH1 0x1 PUSH1 0x1 PUSH1 0xA0 SHL SUB AND PUSH2 0xDD9 DUP3 PUSH2 0x811 JUMP JUMPDEST PUSH1 0x1 PUSH1 0x1 PUSH1 0xA0 SHL SUB AND EQ PUSH2 0xE41 JUMPI PUSH1 0x40 MLOAD PUSH3 0x461BCD PUSH1 0xE5 SHL DUP2 MSTORE PUSH1 0x20 PUSH1 0x4 DUP3 ADD MSTORE PUSH1 0x29 PUSH1 0x24 DUP3 ADD MSTORE PUSH32 0x4552433732313A207472616E73666572206F6620746F6B656E20746861742069 PUSH1 0x44 DUP3 ADD MSTORE PUSH9 0x39903737BA1037BBB7 PUSH1 0xB9 SHL PUSH1 0x64 DUP3 ADD MSTORE PUSH1 0x84 ADD PUSH2 0x3FD JUMP JUMPDEST PUSH1 0x1 PUSH1 0x1 PUSH1 0xA0 SHL SUB DUP3 AND PUSH2 0xEA3 JUMPI PUSH1 0x40 MLOAD PUSH3 0x461BCD PUSH1 0xE5 SHL DUP2 MSTORE PUSH1 0x20 PUSH1 0x4 DUP3 ADD MSTORE PUSH1 0x24 DUP1 DUP3 ADD MSTORE PUSH32 0x4552433732313A207472616E7366657220746F20746865207A65726F20616464 PUSH1 0x44 DUP3 ADD MSTORE PUSH4 0x72657373 PUSH1 0xE0 SHL PUSH1 0x64 DUP3 ADD MSTORE PUSH1 0x84 ADD PUSH2 0x3FD JUMP JUMPDEST PUSH2 0xEAE DUP4 DUP4 DUP4 PUSH2 0x122F JUMP JUMPDEST PUSH2 0xEB9 PUSH1 0x0 DUP3 PUSH2 0xC61 JUMP JUMPDEST PUSH1 0x1 PUSH1 0x1 PUSH1 0xA0 SHL SUB DUP4 AND PUSH1 0x0 SWAP1 DUP2 MSTORE PUSH1 0x3 PUSH1 0x20 MSTORE PUSH1 0x40 DUP2 KECCAK256 DUP1 SLOAD PUSH1 0x1 SWAP3 SWAP1 PUSH2 0xEE2 SWAP1 DUP5 SWAP1 PUSH2 0x1CE8 JUMP JUMPDEST SWAP1 SWAP2 SSTORE POP POP PUSH1 0x1 PUSH1 0x1 PUSH1 0xA0 SHL SUB DUP3 AND PUSH1 0x0 SWAP1 DUP2 MSTORE PUSH1 0x3 PUSH1 0x20 MSTORE PUSH1 0x40 DUP2 KECCAK256 DUP1 SLOAD PUSH1 0x1 SWAP3 SWAP1 PUSH2 0xF10 SWAP1 DUP5 SWAP1 PUSH2 0x1CFB JUMP JUMPDEST SWAP1 SWAP2 SSTORE POP POP PUSH1 0x0 DUP2 DUP2 MSTORE PUSH1 0x2 PUSH1 0x20 MSTORE PUSH1 0x40 DUP1 DUP3 KECCAK256 DUP1 SLOAD PUSH1 0x1 PUSH1 0x1 PUSH1 0xA0 SHL SUB NOT AND PUSH1 0x1 PUSH1 0x1 PUSH1 0xA0 SHL SUB DUP7 DUP2 AND SWAP2 DUP3 OR SWAP1 SWAP3 SSTORE SWAP2 MLOAD DUP5 SWAP4 SWAP2 DUP8 AND SWAP2 PUSH32 0xDDF252AD1BE2C89B69C2B068FC378DAA952BA7F163C4A11628F55A4DF523B3EF SWAP2 LOG4 POP POP POP JUMP JUMPDEST PUSH1 0xA DUP1 SLOAD PUSH1 0x1 PUSH1 0x1 PUSH1 0xA0 SHL SUB DUP4 DUP2 AND PUSH1 0x1 PUSH1 0x1 PUSH1 0xA0 SHL SUB NOT DUP4 AND DUP2 OR SWAP1 SWAP4 SSTORE PUSH1 0x40 MLOAD SWAP2 AND SWAP2 SWAP1 DUP3 SWAP1 PUSH32 0x8BE0079C531659141344CD1FD0A4F28419497F9722A3DAAFE3B4186F6B6457E0 SWAP1 PUSH1 0x0 SWAP1 LOG3 POP POP JUMP JUMPDEST PUSH2 0x9BF DUP3 DUP3 PUSH1 0x40 MLOAD DUP1 PUSH1 0x20 ADD PUSH1 0x40 MSTORE DUP1 PUSH1 0x0 DUP2 MSTORE POP PUSH2 0x123A JUMP JUMPDEST DUP2 PUSH1 0x1 PUSH1 0x1 PUSH1 0xA0 SHL SUB AND DUP4 PUSH1 0x1 PUSH1 0x1 PUSH1 0xA0 SHL SUB AND SUB PUSH2 0x103E JUMPI PUSH1 0x40 MLOAD PUSH3 0x461BCD PUSH1 0xE5 SHL DUP2 MSTORE PUSH1 0x20 PUSH1 0x4 DUP3 ADD MSTORE PUSH1 0x19 PUSH1 0x24 DUP3 ADD MSTORE PUSH32 0x4552433732313A20617070726F766520746F2063616C6C657200000000000000 PUSH1 0x44 DUP3 ADD MSTORE PUSH1 0x64 ADD PUSH2 0x3FD JUMP JUMPDEST PUSH1 0x1 PUSH1 0x1 PUSH1 0xA0 SHL SUB DUP4 DUP2 AND PUSH1 0x0 DUP2 DUP2 MSTORE PUSH1 0x5 PUSH1 0x20 SWAP1 DUP2 MSTORE PUSH1 0x40 DUP1 DUP4 KECCAK256 SWAP5 DUP8 AND DUP1 DUP5 MSTORE SWAP5 DUP3 MSTORE SWAP2 DUP3 SWAP1 KECCAK256 DUP1 SLOAD PUSH1 0xFF NOT AND DUP7 ISZERO ISZERO SWAP1 DUP2 OR SWAP1 SWAP2 SSTORE SWAP2 MLOAD SWAP2 DUP3 MSTORE PUSH32 0x17307EAB39AB6107E8899845AD3D59BD9653F200F220920489CA2B5937696C31 SWAP2 ADD PUSH1 0x40 MLOAD DUP1 SWAP2 SUB SWAP1 LOG3 POP POP POP JUMP JUMPDEST PUSH2 0x10B6 DUP5 DUP5 DUP5 PUSH2 0xDC6 JUMP JUMPDEST PUSH2 0x10C2 DUP5 DUP5 DUP5 DUP5 PUSH2 0x126D JUMP JUMPDEST PUSH2 0xA25 JUMPI PUSH1 0x40 MLOAD PUSH3 0x461BCD PUSH1 0xE5 SHL DUP2 MSTORE PUSH1 0x4 ADD PUSH2 0x3FD SWAP1 PUSH2 0x1D0E JUMP JUMPDEST PUSH1 0x60 DUP2 PUSH1 0x0 SUB PUSH2 0x1105 JUMPI POP POP PUSH1 0x40 DUP1 MLOAD DUP1 DUP3 ADD SWAP1 SWAP2 MSTORE PUSH1 0x1 DUP2 MSTORE PUSH1 0x3 PUSH1 0xFC SHL PUSH1 0x20 DUP3 ADD MSTORE SWAP1 JUMP JUMPDEST DUP2 PUSH1 0x0 JUMPDEST DUP2 ISZERO PUSH2 0x112F JUMPI DUP1 PUSH2 0x1119 DUP2 PUSH2 0x1D60 JUMP JUMPDEST SWAP2 POP PUSH2 0x1128 SWAP1 POP PUSH1 0xA DUP4 PUSH2 0x1C8E JUMP JUMPDEST SWAP2 POP PUSH2 0x1109 JUMP JUMPDEST PUSH1 0x0 DUP2 PUSH8 0xFFFFFFFFFFFFFFFF DUP2 GT ISZERO PUSH2 0x114A JUMPI PUSH2 0x114A PUSH2 0x1958 JUMP JUMPDEST PUSH1 0x40 MLOAD SWAP1 DUP1 DUP3 MSTORE DUP1 PUSH1 0x1F ADD PUSH1 0x1F NOT AND PUSH1 0x20 ADD DUP3 ADD PUSH1 0x40 MSTORE DUP1 ISZERO PUSH2 0x1174 JUMPI PUSH1 0x20 DUP3 ADD DUP2 DUP1 CALLDATASIZE DUP4 CALLDATACOPY ADD SWAP1 POP JUMPDEST POP SWAP1 POP JUMPDEST DUP5 ISZERO PUSH2 0xDBE JUMPI PUSH2 0x1189 PUSH1 0x1 DUP4 PUSH2 0x1CE8 JUMP JUMPDEST SWAP2 POP PUSH2 0x1196 PUSH1 0xA DUP7 PUSH2 0x1D79 JUMP JUMPDEST PUSH2 0x11A1 SWAP1 PUSH1 0x30 PUSH2 0x1CFB JUMP JUMPDEST PUSH1 0xF8 SHL DUP2 DUP4 DUP2 MLOAD DUP2 LT PUSH2 0x11B6 JUMPI PUSH2 0x11B6 PUSH2 0x1B3D JUMP JUMPDEST PUSH1 0x20 ADD ADD SWAP1 PUSH1 0x1 PUSH1 0x1 PUSH1 0xF8 SHL SUB NOT AND SWAP1 DUP2 PUSH1 0x0 BYTE SWAP1 MSTORE8 POP PUSH2 0x11D8 PUSH1 0xA DUP7 PUSH2 0x1C8E JUMP JUMPDEST SWAP5 POP PUSH2 0x1178 JUMP JUMPDEST PUSH1 0x0 PUSH1 0x1 PUSH1 0x1 PUSH1 0xE0 SHL SUB NOT DUP3 AND PUSH4 0x80AC58CD PUSH1 0xE0 SHL EQ DUP1 PUSH2 0x1210 JUMPI POP PUSH1 0x1 PUSH1 0x1 PUSH1 0xE0 SHL SUB NOT DUP3 AND PUSH4 0x5B5E139F PUSH1 0xE0 SHL EQ JUMPDEST DUP1 PUSH2 0x3CD JUMPI POP PUSH4 0x1FFC9A7 PUSH1 0xE0 SHL PUSH1 0x1 PUSH1 0x1 PUSH1 0xE0 SHL SUB NOT DUP4 AND EQ PUSH2 0x3CD JUMP JUMPDEST PUSH2 0x66C DUP4 DUP4 DUP4 PUSH2 0x136E JUMP JUMPDEST PUSH2 0x1244 DUP4 DUP4 PUSH2 0x1426 JUMP JUMPDEST PUSH2 0x1251 PUSH1 0x0 DUP5 DUP5 DUP5 PUSH2 0x126D JUMP JUMPDEST PUSH2 0x66C JUMPI PUSH1 0x40 MLOAD PUSH3 0x461BCD PUSH1 0xE5 SHL DUP2 MSTORE PUSH1 0x4 ADD PUSH2 0x3FD SWAP1 PUSH2 0x1D0E JUMP JUMPDEST PUSH1 0x0 PUSH1 0x1 PUSH1 0x1 PUSH1 0xA0 SHL SUB DUP5 AND EXTCODESIZE ISZERO PUSH2 0x1363 JUMPI PUSH1 0x40 MLOAD PUSH4 0xA85BD01 PUSH1 0xE1 SHL DUP2 MSTORE PUSH1 0x1 PUSH1 0x1 PUSH1 0xA0 SHL SUB DUP6 AND SWAP1 PUSH4 0x150B7A02 SWAP1 PUSH2 0x12B1 SWAP1 CALLER SWAP1 DUP10 SWAP1 DUP9 SWAP1 DUP9 SWAP1 PUSH1 0x4 ADD PUSH2 0x1D8D JUMP JUMPDEST PUSH1 0x20 PUSH1 0x40 MLOAD DUP1 DUP4 SUB DUP2 PUSH1 0x0 DUP8 GAS CALL SWAP3 POP POP POP DUP1 ISZERO PUSH2 0x12EC JUMPI POP PUSH1 0x40 DUP1 MLOAD PUSH1 0x1F RETURNDATASIZE SWAP1 DUP2 ADD PUSH1 0x1F NOT AND DUP3 ADD SWAP1 SWAP3 MSTORE PUSH2 0x12E9 SWAP2 DUP2 ADD SWAP1 PUSH2 0x1DCA JUMP JUMPDEST PUSH1 0x1 JUMPDEST PUSH2 0x1349 JUMPI RETURNDATASIZE DUP1 DUP1 ISZERO PUSH2 0x131A JUMPI PUSH1 0x40 MLOAD SWAP2 POP PUSH1 0x1F NOT PUSH1 0x3F RETURNDATASIZE ADD AND DUP3 ADD PUSH1 0x40 MSTORE RETURNDATASIZE DUP3 MSTORE RETURNDATASIZE PUSH1 0x0 PUSH1 0x20 DUP5 ADD RETURNDATACOPY PUSH2 0x131F JUMP JUMPDEST PUSH1 0x60 SWAP2 POP JUMPDEST POP DUP1 MLOAD PUSH1 0x0 SUB PUSH2 0x1341 JUMPI PUSH1 0x40 MLOAD PUSH3 0x461BCD PUSH1 0xE5 SHL DUP2 MSTORE PUSH1 0x4 ADD PUSH2 0x3FD SWAP1 PUSH2 0x1D0E JUMP JUMPDEST DUP1 MLOAD DUP2 PUSH1 0x20 ADD REVERT JUMPDEST PUSH1 0x1 PUSH1 0x1 PUSH1 0xE0 SHL SUB NOT AND PUSH4 0xA85BD01 PUSH1 0xE1 SHL EQ SWAP1 POP PUSH2 0xDBE JUMP JUMPDEST POP PUSH1 0x1 SWAP5 SWAP4 POP POP POP POP JUMP JUMPDEST PUSH1 0x1 PUSH1 0x1 PUSH1 0xA0 SHL SUB DUP4 AND PUSH2 0x13C9 JUMPI PUSH2 0x13C4 DUP2 PUSH1 0x8 DUP1 SLOAD PUSH1 0x0 DUP4 DUP2 MSTORE PUSH1 0x9 PUSH1 0x20 MSTORE PUSH1 0x40 DUP2 KECCAK256 DUP3 SWAP1 SSTORE PUSH1 0x1 DUP3 ADD DUP4 SSTORE SWAP2 SWAP1 SWAP2 MSTORE PUSH32 0xF3F7A9FE364FAAB93B216DA50A3214154F22A0A2B415B23A84C8169E8B636EE3 ADD SSTORE JUMP JUMPDEST PUSH2 0x13EC JUMP JUMPDEST DUP2 PUSH1 0x1 PUSH1 0x1 PUSH1 0xA0 SHL SUB AND DUP4 PUSH1 0x1 PUSH1 0x1 PUSH1 0xA0 SHL SUB AND EQ PUSH2 0x13EC JUMPI PUSH2 0x13EC DUP4 DUP3 PUSH2 0x1574 JUMP JUMPDEST PUSH1 0x1 PUSH1 0x1 PUSH1 0xA0 SHL SUB DUP3 AND PUSH2 0x1403 JUMPI PUSH2 0x66C DUP2 PUSH2 0x1611 JUMP JUMPDEST DUP3 PUSH1 0x1 PUSH1 0x1 PUSH1 0xA0 SHL SUB AND DUP3 PUSH1 0x1 PUSH1 0x1 PUSH1 0xA0 SHL SUB AND EQ PUSH2 0x66C JUMPI PUSH2 0x66C DUP3 DUP3 PUSH2 0x16C0 JUMP JUMPDEST PUSH1 0x1 PUSH1 0x1 PUSH1 0xA0 SHL SUB DUP3 AND PUSH2 0x147C JUMPI PUSH1 0x40 MLOAD PUSH3 0x461BCD PUSH1 0xE5 SHL DUP2 MSTORE PUSH1 0x20 PUSH1 0x4 DUP3 ADD DUP2 SWAP1 MSTORE PUSH1 0x24 DUP3 ADD MSTORE PUSH32 0x4552433732313A206D696E7420746F20746865207A65726F2061646472657373 PUSH1 0x44 DUP3 ADD MSTORE PUSH1 0x64 ADD PUSH2 0x3FD JUMP JUMPDEST PUSH1 0x0 DUP2 DUP2 MSTORE PUSH1 0x2 PUSH1 0x20 MSTORE PUSH1 0x40 SWAP1 KECCAK256 SLOAD PUSH1 0x1 PUSH1 0x1 PUSH1 0xA0 SHL SUB AND ISZERO PUSH2 0x14E1 JUMPI PUSH1 0x40 MLOAD PUSH3 0x461BCD PUSH1 0xE5 SHL DUP2 MSTORE PUSH1 0x20 PUSH1 0x4 DUP3 ADD MSTORE PUSH1 0x1C PUSH1 0x24 DUP3 ADD MSTORE PUSH32 0x4552433732313A20746F6B656E20616C7265616479206D696E74656400000000 PUSH1 0x44 DUP3 ADD MSTORE PUSH1 0x64 ADD PUSH2 0x3FD JUMP JUMPDEST PUSH2 0x14ED PUSH1 0x0 DUP4 DUP4 PUSH2 0x122F JUMP JUMPDEST PUSH1 0x1 PUSH1 0x1 PUSH1 0xA0 SHL SUB DUP3 AND PUSH1 0x0 SWAP1 DUP2 MSTORE PUSH1 0x3 PUSH1 0x20 MSTORE PUSH1 0x40 DUP2 KECCAK256 DUP1 SLOAD PUSH1 0x1 SWAP3 SWAP1 PUSH2 0x1516 SWAP1 DUP5 SWAP1 PUSH2 0x1CFB JUMP JUMPDEST SWAP1 SWAP2 SSTORE POP POP PUSH1 0x0 DUP2 DUP2 MSTORE PUSH1 0x2 PUSH1 0x20 MSTORE PUSH1 0x40 DUP1 DUP3 KECCAK256 DUP1 SLOAD PUSH1 0x1 PUSH1 0x1 PUSH1 0xA0 SHL SUB NOT AND PUSH1 0x1 PUSH1 0x1 PUSH1 0xA0 SHL SUB DUP7 AND SWAP1 DUP2 OR SWAP1 SWAP2 SSTORE SWAP1 MLOAD DUP4 SWAP3 SWAP1 PUSH32 0xDDF252AD1BE2C89B69C2B068FC378DAA952BA7F163C4A11628F55A4DF523B3EF SWAP1 DUP3 SWAP1 LOG4 POP POP JUMP JUMPDEST PUSH1 0x0 PUSH1 0x1 PUSH2 0x1581 DUP5 PUSH2 0x888 JUMP JUMPDEST PUSH2 0x158B SWAP2 SWAP1 PUSH2 0x1CE8 JUMP JUMPDEST PUSH1 0x0 DUP4 DUP2 MSTORE PUSH1 0x7 PUSH1 0x20 MSTORE PUSH1 0x40 SWAP1 KECCAK256 SLOAD SWAP1 SWAP2 POP DUP1 DUP3 EQ PUSH2 0x15DE JUMPI PUSH1 0x1 PUSH1 0x1 PUSH1 0xA0 SHL SUB DUP5 AND PUSH1 0x0 SWAP1 DUP2 MSTORE PUSH1 0x6 PUSH1 0x20 SWAP1 DUP2 MSTORE PUSH1 0x40 DUP1 DUP4 KECCAK256 DUP6 DUP5 MSTORE DUP3 MSTORE DUP1 DUP4 KECCAK256 SLOAD DUP5 DUP5 MSTORE DUP2 DUP5 KECCAK256 DUP2 SWAP1 SSTORE DUP4 MSTORE PUSH1 0x7 SWAP1 SWAP2 MSTORE SWAP1 KECCAK256 DUP2 SWAP1 SSTORE JUMPDEST POP PUSH1 0x0 SWAP2 DUP3 MSTORE PUSH1 0x7 PUSH1 0x20 SWAP1 DUP2 MSTORE PUSH1 0x40 DUP1 DUP5 KECCAK256 DUP5 SWAP1 SSTORE PUSH1 0x1 PUSH1 0x1 PUSH1 0xA0 SHL SUB SWAP1 SWAP5 AND DUP4 MSTORE PUSH1 0x6 DUP2 MSTORE DUP4 DUP4 KECCAK256 SWAP2 DUP4 MSTORE MSTORE SWAP1 DUP2 KECCAK256 SSTORE JUMP JUMPDEST PUSH1 0x8 SLOAD PUSH1 0x0 SWAP1 PUSH2 0x1623 SWAP1 PUSH1 0x1 SWAP1 PUSH2 0x1CE8 JUMP JUMPDEST PUSH1 0x0 DUP4 DUP2 MSTORE PUSH1 0x9 PUSH1 0x20 MSTORE PUSH1 0x40 DUP2 KECCAK256 SLOAD PUSH1 0x8 DUP1 SLOAD SWAP4 SWAP5 POP SWAP1 SWAP3 DUP5 SWAP1 DUP2 LT PUSH2 0x164B JUMPI PUSH2 0x164B PUSH2 0x1B3D JUMP JUMPDEST SWAP1 PUSH1 0x0 MSTORE PUSH1 0x20 PUSH1 0x0 KECCAK256 ADD SLOAD SWAP1 POP DUP1 PUSH1 0x8 DUP4 DUP2 SLOAD DUP2 LT PUSH2 0x166C JUMPI PUSH2 0x166C PUSH2 0x1B3D JUMP JUMPDEST PUSH1 0x0 SWAP2 DUP3 MSTORE PUSH1 0x20 DUP1 DUP4 KECCAK256 SWAP1 SWAP2 ADD SWAP3 SWAP1 SWAP3 SSTORE DUP3 DUP2 MSTORE PUSH1 0x9 SWAP1 SWAP2 MSTORE PUSH1 0x40 DUP1 DUP3 KECCAK256 DUP5 SWAP1 SSTORE DUP6 DUP3 MSTORE DUP2 KECCAK256 SSTORE PUSH1 0x8 DUP1 SLOAD DUP1 PUSH2 0x16A4 JUMPI PUSH2 0x16A4 PUSH2 0x1DE7 JUMP JUMPDEST PUSH1 0x1 SWAP1 SUB DUP2 DUP2 SWAP1 PUSH1 0x0 MSTORE PUSH1 0x20 PUSH1 0x0 KECCAK256 ADD PUSH1 0x0 SWAP1 SSTORE SWAP1 SSTORE POP POP POP POP JUMP JUMPDEST PUSH1 0x0 PUSH2 0x16CB DUP4 PUSH2 0x888 JUMP JUMPDEST PUSH1 0x1 PUSH1 0x1 PUSH1 0xA0 SHL SUB SWAP1 SWAP4 AND PUSH1 0x0 SWAP1 DUP2 MSTORE PUSH1 0x6 PUSH1 0x20 SWAP1 DUP2 MSTORE PUSH1 0x40 DUP1 DUP4 KECCAK256 DUP7 DUP5 MSTORE DUP3 MSTORE DUP1 DUP4 KECCAK256 DUP6 SWAP1 SSTORE SWAP4 DUP3 MSTORE PUSH1 0x7 SWAP1 MSTORE SWAP2 SWAP1 SWAP2 KECCAK256 SWAP2 SWAP1 SWAP2 SSTORE POP JUMP JUMPDEST PUSH1 0x1 PUSH1 0x1 PUSH1 0xE0 SHL SUB NOT DUP2 AND DUP2 EQ PUSH2 0xC39 JUMPI PUSH1 0x0 DUP1 REVERT JUMPDEST PUSH1 0x0 PUSH1 0x20 DUP3 DUP5 SUB SLT ISZERO PUSH2 0x172C JUMPI PUSH1 0x0 DUP1 REVERT JUMPDEST DUP2 CALLDATALOAD PUSH2 0xB0C DUP2 PUSH2 0x1704 JUMP JUMPDEST DUP1 CALLDATALOAD PUSH1 0x1 PUSH1 0x1 PUSH1 0xA0 SHL SUB DUP2 AND DUP2 EQ PUSH2 0x174E JUMPI PUSH1 0x0 DUP1 REVERT JUMPDEST SWAP2 SWAP1 POP JUMP JUMPDEST PUSH1 0x0 DUP1 PUSH1 0x40 DUP4 DUP6 SUB SLT ISZERO PUSH2 0x1766 JUMPI PUSH1 0x0 DUP1 REVERT JUMPDEST PUSH2 0x176F DUP4 PUSH2 0x1737 JUMP JUMPDEST SWAP2 POP PUSH1 0x20 DUP4 ADD CALLDATALOAD PUSH1 0x1 PUSH1 0x1 PUSH1 0x60 SHL SUB DUP2 AND DUP2 EQ PUSH2 0x178B JUMPI PUSH1 0x0 DUP1 REVERT JUMPDEST DUP1 SWAP2 POP POP SWAP3 POP SWAP3 SWAP1 POP JUMP JUMPDEST PUSH1 0x0 JUMPDEST DUP4 DUP2 LT ISZERO PUSH2 0x17B1 JUMPI DUP2 DUP2 ADD MLOAD DUP4 DUP3 ADD MSTORE PUSH1 0x20 ADD PUSH2 0x1799 JUMP JUMPDEST POP POP PUSH1 0x0 SWAP2 ADD MSTORE JUMP JUMPDEST PUSH1 0x0 DUP2 MLOAD DUP1 DUP5 MSTORE PUSH2 0x17D2 DUP2 PUSH1 0x20 DUP7 ADD PUSH1 0x20 DUP7 ADD PUSH2 0x1796 JUMP JUMPDEST PUSH1 0x1F ADD PUSH1 0x1F NOT AND SWAP3 SWAP1 SWAP3 ADD PUSH1 0x20 ADD SWAP3 SWAP2 POP POP JUMP JUMPDEST PUSH1 0x20 DUP2 MSTORE PUSH1 0x0 PUSH2 0xB0C PUSH1 0x20 DUP4 ADD DUP5 PUSH2 0x17BA JUMP JUMPDEST PUSH1 0x0 PUSH1 0x20 DUP3 DUP5 SUB SLT ISZERO PUSH2 0x180B JUMPI PUSH1 0x0 DUP1 REVERT JUMPDEST POP CALLDATALOAD SWAP2 SWAP1 POP JUMP JUMPDEST PUSH1 0x0 DUP1 PUSH1 0x40 DUP4 DUP6 SUB SLT ISZERO PUSH2 0x1825 JUMPI PUSH1 0x0 DUP1 REVERT JUMPDEST PUSH2 0x182E DUP4 PUSH2 0x1737 JUMP JUMPDEST SWAP5 PUSH1 0x20 SWAP4 SWAP1 SWAP4 ADD CALLDATALOAD SWAP4 POP POP POP JUMP JUMPDEST PUSH1 0x0 DUP1 PUSH1 0x0 PUSH1 0x60 DUP5 DUP7 SUB SLT ISZERO PUSH2 0x1851 JUMPI PUSH1 0x0 DUP1 REVERT JUMPDEST PUSH2 0x185A DUP5 PUSH2 0x1737 JUMP JUMPDEST SWAP3 POP PUSH2 0x1868 PUSH1 0x20 DUP6 ADD PUSH2 0x1737 JUMP JUMPDEST SWAP2 POP PUSH1 0x40 DUP5 ADD CALLDATALOAD SWAP1 POP SWAP3 POP SWAP3 POP SWAP3 JUMP JUMPDEST PUSH1 0x0 DUP1 PUSH1 0x40 DUP4 DUP6 SUB SLT ISZERO PUSH2 0x188B JUMPI PUSH1 0x0 DUP1 REVERT JUMPDEST POP POP DUP1 CALLDATALOAD SWAP3 PUSH1 0x20 SWAP1 SWAP2 ADD CALLDATALOAD SWAP2 POP JUMP JUMPDEST PUSH1 0x0 PUSH1 0x20 DUP3 DUP5 SUB SLT ISZERO PUSH2 0x18AC JUMPI PUSH1 0x0 DUP1 REVERT JUMPDEST PUSH2 0xB0C DUP3 PUSH2 0x1737 JUMP JUMPDEST PUSH1 0x0 DUP1 PUSH1 0x20 DUP4 DUP6 SUB SLT ISZERO PUSH2 0x18C8 JUMPI PUSH1 0x0 DUP1 REVERT JUMPDEST DUP3 CALLDATALOAD PUSH8 0xFFFFFFFFFFFFFFFF DUP1 DUP3 GT ISZERO PUSH2 0x18E0 JUMPI PUSH1 0x0 DUP1 REVERT JUMPDEST DUP2 DUP6 ADD SWAP2 POP DUP6 PUSH1 0x1F DUP4 ADD SLT PUSH2 0x18F4 JUMPI PUSH1 0x0 DUP1 REVERT JUMPDEST DUP2 CALLDATALOAD DUP2 DUP2 GT ISZERO PUSH2 0x1903 JUMPI PUSH1 0x0 DUP1 REVERT JUMPDEST DUP7 PUSH1 0x20 DUP3 DUP6 ADD ADD GT ISZERO PUSH2 0x1915 JUMPI PUSH1 0x0 DUP1 REVERT JUMPDEST PUSH1 0x20 SWAP3 SWAP1 SWAP3 ADD SWAP7 SWAP2 SWAP6 POP SWAP1 SWAP4 POP POP POP POP JUMP JUMPDEST PUSH1 0x0 DUP1 PUSH1 0x40 DUP4 DUP6 SUB SLT ISZERO PUSH2 0x193A JUMPI PUSH1 0x0 DUP1 REVERT JUMPDEST PUSH2 0x1943 DUP4 PUSH2 0x1737 JUMP JUMPDEST SWAP2 POP PUSH1 0x20 DUP4 ADD CALLDATALOAD DUP1 ISZERO ISZERO DUP2 EQ PUSH2 0x178B JUMPI PUSH1 0x0 DUP1 REVERT JUMPDEST PUSH4 0x4E487B71 PUSH1 0xE0 SHL PUSH1 0x0 MSTORE PUSH1 0x41 PUSH1 0x4 MSTORE PUSH1 0x24 PUSH1 0x0 REVERT JUMPDEST PUSH1 0x0 DUP1 PUSH1 0x0 DUP1 PUSH1 0x80 DUP6 DUP8 SUB SLT ISZERO PUSH2 0x1984 JUMPI PUSH1 0x0 DUP1 REVERT JUMPDEST PUSH2 0x198D DUP6 PUSH2 0x1737 JUMP JUMPDEST SWAP4 POP PUSH2 0x199B PUSH1 0x20 DUP7 ADD PUSH2 0x1737 JUMP JUMPDEST SWAP3 POP PUSH1 0x40 DUP6 ADD CALLDATALOAD SWAP2 POP PUSH1 0x60 DUP6 ADD CALLDATALOAD PUSH8 0xFFFFFFFFFFFFFFFF DUP1 DUP3 GT ISZERO PUSH2 0x19BF JUMPI PUSH1 0x0 DUP1 REVERT JUMPDEST DUP2 DUP8 ADD SWAP2 POP DUP8 PUSH1 0x1F DUP4 ADD SLT PUSH2 0x19D3 JUMPI PUSH1 0x0 DUP1 REVERT JUMPDEST DUP2 CALLDATALOAD DUP2 DUP2 GT ISZERO PUSH2 0x19E5 JUMPI PUSH2 0x19E5 PUSH2 0x1958 JUMP JUMPDEST PUSH1 0x40 MLOAD PUSH1 0x1F DUP3 ADD PUSH1 0x1F NOT SWAP1 DUP2 AND PUSH1 0x3F ADD AND DUP2 ADD SWAP1 DUP4 DUP3 GT DUP2 DUP4 LT OR ISZERO PUSH2 0x1A0D JUMPI PUSH2 0x1A0D PUSH2 0x1958 JUMP JUMPDEST DUP2 PUSH1 0x40 MSTORE DUP3 DUP2 MSTORE DUP11 PUSH1 0x20 DUP5 DUP8 ADD ADD GT ISZERO PUSH2 0x1A26 JUMPI PUSH1 0x0 DUP1 REVERT JUMPDEST DUP3 PUSH1 0x20 DUP7 ADD PUSH1 0x20 DUP4 ADD CALLDATACOPY PUSH1 0x0 PUSH1 0x20 DUP5 DUP4 ADD ADD MSTORE DUP1 SWAP6 POP POP POP POP POP POP SWAP3 SWAP6 SWAP2 SWAP5 POP SWAP3 POP JUMP JUMPDEST PUSH1 0x0 DUP1 PUSH1 0x40 DUP4 DUP6 SUB SLT ISZERO PUSH2 0x1A5D JUMPI PUSH1 0x0 DUP1 REVERT JUMPDEST PUSH2 0x1A66 DUP4 PUSH2 0x1737 JUMP JUMPDEST SWAP2 POP PUSH2 0x1A74 PUSH1 0x20 DUP5 ADD PUSH2 0x1737 JUMP JUMPDEST SWAP1 POP SWAP3 POP SWAP3 SWAP1 POP JUMP JUMPDEST PUSH1 0x20 DUP1 DUP3 MSTORE DUP2 DUP2 ADD MSTORE PUSH32 0x4F776E61626C653A2063616C6C6572206973206E6F7420746865206F776E6572 PUSH1 0x40 DUP3 ADD MSTORE PUSH1 0x60 ADD SWAP1 JUMP JUMPDEST PUSH1 0x1 DUP2 DUP2 SHR SWAP1 DUP3 AND DUP1 PUSH2 0x1AC6 JUMPI PUSH1 0x7F DUP3 AND SWAP2 POP JUMPDEST PUSH1 0x20 DUP3 LT DUP2 SUB PUSH2 0x1AE6 JUMPI PUSH4 0x4E487B71 PUSH1 0xE0 SHL PUSH1 0x0 MSTORE PUSH1 0x22 PUSH1 0x4 MSTORE PUSH1 0x24 PUSH1 0x0 REVERT JUMPDEST POP SWAP2 SWAP1 POP JUMP JUMPDEST PUSH1 0x20 DUP1 DUP3 MSTORE PUSH1 0x31 SWAP1 DUP3 ADD MSTORE PUSH32 0x4552433732313A207472616E736665722063616C6C6572206973206E6F74206F PUSH1 0x40 DUP3 ADD MSTORE PUSH17 0x1DDB995C881B9BDC88185C1C1C9BDD9959 PUSH1 0x7A SHL PUSH1 0x60 DUP3 ADD MSTORE PUSH1 0x80 ADD SWAP1 JUMP JUMPDEST PUSH4 0x4E487B71 PUSH1 0xE0 SHL PUSH1 0x0 MSTORE PUSH1 0x32 PUSH1 0x4 MSTORE PUSH1 0x24 PUSH1 0x0 REVERT JUMPDEST PUSH1 0x1F DUP3 GT ISZERO PUSH2 0x66C JUMPI PUSH1 0x0 DUP2 DUP2 MSTORE PUSH1 0x20 DUP2 KECCAK256 PUSH1 0x1F DUP6 ADD PUSH1 0x5 SHR DUP2 ADD PUSH1 0x20 DUP7 LT ISZERO PUSH2 0x1B7A JUMPI POP DUP1 JUMPDEST PUSH1 0x1F DUP6 ADD PUSH1 0x5 SHR DUP3 ADD SWAP2 POP JUMPDEST DUP2 DUP2 LT ISZERO PUSH2 0x1B99 JUMPI DUP3 DUP2 SSTORE PUSH1 0x1 ADD PUSH2 0x1B86 JUMP JUMPDEST POP POP POP POP POP POP JUMP JUMPDEST PUSH8 0xFFFFFFFFFFFFFFFF DUP4 GT ISZERO PUSH2 0x1BB9 JUMPI PUSH2 0x1BB9 PUSH2 0x1958 JUMP JUMPDEST PUSH2 0x1BCD DUP4 PUSH2 0x1BC7 DUP4 SLOAD PUSH2 0x1AB2 JUMP JUMPDEST DUP4 PUSH2 0x1B53 JUMP JUMPDEST PUSH1 0x0 PUSH1 0x1F DUP5 GT PUSH1 0x1 DUP2 EQ PUSH2 0x1C01 JUMPI PUSH1 0x0 DUP6 ISZERO PUSH2 0x1BE9 JUMPI POP DUP4 DUP3 ADD CALLDATALOAD JUMPDEST PUSH1 0x0 NOT PUSH1 0x3 DUP8 SWAP1 SHL SHR NOT AND PUSH1 0x1 DUP7 SWAP1 SHL OR DUP4 SSTORE PUSH2 0x1C5B JUMP JUMPDEST PUSH1 0x0 DUP4 DUP2 MSTORE PUSH1 0x20 SWAP1 KECCAK256 PUSH1 0x1F NOT DUP7 AND SWAP1 DUP4 JUMPDEST DUP3 DUP2 LT ISZERO PUSH2 0x1C32 JUMPI DUP7 DUP6 ADD CALLDATALOAD DUP3 SSTORE PUSH1 0x20 SWAP5 DUP6 ADD SWAP5 PUSH1 0x1 SWAP1 SWAP3 ADD SWAP2 ADD PUSH2 0x1C12 JUMP JUMPDEST POP DUP7 DUP3 LT ISZERO PUSH2 0x1C4F JUMPI PUSH1 0x0 NOT PUSH1 0xF8 DUP9 PUSH1 0x3 SHL AND SHR NOT DUP5 DUP8 ADD CALLDATALOAD AND DUP2 SSTORE JUMPDEST POP POP PUSH1 0x1 DUP6 PUSH1 0x1 SHL ADD DUP4 SSTORE JUMPDEST POP POP POP POP POP JUMP JUMPDEST PUSH4 0x4E487B71 PUSH1 0xE0 SHL PUSH1 0x0 MSTORE PUSH1 0x12 PUSH1 0x4 MSTORE PUSH1 0x24 PUSH1 0x0 REVERT JUMPDEST PUSH4 0x4E487B71 PUSH1 0xE0 SHL PUSH1 0x0 MSTORE PUSH1 0x11 PUSH1 0x4 MSTORE PUSH1 0x24 PUSH1 0x0 REVERT JUMPDEST PUSH1 0x0 DUP3 PUSH2 0x1C9D JUMPI PUSH2 0x1C9D PUSH2 0x1C62 JUMP JUMPDEST POP DIV SWAP1 JUMP JUMPDEST DUP1 DUP3 MUL DUP2 ISZERO DUP3 DUP3 DIV DUP5 EQ OR PUSH2 0x3CD JUMPI PUSH2 0x3CD PUSH2 0x1C78 JUMP JUMPDEST PUSH1 0x0 DUP4 MLOAD PUSH2 0x1CCB DUP2 DUP5 PUSH1 0x20 DUP9 ADD PUSH2 0x1796 JUMP JUMPDEST DUP4 MLOAD SWAP1 DUP4 ADD SWAP1 PUSH2 0x1CDF DUP2 DUP4 PUSH1 0x20 DUP9 ADD PUSH2 0x1796 JUMP JUMPDEST ADD SWAP5 SWAP4 POP POP POP POP JUMP JUMPDEST DUP2 DUP2 SUB DUP2 DUP2 GT ISZERO PUSH2 0x3CD JUMPI PUSH2 0x3CD PUSH2 0x1C78 JUMP JUMPDEST DUP1 DUP3 ADD DUP1 DUP3 GT ISZERO PUSH2 0x3CD JUMPI PUSH2 0x3CD PUSH2 0x1C78 JUMP JUMPDEST PUSH1 0x20 DUP1 DUP3 MSTORE PUSH1 0x32 SWAP1 DUP3 ADD MSTORE PUSH32 0x4552433732313A207472616E7366657220746F206E6F6E204552433732315265 PUSH1 0x40 DUP3 ADD MSTORE PUSH18 0x31B2B4BB32B91034B6B83632B6B2B73A32B9 PUSH1 0x71 SHL PUSH1 0x60 DUP3 ADD MSTORE PUSH1 0x80 ADD SWAP1 JUMP JUMPDEST PUSH1 0x0 PUSH1 0x1 DUP3 ADD PUSH2 0x1D72 JUMPI PUSH2 0x1D72 PUSH2 0x1C78 JUMP JUMPDEST POP PUSH1 0x1 ADD SWAP1 JUMP JUMPDEST PUSH1 0x0 DUP3 PUSH2 0x1D88 JUMPI PUSH2 0x1D88 PUSH2 0x1C62 JUMP JUMPDEST POP MOD SWAP1 JUMP JUMPDEST PUSH1 0x1 PUSH1 0x1 PUSH1 0xA0 SHL SUB DUP6 DUP2 AND DUP3 MSTORE DUP5 AND PUSH1 0x20 DUP3 ADD MSTORE PUSH1 0x40 DUP2 ADD DUP4 SWAP1 MSTORE PUSH1 0x80 PUSH1 0x60 DUP3 ADD DUP2 SWAP1 MSTORE PUSH1 0x0 SWAP1 PUSH2 0x1DC0 SWAP1 DUP4 ADD DUP5 PUSH2 0x17BA JUMP JUMPDEST SWAP7 SWAP6 POP POP POP POP POP POP JUMP JUMPDEST PUSH1 0x0 PUSH1 0x20 DUP3 DUP5 SUB SLT ISZERO PUSH2 0x1DDC JUMPI PUSH1 0x0 DUP1 REVERT JUMPDEST DUP2 MLOAD PUSH2 0xB0C DUP2 PUSH2 0x1704 JUMP JUMPDEST PUSH4 0x4E487B71 PUSH1 0xE0 SHL PUSH1 0x0 MSTORE PUSH1 0x31 PUSH1 0x4 MSTORE PUSH1 0x24 PUSH1 0x0 REVERT INVALID LOG2 PUSH5 0x6970667358 0x22 SLT KECCAK256 0xB2 PUSH30 0x2C3330A3D62E8F22E799132243B20FB4B3BBA8D67757F124022E5B4D1717 PUSH5 0x736F6C6343 STOP ADDMOD SLT STOP CALLER "
				},
				"gasEstimates": {
					"creation": {
						"codeDepositCost": "1546200",
						"executionCost": "infinite",
						"totalCost": "infinite"
					},
					"external": {
						"approve(address,uint256)": "infinite",
						"balanceOf(address)": "2612",
						"calculateRoyalty(uint256)": "infinite",
						"contractURI()": "infinite",
						"getApproved(uint256)": "4782",
						"isApprovedForAll(address,address)": "infinite",
						"name()": "infinite",
						"owner()": "2398",
						"ownerOf(uint256)": "2689",
						"renounceOwnership()": "28162",
						"royaltyInfo(uint256,uint256)": "infinite",
						"safeMint(address,uint256)": "infinite",
						"safeTransferFrom(address,address,uint256)": "infinite",
						"safeTransferFrom(address,address,uint256,bytes)": "infinite",
						"setApprovalForAll(address,bool)": "26728",
						"setContractURI(string)": "infinite",
						"setRoyaltyInfo(address,uint96)": "24731",
						"supportsInterface(bytes4)": "infinite",
						"symbol()": "infinite",
						"tokenByIndex(uint256)": "6826",
						"tokenOfOwnerByIndex(address,uint256)": "4997",
						"tokenURI(uint256)": "infinite",
						"totalSupply()": "2415",
						"transferFrom(address,address,uint256)": "infinite",
						"transferOwnership(address)": "28422"
					},
					"internal": {
						"_beforeTokenTransfer(address,address,uint256)": "infinite"
					}
				},
				"methodIdentifiers": {
					"approve(address,uint256)": "095ea7b3",
					"balanceOf(address)": "70a08231",
					"calculateRoyalty(uint256)": "a2e69613",
					"contractURI()": "e8a3d485",
					"getApproved(uint256)": "081812fc",
					"isApprovedForAll(address,address)": "e985e9c5",
					"name()": "06fdde03",
					"owner()": "8da5cb5b",
					"ownerOf(uint256)": "6352211e",
					"renounceOwnership()": "715018a6",
					"royaltyInfo(uint256,uint256)": "2a55205a",
					"safeMint(address,uint256)": "a1448194",
					"safeTransferFrom(address,address,uint256)": "42842e0e",
					"safeTransferFrom(address,address,uint256,bytes)": "b88d4fde",
					"setApprovalForAll(address,bool)": "a22cb465",
					"setContractURI(string)": "938e3d7b",
					"setRoyaltyInfo(address,uint96)": "02fa7c47",
					"supportsInterface(bytes4)": "01ffc9a7",
					"symbol()": "95d89b41",
					"tokenByIndex(uint256)": "4f6ccce7",
					"tokenOfOwnerByIndex(address,uint256)": "2f745c59",
					"tokenURI(uint256)": "c87b56dd",
					"totalSupply()": "18160ddd",
					"transferFrom(address,address,uint256)": "23b872dd",
					"transferOwnership(address)": "f2fde38b"
				}
			},
			"storageLayout": {
				"storage": [
					{
						"astId": 130,
						"contract": "Royelty_ERC-2981_Contract.sol:MyToken",
						"label": "_name",
						"offset": 0,
						"slot": "0",
						"type": "t_string_storage"
					},
					{
						"astId": 132,
						"contract": "Royelty_ERC-2981_Contract.sol:MyToken",
						"label": "_symbol",
						"offset": 0,
						"slot": "1",
						"type": "t_string_storage"
					},
					{
						"astId": 136,
						"contract": "Royelty_ERC-2981_Contract.sol:MyToken",
						"label": "_owners",
						"offset": 0,
						"slot": "2",
						"type": "t_mapping(t_uint256,t_address)"
					},
					{
						"astId": 140,
						"contract": "Royelty_ERC-2981_Contract.sol:MyToken",
						"label": "_balances",
						"offset": 0,
						"slot": "3",
						"type": "t_mapping(t_address,t_uint256)"
					},
					{
						"astId": 144,
						"contract": "Royelty_ERC-2981_Contract.sol:MyToken",
						"label": "_tokenApprovals",
						"offset": 0,
						"slot": "4",
						"type": "t_mapping(t_uint256,t_address)"
					},
					{
						"astId": 150,
						"contract": "Royelty_ERC-2981_Contract.sol:MyToken",
						"label": "_operatorApprovals",
						"offset": 0,
						"slot": "5",
						"type": "t_mapping(t_address,t_mapping(t_address,t_bool))"
					},
					{
						"astId": 1084,
						"contract": "Royelty_ERC-2981_Contract.sol:MyToken",
						"label": "_ownedTokens",
						"offset": 0,
						"slot": "6",
						"type": "t_mapping(t_address,t_mapping(t_uint256,t_uint256))"
					},
					{
						"astId": 1088,
						"contract": "Royelty_ERC-2981_Contract.sol:MyToken",
						"label": "_ownedTokensIndex",
						"offset": 0,
						"slot": "7",
						"type": "t_mapping(t_uint256,t_uint256)"
					},
					{
						"astId": 1091,
						"contract": "Royelty_ERC-2981_Contract.sol:MyToken",
						"label": "_allTokens",
						"offset": 0,
						"slot": "8",
						"type": "t_array(t_uint256)dyn_storage"
					},
					{
						"astId": 1095,
						"contract": "Royelty_ERC-2981_Contract.sol:MyToken",
						"label": "_allTokensIndex",
						"offset": 0,
						"slot": "9",
						"type": "t_mapping(t_uint256,t_uint256)"
					},
					{
						"astId": 7,
						"contract": "Royelty_ERC-2981_Contract.sol:MyToken",
						"label": "_owner",
						"offset": 0,
						"slot": "10",
						"type": "t_address"
					},
					{
						"astId": 2036,
						"contract": "Royelty_ERC-2981_Contract.sol:MyToken",
						"label": "contractURI",
						"offset": 0,
						"slot": "11",
						"type": "t_string_storage"
					},
					{
						"astId": 2038,
						"contract": "Royelty_ERC-2981_Contract.sol:MyToken",
						"label": "royaltyFeesInBips",
						"offset": 0,
						"slot": "12",
						"type": "t_uint96"
					},
					{
						"astId": 2040,
						"contract": "Royelty_ERC-2981_Contract.sol:MyToken",
						"label": "royaltyReceiver",
						"offset": 12,
						"slot": "12",
						"type": "t_address"
					}
				],
				"types": {
					"t_address": {
						"encoding": "inplace",
						"label": "address",
						"numberOfBytes": "20"
					},
					"t_array(t_uint256)dyn_storage": {
						"base": "t_uint256",
						"encoding": "dynamic_array",
						"label": "uint256[]",
						"numberOfBytes": "32"
					},
					"t_bool": {
						"encoding": "inplace",
						"label": "bool",
						"numberOfBytes": "1"
					},
					"t_mapping(t_address,t_bool)": {
						"encoding": "mapping",
						"key": "t_address",
						"label": "mapping(address => bool)",
						"numberOfBytes": "32",
						"value": "t_bool"
					},
					"t_mapping(t_address,t_mapping(t_address,t_bool))": {
						"encoding": "mapping",
						"key": "t_address",
						"label": "mapping(address => mapping(address => bool))",
						"numberOfBytes": "32",
						"value": "t_mapping(t_address,t_bool)"
					},
					"t_mapping(t_address,t_mapping(t_uint256,t_uint256))": {
						"encoding": "mapping",
						"key": "t_address",
						"label": "mapping(address => mapping(uint256 => uint256))",
						"numberOfBytes": "32",
						"value": "t_mapping(t_uint256,t_uint256)"
					},
					"t_mapping(t_address,t_uint256)": {
						"encoding": "mapping",
						"key": "t_address",
						"label": "mapping(address => uint256)",
						"numberOfBytes": "32",
						"value": "t_uint256"
					},
					"t_mapping(t_uint256,t_address)": {
						"encoding": "mapping",
						"key": "t_uint256",
						"label": "mapping(uint256 => address)",
						"numberOfBytes": "32",
						"value": "t_address"
					},
					"t_mapping(t_uint256,t_uint256)": {
						"encoding": "mapping",
						"key": "t_uint256",
						"label": "mapping(uint256 => uint256)",
						"numberOfBytes": "32",
						"value": "t_uint256"
					},
					"t_string_storage": {
						"encoding": "bytes",
						"label": "string",
						"numberOfBytes": "32"
					},
					"t_uint256": {
						"encoding": "inplace",
						"label": "uint256",
						"numberOfBytes": "32"
					},
					"t_uint96": {
						"encoding": "inplace",
						"label": "uint96",
						"numberOfBytes": "12"
					}
				}
			},
			"userdoc": {
				"kind": "user",
				"methods": {},
				"version": 1
			}
		}
	}
}