{
	"MY MainNFT/My_NFT.sol": {
		"MinteriumUser": {
			"abi": [
				{
					"inputs": [
						{
							"internalType": "string",
							"name": "_name",
							"type": "string"
						},
						{
							"internalType": "string",
							"name": "_symbol",
							"type": "string"
						}
					],
					"stateMutability": "nonpayable",
					"type": "constructor"
				},
				{
					"anonymous": false,
					"inputs": [
						{
							"indexed": true,
							"internalType": "address",
							"name": "owner",
							"type": "address"
						},
						{
							"indexed": true,
							"internalType": "address",
							"name": "approved",
							"type": "address"
						},
						{
							"indexed": true,
							"internalType": "uint256",
							"name": "tokenId",
							"type": "uint256"
						}
					],
					"name": "Approval",
					"type": "event"
				},
				{
					"anonymous": false,
					"inputs": [
						{
							"indexed": true,
							"internalType": "address",
							"name": "owner",
							"type": "address"
						},
						{
							"indexed": true,
							"internalType": "address",
							"name": "operator",
							"type": "address"
						},
						{
							"indexed": false,
							"internalType": "bool",
							"name": "approved",
							"type": "bool"
						}
					],
					"name": "ApprovalForAll",
					"type": "event"
				},
				{
					"anonymous": false,
					"inputs": [
						{
							"indexed": true,
							"internalType": "address",
							"name": "previousOwner",
							"type": "address"
						},
						{
							"indexed": true,
							"internalType": "address",
							"name": "newOwner",
							"type": "address"
						}
					],
					"name": "OwnershipTransferred",
					"type": "event"
				},
				{
					"anonymous": false,
					"inputs": [
						{
							"indexed": true,
							"internalType": "address",
							"name": "from",
							"type": "address"
						},
						{
							"indexed": true,
							"internalType": "address",
							"name": "to",
							"type": "address"
						},
						{
							"indexed": true,
							"internalType": "uint256",
							"name": "tokenId",
							"type": "uint256"
						}
					],
					"name": "Transfer",
					"type": "event"
				},
				{
					"inputs": [
						{
							"internalType": "address",
							"name": "to",
							"type": "address"
						},
						{
							"internalType": "uint256",
							"name": "tokenId",
							"type": "uint256"
						}
					],
					"name": "approve",
					"outputs": [],
					"stateMutability": "nonpayable",
					"type": "function"
				},
				{
					"inputs": [
						{
							"internalType": "address",
							"name": "owner",
							"type": "address"
						}
					],
					"name": "balanceOf",
					"outputs": [
						{
							"internalType": "uint256",
							"name": "",
							"type": "uint256"
						}
					],
					"stateMutability": "view",
					"type": "function"
				},
				{
					"inputs": [
						{
							"internalType": "uint256",
							"name": "tokenId",
							"type": "uint256"
						}
					],
					"name": "getApproved",
					"outputs": [
						{
							"internalType": "address",
							"name": "",
							"type": "address"
						}
					],
					"stateMutability": "view",
					"type": "function"
				},
				{
					"inputs": [
						{
							"internalType": "address",
							"name": "owner",
							"type": "address"
						},
						{
							"internalType": "address",
							"name": "operator",
							"type": "address"
						}
					],
					"name": "isApprovedForAll",
					"outputs": [
						{
							"internalType": "bool",
							"name": "",
							"type": "bool"
						}
					],
					"stateMutability": "view",
					"type": "function"
				},
				{
					"inputs": [],
					"name": "name",
					"outputs": [
						{
							"internalType": "string",
							"name": "",
							"type": "string"
						}
					],
					"stateMutability": "view",
					"type": "function"
				},
				{
					"inputs": [],
					"name": "owner",
					"outputs": [
						{
							"internalType": "address",
							"name": "",
							"type": "address"
						}
					],
					"stateMutability": "view",
					"type": "function"
				},
				{
					"inputs": [
						{
							"internalType": "uint256",
							"name": "tokenId",
							"type": "uint256"
						}
					],
					"name": "ownerOf",
					"outputs": [
						{
							"internalType": "address",
							"name": "",
							"type": "address"
						}
					],
					"stateMutability": "view",
					"type": "function"
				},
				{
					"inputs": [],
					"name": "renounceOwnership",
					"outputs": [],
					"stateMutability": "nonpayable",
					"type": "function"
				},
				{
					"inputs": [
						{
							"internalType": "address",
							"name": "to",
							"type": "address"
						},
						{
							"internalType": "string",
							"name": "tokenURI",
							"type": "string"
						}
					],
					"name": "safeMint",
					"outputs": [
						{
							"internalType": "uint256",
							"name": "tokenId",
							"type": "uint256"
						}
					],
					"stateMutability": "nonpayable",
					"type": "function"
				},
				{
					"inputs": [
						{
							"internalType": "address",
							"name": "from",
							"type": "address"
						},
						{
							"internalType": "address",
							"name": "to",
							"type": "address"
						},
						{
							"internalType": "uint256",
							"name": "tokenId",
							"type": "uint256"
						}
					],
					"name": "safeTransferFrom",
					"outputs": [],
					"stateMutability": "nonpayable",
					"type": "function"
				},
				{
					"inputs": [
						{
							"internalType": "address",
							"name": "from",
							"type": "address"
						},
						{
							"internalType": "address",
							"name": "to",
							"type": "address"
						},
						{
							"internalType": "uint256",
							"name": "tokenId",
							"type": "uint256"
						},
						{
							"internalType": "bytes",
							"name": "_data",
							"type": "bytes"
						}
					],
					"name": "safeTransferFrom",
					"outputs": [],
					"stateMutability": "nonpayable",
					"type": "function"
				},
				{
					"inputs": [
						{
							"internalType": "address",
							"name": "operator",
							"type": "address"
						},
						{
							"internalType": "bool",
							"name": "approved",
							"type": "bool"
						}
					],
					"name": "setApprovalForAll",
					"outputs": [],
					"stateMutability": "nonpayable",
					"type": "function"
				},
				{
					"inputs": [
						{
							"internalType": "bytes4",
							"name": "interfaceId",
							"type": "bytes4"
						}
					],
					"name": "supportsInterface",
					"outputs": [
						{
							"internalType": "bool",
							"name": "",
							"type": "bool"
						}
					],
					"stateMutability": "view",
					"type": "function"
				},
				{
					"inputs": [],
					"name": "symbol",
					"outputs": [
						{
							"internalType": "string",
							"name": "",
							"type": "string"
						}
					],
					"stateMutability": "view",
					"type": "function"
				},
				{
					"inputs": [
						{
							"internalType": "uint256",
							"name": "index",
							"type": "uint256"
						}
					],
					"name": "tokenByIndex",
					"outputs": [
						{
							"internalType": "uint256",
							"name": "",
							"type": "uint256"
						}
					],
					"stateMutability": "view",
					"type": "function"
				},
				{
					"inputs": [
						{
							"internalType": "address",
							"name": "owner",
							"type": "address"
						},
						{
							"internalType": "uint256",
							"name": "index",
							"type": "uint256"
						}
					],
					"name": "tokenOfOwnerByIndex",
					"outputs": [
						{
							"internalType": "uint256",
							"name": "",
							"type": "uint256"
						}
					],
					"stateMutability": "view",
					"type": "function"
				},
				{
					"inputs": [
						{
							"internalType": "uint256",
							"name": "tokenId",
							"type": "uint256"
						}
					],
					"name": "tokenURI",
					"outputs": [
						{
							"internalType": "string",
							"name": "",
							"type": "string"
						}
					],
					"stateMutability": "view",
					"type": "function"
				},
				{
					"inputs": [],
					"name": "totalSupply",
					"outputs": [
						{
							"internalType": "uint256",
							"name": "",
							"type": "uint256"
						}
					],
					"stateMutability": "view",
					"type": "function"
				},
				{
					"inputs": [
						{
							"internalType": "address",
							"name": "from",
							"type": "address"
						},
						{
							"internalType": "address",
							"name": "to",
							"type": "address"
						},
						{
							"internalType": "uint256",
							"name": "tokenId",
							"type": "uint256"
						}
					],
					"name": "transferFrom",
					"outputs": [],
					"stateMutability": "nonpayable",
					"type": "function"
				},
				{
					"inputs": [
						{
							"internalType": "address",
							"name": "newOwner",
							"type": "address"
						}
					],
					"name": "transferOwnership",
					"outputs": [],
					"stateMutability": "nonpayable",
					"type": "function"
				}
			],
			"devdoc": {
				"events": {
					"Approval(address,address,uint256)": {
						"details": "Emitted when `owner` enables `approved` to manage the `tokenId` token."
					},
					"ApprovalForAll(address,address,bool)": {
						"details": "Emitted when `owner` enables or disables (`approved`) `operator` to manage all of its assets."
					},
					"Transfer(address,address,uint256)": {
						"details": "Emitted when `tokenId` token is transferred from `from` to `to`."
					}
				},
				"kind": "dev",
				"methods": {
					"approve(address,uint256)": {
						"details": "See {IERC721-approve}."
					},
					"balanceOf(address)": {
						"details": "See {IERC721-balanceOf}."
					},
					"getApproved(uint256)": {
						"details": "See {IERC721-getApproved}."
					},
					"isApprovedForAll(address,address)": {
						"details": "See {IERC721-isApprovedForAll}."
					},
					"name()": {
						"details": "See {IERC721Metadata-name}."
					},
					"owner()": {
						"details": "Returns the address of the current owner."
					},
					"ownerOf(uint256)": {
						"details": "See {IERC721-ownerOf}."
					},
					"renounceOwnership()": {
						"details": "Leaves the contract without owner. It will not be possible to call `onlyOwner` functions anymore. Can only be called by the current owner. NOTE: Renouncing ownership will leave the contract without an owner, thereby removing any functionality that is only available to the owner."
					},
					"safeTransferFrom(address,address,uint256)": {
						"details": "See {IERC721-safeTransferFrom}."
					},
					"safeTransferFrom(address,address,uint256,bytes)": {
						"details": "See {IERC721-safeTransferFrom}."
					},
					"setApprovalForAll(address,bool)": {
						"details": "See {IERC721-setApprovalForAll}."
					},
					"symbol()": {
						"details": "See {IERC721Metadata-symbol}."
					},
					"tokenByIndex(uint256)": {
						"details": "See {IERC721Enumerable-tokenByIndex}."
					},
					"tokenOfOwnerByIndex(address,uint256)": {
						"details": "See {IERC721Enumerable-tokenOfOwnerByIndex}."
					},
					"totalSupply()": {
						"details": "See {IERC721Enumerable-totalSupply}."
					},
					"transferFrom(address,address,uint256)": {
						"details": "See {IERC721-transferFrom}."
					},
					"transferOwnership(address)": {
						"details": "Transfers ownership of the contract to a new account (`newOwner`). Can only be called by the current owner."
					}
				},
				"version": 1
			},
			"evm": {
				"assembly": "    /* \"MY MainNFT/My_NFT.sol\":46272:47496  contract MinteriumUser is ERC721, ERC721Enumerable, ERC721URIStorage, Ownable {... */\n  mstore(0x40, 0x80)\n    /* \"MY MainNFT/My_NFT.sol\":46450:46531  constructor(string memory _name, string memory _symbol) ERC721(_name, _symbol) {} */\n  callvalue\n  dup1\n  iszero\n  tag_1\n  jumpi\n  0x00\n  dup1\n  revert\ntag_1:\n  pop\n  mload(0x40)\n  sub(codesize, bytecodeSize)\n  dup1\n  bytecodeSize\n  dup4\n  codecopy\n  dup2\n  add\n  0x40\n  dup2\n  swap1\n  mstore\n  tag_2\n  swap2\n  tag_3\n  jump\t// in\ntag_2:\n    /* \"MY MainNFT/My_NFT.sol\":46513:46518  _name */\n  dup2\n    /* \"MY MainNFT/My_NFT.sol\":46520:46527  _symbol */\n  dup2\n    /* \"MY MainNFT/My_NFT.sol\":20660:20665  _name */\n  0x00\n    /* \"MY MainNFT/My_NFT.sol\":20660:20673  _name = name_ */\n  tag_8\n    /* \"MY MainNFT/My_NFT.sol\":46513:46518  _name */\n  dup4\n    /* \"MY MainNFT/My_NFT.sol\":20660:20665  _name */\n  dup3\n    /* \"MY MainNFT/My_NFT.sol\":20660:20673  _name = name_ */\n  tag_9\n  jump\t// in\ntag_8:\n  pop\n    /* \"MY MainNFT/My_NFT.sol\":20684:20691  _symbol */\n  0x01\n    /* \"MY MainNFT/My_NFT.sol\":20684:20701  _symbol = symbol_ */\n  tag_10\n    /* \"MY MainNFT/My_NFT.sol\":20694:20701  symbol_ */\n  dup3\n    /* \"MY MainNFT/My_NFT.sol\":20684:20691  _symbol */\n  dup3\n    /* \"MY MainNFT/My_NFT.sol\":20684:20701  _symbol = symbol_ */\n  tag_9\n  jump\t// in\ntag_10:\n  pop\n    /* \"MY MainNFT/My_NFT.sol\":20592:20709  constructor (string memory name_, string memory symbol_) {... */\n  pop\n  pop\n    /* \"MY MainNFT/My_NFT.sol\":43463:43480  address msgSender */\n  0x00\n    /* \"MY MainNFT/My_NFT.sol\":43483:43495  _msgSender() */\n  tag_12\n    /* \"MY MainNFT/My_NFT.sol\":43483:43493  _msgSender */\n  shl(0x20, tag_13)\n    /* \"MY MainNFT/My_NFT.sol\":43483:43495  _msgSender() */\n  0x20\n  shr\n  jump\t// in\ntag_12:\n    /* \"MY MainNFT/My_NFT.sol\":43506:43512  _owner */\n  0x0b\n    /* \"MY MainNFT/My_NFT.sol\":43506:43524  _owner = msgSender */\n  dup1\n  sload\n  not(sub(shl(0xa0, 0x01), 0x01))\n  and\n  sub(shl(0xa0, 0x01), 0x01)\n  dup4\n  and\n  swap1\n  dup2\n  or\n  swap1\n  swap2\n  sstore\n    /* \"MY MainNFT/My_NFT.sol\":43540:43583  OwnershipTransferred(address(0), msgSender) */\n  mload(0x40)\n    /* \"MY MainNFT/My_NFT.sol\":43506:43524  _owner = msgSender */\n  swap2\n  swap3\n  pop\n  swap1\n  0x00\n  swap1\n    /* \"MY MainNFT/My_NFT.sol\":43540:43583  OwnershipTransferred(address(0), msgSender) */\n  0x8be0079c531659141344cd1fd0a4f28419497f9722a3daafe3b4186f6b6457e0\n  swap1\n  dup3\n  swap1\n  log3\n    /* \"MY MainNFT/My_NFT.sol\":43452:43591  {... */\n  pop\n    /* \"MY MainNFT/My_NFT.sol\":46450:46531  constructor(string memory _name, string memory _symbol) ERC721(_name, _symbol) {} */\n  pop\n  pop\n    /* \"MY MainNFT/My_NFT.sol\":46272:47496  contract MinteriumUser is ERC721, ERC721Enumerable, ERC721URIStorage, Ownable {... */\n  jump(tag_23)\n    /* \"MY MainNFT/My_NFT.sol\":16055:16153  function _msgSender() internal view virtual returns (address) {... */\ntag_13:\n    /* \"MY MainNFT/My_NFT.sol\":16135:16145  msg.sender */\n  caller\n  swap1\n    /* \"MY MainNFT/My_NFT.sol\":16055:16153  function _msgSender() internal view virtual returns (address) {... */\n  jump\t// out\n    /* \"#utility.yul\":14:141   */\ntag_17:\n    /* \"#utility.yul\":75:85   */\n  0x4e487b71\n    /* \"#utility.yul\":70:73   */\n  0xe0\n    /* \"#utility.yul\":66:86   */\n  shl\n    /* \"#utility.yul\":63:64   */\n  0x00\n    /* \"#utility.yul\":56:87   */\n  mstore\n    /* \"#utility.yul\":106:110   */\n  0x41\n    /* \"#utility.yul\":103:104   */\n  0x04\n    /* \"#utility.yul\":96:111   */\n  mstore\n    /* \"#utility.yul\":130:134   */\n  0x24\n    /* \"#utility.yul\":127:128   */\n  0x00\n    /* \"#utility.yul\":120:135   */\n  revert\n    /* \"#utility.yul\":146:986   */\ntag_18:\n    /* \"#utility.yul\":200:205   */\n  0x00\n    /* \"#utility.yul\":253:256   */\n  dup3\n    /* \"#utility.yul\":246:250   */\n  0x1f\n    /* \"#utility.yul\":238:244   */\n  dup4\n    /* \"#utility.yul\":234:251   */\n  add\n    /* \"#utility.yul\":230:257   */\n  slt\n    /* \"#utility.yul\":220:275   */\n  tag_26\n  jumpi\n    /* \"#utility.yul\":271:272   */\n  0x00\n    /* \"#utility.yul\":268:269   */\n  dup1\n    /* \"#utility.yul\":261:273   */\n  revert\n    /* \"#utility.yul\":220:275   */\ntag_26:\n    /* \"#utility.yul\":294:307   */\n  dup2\n  mload\n  sub(shl(0x40, 0x01), 0x01)\n    /* \"#utility.yul\":356:366   */\n  dup1\n  dup3\n  gt\n    /* \"#utility.yul\":353:389   */\n  iszero\n  tag_28\n  jumpi\n    /* \"#utility.yul\":369:387   */\n  tag_28\n  tag_17\n  jump\t// in\ntag_28:\n    /* \"#utility.yul\":444:446   */\n  0x40\n    /* \"#utility.yul\":438:447   */\n  mload\n    /* \"#utility.yul\":412:414   */\n  0x1f\n    /* \"#utility.yul\":498:511   */\n  dup4\n  add\n  not(0x1f)\n    /* \"#utility.yul\":494:516   */\n  swap1\n  dup2\n  and\n    /* \"#utility.yul\":518:520   */\n  0x3f\n    /* \"#utility.yul\":490:521   */\n  add\n    /* \"#utility.yul\":486:526   */\n  and\n    /* \"#utility.yul\":474:527   */\n  dup2\n  add\n  swap1\n    /* \"#utility.yul\":542:560   */\n  dup3\n  dup3\n  gt\n    /* \"#utility.yul\":562:584   */\n  dup2\n  dup4\n  lt\n    /* \"#utility.yul\":539:585   */\n  or\n    /* \"#utility.yul\":536:608   */\n  iszero\n  tag_30\n  jumpi\n    /* \"#utility.yul\":588:606   */\n  tag_30\n  tag_17\n  jump\t// in\ntag_30:\n    /* \"#utility.yul\":628:638   */\n  dup2\n    /* \"#utility.yul\":624:626   */\n  0x40\n    /* \"#utility.yul\":617:639   */\n  mstore\n    /* \"#utility.yul\":663:665   */\n  dup4\n    /* \"#utility.yul\":655:661   */\n  dup2\n    /* \"#utility.yul\":648:666   */\n  mstore\n    /* \"#utility.yul\":685:689   */\n  0x20\n    /* \"#utility.yul\":675:689   */\n  swap3\n  pop\n    /* \"#utility.yul\":730:733   */\n  dup7\n    /* \"#utility.yul\":725:727   */\n  dup4\n    /* \"#utility.yul\":720:722   */\n  dup6\n    /* \"#utility.yul\":712:718   */\n  dup9\n    /* \"#utility.yul\":708:723   */\n  add\n    /* \"#utility.yul\":704:728   */\n  add\n    /* \"#utility.yul\":701:734   */\n  gt\n    /* \"#utility.yul\":698:751   */\n  iszero\n  tag_31\n  jumpi\n    /* \"#utility.yul\":747:748   */\n  0x00\n    /* \"#utility.yul\":744:745   */\n  dup1\n    /* \"#utility.yul\":737:749   */\n  revert\n    /* \"#utility.yul\":698:751   */\ntag_31:\n    /* \"#utility.yul\":769:770   */\n  0x00\n    /* \"#utility.yul\":760:770   */\n  swap2\n  pop\n    /* \"#utility.yul\":779:912   */\ntag_32:\n    /* \"#utility.yul\":793:795   */\n  dup4\n    /* \"#utility.yul\":790:791   */\n  dup3\n    /* \"#utility.yul\":787:796   */\n  lt\n    /* \"#utility.yul\":779:912   */\n  iszero\n  tag_34\n  jumpi\n    /* \"#utility.yul\":881:895   */\n  dup6\n  dup3\n  add\n    /* \"#utility.yul\":877:900   */\n  dup4\n  add\n    /* \"#utility.yul\":871:901   */\n  mload\n    /* \"#utility.yul\":850:864   */\n  dup2\n  dup4\n  add\n    /* \"#utility.yul\":846:869   */\n  dup5\n  add\n    /* \"#utility.yul\":839:902   */\n  mstore\n    /* \"#utility.yul\":804:814   */\n  swap1\n  dup3\n  add\n  swap1\n    /* \"#utility.yul\":779:912   */\n  jump(tag_32)\ntag_34:\n    /* \"#utility.yul\":954:955   */\n  0x00\n    /* \"#utility.yul\":932:947   */\n  swap4\n  dup2\n  add\n    /* \"#utility.yul\":928:952   */\n  swap1\n  swap3\n  add\n    /* \"#utility.yul\":921:956   */\n  swap3\n  swap1\n  swap3\n  mstore\n    /* \"#utility.yul\":936:942   */\n  swap5\n    /* \"#utility.yul\":146:986   */\n  swap4\n  pop\n  pop\n  pop\n  pop\n  jump\t// out\n    /* \"#utility.yul\":991:1553   */\ntag_3:\n    /* \"#utility.yul\":1090:1096   */\n  0x00\n    /* \"#utility.yul\":1098:1104   */\n  dup1\n    /* \"#utility.yul\":1151:1153   */\n  0x40\n    /* \"#utility.yul\":1139:1148   */\n  dup4\n    /* \"#utility.yul\":1130:1137   */\n  dup6\n    /* \"#utility.yul\":1126:1149   */\n  sub\n    /* \"#utility.yul\":1122:1154   */\n  slt\n    /* \"#utility.yul\":1119:1171   */\n  iszero\n  tag_36\n  jumpi\n    /* \"#utility.yul\":1167:1168   */\n  0x00\n    /* \"#utility.yul\":1164:1165   */\n  dup1\n    /* \"#utility.yul\":1157:1169   */\n  revert\n    /* \"#utility.yul\":1119:1171   */\ntag_36:\n    /* \"#utility.yul\":1194:1210   */\n  dup3\n  mload\n  sub(shl(0x40, 0x01), 0x01)\n    /* \"#utility.yul\":1259:1273   */\n  dup1\n  dup3\n  gt\n    /* \"#utility.yul\":1256:1290   */\n  iszero\n  tag_37\n  jumpi\n    /* \"#utility.yul\":1286:1287   */\n  0x00\n    /* \"#utility.yul\":1283:1284   */\n  dup1\n    /* \"#utility.yul\":1276:1288   */\n  revert\n    /* \"#utility.yul\":1256:1290   */\ntag_37:\n    /* \"#utility.yul\":1309:1370   */\n  tag_38\n    /* \"#utility.yul\":1362:1369   */\n  dup7\n    /* \"#utility.yul\":1353:1359   */\n  dup4\n    /* \"#utility.yul\":1342:1351   */\n  dup8\n    /* \"#utility.yul\":1338:1360   */\n  add\n    /* \"#utility.yul\":1309:1370   */\n  tag_18\n  jump\t// in\ntag_38:\n    /* \"#utility.yul\":1299:1370   */\n  swap4\n  pop\n    /* \"#utility.yul\":1416:1418   */\n  0x20\n    /* \"#utility.yul\":1405:1414   */\n  dup6\n    /* \"#utility.yul\":1401:1419   */\n  add\n    /* \"#utility.yul\":1395:1420   */\n  mload\n    /* \"#utility.yul\":1379:1420   */\n  swap2\n  pop\n    /* \"#utility.yul\":1445:1447   */\n  dup1\n    /* \"#utility.yul\":1435:1443   */\n  dup3\n    /* \"#utility.yul\":1432:1448   */\n  gt\n    /* \"#utility.yul\":1429:1465   */\n  iszero\n  tag_39\n  jumpi\n    /* \"#utility.yul\":1461:1462   */\n  0x00\n    /* \"#utility.yul\":1458:1459   */\n  dup1\n    /* \"#utility.yul\":1451:1463   */\n  revert\n    /* \"#utility.yul\":1429:1465   */\ntag_39:\n  pop\n    /* \"#utility.yul\":1484:1547   */\n  tag_40\n    /* \"#utility.yul\":1539:1546   */\n  dup6\n    /* \"#utility.yul\":1528:1536   */\n  dup3\n    /* \"#utility.yul\":1517:1526   */\n  dup7\n    /* \"#utility.yul\":1513:1537   */\n  add\n    /* \"#utility.yul\":1484:1547   */\n  tag_18\n  jump\t// in\ntag_40:\n    /* \"#utility.yul\":1474:1547   */\n  swap2\n  pop\n  pop\n    /* \"#utility.yul\":991:1553   */\n  swap3\n  pop\n  swap3\n  swap1\n  pop\n  jump\t// out\n    /* \"#utility.yul\":1558:1938   */\ntag_19:\n    /* \"#utility.yul\":1637:1638   */\n  0x01\n    /* \"#utility.yul\":1633:1645   */\n  dup2\n  dup2\n  shr\n  swap1\n    /* \"#utility.yul\":1680:1692   */\n  dup3\n  and\n  dup1\n    /* \"#utility.yul\":1701:1762   */\n  tag_42\n  jumpi\n    /* \"#utility.yul\":1755:1759   */\n  0x7f\n    /* \"#utility.yul\":1747:1753   */\n  dup3\n    /* \"#utility.yul\":1743:1760   */\n  and\n    /* \"#utility.yul\":1733:1760   */\n  swap2\n  pop\n    /* \"#utility.yul\":1701:1762   */\ntag_42:\n    /* \"#utility.yul\":1808:1810   */\n  0x20\n    /* \"#utility.yul\":1800:1806   */\n  dup3\n    /* \"#utility.yul\":1797:1811   */\n  lt\n    /* \"#utility.yul\":1777:1795   */\n  dup2\n    /* \"#utility.yul\":1774:1812   */\n  sub\n    /* \"#utility.yul\":1771:1932   */\n  tag_43\n  jumpi\n    /* \"#utility.yul\":1854:1864   */\n  0x4e487b71\n    /* \"#utility.yul\":1849:1852   */\n  0xe0\n    /* \"#utility.yul\":1845:1865   */\n  shl\n    /* \"#utility.yul\":1842:1843   */\n  0x00\n    /* \"#utility.yul\":1835:1866   */\n  mstore\n    /* \"#utility.yul\":1889:1893   */\n  0x22\n    /* \"#utility.yul\":1886:1887   */\n  0x04\n    /* \"#utility.yul\":1879:1894   */\n  mstore\n    /* \"#utility.yul\":1917:1921   */\n  0x24\n    /* \"#utility.yul\":1914:1915   */\n  0x00\n    /* \"#utility.yul\":1907:1922   */\n  revert\n    /* \"#utility.yul\":1771:1932   */\ntag_43:\n  pop\n    /* \"#utility.yul\":1558:1938   */\n  swap2\n  swap1\n  pop\n  jump\t// out\n    /* \"#utility.yul\":2069:2614   */\ntag_21:\n    /* \"#utility.yul\":2171:2173   */\n  0x1f\n    /* \"#utility.yul\":2166:2169   */\n  dup3\n    /* \"#utility.yul\":2163:2174   */\n  gt\n    /* \"#utility.yul\":2160:2608   */\n  iszero\n  tag_46\n  jumpi\n    /* \"#utility.yul\":2207:2208   */\n  0x00\n    /* \"#utility.yul\":2232:2237   */\n  dup2\n    /* \"#utility.yul\":2228:2230   */\n  dup2\n    /* \"#utility.yul\":2221:2238   */\n  mstore\n    /* \"#utility.yul\":2277:2281   */\n  0x20\n    /* \"#utility.yul\":2273:2275   */\n  dup2\n    /* \"#utility.yul\":2263:2282   */\n  keccak256\n    /* \"#utility.yul\":2347:2349   */\n  0x1f\n    /* \"#utility.yul\":2335:2345   */\n  dup6\n    /* \"#utility.yul\":2331:2350   */\n  add\n    /* \"#utility.yul\":2328:2329   */\n  0x05\n    /* \"#utility.yul\":2324:2351   */\n  shr\n    /* \"#utility.yul\":2318:2322   */\n  dup2\n    /* \"#utility.yul\":2314:2352   */\n  add\n    /* \"#utility.yul\":2383:2387   */\n  0x20\n    /* \"#utility.yul\":2371:2381   */\n  dup7\n    /* \"#utility.yul\":2368:2388   */\n  lt\n    /* \"#utility.yul\":2365:2412   */\n  iszero\n  tag_47\n  jumpi\n  pop\n    /* \"#utility.yul\":2406:2410   */\n  dup1\n    /* \"#utility.yul\":2365:2412   */\ntag_47:\n    /* \"#utility.yul\":2461:2463   */\n  0x1f\n    /* \"#utility.yul\":2456:2459   */\n  dup6\n    /* \"#utility.yul\":2452:2464   */\n  add\n    /* \"#utility.yul\":2449:2450   */\n  0x05\n    /* \"#utility.yul\":2445:2465   */\n  shr\n    /* \"#utility.yul\":2439:2443   */\n  dup3\n    /* \"#utility.yul\":2435:2466   */\n  add\n    /* \"#utility.yul\":2425:2466   */\n  swap2\n  pop\n    /* \"#utility.yul\":2516:2598   */\ntag_48:\n    /* \"#utility.yul\":2534:2536   */\n  dup2\n    /* \"#utility.yul\":2527:2532   */\n  dup2\n    /* \"#utility.yul\":2524:2537   */\n  lt\n    /* \"#utility.yul\":2516:2598   */\n  iszero\n  tag_50\n  jumpi\n    /* \"#utility.yul\":2579:2596   */\n  dup3\n  dup2\n  sstore\n    /* \"#utility.yul\":2560:2561   */\n  0x01\n    /* \"#utility.yul\":2549:2562   */\n  add\n    /* \"#utility.yul\":2516:2598   */\n  jump(tag_48)\ntag_50:\n    /* \"#utility.yul\":2520:2523   */\n  pop\n  pop\n  pop\n    /* \"#utility.yul\":2160:2608   */\ntag_46:\n    /* \"#utility.yul\":2069:2614   */\n  pop\n  pop\n  pop\n  jump\t// out\n    /* \"#utility.yul\":2790:4142   */\ntag_9:\n    /* \"#utility.yul\":2910:2920   */\n  dup2\n  mload\n  sub(shl(0x40, 0x01), 0x01)\n    /* \"#utility.yul\":2932:2962   */\n  dup2\n  gt\n    /* \"#utility.yul\":2929:2985   */\n  iszero\n  tag_54\n  jumpi\n    /* \"#utility.yul\":2965:2983   */\n  tag_54\n  tag_17\n  jump\t// in\ntag_54:\n    /* \"#utility.yul\":2994:3091   */\n  tag_55\n    /* \"#utility.yul\":3084:3090   */\n  dup2\n    /* \"#utility.yul\":3044:3082   */\n  tag_56\n    /* \"#utility.yul\":3076:3080   */\n  dup5\n    /* \"#utility.yul\":3070:3081   */\n  sload\n    /* \"#utility.yul\":3044:3082   */\n  tag_19\n  jump\t// in\ntag_56:\n    /* \"#utility.yul\":3038:3042   */\n  dup5\n    /* \"#utility.yul\":2994:3091   */\n  tag_21\n  jump\t// in\ntag_55:\n    /* \"#utility.yul\":3146:3150   */\n  0x20\n  dup1\n    /* \"#utility.yul\":3210:3212   */\n  0x1f\n    /* \"#utility.yul\":3199:3213   */\n  dup4\n  gt\n    /* \"#utility.yul\":3227:3228   */\n  0x01\n    /* \"#utility.yul\":3222:3885   */\n  dup2\n  eq\n  tag_58\n  jumpi\n    /* \"#utility.yul\":3929:3930   */\n  0x00\n    /* \"#utility.yul\":3946:3952   */\n  dup5\n    /* \"#utility.yul\":3943:4032   */\n  iszero\n  tag_59\n  jumpi\n  pop\n    /* \"#utility.yul\":3998:4017   */\n  dup6\n  dup4\n  add\n    /* \"#utility.yul\":3992:4018   */\n  mload\n    /* \"#utility.yul\":3943:4032   */\ntag_59:\n  not(0x00)\n    /* \"#utility.yul\":2747:2748   */\n  0x03\n    /* \"#utility.yul\":2743:2754   */\n  dup7\n  swap1\n  shl\n    /* \"#utility.yul\":2739:2763   */\n  shr\n    /* \"#utility.yul\":2735:2764   */\n  not\n    /* \"#utility.yul\":2725:2765   */\n  and\n    /* \"#utility.yul\":2771:2772   */\n  0x01\n    /* \"#utility.yul\":2767:2778   */\n  dup6\n  swap1\n  shl\n    /* \"#utility.yul\":2722:2779   */\n  or\n    /* \"#utility.yul\":4045:4126   */\n  dup6\n  sstore\n    /* \"#utility.yul\":3192:4136   */\n  jump(tag_50)\n    /* \"#utility.yul\":3222:3885   */\ntag_58:\n    /* \"#utility.yul\":2016:2017   */\n  0x00\n    /* \"#utility.yul\":2009:2023   */\n  dup6\n  dup2\n  mstore\n    /* \"#utility.yul\":2053:2057   */\n  0x20\n    /* \"#utility.yul\":2040:2058   */\n  dup2\n  keccak256\n  not(0x1f)\n    /* \"#utility.yul\":3258:3278   */\n  dup7\n  and\n  swap2\n    /* \"#utility.yul\":3376:3612   */\ntag_62:\n    /* \"#utility.yul\":3390:3397   */\n  dup3\n    /* \"#utility.yul\":3387:3388   */\n  dup2\n    /* \"#utility.yul\":3384:3398   */\n  lt\n    /* \"#utility.yul\":3376:3612   */\n  iszero\n  tag_64\n  jumpi\n    /* \"#utility.yul\":3479:3498   */\n  dup9\n  dup7\n  add\n    /* \"#utility.yul\":3473:3499   */\n  mload\n    /* \"#utility.yul\":3458:3500   */\n  dup3\n  sstore\n    /* \"#utility.yul\":3571:3598   */\n  swap5\n  dup5\n  add\n  swap5\n    /* \"#utility.yul\":3539:3540   */\n  0x01\n    /* \"#utility.yul\":3527:3541   */\n  swap1\n  swap2\n  add\n  swap1\n    /* \"#utility.yul\":3406:3425   */\n  dup5\n  add\n    /* \"#utility.yul\":3376:3612   */\n  jump(tag_62)\ntag_64:\n    /* \"#utility.yul\":3380:3383   */\n  pop\n    /* \"#utility.yul\":3640:3646   */\n  dup6\n    /* \"#utility.yul\":3631:3638   */\n  dup3\n    /* \"#utility.yul\":3628:3647   */\n  lt\n    /* \"#utility.yul\":3625:3826   */\n  iszero\n  tag_65\n  jumpi\n    /* \"#utility.yul\":3701:3720   */\n  dup8\n  dup6\n  add\n    /* \"#utility.yul\":3695:3721   */\n  mload\n  not(0x00)\n    /* \"#utility.yul\":3784:3785   */\n  0x03\n    /* \"#utility.yul\":3780:3794   */\n  dup9\n  swap1\n  shl\n    /* \"#utility.yul\":3796:3799   */\n  0xf8\n    /* \"#utility.yul\":3776:3800   */\n  and\n    /* \"#utility.yul\":3772:3809   */\n  shr\n    /* \"#utility.yul\":3768:3810   */\n  not\n    /* \"#utility.yul\":3753:3811   */\n  and\n    /* \"#utility.yul\":3738:3812   */\n  dup2\n  sstore\n    /* \"#utility.yul\":3625:3826   */\ntag_65:\n  pop\n  pop\n  pop\n  pop\n  pop\n    /* \"#utility.yul\":3872:3873   */\n  0x01\n    /* \"#utility.yul\":3856:3870   */\n  swap1\n  dup2\n  shl\n    /* \"#utility.yul\":3852:3874   */\n  add\n    /* \"#utility.yul\":3839:3875   */\n  swap1\n  sstore\n  pop\n    /* \"#utility.yul\":2790:4142   */\n  jump\t// out\ntag_23:\n    /* \"MY MainNFT/My_NFT.sol\":46272:47496  contract MinteriumUser is ERC721, ERC721Enumerable, ERC721URIStorage, Ownable {... */\n  dataSize(sub_0)\n  dup1\n  dataOffset(sub_0)\n  0x00\n  codecopy\n  0x00\n  return\nstop\n\nsub_0: assembly {\n        /* \"MY MainNFT/My_NFT.sol\":46272:47496  contract MinteriumUser is ERC721, ERC721Enumerable, ERC721URIStorage, Ownable {... */\n      mstore(0x40, 0x80)\n      callvalue\n      dup1\n      iszero\n      tag_1\n      jumpi\n      0x00\n      dup1\n      revert\n    tag_1:\n      pop\n      jumpi(tag_2, lt(calldatasize, 0x04))\n      shr(0xe0, calldataload(0x00))\n      dup1\n      0x70a08231\n      gt\n      tag_23\n      jumpi\n      dup1\n      0xb88d4fde\n      gt\n      tag_24\n      jumpi\n      dup1\n      0xb88d4fde\n      eq\n      tag_18\n      jumpi\n      dup1\n      0xc87b56dd\n      eq\n      tag_19\n      jumpi\n      dup1\n      0xd204c45e\n      eq\n      tag_20\n      jumpi\n      dup1\n      0xe985e9c5\n      eq\n      tag_21\n      jumpi\n      dup1\n      0xf2fde38b\n      eq\n      tag_22\n      jumpi\n      0x00\n      dup1\n      revert\n    tag_24:\n      dup1\n      0x70a08231\n      eq\n      tag_13\n      jumpi\n      dup1\n      0x715018a6\n      eq\n      tag_14\n      jumpi\n      dup1\n      0x8da5cb5b\n      eq\n      tag_15\n      jumpi\n      dup1\n      0x95d89b41\n      eq\n      tag_16\n      jumpi\n      dup1\n      0xa22cb465\n      eq\n      tag_17\n      jumpi\n      0x00\n      dup1\n      revert\n    tag_23:\n      dup1\n      0x23b872dd\n      gt\n      tag_25\n      jumpi\n      dup1\n      0x23b872dd\n      eq\n      tag_8\n      jumpi\n      dup1\n      0x2f745c59\n      eq\n      tag_9\n      jumpi\n      dup1\n      0x42842e0e\n      eq\n      tag_10\n      jumpi\n      dup1\n      0x4f6ccce7\n      eq\n      tag_11\n      jumpi\n      dup1\n      0x6352211e\n      eq\n      tag_12\n      jumpi\n      0x00\n      dup1\n      revert\n    tag_25:\n      dup1\n      0x01ffc9a7\n      eq\n      tag_3\n      jumpi\n      dup1\n      0x06fdde03\n      eq\n      tag_4\n      jumpi\n      dup1\n      0x081812fc\n      eq\n      tag_5\n      jumpi\n      dup1\n      0x095ea7b3\n      eq\n      tag_6\n      jumpi\n      dup1\n      0x18160ddd\n      eq\n      tag_7\n      jumpi\n    tag_2:\n      0x00\n      dup1\n      revert\n        /* \"MY MainNFT/My_NFT.sol\":47322:47493  function supportsInterface(bytes4 interfaceId) public view override(ERC721, ERC721Enumerable) returns (bool) {... */\n    tag_3:\n      tag_26\n      tag_27\n      calldatasize\n      0x04\n      tag_28\n      jump\t// in\n    tag_27:\n      tag_29\n      jump\t// in\n    tag_26:\n      mload(0x40)\n        /* \"#utility.yul\":565:579   */\n      swap1\n      iszero\n        /* \"#utility.yul\":558:580   */\n      iszero\n        /* \"#utility.yul\":540:581   */\n      dup2\n      mstore\n        /* \"#utility.yul\":528:530   */\n      0x20\n        /* \"#utility.yul\":513:531   */\n      add\n        /* \"MY MainNFT/My_NFT.sol\":47322:47493  function supportsInterface(bytes4 interfaceId) public view override(ERC721, ERC721Enumerable) returns (bool) {... */\n    tag_30:\n      mload(0x40)\n      dup1\n      swap2\n      sub\n      swap1\n      return\n        /* \"MY MainNFT/My_NFT.sol\":21713:21813  function name() public view virtual override returns (string memory) {... */\n    tag_4:\n      tag_32\n      tag_33\n      jump\t// in\n    tag_32:\n      mload(0x40)\n      tag_30\n      swap2\n      swap1\n      tag_35\n      jump\t// in\n        /* \"MY MainNFT/My_NFT.sol\":23173:23394  function getApproved(uint256 tokenId) public view virtual override returns (address) {... */\n    tag_5:\n      tag_36\n      tag_37\n      calldatasize\n      0x04\n      tag_38\n      jump\t// in\n    tag_37:\n      tag_39\n      jump\t// in\n    tag_36:\n      mload(0x40)\n      sub(shl(0xa0, 0x01), 0x01)\n        /* \"#utility.yul\":1697:1729   */\n      swap1\n      swap2\n      and\n        /* \"#utility.yul\":1679:1730   */\n      dup2\n      mstore\n        /* \"#utility.yul\":1667:1669   */\n      0x20\n        /* \"#utility.yul\":1652:1670   */\n      add\n        /* \"MY MainNFT/My_NFT.sol\":23173:23394  function getApproved(uint256 tokenId) public view virtual override returns (address) {... */\n      tag_30\n        /* \"#utility.yul\":1533:1736   */\n      jump\n        /* \"MY MainNFT/My_NFT.sol\":22710:23107  function approve(address to, uint256 tokenId) public virtual override {... */\n    tag_6:\n      tag_42\n      tag_43\n      calldatasize\n      0x04\n      tag_44\n      jump\t// in\n    tag_43:\n      tag_45\n      jump\t// in\n    tag_42:\n      stop\n        /* \"MY MainNFT/My_NFT.sol\":35169:35282  function totalSupply() public view virtual override returns (uint256) {... */\n    tag_7:\n        /* \"MY MainNFT/My_NFT.sol\":35257:35267  _allTokens */\n      0x08\n        /* \"MY MainNFT/My_NFT.sol\":35257:35274  _allTokens.length */\n      sload\n        /* \"MY MainNFT/My_NFT.sol\":35169:35282  function totalSupply() public view virtual override returns (uint256) {... */\n    tag_46:\n      mload(0x40)\n        /* \"#utility.yul\":2324:2349   */\n      swap1\n      dup2\n      mstore\n        /* \"#utility.yul\":2312:2314   */\n      0x20\n        /* \"#utility.yul\":2297:2315   */\n      add\n        /* \"MY MainNFT/My_NFT.sol\":35169:35282  function totalSupply() public view virtual override returns (uint256) {... */\n      tag_30\n        /* \"#utility.yul\":2178:2355   */\n      jump\n        /* \"MY MainNFT/My_NFT.sol\":24063:24368  function transferFrom(address from, address to, uint256 tokenId) public virtual override {... */\n    tag_8:\n      tag_42\n      tag_51\n      calldatasize\n      0x04\n      tag_52\n      jump\t// in\n    tag_51:\n      tag_53\n      jump\t// in\n        /* \"MY MainNFT/My_NFT.sol\":34837:35093  function tokenOfOwnerByIndex(address owner, uint256 index) public view virtual override returns (uint256) {... */\n    tag_9:\n      tag_46\n      tag_55\n      calldatasize\n      0x04\n      tag_44\n      jump\t// in\n    tag_55:\n      tag_56\n      jump\t// in\n        /* \"MY MainNFT/My_NFT.sol\":24439:24590  function safeTransferFrom(address from, address to, uint256 tokenId) public virtual override {... */\n    tag_10:\n      tag_42\n      tag_59\n      calldatasize\n      0x04\n      tag_52\n      jump\t// in\n    tag_59:\n      tag_60\n      jump\t// in\n        /* \"MY MainNFT/My_NFT.sol\":35359:35592  function tokenByIndex(uint256 index) public view virtual override returns (uint256) {... */\n    tag_11:\n      tag_46\n      tag_62\n      calldatasize\n      0x04\n      tag_38\n      jump\t// in\n    tag_62:\n      tag_63\n      jump\t// in\n        /* \"MY MainNFT/My_NFT.sol\":21407:21646  function ownerOf(uint256 tokenId) public view virtual override returns (address) {... */\n    tag_12:\n      tag_36\n      tag_66\n      calldatasize\n      0x04\n      tag_38\n      jump\t// in\n    tag_66:\n      tag_67\n      jump\t// in\n        /* \"MY MainNFT/My_NFT.sol\":21137:21345  function balanceOf(address owner) public view virtual override returns (uint256) {... */\n    tag_13:\n      tag_46\n      tag_70\n      calldatasize\n      0x04\n      tag_71\n      jump\t// in\n    tag_70:\n      tag_72\n      jump\t// in\n        /* \"MY MainNFT/My_NFT.sol\":44323:44471  function renounceOwnership() public virtual onlyOwner {... */\n    tag_14:\n      tag_42\n      tag_75\n      jump\t// in\n        /* \"MY MainNFT/My_NFT.sol\":43672:43759  function owner() public view virtual returns (address) {... */\n    tag_15:\n        /* \"MY MainNFT/My_NFT.sol\":43745:43751  _owner */\n      and(sub(shl(0xa0, 0x01), 0x01), sload(0x0b))\n        /* \"MY MainNFT/My_NFT.sol\":43672:43759  function owner() public view virtual returns (address) {... */\n      jump(tag_36)\n        /* \"MY MainNFT/My_NFT.sol\":21882:21986  function symbol() public view virtual override returns (string memory) {... */\n    tag_16:\n      tag_32\n      tag_80\n      jump\t// in\n        /* \"MY MainNFT/My_NFT.sol\":23466:23761  function setApprovalForAll(address operator, bool approved) public virtual override {... */\n    tag_17:\n      tag_42\n      tag_83\n      calldatasize\n      0x04\n      tag_84\n      jump\t// in\n    tag_83:\n      tag_85\n      jump\t// in\n        /* \"MY MainNFT/My_NFT.sol\":24661:24946  function safeTransferFrom(address from, address to, uint256 tokenId, bytes memory _data) public virtual override {... */\n    tag_18:\n      tag_42\n      tag_87\n      calldatasize\n      0x04\n      tag_88\n      jump\t// in\n    tag_87:\n      tag_89\n      jump\t// in\n        /* \"MY MainNFT/My_NFT.sol\":47159:47314  function tokenURI(uint256 tokenId) public view override(ERC721, ERC721URIStorage) returns (string memory) {... */\n    tag_19:\n      tag_32\n      tag_91\n      calldatasize\n      0x04\n      tag_38\n      jump\t// in\n    tag_91:\n      tag_92\n      jump\t// in\n        /* \"MY MainNFT/My_NFT.sol\":46539:46839  function safeMint(address to, string memory tokenURI) public onlyOwner returns(uint256 tokenId) {... */\n    tag_20:\n      tag_46\n      tag_95\n      calldatasize\n      0x04\n      tag_96\n      jump\t// in\n    tag_95:\n      tag_97\n      jump\t// in\n        /* \"MY MainNFT/My_NFT.sol\":23832:23996  function isApprovedForAll(address owner, address operator) public view virtual override returns (bool) {... */\n    tag_21:\n      tag_26\n      tag_100\n      calldatasize\n      0x04\n      tag_101\n      jump\t// in\n    tag_100:\n      sub(shl(0xa0, 0x01), 0x01)\n        /* \"MY MainNFT/My_NFT.sol\":23953:23978  _operatorApprovals[owner] */\n      swap2\n      dup3\n      and\n        /* \"MY MainNFT/My_NFT.sol\":23929:23933  bool */\n      0x00\n        /* \"MY MainNFT/My_NFT.sol\":23953:23978  _operatorApprovals[owner] */\n      swap1\n      dup2\n      mstore\n        /* \"MY MainNFT/My_NFT.sol\":23953:23971  _operatorApprovals */\n      0x05\n        /* \"MY MainNFT/My_NFT.sol\":23953:23978  _operatorApprovals[owner] */\n      0x20\n      swap1\n      dup2\n      mstore\n      0x40\n      dup1\n      dup4\n      keccak256\n        /* \"MY MainNFT/My_NFT.sol\":23953:23988  _operatorApprovals[owner][operator] */\n      swap4\n      swap1\n      swap5\n      and\n      dup3\n      mstore\n      swap2\n      swap1\n      swap2\n      mstore\n      keccak256\n      sload\n      0xff\n      and\n      swap1\n        /* \"MY MainNFT/My_NFT.sol\":23832:23996  function isApprovedForAll(address owner, address operator) public view virtual override returns (bool) {... */\n      jump\n        /* \"MY MainNFT/My_NFT.sol\":44626:44870  function transferOwnership(address newOwner) public virtual onlyOwner {... */\n    tag_22:\n      tag_42\n      tag_105\n      calldatasize\n      0x04\n      tag_71\n      jump\t// in\n    tag_105:\n      tag_106\n      jump\t// in\n        /* \"MY MainNFT/My_NFT.sol\":47322:47493  function supportsInterface(bytes4 interfaceId) public view override(ERC721, ERC721Enumerable) returns (bool) {... */\n    tag_29:\n        /* \"MY MainNFT/My_NFT.sol\":47425:47429  bool */\n      0x00\n        /* \"MY MainNFT/My_NFT.sol\":47449:47485  super.supportsInterface(interfaceId) */\n      tag_108\n        /* \"MY MainNFT/My_NFT.sol\":47473:47484  interfaceId */\n      dup3\n        /* \"MY MainNFT/My_NFT.sol\":47449:47472  super.supportsInterface */\n      tag_109\n        /* \"MY MainNFT/My_NFT.sol\":47449:47485  super.supportsInterface(interfaceId) */\n      jump\t// in\n    tag_108:\n        /* \"MY MainNFT/My_NFT.sol\":47442:47485  return super.supportsInterface(interfaceId) */\n      swap3\n        /* \"MY MainNFT/My_NFT.sol\":47322:47493  function supportsInterface(bytes4 interfaceId) public view override(ERC721, ERC721Enumerable) returns (bool) {... */\n      swap2\n      pop\n      pop\n      jump\t// out\n        /* \"MY MainNFT/My_NFT.sol\":21713:21813  function name() public view virtual override returns (string memory) {... */\n    tag_33:\n        /* \"MY MainNFT/My_NFT.sol\":21767:21780  string memory */\n      0x60\n        /* \"MY MainNFT/My_NFT.sol\":21800:21805  _name */\n      0x00\n        /* \"MY MainNFT/My_NFT.sol\":21793:21805  return _name */\n      dup1\n      sload\n      tag_111\n      swap1\n      tag_112\n      jump\t// in\n    tag_111:\n      dup1\n      0x1f\n      add\n      0x20\n      dup1\n      swap2\n      div\n      mul\n      0x20\n      add\n      mload(0x40)\n      swap1\n      dup2\n      add\n      0x40\n      mstore\n      dup1\n      swap3\n      swap2\n      swap1\n      dup2\n      dup2\n      mstore\n      0x20\n      add\n      dup3\n      dup1\n      sload\n      tag_113\n      swap1\n      tag_112\n      jump\t// in\n    tag_113:\n      dup1\n      iszero\n      tag_114\n      jumpi\n      dup1\n      0x1f\n      lt\n      tag_115\n      jumpi\n      0x0100\n      dup1\n      dup4\n      sload\n      div\n      mul\n      dup4\n      mstore\n      swap2\n      0x20\n      add\n      swap2\n      jump(tag_114)\n    tag_115:\n      dup3\n      add\n      swap2\n      swap1\n      0x00\n      mstore\n      keccak256(0x00, 0x20)\n      swap1\n    tag_116:\n      dup2\n      sload\n      dup2\n      mstore\n      swap1\n      0x01\n      add\n      swap1\n      0x20\n      add\n      dup1\n      dup4\n      gt\n      tag_116\n      jumpi\n      dup3\n      swap1\n      sub\n      0x1f\n      and\n      dup3\n      add\n      swap2\n    tag_114:\n      pop\n      pop\n      pop\n      pop\n      pop\n      swap1\n      pop\n        /* \"MY MainNFT/My_NFT.sol\":21713:21813  function name() public view virtual override returns (string memory) {... */\n      swap1\n      jump\t// out\n        /* \"MY MainNFT/My_NFT.sol\":23173:23394  function getApproved(uint256 tokenId) public view virtual override returns (address) {... */\n    tag_39:\n        /* \"MY MainNFT/My_NFT.sol\":23249:23256  address */\n      0x00\n        /* \"MY MainNFT/My_NFT.sol\":23277:23293  _exists(tokenId) */\n      tag_118\n        /* \"MY MainNFT/My_NFT.sol\":23285:23292  tokenId */\n      dup3\n        /* \"MY MainNFT/My_NFT.sol\":23277:23284  _exists */\n      tag_119\n        /* \"MY MainNFT/My_NFT.sol\":23277:23293  _exists(tokenId) */\n      jump\t// in\n    tag_118:\n        /* \"MY MainNFT/My_NFT.sol\":23269:23342  require(_exists(tokenId), \"ERC721: approved query for nonexistent token\") */\n      tag_120\n      jumpi\n      mload(0x40)\n      shl(0xe5, 0x461bcd)\n      dup2\n      mstore\n        /* \"#utility.yul\":6056:6058   */\n      0x20\n        /* \"MY MainNFT/My_NFT.sol\":23269:23342  require(_exists(tokenId), \"ERC721: approved query for nonexistent token\") */\n      0x04\n      dup3\n      add\n        /* \"#utility.yul\":6038:6059   */\n      mstore\n        /* \"#utility.yul\":6095:6097   */\n      0x2c\n        /* \"#utility.yul\":6075:6093   */\n      0x24\n      dup3\n      add\n        /* \"#utility.yul\":6068:6098   */\n      mstore\n        /* \"#utility.yul\":6134:6168   */\n      0x4552433732313a20617070726f76656420717565727920666f72206e6f6e6578\n        /* \"#utility.yul\":6114:6132   */\n      0x44\n      dup3\n      add\n        /* \"#utility.yul\":6107:6169   */\n      mstore\n      shl(0xa1, 0x34b9ba32b73a103a37b5b2b7)\n        /* \"#utility.yul\":6185:6203   */\n      0x64\n      dup3\n      add\n        /* \"#utility.yul\":6178:6220   */\n      mstore\n        /* \"#utility.yul\":6237:6256   */\n      0x84\n      add\n        /* \"MY MainNFT/My_NFT.sol\":23269:23342  require(_exists(tokenId), \"ERC721: approved query for nonexistent token\") */\n    tag_121:\n      mload(0x40)\n      dup1\n      swap2\n      sub\n      swap1\n      revert\n    tag_120:\n      pop\n        /* \"MY MainNFT/My_NFT.sol\":23362:23386  _tokenApprovals[tokenId] */\n      0x00\n      swap1\n      dup2\n      mstore\n        /* \"MY MainNFT/My_NFT.sol\":23362:23377  _tokenApprovals */\n      0x04\n        /* \"MY MainNFT/My_NFT.sol\":23362:23386  _tokenApprovals[tokenId] */\n      0x20\n      mstore\n      0x40\n      swap1\n      keccak256\n      sload\n      sub(shl(0xa0, 0x01), 0x01)\n      and\n      swap1\n        /* \"MY MainNFT/My_NFT.sol\":23173:23394  function getApproved(uint256 tokenId) public view virtual override returns (address) {... */\n      jump\t// out\n        /* \"MY MainNFT/My_NFT.sol\":22710:23107  function approve(address to, uint256 tokenId) public virtual override {... */\n    tag_45:\n        /* \"MY MainNFT/My_NFT.sol\":22791:22804  address owner */\n      0x00\n        /* \"MY MainNFT/My_NFT.sol\":22807:22830  ERC721.ownerOf(tokenId) */\n      tag_124\n        /* \"MY MainNFT/My_NFT.sol\":22822:22829  tokenId */\n      dup3\n        /* \"MY MainNFT/My_NFT.sol\":22807:22821  ERC721.ownerOf */\n      tag_67\n        /* \"MY MainNFT/My_NFT.sol\":22807:22830  ERC721.ownerOf(tokenId) */\n      jump\t// in\n    tag_124:\n        /* \"MY MainNFT/My_NFT.sol\":22791:22830  address owner = ERC721.ownerOf(tokenId) */\n      swap1\n      pop\n        /* \"MY MainNFT/My_NFT.sol\":22855:22860  owner */\n      dup1\n      sub(shl(0xa0, 0x01), 0x01)\n        /* \"MY MainNFT/My_NFT.sol\":22849:22860  to != owner */\n      and\n        /* \"MY MainNFT/My_NFT.sol\":22849:22851  to */\n      dup4\n      sub(shl(0xa0, 0x01), 0x01)\n        /* \"MY MainNFT/My_NFT.sol\":22849:22860  to != owner */\n      and\n      sub\n        /* \"MY MainNFT/My_NFT.sol\":22841:22898  require(to != owner, \"ERC721: approval to current owner\") */\n      tag_125\n      jumpi\n      mload(0x40)\n      shl(0xe5, 0x461bcd)\n      dup2\n      mstore\n        /* \"#utility.yul\":6469:6471   */\n      0x20\n        /* \"MY MainNFT/My_NFT.sol\":22841:22898  require(to != owner, \"ERC721: approval to current owner\") */\n      0x04\n      dup3\n      add\n        /* \"#utility.yul\":6451:6472   */\n      mstore\n        /* \"#utility.yul\":6508:6510   */\n      0x21\n        /* \"#utility.yul\":6488:6506   */\n      0x24\n      dup3\n      add\n        /* \"#utility.yul\":6481:6511   */\n      mstore\n        /* \"#utility.yul\":6547:6581   */\n      0x4552433732313a20617070726f76616c20746f2063757272656e74206f776e65\n        /* \"#utility.yul\":6527:6545   */\n      0x44\n      dup3\n      add\n        /* \"#utility.yul\":6520:6582   */\n      mstore\n      shl(0xf9, 0x39)\n        /* \"#utility.yul\":6598:6616   */\n      0x64\n      dup3\n      add\n        /* \"#utility.yul\":6591:6622   */\n      mstore\n        /* \"#utility.yul\":6639:6658   */\n      0x84\n      add\n        /* \"MY MainNFT/My_NFT.sol\":22841:22898  require(to != owner, \"ERC721: approval to current owner\") */\n      tag_121\n        /* \"#utility.yul\":6267:6664   */\n      jump\n        /* \"MY MainNFT/My_NFT.sol\":22841:22898  require(to != owner, \"ERC721: approval to current owner\") */\n    tag_125:\n        /* \"MY MainNFT/My_NFT.sol\":16135:16145  msg.sender */\n      caller\n      sub(shl(0xa0, 0x01), 0x01)\n        /* \"MY MainNFT/My_NFT.sol\":22919:22940  _msgSender() == owner */\n      dup3\n      and\n      eq\n      dup1\n        /* \"MY MainNFT/My_NFT.sol\":22919:22981  _msgSender() == owner || isApprovedForAll(owner, _msgSender()) */\n      tag_131\n      jumpi\n      pop\n        /* \"MY MainNFT/My_NFT.sol\":22944:22981  isApprovedForAll(owner, _msgSender()) */\n      tag_131\n        /* \"MY MainNFT/My_NFT.sol\":22961:22966  owner */\n      dup2\n        /* \"MY MainNFT/My_NFT.sol\":16135:16145  msg.sender */\n      caller\n        /* \"MY MainNFT/My_NFT.sol\":23832:23996  function isApprovedForAll(address owner, address operator) public view virtual override returns (bool) {... */\n      tag_100\n      jump\t// in\n        /* \"MY MainNFT/My_NFT.sol\":22944:22981  isApprovedForAll(owner, _msgSender()) */\n    tag_131:\n        /* \"MY MainNFT/My_NFT.sol\":22911:23065  require(_msgSender() == owner || isApprovedForAll(owner, _msgSender()),... */\n      tag_133\n      jumpi\n      mload(0x40)\n      shl(0xe5, 0x461bcd)\n      dup2\n      mstore\n        /* \"#utility.yul\":6871:6873   */\n      0x20\n        /* \"MY MainNFT/My_NFT.sol\":22911:23065  require(_msgSender() == owner || isApprovedForAll(owner, _msgSender()),... */\n      0x04\n      dup3\n      add\n        /* \"#utility.yul\":6853:6874   */\n      mstore\n        /* \"#utility.yul\":6910:6912   */\n      0x38\n        /* \"#utility.yul\":6890:6908   */\n      0x24\n      dup3\n      add\n        /* \"#utility.yul\":6883:6913   */\n      mstore\n        /* \"#utility.yul\":6949:6983   */\n      0x4552433732313a20617070726f76652063616c6c6572206973206e6f74206f77\n        /* \"#utility.yul\":6929:6947   */\n      0x44\n      dup3\n      add\n        /* \"#utility.yul\":6922:6984   */\n      mstore\n        /* \"#utility.yul\":7020:7046   */\n      0x6e6572206e6f7220617070726f76656420666f7220616c6c0000000000000000\n        /* \"#utility.yul\":7000:7018   */\n      0x64\n      dup3\n      add\n        /* \"#utility.yul\":6993:7047   */\n      mstore\n        /* \"#utility.yul\":7064:7083   */\n      0x84\n      add\n        /* \"MY MainNFT/My_NFT.sol\":22911:23065  require(_msgSender() == owner || isApprovedForAll(owner, _msgSender()),... */\n      tag_121\n        /* \"#utility.yul\":6669:7089   */\n      jump\n        /* \"MY MainNFT/My_NFT.sol\":22911:23065  require(_msgSender() == owner || isApprovedForAll(owner, _msgSender()),... */\n    tag_133:\n        /* \"MY MainNFT/My_NFT.sol\":23078:23099  _approve(to, tokenId) */\n      tag_136\n        /* \"MY MainNFT/My_NFT.sol\":23087:23089  to */\n      dup4\n        /* \"MY MainNFT/My_NFT.sol\":23091:23098  tokenId */\n      dup4\n        /* \"MY MainNFT/My_NFT.sol\":23078:23086  _approve */\n      tag_137\n        /* \"MY MainNFT/My_NFT.sol\":23078:23099  _approve(to, tokenId) */\n      jump\t// in\n    tag_136:\n        /* \"MY MainNFT/My_NFT.sol\":22780:23107  {... */\n      pop\n        /* \"MY MainNFT/My_NFT.sol\":22710:23107  function approve(address to, uint256 tokenId) public virtual override {... */\n      pop\n      pop\n      jump\t// out\n        /* \"MY MainNFT/My_NFT.sol\":24063:24368  function transferFrom(address from, address to, uint256 tokenId) public virtual override {... */\n    tag_53:\n        /* \"MY MainNFT/My_NFT.sol\":24224:24265  _isApprovedOrOwner(_msgSender(), tokenId) */\n      tag_140\n        /* \"MY MainNFT/My_NFT.sol\":16135:16145  msg.sender */\n      caller\n        /* \"MY MainNFT/My_NFT.sol\":24257:24264  tokenId */\n      dup3\n        /* \"MY MainNFT/My_NFT.sol\":24224:24242  _isApprovedOrOwner */\n      tag_142\n        /* \"MY MainNFT/My_NFT.sol\":24224:24265  _isApprovedOrOwner(_msgSender(), tokenId) */\n      jump\t// in\n    tag_140:\n        /* \"MY MainNFT/My_NFT.sol\":24216:24319  require(_isApprovedOrOwner(_msgSender(), tokenId), \"ERC721: transfer caller is not owner nor approved\") */\n      tag_143\n      jumpi\n      mload(0x40)\n      shl(0xe5, 0x461bcd)\n      dup2\n      mstore\n      0x04\n      add\n      tag_121\n      swap1\n      tag_145\n      jump\t// in\n    tag_143:\n        /* \"MY MainNFT/My_NFT.sol\":24332:24360  _transfer(from, to, tokenId) */\n      tag_136\n        /* \"MY MainNFT/My_NFT.sol\":24342:24346  from */\n      dup4\n        /* \"MY MainNFT/My_NFT.sol\":24348:24350  to */\n      dup4\n        /* \"MY MainNFT/My_NFT.sol\":24352:24359  tokenId */\n      dup4\n        /* \"MY MainNFT/My_NFT.sol\":24332:24341  _transfer */\n      tag_147\n        /* \"MY MainNFT/My_NFT.sol\":24332:24360  _transfer(from, to, tokenId) */\n      jump\t// in\n        /* \"MY MainNFT/My_NFT.sol\":34837:35093  function tokenOfOwnerByIndex(address owner, uint256 index) public view virtual override returns (uint256) {... */\n    tag_56:\n        /* \"MY MainNFT/My_NFT.sol\":34934:34941  uint256 */\n      0x00\n        /* \"MY MainNFT/My_NFT.sol\":34970:34993  ERC721.balanceOf(owner) */\n      tag_149\n        /* \"MY MainNFT/My_NFT.sol\":34987:34992  owner */\n      dup4\n        /* \"MY MainNFT/My_NFT.sol\":34970:34986  ERC721.balanceOf */\n      tag_72\n        /* \"MY MainNFT/My_NFT.sol\":34970:34993  ERC721.balanceOf(owner) */\n      jump\t// in\n    tag_149:\n        /* \"MY MainNFT/My_NFT.sol\":34962:34967  index */\n      dup3\n        /* \"MY MainNFT/My_NFT.sol\":34962:34993  index < ERC721.balanceOf(owner) */\n      lt\n        /* \"MY MainNFT/My_NFT.sol\":34954:35041  require(index < ERC721.balanceOf(owner), \"ERC721Enumerable: owner index out of bounds\") */\n      tag_150\n      jumpi\n      mload(0x40)\n      shl(0xe5, 0x461bcd)\n      dup2\n      mstore\n        /* \"#utility.yul\":7714:7716   */\n      0x20\n        /* \"MY MainNFT/My_NFT.sol\":34954:35041  require(index < ERC721.balanceOf(owner), \"ERC721Enumerable: owner index out of bounds\") */\n      0x04\n      dup3\n      add\n        /* \"#utility.yul\":7696:7717   */\n      mstore\n        /* \"#utility.yul\":7753:7755   */\n      0x2b\n        /* \"#utility.yul\":7733:7751   */\n      0x24\n      dup3\n      add\n        /* \"#utility.yul\":7726:7756   */\n      mstore\n        /* \"#utility.yul\":7792:7826   */\n      0x455243373231456e756d657261626c653a206f776e657220696e646578206f75\n        /* \"#utility.yul\":7772:7790   */\n      0x44\n      dup3\n      add\n        /* \"#utility.yul\":7765:7827   */\n      mstore\n      shl(0xa8, 0x74206f6620626f756e6473)\n        /* \"#utility.yul\":7843:7861   */\n      0x64\n      dup3\n      add\n        /* \"#utility.yul\":7836:7877   */\n      mstore\n        /* \"#utility.yul\":7894:7913   */\n      0x84\n      add\n        /* \"MY MainNFT/My_NFT.sol\":34954:35041  require(index < ERC721.balanceOf(owner), \"ERC721Enumerable: owner index out of bounds\") */\n      tag_121\n        /* \"#utility.yul\":7512:7919   */\n      jump\n        /* \"MY MainNFT/My_NFT.sol\":34954:35041  require(index < ERC721.balanceOf(owner), \"ERC721Enumerable: owner index out of bounds\") */\n    tag_150:\n      pop\n      sub(shl(0xa0, 0x01), 0x01)\n        /* \"MY MainNFT/My_NFT.sol\":35059:35078  _ownedTokens[owner] */\n      swap2\n      swap1\n      swap2\n      and\n      0x00\n      swap1\n      dup2\n      mstore\n        /* \"MY MainNFT/My_NFT.sol\":35059:35071  _ownedTokens */\n      0x06\n        /* \"MY MainNFT/My_NFT.sol\":35059:35078  _ownedTokens[owner] */\n      0x20\n      swap1\n      dup2\n      mstore\n      0x40\n      dup1\n      dup4\n      keccak256\n        /* \"MY MainNFT/My_NFT.sol\":35059:35085  _ownedTokens[owner][index] */\n      swap4\n      dup4\n      mstore\n      swap3\n      swap1\n      mstore\n      keccak256\n      sload\n      swap1\n        /* \"MY MainNFT/My_NFT.sol\":34837:35093  function tokenOfOwnerByIndex(address owner, uint256 index) public view virtual override returns (uint256) {... */\n      jump\t// out\n        /* \"MY MainNFT/My_NFT.sol\":24439:24590  function safeTransferFrom(address from, address to, uint256 tokenId) public virtual override {... */\n    tag_60:\n        /* \"MY MainNFT/My_NFT.sol\":24543:24582  safeTransferFrom(from, to, tokenId, \"\") */\n      tag_136\n        /* \"MY MainNFT/My_NFT.sol\":24560:24564  from */\n      dup4\n        /* \"MY MainNFT/My_NFT.sol\":24566:24568  to */\n      dup4\n        /* \"MY MainNFT/My_NFT.sol\":24570:24577  tokenId */\n      dup4\n        /* \"MY MainNFT/My_NFT.sol\":24543:24582  safeTransferFrom(from, to, tokenId, \"\") */\n      mload(0x40)\n      dup1\n      0x20\n      add\n      0x40\n      mstore\n      dup1\n      0x00\n      dup2\n      mstore\n      pop\n        /* \"MY MainNFT/My_NFT.sol\":24543:24559  safeTransferFrom */\n      tag_89\n        /* \"MY MainNFT/My_NFT.sol\":24543:24582  safeTransferFrom(from, to, tokenId, \"\") */\n      jump\t// in\n        /* \"MY MainNFT/My_NFT.sol\":35359:35592  function tokenByIndex(uint256 index) public view virtual override returns (uint256) {... */\n    tag_63:\n        /* \"MY MainNFT/My_NFT.sol\":35434:35441  uint256 */\n      0x00\n        /* \"MY MainNFT/My_NFT.sol\":35470:35500  ERC721Enumerable.totalSupply() */\n      tag_156\n        /* \"MY MainNFT/My_NFT.sol\":35257:35267  _allTokens */\n      0x08\n        /* \"MY MainNFT/My_NFT.sol\":35257:35274  _allTokens.length */\n      sload\n      swap1\n        /* \"MY MainNFT/My_NFT.sol\":35169:35282  function totalSupply() public view virtual override returns (uint256) {... */\n      jump\n        /* \"MY MainNFT/My_NFT.sol\":35470:35500  ERC721Enumerable.totalSupply() */\n    tag_156:\n        /* \"MY MainNFT/My_NFT.sol\":35462:35467  index */\n      dup3\n        /* \"MY MainNFT/My_NFT.sol\":35462:35500  index < ERC721Enumerable.totalSupply() */\n      lt\n        /* \"MY MainNFT/My_NFT.sol\":35454:35549  require(index < ERC721Enumerable.totalSupply(), \"ERC721Enumerable: global index out of bounds\") */\n      tag_157\n      jumpi\n      mload(0x40)\n      shl(0xe5, 0x461bcd)\n      dup2\n      mstore\n        /* \"#utility.yul\":8126:8128   */\n      0x20\n        /* \"MY MainNFT/My_NFT.sol\":35454:35549  require(index < ERC721Enumerable.totalSupply(), \"ERC721Enumerable: global index out of bounds\") */\n      0x04\n      dup3\n      add\n        /* \"#utility.yul\":8108:8129   */\n      mstore\n        /* \"#utility.yul\":8165:8167   */\n      0x2c\n        /* \"#utility.yul\":8145:8163   */\n      0x24\n      dup3\n      add\n        /* \"#utility.yul\":8138:8168   */\n      mstore\n        /* \"#utility.yul\":8204:8238   */\n      0x455243373231456e756d657261626c653a20676c6f62616c20696e646578206f\n        /* \"#utility.yul\":8184:8202   */\n      0x44\n      dup3\n      add\n        /* \"#utility.yul\":8177:8239   */\n      mstore\n      shl(0xa0, 0x7574206f6620626f756e6473)\n        /* \"#utility.yul\":8255:8273   */\n      0x64\n      dup3\n      add\n        /* \"#utility.yul\":8248:8290   */\n      mstore\n        /* \"#utility.yul\":8307:8326   */\n      0x84\n      add\n        /* \"MY MainNFT/My_NFT.sol\":35454:35549  require(index < ERC721Enumerable.totalSupply(), \"ERC721Enumerable: global index out of bounds\") */\n      tag_121\n        /* \"#utility.yul\":7924:8332   */\n      jump\n        /* \"MY MainNFT/My_NFT.sol\":35454:35549  require(index < ERC721Enumerable.totalSupply(), \"ERC721Enumerable: global index out of bounds\") */\n    tag_157:\n        /* \"MY MainNFT/My_NFT.sol\":35567:35577  _allTokens */\n      0x08\n        /* \"MY MainNFT/My_NFT.sol\":35578:35583  index */\n      dup3\n        /* \"MY MainNFT/My_NFT.sol\":35567:35584  _allTokens[index] */\n      dup2\n      sload\n      dup2\n      lt\n      tag_161\n      jumpi\n      tag_161\n      tag_162\n      jump\t// in\n    tag_161:\n      swap1\n      0x00\n      mstore\n      keccak256(0x00, 0x20)\n      add\n      sload\n        /* \"MY MainNFT/My_NFT.sol\":35560:35584  return _allTokens[index] */\n      swap1\n      pop\n        /* \"MY MainNFT/My_NFT.sol\":35359:35592  function tokenByIndex(uint256 index) public view virtual override returns (uint256) {... */\n      swap2\n      swap1\n      pop\n      jump\t// out\n        /* \"MY MainNFT/My_NFT.sol\":21407:21646  function ownerOf(uint256 tokenId) public view virtual override returns (address) {... */\n    tag_67:\n        /* \"MY MainNFT/My_NFT.sol\":21479:21486  address */\n      0x00\n        /* \"MY MainNFT/My_NFT.sol\":21515:21531  _owners[tokenId] */\n      dup2\n      dup2\n      mstore\n        /* \"MY MainNFT/My_NFT.sol\":21515:21522  _owners */\n      0x02\n        /* \"MY MainNFT/My_NFT.sol\":21515:21531  _owners[tokenId] */\n      0x20\n      mstore\n      0x40\n      dup2\n      keccak256\n      sload\n      sub(shl(0xa0, 0x01), 0x01)\n      and\n      dup1\n        /* \"MY MainNFT/My_NFT.sol\":21542:21615  require(owner != address(0), \"ERC721: owner query for nonexistent token\") */\n      tag_108\n      jumpi\n      mload(0x40)\n      shl(0xe5, 0x461bcd)\n      dup2\n      mstore\n        /* \"#utility.yul\":8671:8673   */\n      0x20\n        /* \"MY MainNFT/My_NFT.sol\":21542:21615  require(owner != address(0), \"ERC721: owner query for nonexistent token\") */\n      0x04\n      dup3\n      add\n        /* \"#utility.yul\":8653:8674   */\n      mstore\n        /* \"#utility.yul\":8710:8712   */\n      0x29\n        /* \"#utility.yul\":8690:8708   */\n      0x24\n      dup3\n      add\n        /* \"#utility.yul\":8683:8713   */\n      mstore\n        /* \"#utility.yul\":8749:8783   */\n      0x4552433732313a206f776e657220717565727920666f72206e6f6e6578697374\n        /* \"#utility.yul\":8729:8747   */\n      0x44\n      dup3\n      add\n        /* \"#utility.yul\":8722:8784   */\n      mstore\n      shl(0xb9, 0x32b73a103a37b5b2b7)\n        /* \"#utility.yul\":8800:8818   */\n      0x64\n      dup3\n      add\n        /* \"#utility.yul\":8793:8832   */\n      mstore\n        /* \"#utility.yul\":8849:8868   */\n      0x84\n      add\n        /* \"MY MainNFT/My_NFT.sol\":21542:21615  require(owner != address(0), \"ERC721: owner query for nonexistent token\") */\n      tag_121\n        /* \"#utility.yul\":8469:8874   */\n      jump\n        /* \"MY MainNFT/My_NFT.sol\":21137:21345  function balanceOf(address owner) public view virtual override returns (uint256) {... */\n    tag_72:\n        /* \"MY MainNFT/My_NFT.sol\":21209:21216  uint256 */\n      0x00\n      sub(shl(0xa0, 0x01), 0x01)\n        /* \"MY MainNFT/My_NFT.sol\":21237:21256  owner != address(0) */\n      dup3\n      and\n        /* \"MY MainNFT/My_NFT.sol\":21229:21303  require(owner != address(0), \"ERC721: balance query for the zero address\") */\n      tag_169\n      jumpi\n      mload(0x40)\n      shl(0xe5, 0x461bcd)\n      dup2\n      mstore\n        /* \"#utility.yul\":9081:9083   */\n      0x20\n        /* \"MY MainNFT/My_NFT.sol\":21229:21303  require(owner != address(0), \"ERC721: balance query for the zero address\") */\n      0x04\n      dup3\n      add\n        /* \"#utility.yul\":9063:9084   */\n      mstore\n        /* \"#utility.yul\":9120:9122   */\n      0x2a\n        /* \"#utility.yul\":9100:9118   */\n      0x24\n      dup3\n      add\n        /* \"#utility.yul\":9093:9123   */\n      mstore\n        /* \"#utility.yul\":9159:9193   */\n      0x4552433732313a2062616c616e636520717565727920666f7220746865207a65\n        /* \"#utility.yul\":9139:9157   */\n      0x44\n      dup3\n      add\n        /* \"#utility.yul\":9132:9194   */\n      mstore\n      shl(0xb0, 0x726f2061646472657373)\n        /* \"#utility.yul\":9210:9228   */\n      0x64\n      dup3\n      add\n        /* \"#utility.yul\":9203:9243   */\n      mstore\n        /* \"#utility.yul\":9260:9279   */\n      0x84\n      add\n        /* \"MY MainNFT/My_NFT.sol\":21229:21303  require(owner != address(0), \"ERC721: balance query for the zero address\") */\n      tag_121\n        /* \"#utility.yul\":8879:9285   */\n      jump\n        /* \"MY MainNFT/My_NFT.sol\":21229:21303  require(owner != address(0), \"ERC721: balance query for the zero address\") */\n    tag_169:\n      pop\n      sub(shl(0xa0, 0x01), 0x01)\n        /* \"MY MainNFT/My_NFT.sol\":21321:21337  _balances[owner] */\n      and\n      0x00\n      swap1\n      dup2\n      mstore\n        /* \"MY MainNFT/My_NFT.sol\":21321:21330  _balances */\n      0x03\n        /* \"MY MainNFT/My_NFT.sol\":21321:21337  _balances[owner] */\n      0x20\n      mstore\n      0x40\n      swap1\n      keccak256\n      sload\n      swap1\n        /* \"MY MainNFT/My_NFT.sol\":21137:21345  function balanceOf(address owner) public view virtual override returns (uint256) {... */\n      jump\t// out\n        /* \"MY MainNFT/My_NFT.sol\":44323:44471  function renounceOwnership() public virtual onlyOwner {... */\n    tag_75:\n        /* \"MY MainNFT/My_NFT.sol\":43745:43751  _owner */\n      and(sub(shl(0xa0, 0x01), 0x01), sload(0x0b))\n        /* \"MY MainNFT/My_NFT.sol\":16135:16145  msg.sender */\n      caller\n        /* \"MY MainNFT/My_NFT.sol\":43892:43915  owner() == _msgSender() */\n      eq\n        /* \"MY MainNFT/My_NFT.sol\":43884:43952  require(owner() == _msgSender(), \"Ownable: caller is not the owner\") */\n      tag_175\n      jumpi\n      mload(0x40)\n      shl(0xe5, 0x461bcd)\n      dup2\n      mstore\n      0x04\n      add\n      tag_121\n      swap1\n      tag_177\n      jump\t// in\n    tag_175:\n        /* \"MY MainNFT/My_NFT.sol\":44414:44420  _owner */\n      sload(0x0b)\n        /* \"MY MainNFT/My_NFT.sol\":44393:44433  OwnershipTransferred(_owner, address(0)) */\n      mload(0x40)\n        /* \"MY MainNFT/My_NFT.sol\":44430:44431  0 */\n      0x00\n      swap2\n      sub(shl(0xa0, 0x01), 0x01)\n        /* \"MY MainNFT/My_NFT.sol\":44414:44420  _owner */\n      and\n      swap1\n        /* \"MY MainNFT/My_NFT.sol\":44393:44433  OwnershipTransferred(_owner, address(0)) */\n      0x8be0079c531659141344cd1fd0a4f28419497f9722a3daafe3b4186f6b6457e0\n      swap1\n        /* \"MY MainNFT/My_NFT.sol\":44430:44431  0 */\n      dup4\n      swap1\n        /* \"MY MainNFT/My_NFT.sol\":44393:44433  OwnershipTransferred(_owner, address(0)) */\n      log3\n        /* \"MY MainNFT/My_NFT.sol\":44444:44450  _owner */\n      0x0b\n        /* \"MY MainNFT/My_NFT.sol\":44444:44463  _owner = address(0) */\n      dup1\n      sload\n      not(sub(shl(0xa0, 0x01), 0x01))\n      and\n      swap1\n      sstore\n        /* \"MY MainNFT/My_NFT.sol\":44323:44471  function renounceOwnership() public virtual onlyOwner {... */\n      jump\t// out\n        /* \"MY MainNFT/My_NFT.sol\":21882:21986  function symbol() public view virtual override returns (string memory) {... */\n    tag_80:\n        /* \"MY MainNFT/My_NFT.sol\":21938:21951  string memory */\n      0x60\n        /* \"MY MainNFT/My_NFT.sol\":21971:21978  _symbol */\n      0x01\n        /* \"MY MainNFT/My_NFT.sol\":21964:21978  return _symbol */\n      dup1\n      sload\n      tag_111\n      swap1\n      tag_112\n      jump\t// in\n        /* \"MY MainNFT/My_NFT.sol\":23466:23761  function setApprovalForAll(address operator, bool approved) public virtual override {... */\n    tag_85:\n        /* \"MY MainNFT/My_NFT.sol\":16135:16145  msg.sender */\n      caller\n      sub(shl(0xa0, 0x01), 0x01)\n        /* \"MY MainNFT/My_NFT.sol\":23569:23593  operator != _msgSender() */\n      dup4\n      and\n      sub\n        /* \"MY MainNFT/My_NFT.sol\":23561:23623  require(operator != _msgSender(), \"ERC721: approve to caller\") */\n      tag_188\n      jumpi\n      mload(0x40)\n      shl(0xe5, 0x461bcd)\n      dup2\n      mstore\n        /* \"#utility.yul\":9853:9855   */\n      0x20\n        /* \"MY MainNFT/My_NFT.sol\":23561:23623  require(operator != _msgSender(), \"ERC721: approve to caller\") */\n      0x04\n      dup3\n      add\n        /* \"#utility.yul\":9835:9856   */\n      mstore\n        /* \"#utility.yul\":9892:9894   */\n      0x19\n        /* \"#utility.yul\":9872:9890   */\n      0x24\n      dup3\n      add\n        /* \"#utility.yul\":9865:9895   */\n      mstore\n        /* \"#utility.yul\":9931:9958   */\n      0x4552433732313a20617070726f766520746f2063616c6c657200000000000000\n        /* \"#utility.yul\":9911:9929   */\n      0x44\n      dup3\n      add\n        /* \"#utility.yul\":9904:9959   */\n      mstore\n        /* \"#utility.yul\":9976:9994   */\n      0x64\n      add\n        /* \"MY MainNFT/My_NFT.sol\":23561:23623  require(operator != _msgSender(), \"ERC721: approve to caller\") */\n      tag_121\n        /* \"#utility.yul\":9651:10000   */\n      jump\n        /* \"MY MainNFT/My_NFT.sol\":23561:23623  require(operator != _msgSender(), \"ERC721: approve to caller\") */\n    tag_188:\n        /* \"MY MainNFT/My_NFT.sol\":16135:16145  msg.sender */\n      caller\n        /* \"MY MainNFT/My_NFT.sol\":23636:23668  _operatorApprovals[_msgSender()] */\n      0x00\n      dup2\n      dup2\n      mstore\n        /* \"MY MainNFT/My_NFT.sol\":23636:23654  _operatorApprovals */\n      0x05\n        /* \"MY MainNFT/My_NFT.sol\":23636:23668  _operatorApprovals[_msgSender()] */\n      0x20\n      swap1\n      dup2\n      mstore\n      0x40\n      dup1\n      dup4\n      keccak256\n      sub(shl(0xa0, 0x01), 0x01)\n        /* \"MY MainNFT/My_NFT.sol\":23636:23678  _operatorApprovals[_msgSender()][operator] */\n      dup8\n      and\n      dup1\n      dup6\n      mstore\n      swap1\n      dup4\n      mstore\n      swap3\n      dup2\n      swap1\n      keccak256\n        /* \"MY MainNFT/My_NFT.sol\":23636:23689  _operatorApprovals[_msgSender()][operator] = approved */\n      dup1\n      sload\n      not(0xff)\n      and\n      dup7\n      iszero\n      iszero\n      swap1\n      dup2\n      or\n      swap1\n      swap2\n      sstore\n        /* \"MY MainNFT/My_NFT.sol\":23705:23753  ApprovalForAll(_msgSender(), operator, approved) */\n      swap1\n      mload\n        /* \"#utility.yul\":540:581   */\n      swap1\n      dup2\n      mstore\n        /* \"MY MainNFT/My_NFT.sol\":23636:23678  _operatorApprovals[_msgSender()][operator] */\n      swap2\n      swap3\n        /* \"MY MainNFT/My_NFT.sol\":16135:16145  msg.sender */\n      swap2\n        /* \"MY MainNFT/My_NFT.sol\":23705:23753  ApprovalForAll(_msgSender(), operator, approved) */\n      0x17307eab39ab6107e8899845ad3d59bd9653f200f220920489ca2b5937696c31\n      swap2\n        /* \"#utility.yul\":513:531   */\n      add\n        /* \"MY MainNFT/My_NFT.sol\":23705:23753  ApprovalForAll(_msgSender(), operator, approved) */\n      mload(0x40)\n      dup1\n      swap2\n      sub\n      swap1\n      log3\n        /* \"MY MainNFT/My_NFT.sol\":23466:23761  function setApprovalForAll(address operator, bool approved) public virtual override {... */\n      pop\n      pop\n      jump\t// out\n        /* \"MY MainNFT/My_NFT.sol\":24661:24946  function safeTransferFrom(address from, address to, uint256 tokenId, bytes memory _data) public virtual override {... */\n    tag_89:\n        /* \"MY MainNFT/My_NFT.sol\":24793:24834  _isApprovedOrOwner(_msgSender(), tokenId) */\n      tag_195\n        /* \"MY MainNFT/My_NFT.sol\":16135:16145  msg.sender */\n      caller\n        /* \"MY MainNFT/My_NFT.sol\":24826:24833  tokenId */\n      dup4\n        /* \"MY MainNFT/My_NFT.sol\":24793:24811  _isApprovedOrOwner */\n      tag_142\n        /* \"MY MainNFT/My_NFT.sol\":24793:24834  _isApprovedOrOwner(_msgSender(), tokenId) */\n      jump\t// in\n    tag_195:\n        /* \"MY MainNFT/My_NFT.sol\":24785:24888  require(_isApprovedOrOwner(_msgSender(), tokenId), \"ERC721: transfer caller is not owner nor approved\") */\n      tag_197\n      jumpi\n      mload(0x40)\n      shl(0xe5, 0x461bcd)\n      dup2\n      mstore\n      0x04\n      add\n      tag_121\n      swap1\n      tag_145\n      jump\t// in\n    tag_197:\n        /* \"MY MainNFT/My_NFT.sol\":24899:24938  _safeTransfer(from, to, tokenId, _data) */\n      tag_199\n        /* \"MY MainNFT/My_NFT.sol\":24913:24917  from */\n      dup5\n        /* \"MY MainNFT/My_NFT.sol\":24919:24921  to */\n      dup5\n        /* \"MY MainNFT/My_NFT.sol\":24923:24930  tokenId */\n      dup5\n        /* \"MY MainNFT/My_NFT.sol\":24932:24937  _data */\n      dup5\n        /* \"MY MainNFT/My_NFT.sol\":24899:24912  _safeTransfer */\n      tag_200\n        /* \"MY MainNFT/My_NFT.sol\":24899:24938  _safeTransfer(from, to, tokenId, _data) */\n      jump\t// in\n    tag_199:\n        /* \"MY MainNFT/My_NFT.sol\":24661:24946  function safeTransferFrom(address from, address to, uint256 tokenId, bytes memory _data) public virtual override {... */\n      pop\n      pop\n      pop\n      pop\n      jump\t// out\n        /* \"MY MainNFT/My_NFT.sol\":47159:47314  function tokenURI(uint256 tokenId) public view override(ERC721, ERC721URIStorage) returns (string memory) {... */\n    tag_92:\n        /* \"MY MainNFT/My_NFT.sol\":47250:47263  string memory */\n      0x60\n        /* \"MY MainNFT/My_NFT.sol\":47283:47306  super.tokenURI(tokenId) */\n      tag_108\n        /* \"MY MainNFT/My_NFT.sol\":47298:47305  tokenId */\n      dup3\n        /* \"MY MainNFT/My_NFT.sol\":47283:47297  super.tokenURI */\n      tag_203\n        /* \"MY MainNFT/My_NFT.sol\":47283:47306  super.tokenURI(tokenId) */\n      jump\t// in\n        /* \"MY MainNFT/My_NFT.sol\":46539:46839  function safeMint(address to, string memory tokenURI) public onlyOwner returns(uint256 tokenId) {... */\n    tag_97:\n        /* \"MY MainNFT/My_NFT.sol\":43745:43751  _owner */\n      sload(0x0b)\n        /* \"MY MainNFT/My_NFT.sol\":46618:46633  uint256 tokenId */\n      0x00\n      swap1\n      sub(shl(0xa0, 0x01), 0x01)\n        /* \"MY MainNFT/My_NFT.sol\":43745:43751  _owner */\n      and\n        /* \"MY MainNFT/My_NFT.sol\":16135:16145  msg.sender */\n      caller\n        /* \"MY MainNFT/My_NFT.sol\":43892:43915  owner() == _msgSender() */\n      eq\n        /* \"MY MainNFT/My_NFT.sol\":43884:43952  require(owner() == _msgSender(), \"Ownable: caller is not the owner\") */\n      tag_207\n      jumpi\n      mload(0x40)\n      shl(0xe5, 0x461bcd)\n      dup2\n      mstore\n      0x04\n      add\n      tag_121\n      swap1\n      tag_177\n      jump\t// in\n    tag_207:\n        /* \"MY MainNFT/My_NFT.sol\":46646:46673  _tokenIdCounter.increment() */\n      tag_210\n        /* \"MY MainNFT/My_NFT.sol\":46646:46661  _tokenIdCounter */\n      0x0c\n        /* \"MY MainNFT/My_NFT.sol\":45911:45930  counter._value += 1 */\n      dup1\n      sload\n        /* \"MY MainNFT/My_NFT.sol\":45929:45930  1 */\n      0x01\n        /* \"MY MainNFT/My_NFT.sol\":45911:45930  counter._value += 1 */\n      add\n      swap1\n      sstore\n        /* \"MY MainNFT/My_NFT.sol\":45822:45949  function increment(Counter storage counter) internal {... */\n      jump\n        /* \"MY MainNFT/My_NFT.sol\":46646:46673  _tokenIdCounter.increment() */\n    tag_210:\n        /* \"MY MainNFT/My_NFT.sol\":46684:46700  uint256 _current */\n      0x00\n        /* \"MY MainNFT/My_NFT.sol\":46703:46728  _tokenIdCounter.current() */\n      tag_212\n        /* \"MY MainNFT/My_NFT.sol\":46703:46718  _tokenIdCounter */\n      0x0c\n        /* \"MY MainNFT/My_NFT.sol\":45792:45806  counter._value */\n      sload\n      swap1\n        /* \"MY MainNFT/My_NFT.sol\":45700:45814  function current(Counter storage counter) internal view returns (uint256) {... */\n      jump\n        /* \"MY MainNFT/My_NFT.sol\":46703:46728  _tokenIdCounter.current() */\n    tag_212:\n        /* \"MY MainNFT/My_NFT.sol\":46684:46728  uint256 _current = _tokenIdCounter.current() */\n      swap1\n      pop\n        /* \"MY MainNFT/My_NFT.sol\":46739:46762  _safeMint(to, _current) */\n      tag_214\n        /* \"MY MainNFT/My_NFT.sol\":46749:46751  to */\n      dup5\n        /* \"MY MainNFT/My_NFT.sol\":46753:46761  _current */\n      dup3\n        /* \"MY MainNFT/My_NFT.sol\":46739:46748  _safeMint */\n      tag_215\n        /* \"MY MainNFT/My_NFT.sol\":46739:46762  _safeMint(to, _current) */\n      jump\t// in\n    tag_214:\n        /* \"MY MainNFT/My_NFT.sol\":46773:46805  _setTokenURI(_current, tokenURI) */\n      tag_216\n        /* \"MY MainNFT/My_NFT.sol\":46786:46794  _current */\n      dup2\n        /* \"MY MainNFT/My_NFT.sol\":46796:46804  tokenURI */\n      dup5\n        /* \"MY MainNFT/My_NFT.sol\":46773:46785  _setTokenURI */\n      tag_217\n        /* \"MY MainNFT/My_NFT.sol\":46773:46805  _setTokenURI(_current, tokenURI) */\n      jump\t// in\n    tag_216:\n        /* \"MY MainNFT/My_NFT.sol\":46823:46831  _current */\n      swap4\n        /* \"MY MainNFT/My_NFT.sol\":46539:46839  function safeMint(address to, string memory tokenURI) public onlyOwner returns(uint256 tokenId) {... */\n      swap3\n      pop\n      pop\n      pop\n      jump\t// out\n        /* \"MY MainNFT/My_NFT.sol\":44626:44870  function transferOwnership(address newOwner) public virtual onlyOwner {... */\n    tag_106:\n        /* \"MY MainNFT/My_NFT.sol\":43745:43751  _owner */\n      and(sub(shl(0xa0, 0x01), 0x01), sload(0x0b))\n        /* \"MY MainNFT/My_NFT.sol\":16135:16145  msg.sender */\n      caller\n        /* \"MY MainNFT/My_NFT.sol\":43892:43915  owner() == _msgSender() */\n      eq\n        /* \"MY MainNFT/My_NFT.sol\":43884:43952  require(owner() == _msgSender(), \"Ownable: caller is not the owner\") */\n      tag_222\n      jumpi\n      mload(0x40)\n      shl(0xe5, 0x461bcd)\n      dup2\n      mstore\n      0x04\n      add\n      tag_121\n      swap1\n      tag_177\n      jump\t// in\n    tag_222:\n      sub(shl(0xa0, 0x01), 0x01)\n        /* \"MY MainNFT/My_NFT.sol\":44715:44737  newOwner != address(0) */\n      dup2\n      and\n        /* \"MY MainNFT/My_NFT.sol\":44707:44780  require(newOwner != address(0), \"Ownable: new owner is the zero address\") */\n      tag_225\n      jumpi\n      mload(0x40)\n      shl(0xe5, 0x461bcd)\n      dup2\n      mstore\n        /* \"#utility.yul\":10207:10209   */\n      0x20\n        /* \"MY MainNFT/My_NFT.sol\":44707:44780  require(newOwner != address(0), \"Ownable: new owner is the zero address\") */\n      0x04\n      dup3\n      add\n        /* \"#utility.yul\":10189:10210   */\n      mstore\n        /* \"#utility.yul\":10246:10248   */\n      0x26\n        /* \"#utility.yul\":10226:10244   */\n      0x24\n      dup3\n      add\n        /* \"#utility.yul\":10219:10249   */\n      mstore\n        /* \"#utility.yul\":10285:10319   */\n      0x4f776e61626c653a206e6577206f776e657220697320746865207a65726f2061\n        /* \"#utility.yul\":10265:10283   */\n      0x44\n      dup3\n      add\n        /* \"#utility.yul\":10258:10320   */\n      mstore\n      shl(0xd0, 0x646472657373)\n        /* \"#utility.yul\":10336:10354   */\n      0x64\n      dup3\n      add\n        /* \"#utility.yul\":10329:10365   */\n      mstore\n        /* \"#utility.yul\":10382:10401   */\n      0x84\n      add\n        /* \"MY MainNFT/My_NFT.sol\":44707:44780  require(newOwner != address(0), \"Ownable: new owner is the zero address\") */\n      tag_121\n        /* \"#utility.yul\":10005:10407   */\n      jump\n        /* \"MY MainNFT/My_NFT.sol\":44707:44780  require(newOwner != address(0), \"Ownable: new owner is the zero address\") */\n    tag_225:\n        /* \"MY MainNFT/My_NFT.sol\":44817:44823  _owner */\n      sload(0x0b)\n        /* \"MY MainNFT/My_NFT.sol\":44796:44834  OwnershipTransferred(_owner, newOwner) */\n      mload(0x40)\n      sub(shl(0xa0, 0x01), 0x01)\n      dup1\n      dup5\n      and\n      swap3\n        /* \"MY MainNFT/My_NFT.sol\":44817:44823  _owner */\n      and\n      swap1\n        /* \"MY MainNFT/My_NFT.sol\":44796:44834  OwnershipTransferred(_owner, newOwner) */\n      0x8be0079c531659141344cd1fd0a4f28419497f9722a3daafe3b4186f6b6457e0\n      swap1\n        /* \"MY MainNFT/My_NFT.sol\":44817:44823  _owner */\n      0x00\n      swap1\n        /* \"MY MainNFT/My_NFT.sol\":44796:44834  OwnershipTransferred(_owner, newOwner) */\n      log3\n        /* \"MY MainNFT/My_NFT.sol\":44845:44851  _owner */\n      0x0b\n        /* \"MY MainNFT/My_NFT.sol\":44845:44862  _owner = newOwner */\n      dup1\n      sload\n      not(sub(shl(0xa0, 0x01), 0x01))\n      and\n      sub(shl(0xa0, 0x01), 0x01)\n      swap3\n      swap1\n      swap3\n      and\n      swap2\n      swap1\n      swap2\n      or\n      swap1\n      sstore\n        /* \"MY MainNFT/My_NFT.sol\":44626:44870  function transferOwnership(address newOwner) public virtual onlyOwner {... */\n      jump\t// out\n        /* \"MY MainNFT/My_NFT.sol\":34516:34753  function supportsInterface(bytes4 interfaceId) public view virtual override(IERC165, ERC721) returns (bool) {... */\n    tag_109:\n        /* \"MY MainNFT/My_NFT.sol\":34618:34622  bool */\n      0x00\n      not(sub(shl(0xe0, 0x01), 0x01))\n        /* \"MY MainNFT/My_NFT.sol\":34642:34692  interfaceId == type(IERC721Enumerable).interfaceId */\n      dup3\n      and\n      shl(0xe0, 0x780e9d63)\n      eq\n      dup1\n        /* \"MY MainNFT/My_NFT.sol\":34642:34745  interfaceId == type(IERC721Enumerable).interfaceId... */\n      tag_108\n      jumpi\n      pop\n        /* \"MY MainNFT/My_NFT.sol\":34709:34745  super.supportsInterface(interfaceId) */\n      tag_108\n        /* \"MY MainNFT/My_NFT.sol\":34733:34744  interfaceId */\n      dup3\n        /* \"MY MainNFT/My_NFT.sol\":34709:34732  super.supportsInterface */\n      tag_231\n        /* \"MY MainNFT/My_NFT.sol\":34709:34745  super.supportsInterface(interfaceId) */\n      jump\t// in\n        /* \"MY MainNFT/My_NFT.sol\":26413:26540  function _exists(uint256 tokenId) internal view virtual returns (bool) {... */\n    tag_119:\n        /* \"MY MainNFT/My_NFT.sol\":26478:26482  bool */\n      0x00\n        /* \"MY MainNFT/My_NFT.sol\":26502:26518  _owners[tokenId] */\n      swap1\n      dup2\n      mstore\n        /* \"MY MainNFT/My_NFT.sol\":26502:26509  _owners */\n      0x02\n        /* \"MY MainNFT/My_NFT.sol\":26502:26518  _owners[tokenId] */\n      0x20\n      mstore\n      0x40\n      swap1\n      keccak256\n      sload\n      sub(shl(0xa0, 0x01), 0x01)\n      and\n        /* \"MY MainNFT/My_NFT.sol\":26502:26532  _owners[tokenId] != address(0) */\n      iszero\n      iszero\n      swap1\n        /* \"MY MainNFT/My_NFT.sol\":26413:26540  function _exists(uint256 tokenId) internal view virtual returns (bool) {... */\n      jump\t// out\n        /* \"MY MainNFT/My_NFT.sol\":30290:30464  function _approve(address to, uint256 tokenId) internal virtual {... */\n    tag_137:\n        /* \"MY MainNFT/My_NFT.sol\":30365:30389  _tokenApprovals[tokenId] */\n      0x00\n      dup2\n      dup2\n      mstore\n        /* \"MY MainNFT/My_NFT.sol\":30365:30380  _tokenApprovals */\n      0x04\n        /* \"MY MainNFT/My_NFT.sol\":30365:30389  _tokenApprovals[tokenId] */\n      0x20\n      mstore\n      0x40\n      swap1\n      keccak256\n        /* \"MY MainNFT/My_NFT.sol\":30365:30394  _tokenApprovals[tokenId] = to */\n      dup1\n      sload\n      not(sub(shl(0xa0, 0x01), 0x01))\n      and\n      sub(shl(0xa0, 0x01), 0x01)\n      dup5\n      and\n      swap1\n      dup2\n      or\n      swap1\n      swap2\n      sstore\n        /* \"MY MainNFT/My_NFT.sol\":30365:30389  _tokenApprovals[tokenId] */\n      dup2\n      swap1\n        /* \"MY MainNFT/My_NFT.sol\":30419:30442  ERC721.ownerOf(tokenId) */\n      tag_235\n        /* \"MY MainNFT/My_NFT.sol\":30365:30389  _tokenApprovals[tokenId] */\n      dup3\n        /* \"MY MainNFT/My_NFT.sol\":30419:30433  ERC721.ownerOf */\n      tag_67\n        /* \"MY MainNFT/My_NFT.sol\":30419:30442  ERC721.ownerOf(tokenId) */\n      jump\t// in\n    tag_235:\n      sub(shl(0xa0, 0x01), 0x01)\n        /* \"MY MainNFT/My_NFT.sol\":30410:30456  Approval(ERC721.ownerOf(tokenId), to, tokenId) */\n      and\n      0x8c5be1e5ebec7d5bd14f71427d1e84f3dd0314c0f7b2291e5b200ac8c7c3b925\n      mload(0x40)\n      mload(0x40)\n      dup1\n      swap2\n      sub\n      swap1\n      log4\n        /* \"MY MainNFT/My_NFT.sol\":30290:30464  function _approve(address to, uint256 tokenId) internal virtual {... */\n      pop\n      pop\n      jump\t// out\n        /* \"MY MainNFT/My_NFT.sol\":26707:27055  function _isApprovedOrOwner(address spender, uint256 tokenId) internal view virtual returns (bool) {... */\n    tag_142:\n        /* \"MY MainNFT/My_NFT.sol\":26800:26804  bool */\n      0x00\n        /* \"MY MainNFT/My_NFT.sol\":26825:26841  _exists(tokenId) */\n      tag_237\n        /* \"MY MainNFT/My_NFT.sol\":26833:26840  tokenId */\n      dup3\n        /* \"MY MainNFT/My_NFT.sol\":26825:26832  _exists */\n      tag_119\n        /* \"MY MainNFT/My_NFT.sol\":26825:26841  _exists(tokenId) */\n      jump\t// in\n    tag_237:\n        /* \"MY MainNFT/My_NFT.sol\":26817:26890  require(_exists(tokenId), \"ERC721: operator query for nonexistent token\") */\n      tag_238\n      jumpi\n      mload(0x40)\n      shl(0xe5, 0x461bcd)\n      dup2\n      mstore\n        /* \"#utility.yul\":10614:10616   */\n      0x20\n        /* \"MY MainNFT/My_NFT.sol\":26817:26890  require(_exists(tokenId), \"ERC721: operator query for nonexistent token\") */\n      0x04\n      dup3\n      add\n        /* \"#utility.yul\":10596:10617   */\n      mstore\n        /* \"#utility.yul\":10653:10655   */\n      0x2c\n        /* \"#utility.yul\":10633:10651   */\n      0x24\n      dup3\n      add\n        /* \"#utility.yul\":10626:10656   */\n      mstore\n        /* \"#utility.yul\":10692:10726   */\n      0x4552433732313a206f70657261746f7220717565727920666f72206e6f6e6578\n        /* \"#utility.yul\":10672:10690   */\n      0x44\n      dup3\n      add\n        /* \"#utility.yul\":10665:10727   */\n      mstore\n      shl(0xa1, 0x34b9ba32b73a103a37b5b2b7)\n        /* \"#utility.yul\":10743:10761   */\n      0x64\n      dup3\n      add\n        /* \"#utility.yul\":10736:10778   */\n      mstore\n        /* \"#utility.yul\":10795:10814   */\n      0x84\n      add\n        /* \"MY MainNFT/My_NFT.sol\":26817:26890  require(_exists(tokenId), \"ERC721: operator query for nonexistent token\") */\n      tag_121\n        /* \"#utility.yul\":10412:10820   */\n      jump\n        /* \"MY MainNFT/My_NFT.sol\":26817:26890  require(_exists(tokenId), \"ERC721: operator query for nonexistent token\") */\n    tag_238:\n        /* \"MY MainNFT/My_NFT.sol\":26901:26914  address owner */\n      0x00\n        /* \"MY MainNFT/My_NFT.sol\":26917:26940  ERC721.ownerOf(tokenId) */\n      tag_241\n        /* \"MY MainNFT/My_NFT.sol\":26932:26939  tokenId */\n      dup4\n        /* \"MY MainNFT/My_NFT.sol\":26917:26931  ERC721.ownerOf */\n      tag_67\n        /* \"MY MainNFT/My_NFT.sol\":26917:26940  ERC721.ownerOf(tokenId) */\n      jump\t// in\n    tag_241:\n        /* \"MY MainNFT/My_NFT.sol\":26901:26940  address owner = ERC721.ownerOf(tokenId) */\n      swap1\n      pop\n        /* \"MY MainNFT/My_NFT.sol\":26970:26975  owner */\n      dup1\n      sub(shl(0xa0, 0x01), 0x01)\n        /* \"MY MainNFT/My_NFT.sol\":26959:26975  spender == owner */\n      and\n        /* \"MY MainNFT/My_NFT.sol\":26959:26966  spender */\n      dup5\n      sub(shl(0xa0, 0x01), 0x01)\n        /* \"MY MainNFT/My_NFT.sol\":26959:26975  spender == owner */\n      and\n      eq\n        /* \"MY MainNFT/My_NFT.sol\":26959:27010  spender == owner || getApproved(tokenId) == spender */\n      dup1\n      tag_242\n      jumpi\n      pop\n        /* \"MY MainNFT/My_NFT.sol\":27003:27010  spender */\n      dup4\n      sub(shl(0xa0, 0x01), 0x01)\n        /* \"MY MainNFT/My_NFT.sol\":26979:27010  getApproved(tokenId) == spender */\n      and\n        /* \"MY MainNFT/My_NFT.sol\":26979:26999  getApproved(tokenId) */\n      tag_243\n        /* \"MY MainNFT/My_NFT.sol\":26991:26998  tokenId */\n      dup5\n        /* \"MY MainNFT/My_NFT.sol\":26979:26990  getApproved */\n      tag_39\n        /* \"MY MainNFT/My_NFT.sol\":26979:26999  getApproved(tokenId) */\n      jump\t// in\n    tag_243:\n      sub(shl(0xa0, 0x01), 0x01)\n        /* \"MY MainNFT/My_NFT.sol\":26979:27010  getApproved(tokenId) == spender */\n      and\n      eq\n        /* \"MY MainNFT/My_NFT.sol\":26959:27010  spender == owner || getApproved(tokenId) == spender */\n    tag_242:\n        /* \"MY MainNFT/My_NFT.sol\":26959:27046  spender == owner || getApproved(tokenId) == spender || isApprovedForAll(owner, spender) */\n      dup1\n      tag_245\n      jumpi\n      pop\n      sub(shl(0xa0, 0x01), 0x01)\n        /* \"MY MainNFT/My_NFT.sol\":23953:23978  _operatorApprovals[owner] */\n      dup1\n      dup3\n      and\n        /* \"MY MainNFT/My_NFT.sol\":23929:23933  bool */\n      0x00\n        /* \"MY MainNFT/My_NFT.sol\":23953:23978  _operatorApprovals[owner] */\n      swap1\n      dup2\n      mstore\n        /* \"MY MainNFT/My_NFT.sol\":23953:23971  _operatorApprovals */\n      0x05\n        /* \"MY MainNFT/My_NFT.sol\":23953:23978  _operatorApprovals[owner] */\n      0x20\n      swap1\n      dup2\n      mstore\n      0x40\n      dup1\n      dup4\n      keccak256\n        /* \"MY MainNFT/My_NFT.sol\":23953:23988  _operatorApprovals[owner][operator] */\n      swap4\n      dup9\n      and\n      dup4\n      mstore\n      swap3\n      swap1\n      mstore\n      keccak256\n      sload\n      0xff\n      and\n        /* \"MY MainNFT/My_NFT.sol\":27014:27046  isApprovedForAll(owner, spender) */\n    tag_245:\n        /* \"MY MainNFT/My_NFT.sol\":26951:27047  return (spender == owner || getApproved(tokenId) == spender || isApprovedForAll(owner, spender)) */\n      swap5\n        /* \"MY MainNFT/My_NFT.sol\":26707:27055  function _isApprovedOrOwner(address spender, uint256 tokenId) internal view virtual returns (bool) {... */\n      swap4\n      pop\n      pop\n      pop\n      pop\n      jump\t// out\n        /* \"MY MainNFT/My_NFT.sol\":29628:30172  function _transfer(address from, address to, uint256 tokenId) internal virtual {... */\n    tag_147:\n        /* \"MY MainNFT/My_NFT.sol\":29753:29757  from */\n      dup3\n      sub(shl(0xa0, 0x01), 0x01)\n        /* \"MY MainNFT/My_NFT.sol\":29726:29757  ERC721.ownerOf(tokenId) == from */\n      and\n        /* \"MY MainNFT/My_NFT.sol\":29726:29749  ERC721.ownerOf(tokenId) */\n      tag_247\n        /* \"MY MainNFT/My_NFT.sol\":29741:29748  tokenId */\n      dup3\n        /* \"MY MainNFT/My_NFT.sol\":29726:29740  ERC721.ownerOf */\n      tag_67\n        /* \"MY MainNFT/My_NFT.sol\":29726:29749  ERC721.ownerOf(tokenId) */\n      jump\t// in\n    tag_247:\n      sub(shl(0xa0, 0x01), 0x01)\n        /* \"MY MainNFT/My_NFT.sol\":29726:29757  ERC721.ownerOf(tokenId) == from */\n      and\n      eq\n        /* \"MY MainNFT/My_NFT.sol\":29718:29803  require(ERC721.ownerOf(tokenId) == from, \"ERC721: transfer of token that is not own\") */\n      tag_248\n      jumpi\n      mload(0x40)\n      shl(0xe5, 0x461bcd)\n      dup2\n      mstore\n        /* \"#utility.yul\":11027:11029   */\n      0x20\n        /* \"MY MainNFT/My_NFT.sol\":29718:29803  require(ERC721.ownerOf(tokenId) == from, \"ERC721: transfer of token that is not own\") */\n      0x04\n      dup3\n      add\n        /* \"#utility.yul\":11009:11030   */\n      mstore\n        /* \"#utility.yul\":11066:11068   */\n      0x29\n        /* \"#utility.yul\":11046:11064   */\n      0x24\n      dup3\n      add\n        /* \"#utility.yul\":11039:11069   */\n      mstore\n        /* \"#utility.yul\":11105:11139   */\n      0x4552433732313a207472616e73666572206f6620746f6b656e20746861742069\n        /* \"#utility.yul\":11085:11103   */\n      0x44\n      dup3\n      add\n        /* \"#utility.yul\":11078:11140   */\n      mstore\n      shl(0xb9, 0x39903737ba1037bbb7)\n        /* \"#utility.yul\":11156:11174   */\n      0x64\n      dup3\n      add\n        /* \"#utility.yul\":11149:11188   */\n      mstore\n        /* \"#utility.yul\":11205:11224   */\n      0x84\n      add\n        /* \"MY MainNFT/My_NFT.sol\":29718:29803  require(ERC721.ownerOf(tokenId) == from, \"ERC721: transfer of token that is not own\") */\n      tag_121\n        /* \"#utility.yul\":10825:11230   */\n      jump\n        /* \"MY MainNFT/My_NFT.sol\":29718:29803  require(ERC721.ownerOf(tokenId) == from, \"ERC721: transfer of token that is not own\") */\n    tag_248:\n      sub(shl(0xa0, 0x01), 0x01)\n        /* \"MY MainNFT/My_NFT.sol\":29822:29838  to != address(0) */\n      dup3\n      and\n        /* \"MY MainNFT/My_NFT.sol\":29814:29879  require(to != address(0), \"ERC721: transfer to the zero address\") */\n      tag_251\n      jumpi\n      mload(0x40)\n      shl(0xe5, 0x461bcd)\n      dup2\n      mstore\n        /* \"#utility.yul\":11437:11439   */\n      0x20\n        /* \"MY MainNFT/My_NFT.sol\":29814:29879  require(to != address(0), \"ERC721: transfer to the zero address\") */\n      0x04\n      dup3\n      add\n        /* \"#utility.yul\":11419:11440   */\n      mstore\n        /* \"#utility.yul\":11476:11478   */\n      0x24\n        /* \"#utility.yul\":11456:11474   */\n      dup1\n      dup3\n      add\n        /* \"#utility.yul\":11449:11479   */\n      mstore\n        /* \"#utility.yul\":11515:11549   */\n      0x4552433732313a207472616e7366657220746f20746865207a65726f20616464\n        /* \"#utility.yul\":11495:11513   */\n      0x44\n      dup3\n      add\n        /* \"#utility.yul\":11488:11550   */\n      mstore\n      shl(0xe0, 0x72657373)\n        /* \"#utility.yul\":11566:11584   */\n      0x64\n      dup3\n      add\n        /* \"#utility.yul\":11559:11593   */\n      mstore\n        /* \"#utility.yul\":11610:11629   */\n      0x84\n      add\n        /* \"MY MainNFT/My_NFT.sol\":29814:29879  require(to != address(0), \"ERC721: transfer to the zero address\") */\n      tag_121\n        /* \"#utility.yul\":11235:11635   */\n      jump\n        /* \"MY MainNFT/My_NFT.sol\":29814:29879  require(to != address(0), \"ERC721: transfer to the zero address\") */\n    tag_251:\n        /* \"MY MainNFT/My_NFT.sol\":29892:29931  _beforeTokenTransfer(from, to, tokenId) */\n      tag_254\n        /* \"MY MainNFT/My_NFT.sol\":29913:29917  from */\n      dup4\n        /* \"MY MainNFT/My_NFT.sol\":29919:29921  to */\n      dup4\n        /* \"MY MainNFT/My_NFT.sol\":29923:29930  tokenId */\n      dup4\n        /* \"MY MainNFT/My_NFT.sol\":29892:29912  _beforeTokenTransfer */\n      tag_255\n        /* \"MY MainNFT/My_NFT.sol\":29892:29931  _beforeTokenTransfer(from, to, tokenId) */\n      jump\t// in\n    tag_254:\n        /* \"MY MainNFT/My_NFT.sol\":29996:30025  _approve(address(0), tokenId) */\n      tag_256\n        /* \"MY MainNFT/My_NFT.sol\":30013:30014  0 */\n      0x00\n        /* \"MY MainNFT/My_NFT.sol\":30017:30024  tokenId */\n      dup3\n        /* \"MY MainNFT/My_NFT.sol\":29996:30004  _approve */\n      tag_137\n        /* \"MY MainNFT/My_NFT.sol\":29996:30025  _approve(address(0), tokenId) */\n      jump\t// in\n    tag_256:\n      sub(shl(0xa0, 0x01), 0x01)\n        /* \"MY MainNFT/My_NFT.sol\":30038:30053  _balances[from] */\n      dup4\n      and\n      0x00\n      swap1\n      dup2\n      mstore\n        /* \"MY MainNFT/My_NFT.sol\":30038:30047  _balances */\n      0x03\n        /* \"MY MainNFT/My_NFT.sol\":30038:30053  _balances[from] */\n      0x20\n      mstore\n      0x40\n      dup2\n      keccak256\n        /* \"MY MainNFT/My_NFT.sol\":30038:30058  _balances[from] -= 1 */\n      dup1\n      sload\n        /* \"MY MainNFT/My_NFT.sol\":30057:30058  1 */\n      0x01\n      swap3\n        /* \"MY MainNFT/My_NFT.sol\":30038:30053  _balances[from] */\n      swap1\n        /* \"MY MainNFT/My_NFT.sol\":30038:30058  _balances[from] -= 1 */\n      tag_257\n      swap1\n        /* \"MY MainNFT/My_NFT.sol\":30057:30058  1 */\n      dup5\n      swap1\n        /* \"MY MainNFT/My_NFT.sol\":30038:30058  _balances[from] -= 1 */\n      tag_258\n      jump\t// in\n    tag_257:\n      swap1\n      swap2\n      sstore\n      pop\n      pop\n      sub(shl(0xa0, 0x01), 0x01)\n        /* \"MY MainNFT/My_NFT.sol\":30069:30082  _balances[to] */\n      dup3\n      and\n      0x00\n      swap1\n      dup2\n      mstore\n        /* \"MY MainNFT/My_NFT.sol\":30069:30078  _balances */\n      0x03\n        /* \"MY MainNFT/My_NFT.sol\":30069:30082  _balances[to] */\n      0x20\n      mstore\n      0x40\n      dup2\n      keccak256\n        /* \"MY MainNFT/My_NFT.sol\":30069:30087  _balances[to] += 1 */\n      dup1\n      sload\n        /* \"MY MainNFT/My_NFT.sol\":30086:30087  1 */\n      0x01\n      swap3\n        /* \"MY MainNFT/My_NFT.sol\":30069:30082  _balances[to] */\n      swap1\n        /* \"MY MainNFT/My_NFT.sol\":30069:30087  _balances[to] += 1 */\n      tag_259\n      swap1\n        /* \"MY MainNFT/My_NFT.sol\":30086:30087  1 */\n      dup5\n      swap1\n        /* \"MY MainNFT/My_NFT.sol\":30069:30087  _balances[to] += 1 */\n      tag_260\n      jump\t// in\n    tag_259:\n      swap1\n      swap2\n      sstore\n      pop\n      pop\n        /* \"MY MainNFT/My_NFT.sol\":30098:30114  _owners[tokenId] */\n      0x00\n      dup2\n      dup2\n      mstore\n        /* \"MY MainNFT/My_NFT.sol\":30098:30105  _owners */\n      0x02\n        /* \"MY MainNFT/My_NFT.sol\":30098:30114  _owners[tokenId] */\n      0x20\n      mstore\n      0x40\n      dup1\n      dup3\n      keccak256\n        /* \"MY MainNFT/My_NFT.sol\":30098:30119  _owners[tokenId] = to */\n      dup1\n      sload\n      not(sub(shl(0xa0, 0x01), 0x01))\n      and\n      sub(shl(0xa0, 0x01), 0x01)\n      dup7\n      dup2\n      and\n      swap2\n      dup3\n      or\n      swap1\n      swap3\n      sstore\n        /* \"MY MainNFT/My_NFT.sol\":30137:30164  Transfer(from, to, tokenId) */\n      swap2\n      mload\n        /* \"MY MainNFT/My_NFT.sol\":30098:30114  _owners[tokenId] */\n      dup5\n      swap4\n        /* \"MY MainNFT/My_NFT.sol\":30137:30164  Transfer(from, to, tokenId) */\n      swap2\n      dup8\n      and\n      swap2\n      0xddf252ad1be2c89b69c2b068fc378daa952ba7f163c4a11628f55a4df523b3ef\n      swap2\n      log4\n        /* \"MY MainNFT/My_NFT.sol\":29628:30172  function _transfer(address from, address to, uint256 tokenId) internal virtual {... */\n      pop\n      pop\n      pop\n      jump\t// out\n        /* \"MY MainNFT/My_NFT.sol\":25828:26100  function _safeTransfer(address from, address to, uint256 tokenId, bytes memory _data) internal virtual {... */\n    tag_200:\n        /* \"MY MainNFT/My_NFT.sol\":25942:25970  _transfer(from, to, tokenId) */\n      tag_262\n        /* \"MY MainNFT/My_NFT.sol\":25952:25956  from */\n      dup5\n        /* \"MY MainNFT/My_NFT.sol\":25958:25960  to */\n      dup5\n        /* \"MY MainNFT/My_NFT.sol\":25962:25969  tokenId */\n      dup5\n        /* \"MY MainNFT/My_NFT.sol\":25942:25951  _transfer */\n      tag_147\n        /* \"MY MainNFT/My_NFT.sol\":25942:25970  _transfer(from, to, tokenId) */\n      jump\t// in\n    tag_262:\n        /* \"MY MainNFT/My_NFT.sol\":25989:26037  _checkOnERC721Received(from, to, tokenId, _data) */\n      tag_263\n        /* \"MY MainNFT/My_NFT.sol\":26012:26016  from */\n      dup5\n        /* \"MY MainNFT/My_NFT.sol\":26018:26020  to */\n      dup5\n        /* \"MY MainNFT/My_NFT.sol\":26022:26029  tokenId */\n      dup5\n        /* \"MY MainNFT/My_NFT.sol\":26031:26036  _data */\n      dup5\n        /* \"MY MainNFT/My_NFT.sol\":25989:26011  _checkOnERC721Received */\n      tag_264\n        /* \"MY MainNFT/My_NFT.sol\":25989:26037  _checkOnERC721Received(from, to, tokenId, _data) */\n      jump\t// in\n    tag_263:\n        /* \"MY MainNFT/My_NFT.sol\":25981:26092  require(_checkOnERC721Received(from, to, tokenId, _data), \"ERC721: transfer to non ERC721Receiver implementer\") */\n      tag_199\n      jumpi\n      mload(0x40)\n      shl(0xe5, 0x461bcd)\n      dup2\n      mstore\n      0x04\n      add\n      tag_121\n      swap1\n      tag_267\n      jump\t// in\n        /* \"MY MainNFT/My_NFT.sol\":41078:41757  function tokenURI(uint256 tokenId) public view virtual override returns (string memory) {... */\n    tag_203:\n        /* \"MY MainNFT/My_NFT.sol\":41151:41164  string memory */\n      0x60\n        /* \"MY MainNFT/My_NFT.sol\":41185:41201  _exists(tokenId) */\n      tag_269\n        /* \"MY MainNFT/My_NFT.sol\":41193:41200  tokenId */\n      dup3\n        /* \"MY MainNFT/My_NFT.sol\":41185:41192  _exists */\n      tag_119\n        /* \"MY MainNFT/My_NFT.sol\":41185:41201  _exists(tokenId) */\n      jump\t// in\n    tag_269:\n        /* \"MY MainNFT/My_NFT.sol\":41177:41255  require(_exists(tokenId), \"ERC721URIStorage: URI query for nonexistent token\") */\n      tag_270\n      jumpi\n      mload(0x40)\n      shl(0xe5, 0x461bcd)\n      dup2\n      mstore\n        /* \"#utility.yul\":12656:12658   */\n      0x20\n        /* \"MY MainNFT/My_NFT.sol\":41177:41255  require(_exists(tokenId), \"ERC721URIStorage: URI query for nonexistent token\") */\n      0x04\n      dup3\n      add\n        /* \"#utility.yul\":12638:12659   */\n      mstore\n        /* \"#utility.yul\":12695:12697   */\n      0x31\n        /* \"#utility.yul\":12675:12693   */\n      0x24\n      dup3\n      add\n        /* \"#utility.yul\":12668:12698   */\n      mstore\n        /* \"#utility.yul\":12734:12768   */\n      0x45524337323155524953746f726167653a2055524920717565727920666f7220\n        /* \"#utility.yul\":12714:12732   */\n      0x44\n      dup3\n      add\n        /* \"#utility.yul\":12707:12769   */\n      mstore\n      shl(0x79, 0x3737b732bc34b9ba32b73a103a37b5b2b7)\n        /* \"#utility.yul\":12785:12803   */\n      0x64\n      dup3\n      add\n        /* \"#utility.yul\":12778:12825   */\n      mstore\n        /* \"#utility.yul\":12842:12861   */\n      0x84\n      add\n        /* \"MY MainNFT/My_NFT.sol\":41177:41255  require(_exists(tokenId), \"ERC721URIStorage: URI query for nonexistent token\") */\n      tag_121\n        /* \"#utility.yul\":12454:12867   */\n      jump\n        /* \"MY MainNFT/My_NFT.sol\":41177:41255  require(_exists(tokenId), \"ERC721URIStorage: URI query for nonexistent token\") */\n    tag_270:\n        /* \"MY MainNFT/My_NFT.sol\":41268:41291  string memory _tokenURI */\n      0x00\n        /* \"MY MainNFT/My_NFT.sol\":41294:41313  _tokenURIs[tokenId] */\n      dup3\n      dup2\n      mstore\n        /* \"MY MainNFT/My_NFT.sol\":41294:41304  _tokenURIs */\n      0x0a\n        /* \"MY MainNFT/My_NFT.sol\":41294:41313  _tokenURIs[tokenId] */\n      0x20\n      mstore\n      0x40\n      dup2\n      keccak256\n        /* \"MY MainNFT/My_NFT.sol\":41268:41313  string memory _tokenURI = _tokenURIs[tokenId] */\n      dup1\n      sload\n      tag_273\n      swap1\n      tag_112\n      jump\t// in\n    tag_273:\n      dup1\n      0x1f\n      add\n      0x20\n      dup1\n      swap2\n      div\n      mul\n      0x20\n      add\n      mload(0x40)\n      swap1\n      dup2\n      add\n      0x40\n      mstore\n      dup1\n      swap3\n      swap2\n      swap1\n      dup2\n      dup2\n      mstore\n      0x20\n      add\n      dup3\n      dup1\n      sload\n      tag_274\n      swap1\n      tag_112\n      jump\t// in\n    tag_274:\n      dup1\n      iszero\n      tag_275\n      jumpi\n      dup1\n      0x1f\n      lt\n      tag_276\n      jumpi\n      0x0100\n      dup1\n      dup4\n      sload\n      div\n      mul\n      dup4\n      mstore\n      swap2\n      0x20\n      add\n      swap2\n      jump(tag_275)\n    tag_276:\n      dup3\n      add\n      swap2\n      swap1\n      0x00\n      mstore\n      keccak256(0x00, 0x20)\n      swap1\n    tag_277:\n      dup2\n      sload\n      dup2\n      mstore\n      swap1\n      0x01\n      add\n      swap1\n      0x20\n      add\n      dup1\n      dup4\n      gt\n      tag_277\n      jumpi\n      dup3\n      swap1\n      sub\n      0x1f\n      and\n      dup3\n      add\n      swap2\n    tag_275:\n      pop\n      pop\n      pop\n      pop\n      pop\n      swap1\n      pop\n        /* \"MY MainNFT/My_NFT.sol\":41324:41342  string memory base */\n      0x00\n        /* \"MY MainNFT/My_NFT.sol\":41345:41355  _baseURI() */\n      tag_278\n        /* \"MY MainNFT/My_NFT.sol\":22631:22640  return \"\" */\n      0x40\n      dup1\n      mload\n      0x20\n      dup2\n      add\n      swap1\n      swap2\n      mstore\n      0x00\n      dup2\n      mstore\n      swap1\n        /* \"MY MainNFT/My_NFT.sol\":22554:22648  function _baseURI() internal view virtual returns (string memory) {... */\n      jump\n        /* \"MY MainNFT/My_NFT.sol\":41345:41355  _baseURI() */\n    tag_278:\n        /* \"MY MainNFT/My_NFT.sol\":41324:41355  string memory base = _baseURI() */\n      swap1\n      pop\n        /* \"MY MainNFT/My_NFT.sol\":41437:41441  base */\n      dup1\n        /* \"MY MainNFT/My_NFT.sol\":41431:41449  bytes(base).length */\n      mload\n        /* \"MY MainNFT/My_NFT.sol\":41453:41454  0 */\n      0x00\n        /* \"MY MainNFT/My_NFT.sol\":41431:41454  bytes(base).length == 0 */\n      sub\n        /* \"MY MainNFT/My_NFT.sol\":41427:41499  if (bytes(base).length == 0) {... */\n      tag_280\n      jumpi\n      pop\n        /* \"MY MainNFT/My_NFT.sol\":41478:41487  _tokenURI */\n      swap3\n        /* \"MY MainNFT/My_NFT.sol\":41078:41757  function tokenURI(uint256 tokenId) public view virtual override returns (string memory) {... */\n      swap2\n      pop\n      pop\n      jump\t// out\n        /* \"MY MainNFT/My_NFT.sol\":41427:41499  if (bytes(base).length == 0) {... */\n    tag_280:\n        /* \"MY MainNFT/My_NFT.sol\":41603:41626  bytes(_tokenURI).length */\n      dup2\n      mload\n        /* \"MY MainNFT/My_NFT.sol\":41603:41630  bytes(_tokenURI).length > 0 */\n      iszero\n        /* \"MY MainNFT/My_NFT.sol\":41599:41707  if (bytes(_tokenURI).length > 0) {... */\n      tag_281\n      jumpi\n        /* \"MY MainNFT/My_NFT.sol\":41678:41682  base */\n      dup1\n        /* \"MY MainNFT/My_NFT.sol\":41684:41693  _tokenURI */\n      dup3\n        /* \"MY MainNFT/My_NFT.sol\":41661:41694  abi.encodePacked(base, _tokenURI) */\n      add(0x20, mload(0x40))\n      tag_282\n      swap3\n      swap2\n      swap1\n      tag_283\n      jump\t// in\n    tag_282:\n      mload(0x40)\n      0x20\n      dup2\n      dup4\n      sub\n      sub\n      dup2\n      mstore\n      swap1\n      0x40\n      mstore\n        /* \"MY MainNFT/My_NFT.sol\":41647:41695  return string(abi.encodePacked(base, _tokenURI)) */\n      swap3\n      pop\n      pop\n      pop\n        /* \"MY MainNFT/My_NFT.sol\":41078:41757  function tokenURI(uint256 tokenId) public view virtual override returns (string memory) {... */\n      swap2\n      swap1\n      pop\n      jump\t// out\n        /* \"MY MainNFT/My_NFT.sol\":41599:41707  if (bytes(_tokenURI).length > 0) {... */\n    tag_281:\n        /* \"MY MainNFT/My_NFT.sol\":41726:41749  super.tokenURI(tokenId) */\n      tag_245\n        /* \"MY MainNFT/My_NFT.sol\":41741:41748  tokenId */\n      dup5\n        /* \"MY MainNFT/My_NFT.sol\":41726:41740  super.tokenURI */\n      tag_285\n        /* \"MY MainNFT/My_NFT.sol\":41726:41749  super.tokenURI(tokenId) */\n      jump\t// in\n        /* \"MY MainNFT/My_NFT.sol\":27397:27507  function _safeMint(address to, uint256 tokenId) internal virtual {... */\n    tag_215:\n        /* \"MY MainNFT/My_NFT.sol\":27473:27499  _safeMint(to, tokenId, \"\") */\n      tag_289\n        /* \"MY MainNFT/My_NFT.sol\":27483:27485  to */\n      dup3\n        /* \"MY MainNFT/My_NFT.sol\":27487:27494  tokenId */\n      dup3\n        /* \"MY MainNFT/My_NFT.sol\":27473:27499  _safeMint(to, tokenId, \"\") */\n      mload(0x40)\n      dup1\n      0x20\n      add\n      0x40\n      mstore\n      dup1\n      0x00\n      dup2\n      mstore\n      pop\n        /* \"MY MainNFT/My_NFT.sol\":27473:27482  _safeMint */\n      tag_290\n        /* \"MY MainNFT/My_NFT.sol\":27473:27499  _safeMint(to, tokenId, \"\") */\n      jump\t// in\n    tag_289:\n        /* \"MY MainNFT/My_NFT.sol\":27397:27507  function _safeMint(address to, uint256 tokenId) internal virtual {... */\n      pop\n      pop\n      jump\t// out\n        /* \"MY MainNFT/My_NFT.sol\":41913:42130  function _setTokenURI(uint256 tokenId, string memory _tokenURI) internal virtual {... */\n    tag_217:\n        /* \"MY MainNFT/My_NFT.sol\":42013:42029  _exists(tokenId) */\n      tag_292\n        /* \"MY MainNFT/My_NFT.sol\":42021:42028  tokenId */\n      dup3\n        /* \"MY MainNFT/My_NFT.sol\":42013:42020  _exists */\n      tag_119\n        /* \"MY MainNFT/My_NFT.sol\":42013:42029  _exists(tokenId) */\n      jump\t// in\n    tag_292:\n        /* \"MY MainNFT/My_NFT.sol\":42005:42080  require(_exists(tokenId), \"ERC721URIStorage: URI set of nonexistent token\") */\n      tag_293\n      jumpi\n      mload(0x40)\n      shl(0xe5, 0x461bcd)\n      dup2\n      mstore\n        /* \"#utility.yul\":13575:13577   */\n      0x20\n        /* \"MY MainNFT/My_NFT.sol\":42005:42080  require(_exists(tokenId), \"ERC721URIStorage: URI set of nonexistent token\") */\n      0x04\n      dup3\n      add\n        /* \"#utility.yul\":13557:13578   */\n      mstore\n        /* \"#utility.yul\":13614:13616   */\n      0x2e\n        /* \"#utility.yul\":13594:13612   */\n      0x24\n      dup3\n      add\n        /* \"#utility.yul\":13587:13617   */\n      mstore\n        /* \"#utility.yul\":13653:13687   */\n      0x45524337323155524953746f726167653a2055524920736574206f66206e6f6e\n        /* \"#utility.yul\":13633:13651   */\n      0x44\n      dup3\n      add\n        /* \"#utility.yul\":13626:13688   */\n      mstore\n      shl(0x91, 0x32bc34b9ba32b73a103a37b5b2b7)\n        /* \"#utility.yul\":13704:13722   */\n      0x64\n      dup3\n      add\n        /* \"#utility.yul\":13697:13741   */\n      mstore\n        /* \"#utility.yul\":13758:13777   */\n      0x84\n      add\n        /* \"MY MainNFT/My_NFT.sol\":42005:42080  require(_exists(tokenId), \"ERC721URIStorage: URI set of nonexistent token\") */\n      tag_121\n        /* \"#utility.yul\":13373:13783   */\n      jump\n        /* \"MY MainNFT/My_NFT.sol\":42005:42080  require(_exists(tokenId), \"ERC721URIStorage: URI set of nonexistent token\") */\n    tag_293:\n        /* \"MY MainNFT/My_NFT.sol\":42091:42110  _tokenURIs[tokenId] */\n      0x00\n      dup3\n      dup2\n      mstore\n        /* \"MY MainNFT/My_NFT.sol\":42091:42101  _tokenURIs */\n      0x0a\n        /* \"MY MainNFT/My_NFT.sol\":42091:42110  _tokenURIs[tokenId] */\n      0x20\n      mstore\n      0x40\n      swap1\n      keccak256\n        /* \"MY MainNFT/My_NFT.sol\":42091:42122  _tokenURIs[tokenId] = _tokenURI */\n      tag_136\n        /* \"MY MainNFT/My_NFT.sol\":42113:42122  _tokenURI */\n      dup3\n        /* \"MY MainNFT/My_NFT.sol\":42091:42110  _tokenURIs[tokenId] */\n      dup3\n        /* \"MY MainNFT/My_NFT.sol\":42091:42122  _tokenURIs[tokenId] = _tokenURI */\n      tag_297\n      jump\t// in\n        /* \"MY MainNFT/My_NFT.sol\":20781:21073  function supportsInterface(bytes4 interfaceId) public view virtual override(ERC165, IERC165) returns (bool) {... */\n    tag_231:\n        /* \"MY MainNFT/My_NFT.sol\":20883:20887  bool */\n      0x00\n      not(sub(shl(0xe0, 0x01), 0x01))\n        /* \"MY MainNFT/My_NFT.sol\":20907:20947  interfaceId == type(IERC721).interfaceId */\n      dup3\n      and\n      shl(0xe0, 0x80ac58cd)\n      eq\n      dup1\n        /* \"MY MainNFT/My_NFT.sol\":20907:21012  interfaceId == type(IERC721).interfaceId... */\n      tag_299\n      jumpi\n      pop\n      not(sub(shl(0xe0, 0x01), 0x01))\n        /* \"MY MainNFT/My_NFT.sol\":20964:21012  interfaceId == type(IERC721Metadata).interfaceId */\n      dup3\n      and\n      shl(0xe0, 0x5b5e139f)\n      eq\n        /* \"MY MainNFT/My_NFT.sol\":20907:21012  interfaceId == type(IERC721).interfaceId... */\n    tag_299:\n        /* \"MY MainNFT/My_NFT.sol\":20907:21065  interfaceId == type(IERC721).interfaceId... */\n      dup1\n      tag_108\n      jumpi\n      pop\n      shl(0xe0, 0x01ffc9a7)\n      not(sub(shl(0xe0, 0x01), 0x01))\n        /* \"MY MainNFT/My_NFT.sol\":19384:19424  interfaceId == type(IERC165).interfaceId */\n      dup4\n      and\n      eq\n        /* \"MY MainNFT/My_NFT.sol\":21029:21065  super.supportsInterface(interfaceId) */\n      tag_108\n        /* \"MY MainNFT/My_NFT.sol\":19275:19432  function supportsInterface(bytes4 interfaceId) public view virtual override returns (bool) {... */\n      jump\n        /* \"MY MainNFT/My_NFT.sol\":46847:47028  function _beforeTokenTransfer(address from, address to, uint256 tokenId) internal override(ERC721, ERC721Enumerable) {... */\n    tag_255:\n        /* \"MY MainNFT/My_NFT.sol\":46975:47020  super._beforeTokenTransfer(from, to, tokenId) */\n      tag_136\n        /* \"MY MainNFT/My_NFT.sol\":47002:47006  from */\n      dup4\n        /* \"MY MainNFT/My_NFT.sol\":47008:47010  to */\n      dup4\n        /* \"MY MainNFT/My_NFT.sol\":47012:47019  tokenId */\n      dup4\n        /* \"MY MainNFT/My_NFT.sol\":46975:47001  super._beforeTokenTransfer */\n      tag_305\n        /* \"MY MainNFT/My_NFT.sol\":46975:47020  super._beforeTokenTransfer(from, to, tokenId) */\n      jump\t// in\n        /* \"MY MainNFT/My_NFT.sol\":31029:31872  function _checkOnERC721Received(address from, address to, uint256 tokenId, bytes memory _data)... */\n    tag_264:\n        /* \"MY MainNFT/My_NFT.sol\":31150:31154  bool */\n      0x00\n      sub(shl(0xa0, 0x01), 0x01)\n        /* \"MY MainNFT/My_NFT.sol\":31176:31189  to.isContract */\n      dup5\n      and\n        /* \"MY MainNFT/My_NFT.sol\":8533:8553  extcodesize(account) */\n      extcodesize\n        /* \"MY MainNFT/My_NFT.sol\":8572:8580  size > 0 */\n      iszero\n        /* \"MY MainNFT/My_NFT.sol\":31172:31865  if (to.isContract()) {... */\n      tag_309\n      jumpi\n        /* \"MY MainNFT/My_NFT.sol\":31212:31284  IERC721Receiver(to).onERC721Received(_msgSender(), from, tokenId, _data) */\n      mload(0x40)\n      shl(0xe1, 0x0a85bd01)\n      dup2\n      mstore\n      sub(shl(0xa0, 0x01), 0x01)\n        /* \"MY MainNFT/My_NFT.sol\":31212:31248  IERC721Receiver(to).onERC721Received */\n      dup6\n      and\n      swap1\n      0x150b7a02\n      swap1\n        /* \"MY MainNFT/My_NFT.sol\":31212:31284  IERC721Receiver(to).onERC721Received(_msgSender(), from, tokenId, _data) */\n      tag_311\n      swap1\n        /* \"MY MainNFT/My_NFT.sol\":16135:16145  msg.sender */\n      caller\n      swap1\n        /* \"MY MainNFT/My_NFT.sol\":31263:31267  from */\n      dup10\n      swap1\n        /* \"MY MainNFT/My_NFT.sol\":31269:31276  tokenId */\n      dup9\n      swap1\n        /* \"MY MainNFT/My_NFT.sol\":31278:31283  _data */\n      dup9\n      swap1\n        /* \"MY MainNFT/My_NFT.sol\":31212:31284  IERC721Receiver(to).onERC721Received(_msgSender(), from, tokenId, _data) */\n      0x04\n      add\n      tag_312\n      jump\t// in\n    tag_311:\n      0x20\n      mload(0x40)\n      dup1\n      dup4\n      sub\n      dup2\n      0x00\n      dup8\n      gas\n      call\n      swap3\n      pop\n      pop\n      pop\n      dup1\n      iszero\n      tag_313\n      jumpi\n      pop\n      0x40\n      dup1\n      mload\n      0x1f\n      returndatasize\n      swap1\n      dup2\n      add\n      not(0x1f)\n      and\n      dup3\n      add\n      swap1\n      swap3\n      mstore\n      tag_314\n      swap2\n      dup2\n      add\n      swap1\n      tag_315\n      jump\t// in\n    tag_314:\n      0x01\n    tag_313:\n        /* \"MY MainNFT/My_NFT.sol\":31208:31810  try IERC721Receiver(to).onERC721Received(_msgSender(), from, tokenId, _data) returns (bytes4 retval) {... */\n      tag_316\n      jumpi\n      returndatasize\n      dup1\n      dup1\n      iszero\n      tag_321\n      jumpi\n      mload(0x40)\n      swap2\n      pop\n      and(add(returndatasize, 0x3f), not(0x1f))\n      dup3\n      add\n      0x40\n      mstore\n      returndatasize\n      dup3\n      mstore\n      returndatasize\n      0x00\n      0x20\n      dup5\n      add\n      returndatacopy\n      jump(tag_320)\n    tag_321:\n      0x60\n      swap2\n      pop\n    tag_320:\n      pop\n        /* \"MY MainNFT/My_NFT.sol\":31458:31464  reason */\n      dup1\n        /* \"MY MainNFT/My_NFT.sol\":31458:31471  reason.length */\n      mload\n        /* \"MY MainNFT/My_NFT.sol\":31475:31476  0 */\n      0x00\n        /* \"MY MainNFT/My_NFT.sol\":31458:31476  reason.length == 0 */\n      sub\n        /* \"MY MainNFT/My_NFT.sol\":31454:31795  if (reason.length == 0) {... */\n      tag_322\n      jumpi\n        /* \"MY MainNFT/My_NFT.sol\":31501:31561  revert(\"ERC721: transfer to non ERC721Receiver implementer\") */\n      mload(0x40)\n      shl(0xe5, 0x461bcd)\n      dup2\n      mstore\n      0x04\n      add\n      tag_121\n      swap1\n      tag_267\n      jump\t// in\n        /* \"MY MainNFT/My_NFT.sol\":31454:31795  if (reason.length == 0) {... */\n    tag_322:\n        /* \"MY MainNFT/My_NFT.sol\":31745:31751  reason */\n      dup1\n        /* \"MY MainNFT/My_NFT.sol\":31739:31752  mload(reason) */\n      mload\n        /* \"MY MainNFT/My_NFT.sol\":31730:31736  reason */\n      dup2\n        /* \"MY MainNFT/My_NFT.sol\":31726:31728  32 */\n      0x20\n        /* \"MY MainNFT/My_NFT.sol\":31722:31737  add(32, reason) */\n      add\n        /* \"MY MainNFT/My_NFT.sol\":31715:31753  revert(add(32, reason), mload(reason)) */\n      revert\n        /* \"MY MainNFT/My_NFT.sol\":31208:31810  try IERC721Receiver(to).onERC721Received(_msgSender(), from, tokenId, _data) returns (bytes4 retval) {... */\n    tag_316:\n      not(sub(shl(0xe0, 0x01), 0x01))\n        /* \"MY MainNFT/My_NFT.sol\":31335:31390  retval == IERC721Receiver(to).onERC721Received.selector */\n      and\n      shl(0xe1, 0x0a85bd01)\n      eq\n      swap1\n      pop\n        /* \"MY MainNFT/My_NFT.sol\":31328:31390  return retval == IERC721Receiver(to).onERC721Received.selector */\n      jump(tag_245)\n        /* \"MY MainNFT/My_NFT.sol\":31172:31865  if (to.isContract()) {... */\n    tag_309:\n      pop\n        /* \"MY MainNFT/My_NFT.sol\":31849:31853  true */\n      0x01\n        /* \"MY MainNFT/My_NFT.sol\":31029:31872  function _checkOnERC721Received(address from, address to, uint256 tokenId, bytes memory _data)... */\n      swap5\n      swap4\n      pop\n      pop\n      pop\n      pop\n      jump\t// out\n        /* \"MY MainNFT/My_NFT.sol\":22057:22417  function tokenURI(uint256 tokenId) public view virtual override returns (string memory) {... */\n    tag_285:\n        /* \"MY MainNFT/My_NFT.sol\":22130:22143  string memory */\n      0x60\n        /* \"MY MainNFT/My_NFT.sol\":22164:22180  _exists(tokenId) */\n      tag_329\n        /* \"MY MainNFT/My_NFT.sol\":22172:22179  tokenId */\n      dup3\n        /* \"MY MainNFT/My_NFT.sol\":22164:22171  _exists */\n      tag_119\n        /* \"MY MainNFT/My_NFT.sol\":22164:22180  _exists(tokenId) */\n      jump\t// in\n    tag_329:\n        /* \"MY MainNFT/My_NFT.sol\":22156:22232  require(_exists(tokenId), \"ERC721Metadata: URI query for nonexistent token\") */\n      tag_330\n      jumpi\n      mload(0x40)\n      shl(0xe5, 0x461bcd)\n      dup2\n      mstore\n        /* \"#utility.yul\":16942:16944   */\n      0x20\n        /* \"MY MainNFT/My_NFT.sol\":22156:22232  require(_exists(tokenId), \"ERC721Metadata: URI query for nonexistent token\") */\n      0x04\n      dup3\n      add\n        /* \"#utility.yul\":16924:16945   */\n      mstore\n        /* \"#utility.yul\":16981:16983   */\n      0x2f\n        /* \"#utility.yul\":16961:16979   */\n      0x24\n      dup3\n      add\n        /* \"#utility.yul\":16954:16984   */\n      mstore\n        /* \"#utility.yul\":17020:17054   */\n      0x4552433732314d657461646174613a2055524920717565727920666f72206e6f\n        /* \"#utility.yul\":17000:17018   */\n      0x44\n      dup3\n      add\n        /* \"#utility.yul\":16993:17055   */\n      mstore\n      shl(0x89, 0x3732bc34b9ba32b73a103a37b5b2b7)\n        /* \"#utility.yul\":17071:17089   */\n      0x64\n      dup3\n      add\n        /* \"#utility.yul\":17064:17109   */\n      mstore\n        /* \"#utility.yul\":17126:17145   */\n      0x84\n      add\n        /* \"MY MainNFT/My_NFT.sol\":22156:22232  require(_exists(tokenId), \"ERC721Metadata: URI query for nonexistent token\") */\n      tag_121\n        /* \"#utility.yul\":16740:17151   */\n      jump\n        /* \"MY MainNFT/My_NFT.sol\":22156:22232  require(_exists(tokenId), \"ERC721Metadata: URI query for nonexistent token\") */\n    tag_330:\n        /* \"MY MainNFT/My_NFT.sol\":22245:22266  string memory baseURI */\n      0x00\n        /* \"MY MainNFT/My_NFT.sol\":22269:22279  _baseURI() */\n      tag_333\n        /* \"MY MainNFT/My_NFT.sol\":22631:22640  return \"\" */\n      0x40\n      dup1\n      mload\n      0x20\n      dup2\n      add\n      swap1\n      swap2\n      mstore\n      0x00\n      dup2\n      mstore\n      swap1\n        /* \"MY MainNFT/My_NFT.sol\":22554:22648  function _baseURI() internal view virtual returns (string memory) {... */\n      jump\n        /* \"MY MainNFT/My_NFT.sol\":22269:22279  _baseURI() */\n    tag_333:\n        /* \"MY MainNFT/My_NFT.sol\":22245:22279  string memory baseURI = _baseURI() */\n      swap1\n      pop\n        /* \"MY MainNFT/My_NFT.sol\":22321:22322  0 */\n      0x00\n        /* \"MY MainNFT/My_NFT.sol\":22303:22310  baseURI */\n      dup2\n        /* \"MY MainNFT/My_NFT.sol\":22297:22318  bytes(baseURI).length */\n      mload\n        /* \"MY MainNFT/My_NFT.sol\":22297:22322  bytes(baseURI).length > 0 */\n      gt\n        /* \"MY MainNFT/My_NFT.sol\":22297:22409  bytes(baseURI).length > 0... */\n      tag_334\n      jumpi\n      mload(0x40)\n      dup1\n      0x20\n      add\n      0x40\n      mstore\n      dup1\n      0x00\n      dup2\n      mstore\n      pop\n      jump(tag_216)\n    tag_334:\n        /* \"MY MainNFT/My_NFT.sol\":22362:22369  baseURI */\n      dup1\n        /* \"MY MainNFT/My_NFT.sol\":22371:22389  tokenId.toString() */\n      tag_336\n        /* \"MY MainNFT/My_NFT.sol\":22371:22378  tokenId */\n      dup5\n        /* \"MY MainNFT/My_NFT.sol\":22371:22387  tokenId.toString */\n      tag_337\n        /* \"MY MainNFT/My_NFT.sol\":22371:22389  tokenId.toString() */\n      jump\t// in\n    tag_336:\n        /* \"MY MainNFT/My_NFT.sol\":22345:22390  abi.encodePacked(baseURI, tokenId.toString()) */\n      add(0x20, mload(0x40))\n      tag_338\n      swap3\n      swap2\n      swap1\n      tag_283\n      jump\t// in\n    tag_338:\n      mload(0x40)\n      0x20\n      dup2\n      dup4\n      sub\n      sub\n      dup2\n      mstore\n      swap1\n      0x40\n      mstore\n        /* \"MY MainNFT/My_NFT.sol\":22290:22409  return bytes(baseURI).length > 0... */\n      swap4\n        /* \"MY MainNFT/My_NFT.sol\":22057:22417  function tokenURI(uint256 tokenId) public view virtual override returns (string memory) {... */\n      swap3\n      pop\n      pop\n      pop\n      jump\t// out\n        /* \"MY MainNFT/My_NFT.sol\":27734:27984  function _safeMint(address to, uint256 tokenId, bytes memory _data) internal virtual {... */\n    tag_290:\n        /* \"MY MainNFT/My_NFT.sol\":27830:27848  _mint(to, tokenId) */\n      tag_340\n        /* \"MY MainNFT/My_NFT.sol\":27836:27838  to */\n      dup4\n        /* \"MY MainNFT/My_NFT.sol\":27840:27847  tokenId */\n      dup4\n        /* \"MY MainNFT/My_NFT.sol\":27830:27835  _mint */\n      tag_341\n        /* \"MY MainNFT/My_NFT.sol\":27830:27848  _mint(to, tokenId) */\n      jump\t// in\n    tag_340:\n        /* \"MY MainNFT/My_NFT.sol\":27867:27921  _checkOnERC721Received(address(0), to, tokenId, _data) */\n      tag_342\n        /* \"MY MainNFT/My_NFT.sol\":27898:27899  0 */\n      0x00\n        /* \"MY MainNFT/My_NFT.sol\":27902:27904  to */\n      dup5\n        /* \"MY MainNFT/My_NFT.sol\":27906:27913  tokenId */\n      dup5\n        /* \"MY MainNFT/My_NFT.sol\":27915:27920  _data */\n      dup5\n        /* \"MY MainNFT/My_NFT.sol\":27867:27889  _checkOnERC721Received */\n      tag_264\n        /* \"MY MainNFT/My_NFT.sol\":27867:27921  _checkOnERC721Received(address(0), to, tokenId, _data) */\n      jump\t// in\n    tag_342:\n        /* \"MY MainNFT/My_NFT.sol\":27859:27976  require(_checkOnERC721Received(address(0), to, tokenId, _data), \"ERC721: transfer to non ERC721Receiver implementer\") */\n      tag_136\n      jumpi\n      mload(0x40)\n      shl(0xe5, 0x461bcd)\n      dup2\n      mstore\n      0x04\n      add\n      tag_121\n      swap1\n      tag_267\n      jump\t// in\n        /* \"MY MainNFT/My_NFT.sol\":36205:36760  function _beforeTokenTransfer(address from, address to, uint256 tokenId) internal virtual override {... */\n    tag_305:\n      sub(shl(0xa0, 0x01), 0x01)\n        /* \"MY MainNFT/My_NFT.sol\":36377:36395  from == address(0) */\n      dup4\n      and\n        /* \"MY MainNFT/My_NFT.sol\":36373:36560  if (from == address(0)) {... */\n      tag_349\n      jumpi\n        /* \"MY MainNFT/My_NFT.sol\":36412:36452  _addTokenToAllTokensEnumeration(tokenId) */\n      tag_350\n        /* \"MY MainNFT/My_NFT.sol\":36444:36451  tokenId */\n      dup2\n        /* \"MY MainNFT/My_NFT.sol\":37587:37597  _allTokens */\n      0x08\n        /* \"MY MainNFT/My_NFT.sol\":37587:37604  _allTokens.length */\n      dup1\n      sload\n        /* \"MY MainNFT/My_NFT.sol\":37560:37584  _allTokensIndex[tokenId] */\n      0x00\n      dup4\n      dup2\n      mstore\n        /* \"MY MainNFT/My_NFT.sol\":37560:37575  _allTokensIndex */\n      0x09\n        /* \"MY MainNFT/My_NFT.sol\":37560:37584  _allTokensIndex[tokenId] */\n      0x20\n      mstore\n      0x40\n      dup2\n      keccak256\n        /* \"MY MainNFT/My_NFT.sol\":37560:37604  _allTokensIndex[tokenId] = _allTokens.length */\n      dup3\n      swap1\n      sstore\n        /* \"MY MainNFT/My_NFT.sol\":37615:37639  _allTokens.push(tokenId) */\n      0x01\n      dup3\n      add\n      dup4\n      sstore\n      swap2\n      swap1\n      swap2\n      mstore\n      0xf3f7a9fe364faab93b216da50a3214154f22a0a2b415b23a84c8169e8b636ee3\n      add\n      sstore\n        /* \"MY MainNFT/My_NFT.sol\":37483:37647  function _addTokenToAllTokensEnumeration(uint256 tokenId) private {... */\n      jump\n        /* \"MY MainNFT/My_NFT.sol\":36412:36452  _addTokenToAllTokensEnumeration(tokenId) */\n    tag_350:\n        /* \"MY MainNFT/My_NFT.sol\":36373:36560  if (from == address(0)) {... */\n      jump(tag_354)\n    tag_349:\n        /* \"MY MainNFT/My_NFT.sol\":36482:36484  to */\n      dup2\n      sub(shl(0xa0, 0x01), 0x01)\n        /* \"MY MainNFT/My_NFT.sol\":36474:36484  from != to */\n      and\n        /* \"MY MainNFT/My_NFT.sol\":36474:36478  from */\n      dup4\n      sub(shl(0xa0, 0x01), 0x01)\n        /* \"MY MainNFT/My_NFT.sol\":36474:36484  from != to */\n      and\n      eq\n        /* \"MY MainNFT/My_NFT.sol\":36470:36560  if (from != to) {... */\n      tag_354\n      jumpi\n        /* \"MY MainNFT/My_NFT.sol\":36501:36548  _removeTokenFromOwnerEnumeration(from, tokenId) */\n      tag_354\n        /* \"MY MainNFT/My_NFT.sol\":36534:36538  from */\n      dup4\n        /* \"MY MainNFT/My_NFT.sol\":36540:36547  tokenId */\n      dup3\n        /* \"MY MainNFT/My_NFT.sol\":36501:36533  _removeTokenFromOwnerEnumeration */\n      tag_355\n        /* \"MY MainNFT/My_NFT.sol\":36501:36548  _removeTokenFromOwnerEnumeration(from, tokenId) */\n      jump\t// in\n    tag_354:\n      sub(shl(0xa0, 0x01), 0x01)\n        /* \"MY MainNFT/My_NFT.sol\":36574:36590  to == address(0) */\n      dup3\n      and\n        /* \"MY MainNFT/My_NFT.sol\":36570:36753  if (to == address(0)) {... */\n      tag_356\n      jumpi\n        /* \"MY MainNFT/My_NFT.sol\":36607:36652  _removeTokenFromAllTokensEnumeration(tokenId) */\n      tag_136\n        /* \"MY MainNFT/My_NFT.sol\":36644:36651  tokenId */\n      dup2\n        /* \"MY MainNFT/My_NFT.sol\":36607:36643  _removeTokenFromAllTokensEnumeration */\n      tag_358\n        /* \"MY MainNFT/My_NFT.sol\":36607:36652  _removeTokenFromAllTokensEnumeration(tokenId) */\n      jump\t// in\n        /* \"MY MainNFT/My_NFT.sol\":36570:36753  if (to == address(0)) {... */\n    tag_356:\n        /* \"MY MainNFT/My_NFT.sol\":36680:36684  from */\n      dup3\n      sub(shl(0xa0, 0x01), 0x01)\n        /* \"MY MainNFT/My_NFT.sol\":36674:36684  to != from */\n      and\n        /* \"MY MainNFT/My_NFT.sol\":36674:36676  to */\n      dup3\n      sub(shl(0xa0, 0x01), 0x01)\n        /* \"MY MainNFT/My_NFT.sol\":36674:36684  to != from */\n      and\n      eq\n        /* \"MY MainNFT/My_NFT.sol\":36670:36753  if (to != from) {... */\n      tag_136\n      jumpi\n        /* \"MY MainNFT/My_NFT.sol\":36701:36741  _addTokenToOwnerEnumeration(to, tokenId) */\n      tag_136\n        /* \"MY MainNFT/My_NFT.sol\":36729:36731  to */\n      dup3\n        /* \"MY MainNFT/My_NFT.sol\":36733:36740  tokenId */\n      dup3\n        /* \"MY MainNFT/My_NFT.sol\":36701:36728  _addTokenToOwnerEnumeration */\n      tag_362\n        /* \"MY MainNFT/My_NFT.sol\":36701:36741  _addTokenToOwnerEnumeration(to, tokenId) */\n      jump\t// in\n        /* \"MY MainNFT/My_NFT.sol\":16716:17439  function toString(uint256 value) internal pure returns (string memory) {... */\n    tag_337:\n        /* \"MY MainNFT/My_NFT.sol\":16772:16785  string memory */\n      0x60\n        /* \"MY MainNFT/My_NFT.sol\":16993:16998  value */\n      dup2\n        /* \"MY MainNFT/My_NFT.sol\":17002:17003  0 */\n      0x00\n        /* \"MY MainNFT/My_NFT.sol\":16993:17003  value == 0 */\n      sub\n        /* \"MY MainNFT/My_NFT.sol\":16989:17042  if (value == 0) {... */\n      tag_365\n      jumpi\n      pop\n      pop\n        /* \"MY MainNFT/My_NFT.sol\":17020:17030  return \"0\" */\n      0x40\n      dup1\n      mload\n      dup1\n      dup3\n      add\n      swap1\n      swap2\n      mstore\n      0x01\n      dup2\n      mstore\n      shl(0xfc, 0x03)\n      0x20\n      dup3\n      add\n      mstore\n      swap1\n        /* \"MY MainNFT/My_NFT.sol\":16716:17439  function toString(uint256 value) internal pure returns (string memory) {... */\n      jump\t// out\n        /* \"MY MainNFT/My_NFT.sol\":16989:17042  if (value == 0) {... */\n    tag_365:\n        /* \"MY MainNFT/My_NFT.sol\":17067:17072  value */\n      dup2\n        /* \"MY MainNFT/My_NFT.sol\":17052:17064  uint256 temp */\n      0x00\n        /* \"MY MainNFT/My_NFT.sol\":17108:17186  while (temp != 0) {... */\n    tag_366:\n        /* \"MY MainNFT/My_NFT.sol\":17115:17124  temp != 0 */\n      dup2\n      iszero\n        /* \"MY MainNFT/My_NFT.sol\":17108:17186  while (temp != 0) {... */\n      tag_367\n      jumpi\n        /* \"MY MainNFT/My_NFT.sol\":17141:17149  digits++ */\n      dup1\n      tag_368\n      dup2\n      tag_369\n      jump\t// in\n    tag_368:\n      swap2\n      pop\n        /* \"MY MainNFT/My_NFT.sol\":17164:17174  temp /= 10 */\n      tag_370\n      swap1\n      pop\n        /* \"MY MainNFT/My_NFT.sol\":17172:17174  10 */\n      0x0a\n        /* \"MY MainNFT/My_NFT.sol\":17164:17174  temp /= 10 */\n      dup4\n      tag_371\n      jump\t// in\n    tag_370:\n      swap2\n      pop\n        /* \"MY MainNFT/My_NFT.sol\":17108:17186  while (temp != 0) {... */\n      jump(tag_366)\n    tag_367:\n        /* \"MY MainNFT/My_NFT.sol\":17196:17215  bytes memory buffer */\n      0x00\n        /* \"MY MainNFT/My_NFT.sol\":17228:17234  digits */\n      dup2\n        /* \"MY MainNFT/My_NFT.sol\":17218:17235  new bytes(digits) */\n      0xffffffffffffffff\n      dup2\n      gt\n      iszero\n      tag_373\n      jumpi\n      tag_373\n      tag_374\n      jump\t// in\n    tag_373:\n      mload(0x40)\n      swap1\n      dup1\n      dup3\n      mstore\n      dup1\n      0x1f\n      add\n      not(0x1f)\n      and\n      0x20\n      add\n      dup3\n      add\n      0x40\n      mstore\n      dup1\n      iszero\n      tag_375\n      jumpi\n      0x20\n      dup3\n      add\n      dup2\n      dup1\n      calldatasize\n      dup4\n      calldatacopy\n      add\n      swap1\n      pop\n    tag_375:\n      pop\n        /* \"MY MainNFT/My_NFT.sol\":17196:17235  bytes memory buffer = new bytes(digits) */\n      swap1\n      pop\n        /* \"MY MainNFT/My_NFT.sol\":17246:17400  while (value != 0) {... */\n    tag_376:\n        /* \"MY MainNFT/My_NFT.sol\":17253:17263  value != 0 */\n      dup5\n      iszero\n        /* \"MY MainNFT/My_NFT.sol\":17246:17400  while (value != 0) {... */\n      tag_245\n      jumpi\n        /* \"MY MainNFT/My_NFT.sol\":17280:17291  digits -= 1 */\n      tag_378\n        /* \"MY MainNFT/My_NFT.sol\":17290:17291  1 */\n      0x01\n        /* \"MY MainNFT/My_NFT.sol\":17280:17291  digits -= 1 */\n      dup4\n      tag_258\n      jump\t// in\n    tag_378:\n      swap2\n      pop\n        /* \"MY MainNFT/My_NFT.sol\":17349:17359  value % 10 */\n      tag_379\n        /* \"MY MainNFT/My_NFT.sol\":17357:17359  10 */\n      0x0a\n        /* \"MY MainNFT/My_NFT.sol\":17349:17354  value */\n      dup7\n        /* \"MY MainNFT/My_NFT.sol\":17349:17359  value % 10 */\n      tag_380\n      jump\t// in\n    tag_379:\n        /* \"MY MainNFT/My_NFT.sol\":17336:17360  48 + uint256(value % 10) */\n      tag_381\n      swap1\n        /* \"MY MainNFT/My_NFT.sol\":17336:17338  48 */\n      0x30\n        /* \"MY MainNFT/My_NFT.sol\":17336:17360  48 + uint256(value % 10) */\n      tag_260\n      jump\t// in\n    tag_381:\n        /* \"MY MainNFT/My_NFT.sol\":17323:17362  bytes1(uint8(48 + uint256(value % 10))) */\n      0xf8\n      shl\n        /* \"MY MainNFT/My_NFT.sol\":17306:17312  buffer */\n      dup2\n        /* \"MY MainNFT/My_NFT.sol\":17313:17319  digits */\n      dup4\n        /* \"MY MainNFT/My_NFT.sol\":17306:17320  buffer[digits] */\n      dup2\n      mload\n      dup2\n      lt\n      tag_383\n      jumpi\n      tag_383\n      tag_162\n      jump\t// in\n    tag_383:\n      0x20\n      add\n      add\n        /* \"MY MainNFT/My_NFT.sol\":17306:17362  buffer[digits] = bytes1(uint8(48 + uint256(value % 10))) */\n      swap1\n      not(sub(shl(0xf8, 0x01), 0x01))\n      and\n      swap1\n      dup2\n      0x00\n      byte\n      swap1\n      mstore8\n      pop\n        /* \"MY MainNFT/My_NFT.sol\":17377:17388  value /= 10 */\n      tag_384\n        /* \"MY MainNFT/My_NFT.sol\":17386:17388  10 */\n      0x0a\n        /* \"MY MainNFT/My_NFT.sol\":17377:17388  value /= 10 */\n      dup7\n      tag_371\n      jump\t// in\n    tag_384:\n      swap5\n      pop\n        /* \"MY MainNFT/My_NFT.sol\":17246:17400  while (value != 0) {... */\n      jump(tag_376)\n        /* \"MY MainNFT/My_NFT.sol\":28320:28702  function _mint(address to, uint256 tokenId) internal virtual {... */\n    tag_341:\n      sub(shl(0xa0, 0x01), 0x01)\n        /* \"MY MainNFT/My_NFT.sol\":28400:28416  to != address(0) */\n      dup3\n      and\n        /* \"MY MainNFT/My_NFT.sol\":28392:28453  require(to != address(0), \"ERC721: mint to the zero address\") */\n      tag_386\n      jumpi\n      mload(0x40)\n      shl(0xe5, 0x461bcd)\n      dup2\n      mstore\n        /* \"#utility.yul\":17872:17874   */\n      0x20\n        /* \"MY MainNFT/My_NFT.sol\":28392:28453  require(to != address(0), \"ERC721: mint to the zero address\") */\n      0x04\n      dup3\n      add\n        /* \"#utility.yul\":17854:17875   */\n      dup2\n      swap1\n      mstore\n        /* \"#utility.yul\":17891:17909   */\n      0x24\n      dup3\n      add\n        /* \"#utility.yul\":17884:17914   */\n      mstore\n        /* \"#utility.yul\":17950:17984   */\n      0x4552433732313a206d696e7420746f20746865207a65726f2061646472657373\n        /* \"#utility.yul\":17930:17948   */\n      0x44\n      dup3\n      add\n        /* \"#utility.yul\":17923:17985   */\n      mstore\n        /* \"#utility.yul\":18002:18020   */\n      0x64\n      add\n        /* \"MY MainNFT/My_NFT.sol\":28392:28453  require(to != address(0), \"ERC721: mint to the zero address\") */\n      tag_121\n        /* \"#utility.yul\":17670:18026   */\n      jump\n        /* \"MY MainNFT/My_NFT.sol\":28392:28453  require(to != address(0), \"ERC721: mint to the zero address\") */\n    tag_386:\n        /* \"MY MainNFT/My_NFT.sol\":28473:28489  _exists(tokenId) */\n      tag_389\n        /* \"MY MainNFT/My_NFT.sol\":28481:28488  tokenId */\n      dup2\n        /* \"MY MainNFT/My_NFT.sol\":28473:28480  _exists */\n      tag_119\n        /* \"MY MainNFT/My_NFT.sol\":28473:28489  _exists(tokenId) */\n      jump\t// in\n    tag_389:\n        /* \"MY MainNFT/My_NFT.sol\":28472:28489  !_exists(tokenId) */\n      iszero\n        /* \"MY MainNFT/My_NFT.sol\":28464:28522  require(!_exists(tokenId), \"ERC721: token already minted\") */\n      tag_390\n      jumpi\n      mload(0x40)\n      shl(0xe5, 0x461bcd)\n      dup2\n      mstore\n        /* \"#utility.yul\":18233:18235   */\n      0x20\n        /* \"MY MainNFT/My_NFT.sol\":28464:28522  require(!_exists(tokenId), \"ERC721: token already minted\") */\n      0x04\n      dup3\n      add\n        /* \"#utility.yul\":18215:18236   */\n      mstore\n        /* \"#utility.yul\":18272:18274   */\n      0x1c\n        /* \"#utility.yul\":18252:18270   */\n      0x24\n      dup3\n      add\n        /* \"#utility.yul\":18245:18275   */\n      mstore\n        /* \"#utility.yul\":18311:18341   */\n      0x4552433732313a20746f6b656e20616c7265616479206d696e74656400000000\n        /* \"#utility.yul\":18291:18309   */\n      0x44\n      dup3\n      add\n        /* \"#utility.yul\":18284:18342   */\n      mstore\n        /* \"#utility.yul\":18359:18377   */\n      0x64\n      add\n        /* \"MY MainNFT/My_NFT.sol\":28464:28522  require(!_exists(tokenId), \"ERC721: token already minted\") */\n      tag_121\n        /* \"#utility.yul\":18031:18383   */\n      jump\n        /* \"MY MainNFT/My_NFT.sol\":28464:28522  require(!_exists(tokenId), \"ERC721: token already minted\") */\n    tag_390:\n        /* \"MY MainNFT/My_NFT.sol\":28535:28580  _beforeTokenTransfer(address(0), to, tokenId) */\n      tag_393\n        /* \"MY MainNFT/My_NFT.sol\":28564:28565  0 */\n      0x00\n        /* \"MY MainNFT/My_NFT.sol\":28568:28570  to */\n      dup4\n        /* \"MY MainNFT/My_NFT.sol\":28572:28579  tokenId */\n      dup4\n        /* \"MY MainNFT/My_NFT.sol\":28535:28555  _beforeTokenTransfer */\n      tag_255\n        /* \"MY MainNFT/My_NFT.sol\":28535:28580  _beforeTokenTransfer(address(0), to, tokenId) */\n      jump\t// in\n    tag_393:\n      sub(shl(0xa0, 0x01), 0x01)\n        /* \"MY MainNFT/My_NFT.sol\":28593:28606  _balances[to] */\n      dup3\n      and\n      0x00\n      swap1\n      dup2\n      mstore\n        /* \"MY MainNFT/My_NFT.sol\":28593:28602  _balances */\n      0x03\n        /* \"MY MainNFT/My_NFT.sol\":28593:28606  _balances[to] */\n      0x20\n      mstore\n      0x40\n      dup2\n      keccak256\n        /* \"MY MainNFT/My_NFT.sol\":28593:28611  _balances[to] += 1 */\n      dup1\n      sload\n        /* \"MY MainNFT/My_NFT.sol\":28610:28611  1 */\n      0x01\n      swap3\n        /* \"MY MainNFT/My_NFT.sol\":28593:28606  _balances[to] */\n      swap1\n        /* \"MY MainNFT/My_NFT.sol\":28593:28611  _balances[to] += 1 */\n      tag_394\n      swap1\n        /* \"MY MainNFT/My_NFT.sol\":28610:28611  1 */\n      dup5\n      swap1\n        /* \"MY MainNFT/My_NFT.sol\":28593:28611  _balances[to] += 1 */\n      tag_260\n      jump\t// in\n    tag_394:\n      swap1\n      swap2\n      sstore\n      pop\n      pop\n        /* \"MY MainNFT/My_NFT.sol\":28622:28638  _owners[tokenId] */\n      0x00\n      dup2\n      dup2\n      mstore\n        /* \"MY MainNFT/My_NFT.sol\":28622:28629  _owners */\n      0x02\n        /* \"MY MainNFT/My_NFT.sol\":28622:28638  _owners[tokenId] */\n      0x20\n      mstore\n      0x40\n      dup1\n      dup3\n      keccak256\n        /* \"MY MainNFT/My_NFT.sol\":28622:28643  _owners[tokenId] = to */\n      dup1\n      sload\n      not(sub(shl(0xa0, 0x01), 0x01))\n      and\n      sub(shl(0xa0, 0x01), 0x01)\n      dup7\n      and\n      swap1\n      dup2\n      or\n      swap1\n      swap2\n      sstore\n        /* \"MY MainNFT/My_NFT.sol\":28661:28694  Transfer(address(0), to, tokenId) */\n      swap1\n      mload\n        /* \"MY MainNFT/My_NFT.sol\":28622:28638  _owners[tokenId] */\n      dup4\n      swap3\n      swap1\n        /* \"MY MainNFT/My_NFT.sol\":28661:28694  Transfer(address(0), to, tokenId) */\n      0xddf252ad1be2c89b69c2b068fc378daa952ba7f163c4a11628f55a4df523b3ef\n      swap1\n        /* \"MY MainNFT/My_NFT.sol\":28622:28638  _owners[tokenId] */\n      dup3\n      swap1\n        /* \"MY MainNFT/My_NFT.sol\":28661:28694  Transfer(address(0), to, tokenId) */\n      log4\n        /* \"MY MainNFT/My_NFT.sol\":28320:28702  function _mint(address to, uint256 tokenId) internal virtual {... */\n      pop\n      pop\n      jump\t// out\n        /* \"MY MainNFT/My_NFT.sol\":38274:39262  function _removeTokenFromOwnerEnumeration(address from, uint256 tokenId) private {... */\n    tag_355:\n        /* \"MY MainNFT/My_NFT.sol\":38540:38562  uint256 lastTokenIndex */\n      0x00\n        /* \"MY MainNFT/My_NFT.sol\":38590:38591  1 */\n      0x01\n        /* \"MY MainNFT/My_NFT.sol\":38565:38587  ERC721.balanceOf(from) */\n      tag_399\n        /* \"MY MainNFT/My_NFT.sol\":38582:38586  from */\n      dup5\n        /* \"MY MainNFT/My_NFT.sol\":38565:38581  ERC721.balanceOf */\n      tag_72\n        /* \"MY MainNFT/My_NFT.sol\":38565:38587  ERC721.balanceOf(from) */\n      jump\t// in\n    tag_399:\n        /* \"MY MainNFT/My_NFT.sol\":38565:38591  ERC721.balanceOf(from) - 1 */\n      tag_400\n      swap2\n      swap1\n      tag_258\n      jump\t// in\n    tag_400:\n        /* \"MY MainNFT/My_NFT.sol\":38602:38620  uint256 tokenIndex */\n      0x00\n        /* \"MY MainNFT/My_NFT.sol\":38623:38649  _ownedTokensIndex[tokenId] */\n      dup4\n      dup2\n      mstore\n        /* \"MY MainNFT/My_NFT.sol\":38623:38640  _ownedTokensIndex */\n      0x07\n        /* \"MY MainNFT/My_NFT.sol\":38623:38649  _ownedTokensIndex[tokenId] */\n      0x20\n      mstore\n      0x40\n      swap1\n      keccak256\n      sload\n        /* \"MY MainNFT/My_NFT.sol\":38540:38591  uint256 lastTokenIndex = ERC721.balanceOf(from) - 1 */\n      swap1\n      swap2\n      pop\n        /* \"MY MainNFT/My_NFT.sol\":38756:38784  tokenIndex != lastTokenIndex */\n      dup1\n      dup3\n      eq\n        /* \"MY MainNFT/My_NFT.sol\":38752:39080  if (tokenIndex != lastTokenIndex) {... */\n      tag_401\n      jumpi\n      sub(shl(0xa0, 0x01), 0x01)\n        /* \"MY MainNFT/My_NFT.sol\":38823:38841  _ownedTokens[from] */\n      dup5\n      and\n        /* \"MY MainNFT/My_NFT.sol\":38801:38820  uint256 lastTokenId */\n      0x00\n        /* \"MY MainNFT/My_NFT.sol\":38823:38841  _ownedTokens[from] */\n      swap1\n      dup2\n      mstore\n        /* \"MY MainNFT/My_NFT.sol\":38823:38835  _ownedTokens */\n      0x06\n        /* \"MY MainNFT/My_NFT.sol\":38823:38841  _ownedTokens[from] */\n      0x20\n      swap1\n      dup2\n      mstore\n      0x40\n      dup1\n      dup4\n      keccak256\n        /* \"MY MainNFT/My_NFT.sol\":38823:38857  _ownedTokens[from][lastTokenIndex] */\n      dup6\n      dup5\n      mstore\n      dup3\n      mstore\n      dup1\n      dup4\n      keccak256\n      sload\n        /* \"MY MainNFT/My_NFT.sol\":38874:38904  _ownedTokens[from][tokenIndex] */\n      dup5\n      dup5\n      mstore\n      dup2\n      dup5\n      keccak256\n        /* \"MY MainNFT/My_NFT.sol\":38874:38918  _ownedTokens[from][tokenIndex] = lastTokenId */\n      dup2\n      swap1\n      sstore\n        /* \"MY MainNFT/My_NFT.sol\":38991:39021  _ownedTokensIndex[lastTokenId] */\n      dup4\n      mstore\n        /* \"MY MainNFT/My_NFT.sol\":38991:39008  _ownedTokensIndex */\n      0x07\n        /* \"MY MainNFT/My_NFT.sol\":38991:39021  _ownedTokensIndex[lastTokenId] */\n      swap1\n      swap2\n      mstore\n      swap1\n      keccak256\n        /* \"MY MainNFT/My_NFT.sol\":38991:39034  _ownedTokensIndex[lastTokenId] = tokenIndex */\n      dup2\n      swap1\n      sstore\n        /* \"MY MainNFT/My_NFT.sol\":38752:39080  if (tokenIndex != lastTokenIndex) {... */\n    tag_401:\n      pop\n        /* \"MY MainNFT/My_NFT.sol\":39176:39202  _ownedTokensIndex[tokenId] */\n      0x00\n      swap2\n      dup3\n      mstore\n        /* \"MY MainNFT/My_NFT.sol\":39176:39193  _ownedTokensIndex */\n      0x07\n        /* \"MY MainNFT/My_NFT.sol\":39176:39202  _ownedTokensIndex[tokenId] */\n      0x20\n      swap1\n      dup2\n      mstore\n      0x40\n      dup1\n      dup5\n      keccak256\n        /* \"MY MainNFT/My_NFT.sol\":39169:39202  delete _ownedTokensIndex[tokenId] */\n      dup5\n      swap1\n      sstore\n      sub(shl(0xa0, 0x01), 0x01)\n        /* \"MY MainNFT/My_NFT.sol\":39220:39238  _ownedTokens[from] */\n      swap1\n      swap5\n      and\n      dup4\n      mstore\n        /* \"MY MainNFT/My_NFT.sol\":39220:39232  _ownedTokens */\n      0x06\n        /* \"MY MainNFT/My_NFT.sol\":39220:39238  _ownedTokens[from] */\n      dup2\n      mstore\n      dup4\n      dup4\n      keccak256\n        /* \"MY MainNFT/My_NFT.sol\":39220:39254  _ownedTokens[from][lastTokenIndex] */\n      swap2\n      dup4\n      mstore\n      mstore\n      swap1\n      dup2\n      keccak256\n        /* \"MY MainNFT/My_NFT.sol\":39213:39254  delete _ownedTokens[from][lastTokenIndex] */\n      sstore\n        /* \"MY MainNFT/My_NFT.sol\":38274:39262  function _removeTokenFromOwnerEnumeration(address from, uint256 tokenId) private {... */\n      jump\t// out\n        /* \"MY MainNFT/My_NFT.sol\":39557:40636  function _removeTokenFromAllTokensEnumeration(uint256 tokenId) private {... */\n    tag_358:\n        /* \"MY MainNFT/My_NFT.sol\":39835:39845  _allTokens */\n      0x08\n        /* \"MY MainNFT/My_NFT.sol\":39835:39852  _allTokens.length */\n      sload\n        /* \"MY MainNFT/My_NFT.sol\":39810:39832  uint256 lastTokenIndex */\n      0x00\n      swap1\n        /* \"MY MainNFT/My_NFT.sol\":39835:39856  _allTokens.length - 1 */\n      tag_403\n      swap1\n        /* \"MY MainNFT/My_NFT.sol\":39855:39856  1 */\n      0x01\n      swap1\n        /* \"MY MainNFT/My_NFT.sol\":39835:39856  _allTokens.length - 1 */\n      tag_258\n      jump\t// in\n    tag_403:\n        /* \"MY MainNFT/My_NFT.sol\":39867:39885  uint256 tokenIndex */\n      0x00\n        /* \"MY MainNFT/My_NFT.sol\":39888:39912  _allTokensIndex[tokenId] */\n      dup4\n      dup2\n      mstore\n        /* \"MY MainNFT/My_NFT.sol\":39888:39903  _allTokensIndex */\n      0x09\n        /* \"MY MainNFT/My_NFT.sol\":39888:39912  _allTokensIndex[tokenId] */\n      0x20\n      mstore\n      0x40\n      dup2\n      keccak256\n      sload\n        /* \"MY MainNFT/My_NFT.sol\":40261:40271  _allTokens */\n      0x08\n        /* \"MY MainNFT/My_NFT.sol\":40261:40287  _allTokens[lastTokenIndex] */\n      dup1\n      sload\n        /* \"MY MainNFT/My_NFT.sol\":39810:39856  uint256 lastTokenIndex = _allTokens.length - 1 */\n      swap4\n      swap5\n      pop\n        /* \"MY MainNFT/My_NFT.sol\":39888:39912  _allTokensIndex[tokenId] */\n      swap1\n      swap3\n        /* \"MY MainNFT/My_NFT.sol\":39810:39856  uint256 lastTokenIndex = _allTokens.length - 1 */\n      dup5\n      swap1\n        /* \"MY MainNFT/My_NFT.sol\":40261:40287  _allTokens[lastTokenIndex] */\n      dup2\n      lt\n      tag_405\n      jumpi\n      tag_405\n      tag_162\n      jump\t// in\n    tag_405:\n      swap1\n      0x00\n      mstore\n      keccak256(0x00, 0x20)\n      add\n      sload\n        /* \"MY MainNFT/My_NFT.sol\":40239:40287  uint256 lastTokenId = _allTokens[lastTokenIndex] */\n      swap1\n      pop\n        /* \"MY MainNFT/My_NFT.sol\":40325:40336  lastTokenId */\n      dup1\n        /* \"MY MainNFT/My_NFT.sol\":40300:40310  _allTokens */\n      0x08\n        /* \"MY MainNFT/My_NFT.sol\":40311:40321  tokenIndex */\n      dup4\n        /* \"MY MainNFT/My_NFT.sol\":40300:40322  _allTokens[tokenIndex] */\n      dup2\n      sload\n      dup2\n      lt\n      tag_408\n      jumpi\n      tag_408\n      tag_162\n      jump\t// in\n    tag_408:\n      0x00\n      swap2\n      dup3\n      mstore\n      0x20\n      dup1\n      dup4\n      keccak256\n      swap1\n      swap2\n      add\n        /* \"MY MainNFT/My_NFT.sol\":40300:40336  _allTokens[tokenIndex] = lastTokenId */\n      swap3\n      swap1\n      swap3\n      sstore\n        /* \"MY MainNFT/My_NFT.sol\":40405:40433  _allTokensIndex[lastTokenId] */\n      dup3\n      dup2\n      mstore\n        /* \"MY MainNFT/My_NFT.sol\":40405:40420  _allTokensIndex */\n      0x09\n        /* \"MY MainNFT/My_NFT.sol\":40405:40433  _allTokensIndex[lastTokenId] */\n      swap1\n      swap2\n      mstore\n      0x40\n      dup1\n      dup3\n      keccak256\n        /* \"MY MainNFT/My_NFT.sol\":40405:40446  _allTokensIndex[lastTokenId] = tokenIndex */\n      dup5\n      swap1\n      sstore\n        /* \"MY MainNFT/My_NFT.sol\":40577:40601  _allTokensIndex[tokenId] */\n      dup6\n      dup3\n      mstore\n      dup2\n      keccak256\n        /* \"MY MainNFT/My_NFT.sol\":40570:40601  delete _allTokensIndex[tokenId] */\n      sstore\n        /* \"MY MainNFT/My_NFT.sol\":40612:40622  _allTokens */\n      0x08\n        /* \"MY MainNFT/My_NFT.sol\":40612:40628  _allTokens.pop() */\n      dup1\n      sload\n      dup1\n      tag_411\n      jumpi\n      tag_411\n      tag_412\n      jump\t// in\n    tag_411:\n      0x01\n      swap1\n      sub\n      dup2\n      dup2\n      swap1\n      0x00\n      mstore\n      keccak256(0x00, 0x20)\n      add\n      0x00\n      swap1\n      sstore\n      swap1\n      sstore\n        /* \"MY MainNFT/My_NFT.sol\":39628:40636  {... */\n      pop\n      pop\n      pop\n        /* \"MY MainNFT/My_NFT.sol\":39557:40636  function _removeTokenFromAllTokensEnumeration(uint256 tokenId) private {... */\n      pop\n      jump\t// out\n        /* \"MY MainNFT/My_NFT.sol\":37061:37282  function _addTokenToOwnerEnumeration(address to, uint256 tokenId) private {... */\n    tag_362:\n        /* \"MY MainNFT/My_NFT.sol\":37146:37160  uint256 length */\n      0x00\n        /* \"MY MainNFT/My_NFT.sol\":37163:37183  ERC721.balanceOf(to) */\n      tag_415\n        /* \"MY MainNFT/My_NFT.sol\":37180:37182  to */\n      dup4\n        /* \"MY MainNFT/My_NFT.sol\":37163:37179  ERC721.balanceOf */\n      tag_72\n        /* \"MY MainNFT/My_NFT.sol\":37163:37183  ERC721.balanceOf(to) */\n      jump\t// in\n    tag_415:\n      sub(shl(0xa0, 0x01), 0x01)\n        /* \"MY MainNFT/My_NFT.sol\":37194:37210  _ownedTokens[to] */\n      swap1\n      swap4\n      and\n      0x00\n      swap1\n      dup2\n      mstore\n        /* \"MY MainNFT/My_NFT.sol\":37194:37206  _ownedTokens */\n      0x06\n        /* \"MY MainNFT/My_NFT.sol\":37194:37210  _ownedTokens[to] */\n      0x20\n      swap1\n      dup2\n      mstore\n      0x40\n      dup1\n      dup4\n      keccak256\n        /* \"MY MainNFT/My_NFT.sol\":37194:37218  _ownedTokens[to][length] */\n      dup7\n      dup5\n      mstore\n      dup3\n      mstore\n      dup1\n      dup4\n      keccak256\n        /* \"MY MainNFT/My_NFT.sol\":37194:37228  _ownedTokens[to][length] = tokenId */\n      dup6\n      swap1\n      sstore\n        /* \"MY MainNFT/My_NFT.sol\":37239:37265  _ownedTokensIndex[tokenId] */\n      swap4\n      dup3\n      mstore\n        /* \"MY MainNFT/My_NFT.sol\":37239:37256  _ownedTokensIndex */\n      0x07\n        /* \"MY MainNFT/My_NFT.sol\":37239:37265  _ownedTokensIndex[tokenId] */\n      swap1\n      mstore\n      swap2\n      swap1\n      swap2\n      keccak256\n        /* \"MY MainNFT/My_NFT.sol\":37239:37274  _ownedTokensIndex[tokenId] = length */\n      swap2\n      swap1\n      swap2\n      sstore\n      pop\n        /* \"MY MainNFT/My_NFT.sol\":37061:37282  function _addTokenToOwnerEnumeration(address to, uint256 tokenId) private {... */\n      jump\t// out\n        /* \"#utility.yul\":14:145   */\n    tag_416:\n      not(sub(shl(0xe0, 0x01), 0x01))\n        /* \"#utility.yul\":88:120   */\n      dup2\n      and\n        /* \"#utility.yul\":78:121   */\n      dup2\n      eq\n        /* \"#utility.yul\":68:139   */\n      tag_428\n      jumpi\n        /* \"#utility.yul\":135:136   */\n      0x00\n        /* \"#utility.yul\":132:133   */\n      dup1\n        /* \"#utility.yul\":125:137   */\n      revert\n        /* \"#utility.yul\":68:139   */\n    tag_428:\n        /* \"#utility.yul\":14:145   */\n      pop\n      jump\t// out\n        /* \"#utility.yul\":150:395   */\n    tag_28:\n        /* \"#utility.yul\":208:214   */\n      0x00\n        /* \"#utility.yul\":261:263   */\n      0x20\n        /* \"#utility.yul\":249:258   */\n      dup3\n        /* \"#utility.yul\":240:247   */\n      dup5\n        /* \"#utility.yul\":236:259   */\n      sub\n        /* \"#utility.yul\":232:264   */\n      slt\n        /* \"#utility.yul\":229:281   */\n      iszero\n      tag_430\n      jumpi\n        /* \"#utility.yul\":277:278   */\n      0x00\n        /* \"#utility.yul\":274:275   */\n      dup1\n        /* \"#utility.yul\":267:279   */\n      revert\n        /* \"#utility.yul\":229:281   */\n    tag_430:\n        /* \"#utility.yul\":316:325   */\n      dup2\n        /* \"#utility.yul\":303:326   */\n      calldataload\n        /* \"#utility.yul\":335:365   */\n      tag_216\n        /* \"#utility.yul\":359:364   */\n      dup2\n        /* \"#utility.yul\":335:365   */\n      tag_416\n      jump\t// in\n        /* \"#utility.yul\":592:842   */\n    tag_417:\n        /* \"#utility.yul\":677:678   */\n      0x00\n        /* \"#utility.yul\":687:800   */\n    tag_434:\n        /* \"#utility.yul\":701:707   */\n      dup4\n        /* \"#utility.yul\":698:699   */\n      dup2\n        /* \"#utility.yul\":695:708   */\n      lt\n        /* \"#utility.yul\":687:800   */\n      iszero\n      tag_436\n      jumpi\n        /* \"#utility.yul\":777:788   */\n      dup2\n      dup2\n      add\n        /* \"#utility.yul\":771:789   */\n      mload\n        /* \"#utility.yul\":758:769   */\n      dup4\n      dup3\n      add\n        /* \"#utility.yul\":751:790   */\n      mstore\n        /* \"#utility.yul\":723:725   */\n      0x20\n        /* \"#utility.yul\":716:726   */\n      add\n        /* \"#utility.yul\":687:800   */\n      jump(tag_434)\n    tag_436:\n      pop\n      pop\n        /* \"#utility.yul\":834:835   */\n      0x00\n        /* \"#utility.yul\":816:832   */\n      swap2\n      add\n        /* \"#utility.yul\":809:836   */\n      mstore\n        /* \"#utility.yul\":592:842   */\n      jump\t// out\n        /* \"#utility.yul\":847:1118   */\n    tag_418:\n        /* \"#utility.yul\":889:892   */\n      0x00\n        /* \"#utility.yul\":927:932   */\n      dup2\n        /* \"#utility.yul\":921:933   */\n      mload\n        /* \"#utility.yul\":954:960   */\n      dup1\n        /* \"#utility.yul\":949:952   */\n      dup5\n        /* \"#utility.yul\":942:961   */\n      mstore\n        /* \"#utility.yul\":970:1046   */\n      tag_438\n        /* \"#utility.yul\":1039:1045   */\n      dup2\n        /* \"#utility.yul\":1032:1036   */\n      0x20\n        /* \"#utility.yul\":1027:1030   */\n      dup7\n        /* \"#utility.yul\":1023:1037   */\n      add\n        /* \"#utility.yul\":1016:1020   */\n      0x20\n        /* \"#utility.yul\":1009:1014   */\n      dup7\n        /* \"#utility.yul\":1005:1021   */\n      add\n        /* \"#utility.yul\":970:1046   */\n      tag_417\n      jump\t// in\n    tag_438:\n        /* \"#utility.yul\":1100:1102   */\n      0x1f\n        /* \"#utility.yul\":1079:1094   */\n      add\n      not(0x1f)\n        /* \"#utility.yul\":1075:1104   */\n      and\n        /* \"#utility.yul\":1066:1105   */\n      swap3\n      swap1\n      swap3\n      add\n        /* \"#utility.yul\":1107:1111   */\n      0x20\n        /* \"#utility.yul\":1062:1112   */\n      add\n      swap3\n        /* \"#utility.yul\":847:1118   */\n      swap2\n      pop\n      pop\n      jump\t// out\n        /* \"#utility.yul\":1123:1343   */\n    tag_35:\n        /* \"#utility.yul\":1272:1274   */\n      0x20\n        /* \"#utility.yul\":1261:1270   */\n      dup2\n        /* \"#utility.yul\":1254:1275   */\n      mstore\n        /* \"#utility.yul\":1235:1239   */\n      0x00\n        /* \"#utility.yul\":1292:1337   */\n      tag_216\n        /* \"#utility.yul\":1333:1335   */\n      0x20\n        /* \"#utility.yul\":1322:1331   */\n      dup4\n        /* \"#utility.yul\":1318:1336   */\n      add\n        /* \"#utility.yul\":1310:1316   */\n      dup5\n        /* \"#utility.yul\":1292:1337   */\n      tag_418\n      jump\t// in\n        /* \"#utility.yul\":1348:1528   */\n    tag_38:\n        /* \"#utility.yul\":1407:1413   */\n      0x00\n        /* \"#utility.yul\":1460:1462   */\n      0x20\n        /* \"#utility.yul\":1448:1457   */\n      dup3\n        /* \"#utility.yul\":1439:1446   */\n      dup5\n        /* \"#utility.yul\":1435:1458   */\n      sub\n        /* \"#utility.yul\":1431:1463   */\n      slt\n        /* \"#utility.yul\":1428:1480   */\n      iszero\n      tag_442\n      jumpi\n        /* \"#utility.yul\":1476:1477   */\n      0x00\n        /* \"#utility.yul\":1473:1474   */\n      dup1\n        /* \"#utility.yul\":1466:1478   */\n      revert\n        /* \"#utility.yul\":1428:1480   */\n    tag_442:\n      pop\n        /* \"#utility.yul\":1499:1522   */\n      calldataload\n      swap2\n        /* \"#utility.yul\":1348:1528   */\n      swap1\n      pop\n      jump\t// out\n        /* \"#utility.yul\":1741:1914   */\n    tag_419:\n        /* \"#utility.yul\":1809:1829   */\n      dup1\n      calldataload\n      sub(shl(0xa0, 0x01), 0x01)\n        /* \"#utility.yul\":1858:1889   */\n      dup2\n      and\n        /* \"#utility.yul\":1848:1890   */\n      dup2\n      eq\n        /* \"#utility.yul\":1838:1908   */\n      tag_445\n      jumpi\n        /* \"#utility.yul\":1904:1905   */\n      0x00\n        /* \"#utility.yul\":1901:1902   */\n      dup1\n        /* \"#utility.yul\":1894:1906   */\n      revert\n        /* \"#utility.yul\":1838:1908   */\n    tag_445:\n        /* \"#utility.yul\":1741:1914   */\n      swap2\n      swap1\n      pop\n      jump\t// out\n        /* \"#utility.yul\":1919:2173   */\n    tag_44:\n        /* \"#utility.yul\":1987:1993   */\n      0x00\n        /* \"#utility.yul\":1995:2001   */\n      dup1\n        /* \"#utility.yul\":2048:2050   */\n      0x40\n        /* \"#utility.yul\":2036:2045   */\n      dup4\n        /* \"#utility.yul\":2027:2034   */\n      dup6\n        /* \"#utility.yul\":2023:2046   */\n      sub\n        /* \"#utility.yul\":2019:2051   */\n      slt\n        /* \"#utility.yul\":2016:2068   */\n      iszero\n      tag_447\n      jumpi\n        /* \"#utility.yul\":2064:2065   */\n      0x00\n        /* \"#utility.yul\":2061:2062   */\n      dup1\n        /* \"#utility.yul\":2054:2066   */\n      revert\n        /* \"#utility.yul\":2016:2068   */\n    tag_447:\n        /* \"#utility.yul\":2087:2116   */\n      tag_448\n        /* \"#utility.yul\":2106:2115   */\n      dup4\n        /* \"#utility.yul\":2087:2116   */\n      tag_419\n      jump\t// in\n    tag_448:\n        /* \"#utility.yul\":2077:2116   */\n      swap5\n        /* \"#utility.yul\":2163:2165   */\n      0x20\n        /* \"#utility.yul\":2148:2166   */\n      swap4\n      swap1\n      swap4\n      add\n        /* \"#utility.yul\":2135:2167   */\n      calldataload\n      swap4\n      pop\n      pop\n      pop\n        /* \"#utility.yul\":1919:2173   */\n      jump\t// out\n        /* \"#utility.yul\":2360:2688   */\n    tag_52:\n        /* \"#utility.yul\":2437:2443   */\n      0x00\n        /* \"#utility.yul\":2445:2451   */\n      dup1\n        /* \"#utility.yul\":2453:2459   */\n      0x00\n        /* \"#utility.yul\":2506:2508   */\n      0x60\n        /* \"#utility.yul\":2494:2503   */\n      dup5\n        /* \"#utility.yul\":2485:2492   */\n      dup7\n        /* \"#utility.yul\":2481:2504   */\n      sub\n        /* \"#utility.yul\":2477:2509   */\n      slt\n        /* \"#utility.yul\":2474:2526   */\n      iszero\n      tag_451\n      jumpi\n        /* \"#utility.yul\":2522:2523   */\n      0x00\n        /* \"#utility.yul\":2519:2520   */\n      dup1\n        /* \"#utility.yul\":2512:2524   */\n      revert\n        /* \"#utility.yul\":2474:2526   */\n    tag_451:\n        /* \"#utility.yul\":2545:2574   */\n      tag_452\n        /* \"#utility.yul\":2564:2573   */\n      dup5\n        /* \"#utility.yul\":2545:2574   */\n      tag_419\n      jump\t// in\n    tag_452:\n        /* \"#utility.yul\":2535:2574   */\n      swap3\n      pop\n        /* \"#utility.yul\":2593:2631   */\n      tag_453\n        /* \"#utility.yul\":2627:2629   */\n      0x20\n        /* \"#utility.yul\":2616:2625   */\n      dup6\n        /* \"#utility.yul\":2612:2630   */\n      add\n        /* \"#utility.yul\":2593:2631   */\n      tag_419\n      jump\t// in\n    tag_453:\n        /* \"#utility.yul\":2583:2631   */\n      swap2\n      pop\n        /* \"#utility.yul\":2678:2680   */\n      0x40\n        /* \"#utility.yul\":2667:2676   */\n      dup5\n        /* \"#utility.yul\":2663:2681   */\n      add\n        /* \"#utility.yul\":2650:2682   */\n      calldataload\n        /* \"#utility.yul\":2640:2682   */\n      swap1\n      pop\n        /* \"#utility.yul\":2360:2688   */\n      swap3\n      pop\n      swap3\n      pop\n      swap3\n      jump\t// out\n        /* \"#utility.yul\":2693:2879   */\n    tag_71:\n        /* \"#utility.yul\":2752:2758   */\n      0x00\n        /* \"#utility.yul\":2805:2807   */\n      0x20\n        /* \"#utility.yul\":2793:2802   */\n      dup3\n        /* \"#utility.yul\":2784:2791   */\n      dup5\n        /* \"#utility.yul\":2780:2803   */\n      sub\n        /* \"#utility.yul\":2776:2808   */\n      slt\n        /* \"#utility.yul\":2773:2825   */\n      iszero\n      tag_455\n      jumpi\n        /* \"#utility.yul\":2821:2822   */\n      0x00\n        /* \"#utility.yul\":2818:2819   */\n      dup1\n        /* \"#utility.yul\":2811:2823   */\n      revert\n        /* \"#utility.yul\":2773:2825   */\n    tag_455:\n        /* \"#utility.yul\":2844:2873   */\n      tag_216\n        /* \"#utility.yul\":2863:2872   */\n      dup3\n        /* \"#utility.yul\":2844:2873   */\n      tag_419\n      jump\t// in\n        /* \"#utility.yul\":2884:3231   */\n    tag_84:\n        /* \"#utility.yul\":2949:2955   */\n      0x00\n        /* \"#utility.yul\":2957:2963   */\n      dup1\n        /* \"#utility.yul\":3010:3012   */\n      0x40\n        /* \"#utility.yul\":2998:3007   */\n      dup4\n        /* \"#utility.yul\":2989:2996   */\n      dup6\n        /* \"#utility.yul\":2985:3008   */\n      sub\n        /* \"#utility.yul\":2981:3013   */\n      slt\n        /* \"#utility.yul\":2978:3030   */\n      iszero\n      tag_458\n      jumpi\n        /* \"#utility.yul\":3026:3027   */\n      0x00\n        /* \"#utility.yul\":3023:3024   */\n      dup1\n        /* \"#utility.yul\":3016:3028   */\n      revert\n        /* \"#utility.yul\":2978:3030   */\n    tag_458:\n        /* \"#utility.yul\":3049:3078   */\n      tag_459\n        /* \"#utility.yul\":3068:3077   */\n      dup4\n        /* \"#utility.yul\":3049:3078   */\n      tag_419\n      jump\t// in\n    tag_459:\n        /* \"#utility.yul\":3039:3078   */\n      swap2\n      pop\n        /* \"#utility.yul\":3128:3130   */\n      0x20\n        /* \"#utility.yul\":3117:3126   */\n      dup4\n        /* \"#utility.yul\":3113:3131   */\n      add\n        /* \"#utility.yul\":3100:3132   */\n      calldataload\n        /* \"#utility.yul\":3175:3180   */\n      dup1\n        /* \"#utility.yul\":3168:3181   */\n      iszero\n        /* \"#utility.yul\":3161:3182   */\n      iszero\n        /* \"#utility.yul\":3154:3159   */\n      dup2\n        /* \"#utility.yul\":3151:3183   */\n      eq\n        /* \"#utility.yul\":3141:3201   */\n      tag_460\n      jumpi\n        /* \"#utility.yul\":3197:3198   */\n      0x00\n        /* \"#utility.yul\":3194:3195   */\n      dup1\n        /* \"#utility.yul\":3187:3199   */\n      revert\n        /* \"#utility.yul\":3141:3201   */\n    tag_460:\n        /* \"#utility.yul\":3220:3225   */\n      dup1\n        /* \"#utility.yul\":3210:3225   */\n      swap2\n      pop\n      pop\n        /* \"#utility.yul\":2884:3231   */\n      swap3\n      pop\n      swap3\n      swap1\n      pop\n      jump\t// out\n        /* \"#utility.yul\":3236:3363   */\n    tag_374:\n        /* \"#utility.yul\":3297:3307   */\n      0x4e487b71\n        /* \"#utility.yul\":3292:3295   */\n      0xe0\n        /* \"#utility.yul\":3288:3308   */\n      shl\n        /* \"#utility.yul\":3285:3286   */\n      0x00\n        /* \"#utility.yul\":3278:3309   */\n      mstore\n        /* \"#utility.yul\":3328:3332   */\n      0x41\n        /* \"#utility.yul\":3325:3326   */\n      0x04\n        /* \"#utility.yul\":3318:3333   */\n      mstore\n        /* \"#utility.yul\":3352:3356   */\n      0x24\n        /* \"#utility.yul\":3349:3350   */\n      0x00\n        /* \"#utility.yul\":3342:3357   */\n      revert\n        /* \"#utility.yul\":3368:3999   */\n    tag_420:\n        /* \"#utility.yul\":3432:3437   */\n      0x00\n        /* \"#utility.yul\":3462:3480   */\n      0xffffffffffffffff\n        /* \"#utility.yul\":3503:3505   */\n      dup1\n        /* \"#utility.yul\":3495:3501   */\n      dup5\n        /* \"#utility.yul\":3492:3506   */\n      gt\n        /* \"#utility.yul\":3489:3529   */\n      iszero\n      tag_464\n      jumpi\n        /* \"#utility.yul\":3509:3527   */\n      tag_464\n      tag_374\n      jump\t// in\n    tag_464:\n        /* \"#utility.yul\":3584:3586   */\n      0x40\n        /* \"#utility.yul\":3578:3587   */\n      mload\n        /* \"#utility.yul\":3552:3554   */\n      0x1f\n        /* \"#utility.yul\":3638:3653   */\n      dup6\n      add\n      not(0x1f)\n        /* \"#utility.yul\":3634:3658   */\n      swap1\n      dup2\n      and\n        /* \"#utility.yul\":3660:3662   */\n      0x3f\n        /* \"#utility.yul\":3630:3663   */\n      add\n        /* \"#utility.yul\":3626:3668   */\n      and\n        /* \"#utility.yul\":3614:3669   */\n      dup2\n      add\n      swap1\n        /* \"#utility.yul\":3684:3702   */\n      dup3\n      dup3\n      gt\n        /* \"#utility.yul\":3704:3726   */\n      dup2\n      dup4\n      lt\n        /* \"#utility.yul\":3681:3727   */\n      or\n        /* \"#utility.yul\":3678:3750   */\n      iszero\n      tag_466\n      jumpi\n        /* \"#utility.yul\":3730:3748   */\n      tag_466\n      tag_374\n      jump\t// in\n    tag_466:\n        /* \"#utility.yul\":3770:3780   */\n      dup2\n        /* \"#utility.yul\":3766:3768   */\n      0x40\n        /* \"#utility.yul\":3759:3781   */\n      mstore\n        /* \"#utility.yul\":3799:3805   */\n      dup1\n        /* \"#utility.yul\":3790:3805   */\n      swap4\n      pop\n        /* \"#utility.yul\":3829:3835   */\n      dup6\n        /* \"#utility.yul\":3821:3827   */\n      dup2\n        /* \"#utility.yul\":3814:3836   */\n      mstore\n        /* \"#utility.yul\":3869:3872   */\n      dup7\n        /* \"#utility.yul\":3860:3866   */\n      dup7\n        /* \"#utility.yul\":3855:3858   */\n      dup7\n        /* \"#utility.yul\":3851:3867   */\n      add\n        /* \"#utility.yul\":3848:3873   */\n      gt\n        /* \"#utility.yul\":3845:3890   */\n      iszero\n      tag_467\n      jumpi\n        /* \"#utility.yul\":3886:3887   */\n      0x00\n        /* \"#utility.yul\":3883:3884   */\n      dup1\n        /* \"#utility.yul\":3876:3888   */\n      revert\n        /* \"#utility.yul\":3845:3890   */\n    tag_467:\n        /* \"#utility.yul\":3936:3942   */\n      dup6\n        /* \"#utility.yul\":3931:3934   */\n      dup6\n        /* \"#utility.yul\":3924:3928   */\n      0x20\n        /* \"#utility.yul\":3916:3922   */\n      dup4\n        /* \"#utility.yul\":3912:3929   */\n      add\n        /* \"#utility.yul\":3899:3943   */\n      calldatacopy\n        /* \"#utility.yul\":3991:3992   */\n      0x00\n        /* \"#utility.yul\":3984:3988   */\n      0x20\n        /* \"#utility.yul\":3975:3981   */\n      dup8\n        /* \"#utility.yul\":3967:3973   */\n      dup4\n        /* \"#utility.yul\":3963:3982   */\n      add\n        /* \"#utility.yul\":3959:3989   */\n      add\n        /* \"#utility.yul\":3952:3993   */\n      mstore\n      pop\n      pop\n      pop\n        /* \"#utility.yul\":3368:3999   */\n      swap4\n      swap3\n      pop\n      pop\n      pop\n      jump\t// out\n        /* \"#utility.yul\":4004:4670   */\n    tag_88:\n        /* \"#utility.yul\":4099:4105   */\n      0x00\n        /* \"#utility.yul\":4107:4113   */\n      dup1\n        /* \"#utility.yul\":4115:4121   */\n      0x00\n        /* \"#utility.yul\":4123:4129   */\n      dup1\n        /* \"#utility.yul\":4176:4179   */\n      0x80\n        /* \"#utility.yul\":4164:4173   */\n      dup6\n        /* \"#utility.yul\":4155:4162   */\n      dup8\n        /* \"#utility.yul\":4151:4174   */\n      sub\n        /* \"#utility.yul\":4147:4180   */\n      slt\n        /* \"#utility.yul\":4144:4197   */\n      iszero\n      tag_469\n      jumpi\n        /* \"#utility.yul\":4193:4194   */\n      0x00\n        /* \"#utility.yul\":4190:4191   */\n      dup1\n        /* \"#utility.yul\":4183:4195   */\n      revert\n        /* \"#utility.yul\":4144:4197   */\n    tag_469:\n        /* \"#utility.yul\":4216:4245   */\n      tag_470\n        /* \"#utility.yul\":4235:4244   */\n      dup6\n        /* \"#utility.yul\":4216:4245   */\n      tag_419\n      jump\t// in\n    tag_470:\n        /* \"#utility.yul\":4206:4245   */\n      swap4\n      pop\n        /* \"#utility.yul\":4264:4302   */\n      tag_471\n        /* \"#utility.yul\":4298:4300   */\n      0x20\n        /* \"#utility.yul\":4287:4296   */\n      dup7\n        /* \"#utility.yul\":4283:4301   */\n      add\n        /* \"#utility.yul\":4264:4302   */\n      tag_419\n      jump\t// in\n    tag_471:\n        /* \"#utility.yul\":4254:4302   */\n      swap3\n      pop\n        /* \"#utility.yul\":4349:4351   */\n      0x40\n        /* \"#utility.yul\":4338:4347   */\n      dup6\n        /* \"#utility.yul\":4334:4352   */\n      add\n        /* \"#utility.yul\":4321:4353   */\n      calldataload\n        /* \"#utility.yul\":4311:4353   */\n      swap2\n      pop\n        /* \"#utility.yul\":4404:4406   */\n      0x60\n        /* \"#utility.yul\":4393:4402   */\n      dup6\n        /* \"#utility.yul\":4389:4407   */\n      add\n        /* \"#utility.yul\":4376:4408   */\n      calldataload\n        /* \"#utility.yul\":4431:4449   */\n      0xffffffffffffffff\n        /* \"#utility.yul\":4423:4429   */\n      dup2\n        /* \"#utility.yul\":4420:4450   */\n      gt\n        /* \"#utility.yul\":4417:4467   */\n      iszero\n      tag_472\n      jumpi\n        /* \"#utility.yul\":4463:4464   */\n      0x00\n        /* \"#utility.yul\":4460:4461   */\n      dup1\n        /* \"#utility.yul\":4453:4465   */\n      revert\n        /* \"#utility.yul\":4417:4467   */\n    tag_472:\n        /* \"#utility.yul\":4486:4508   */\n      dup6\n      add\n        /* \"#utility.yul\":4539:4543   */\n      0x1f\n        /* \"#utility.yul\":4531:4544   */\n      dup2\n      add\n        /* \"#utility.yul\":4527:4554   */\n      dup8\n      sgt\n        /* \"#utility.yul\":4517:4572   */\n      tag_473\n      jumpi\n        /* \"#utility.yul\":4568:4569   */\n      0x00\n        /* \"#utility.yul\":4565:4566   */\n      dup1\n        /* \"#utility.yul\":4558:4570   */\n      revert\n        /* \"#utility.yul\":4517:4572   */\n    tag_473:\n        /* \"#utility.yul\":4591:4664   */\n      tag_474\n        /* \"#utility.yul\":4656:4663   */\n      dup8\n        /* \"#utility.yul\":4651:4653   */\n      dup3\n        /* \"#utility.yul\":4638:4654   */\n      calldataload\n        /* \"#utility.yul\":4633:4635   */\n      0x20\n        /* \"#utility.yul\":4629:4631   */\n      dup5\n        /* \"#utility.yul\":4625:4636   */\n      add\n        /* \"#utility.yul\":4591:4664   */\n      tag_420\n      jump\t// in\n    tag_474:\n        /* \"#utility.yul\":4581:4664   */\n      swap2\n      pop\n      pop\n        /* \"#utility.yul\":4004:4670   */\n      swap3\n      swap6\n      swap2\n      swap5\n      pop\n      swap3\n      pop\n      jump\t// out\n        /* \"#utility.yul\":4675:5199   */\n    tag_96:\n        /* \"#utility.yul\":4753:4759   */\n      0x00\n        /* \"#utility.yul\":4761:4767   */\n      dup1\n        /* \"#utility.yul\":4814:4816   */\n      0x40\n        /* \"#utility.yul\":4802:4811   */\n      dup4\n        /* \"#utility.yul\":4793:4800   */\n      dup6\n        /* \"#utility.yul\":4789:4812   */\n      sub\n        /* \"#utility.yul\":4785:4817   */\n      slt\n        /* \"#utility.yul\":4782:4834   */\n      iszero\n      tag_476\n      jumpi\n        /* \"#utility.yul\":4830:4831   */\n      0x00\n        /* \"#utility.yul\":4827:4828   */\n      dup1\n        /* \"#utility.yul\":4820:4832   */\n      revert\n        /* \"#utility.yul\":4782:4834   */\n    tag_476:\n        /* \"#utility.yul\":4853:4882   */\n      tag_477\n        /* \"#utility.yul\":4872:4881   */\n      dup4\n        /* \"#utility.yul\":4853:4882   */\n      tag_419\n      jump\t// in\n    tag_477:\n        /* \"#utility.yul\":4843:4882   */\n      swap2\n      pop\n        /* \"#utility.yul\":4933:4935   */\n      0x20\n        /* \"#utility.yul\":4922:4931   */\n      dup4\n        /* \"#utility.yul\":4918:4936   */\n      add\n        /* \"#utility.yul\":4905:4937   */\n      calldataload\n        /* \"#utility.yul\":4960:4978   */\n      0xffffffffffffffff\n        /* \"#utility.yul\":4952:4958   */\n      dup2\n        /* \"#utility.yul\":4949:4979   */\n      gt\n        /* \"#utility.yul\":4946:4996   */\n      iszero\n      tag_478\n      jumpi\n        /* \"#utility.yul\":4992:4993   */\n      0x00\n        /* \"#utility.yul\":4989:4990   */\n      dup1\n        /* \"#utility.yul\":4982:4994   */\n      revert\n        /* \"#utility.yul\":4946:4996   */\n    tag_478:\n        /* \"#utility.yul\":5015:5037   */\n      dup4\n      add\n        /* \"#utility.yul\":5068:5072   */\n      0x1f\n        /* \"#utility.yul\":5060:5073   */\n      dup2\n      add\n        /* \"#utility.yul\":5056:5083   */\n      dup6\n      sgt\n        /* \"#utility.yul\":5046:5101   */\n      tag_479\n      jumpi\n        /* \"#utility.yul\":5097:5098   */\n      0x00\n        /* \"#utility.yul\":5094:5095   */\n      dup1\n        /* \"#utility.yul\":5087:5099   */\n      revert\n        /* \"#utility.yul\":5046:5101   */\n    tag_479:\n        /* \"#utility.yul\":5120:5193   */\n      tag_480\n        /* \"#utility.yul\":5185:5192   */\n      dup6\n        /* \"#utility.yul\":5180:5182   */\n      dup3\n        /* \"#utility.yul\":5167:5183   */\n      calldataload\n        /* \"#utility.yul\":5162:5164   */\n      0x20\n        /* \"#utility.yul\":5158:5160   */\n      dup5\n        /* \"#utility.yul\":5154:5165   */\n      add\n        /* \"#utility.yul\":5120:5193   */\n      tag_420\n      jump\t// in\n    tag_480:\n        /* \"#utility.yul\":5110:5193   */\n      swap2\n      pop\n      pop\n        /* \"#utility.yul\":4675:5199   */\n      swap3\n      pop\n      swap3\n      swap1\n      pop\n      jump\t// out\n        /* \"#utility.yul\":5204:5464   */\n    tag_101:\n        /* \"#utility.yul\":5272:5278   */\n      0x00\n        /* \"#utility.yul\":5280:5286   */\n      dup1\n        /* \"#utility.yul\":5333:5335   */\n      0x40\n        /* \"#utility.yul\":5321:5330   */\n      dup4\n        /* \"#utility.yul\":5312:5319   */\n      dup6\n        /* \"#utility.yul\":5308:5331   */\n      sub\n        /* \"#utility.yul\":5304:5336   */\n      slt\n        /* \"#utility.yul\":5301:5353   */\n      iszero\n      tag_482\n      jumpi\n        /* \"#utility.yul\":5349:5350   */\n      0x00\n        /* \"#utility.yul\":5346:5347   */\n      dup1\n        /* \"#utility.yul\":5339:5351   */\n      revert\n        /* \"#utility.yul\":5301:5353   */\n    tag_482:\n        /* \"#utility.yul\":5372:5401   */\n      tag_483\n        /* \"#utility.yul\":5391:5400   */\n      dup4\n        /* \"#utility.yul\":5372:5401   */\n      tag_419\n      jump\t// in\n    tag_483:\n        /* \"#utility.yul\":5362:5401   */\n      swap2\n      pop\n        /* \"#utility.yul\":5420:5458   */\n      tag_484\n        /* \"#utility.yul\":5454:5456   */\n      0x20\n        /* \"#utility.yul\":5443:5452   */\n      dup5\n        /* \"#utility.yul\":5439:5457   */\n      add\n        /* \"#utility.yul\":5420:5458   */\n      tag_419\n      jump\t// in\n    tag_484:\n        /* \"#utility.yul\":5410:5458   */\n      swap1\n      pop\n        /* \"#utility.yul\":5204:5464   */\n      swap3\n      pop\n      swap3\n      swap1\n      pop\n      jump\t// out\n        /* \"#utility.yul\":5469:5849   */\n    tag_112:\n        /* \"#utility.yul\":5548:5549   */\n      0x01\n        /* \"#utility.yul\":5544:5556   */\n      dup2\n      dup2\n      shr\n      swap1\n        /* \"#utility.yul\":5591:5603   */\n      dup3\n      and\n      dup1\n        /* \"#utility.yul\":5612:5673   */\n      tag_486\n      jumpi\n        /* \"#utility.yul\":5666:5670   */\n      0x7f\n        /* \"#utility.yul\":5658:5664   */\n      dup3\n        /* \"#utility.yul\":5654:5671   */\n      and\n        /* \"#utility.yul\":5644:5671   */\n      swap2\n      pop\n        /* \"#utility.yul\":5612:5673   */\n    tag_486:\n        /* \"#utility.yul\":5719:5721   */\n      0x20\n        /* \"#utility.yul\":5711:5717   */\n      dup3\n        /* \"#utility.yul\":5708:5722   */\n      lt\n        /* \"#utility.yul\":5688:5706   */\n      dup2\n        /* \"#utility.yul\":5685:5723   */\n      sub\n        /* \"#utility.yul\":5682:5843   */\n      tag_487\n      jumpi\n        /* \"#utility.yul\":5765:5775   */\n      0x4e487b71\n        /* \"#utility.yul\":5760:5763   */\n      0xe0\n        /* \"#utility.yul\":5756:5776   */\n      shl\n        /* \"#utility.yul\":5753:5754   */\n      0x00\n        /* \"#utility.yul\":5746:5777   */\n      mstore\n        /* \"#utility.yul\":5800:5804   */\n      0x22\n        /* \"#utility.yul\":5797:5798   */\n      0x04\n        /* \"#utility.yul\":5790:5805   */\n      mstore\n        /* \"#utility.yul\":5828:5832   */\n      0x24\n        /* \"#utility.yul\":5825:5826   */\n      0x00\n        /* \"#utility.yul\":5818:5833   */\n      revert\n        /* \"#utility.yul\":5682:5843   */\n    tag_487:\n      pop\n        /* \"#utility.yul\":5469:5849   */\n      swap2\n      swap1\n      pop\n      jump\t// out\n        /* \"#utility.yul\":7094:7507   */\n    tag_145:\n        /* \"#utility.yul\":7296:7298   */\n      0x20\n        /* \"#utility.yul\":7278:7299   */\n      dup1\n      dup3\n      mstore\n        /* \"#utility.yul\":7335:7337   */\n      0x31\n        /* \"#utility.yul\":7315:7333   */\n      swap1\n      dup3\n      add\n        /* \"#utility.yul\":7308:7338   */\n      mstore\n        /* \"#utility.yul\":7374:7408   */\n      0x4552433732313a207472616e736665722063616c6c6572206973206e6f74206f\n        /* \"#utility.yul\":7369:7371   */\n      0x40\n        /* \"#utility.yul\":7354:7372   */\n      dup3\n      add\n        /* \"#utility.yul\":7347:7409   */\n      mstore\n      shl(0x7a, 0x1ddb995c881b9bdc88185c1c1c9bdd9959)\n        /* \"#utility.yul\":7440:7442   */\n      0x60\n        /* \"#utility.yul\":7425:7443   */\n      dup3\n      add\n        /* \"#utility.yul\":7418:7465   */\n      mstore\n        /* \"#utility.yul\":7497:7500   */\n      0x80\n        /* \"#utility.yul\":7482:7501   */\n      add\n      swap1\n        /* \"#utility.yul\":7094:7507   */\n      jump\t// out\n        /* \"#utility.yul\":8337:8464   */\n    tag_162:\n        /* \"#utility.yul\":8398:8408   */\n      0x4e487b71\n        /* \"#utility.yul\":8393:8396   */\n      0xe0\n        /* \"#utility.yul\":8389:8409   */\n      shl\n        /* \"#utility.yul\":8386:8387   */\n      0x00\n        /* \"#utility.yul\":8379:8410   */\n      mstore\n        /* \"#utility.yul\":8429:8433   */\n      0x32\n        /* \"#utility.yul\":8426:8427   */\n      0x04\n        /* \"#utility.yul\":8419:8434   */\n      mstore\n        /* \"#utility.yul\":8453:8457   */\n      0x24\n        /* \"#utility.yul\":8450:8451   */\n      0x00\n        /* \"#utility.yul\":8443:8458   */\n      revert\n        /* \"#utility.yul\":9290:9646   */\n    tag_177:\n        /* \"#utility.yul\":9492:9494   */\n      0x20\n        /* \"#utility.yul\":9474:9495   */\n      dup1\n      dup3\n      mstore\n        /* \"#utility.yul\":9511:9529   */\n      dup2\n      dup2\n      add\n        /* \"#utility.yul\":9504:9534   */\n      mstore\n        /* \"#utility.yul\":9570:9604   */\n      0x4f776e61626c653a2063616c6c6572206973206e6f7420746865206f776e6572\n        /* \"#utility.yul\":9565:9567   */\n      0x40\n        /* \"#utility.yul\":9550:9568   */\n      dup3\n      add\n        /* \"#utility.yul\":9543:9605   */\n      mstore\n        /* \"#utility.yul\":9637:9639   */\n      0x60\n        /* \"#utility.yul\":9622:9640   */\n      add\n      swap1\n        /* \"#utility.yul\":9290:9646   */\n      jump\t// out\n        /* \"#utility.yul\":11640:11767   */\n    tag_421:\n        /* \"#utility.yul\":11701:11711   */\n      0x4e487b71\n        /* \"#utility.yul\":11696:11699   */\n      0xe0\n        /* \"#utility.yul\":11692:11712   */\n      shl\n        /* \"#utility.yul\":11689:11690   */\n      0x00\n        /* \"#utility.yul\":11682:11713   */\n      mstore\n        /* \"#utility.yul\":11732:11736   */\n      0x11\n        /* \"#utility.yul\":11729:11730   */\n      0x04\n        /* \"#utility.yul\":11722:11737   */\n      mstore\n        /* \"#utility.yul\":11756:11760   */\n      0x24\n        /* \"#utility.yul\":11753:11754   */\n      0x00\n        /* \"#utility.yul\":11746:11761   */\n      revert\n        /* \"#utility.yul\":11772:11900   */\n    tag_258:\n        /* \"#utility.yul\":11839:11848   */\n      dup2\n      dup2\n      sub\n        /* \"#utility.yul\":11860:11871   */\n      dup2\n      dup2\n      gt\n        /* \"#utility.yul\":11857:11894   */\n      iszero\n      tag_108\n      jumpi\n        /* \"#utility.yul\":11874:11892   */\n      tag_108\n      tag_421\n      jump\t// in\n        /* \"#utility.yul\":11905:12030   */\n    tag_260:\n        /* \"#utility.yul\":11970:11979   */\n      dup1\n      dup3\n      add\n        /* \"#utility.yul\":11991:12001   */\n      dup1\n      dup3\n      gt\n        /* \"#utility.yul\":11988:12024   */\n      iszero\n      tag_108\n      jumpi\n        /* \"#utility.yul\":12004:12022   */\n      tag_108\n      tag_421\n      jump\t// in\n        /* \"#utility.yul\":12035:12449   */\n    tag_267:\n        /* \"#utility.yul\":12237:12239   */\n      0x20\n        /* \"#utility.yul\":12219:12240   */\n      dup1\n      dup3\n      mstore\n        /* \"#utility.yul\":12276:12278   */\n      0x32\n        /* \"#utility.yul\":12256:12274   */\n      swap1\n      dup3\n      add\n        /* \"#utility.yul\":12249:12279   */\n      mstore\n        /* \"#utility.yul\":12315:12349   */\n      0x4552433732313a207472616e7366657220746f206e6f6e204552433732315265\n        /* \"#utility.yul\":12310:12312   */\n      0x40\n        /* \"#utility.yul\":12295:12313   */\n      dup3\n      add\n        /* \"#utility.yul\":12288:12350   */\n      mstore\n      shl(0x71, 0x31b2b4bb32b91034b6b83632b6b2b73a32b9)\n        /* \"#utility.yul\":12381:12383   */\n      0x60\n        /* \"#utility.yul\":12366:12384   */\n      dup3\n      add\n        /* \"#utility.yul\":12359:12407   */\n      mstore\n        /* \"#utility.yul\":12439:12442   */\n      0x80\n        /* \"#utility.yul\":12424:12443   */\n      add\n      swap1\n        /* \"#utility.yul\":12035:12449   */\n      jump\t// out\n        /* \"#utility.yul\":12872:13368   */\n    tag_283:\n        /* \"#utility.yul\":13051:13054   */\n      0x00\n        /* \"#utility.yul\":13089:13095   */\n      dup4\n        /* \"#utility.yul\":13083:13096   */\n      mload\n        /* \"#utility.yul\":13105:13171   */\n      tag_513\n        /* \"#utility.yul\":13164:13170   */\n      dup2\n        /* \"#utility.yul\":13159:13162   */\n      dup5\n        /* \"#utility.yul\":13152:13156   */\n      0x20\n        /* \"#utility.yul\":13144:13150   */\n      dup9\n        /* \"#utility.yul\":13140:13157   */\n      add\n        /* \"#utility.yul\":13105:13171   */\n      tag_417\n      jump\t// in\n    tag_513:\n        /* \"#utility.yul\":13234:13247   */\n      dup4\n      mload\n        /* \"#utility.yul\":13193:13209   */\n      swap1\n      dup4\n      add\n      swap1\n        /* \"#utility.yul\":13256:13326   */\n      tag_514\n        /* \"#utility.yul\":13234:13247   */\n      dup2\n        /* \"#utility.yul\":13193:13209   */\n      dup4\n        /* \"#utility.yul\":13303:13307   */\n      0x20\n        /* \"#utility.yul\":13291:13308   */\n      dup9\n      add\n        /* \"#utility.yul\":13256:13326   */\n      tag_417\n      jump\t// in\n    tag_514:\n        /* \"#utility.yul\":13342:13362   */\n      add\n      swap5\n        /* \"#utility.yul\":12872:13368   */\n      swap4\n      pop\n      pop\n      pop\n      pop\n      jump\t// out\n        /* \"#utility.yul\":13914:14459   */\n    tag_423:\n        /* \"#utility.yul\":14016:14018   */\n      0x1f\n        /* \"#utility.yul\":14011:14014   */\n      dup3\n        /* \"#utility.yul\":14008:14019   */\n      gt\n        /* \"#utility.yul\":14005:14453   */\n      iszero\n      tag_136\n      jumpi\n        /* \"#utility.yul\":14052:14053   */\n      0x00\n        /* \"#utility.yul\":14077:14082   */\n      dup2\n        /* \"#utility.yul\":14073:14075   */\n      dup2\n        /* \"#utility.yul\":14066:14083   */\n      mstore\n        /* \"#utility.yul\":14122:14126   */\n      0x20\n        /* \"#utility.yul\":14118:14120   */\n      dup2\n        /* \"#utility.yul\":14108:14127   */\n      keccak256\n        /* \"#utility.yul\":14192:14194   */\n      0x1f\n        /* \"#utility.yul\":14180:14190   */\n      dup6\n        /* \"#utility.yul\":14176:14195   */\n      add\n        /* \"#utility.yul\":14173:14174   */\n      0x05\n        /* \"#utility.yul\":14169:14196   */\n      shr\n        /* \"#utility.yul\":14163:14167   */\n      dup2\n        /* \"#utility.yul\":14159:14197   */\n      add\n        /* \"#utility.yul\":14228:14232   */\n      0x20\n        /* \"#utility.yul\":14216:14226   */\n      dup7\n        /* \"#utility.yul\":14213:14233   */\n      lt\n        /* \"#utility.yul\":14210:14257   */\n      iszero\n      tag_519\n      jumpi\n      pop\n        /* \"#utility.yul\":14251:14255   */\n      dup1\n        /* \"#utility.yul\":14210:14257   */\n    tag_519:\n        /* \"#utility.yul\":14306:14308   */\n      0x1f\n        /* \"#utility.yul\":14301:14304   */\n      dup6\n        /* \"#utility.yul\":14297:14309   */\n      add\n        /* \"#utility.yul\":14294:14295   */\n      0x05\n        /* \"#utility.yul\":14290:14310   */\n      shr\n        /* \"#utility.yul\":14284:14288   */\n      dup3\n        /* \"#utility.yul\":14280:14311   */\n      add\n        /* \"#utility.yul\":14270:14311   */\n      swap2\n      pop\n        /* \"#utility.yul\":14361:14443   */\n    tag_520:\n        /* \"#utility.yul\":14379:14381   */\n      dup2\n        /* \"#utility.yul\":14372:14377   */\n      dup2\n        /* \"#utility.yul\":14369:14382   */\n      lt\n        /* \"#utility.yul\":14361:14443   */\n      iszero\n      tag_522\n      jumpi\n        /* \"#utility.yul\":14424:14441   */\n      dup3\n      dup2\n      sstore\n        /* \"#utility.yul\":14405:14406   */\n      0x01\n        /* \"#utility.yul\":14394:14407   */\n      add\n        /* \"#utility.yul\":14361:14443   */\n      jump(tag_520)\n    tag_522:\n        /* \"#utility.yul\":14365:14368   */\n      pop\n      pop\n      pop\n        /* \"#utility.yul\":13914:14459   */\n      pop\n      pop\n      pop\n      jump\t// out\n        /* \"#utility.yul\":14635:15987   */\n    tag_297:\n        /* \"#utility.yul\":14761:14764   */\n      dup2\n        /* \"#utility.yul\":14755:14765   */\n      mload\n        /* \"#utility.yul\":14788:14806   */\n      0xffffffffffffffff\n        /* \"#utility.yul\":14780:14786   */\n      dup2\n        /* \"#utility.yul\":14777:14807   */\n      gt\n        /* \"#utility.yul\":14774:14830   */\n      iszero\n      tag_526\n      jumpi\n        /* \"#utility.yul\":14810:14828   */\n      tag_526\n      tag_374\n      jump\t// in\n    tag_526:\n        /* \"#utility.yul\":14839:14936   */\n      tag_527\n        /* \"#utility.yul\":14929:14935   */\n      dup2\n        /* \"#utility.yul\":14889:14927   */\n      tag_528\n        /* \"#utility.yul\":14921:14925   */\n      dup5\n        /* \"#utility.yul\":14915:14926   */\n      sload\n        /* \"#utility.yul\":14889:14927   */\n      tag_112\n      jump\t// in\n    tag_528:\n        /* \"#utility.yul\":14883:14887   */\n      dup5\n        /* \"#utility.yul\":14839:14936   */\n      tag_423\n      jump\t// in\n    tag_527:\n        /* \"#utility.yul\":14991:14995   */\n      0x20\n      dup1\n        /* \"#utility.yul\":15055:15057   */\n      0x1f\n        /* \"#utility.yul\":15044:15058   */\n      dup4\n      gt\n        /* \"#utility.yul\":15072:15073   */\n      0x01\n        /* \"#utility.yul\":15067:15730   */\n      dup2\n      eq\n      tag_530\n      jumpi\n        /* \"#utility.yul\":15774:15775   */\n      0x00\n        /* \"#utility.yul\":15791:15797   */\n      dup5\n        /* \"#utility.yul\":15788:15877   */\n      iszero\n      tag_531\n      jumpi\n      pop\n        /* \"#utility.yul\":15843:15862   */\n      dup6\n      dup4\n      add\n        /* \"#utility.yul\":15837:15863   */\n      mload\n        /* \"#utility.yul\":15788:15877   */\n    tag_531:\n      not(0x00)\n        /* \"#utility.yul\":14592:14593   */\n      0x03\n        /* \"#utility.yul\":14588:14599   */\n      dup7\n      swap1\n      shl\n        /* \"#utility.yul\":14584:14608   */\n      shr\n        /* \"#utility.yul\":14580:14609   */\n      not\n        /* \"#utility.yul\":14570:14610   */\n      and\n        /* \"#utility.yul\":14616:14617   */\n      0x01\n        /* \"#utility.yul\":14612:14623   */\n      dup6\n      swap1\n      shl\n        /* \"#utility.yul\":14567:14624   */\n      or\n        /* \"#utility.yul\":15890:15971   */\n      dup6\n      sstore\n        /* \"#utility.yul\":15037:15981   */\n      jump(tag_522)\n        /* \"#utility.yul\":15067:15730   */\n    tag_530:\n        /* \"#utility.yul\":13861:13862   */\n      0x00\n        /* \"#utility.yul\":13854:13868   */\n      dup6\n      dup2\n      mstore\n        /* \"#utility.yul\":13898:13902   */\n      0x20\n        /* \"#utility.yul\":13885:13903   */\n      dup2\n      keccak256\n      not(0x1f)\n        /* \"#utility.yul\":15103:15123   */\n      dup7\n      and\n      swap2\n        /* \"#utility.yul\":15221:15457   */\n    tag_534:\n        /* \"#utility.yul\":15235:15242   */\n      dup3\n        /* \"#utility.yul\":15232:15233   */\n      dup2\n        /* \"#utility.yul\":15229:15243   */\n      lt\n        /* \"#utility.yul\":15221:15457   */\n      iszero\n      tag_536\n      jumpi\n        /* \"#utility.yul\":15324:15343   */\n      dup9\n      dup7\n      add\n        /* \"#utility.yul\":15318:15344   */\n      mload\n        /* \"#utility.yul\":15303:15345   */\n      dup3\n      sstore\n        /* \"#utility.yul\":15416:15443   */\n      swap5\n      dup5\n      add\n      swap5\n        /* \"#utility.yul\":15384:15385   */\n      0x01\n        /* \"#utility.yul\":15372:15386   */\n      swap1\n      swap2\n      add\n      swap1\n        /* \"#utility.yul\":15251:15270   */\n      dup5\n      add\n        /* \"#utility.yul\":15221:15457   */\n      jump(tag_534)\n    tag_536:\n        /* \"#utility.yul\":15225:15228   */\n      pop\n        /* \"#utility.yul\":15485:15491   */\n      dup6\n        /* \"#utility.yul\":15476:15483   */\n      dup3\n        /* \"#utility.yul\":15473:15492   */\n      lt\n        /* \"#utility.yul\":15470:15671   */\n      iszero\n      tag_537\n      jumpi\n        /* \"#utility.yul\":15546:15565   */\n      dup8\n      dup6\n      add\n        /* \"#utility.yul\":15540:15566   */\n      mload\n      not(0x00)\n        /* \"#utility.yul\":15629:15630   */\n      0x03\n        /* \"#utility.yul\":15625:15639   */\n      dup9\n      swap1\n      shl\n        /* \"#utility.yul\":15641:15644   */\n      0xf8\n        /* \"#utility.yul\":15621:15645   */\n      and\n        /* \"#utility.yul\":15617:15654   */\n      shr\n        /* \"#utility.yul\":15613:15655   */\n      not\n        /* \"#utility.yul\":15598:15656   */\n      and\n        /* \"#utility.yul\":15583:15657   */\n      dup2\n      sstore\n        /* \"#utility.yul\":15470:15671   */\n    tag_537:\n      pop\n      pop\n      pop\n      pop\n      pop\n        /* \"#utility.yul\":15717:15718   */\n      0x01\n        /* \"#utility.yul\":15701:15715   */\n      swap1\n      dup2\n      shl\n        /* \"#utility.yul\":15697:15719   */\n      add\n        /* \"#utility.yul\":15684:15720   */\n      swap1\n      sstore\n      pop\n        /* \"#utility.yul\":14635:15987   */\n      jump\t// out\n        /* \"#utility.yul\":15992:16481   */\n    tag_312:\n      sub(shl(0xa0, 0x01), 0x01)\n        /* \"#utility.yul\":16261:16276   */\n      dup6\n      dup2\n      and\n        /* \"#utility.yul\":16243:16277   */\n      dup3\n      mstore\n        /* \"#utility.yul\":16313:16328   */\n      dup5\n      and\n        /* \"#utility.yul\":16308:16310   */\n      0x20\n        /* \"#utility.yul\":16293:16311   */\n      dup3\n      add\n        /* \"#utility.yul\":16286:16329   */\n      mstore\n        /* \"#utility.yul\":16360:16362   */\n      0x40\n        /* \"#utility.yul\":16345:16363   */\n      dup2\n      add\n        /* \"#utility.yul\":16338:16372   */\n      dup4\n      swap1\n      mstore\n        /* \"#utility.yul\":16408:16411   */\n      0x80\n        /* \"#utility.yul\":16403:16405   */\n      0x60\n        /* \"#utility.yul\":16388:16406   */\n      dup3\n      add\n        /* \"#utility.yul\":16381:16412   */\n      dup2\n      swap1\n      mstore\n        /* \"#utility.yul\":16186:16190   */\n      0x00\n      swap1\n        /* \"#utility.yul\":16429:16475   */\n      tag_539\n      swap1\n        /* \"#utility.yul\":16455:16474   */\n      dup4\n      add\n        /* \"#utility.yul\":16447:16453   */\n      dup5\n        /* \"#utility.yul\":16429:16475   */\n      tag_418\n      jump\t// in\n    tag_539:\n        /* \"#utility.yul\":16421:16475   */\n      swap7\n        /* \"#utility.yul\":15992:16481   */\n      swap6\n      pop\n      pop\n      pop\n      pop\n      pop\n      pop\n      jump\t// out\n        /* \"#utility.yul\":16486:16735   */\n    tag_315:\n        /* \"#utility.yul\":16555:16561   */\n      0x00\n        /* \"#utility.yul\":16608:16610   */\n      0x20\n        /* \"#utility.yul\":16596:16605   */\n      dup3\n        /* \"#utility.yul\":16587:16594   */\n      dup5\n        /* \"#utility.yul\":16583:16606   */\n      sub\n        /* \"#utility.yul\":16579:16611   */\n      slt\n        /* \"#utility.yul\":16576:16628   */\n      iszero\n      tag_541\n      jumpi\n        /* \"#utility.yul\":16624:16625   */\n      0x00\n        /* \"#utility.yul\":16621:16622   */\n      dup1\n        /* \"#utility.yul\":16614:16626   */\n      revert\n        /* \"#utility.yul\":16576:16628   */\n    tag_541:\n        /* \"#utility.yul\":16656:16665   */\n      dup2\n        /* \"#utility.yul\":16650:16666   */\n      mload\n        /* \"#utility.yul\":16675:16705   */\n      tag_216\n        /* \"#utility.yul\":16699:16704   */\n      dup2\n        /* \"#utility.yul\":16675:16705   */\n      tag_416\n      jump\t// in\n        /* \"#utility.yul\":17156:17291   */\n    tag_369:\n        /* \"#utility.yul\":17195:17198   */\n      0x00\n        /* \"#utility.yul\":17216:17233   */\n      0x01\n      dup3\n      add\n        /* \"#utility.yul\":17213:17256   */\n      tag_546\n      jumpi\n        /* \"#utility.yul\":17236:17254   */\n      tag_546\n      tag_421\n      jump\t// in\n    tag_546:\n      pop\n        /* \"#utility.yul\":17283:17284   */\n      0x01\n        /* \"#utility.yul\":17272:17285   */\n      add\n      swap1\n        /* \"#utility.yul\":17156:17291   */\n      jump\t// out\n        /* \"#utility.yul\":17296:17423   */\n    tag_425:\n        /* \"#utility.yul\":17357:17367   */\n      0x4e487b71\n        /* \"#utility.yul\":17352:17355   */\n      0xe0\n        /* \"#utility.yul\":17348:17368   */\n      shl\n        /* \"#utility.yul\":17345:17346   */\n      0x00\n        /* \"#utility.yul\":17338:17369   */\n      mstore\n        /* \"#utility.yul\":17388:17392   */\n      0x12\n        /* \"#utility.yul\":17385:17386   */\n      0x04\n        /* \"#utility.yul\":17378:17393   */\n      mstore\n        /* \"#utility.yul\":17412:17416   */\n      0x24\n        /* \"#utility.yul\":17409:17410   */\n      0x00\n        /* \"#utility.yul\":17402:17417   */\n      revert\n        /* \"#utility.yul\":17428:17548   */\n    tag_371:\n        /* \"#utility.yul\":17468:17469   */\n      0x00\n        /* \"#utility.yul\":17494:17495   */\n      dup3\n        /* \"#utility.yul\":17484:17519   */\n      tag_550\n      jumpi\n        /* \"#utility.yul\":17499:17517   */\n      tag_550\n      tag_425\n      jump\t// in\n    tag_550:\n      pop\n        /* \"#utility.yul\":17533:17542   */\n      div\n      swap1\n        /* \"#utility.yul\":17428:17548   */\n      jump\t// out\n        /* \"#utility.yul\":17553:17665   */\n    tag_380:\n        /* \"#utility.yul\":17585:17586   */\n      0x00\n        /* \"#utility.yul\":17611:17612   */\n      dup3\n        /* \"#utility.yul\":17601:17636   */\n      tag_553\n      jumpi\n        /* \"#utility.yul\":17616:17634   */\n      tag_553\n      tag_425\n      jump\t// in\n    tag_553:\n      pop\n        /* \"#utility.yul\":17650:17659   */\n      mod\n      swap1\n        /* \"#utility.yul\":17553:17665   */\n      jump\t// out\n        /* \"#utility.yul\":18388:18515   */\n    tag_412:\n        /* \"#utility.yul\":18449:18459   */\n      0x4e487b71\n        /* \"#utility.yul\":18444:18447   */\n      0xe0\n        /* \"#utility.yul\":18440:18460   */\n      shl\n        /* \"#utility.yul\":18437:18438   */\n      0x00\n        /* \"#utility.yul\":18430:18461   */\n      mstore\n        /* \"#utility.yul\":18480:18484   */\n      0x31\n        /* \"#utility.yul\":18477:18478   */\n      0x04\n        /* \"#utility.yul\":18470:18485   */\n      mstore\n        /* \"#utility.yul\":18504:18508   */\n      0x24\n        /* \"#utility.yul\":18501:18502   */\n      0x00\n        /* \"#utility.yul\":18494:18509   */\n      revert\n\n    auxdata: 0xa2646970667358221220c7eea0940fa2e5a0049d323b8ed803f789bbdac64704431945968dd35a0f1f4164736f6c63430008120033\n}\n",
				"bytecode": {
					"linkReferences": {},
					"object": "60806040523480156200001157600080fd5b506040516200211638038062002116833981016040819052620000349162000187565b8181600062000044838262000280565b50600162000053828262000280565b505050600062000068620000be60201b60201c565b600b80546001600160a01b0319166001600160a01b038316908117909155604051919250906000907f8be0079c531659141344cd1fd0a4f28419497f9722a3daafe3b4186f6b6457e0908290a35050506200034c565b3390565b634e487b7160e01b600052604160045260246000fd5b600082601f830112620000ea57600080fd5b81516001600160401b0380821115620001075762000107620000c2565b604051601f8301601f19908116603f01168101908282118183101715620001325762000132620000c2565b816040528381526020925086838588010111156200014f57600080fd5b600091505b8382101562000173578582018301518183018401529082019062000154565b600093810190920192909252949350505050565b600080604083850312156200019b57600080fd5b82516001600160401b0380821115620001b357600080fd5b620001c186838701620000d8565b93506020850151915080821115620001d857600080fd5b50620001e785828601620000d8565b9150509250929050565b600181811c908216806200020657607f821691505b6020821081036200022757634e487b7160e01b600052602260045260246000fd5b50919050565b601f8211156200027b57600081815260208120601f850160051c81016020861015620002565750805b601f850160051c820191505b81811015620002775782815560010162000262565b5050505b505050565b81516001600160401b038111156200029c576200029c620000c2565b620002b481620002ad8454620001f1565b846200022d565b602080601f831160018114620002ec5760008415620002d35750858301515b600019600386901b1c1916600185901b17855562000277565b600085815260208120601f198616915b828110156200031d57888601518255948401946001909101908401620002fc565b50858210156200033c5787850151600019600388901b60f8161c191681555b5050505050600190811b01905550565b611dba806200035c6000396000f3fe608060405234801561001057600080fd5b506004361061012c5760003560e01c806370a08231116100ad578063b88d4fde11610071578063b88d4fde14610266578063c87b56dd14610279578063d204c45e1461028c578063e985e9c51461029f578063f2fde38b146102db57600080fd5b806370a082311461021f578063715018a6146102325780638da5cb5b1461023a57806395d89b411461024b578063a22cb4651461025357600080fd5b806323b872dd116100f457806323b872dd146101c05780632f745c59146101d357806342842e0e146101e65780634f6ccce7146101f95780636352211e1461020c57600080fd5b806301ffc9a71461013157806306fdde0314610159578063081812fc1461016e578063095ea7b31461019957806318160ddd146101ae575b600080fd5b61014461013f36600461170d565b6102ee565b60405190151581526020015b60405180910390f35b6101616102ff565b604051610150919061177a565b61018161017c36600461178d565b610391565b6040516001600160a01b039091168152602001610150565b6101ac6101a73660046117c2565b61041e565b005b6008545b604051908152602001610150565b6101ac6101ce3660046117ec565b610533565b6101b26101e13660046117c2565b610564565b6101ac6101f43660046117ec565b6105fa565b6101b261020736600461178d565b610615565b61018161021a36600461178d565b6106a8565b6101b261022d366004611828565b61071f565b6101ac6107a6565b600b546001600160a01b0316610181565b61016161081a565b6101ac610261366004611843565b610829565b6101ac61027436600461190b565b6108ed565b61016161028736600461178d565b610925565b6101b261029a366004611987565b610930565b6101446102ad3660046119e9565b6001600160a01b03918216600090815260056020908152604080832093909416825291909152205460ff1690565b6101ac6102e9366004611828565b610993565b60006102f982610a7e565b92915050565b60606000805461030e90611a1c565b80601f016020809104026020016040519081016040528092919081815260200182805461033a90611a1c565b80156103875780601f1061035c57610100808354040283529160200191610387565b820191906000526020600020905b81548152906001019060200180831161036a57829003601f168201915b5050505050905090565b600061039c82610aa3565b6104025760405162461bcd60e51b815260206004820152602c60248201527f4552433732313a20617070726f76656420717565727920666f72206e6f6e657860448201526b34b9ba32b73a103a37b5b2b760a11b60648201526084015b60405180910390fd5b506000908152600460205260409020546001600160a01b031690565b6000610429826106a8565b9050806001600160a01b0316836001600160a01b0316036104965760405162461bcd60e51b815260206004820152602160248201527f4552433732313a20617070726f76616c20746f2063757272656e74206f776e656044820152603960f91b60648201526084016103f9565b336001600160a01b03821614806104b257506104b281336102ad565b6105245760405162461bcd60e51b815260206004820152603860248201527f4552433732313a20617070726f76652063616c6c6572206973206e6f74206f7760448201527f6e6572206e6f7220617070726f76656420666f7220616c6c000000000000000060648201526084016103f9565b61052e8383610ac0565b505050565b61053d3382610b2e565b6105595760405162461bcd60e51b81526004016103f990611a56565b61052e838383610c18565b600061056f8361071f565b82106105d15760405162461bcd60e51b815260206004820152602b60248201527f455243373231456e756d657261626c653a206f776e657220696e646578206f7560448201526a74206f6620626f756e647360a81b60648201526084016103f9565b506001600160a01b03919091166000908152600660209081526040808320938352929052205490565b61052e838383604051806020016040528060008152506108ed565b600061062060085490565b82106106835760405162461bcd60e51b815260206004820152602c60248201527f455243373231456e756d657261626c653a20676c6f62616c20696e646578206f60448201526b7574206f6620626f756e647360a01b60648201526084016103f9565b6008828154811061069657610696611aa7565b90600052602060002001549050919050565b6000818152600260205260408120546001600160a01b0316806102f95760405162461bcd60e51b815260206004820152602960248201527f4552433732313a206f776e657220717565727920666f72206e6f6e657869737460448201526832b73a103a37b5b2b760b91b60648201526084016103f9565b60006001600160a01b03821661078a5760405162461bcd60e51b815260206004820152602a60248201527f4552433732313a2062616c616e636520717565727920666f7220746865207a65604482015269726f206164647265737360b01b60648201526084016103f9565b506001600160a01b031660009081526003602052604090205490565b600b546001600160a01b031633146107d05760405162461bcd60e51b81526004016103f990611abd565b600b546040516000916001600160a01b0316907f8be0079c531659141344cd1fd0a4f28419497f9722a3daafe3b4186f6b6457e0908390a3600b80546001600160a01b0319169055565b60606001805461030e90611a1c565b336001600160a01b038316036108815760405162461bcd60e51b815260206004820152601960248201527f4552433732313a20617070726f766520746f2063616c6c65720000000000000060448201526064016103f9565b3360008181526005602090815260408083206001600160a01b03871680855290835292819020805460ff191686151590811790915590519081529192917f17307eab39ab6107e8899845ad3d59bd9653f200f220920489ca2b5937696c31910160405180910390a35050565b6108f73383610b2e565b6109135760405162461bcd60e51b81526004016103f990611a56565b61091f84848484610dc3565b50505050565b60606102f982610df6565b600b546000906001600160a01b0316331461095d5760405162461bcd60e51b81526004016103f990611abd565b61096b600c80546001019055565b6000610976600c5490565b90506109828482610f64565b61098c8184610f82565b9392505050565b600b546001600160a01b031633146109bd5760405162461bcd60e51b81526004016103f990611abd565b6001600160a01b038116610a225760405162461bcd60e51b815260206004820152602660248201527f4f776e61626c653a206e6577206f776e657220697320746865207a65726f206160448201526564647265737360d01b60648201526084016103f9565b600b546040516001600160a01b038084169216907f8be0079c531659141344cd1fd0a4f28419497f9722a3daafe3b4186f6b6457e090600090a3600b80546001600160a01b0319166001600160a01b0392909216919091179055565b60006001600160e01b0319821663780e9d6360e01b14806102f957506102f982611006565b6000908152600260205260409020546001600160a01b0316151590565b600081815260046020526040902080546001600160a01b0319166001600160a01b0384169081179091558190610af5826106a8565b6001600160a01b03167f8c5be1e5ebec7d5bd14f71427d1e84f3dd0314c0f7b2291e5b200ac8c7c3b92560405160405180910390a45050565b6000610b3982610aa3565b610b9a5760405162461bcd60e51b815260206004820152602c60248201527f4552433732313a206f70657261746f7220717565727920666f72206e6f6e657860448201526b34b9ba32b73a103a37b5b2b760a11b60648201526084016103f9565b6000610ba5836106a8565b9050806001600160a01b0316846001600160a01b03161480610be05750836001600160a01b0316610bd584610391565b6001600160a01b0316145b80610c1057506001600160a01b0380821660009081526005602090815260408083209388168352929052205460ff165b949350505050565b826001600160a01b0316610c2b826106a8565b6001600160a01b031614610c935760405162461bcd60e51b815260206004820152602960248201527f4552433732313a207472616e73666572206f6620746f6b656e2074686174206960448201526839903737ba1037bbb760b91b60648201526084016103f9565b6001600160a01b038216610cf55760405162461bcd60e51b8152602060048201526024808201527f4552433732313a207472616e7366657220746f20746865207a65726f206164646044820152637265737360e01b60648201526084016103f9565b610d00838383611056565b610d0b600082610ac0565b6001600160a01b0383166000908152600360205260408120805460019290610d34908490611b08565b90915550506001600160a01b0382166000908152600360205260408120805460019290610d62908490611b1b565b909155505060008181526002602052604080822080546001600160a01b0319166001600160a01b0386811691821790925591518493918716917fddf252ad1be2c89b69c2b068fc378daa952ba7f163c4a11628f55a4df523b3ef91a4505050565b610dce848484610c18565b610dda84848484611061565b61091f5760405162461bcd60e51b81526004016103f990611b2e565b6060610e0182610aa3565b610e675760405162461bcd60e51b815260206004820152603160248201527f45524337323155524953746f726167653a2055524920717565727920666f72206044820152703737b732bc34b9ba32b73a103a37b5b2b760791b60648201526084016103f9565b6000828152600a602052604081208054610e8090611a1c565b80601f0160208091040260200160405190810160405280929190818152602001828054610eac90611a1c565b8015610ef95780601f10610ece57610100808354040283529160200191610ef9565b820191906000526020600020905b815481529060010190602001808311610edc57829003601f168201915b505050505090506000610f1760408051602081019091526000815290565b90508051600003610f29575092915050565b815115610f5b578082604051602001610f43929190611b80565b60405160208183030381529060405292505050919050565b610c1084611162565b610f7e828260405180602001604052806000815250611239565b5050565b610f8b82610aa3565b610fee5760405162461bcd60e51b815260206004820152602e60248201527f45524337323155524953746f726167653a2055524920736574206f66206e6f6e60448201526d32bc34b9ba32b73a103a37b5b2b760911b60648201526084016103f9565b6000828152600a6020526040902061052e8282611bfd565b60006001600160e01b031982166380ac58cd60e01b148061103757506001600160e01b03198216635b5e139f60e01b145b806102f957506301ffc9a760e01b6001600160e01b03198316146102f9565b61052e83838361126c565b60006001600160a01b0384163b1561115757604051630a85bd0160e11b81526001600160a01b0385169063150b7a02906110a5903390899088908890600401611cbd565b6020604051808303816000875af19250505080156110e0575060408051601f3d908101601f191682019092526110dd91810190611cfa565b60015b61113d573d80801561110e576040519150601f19603f3d011682016040523d82523d6000602084013e611113565b606091505b5080516000036111355760405162461bcd60e51b81526004016103f990611b2e565b805181602001fd5b6001600160e01b031916630a85bd0160e11b149050610c10565b506001949350505050565b606061116d82610aa3565b6111d15760405162461bcd60e51b815260206004820152602f60248201527f4552433732314d657461646174613a2055524920717565727920666f72206e6f60448201526e3732bc34b9ba32b73a103a37b5b2b760891b60648201526084016103f9565b60006111e860408051602081019091526000815290565b90506000815111611208576040518060200160405280600081525061098c565b8061121284611324565b604051602001611223929190611b80565b6040516020818303038152906040529392505050565b6112438383611425565b6112506000848484611061565b61052e5760405162461bcd60e51b81526004016103f990611b2e565b6001600160a01b0383166112c7576112c281600880546000838152600960205260408120829055600182018355919091527ff3f7a9fe364faab93b216da50a3214154f22a0a2b415b23a84c8169e8b636ee30155565b6112ea565b816001600160a01b0316836001600160a01b0316146112ea576112ea8382611564565b6001600160a01b0382166113015761052e81611601565b826001600160a01b0316826001600160a01b03161461052e5761052e82826116b0565b60608160000361134b5750506040805180820190915260018152600360fc1b602082015290565b8160005b8115611375578061135f81611d17565b915061136e9050600a83611d46565b915061134f565b60008167ffffffffffffffff8111156113905761139061187f565b6040519080825280601f01601f1916602001820160405280156113ba576020820181803683370190505b5090505b8415610c10576113cf600183611b08565b91506113dc600a86611d5a565b6113e7906030611b1b565b60f81b8183815181106113fc576113fc611aa7565b60200101906001600160f81b031916908160001a90535061141e600a86611d46565b94506113be565b6001600160a01b03821661147b5760405162461bcd60e51b815260206004820181905260248201527f4552433732313a206d696e7420746f20746865207a65726f206164647265737360448201526064016103f9565b61148481610aa3565b156114d15760405162461bcd60e51b815260206004820152601c60248201527f4552433732313a20746f6b656e20616c7265616479206d696e7465640000000060448201526064016103f9565b6114dd60008383611056565b6001600160a01b0382166000908152600360205260408120805460019290611506908490611b1b565b909155505060008181526002602052604080822080546001600160a01b0319166001600160a01b03861690811790915590518392907fddf252ad1be2c89b69c2b068fc378daa952ba7f163c4a11628f55a4df523b3ef908290a45050565b600060016115718461071f565b61157b9190611b08565b6000838152600760205260409020549091508082146115ce576001600160a01b03841660009081526006602090815260408083208584528252808320548484528184208190558352600790915290208190555b5060009182526007602090815260408084208490556001600160a01b039094168352600681528383209183525290812055565b60085460009061161390600190611b08565b6000838152600960205260408120546008805493945090928490811061163b5761163b611aa7565b90600052602060002001549050806008838154811061165c5761165c611aa7565b600091825260208083209091019290925582815260099091526040808220849055858252812055600880548061169457611694611d6e565b6001900381819060005260206000200160009055905550505050565b60006116bb8361071f565b6001600160a01b039093166000908152600660209081526040808320868452825280832085905593825260079052919091209190915550565b6001600160e01b03198116811461170a57600080fd5b50565b60006020828403121561171f57600080fd5b813561098c816116f4565b60005b8381101561174557818101518382015260200161172d565b50506000910152565b6000815180845261176681602086016020860161172a565b601f01601f19169290920160200192915050565b60208152600061098c602083018461174e565b60006020828403121561179f57600080fd5b5035919050565b80356001600160a01b03811681146117bd57600080fd5b919050565b600080604083850312156117d557600080fd5b6117de836117a6565b946020939093013593505050565b60008060006060848603121561180157600080fd5b61180a846117a6565b9250611818602085016117a6565b9150604084013590509250925092565b60006020828403121561183a57600080fd5b61098c826117a6565b6000806040838503121561185657600080fd5b61185f836117a6565b91506020830135801515811461187457600080fd5b809150509250929050565b634e487b7160e01b600052604160045260246000fd5b600067ffffffffffffffff808411156118b0576118b061187f565b604051601f8501601f19908116603f011681019082821181831017156118d8576118d861187f565b816040528093508581528686860111156118f157600080fd5b858560208301376000602087830101525050509392505050565b6000806000806080858703121561192157600080fd5b61192a856117a6565b9350611938602086016117a6565b925060408501359150606085013567ffffffffffffffff81111561195b57600080fd5b8501601f8101871361196c57600080fd5b61197b87823560208401611895565b91505092959194509250565b6000806040838503121561199a57600080fd5b6119a3836117a6565b9150602083013567ffffffffffffffff8111156119bf57600080fd5b8301601f810185136119d057600080fd5b6119df85823560208401611895565b9150509250929050565b600080604083850312156119fc57600080fd5b611a05836117a6565b9150611a13602084016117a6565b90509250929050565b600181811c90821680611a3057607f821691505b602082108103611a5057634e487b7160e01b600052602260045260246000fd5b50919050565b60208082526031908201527f4552433732313a207472616e736665722063616c6c6572206973206e6f74206f6040820152701ddb995c881b9bdc88185c1c1c9bdd9959607a1b606082015260800190565b634e487b7160e01b600052603260045260246000fd5b6020808252818101527f4f776e61626c653a2063616c6c6572206973206e6f7420746865206f776e6572604082015260600190565b634e487b7160e01b600052601160045260246000fd5b818103818111156102f9576102f9611af2565b808201808211156102f9576102f9611af2565b60208082526032908201527f4552433732313a207472616e7366657220746f206e6f6e20455243373231526560408201527131b2b4bb32b91034b6b83632b6b2b73a32b960711b606082015260800190565b60008351611b9281846020880161172a565b835190830190611ba681836020880161172a565b01949350505050565b601f82111561052e57600081815260208120601f850160051c81016020861015611bd65750805b601f850160051c820191505b81811015611bf557828155600101611be2565b505050505050565b815167ffffffffffffffff811115611c1757611c1761187f565b611c2b81611c258454611a1c565b84611baf565b602080601f831160018114611c605760008415611c485750858301515b600019600386901b1c1916600185901b178555611bf5565b600085815260208120601f198616915b82811015611c8f57888601518255948401946001909101908401611c70565b5085821015611cad5787850151600019600388901b60f8161c191681555b5050505050600190811b01905550565b6001600160a01b0385811682528416602082015260408101839052608060608201819052600090611cf09083018461174e565b9695505050505050565b600060208284031215611d0c57600080fd5b815161098c816116f4565b600060018201611d2957611d29611af2565b5060010190565b634e487b7160e01b600052601260045260246000fd5b600082611d5557611d55611d30565b500490565b600082611d6957611d69611d30565b500690565b634e487b7160e01b600052603160045260246000fdfea2646970667358221220c7eea0940fa2e5a0049d323b8ed803f789bbdac64704431945968dd35a0f1f4164736f6c63430008120033",
					"opcodes": "PUSH1 0x80 PUSH1 0x40 MSTORE CALLVALUE DUP1 ISZERO PUSH3 0x11 JUMPI PUSH1 0x0 DUP1 REVERT JUMPDEST POP PUSH1 0x40 MLOAD PUSH3 0x2116 CODESIZE SUB DUP1 PUSH3 0x2116 DUP4 CODECOPY DUP2 ADD PUSH1 0x40 DUP2 SWAP1 MSTORE PUSH3 0x34 SWAP2 PUSH3 0x187 JUMP JUMPDEST DUP2 DUP2 PUSH1 0x0 PUSH3 0x44 DUP4 DUP3 PUSH3 0x280 JUMP JUMPDEST POP PUSH1 0x1 PUSH3 0x53 DUP3 DUP3 PUSH3 0x280 JUMP JUMPDEST POP POP POP PUSH1 0x0 PUSH3 0x68 PUSH3 0xBE PUSH1 0x20 SHL PUSH1 0x20 SHR JUMP JUMPDEST PUSH1 0xB DUP1 SLOAD PUSH1 0x1 PUSH1 0x1 PUSH1 0xA0 SHL SUB NOT AND PUSH1 0x1 PUSH1 0x1 PUSH1 0xA0 SHL SUB DUP4 AND SWAP1 DUP2 OR SWAP1 SWAP2 SSTORE PUSH1 0x40 MLOAD SWAP2 SWAP3 POP SWAP1 PUSH1 0x0 SWAP1 PUSH32 0x8BE0079C531659141344CD1FD0A4F28419497F9722A3DAAFE3B4186F6B6457E0 SWAP1 DUP3 SWAP1 LOG3 POP POP POP PUSH3 0x34C JUMP JUMPDEST CALLER SWAP1 JUMP JUMPDEST PUSH4 0x4E487B71 PUSH1 0xE0 SHL PUSH1 0x0 MSTORE PUSH1 0x41 PUSH1 0x4 MSTORE PUSH1 0x24 PUSH1 0x0 REVERT JUMPDEST PUSH1 0x0 DUP3 PUSH1 0x1F DUP4 ADD SLT PUSH3 0xEA JUMPI PUSH1 0x0 DUP1 REVERT JUMPDEST DUP2 MLOAD PUSH1 0x1 PUSH1 0x1 PUSH1 0x40 SHL SUB DUP1 DUP3 GT ISZERO PUSH3 0x107 JUMPI PUSH3 0x107 PUSH3 0xC2 JUMP JUMPDEST PUSH1 0x40 MLOAD PUSH1 0x1F DUP4 ADD PUSH1 0x1F NOT SWAP1 DUP2 AND PUSH1 0x3F ADD AND DUP2 ADD SWAP1 DUP3 DUP3 GT DUP2 DUP4 LT OR ISZERO PUSH3 0x132 JUMPI PUSH3 0x132 PUSH3 0xC2 JUMP JUMPDEST DUP2 PUSH1 0x40 MSTORE DUP4 DUP2 MSTORE PUSH1 0x20 SWAP3 POP DUP7 DUP4 DUP6 DUP9 ADD ADD GT ISZERO PUSH3 0x14F JUMPI PUSH1 0x0 DUP1 REVERT JUMPDEST PUSH1 0x0 SWAP2 POP JUMPDEST DUP4 DUP3 LT ISZERO PUSH3 0x173 JUMPI DUP6 DUP3 ADD DUP4 ADD MLOAD DUP2 DUP4 ADD DUP5 ADD MSTORE SWAP1 DUP3 ADD SWAP1 PUSH3 0x154 JUMP JUMPDEST PUSH1 0x0 SWAP4 DUP2 ADD SWAP1 SWAP3 ADD SWAP3 SWAP1 SWAP3 MSTORE SWAP5 SWAP4 POP POP POP POP JUMP JUMPDEST PUSH1 0x0 DUP1 PUSH1 0x40 DUP4 DUP6 SUB SLT ISZERO PUSH3 0x19B JUMPI PUSH1 0x0 DUP1 REVERT JUMPDEST DUP3 MLOAD PUSH1 0x1 PUSH1 0x1 PUSH1 0x40 SHL SUB DUP1 DUP3 GT ISZERO PUSH3 0x1B3 JUMPI PUSH1 0x0 DUP1 REVERT JUMPDEST PUSH3 0x1C1 DUP7 DUP4 DUP8 ADD PUSH3 0xD8 JUMP JUMPDEST SWAP4 POP PUSH1 0x20 DUP6 ADD MLOAD SWAP2 POP DUP1 DUP3 GT ISZERO PUSH3 0x1D8 JUMPI PUSH1 0x0 DUP1 REVERT JUMPDEST POP PUSH3 0x1E7 DUP6 DUP3 DUP7 ADD PUSH3 0xD8 JUMP JUMPDEST SWAP2 POP POP SWAP3 POP SWAP3 SWAP1 POP JUMP JUMPDEST PUSH1 0x1 DUP2 DUP2 SHR SWAP1 DUP3 AND DUP1 PUSH3 0x206 JUMPI PUSH1 0x7F DUP3 AND SWAP2 POP JUMPDEST PUSH1 0x20 DUP3 LT DUP2 SUB PUSH3 0x227 JUMPI PUSH4 0x4E487B71 PUSH1 0xE0 SHL PUSH1 0x0 MSTORE PUSH1 0x22 PUSH1 0x4 MSTORE PUSH1 0x24 PUSH1 0x0 REVERT JUMPDEST POP SWAP2 SWAP1 POP JUMP JUMPDEST PUSH1 0x1F DUP3 GT ISZERO PUSH3 0x27B JUMPI PUSH1 0x0 DUP2 DUP2 MSTORE PUSH1 0x20 DUP2 KECCAK256 PUSH1 0x1F DUP6 ADD PUSH1 0x5 SHR DUP2 ADD PUSH1 0x20 DUP7 LT ISZERO PUSH3 0x256 JUMPI POP DUP1 JUMPDEST PUSH1 0x1F DUP6 ADD PUSH1 0x5 SHR DUP3 ADD SWAP2 POP JUMPDEST DUP2 DUP2 LT ISZERO PUSH3 0x277 JUMPI DUP3 DUP2 SSTORE PUSH1 0x1 ADD PUSH3 0x262 JUMP JUMPDEST POP POP POP JUMPDEST POP POP POP JUMP JUMPDEST DUP2 MLOAD PUSH1 0x1 PUSH1 0x1 PUSH1 0x40 SHL SUB DUP2 GT ISZERO PUSH3 0x29C JUMPI PUSH3 0x29C PUSH3 0xC2 JUMP JUMPDEST PUSH3 0x2B4 DUP2 PUSH3 0x2AD DUP5 SLOAD PUSH3 0x1F1 JUMP JUMPDEST DUP5 PUSH3 0x22D JUMP JUMPDEST PUSH1 0x20 DUP1 PUSH1 0x1F DUP4 GT PUSH1 0x1 DUP2 EQ PUSH3 0x2EC JUMPI PUSH1 0x0 DUP5 ISZERO PUSH3 0x2D3 JUMPI POP DUP6 DUP4 ADD MLOAD JUMPDEST PUSH1 0x0 NOT PUSH1 0x3 DUP7 SWAP1 SHL SHR NOT AND PUSH1 0x1 DUP6 SWAP1 SHL OR DUP6 SSTORE PUSH3 0x277 JUMP JUMPDEST PUSH1 0x0 DUP6 DUP2 MSTORE PUSH1 0x20 DUP2 KECCAK256 PUSH1 0x1F NOT DUP7 AND SWAP2 JUMPDEST DUP3 DUP2 LT ISZERO PUSH3 0x31D JUMPI DUP9 DUP7 ADD MLOAD DUP3 SSTORE SWAP5 DUP5 ADD SWAP5 PUSH1 0x1 SWAP1 SWAP2 ADD SWAP1 DUP5 ADD PUSH3 0x2FC JUMP JUMPDEST POP DUP6 DUP3 LT ISZERO PUSH3 0x33C JUMPI DUP8 DUP6 ADD MLOAD PUSH1 0x0 NOT PUSH1 0x3 DUP9 SWAP1 SHL PUSH1 0xF8 AND SHR NOT AND DUP2 SSTORE JUMPDEST POP POP POP POP POP PUSH1 0x1 SWAP1 DUP2 SHL ADD SWAP1 SSTORE POP JUMP JUMPDEST PUSH2 0x1DBA DUP1 PUSH3 0x35C PUSH1 0x0 CODECOPY PUSH1 0x0 RETURN INVALID PUSH1 0x80 PUSH1 0x40 MSTORE CALLVALUE DUP1 ISZERO PUSH2 0x10 JUMPI PUSH1 0x0 DUP1 REVERT JUMPDEST POP PUSH1 0x4 CALLDATASIZE LT PUSH2 0x12C JUMPI PUSH1 0x0 CALLDATALOAD PUSH1 0xE0 SHR DUP1 PUSH4 0x70A08231 GT PUSH2 0xAD JUMPI DUP1 PUSH4 0xB88D4FDE GT PUSH2 0x71 JUMPI DUP1 PUSH4 0xB88D4FDE EQ PUSH2 0x266 JUMPI DUP1 PUSH4 0xC87B56DD EQ PUSH2 0x279 JUMPI DUP1 PUSH4 0xD204C45E EQ PUSH2 0x28C JUMPI DUP1 PUSH4 0xE985E9C5 EQ PUSH2 0x29F JUMPI DUP1 PUSH4 0xF2FDE38B EQ PUSH2 0x2DB JUMPI PUSH1 0x0 DUP1 REVERT JUMPDEST DUP1 PUSH4 0x70A08231 EQ PUSH2 0x21F JUMPI DUP1 PUSH4 0x715018A6 EQ PUSH2 0x232 JUMPI DUP1 PUSH4 0x8DA5CB5B EQ PUSH2 0x23A JUMPI DUP1 PUSH4 0x95D89B41 EQ PUSH2 0x24B JUMPI DUP1 PUSH4 0xA22CB465 EQ PUSH2 0x253 JUMPI PUSH1 0x0 DUP1 REVERT JUMPDEST DUP1 PUSH4 0x23B872DD GT PUSH2 0xF4 JUMPI DUP1 PUSH4 0x23B872DD EQ PUSH2 0x1C0 JUMPI DUP1 PUSH4 0x2F745C59 EQ PUSH2 0x1D3 JUMPI DUP1 PUSH4 0x42842E0E EQ PUSH2 0x1E6 JUMPI DUP1 PUSH4 0x4F6CCCE7 EQ PUSH2 0x1F9 JUMPI DUP1 PUSH4 0x6352211E EQ PUSH2 0x20C JUMPI PUSH1 0x0 DUP1 REVERT JUMPDEST DUP1 PUSH4 0x1FFC9A7 EQ PUSH2 0x131 JUMPI DUP1 PUSH4 0x6FDDE03 EQ PUSH2 0x159 JUMPI DUP1 PUSH4 0x81812FC EQ PUSH2 0x16E JUMPI DUP1 PUSH4 0x95EA7B3 EQ PUSH2 0x199 JUMPI DUP1 PUSH4 0x18160DDD EQ PUSH2 0x1AE JUMPI JUMPDEST PUSH1 0x0 DUP1 REVERT JUMPDEST PUSH2 0x144 PUSH2 0x13F CALLDATASIZE PUSH1 0x4 PUSH2 0x170D JUMP JUMPDEST PUSH2 0x2EE JUMP JUMPDEST PUSH1 0x40 MLOAD SWAP1 ISZERO ISZERO DUP2 MSTORE PUSH1 0x20 ADD JUMPDEST PUSH1 0x40 MLOAD DUP1 SWAP2 SUB SWAP1 RETURN JUMPDEST PUSH2 0x161 PUSH2 0x2FF JUMP JUMPDEST PUSH1 0x40 MLOAD PUSH2 0x150 SWAP2 SWAP1 PUSH2 0x177A JUMP JUMPDEST PUSH2 0x181 PUSH2 0x17C CALLDATASIZE PUSH1 0x4 PUSH2 0x178D JUMP JUMPDEST PUSH2 0x391 JUMP JUMPDEST PUSH1 0x40 MLOAD PUSH1 0x1 PUSH1 0x1 PUSH1 0xA0 SHL SUB SWAP1 SWAP2 AND DUP2 MSTORE PUSH1 0x20 ADD PUSH2 0x150 JUMP JUMPDEST PUSH2 0x1AC PUSH2 0x1A7 CALLDATASIZE PUSH1 0x4 PUSH2 0x17C2 JUMP JUMPDEST PUSH2 0x41E JUMP JUMPDEST STOP JUMPDEST PUSH1 0x8 SLOAD JUMPDEST PUSH1 0x40 MLOAD SWAP1 DUP2 MSTORE PUSH1 0x20 ADD PUSH2 0x150 JUMP JUMPDEST PUSH2 0x1AC PUSH2 0x1CE CALLDATASIZE PUSH1 0x4 PUSH2 0x17EC JUMP JUMPDEST PUSH2 0x533 JUMP JUMPDEST PUSH2 0x1B2 PUSH2 0x1E1 CALLDATASIZE PUSH1 0x4 PUSH2 0x17C2 JUMP JUMPDEST PUSH2 0x564 JUMP JUMPDEST PUSH2 0x1AC PUSH2 0x1F4 CALLDATASIZE PUSH1 0x4 PUSH2 0x17EC JUMP JUMPDEST PUSH2 0x5FA JUMP JUMPDEST PUSH2 0x1B2 PUSH2 0x207 CALLDATASIZE PUSH1 0x4 PUSH2 0x178D JUMP JUMPDEST PUSH2 0x615 JUMP JUMPDEST PUSH2 0x181 PUSH2 0x21A CALLDATASIZE PUSH1 0x4 PUSH2 0x178D JUMP JUMPDEST PUSH2 0x6A8 JUMP JUMPDEST PUSH2 0x1B2 PUSH2 0x22D CALLDATASIZE PUSH1 0x4 PUSH2 0x1828 JUMP JUMPDEST PUSH2 0x71F JUMP JUMPDEST PUSH2 0x1AC PUSH2 0x7A6 JUMP JUMPDEST PUSH1 0xB SLOAD PUSH1 0x1 PUSH1 0x1 PUSH1 0xA0 SHL SUB AND PUSH2 0x181 JUMP JUMPDEST PUSH2 0x161 PUSH2 0x81A JUMP JUMPDEST PUSH2 0x1AC PUSH2 0x261 CALLDATASIZE PUSH1 0x4 PUSH2 0x1843 JUMP JUMPDEST PUSH2 0x829 JUMP JUMPDEST PUSH2 0x1AC PUSH2 0x274 CALLDATASIZE PUSH1 0x4 PUSH2 0x190B JUMP JUMPDEST PUSH2 0x8ED JUMP JUMPDEST PUSH2 0x161 PUSH2 0x287 CALLDATASIZE PUSH1 0x4 PUSH2 0x178D JUMP JUMPDEST PUSH2 0x925 JUMP JUMPDEST PUSH2 0x1B2 PUSH2 0x29A CALLDATASIZE PUSH1 0x4 PUSH2 0x1987 JUMP JUMPDEST PUSH2 0x930 JUMP JUMPDEST PUSH2 0x144 PUSH2 0x2AD CALLDATASIZE PUSH1 0x4 PUSH2 0x19E9 JUMP JUMPDEST PUSH1 0x1 PUSH1 0x1 PUSH1 0xA0 SHL SUB SWAP2 DUP3 AND PUSH1 0x0 SWAP1 DUP2 MSTORE PUSH1 0x5 PUSH1 0x20 SWAP1 DUP2 MSTORE PUSH1 0x40 DUP1 DUP4 KECCAK256 SWAP4 SWAP1 SWAP5 AND DUP3 MSTORE SWAP2 SWAP1 SWAP2 MSTORE KECCAK256 SLOAD PUSH1 0xFF AND SWAP1 JUMP JUMPDEST PUSH2 0x1AC PUSH2 0x2E9 CALLDATASIZE PUSH1 0x4 PUSH2 0x1828 JUMP JUMPDEST PUSH2 0x993 JUMP JUMPDEST PUSH1 0x0 PUSH2 0x2F9 DUP3 PUSH2 0xA7E JUMP JUMPDEST SWAP3 SWAP2 POP POP JUMP JUMPDEST PUSH1 0x60 PUSH1 0x0 DUP1 SLOAD PUSH2 0x30E SWAP1 PUSH2 0x1A1C JUMP JUMPDEST DUP1 PUSH1 0x1F ADD PUSH1 0x20 DUP1 SWAP2 DIV MUL PUSH1 0x20 ADD PUSH1 0x40 MLOAD SWAP1 DUP2 ADD PUSH1 0x40 MSTORE DUP1 SWAP3 SWAP2 SWAP1 DUP2 DUP2 MSTORE PUSH1 0x20 ADD DUP3 DUP1 SLOAD PUSH2 0x33A SWAP1 PUSH2 0x1A1C JUMP JUMPDEST DUP1 ISZERO PUSH2 0x387 JUMPI DUP1 PUSH1 0x1F LT PUSH2 0x35C JUMPI PUSH2 0x100 DUP1 DUP4 SLOAD DIV MUL DUP4 MSTORE SWAP2 PUSH1 0x20 ADD SWAP2 PUSH2 0x387 JUMP JUMPDEST DUP3 ADD SWAP2 SWAP1 PUSH1 0x0 MSTORE PUSH1 0x20 PUSH1 0x0 KECCAK256 SWAP1 JUMPDEST DUP2 SLOAD DUP2 MSTORE SWAP1 PUSH1 0x1 ADD SWAP1 PUSH1 0x20 ADD DUP1 DUP4 GT PUSH2 0x36A JUMPI DUP3 SWAP1 SUB PUSH1 0x1F AND DUP3 ADD SWAP2 JUMPDEST POP POP POP POP POP SWAP1 POP SWAP1 JUMP JUMPDEST PUSH1 0x0 PUSH2 0x39C DUP3 PUSH2 0xAA3 JUMP JUMPDEST PUSH2 0x402 JUMPI PUSH1 0x40 MLOAD PUSH3 0x461BCD PUSH1 0xE5 SHL DUP2 MSTORE PUSH1 0x20 PUSH1 0x4 DUP3 ADD MSTORE PUSH1 0x2C PUSH1 0x24 DUP3 ADD MSTORE PUSH32 0x4552433732313A20617070726F76656420717565727920666F72206E6F6E6578 PUSH1 0x44 DUP3 ADD MSTORE PUSH12 0x34B9BA32B73A103A37B5B2B7 PUSH1 0xA1 SHL PUSH1 0x64 DUP3 ADD MSTORE PUSH1 0x84 ADD JUMPDEST PUSH1 0x40 MLOAD DUP1 SWAP2 SUB SWAP1 REVERT JUMPDEST POP PUSH1 0x0 SWAP1 DUP2 MSTORE PUSH1 0x4 PUSH1 0x20 MSTORE PUSH1 0x40 SWAP1 KECCAK256 SLOAD PUSH1 0x1 PUSH1 0x1 PUSH1 0xA0 SHL SUB AND SWAP1 JUMP JUMPDEST PUSH1 0x0 PUSH2 0x429 DUP3 PUSH2 0x6A8 JUMP JUMPDEST SWAP1 POP DUP1 PUSH1 0x1 PUSH1 0x1 PUSH1 0xA0 SHL SUB AND DUP4 PUSH1 0x1 PUSH1 0x1 PUSH1 0xA0 SHL SUB AND SUB PUSH2 0x496 JUMPI PUSH1 0x40 MLOAD PUSH3 0x461BCD PUSH1 0xE5 SHL DUP2 MSTORE PUSH1 0x20 PUSH1 0x4 DUP3 ADD MSTORE PUSH1 0x21 PUSH1 0x24 DUP3 ADD MSTORE PUSH32 0x4552433732313A20617070726F76616C20746F2063757272656E74206F776E65 PUSH1 0x44 DUP3 ADD MSTORE PUSH1 0x39 PUSH1 0xF9 SHL PUSH1 0x64 DUP3 ADD MSTORE PUSH1 0x84 ADD PUSH2 0x3F9 JUMP JUMPDEST CALLER PUSH1 0x1 PUSH1 0x1 PUSH1 0xA0 SHL SUB DUP3 AND EQ DUP1 PUSH2 0x4B2 JUMPI POP PUSH2 0x4B2 DUP2 CALLER PUSH2 0x2AD JUMP JUMPDEST PUSH2 0x524 JUMPI PUSH1 0x40 MLOAD PUSH3 0x461BCD PUSH1 0xE5 SHL DUP2 MSTORE PUSH1 0x20 PUSH1 0x4 DUP3 ADD MSTORE PUSH1 0x38 PUSH1 0x24 DUP3 ADD MSTORE PUSH32 0x4552433732313A20617070726F76652063616C6C6572206973206E6F74206F77 PUSH1 0x44 DUP3 ADD MSTORE PUSH32 0x6E6572206E6F7220617070726F76656420666F7220616C6C0000000000000000 PUSH1 0x64 DUP3 ADD MSTORE PUSH1 0x84 ADD PUSH2 0x3F9 JUMP JUMPDEST PUSH2 0x52E DUP4 DUP4 PUSH2 0xAC0 JUMP JUMPDEST POP POP POP JUMP JUMPDEST PUSH2 0x53D CALLER DUP3 PUSH2 0xB2E JUMP JUMPDEST PUSH2 0x559 JUMPI PUSH1 0x40 MLOAD PUSH3 0x461BCD PUSH1 0xE5 SHL DUP2 MSTORE PUSH1 0x4 ADD PUSH2 0x3F9 SWAP1 PUSH2 0x1A56 JUMP JUMPDEST PUSH2 0x52E DUP4 DUP4 DUP4 PUSH2 0xC18 JUMP JUMPDEST PUSH1 0x0 PUSH2 0x56F DUP4 PUSH2 0x71F JUMP JUMPDEST DUP3 LT PUSH2 0x5D1 JUMPI PUSH1 0x40 MLOAD PUSH3 0x461BCD PUSH1 0xE5 SHL DUP2 MSTORE PUSH1 0x20 PUSH1 0x4 DUP3 ADD MSTORE PUSH1 0x2B PUSH1 0x24 DUP3 ADD MSTORE PUSH32 0x455243373231456E756D657261626C653A206F776E657220696E646578206F75 PUSH1 0x44 DUP3 ADD MSTORE PUSH11 0x74206F6620626F756E6473 PUSH1 0xA8 SHL PUSH1 0x64 DUP3 ADD MSTORE PUSH1 0x84 ADD PUSH2 0x3F9 JUMP JUMPDEST POP PUSH1 0x1 PUSH1 0x1 PUSH1 0xA0 SHL SUB SWAP2 SWAP1 SWAP2 AND PUSH1 0x0 SWAP1 DUP2 MSTORE PUSH1 0x6 PUSH1 0x20 SWAP1 DUP2 MSTORE PUSH1 0x40 DUP1 DUP4 KECCAK256 SWAP4 DUP4 MSTORE SWAP3 SWAP1 MSTORE KECCAK256 SLOAD SWAP1 JUMP JUMPDEST PUSH2 0x52E DUP4 DUP4 DUP4 PUSH1 0x40 MLOAD DUP1 PUSH1 0x20 ADD PUSH1 0x40 MSTORE DUP1 PUSH1 0x0 DUP2 MSTORE POP PUSH2 0x8ED JUMP JUMPDEST PUSH1 0x0 PUSH2 0x620 PUSH1 0x8 SLOAD SWAP1 JUMP JUMPDEST DUP3 LT PUSH2 0x683 JUMPI PUSH1 0x40 MLOAD PUSH3 0x461BCD PUSH1 0xE5 SHL DUP2 MSTORE PUSH1 0x20 PUSH1 0x4 DUP3 ADD MSTORE PUSH1 0x2C PUSH1 0x24 DUP3 ADD MSTORE PUSH32 0x455243373231456E756D657261626C653A20676C6F62616C20696E646578206F PUSH1 0x44 DUP3 ADD MSTORE PUSH12 0x7574206F6620626F756E6473 PUSH1 0xA0 SHL PUSH1 0x64 DUP3 ADD MSTORE PUSH1 0x84 ADD PUSH2 0x3F9 JUMP JUMPDEST PUSH1 0x8 DUP3 DUP2 SLOAD DUP2 LT PUSH2 0x696 JUMPI PUSH2 0x696 PUSH2 0x1AA7 JUMP JUMPDEST SWAP1 PUSH1 0x0 MSTORE PUSH1 0x20 PUSH1 0x0 KECCAK256 ADD SLOAD SWAP1 POP SWAP2 SWAP1 POP JUMP JUMPDEST PUSH1 0x0 DUP2 DUP2 MSTORE PUSH1 0x2 PUSH1 0x20 MSTORE PUSH1 0x40 DUP2 KECCAK256 SLOAD PUSH1 0x1 PUSH1 0x1 PUSH1 0xA0 SHL SUB AND DUP1 PUSH2 0x2F9 JUMPI PUSH1 0x40 MLOAD PUSH3 0x461BCD PUSH1 0xE5 SHL DUP2 MSTORE PUSH1 0x20 PUSH1 0x4 DUP3 ADD MSTORE PUSH1 0x29 PUSH1 0x24 DUP3 ADD MSTORE PUSH32 0x4552433732313A206F776E657220717565727920666F72206E6F6E6578697374 PUSH1 0x44 DUP3 ADD MSTORE PUSH9 0x32B73A103A37B5B2B7 PUSH1 0xB9 SHL PUSH1 0x64 DUP3 ADD MSTORE PUSH1 0x84 ADD PUSH2 0x3F9 JUMP JUMPDEST PUSH1 0x0 PUSH1 0x1 PUSH1 0x1 PUSH1 0xA0 SHL SUB DUP3 AND PUSH2 0x78A JUMPI PUSH1 0x40 MLOAD PUSH3 0x461BCD PUSH1 0xE5 SHL DUP2 MSTORE PUSH1 0x20 PUSH1 0x4 DUP3 ADD MSTORE PUSH1 0x2A PUSH1 0x24 DUP3 ADD MSTORE PUSH32 0x4552433732313A2062616C616E636520717565727920666F7220746865207A65 PUSH1 0x44 DUP3 ADD MSTORE PUSH10 0x726F2061646472657373 PUSH1 0xB0 SHL PUSH1 0x64 DUP3 ADD MSTORE PUSH1 0x84 ADD PUSH2 0x3F9 JUMP JUMPDEST POP PUSH1 0x1 PUSH1 0x1 PUSH1 0xA0 SHL SUB AND PUSH1 0x0 SWAP1 DUP2 MSTORE PUSH1 0x3 PUSH1 0x20 MSTORE PUSH1 0x40 SWAP1 KECCAK256 SLOAD SWAP1 JUMP JUMPDEST PUSH1 0xB SLOAD PUSH1 0x1 PUSH1 0x1 PUSH1 0xA0 SHL SUB AND CALLER EQ PUSH2 0x7D0 JUMPI PUSH1 0x40 MLOAD PUSH3 0x461BCD PUSH1 0xE5 SHL DUP2 MSTORE PUSH1 0x4 ADD PUSH2 0x3F9 SWAP1 PUSH2 0x1ABD JUMP JUMPDEST PUSH1 0xB SLOAD PUSH1 0x40 MLOAD PUSH1 0x0 SWAP2 PUSH1 0x1 PUSH1 0x1 PUSH1 0xA0 SHL SUB AND SWAP1 PUSH32 0x8BE0079C531659141344CD1FD0A4F28419497F9722A3DAAFE3B4186F6B6457E0 SWAP1 DUP4 SWAP1 LOG3 PUSH1 0xB DUP1 SLOAD PUSH1 0x1 PUSH1 0x1 PUSH1 0xA0 SHL SUB NOT AND SWAP1 SSTORE JUMP JUMPDEST PUSH1 0x60 PUSH1 0x1 DUP1 SLOAD PUSH2 0x30E SWAP1 PUSH2 0x1A1C JUMP JUMPDEST CALLER PUSH1 0x1 PUSH1 0x1 PUSH1 0xA0 SHL SUB DUP4 AND SUB PUSH2 0x881 JUMPI PUSH1 0x40 MLOAD PUSH3 0x461BCD PUSH1 0xE5 SHL DUP2 MSTORE PUSH1 0x20 PUSH1 0x4 DUP3 ADD MSTORE PUSH1 0x19 PUSH1 0x24 DUP3 ADD MSTORE PUSH32 0x4552433732313A20617070726F766520746F2063616C6C657200000000000000 PUSH1 0x44 DUP3 ADD MSTORE PUSH1 0x64 ADD PUSH2 0x3F9 JUMP JUMPDEST CALLER PUSH1 0x0 DUP2 DUP2 MSTORE PUSH1 0x5 PUSH1 0x20 SWAP1 DUP2 MSTORE PUSH1 0x40 DUP1 DUP4 KECCAK256 PUSH1 0x1 PUSH1 0x1 PUSH1 0xA0 SHL SUB DUP8 AND DUP1 DUP6 MSTORE SWAP1 DUP4 MSTORE SWAP3 DUP2 SWAP1 KECCAK256 DUP1 SLOAD PUSH1 0xFF NOT AND DUP7 ISZERO ISZERO SWAP1 DUP2 OR SWAP1 SWAP2 SSTORE SWAP1 MLOAD SWAP1 DUP2 MSTORE SWAP2 SWAP3 SWAP2 PUSH32 0x17307EAB39AB6107E8899845AD3D59BD9653F200F220920489CA2B5937696C31 SWAP2 ADD PUSH1 0x40 MLOAD DUP1 SWAP2 SUB SWAP1 LOG3 POP POP JUMP JUMPDEST PUSH2 0x8F7 CALLER DUP4 PUSH2 0xB2E JUMP JUMPDEST PUSH2 0x913 JUMPI PUSH1 0x40 MLOAD PUSH3 0x461BCD PUSH1 0xE5 SHL DUP2 MSTORE PUSH1 0x4 ADD PUSH2 0x3F9 SWAP1 PUSH2 0x1A56 JUMP JUMPDEST PUSH2 0x91F DUP5 DUP5 DUP5 DUP5 PUSH2 0xDC3 JUMP JUMPDEST POP POP POP POP JUMP JUMPDEST PUSH1 0x60 PUSH2 0x2F9 DUP3 PUSH2 0xDF6 JUMP JUMPDEST PUSH1 0xB SLOAD PUSH1 0x0 SWAP1 PUSH1 0x1 PUSH1 0x1 PUSH1 0xA0 SHL SUB AND CALLER EQ PUSH2 0x95D JUMPI PUSH1 0x40 MLOAD PUSH3 0x461BCD PUSH1 0xE5 SHL DUP2 MSTORE PUSH1 0x4 ADD PUSH2 0x3F9 SWAP1 PUSH2 0x1ABD JUMP JUMPDEST PUSH2 0x96B PUSH1 0xC DUP1 SLOAD PUSH1 0x1 ADD SWAP1 SSTORE JUMP JUMPDEST PUSH1 0x0 PUSH2 0x976 PUSH1 0xC SLOAD SWAP1 JUMP JUMPDEST SWAP1 POP PUSH2 0x982 DUP5 DUP3 PUSH2 0xF64 JUMP JUMPDEST PUSH2 0x98C DUP2 DUP5 PUSH2 0xF82 JUMP JUMPDEST SWAP4 SWAP3 POP POP POP JUMP JUMPDEST PUSH1 0xB SLOAD PUSH1 0x1 PUSH1 0x1 PUSH1 0xA0 SHL SUB AND CALLER EQ PUSH2 0x9BD JUMPI PUSH1 0x40 MLOAD PUSH3 0x461BCD PUSH1 0xE5 SHL DUP2 MSTORE PUSH1 0x4 ADD PUSH2 0x3F9 SWAP1 PUSH2 0x1ABD JUMP JUMPDEST PUSH1 0x1 PUSH1 0x1 PUSH1 0xA0 SHL SUB DUP2 AND PUSH2 0xA22 JUMPI PUSH1 0x40 MLOAD PUSH3 0x461BCD PUSH1 0xE5 SHL DUP2 MSTORE PUSH1 0x20 PUSH1 0x4 DUP3 ADD MSTORE PUSH1 0x26 PUSH1 0x24 DUP3 ADD MSTORE PUSH32 0x4F776E61626C653A206E6577206F776E657220697320746865207A65726F2061 PUSH1 0x44 DUP3 ADD MSTORE PUSH6 0x646472657373 PUSH1 0xD0 SHL PUSH1 0x64 DUP3 ADD MSTORE PUSH1 0x84 ADD PUSH2 0x3F9 JUMP JUMPDEST PUSH1 0xB SLOAD PUSH1 0x40 MLOAD PUSH1 0x1 PUSH1 0x1 PUSH1 0xA0 SHL SUB DUP1 DUP5 AND SWAP3 AND SWAP1 PUSH32 0x8BE0079C531659141344CD1FD0A4F28419497F9722A3DAAFE3B4186F6B6457E0 SWAP1 PUSH1 0x0 SWAP1 LOG3 PUSH1 0xB DUP1 SLOAD PUSH1 0x1 PUSH1 0x1 PUSH1 0xA0 SHL SUB NOT AND PUSH1 0x1 PUSH1 0x1 PUSH1 0xA0 SHL SUB SWAP3 SWAP1 SWAP3 AND SWAP2 SWAP1 SWAP2 OR SWAP1 SSTORE JUMP JUMPDEST PUSH1 0x0 PUSH1 0x1 PUSH1 0x1 PUSH1 0xE0 SHL SUB NOT DUP3 AND PUSH4 0x780E9D63 PUSH1 0xE0 SHL EQ DUP1 PUSH2 0x2F9 JUMPI POP PUSH2 0x2F9 DUP3 PUSH2 0x1006 JUMP JUMPDEST PUSH1 0x0 SWAP1 DUP2 MSTORE PUSH1 0x2 PUSH1 0x20 MSTORE PUSH1 0x40 SWAP1 KECCAK256 SLOAD PUSH1 0x1 PUSH1 0x1 PUSH1 0xA0 SHL SUB AND ISZERO ISZERO SWAP1 JUMP JUMPDEST PUSH1 0x0 DUP2 DUP2 MSTORE PUSH1 0x4 PUSH1 0x20 MSTORE PUSH1 0x40 SWAP1 KECCAK256 DUP1 SLOAD PUSH1 0x1 PUSH1 0x1 PUSH1 0xA0 SHL SUB NOT AND PUSH1 0x1 PUSH1 0x1 PUSH1 0xA0 SHL SUB DUP5 AND SWAP1 DUP2 OR SWAP1 SWAP2 SSTORE DUP2 SWAP1 PUSH2 0xAF5 DUP3 PUSH2 0x6A8 JUMP JUMPDEST PUSH1 0x1 PUSH1 0x1 PUSH1 0xA0 SHL SUB AND PUSH32 0x8C5BE1E5EBEC7D5BD14F71427D1E84F3DD0314C0F7B2291E5B200AC8C7C3B925 PUSH1 0x40 MLOAD PUSH1 0x40 MLOAD DUP1 SWAP2 SUB SWAP1 LOG4 POP POP JUMP JUMPDEST PUSH1 0x0 PUSH2 0xB39 DUP3 PUSH2 0xAA3 JUMP JUMPDEST PUSH2 0xB9A JUMPI PUSH1 0x40 MLOAD PUSH3 0x461BCD PUSH1 0xE5 SHL DUP2 MSTORE PUSH1 0x20 PUSH1 0x4 DUP3 ADD MSTORE PUSH1 0x2C PUSH1 0x24 DUP3 ADD MSTORE PUSH32 0x4552433732313A206F70657261746F7220717565727920666F72206E6F6E6578 PUSH1 0x44 DUP3 ADD MSTORE PUSH12 0x34B9BA32B73A103A37B5B2B7 PUSH1 0xA1 SHL PUSH1 0x64 DUP3 ADD MSTORE PUSH1 0x84 ADD PUSH2 0x3F9 JUMP JUMPDEST PUSH1 0x0 PUSH2 0xBA5 DUP4 PUSH2 0x6A8 JUMP JUMPDEST SWAP1 POP DUP1 PUSH1 0x1 PUSH1 0x1 PUSH1 0xA0 SHL SUB AND DUP5 PUSH1 0x1 PUSH1 0x1 PUSH1 0xA0 SHL SUB AND EQ DUP1 PUSH2 0xBE0 JUMPI POP DUP4 PUSH1 0x1 PUSH1 0x1 PUSH1 0xA0 SHL SUB AND PUSH2 0xBD5 DUP5 PUSH2 0x391 JUMP JUMPDEST PUSH1 0x1 PUSH1 0x1 PUSH1 0xA0 SHL SUB AND EQ JUMPDEST DUP1 PUSH2 0xC10 JUMPI POP PUSH1 0x1 PUSH1 0x1 PUSH1 0xA0 SHL SUB DUP1 DUP3 AND PUSH1 0x0 SWAP1 DUP2 MSTORE PUSH1 0x5 PUSH1 0x20 SWAP1 DUP2 MSTORE PUSH1 0x40 DUP1 DUP4 KECCAK256 SWAP4 DUP9 AND DUP4 MSTORE SWAP3 SWAP1 MSTORE KECCAK256 SLOAD PUSH1 0xFF AND JUMPDEST SWAP5 SWAP4 POP POP POP POP JUMP JUMPDEST DUP3 PUSH1 0x1 PUSH1 0x1 PUSH1 0xA0 SHL SUB AND PUSH2 0xC2B DUP3 PUSH2 0x6A8 JUMP JUMPDEST PUSH1 0x1 PUSH1 0x1 PUSH1 0xA0 SHL SUB AND EQ PUSH2 0xC93 JUMPI PUSH1 0x40 MLOAD PUSH3 0x461BCD PUSH1 0xE5 SHL DUP2 MSTORE PUSH1 0x20 PUSH1 0x4 DUP3 ADD MSTORE PUSH1 0x29 PUSH1 0x24 DUP3 ADD MSTORE PUSH32 0x4552433732313A207472616E73666572206F6620746F6B656E20746861742069 PUSH1 0x44 DUP3 ADD MSTORE PUSH9 0x39903737BA1037BBB7 PUSH1 0xB9 SHL PUSH1 0x64 DUP3 ADD MSTORE PUSH1 0x84 ADD PUSH2 0x3F9 JUMP JUMPDEST PUSH1 0x1 PUSH1 0x1 PUSH1 0xA0 SHL SUB DUP3 AND PUSH2 0xCF5 JUMPI PUSH1 0x40 MLOAD PUSH3 0x461BCD PUSH1 0xE5 SHL DUP2 MSTORE PUSH1 0x20 PUSH1 0x4 DUP3 ADD MSTORE PUSH1 0x24 DUP1 DUP3 ADD MSTORE PUSH32 0x4552433732313A207472616E7366657220746F20746865207A65726F20616464 PUSH1 0x44 DUP3 ADD MSTORE PUSH4 0x72657373 PUSH1 0xE0 SHL PUSH1 0x64 DUP3 ADD MSTORE PUSH1 0x84 ADD PUSH2 0x3F9 JUMP JUMPDEST PUSH2 0xD00 DUP4 DUP4 DUP4 PUSH2 0x1056 JUMP JUMPDEST PUSH2 0xD0B PUSH1 0x0 DUP3 PUSH2 0xAC0 JUMP JUMPDEST PUSH1 0x1 PUSH1 0x1 PUSH1 0xA0 SHL SUB DUP4 AND PUSH1 0x0 SWAP1 DUP2 MSTORE PUSH1 0x3 PUSH1 0x20 MSTORE PUSH1 0x40 DUP2 KECCAK256 DUP1 SLOAD PUSH1 0x1 SWAP3 SWAP1 PUSH2 0xD34 SWAP1 DUP5 SWAP1 PUSH2 0x1B08 JUMP JUMPDEST SWAP1 SWAP2 SSTORE POP POP PUSH1 0x1 PUSH1 0x1 PUSH1 0xA0 SHL SUB DUP3 AND PUSH1 0x0 SWAP1 DUP2 MSTORE PUSH1 0x3 PUSH1 0x20 MSTORE PUSH1 0x40 DUP2 KECCAK256 DUP1 SLOAD PUSH1 0x1 SWAP3 SWAP1 PUSH2 0xD62 SWAP1 DUP5 SWAP1 PUSH2 0x1B1B JUMP JUMPDEST SWAP1 SWAP2 SSTORE POP POP PUSH1 0x0 DUP2 DUP2 MSTORE PUSH1 0x2 PUSH1 0x20 MSTORE PUSH1 0x40 DUP1 DUP3 KECCAK256 DUP1 SLOAD PUSH1 0x1 PUSH1 0x1 PUSH1 0xA0 SHL SUB NOT AND PUSH1 0x1 PUSH1 0x1 PUSH1 0xA0 SHL SUB DUP7 DUP2 AND SWAP2 DUP3 OR SWAP1 SWAP3 SSTORE SWAP2 MLOAD DUP5 SWAP4 SWAP2 DUP8 AND SWAP2 PUSH32 0xDDF252AD1BE2C89B69C2B068FC378DAA952BA7F163C4A11628F55A4DF523B3EF SWAP2 LOG4 POP POP POP JUMP JUMPDEST PUSH2 0xDCE DUP5 DUP5 DUP5 PUSH2 0xC18 JUMP JUMPDEST PUSH2 0xDDA DUP5 DUP5 DUP5 DUP5 PUSH2 0x1061 JUMP JUMPDEST PUSH2 0x91F JUMPI PUSH1 0x40 MLOAD PUSH3 0x461BCD PUSH1 0xE5 SHL DUP2 MSTORE PUSH1 0x4 ADD PUSH2 0x3F9 SWAP1 PUSH2 0x1B2E JUMP JUMPDEST PUSH1 0x60 PUSH2 0xE01 DUP3 PUSH2 0xAA3 JUMP JUMPDEST PUSH2 0xE67 JUMPI PUSH1 0x40 MLOAD PUSH3 0x461BCD PUSH1 0xE5 SHL DUP2 MSTORE PUSH1 0x20 PUSH1 0x4 DUP3 ADD MSTORE PUSH1 0x31 PUSH1 0x24 DUP3 ADD MSTORE PUSH32 0x45524337323155524953746F726167653A2055524920717565727920666F7220 PUSH1 0x44 DUP3 ADD MSTORE PUSH17 0x3737B732BC34B9BA32B73A103A37B5B2B7 PUSH1 0x79 SHL PUSH1 0x64 DUP3 ADD MSTORE PUSH1 0x84 ADD PUSH2 0x3F9 JUMP JUMPDEST PUSH1 0x0 DUP3 DUP2 MSTORE PUSH1 0xA PUSH1 0x20 MSTORE PUSH1 0x40 DUP2 KECCAK256 DUP1 SLOAD PUSH2 0xE80 SWAP1 PUSH2 0x1A1C JUMP JUMPDEST DUP1 PUSH1 0x1F ADD PUSH1 0x20 DUP1 SWAP2 DIV MUL PUSH1 0x20 ADD PUSH1 0x40 MLOAD SWAP1 DUP2 ADD PUSH1 0x40 MSTORE DUP1 SWAP3 SWAP2 SWAP1 DUP2 DUP2 MSTORE PUSH1 0x20 ADD DUP3 DUP1 SLOAD PUSH2 0xEAC SWAP1 PUSH2 0x1A1C JUMP JUMPDEST DUP1 ISZERO PUSH2 0xEF9 JUMPI DUP1 PUSH1 0x1F LT PUSH2 0xECE JUMPI PUSH2 0x100 DUP1 DUP4 SLOAD DIV MUL DUP4 MSTORE SWAP2 PUSH1 0x20 ADD SWAP2 PUSH2 0xEF9 JUMP JUMPDEST DUP3 ADD SWAP2 SWAP1 PUSH1 0x0 MSTORE PUSH1 0x20 PUSH1 0x0 KECCAK256 SWAP1 JUMPDEST DUP2 SLOAD DUP2 MSTORE SWAP1 PUSH1 0x1 ADD SWAP1 PUSH1 0x20 ADD DUP1 DUP4 GT PUSH2 0xEDC JUMPI DUP3 SWAP1 SUB PUSH1 0x1F AND DUP3 ADD SWAP2 JUMPDEST POP POP POP POP POP SWAP1 POP PUSH1 0x0 PUSH2 0xF17 PUSH1 0x40 DUP1 MLOAD PUSH1 0x20 DUP2 ADD SWAP1 SWAP2 MSTORE PUSH1 0x0 DUP2 MSTORE SWAP1 JUMP JUMPDEST SWAP1 POP DUP1 MLOAD PUSH1 0x0 SUB PUSH2 0xF29 JUMPI POP SWAP3 SWAP2 POP POP JUMP JUMPDEST DUP2 MLOAD ISZERO PUSH2 0xF5B JUMPI DUP1 DUP3 PUSH1 0x40 MLOAD PUSH1 0x20 ADD PUSH2 0xF43 SWAP3 SWAP2 SWAP1 PUSH2 0x1B80 JUMP JUMPDEST PUSH1 0x40 MLOAD PUSH1 0x20 DUP2 DUP4 SUB SUB DUP2 MSTORE SWAP1 PUSH1 0x40 MSTORE SWAP3 POP POP POP SWAP2 SWAP1 POP JUMP JUMPDEST PUSH2 0xC10 DUP5 PUSH2 0x1162 JUMP JUMPDEST PUSH2 0xF7E DUP3 DUP3 PUSH1 0x40 MLOAD DUP1 PUSH1 0x20 ADD PUSH1 0x40 MSTORE DUP1 PUSH1 0x0 DUP2 MSTORE POP PUSH2 0x1239 JUMP JUMPDEST POP POP JUMP JUMPDEST PUSH2 0xF8B DUP3 PUSH2 0xAA3 JUMP JUMPDEST PUSH2 0xFEE JUMPI PUSH1 0x40 MLOAD PUSH3 0x461BCD PUSH1 0xE5 SHL DUP2 MSTORE PUSH1 0x20 PUSH1 0x4 DUP3 ADD MSTORE PUSH1 0x2E PUSH1 0x24 DUP3 ADD MSTORE PUSH32 0x45524337323155524953746F726167653A2055524920736574206F66206E6F6E PUSH1 0x44 DUP3 ADD MSTORE PUSH14 0x32BC34B9BA32B73A103A37B5B2B7 PUSH1 0x91 SHL PUSH1 0x64 DUP3 ADD MSTORE PUSH1 0x84 ADD PUSH2 0x3F9 JUMP JUMPDEST PUSH1 0x0 DUP3 DUP2 MSTORE PUSH1 0xA PUSH1 0x20 MSTORE PUSH1 0x40 SWAP1 KECCAK256 PUSH2 0x52E DUP3 DUP3 PUSH2 0x1BFD JUMP JUMPDEST PUSH1 0x0 PUSH1 0x1 PUSH1 0x1 PUSH1 0xE0 SHL SUB NOT DUP3 AND PUSH4 0x80AC58CD PUSH1 0xE0 SHL EQ DUP1 PUSH2 0x1037 JUMPI POP PUSH1 0x1 PUSH1 0x1 PUSH1 0xE0 SHL SUB NOT DUP3 AND PUSH4 0x5B5E139F PUSH1 0xE0 SHL EQ JUMPDEST DUP1 PUSH2 0x2F9 JUMPI POP PUSH4 0x1FFC9A7 PUSH1 0xE0 SHL PUSH1 0x1 PUSH1 0x1 PUSH1 0xE0 SHL SUB NOT DUP4 AND EQ PUSH2 0x2F9 JUMP JUMPDEST PUSH2 0x52E DUP4 DUP4 DUP4 PUSH2 0x126C JUMP JUMPDEST PUSH1 0x0 PUSH1 0x1 PUSH1 0x1 PUSH1 0xA0 SHL SUB DUP5 AND EXTCODESIZE ISZERO PUSH2 0x1157 JUMPI PUSH1 0x40 MLOAD PUSH4 0xA85BD01 PUSH1 0xE1 SHL DUP2 MSTORE PUSH1 0x1 PUSH1 0x1 PUSH1 0xA0 SHL SUB DUP6 AND SWAP1 PUSH4 0x150B7A02 SWAP1 PUSH2 0x10A5 SWAP1 CALLER SWAP1 DUP10 SWAP1 DUP9 SWAP1 DUP9 SWAP1 PUSH1 0x4 ADD PUSH2 0x1CBD JUMP JUMPDEST PUSH1 0x20 PUSH1 0x40 MLOAD DUP1 DUP4 SUB DUP2 PUSH1 0x0 DUP8 GAS CALL SWAP3 POP POP POP DUP1 ISZERO PUSH2 0x10E0 JUMPI POP PUSH1 0x40 DUP1 MLOAD PUSH1 0x1F RETURNDATASIZE SWAP1 DUP2 ADD PUSH1 0x1F NOT AND DUP3 ADD SWAP1 SWAP3 MSTORE PUSH2 0x10DD SWAP2 DUP2 ADD SWAP1 PUSH2 0x1CFA JUMP JUMPDEST PUSH1 0x1 JUMPDEST PUSH2 0x113D JUMPI RETURNDATASIZE DUP1 DUP1 ISZERO PUSH2 0x110E JUMPI PUSH1 0x40 MLOAD SWAP2 POP PUSH1 0x1F NOT PUSH1 0x3F RETURNDATASIZE ADD AND DUP3 ADD PUSH1 0x40 MSTORE RETURNDATASIZE DUP3 MSTORE RETURNDATASIZE PUSH1 0x0 PUSH1 0x20 DUP5 ADD RETURNDATACOPY PUSH2 0x1113 JUMP JUMPDEST PUSH1 0x60 SWAP2 POP JUMPDEST POP DUP1 MLOAD PUSH1 0x0 SUB PUSH2 0x1135 JUMPI PUSH1 0x40 MLOAD PUSH3 0x461BCD PUSH1 0xE5 SHL DUP2 MSTORE PUSH1 0x4 ADD PUSH2 0x3F9 SWAP1 PUSH2 0x1B2E JUMP JUMPDEST DUP1 MLOAD DUP2 PUSH1 0x20 ADD REVERT JUMPDEST PUSH1 0x1 PUSH1 0x1 PUSH1 0xE0 SHL SUB NOT AND PUSH4 0xA85BD01 PUSH1 0xE1 SHL EQ SWAP1 POP PUSH2 0xC10 JUMP JUMPDEST POP PUSH1 0x1 SWAP5 SWAP4 POP POP POP POP JUMP JUMPDEST PUSH1 0x60 PUSH2 0x116D DUP3 PUSH2 0xAA3 JUMP JUMPDEST PUSH2 0x11D1 JUMPI PUSH1 0x40 MLOAD PUSH3 0x461BCD PUSH1 0xE5 SHL DUP2 MSTORE PUSH1 0x20 PUSH1 0x4 DUP3 ADD MSTORE PUSH1 0x2F PUSH1 0x24 DUP3 ADD MSTORE PUSH32 0x4552433732314D657461646174613A2055524920717565727920666F72206E6F PUSH1 0x44 DUP3 ADD MSTORE PUSH15 0x3732BC34B9BA32B73A103A37B5B2B7 PUSH1 0x89 SHL PUSH1 0x64 DUP3 ADD MSTORE PUSH1 0x84 ADD PUSH2 0x3F9 JUMP JUMPDEST PUSH1 0x0 PUSH2 0x11E8 PUSH1 0x40 DUP1 MLOAD PUSH1 0x20 DUP2 ADD SWAP1 SWAP2 MSTORE PUSH1 0x0 DUP2 MSTORE SWAP1 JUMP JUMPDEST SWAP1 POP PUSH1 0x0 DUP2 MLOAD GT PUSH2 0x1208 JUMPI PUSH1 0x40 MLOAD DUP1 PUSH1 0x20 ADD PUSH1 0x40 MSTORE DUP1 PUSH1 0x0 DUP2 MSTORE POP PUSH2 0x98C JUMP JUMPDEST DUP1 PUSH2 0x1212 DUP5 PUSH2 0x1324 JUMP JUMPDEST PUSH1 0x40 MLOAD PUSH1 0x20 ADD PUSH2 0x1223 SWAP3 SWAP2 SWAP1 PUSH2 0x1B80 JUMP JUMPDEST PUSH1 0x40 MLOAD PUSH1 0x20 DUP2 DUP4 SUB SUB DUP2 MSTORE SWAP1 PUSH1 0x40 MSTORE SWAP4 SWAP3 POP POP POP JUMP JUMPDEST PUSH2 0x1243 DUP4 DUP4 PUSH2 0x1425 JUMP JUMPDEST PUSH2 0x1250 PUSH1 0x0 DUP5 DUP5 DUP5 PUSH2 0x1061 JUMP JUMPDEST PUSH2 0x52E JUMPI PUSH1 0x40 MLOAD PUSH3 0x461BCD PUSH1 0xE5 SHL DUP2 MSTORE PUSH1 0x4 ADD PUSH2 0x3F9 SWAP1 PUSH2 0x1B2E JUMP JUMPDEST PUSH1 0x1 PUSH1 0x1 PUSH1 0xA0 SHL SUB DUP4 AND PUSH2 0x12C7 JUMPI PUSH2 0x12C2 DUP2 PUSH1 0x8 DUP1 SLOAD PUSH1 0x0 DUP4 DUP2 MSTORE PUSH1 0x9 PUSH1 0x20 MSTORE PUSH1 0x40 DUP2 KECCAK256 DUP3 SWAP1 SSTORE PUSH1 0x1 DUP3 ADD DUP4 SSTORE SWAP2 SWAP1 SWAP2 MSTORE PUSH32 0xF3F7A9FE364FAAB93B216DA50A3214154F22A0A2B415B23A84C8169E8B636EE3 ADD SSTORE JUMP JUMPDEST PUSH2 0x12EA JUMP JUMPDEST DUP2 PUSH1 0x1 PUSH1 0x1 PUSH1 0xA0 SHL SUB AND DUP4 PUSH1 0x1 PUSH1 0x1 PUSH1 0xA0 SHL SUB AND EQ PUSH2 0x12EA JUMPI PUSH2 0x12EA DUP4 DUP3 PUSH2 0x1564 JUMP JUMPDEST PUSH1 0x1 PUSH1 0x1 PUSH1 0xA0 SHL SUB DUP3 AND PUSH2 0x1301 JUMPI PUSH2 0x52E DUP2 PUSH2 0x1601 JUMP JUMPDEST DUP3 PUSH1 0x1 PUSH1 0x1 PUSH1 0xA0 SHL SUB AND DUP3 PUSH1 0x1 PUSH1 0x1 PUSH1 0xA0 SHL SUB AND EQ PUSH2 0x52E JUMPI PUSH2 0x52E DUP3 DUP3 PUSH2 0x16B0 JUMP JUMPDEST PUSH1 0x60 DUP2 PUSH1 0x0 SUB PUSH2 0x134B JUMPI POP POP PUSH1 0x40 DUP1 MLOAD DUP1 DUP3 ADD SWAP1 SWAP2 MSTORE PUSH1 0x1 DUP2 MSTORE PUSH1 0x3 PUSH1 0xFC SHL PUSH1 0x20 DUP3 ADD MSTORE SWAP1 JUMP JUMPDEST DUP2 PUSH1 0x0 JUMPDEST DUP2 ISZERO PUSH2 0x1375 JUMPI DUP1 PUSH2 0x135F DUP2 PUSH2 0x1D17 JUMP JUMPDEST SWAP2 POP PUSH2 0x136E SWAP1 POP PUSH1 0xA DUP4 PUSH2 0x1D46 JUMP JUMPDEST SWAP2 POP PUSH2 0x134F JUMP JUMPDEST PUSH1 0x0 DUP2 PUSH8 0xFFFFFFFFFFFFFFFF DUP2 GT ISZERO PUSH2 0x1390 JUMPI PUSH2 0x1390 PUSH2 0x187F JUMP JUMPDEST PUSH1 0x40 MLOAD SWAP1 DUP1 DUP3 MSTORE DUP1 PUSH1 0x1F ADD PUSH1 0x1F NOT AND PUSH1 0x20 ADD DUP3 ADD PUSH1 0x40 MSTORE DUP1 ISZERO PUSH2 0x13BA JUMPI PUSH1 0x20 DUP3 ADD DUP2 DUP1 CALLDATASIZE DUP4 CALLDATACOPY ADD SWAP1 POP JUMPDEST POP SWAP1 POP JUMPDEST DUP5 ISZERO PUSH2 0xC10 JUMPI PUSH2 0x13CF PUSH1 0x1 DUP4 PUSH2 0x1B08 JUMP JUMPDEST SWAP2 POP PUSH2 0x13DC PUSH1 0xA DUP7 PUSH2 0x1D5A JUMP JUMPDEST PUSH2 0x13E7 SWAP1 PUSH1 0x30 PUSH2 0x1B1B JUMP JUMPDEST PUSH1 0xF8 SHL DUP2 DUP4 DUP2 MLOAD DUP2 LT PUSH2 0x13FC JUMPI PUSH2 0x13FC PUSH2 0x1AA7 JUMP JUMPDEST PUSH1 0x20 ADD ADD SWAP1 PUSH1 0x1 PUSH1 0x1 PUSH1 0xF8 SHL SUB NOT AND SWAP1 DUP2 PUSH1 0x0 BYTE SWAP1 MSTORE8 POP PUSH2 0x141E PUSH1 0xA DUP7 PUSH2 0x1D46 JUMP JUMPDEST SWAP5 POP PUSH2 0x13BE JUMP JUMPDEST PUSH1 0x1 PUSH1 0x1 PUSH1 0xA0 SHL SUB DUP3 AND PUSH2 0x147B JUMPI PUSH1 0x40 MLOAD PUSH3 0x461BCD PUSH1 0xE5 SHL DUP2 MSTORE PUSH1 0x20 PUSH1 0x4 DUP3 ADD DUP2 SWAP1 MSTORE PUSH1 0x24 DUP3 ADD MSTORE PUSH32 0x4552433732313A206D696E7420746F20746865207A65726F2061646472657373 PUSH1 0x44 DUP3 ADD MSTORE PUSH1 0x64 ADD PUSH2 0x3F9 JUMP JUMPDEST PUSH2 0x1484 DUP2 PUSH2 0xAA3 JUMP JUMPDEST ISZERO PUSH2 0x14D1 JUMPI PUSH1 0x40 MLOAD PUSH3 0x461BCD PUSH1 0xE5 SHL DUP2 MSTORE PUSH1 0x20 PUSH1 0x4 DUP3 ADD MSTORE PUSH1 0x1C PUSH1 0x24 DUP3 ADD MSTORE PUSH32 0x4552433732313A20746F6B656E20616C7265616479206D696E74656400000000 PUSH1 0x44 DUP3 ADD MSTORE PUSH1 0x64 ADD PUSH2 0x3F9 JUMP JUMPDEST PUSH2 0x14DD PUSH1 0x0 DUP4 DUP4 PUSH2 0x1056 JUMP JUMPDEST PUSH1 0x1 PUSH1 0x1 PUSH1 0xA0 SHL SUB DUP3 AND PUSH1 0x0 SWAP1 DUP2 MSTORE PUSH1 0x3 PUSH1 0x20 MSTORE PUSH1 0x40 DUP2 KECCAK256 DUP1 SLOAD PUSH1 0x1 SWAP3 SWAP1 PUSH2 0x1506 SWAP1 DUP5 SWAP1 PUSH2 0x1B1B JUMP JUMPDEST SWAP1 SWAP2 SSTORE POP POP PUSH1 0x0 DUP2 DUP2 MSTORE PUSH1 0x2 PUSH1 0x20 MSTORE PUSH1 0x40 DUP1 DUP3 KECCAK256 DUP1 SLOAD PUSH1 0x1 PUSH1 0x1 PUSH1 0xA0 SHL SUB NOT AND PUSH1 0x1 PUSH1 0x1 PUSH1 0xA0 SHL SUB DUP7 AND SWAP1 DUP2 OR SWAP1 SWAP2 SSTORE SWAP1 MLOAD DUP4 SWAP3 SWAP1 PUSH32 0xDDF252AD1BE2C89B69C2B068FC378DAA952BA7F163C4A11628F55A4DF523B3EF SWAP1 DUP3 SWAP1 LOG4 POP POP JUMP JUMPDEST PUSH1 0x0 PUSH1 0x1 PUSH2 0x1571 DUP5 PUSH2 0x71F JUMP JUMPDEST PUSH2 0x157B SWAP2 SWAP1 PUSH2 0x1B08 JUMP JUMPDEST PUSH1 0x0 DUP4 DUP2 MSTORE PUSH1 0x7 PUSH1 0x20 MSTORE PUSH1 0x40 SWAP1 KECCAK256 SLOAD SWAP1 SWAP2 POP DUP1 DUP3 EQ PUSH2 0x15CE JUMPI PUSH1 0x1 PUSH1 0x1 PUSH1 0xA0 SHL SUB DUP5 AND PUSH1 0x0 SWAP1 DUP2 MSTORE PUSH1 0x6 PUSH1 0x20 SWAP1 DUP2 MSTORE PUSH1 0x40 DUP1 DUP4 KECCAK256 DUP6 DUP5 MSTORE DUP3 MSTORE DUP1 DUP4 KECCAK256 SLOAD DUP5 DUP5 MSTORE DUP2 DUP5 KECCAK256 DUP2 SWAP1 SSTORE DUP4 MSTORE PUSH1 0x7 SWAP1 SWAP2 MSTORE SWAP1 KECCAK256 DUP2 SWAP1 SSTORE JUMPDEST POP PUSH1 0x0 SWAP2 DUP3 MSTORE PUSH1 0x7 PUSH1 0x20 SWAP1 DUP2 MSTORE PUSH1 0x40 DUP1 DUP5 KECCAK256 DUP5 SWAP1 SSTORE PUSH1 0x1 PUSH1 0x1 PUSH1 0xA0 SHL SUB SWAP1 SWAP5 AND DUP4 MSTORE PUSH1 0x6 DUP2 MSTORE DUP4 DUP4 KECCAK256 SWAP2 DUP4 MSTORE MSTORE SWAP1 DUP2 KECCAK256 SSTORE JUMP JUMPDEST PUSH1 0x8 SLOAD PUSH1 0x0 SWAP1 PUSH2 0x1613 SWAP1 PUSH1 0x1 SWAP1 PUSH2 0x1B08 JUMP JUMPDEST PUSH1 0x0 DUP4 DUP2 MSTORE PUSH1 0x9 PUSH1 0x20 MSTORE PUSH1 0x40 DUP2 KECCAK256 SLOAD PUSH1 0x8 DUP1 SLOAD SWAP4 SWAP5 POP SWAP1 SWAP3 DUP5 SWAP1 DUP2 LT PUSH2 0x163B JUMPI PUSH2 0x163B PUSH2 0x1AA7 JUMP JUMPDEST SWAP1 PUSH1 0x0 MSTORE PUSH1 0x20 PUSH1 0x0 KECCAK256 ADD SLOAD SWAP1 POP DUP1 PUSH1 0x8 DUP4 DUP2 SLOAD DUP2 LT PUSH2 0x165C JUMPI PUSH2 0x165C PUSH2 0x1AA7 JUMP JUMPDEST PUSH1 0x0 SWAP2 DUP3 MSTORE PUSH1 0x20 DUP1 DUP4 KECCAK256 SWAP1 SWAP2 ADD SWAP3 SWAP1 SWAP3 SSTORE DUP3 DUP2 MSTORE PUSH1 0x9 SWAP1 SWAP2 MSTORE PUSH1 0x40 DUP1 DUP3 KECCAK256 DUP5 SWAP1 SSTORE DUP6 DUP3 MSTORE DUP2 KECCAK256 SSTORE PUSH1 0x8 DUP1 SLOAD DUP1 PUSH2 0x1694 JUMPI PUSH2 0x1694 PUSH2 0x1D6E JUMP JUMPDEST PUSH1 0x1 SWAP1 SUB DUP2 DUP2 SWAP1 PUSH1 0x0 MSTORE PUSH1 0x20 PUSH1 0x0 KECCAK256 ADD PUSH1 0x0 SWAP1 SSTORE SWAP1 SSTORE POP POP POP POP JUMP JUMPDEST PUSH1 0x0 PUSH2 0x16BB DUP4 PUSH2 0x71F JUMP JUMPDEST PUSH1 0x1 PUSH1 0x1 PUSH1 0xA0 SHL SUB SWAP1 SWAP4 AND PUSH1 0x0 SWAP1 DUP2 MSTORE PUSH1 0x6 PUSH1 0x20 SWAP1 DUP2 MSTORE PUSH1 0x40 DUP1 DUP4 KECCAK256 DUP7 DUP5 MSTORE DUP3 MSTORE DUP1 DUP4 KECCAK256 DUP6 SWAP1 SSTORE SWAP4 DUP3 MSTORE PUSH1 0x7 SWAP1 MSTORE SWAP2 SWAP1 SWAP2 KECCAK256 SWAP2 SWAP1 SWAP2 SSTORE POP JUMP JUMPDEST PUSH1 0x1 PUSH1 0x1 PUSH1 0xE0 SHL SUB NOT DUP2 AND DUP2 EQ PUSH2 0x170A JUMPI PUSH1 0x0 DUP1 REVERT JUMPDEST POP JUMP JUMPDEST PUSH1 0x0 PUSH1 0x20 DUP3 DUP5 SUB SLT ISZERO PUSH2 0x171F JUMPI PUSH1 0x0 DUP1 REVERT JUMPDEST DUP2 CALLDATALOAD PUSH2 0x98C DUP2 PUSH2 0x16F4 JUMP JUMPDEST PUSH1 0x0 JUMPDEST DUP4 DUP2 LT ISZERO PUSH2 0x1745 JUMPI DUP2 DUP2 ADD MLOAD DUP4 DUP3 ADD MSTORE PUSH1 0x20 ADD PUSH2 0x172D JUMP JUMPDEST POP POP PUSH1 0x0 SWAP2 ADD MSTORE JUMP JUMPDEST PUSH1 0x0 DUP2 MLOAD DUP1 DUP5 MSTORE PUSH2 0x1766 DUP2 PUSH1 0x20 DUP7 ADD PUSH1 0x20 DUP7 ADD PUSH2 0x172A JUMP JUMPDEST PUSH1 0x1F ADD PUSH1 0x1F NOT AND SWAP3 SWAP1 SWAP3 ADD PUSH1 0x20 ADD SWAP3 SWAP2 POP POP JUMP JUMPDEST PUSH1 0x20 DUP2 MSTORE PUSH1 0x0 PUSH2 0x98C PUSH1 0x20 DUP4 ADD DUP5 PUSH2 0x174E JUMP JUMPDEST PUSH1 0x0 PUSH1 0x20 DUP3 DUP5 SUB SLT ISZERO PUSH2 0x179F JUMPI PUSH1 0x0 DUP1 REVERT JUMPDEST POP CALLDATALOAD SWAP2 SWAP1 POP JUMP JUMPDEST DUP1 CALLDATALOAD PUSH1 0x1 PUSH1 0x1 PUSH1 0xA0 SHL SUB DUP2 AND DUP2 EQ PUSH2 0x17BD JUMPI PUSH1 0x0 DUP1 REVERT JUMPDEST SWAP2 SWAP1 POP JUMP JUMPDEST PUSH1 0x0 DUP1 PUSH1 0x40 DUP4 DUP6 SUB SLT ISZERO PUSH2 0x17D5 JUMPI PUSH1 0x0 DUP1 REVERT JUMPDEST PUSH2 0x17DE DUP4 PUSH2 0x17A6 JUMP JUMPDEST SWAP5 PUSH1 0x20 SWAP4 SWAP1 SWAP4 ADD CALLDATALOAD SWAP4 POP POP POP JUMP JUMPDEST PUSH1 0x0 DUP1 PUSH1 0x0 PUSH1 0x60 DUP5 DUP7 SUB SLT ISZERO PUSH2 0x1801 JUMPI PUSH1 0x0 DUP1 REVERT JUMPDEST PUSH2 0x180A DUP5 PUSH2 0x17A6 JUMP JUMPDEST SWAP3 POP PUSH2 0x1818 PUSH1 0x20 DUP6 ADD PUSH2 0x17A6 JUMP JUMPDEST SWAP2 POP PUSH1 0x40 DUP5 ADD CALLDATALOAD SWAP1 POP SWAP3 POP SWAP3 POP SWAP3 JUMP JUMPDEST PUSH1 0x0 PUSH1 0x20 DUP3 DUP5 SUB SLT ISZERO PUSH2 0x183A JUMPI PUSH1 0x0 DUP1 REVERT JUMPDEST PUSH2 0x98C DUP3 PUSH2 0x17A6 JUMP JUMPDEST PUSH1 0x0 DUP1 PUSH1 0x40 DUP4 DUP6 SUB SLT ISZERO PUSH2 0x1856 JUMPI PUSH1 0x0 DUP1 REVERT JUMPDEST PUSH2 0x185F DUP4 PUSH2 0x17A6 JUMP JUMPDEST SWAP2 POP PUSH1 0x20 DUP4 ADD CALLDATALOAD DUP1 ISZERO ISZERO DUP2 EQ PUSH2 0x1874 JUMPI PUSH1 0x0 DUP1 REVERT JUMPDEST DUP1 SWAP2 POP POP SWAP3 POP SWAP3 SWAP1 POP JUMP JUMPDEST PUSH4 0x4E487B71 PUSH1 0xE0 SHL PUSH1 0x0 MSTORE PUSH1 0x41 PUSH1 0x4 MSTORE PUSH1 0x24 PUSH1 0x0 REVERT JUMPDEST PUSH1 0x0 PUSH8 0xFFFFFFFFFFFFFFFF DUP1 DUP5 GT ISZERO PUSH2 0x18B0 JUMPI PUSH2 0x18B0 PUSH2 0x187F JUMP JUMPDEST PUSH1 0x40 MLOAD PUSH1 0x1F DUP6 ADD PUSH1 0x1F NOT SWAP1 DUP2 AND PUSH1 0x3F ADD AND DUP2 ADD SWAP1 DUP3 DUP3 GT DUP2 DUP4 LT OR ISZERO PUSH2 0x18D8 JUMPI PUSH2 0x18D8 PUSH2 0x187F JUMP JUMPDEST DUP2 PUSH1 0x40 MSTORE DUP1 SWAP4 POP DUP6 DUP2 MSTORE DUP7 DUP7 DUP7 ADD GT ISZERO PUSH2 0x18F1 JUMPI PUSH1 0x0 DUP1 REVERT JUMPDEST DUP6 DUP6 PUSH1 0x20 DUP4 ADD CALLDATACOPY PUSH1 0x0 PUSH1 0x20 DUP8 DUP4 ADD ADD MSTORE POP POP POP SWAP4 SWAP3 POP POP POP JUMP JUMPDEST PUSH1 0x0 DUP1 PUSH1 0x0 DUP1 PUSH1 0x80 DUP6 DUP8 SUB SLT ISZERO PUSH2 0x1921 JUMPI PUSH1 0x0 DUP1 REVERT JUMPDEST PUSH2 0x192A DUP6 PUSH2 0x17A6 JUMP JUMPDEST SWAP4 POP PUSH2 0x1938 PUSH1 0x20 DUP7 ADD PUSH2 0x17A6 JUMP JUMPDEST SWAP3 POP PUSH1 0x40 DUP6 ADD CALLDATALOAD SWAP2 POP PUSH1 0x60 DUP6 ADD CALLDATALOAD PUSH8 0xFFFFFFFFFFFFFFFF DUP2 GT ISZERO PUSH2 0x195B JUMPI PUSH1 0x0 DUP1 REVERT JUMPDEST DUP6 ADD PUSH1 0x1F DUP2 ADD DUP8 SGT PUSH2 0x196C JUMPI PUSH1 0x0 DUP1 REVERT JUMPDEST PUSH2 0x197B DUP8 DUP3 CALLDATALOAD PUSH1 0x20 DUP5 ADD PUSH2 0x1895 JUMP JUMPDEST SWAP2 POP POP SWAP3 SWAP6 SWAP2 SWAP5 POP SWAP3 POP JUMP JUMPDEST PUSH1 0x0 DUP1 PUSH1 0x40 DUP4 DUP6 SUB SLT ISZERO PUSH2 0x199A JUMPI PUSH1 0x0 DUP1 REVERT JUMPDEST PUSH2 0x19A3 DUP4 PUSH2 0x17A6 JUMP JUMPDEST SWAP2 POP PUSH1 0x20 DUP4 ADD CALLDATALOAD PUSH8 0xFFFFFFFFFFFFFFFF DUP2 GT ISZERO PUSH2 0x19BF JUMPI PUSH1 0x0 DUP1 REVERT JUMPDEST DUP4 ADD PUSH1 0x1F DUP2 ADD DUP6 SGT PUSH2 0x19D0 JUMPI PUSH1 0x0 DUP1 REVERT JUMPDEST PUSH2 0x19DF DUP6 DUP3 CALLDATALOAD PUSH1 0x20 DUP5 ADD PUSH2 0x1895 JUMP JUMPDEST SWAP2 POP POP SWAP3 POP SWAP3 SWAP1 POP JUMP JUMPDEST PUSH1 0x0 DUP1 PUSH1 0x40 DUP4 DUP6 SUB SLT ISZERO PUSH2 0x19FC JUMPI PUSH1 0x0 DUP1 REVERT JUMPDEST PUSH2 0x1A05 DUP4 PUSH2 0x17A6 JUMP JUMPDEST SWAP2 POP PUSH2 0x1A13 PUSH1 0x20 DUP5 ADD PUSH2 0x17A6 JUMP JUMPDEST SWAP1 POP SWAP3 POP SWAP3 SWAP1 POP JUMP JUMPDEST PUSH1 0x1 DUP2 DUP2 SHR SWAP1 DUP3 AND DUP1 PUSH2 0x1A30 JUMPI PUSH1 0x7F DUP3 AND SWAP2 POP JUMPDEST PUSH1 0x20 DUP3 LT DUP2 SUB PUSH2 0x1A50 JUMPI PUSH4 0x4E487B71 PUSH1 0xE0 SHL PUSH1 0x0 MSTORE PUSH1 0x22 PUSH1 0x4 MSTORE PUSH1 0x24 PUSH1 0x0 REVERT JUMPDEST POP SWAP2 SWAP1 POP JUMP JUMPDEST PUSH1 0x20 DUP1 DUP3 MSTORE PUSH1 0x31 SWAP1 DUP3 ADD MSTORE PUSH32 0x4552433732313A207472616E736665722063616C6C6572206973206E6F74206F PUSH1 0x40 DUP3 ADD MSTORE PUSH17 0x1DDB995C881B9BDC88185C1C1C9BDD9959 PUSH1 0x7A SHL PUSH1 0x60 DUP3 ADD MSTORE PUSH1 0x80 ADD SWAP1 JUMP JUMPDEST PUSH4 0x4E487B71 PUSH1 0xE0 SHL PUSH1 0x0 MSTORE PUSH1 0x32 PUSH1 0x4 MSTORE PUSH1 0x24 PUSH1 0x0 REVERT JUMPDEST PUSH1 0x20 DUP1 DUP3 MSTORE DUP2 DUP2 ADD MSTORE PUSH32 0x4F776E61626C653A2063616C6C6572206973206E6F7420746865206F776E6572 PUSH1 0x40 DUP3 ADD MSTORE PUSH1 0x60 ADD SWAP1 JUMP JUMPDEST PUSH4 0x4E487B71 PUSH1 0xE0 SHL PUSH1 0x0 MSTORE PUSH1 0x11 PUSH1 0x4 MSTORE PUSH1 0x24 PUSH1 0x0 REVERT JUMPDEST DUP2 DUP2 SUB DUP2 DUP2 GT ISZERO PUSH2 0x2F9 JUMPI PUSH2 0x2F9 PUSH2 0x1AF2 JUMP JUMPDEST DUP1 DUP3 ADD DUP1 DUP3 GT ISZERO PUSH2 0x2F9 JUMPI PUSH2 0x2F9 PUSH2 0x1AF2 JUMP JUMPDEST PUSH1 0x20 DUP1 DUP3 MSTORE PUSH1 0x32 SWAP1 DUP3 ADD MSTORE PUSH32 0x4552433732313A207472616E7366657220746F206E6F6E204552433732315265 PUSH1 0x40 DUP3 ADD MSTORE PUSH18 0x31B2B4BB32B91034B6B83632B6B2B73A32B9 PUSH1 0x71 SHL PUSH1 0x60 DUP3 ADD MSTORE PUSH1 0x80 ADD SWAP1 JUMP JUMPDEST PUSH1 0x0 DUP4 MLOAD PUSH2 0x1B92 DUP2 DUP5 PUSH1 0x20 DUP9 ADD PUSH2 0x172A JUMP JUMPDEST DUP4 MLOAD SWAP1 DUP4 ADD SWAP1 PUSH2 0x1BA6 DUP2 DUP4 PUSH1 0x20 DUP9 ADD PUSH2 0x172A JUMP JUMPDEST ADD SWAP5 SWAP4 POP POP POP POP JUMP JUMPDEST PUSH1 0x1F DUP3 GT ISZERO PUSH2 0x52E JUMPI PUSH1 0x0 DUP2 DUP2 MSTORE PUSH1 0x20 DUP2 KECCAK256 PUSH1 0x1F DUP6 ADD PUSH1 0x5 SHR DUP2 ADD PUSH1 0x20 DUP7 LT ISZERO PUSH2 0x1BD6 JUMPI POP DUP1 JUMPDEST PUSH1 0x1F DUP6 ADD PUSH1 0x5 SHR DUP3 ADD SWAP2 POP JUMPDEST DUP2 DUP2 LT ISZERO PUSH2 0x1BF5 JUMPI DUP3 DUP2 SSTORE PUSH1 0x1 ADD PUSH2 0x1BE2 JUMP JUMPDEST POP POP POP POP POP POP JUMP JUMPDEST DUP2 MLOAD PUSH8 0xFFFFFFFFFFFFFFFF DUP2 GT ISZERO PUSH2 0x1C17 JUMPI PUSH2 0x1C17 PUSH2 0x187F JUMP JUMPDEST PUSH2 0x1C2B DUP2 PUSH2 0x1C25 DUP5 SLOAD PUSH2 0x1A1C JUMP JUMPDEST DUP5 PUSH2 0x1BAF JUMP JUMPDEST PUSH1 0x20 DUP1 PUSH1 0x1F DUP4 GT PUSH1 0x1 DUP2 EQ PUSH2 0x1C60 JUMPI PUSH1 0x0 DUP5 ISZERO PUSH2 0x1C48 JUMPI POP DUP6 DUP4 ADD MLOAD JUMPDEST PUSH1 0x0 NOT PUSH1 0x3 DUP7 SWAP1 SHL SHR NOT AND PUSH1 0x1 DUP6 SWAP1 SHL OR DUP6 SSTORE PUSH2 0x1BF5 JUMP JUMPDEST PUSH1 0x0 DUP6 DUP2 MSTORE PUSH1 0x20 DUP2 KECCAK256 PUSH1 0x1F NOT DUP7 AND SWAP2 JUMPDEST DUP3 DUP2 LT ISZERO PUSH2 0x1C8F JUMPI DUP9 DUP7 ADD MLOAD DUP3 SSTORE SWAP5 DUP5 ADD SWAP5 PUSH1 0x1 SWAP1 SWAP2 ADD SWAP1 DUP5 ADD PUSH2 0x1C70 JUMP JUMPDEST POP DUP6 DUP3 LT ISZERO PUSH2 0x1CAD JUMPI DUP8 DUP6 ADD MLOAD PUSH1 0x0 NOT PUSH1 0x3 DUP9 SWAP1 SHL PUSH1 0xF8 AND SHR NOT AND DUP2 SSTORE JUMPDEST POP POP POP POP POP PUSH1 0x1 SWAP1 DUP2 SHL ADD SWAP1 SSTORE POP JUMP JUMPDEST PUSH1 0x1 PUSH1 0x1 PUSH1 0xA0 SHL SUB DUP6 DUP2 AND DUP3 MSTORE DUP5 AND PUSH1 0x20 DUP3 ADD MSTORE PUSH1 0x40 DUP2 ADD DUP4 SWAP1 MSTORE PUSH1 0x80 PUSH1 0x60 DUP3 ADD DUP2 SWAP1 MSTORE PUSH1 0x0 SWAP1 PUSH2 0x1CF0 SWAP1 DUP4 ADD DUP5 PUSH2 0x174E JUMP JUMPDEST SWAP7 SWAP6 POP POP POP POP POP POP JUMP JUMPDEST PUSH1 0x0 PUSH1 0x20 DUP3 DUP5 SUB SLT ISZERO PUSH2 0x1D0C JUMPI PUSH1 0x0 DUP1 REVERT JUMPDEST DUP2 MLOAD PUSH2 0x98C DUP2 PUSH2 0x16F4 JUMP JUMPDEST PUSH1 0x0 PUSH1 0x1 DUP3 ADD PUSH2 0x1D29 JUMPI PUSH2 0x1D29 PUSH2 0x1AF2 JUMP JUMPDEST POP PUSH1 0x1 ADD SWAP1 JUMP JUMPDEST PUSH4 0x4E487B71 PUSH1 0xE0 SHL PUSH1 0x0 MSTORE PUSH1 0x12 PUSH1 0x4 MSTORE PUSH1 0x24 PUSH1 0x0 REVERT JUMPDEST PUSH1 0x0 DUP3 PUSH2 0x1D55 JUMPI PUSH2 0x1D55 PUSH2 0x1D30 JUMP JUMPDEST POP DIV SWAP1 JUMP JUMPDEST PUSH1 0x0 DUP3 PUSH2 0x1D69 JUMPI PUSH2 0x1D69 PUSH2 0x1D30 JUMP JUMPDEST POP MOD SWAP1 JUMP JUMPDEST PUSH4 0x4E487B71 PUSH1 0xE0 SHL PUSH1 0x0 MSTORE PUSH1 0x31 PUSH1 0x4 MSTORE PUSH1 0x24 PUSH1 0x0 REVERT INVALID LOG2 PUSH5 0x6970667358 0x22 SLT KECCAK256 0xC7 0xEE LOG0 SWAP5 0xF LOG2 0xE5 LOG0 DIV SWAP14 ORIGIN EXTCODESIZE DUP15 0xD8 SUB 0xF7 DUP10 0xBB 0xDA 0xC6 SELFBALANCE DIV NUMBER NOT GASLIMIT SWAP7 DUP14 0xD3 GAS 0xF 0x1F COINBASE PUSH5 0x736F6C6343 STOP ADDMOD SLT STOP CALLER "
				},
				"gasEstimates": {
					"creation": {
						"codeDepositCost": "1522000",
						"executionCost": "infinite",
						"totalCost": "infinite"
					},
					"external": {
						"approve(address,uint256)": "infinite",
						"balanceOf(address)": "2612",
						"getApproved(uint256)": "4799",
						"isApprovedForAll(address,address)": "infinite",
						"name()": "infinite",
						"owner()": "2398",
						"ownerOf(uint256)": "2667",
						"renounceOwnership()": "30207",
						"safeMint(address,string)": "infinite",
						"safeTransferFrom(address,address,uint256)": "infinite",
						"safeTransferFrom(address,address,uint256,bytes)": "infinite",
						"setApprovalForAll(address,bool)": "26736",
						"supportsInterface(bytes4)": "infinite",
						"symbol()": "infinite",
						"tokenByIndex(uint256)": "6804",
						"tokenOfOwnerByIndex(address,uint256)": "4975",
						"tokenURI(uint256)": "infinite",
						"totalSupply()": "2393",
						"transferFrom(address,address,uint256)": "infinite",
						"transferOwnership(address)": "30510"
					},
					"internal": {
						"_beforeTokenTransfer(address,address,uint256)": "infinite",
						"_burn(uint256)": "infinite"
					}
				},
				"methodIdentifiers": {
					"approve(address,uint256)": "095ea7b3",
					"balanceOf(address)": "70a08231",
					"getApproved(uint256)": "081812fc",
					"isApprovedForAll(address,address)": "e985e9c5",
					"name()": "06fdde03",
					"owner()": "8da5cb5b",
					"ownerOf(uint256)": "6352211e",
					"renounceOwnership()": "715018a6",
					"safeMint(address,string)": "d204c45e",
					"safeTransferFrom(address,address,uint256)": "42842e0e",
					"safeTransferFrom(address,address,uint256,bytes)": "b88d4fde",
					"setApprovalForAll(address,bool)": "a22cb465",
					"supportsInterface(bytes4)": "01ffc9a7",
					"symbol()": "95d89b41",
					"tokenByIndex(uint256)": "4f6ccce7",
					"tokenOfOwnerByIndex(address,uint256)": "2f745c59",
					"tokenURI(uint256)": "c87b56dd",
					"totalSupply()": "18160ddd",
					"transferFrom(address,address,uint256)": "23b872dd",
					"transferOwnership(address)": "f2fde38b"
				}
			},
			"storageLayout": {
				"storage": [
					{
						"astId": 726,
						"contract": "MY MainNFT/My_NFT.sol:MinteriumUser",
						"label": "_name",
						"offset": 0,
						"slot": "0",
						"type": "t_string_storage"
					},
					{
						"astId": 728,
						"contract": "MY MainNFT/My_NFT.sol:MinteriumUser",
						"label": "_symbol",
						"offset": 0,
						"slot": "1",
						"type": "t_string_storage"
					},
					{
						"astId": 732,
						"contract": "MY MainNFT/My_NFT.sol:MinteriumUser",
						"label": "_owners",
						"offset": 0,
						"slot": "2",
						"type": "t_mapping(t_uint256,t_address)"
					},
					{
						"astId": 736,
						"contract": "MY MainNFT/My_NFT.sol:MinteriumUser",
						"label": "_balances",
						"offset": 0,
						"slot": "3",
						"type": "t_mapping(t_address,t_uint256)"
					},
					{
						"astId": 740,
						"contract": "MY MainNFT/My_NFT.sol:MinteriumUser",
						"label": "_tokenApprovals",
						"offset": 0,
						"slot": "4",
						"type": "t_mapping(t_uint256,t_address)"
					},
					{
						"astId": 746,
						"contract": "MY MainNFT/My_NFT.sol:MinteriumUser",
						"label": "_operatorApprovals",
						"offset": 0,
						"slot": "5",
						"type": "t_mapping(t_address,t_mapping(t_address,t_bool))"
					},
					{
						"astId": 1559,
						"contract": "MY MainNFT/My_NFT.sol:MinteriumUser",
						"label": "_ownedTokens",
						"offset": 0,
						"slot": "6",
						"type": "t_mapping(t_address,t_mapping(t_uint256,t_uint256))"
					},
					{
						"astId": 1563,
						"contract": "MY MainNFT/My_NFT.sol:MinteriumUser",
						"label": "_ownedTokensIndex",
						"offset": 0,
						"slot": "7",
						"type": "t_mapping(t_uint256,t_uint256)"
					},
					{
						"astId": 1566,
						"contract": "MY MainNFT/My_NFT.sol:MinteriumUser",
						"label": "_allTokens",
						"offset": 0,
						"slot": "8",
						"type": "t_array(t_uint256)dyn_storage"
					},
					{
						"astId": 1570,
						"contract": "MY MainNFT/My_NFT.sol:MinteriumUser",
						"label": "_allTokensIndex",
						"offset": 0,
						"slot": "9",
						"type": "t_mapping(t_uint256,t_uint256)"
					},
					{
						"astId": 1893,
						"contract": "MY MainNFT/My_NFT.sol:MinteriumUser",
						"label": "_tokenURIs",
						"offset": 0,
						"slot": "10",
						"type": "t_mapping(t_uint256,t_string_storage)"
					},
					{
						"astId": 2014,
						"contract": "MY MainNFT/My_NFT.sol:MinteriumUser",
						"label": "_owner",
						"offset": 0,
						"slot": "11",
						"type": "t_address"
					},
					{
						"astId": 2192,
						"contract": "MY MainNFT/My_NFT.sol:MinteriumUser",
						"label": "_tokenIdCounter",
						"offset": 0,
						"slot": "12",
						"type": "t_struct(Counter)2121_storage"
					}
				],
				"types": {
					"t_address": {
						"encoding": "inplace",
						"label": "address",
						"numberOfBytes": "20"
					},
					"t_array(t_uint256)dyn_storage": {
						"base": "t_uint256",
						"encoding": "dynamic_array",
						"label": "uint256[]",
						"numberOfBytes": "32"
					},
					"t_bool": {
						"encoding": "inplace",
						"label": "bool",
						"numberOfBytes": "1"
					},
					"t_mapping(t_address,t_bool)": {
						"encoding": "mapping",
						"key": "t_address",
						"label": "mapping(address => bool)",
						"numberOfBytes": "32",
						"value": "t_bool"
					},
					"t_mapping(t_address,t_mapping(t_address,t_bool))": {
						"encoding": "mapping",
						"key": "t_address",
						"label": "mapping(address => mapping(address => bool))",
						"numberOfBytes": "32",
						"value": "t_mapping(t_address,t_bool)"
					},
					"t_mapping(t_address,t_mapping(t_uint256,t_uint256))": {
						"encoding": "mapping",
						"key": "t_address",
						"label": "mapping(address => mapping(uint256 => uint256))",
						"numberOfBytes": "32",
						"value": "t_mapping(t_uint256,t_uint256)"
					},
					"t_mapping(t_address,t_uint256)": {
						"encoding": "mapping",
						"key": "t_address",
						"label": "mapping(address => uint256)",
						"numberOfBytes": "32",
						"value": "t_uint256"
					},
					"t_mapping(t_uint256,t_address)": {
						"encoding": "mapping",
						"key": "t_uint256",
						"label": "mapping(uint256 => address)",
						"numberOfBytes": "32",
						"value": "t_address"
					},
					"t_mapping(t_uint256,t_string_storage)": {
						"encoding": "mapping",
						"key": "t_uint256",
						"label": "mapping(uint256 => string)",
						"numberOfBytes": "32",
						"value": "t_string_storage"
					},
					"t_mapping(t_uint256,t_uint256)": {
						"encoding": "mapping",
						"key": "t_uint256",
						"label": "mapping(uint256 => uint256)",
						"numberOfBytes": "32",
						"value": "t_uint256"
					},
					"t_string_storage": {
						"encoding": "bytes",
						"label": "string",
						"numberOfBytes": "32"
					},
					"t_struct(Counter)2121_storage": {
						"encoding": "inplace",
						"label": "struct Counters.Counter",
						"members": [
							{
								"astId": 2120,
								"contract": "MY MainNFT/My_NFT.sol:MinteriumUser",
								"label": "_value",
								"offset": 0,
								"slot": "0",
								"type": "t_uint256"
							}
						],
						"numberOfBytes": "32"
					},
					"t_uint256": {
						"encoding": "inplace",
						"label": "uint256",
						"numberOfBytes": "32"
					}
				}
			},
			"userdoc": {
				"kind": "user",
				"methods": {},
				"version": 1
			}
		}
	}
}